


ARM Macro Assembler    Page 1 


    1 00000000         ;
    2 00000000         ;-------------------------------------------------------
                       ---------------
    3 00000000         ;File    : HardFaultHandler.S
    4 00000000         ;Purpose : HardFault exception handler for IAR, Keil and
                        GNU assembler.
    5 00000000         ;          Evaluates used stack (MSP, PSP) and passes ap
                       propiate stack
    6 00000000         ;          pointer to the HardFaultHandler "C"-routine.
    7 00000000         ;------------- END-OF-HEADER ---------------------------
                       ---------------
    8 00000000         
    9 00000000         ;
   10 00000000         ;/******************************************************
                       ***************
   11 00000000         ;*
   12 00000000         ;*     Forward declarations of segments used
   13 00000000         ;*
   14 00000000         ;*******************************************************
                       ***************
   15 00000000         ;*/
   16 00000000                 AREA             OSKERNEL, CODE, READONLY, ALIGN
=2
   17 00000000                 PRESERVE8
   18 00000000         
   19 00000000                 EXPORT           HardFault_Handler
   20 00000000         
   21 00000000                 IMPORT           HardFaultHandler
   22 00000000         
   23 00000000                 THUMB
   24 00000000         
   25 00000000         
   26 00000000         ;/******************************************************
                       ***************
   27 00000000         ;*
   28 00000000         ;*       Global functions
   29 00000000         ;*
   30 00000000         ;*******************************************************
                       ***************
   31 00000000         ;*/
   32 00000000         
   33 00000000         ;/******************************************************
                       ***************
   34 00000000         ;*
   35 00000000         ;*      HardFault_Handler()
   36 00000000         ;*
   37 00000000         ;*  Function description
   38 00000000         ;*    Evaluates the used stack (MSP, PSP) and passes the
                        appropiate
   39 00000000         ;*    stack pointer to the HardFaultHandler "C"-routine.
                       
   40 00000000         ;*
   41 00000000         ;*  Notes
   42 00000000         ;*    (1) Ensure that HardFault_Handler is part of the e
                       xception table
   43 00000000         ;*/
   44 00000000         
   45 00000000         HardFault_Handler
   46 00000000         



ARM Macro Assembler    Page 2 


   47 00000000         ;// This version is for Cortex M3, Cortex M4 and Cortex 
                       M4F
   48 00000000 F01E 0F04       tst              LR, #4      ;// Check EXC_RETUR
                                                            N in Link register 
                                                            bit 2.
   49 00000004 BF0C            ite              EQ
   50 00000006 F3EF 8008       mrseq            R0, MSP     ;// Stacking was us
                                                            ing MSP.
   51 0000000A F3EF 8009       mrsne            R0, PSP     ;// Stacking was us
                                                            ing PSP.
   52 0000000E F7FF BFFE       b                HardFaultHandler ;// Stack poin
                                                            ter passed through 
                                                            R0.
   53 00000012         
   54 00000012                 END
Command Line: --debug --xref --diag_suppress=9931 --cpu=Cortex-M3 --apcs=interw
ork --depend=.\objects\hardfaulthandler.d -o.\objects\hardfaulthandler.o -I.\RT
E\CMSIS -I.\RTE\Compiler -I.\RTE\_Flash -IE:\Keil_v5\Packs\ARM\CMSIS\5.7.0\CMSI
S\Core\Include -IE:\Keil_v5\Packs\ARM\CMSIS\5.7.0\CMSIS\RTOS2\Include -IE:\Keil
_v5\Packs\ARM\CMSIS\5.7.0\CMSIS\RTOS2\RTX\Include -IE:\Keil_v5\Packs\Keil\ARM_C
ompiler\1.6.3\Include -IE:\Keil_v5\Packs\Keil\STM32F1xx_DFP\2.2.0\Device\Includ
e --predefine="__RTX SETA 1" --predefine="__MICROLIB SETA 1" --predefine="__UVI
SION_VERSION SETA 531" --predefine="_RTE_ SETA 1" --predefine="STM32F10X_MD SET
A 1" --predefine="_RTE_ SETA 1" --list=.\listings\hardfaulthandler.lst ..\..\Us
er\segger\HardFaultHandlerMDK\HardFaultHandler.S



ARM Macro Assembler    Page 1 Alphabetic symbol ordering
Relocatable symbols

HardFault_Handler 00000000

Symbol: HardFault_Handler
   Definitions
      At line 45 in file ..\..\User\segger\HardFaultHandlerMDK\HardFaultHandler
.S
   Uses
      At line 19 in file ..\..\User\segger\HardFaultHandlerMDK\HardFaultHandler
.S
Comment: HardFault_Handler used once
OSKERNEL 00000000

Symbol: OSKERNEL
   Definitions
      At line 16 in file ..\..\User\segger\HardFaultHandlerMDK\HardFaultHandler
.S
   Uses
      None
Comment: OSKERNEL unused
2 symbols



ARM Macro Assembler    Page 1 Alphabetic symbol ordering
External symbols

HardFaultHandler 00000000

Symbol: HardFaultHandler
   Definitions
      At line 21 in file ..\..\User\segger\HardFaultHandlerMDK\HardFaultHandler
.S
   Uses
      At line 52 in file ..\..\User\segger\HardFaultHandlerMDK\HardFaultHandler
.S
Comment: HardFaultHandler used once
1 symbol
338 symbols in table
