Component: ARM Compiler 6.14 Tool: armlink [5db06800]

==============================================================================

Section Cross References

    main.o(.text.main) refers to bsp.o(.text.System_Init) for System_Init
    main.o(.text.main) refers to rtx_kernel.o(.text.osKernelInitialize) for osKernelInitialize
    main.o(.text.main) refers to main.o(.text.AppTaskStart) for AppTaskStart
    main.o(.text.main) refers to main.o(.rodata.ThreadStart_Attr) for ThreadStart_Attr
    main.o(.text.main) refers to rtx_thread.o(.text.osThreadNew) for osThreadNew
    main.o(.text.main) refers to main.o(.bss.ThreadIdStart) for ThreadIdStart
    main.o(.text.main) refers to rtx_kernel.o(.text.osKernelStart) for osKernelStart
    main.o(.ARM.exidx.text.main) refers to main.o(.text.main) for [Anonymous Symbol]
    main.o(.text.AppTaskStart) refers to bsp.o(.text.bsp_Init) for bsp_Init
    main.o(.text.AppTaskStart) refers to main.o(.rodata.str1.1) for .L.str.3
    main.o(.text.AppTaskStart) refers to segger_rtt.o(.text.SEGGER_RTT_ConfigUpBuffer) for SEGGER_RTT_ConfigUpBuffer
    main.o(.text.AppTaskStart) refers to segger_rtt.o(.text.SEGGER_RTT_ConfigDownBuffer) for SEGGER_RTT_ConfigDownBuffer
    main.o(.text.AppTaskStart) refers to main.o(.text.AppTaskCreate) for AppTaskCreate
    main.o(.text.AppTaskStart) refers to main.o(.text.AppObjCreate) for AppObjCreate
    main.o(.text.AppTaskStart) refers to rtx_kernel.o(.text.osKernelGetTickCount) for osKernelGetTickCount
    main.o(.text.AppTaskStart) refers to rtx_delay.o(.text.osDelayUntil) for osDelayUntil
    main.o(.ARM.exidx.text.AppTaskStart) refers to main.o(.text.AppTaskStart) for [Anonymous Symbol]
    main.o(.ARM.exidx.text.AppObjCreate) refers to main.o(.text.AppObjCreate) for [Anonymous Symbol]
==============================================================================

Removing Unused input sections from the image.

    Removing main.o(.text), (0 bytes).
    Removing main.o(.ARM.exidx.text.main), (8 bytes).
    Removing main.o(.ARM.exidx.text.AppTaskStart), (8 bytes).
    Removing main.o(.ARM.exidx.text.AppObjCreate), (8 bytes).
    Removing main.o(.ARM.exidx.text.ble_control), (8 bytes).
    Removing main.o(.ARM.exidx.text.AppTaskCreate), (8 bytes).
    Removing main.o(.ARM.exidx.text.AppTaskMsgBack), (8 bytes).
    Removing main.o(.ARM.exidx.text.AppTaskControl), (8 bytes).
    Removing main.o(.ARM.exidx.text.AppTimerHanle), (8 bytes).
    Removing tool.o(.text), (0 bytes).
    Removing tool.o(.text.xorCheckCalc), (90 bytes).
    Removing tool.o(.ARM.exidx.text.xorCheckCalc), (8 bytes).
    Removing pid.o(.text), (0 bytes).
    Removing pid.o(.ARM.exidx.text.bsp_InitPid), (8 bytes).
    Removing pid.o(.ARM.exidx.text.wheelSpeedPidCalc), (8 bytes).
    Removing pid.o(.ARM.exidx.text.PID_Param_SetZero), (8 bytes).
    Removing motor.o(.text), (0 bytes).
    Removing motor.o(.ARM.exidx.text.MotorControl), (8 bytes).
==============================================================================

Image Symbol Table

    Local Symbols

    Symbol Name                              Value     Ov Type        Size  Object(Section)

    ../../User/startup_stm32f103xe.s         0x00000000   Number         0  startup_stm32f103xe.o ABSOLUTE
    ../clib/microlib/division.c              0x00000000   Number         0  uidiv.o ABSOLUTE
    ../clib/microlib/division.c              0x00000000   Number         0  uldiv.o ABSOLUTE
    ../clib/microlib/init/entry.s            0x00000000   Number         0  entry.o ABSOLUTE
    ../clib/microlib/init/entry.s            0x00000000   Number         0  entry2.o ABSOLUTE
    ../clib/microlib/init/entry.s            0x00000000   Number         0  entry5.o ABSOLUTE
    ../clib/microlib/init/entry.s            0x00000000   Number         0  entry7a.o ABSOLUTE
    ../clib/microlib/init/entry.s            0x00000000   Number         0  entry7b.o ABSOLUTE
    ../clib/microlib/init/entry.s            0x00000000   Number         0  entry8a.o ABSOLUTE
    ../clib/microlib/init/entry.s            0x00000000   Number         0  entry8b.o ABSOLUTE
    ../clib/microlib/init/entry.s            0x00000000   Number         0  entry9a.o ABSOLUTE
    ../clib/microlib/init/entry.s            0x00000000   Number         0  entry9b.o ABSOLUTE
    ../clib/microlib/init/entry.s            0x00000000   Number         0  entry10a.o ABSOLUTE
    ../clib/microlib/init/entry.s            0x00000000   Number         0  entry10b.o ABSOLUTE
    ../clib/microlib/init/entry.s            0x00000000   Number         0  entry11a.o ABSOLUTE
    ../clib/microlib/init/entry.s            0x00000000   Number         0  entry11b.o ABSOLUTE
    ../clib/microlib/longlong.c              0x00000000   Number         0  llushr.o ABSOLUTE
    ../clib/microlib/longlong.c              0x00000000   Number         0  llshl.o ABSOLUTE
    ../clib/microlib/longlong.c              0x00000000   Number         0  llsshr.o ABSOLUTE
    ../clib/microlib/printf/printf.c         0x00000000   Number         0  printfa.o ABSOLUTE
    ../clib/microlib/stdio/fputs.c           0x00000000   Number         0  fputs.o ABSOLUTE
    ../clib/microlib/stdio/fputs.c           0x00000000   Number         0  fputs_e.o ABSOLUTE
    ../clib/microlib/stdio/streams.c         0x00000000   Number         0  stdout.o ABSOLUTE
    ../clib/microlib/stdio/streams.c         0x00000000   Number         0  stderr.o ABSOLUTE
    ../clib/microlib/stdlib/abs.c            0x00000000   Number         0  siabs.o ABSOLUTE
    ../clib/microlib/stdlib/abs.c            0x00000000   Number         0  ilabs.o ABSOLUTE
    ../clib/microlib/string/memcpy.c         0x00000000   Number         0  memcpya.o ABSOLUTE
    ../clib/microlib/string/memcpy.c         0x00000000   Number         0  memcpyb.o ABSOLUTE
    ../clib/microlib/string/memset.c         0x00000000   Number         0  memseta.o ABSOLUTE
    ../clib/microlib/string/strcpy.c         0x00000000   Number         0  strcpy.o ABSOLUTE
    ../clib/microlib/string/strlen.c         0x00000000   Number         0  strlen.o ABSOLUTE
    ../clib/microlib/stubs.s                 0x00000000   Number         0  iusefp.o ABSOLUTE
    ../fplib/microlib/fpadd.c                0x00000000   Number         0  fadd.o ABSOLUTE
    ../fplib/microlib/fpadd.c                0x00000000   Number         0  dadd.o ABSOLUTE
    ../fplib/microlib/fpcmp.c                0x00000000   Number         0  fcmple.o ABSOLUTE
    ../fplib/microlib/fpcmp.c                0x00000000   Number         0  fcmpge.o ABSOLUTE
    ../fplib/microlib/fpdiv.c                0x00000000   Number         0  fdiv.o ABSOLUTE
    ../fplib/microlib/fpdiv.c                0x00000000   Number         0  ddiv.o ABSOLUTE
    ../fplib/microlib/fpepilogue.c           0x00000000   Number         0  fepilogue.o ABSOLUTE
    ../fplib/microlib/fpepilogue.c           0x00000000   Number         0  depilogue.o ABSOLUTE
    ../fplib/microlib/fpfix.c                0x00000000   Number         0  ffixi.o ABSOLUTE
    ../fplib/microlib/fpfix.c                0x00000000   Number         0  dfixi.o ABSOLUTE
    ../fplib/microlib/fpfix.c                0x00000000   Number         0  dfixul.o ABSOLUTE
    ../fplib/microlib/fpflt.c                0x00000000   Number         0  fflti.o ABSOLUTE
    ../fplib/microlib/fpflt.c                0x00000000   Number         0  dflti.o ABSOLUTE
    ../fplib/microlib/fpmul.c                0x00000000   Number         0  fmul.o ABSOLUTE
    ../fplib/microlib/fpmul.c                0x00000000   Number         0  dmul.o ABSOLUTE
    ..\..\User\segger\HardFaultHandlerMDK\HardFaultHandler.S 0x00000000   Number         0  hardfaulthandler.o ABSOLUTE
    EventRecorder.c                          0x00000000   Number         0  eventrecorder.o ABSOLUTE
    RTX_Config.c                             0x00000000   Number         0  rtx_config.o ABSOLUTE
    SEGGER_HardFaultHandler.c                0x00000000   Number         0  segger_hardfaulthandler.o ABSOLUTE
    SEGGER_RTT.c                             0x00000000   Number         0  segger_rtt.o ABSOLUTE
    SEGGER_RTT_printf.c                      0x00000000   Number         0  segger_rtt_printf.o ABSOLUTE
    autocontrol.c                            0x00000000   Number         0  autocontrol.o ABSOLUTE
    bsp.c                                    0x00000000   Number         0  bsp.o ABSOLUTE
    bsp_adc.c                                0x00000000   Number         0  bsp_adc.o ABSOLUTE
    bsp_can.c                                0x00000000   Number         0  bsp_can.o ABSOLUTE
    bsp_dwt.c                                0x00000000   Number         0  bsp_dwt.o ABSOLUTE
    bsp_encoder.c                            0x00000000   Number         0  bsp_encoder.o ABSOLUTE
    bsp_key.c                                0x00000000   Number         0  bsp_key.o ABSOLUTE
    bsp_led.c                                0x00000000   Number         0  bsp_led.o ABSOLUTE
    bsp_motor.c                              0x00000000   Number         0  bsp_motor.o ABSOLUTE
    bsp_oled.c                               0x00000000   Number         0  bsp_oled.o ABSOLUTE
    bsp_ps2.c                                0x00000000   Number         0  bsp_ps2.o ABSOLUTE
    bsp_servo.c                              0x00000000   Number         0  bsp_servo.o ABSOLUTE
    bsp_timer.c                              0x00000000   Number         0  bsp_timer.o ABSOLUTE
    bsp_uart.c                               0x00000000   Number         0  bsp_uart.o ABSOLUTE
    cdrcmple.s                               0x00000000   Number         0  cdrcmple.o ABSOLUTE
    d:/Keil_v5/ARM/PACK/ARM/CMSIS/5.7.0/CMSIS/RTOS2/RTX/Source/ARM/irq_cm3.s 0x00000000   Number         0  irq_cm3.o ABSOLUTE
    dc.s                                     0x00000000   Number         0  dc.o ABSOLUTE
    handlers.s                               0x00000000   Number         0  handlers.o ABSOLUTE
    init.s                                   0x00000000   Number         0  init.o ABSOLUTE
    main.c                                   0x00000000   Number         0  main.o ABSOLUTE
    motor.c                                  0x00000000   Number         0  motor.o ABSOLUTE
    mpuiic.c                                 0x00000000   Number         0  mpuiic.o ABSOLUTE
    os_systick.c                             0x00000000   Number         0  os_systick.o ABSOLUTE
    pid.c                                    0x00000000   Number         0  pid.o ABSOLUTE
    retarget_io.c                            0x00000000   Number         0  retarget_io.o ABSOLUTE
    rtx_delay.c                              0x00000000   Number         0  rtx_delay.o ABSOLUTE
    rtx_evflags.c                            0x00000000   Number         0  rtx_evflags.o ABSOLUTE
    rtx_evr.c                                0x00000000   Number         0  rtx_evr.o ABSOLUTE
    rtx_kernel.c                             0x00000000   Number         0  rtx_kernel.o ABSOLUTE
    rtx_lib.c                                0x00000000   Number         0  rtx_lib.o ABSOLUTE
    rtx_memory.c                             0x00000000   Number         0  rtx_memory.o ABSOLUTE
    rtx_mempool.c                            0x00000000   Number         0  rtx_mempool.o ABSOLUTE
    rtx_msgqueue.c                           0x00000000   Number         0  rtx_msgqueue.o ABSOLUTE
    rtx_mutex.c                              0x00000000   Number         0  rtx_mutex.o ABSOLUTE
    rtx_semaphore.c                          0x00000000   Number         0  rtx_semaphore.o ABSOLUTE
    rtx_system.c                             0x00000000   Number         0  rtx_system.o ABSOLUTE
    rtx_thread.c                             0x00000000   Number         0  rtx_thread.o ABSOLUTE
    rtx_timer.c                              0x00000000   Number         0  rtx_timer.o ABSOLUTE
    steercontrol.c                           0x00000000   Number         0  steercontrol.o ABSOLUTE
    stm32f1xx_hal.c                          0x00000000   Number         0  stm32f1xx_hal.o ABSOLUTE
    stm32f1xx_hal_adc.c                      0x00000000   Number         0  stm32f1xx_hal_adc.o ABSOLUTE
    stm32f1xx_hal_adc_ex.c                   0x00000000   Number         0  stm32f1xx_hal_adc_ex.o ABSOLUTE
    stm32f1xx_hal_can.c                      0x00000000   Number         0  stm32f1xx_hal_can.o ABSOLUTE
    stm32f1xx_hal_cec.c                      0x00000000   Number         0  stm32f1xx_hal_cec.o ABSOLUTE
    stm32f1xx_hal_cortex.c                   0x00000000   Number         0  stm32f1xx_hal_cortex.o ABSOLUTE
    stm32f1xx_hal_crc.c                      0x00000000   Number         0  stm32f1xx_hal_crc.o ABSOLUTE
    stm32f1xx_hal_dac.c                      0x00000000   Number         0  stm32f1xx_hal_dac.o ABSOLUTE
    stm32f1xx_hal_dac_ex.c                   0x00000000   Number         0  stm32f1xx_hal_dac_ex.o ABSOLUTE
    stm32f1xx_hal_dma.c                      0x00000000   Number         0  stm32f1xx_hal_dma.o ABSOLUTE
    stm32f1xx_hal_eth.c                      0x00000000   Number         0  stm32f1xx_hal_eth.o ABSOLUTE
    stm32f1xx_hal_exti.c                     0x00000000   Number         0  stm32f1xx_hal_exti.o ABSOLUTE
    stm32f1xx_hal_flash.c                    0x00000000   Number         0  stm32f1xx_hal_flash.o ABSOLUTE
    stm32f1xx_hal_flash_ex.c                 0x00000000   Number         0  stm32f1xx_hal_flash_ex.o ABSOLUTE
    stm32f1xx_hal_gpio.c                     0x00000000   Number         0  stm32f1xx_hal_gpio.o ABSOLUTE
    stm32f1xx_hal_gpio_ex.c                  0x00000000   Number         0  stm32f1xx_hal_gpio_ex.o ABSOLUTE
    stm32f1xx_hal_hcd.c                      0x00000000   Number         0  stm32f1xx_hal_hcd.o ABSOLUTE
    stm32f1xx_hal_i2c.c                      0x00000000   Number         0  stm32f1xx_hal_i2c.o ABSOLUTE
    stm32f1xx_hal_i2s.c                      0x00000000   Number         0  stm32f1xx_hal_i2s.o ABSOLUTE
    stm32f1xx_hal_irda.c                     0x00000000   Number         0  stm32f1xx_hal_irda.o ABSOLUTE
    stm32f1xx_hal_iwdg.c                     0x00000000   Number         0  stm32f1xx_hal_iwdg.o ABSOLUTE
    stm32f1xx_hal_mmc.c                      0x00000000   Number         0  stm32f1xx_hal_mmc.o ABSOLUTE
    stm32f1xx_hal_msp.c                      0x00000000   Number         0  stm32f1xx_hal_msp.o ABSOLUTE
    stm32f1xx_hal_nand.c                     0x00000000   Number         0  stm32f1xx_hal_nand.o ABSOLUTE
    stm32f1xx_hal_nor.c                      0x00000000   Number         0  stm32f1xx_hal_nor.o ABSOLUTE
    stm32f1xx_hal_pwr.c                      0x00000000   Number         0  stm32f1xx_hal_pwr.o ABSOLUTE
    stm32f1xx_hal_rcc.c                      0x00000000   Number         0  stm32f1xx_hal_rcc.o ABSOLUTE
    stm32f1xx_hal_rcc_ex.c                   0x00000000   Number         0  stm32f1xx_hal_rcc_ex.o ABSOLUTE
    stm32f1xx_hal_rtc.c                      0x00000000   Number         0  stm32f1xx_hal_rtc.o ABSOLUTE
    stm32f1xx_hal_rtc_ex.c                   0x00000000   Number         0  stm32f1xx_hal_rtc_ex.o ABSOLUTE
    stm32f1xx_hal_sd.c                       0x00000000   Number         0  stm32f1xx_hal_sd.o ABSOLUTE
    stm32f1xx_hal_smartcard.c                0x00000000   Number         0  stm32f1xx_hal_smartcard.o ABSOLUTE
    stm32f1xx_hal_spi.c                      0x00000000   Number         0  stm32f1xx_hal_spi.o ABSOLUTE
    stm32f1xx_hal_sram.c                     0x00000000   Number         0  stm32f1xx_hal_sram.o ABSOLUTE
    stm32f1xx_hal_tim.c                      0x00000000   Number         0  stm32f1xx_hal_tim.o ABSOLUTE
    stm32f1xx_hal_tim_ex.c                   0x00000000   Number         0  stm32f1xx_hal_tim_ex.o ABSOLUTE
    stm32f1xx_hal_timebase_tim.c             0x00000000   Number         0  stm32f1xx_hal_timebase_tim.o ABSOLUTE
    stm32f1xx_hal_uart.c                     0x00000000   Number         0  stm32f1xx_hal_uart.o ABSOLUTE
    stm32f1xx_hal_usart.c                    0x00000000   Number         0  stm32f1xx_hal_usart.o ABSOLUTE
    stm32f1xx_hal_wwdg.c                     0x00000000   Number         0  stm32f1xx_hal_wwdg.o ABSOLUTE
    stm32f1xx_it.c                           0x00000000   Number         0  stm32f1xx_it.o ABSOLUTE
    stm32f1xx_ll_adc.c                       0x00000000   Number         0  stm32f1xx_ll_adc.o ABSOLUTE
    stm32f1xx_ll_crc.c                       0x00000000   Number         0  stm32f1xx_ll_crc.o ABSOLUTE
    stm32f1xx_ll_dac.c                       0x00000000   Number         0  stm32f1xx_ll_dac.o ABSOLUTE
    stm32f1xx_ll_dma.c                       0x00000000   Number         0  stm32f1xx_ll_dma.o ABSOLUTE
    stm32f1xx_ll_exti.c                      0x00000000   Number         0  stm32f1xx_ll_exti.o ABSOLUTE
    stm32f1xx_ll_fsmc.c                      0x00000000   Number         0  stm32f1xx_ll_fsmc.o ABSOLUTE
    stm32f1xx_ll_gpio.c                      0x00000000   Number         0  stm32f1xx_ll_gpio.o ABSOLUTE
    stm32f1xx_ll_i2c.c                       0x00000000   Number         0  stm32f1xx_ll_i2c.o ABSOLUTE
    stm32f1xx_ll_pwr.c                       0x00000000   Number         0  stm32f1xx_ll_pwr.o ABSOLUTE
    stm32f1xx_ll_rcc.c                       0x00000000   Number         0  stm32f1xx_ll_rcc.o ABSOLUTE
    stm32f1xx_ll_rtc.c                       0x00000000   Number         0  stm32f1xx_ll_rtc.o ABSOLUTE
    stm32f1xx_ll_sdmmc.c                     0x00000000   Number         0  stm32f1xx_ll_sdmmc.o ABSOLUTE
    stm32f1xx_ll_spi.c                       0x00000000   Number         0  stm32f1xx_ll_spi.o ABSOLUTE
    stm32f1xx_ll_tim.c                       0x00000000   Number         0  stm32f1xx_ll_tim.o ABSOLUTE
    stm32f1xx_ll_usart.c                     0x00000000   Number         0  stm32f1xx_ll_usart.o ABSOLUTE
    stm32f1xx_ll_usb.c                       0x00000000   Number         0  stm32f1xx_ll_usb.o ABSOLUTE
    stm32f1xx_ll_utils.c                     0x00000000   Number         0  stm32f1xx_ll_utils.o ABSOLUTE
    system_stm32f1xx.c                       0x00000000   Number         0  system_stm32f1xx.o ABSOLUTE
    tool.c                                   0x00000000   Number         0  tool.o ABSOLUTE
    RESET                                    0x08000000   Section      304  startup_stm32f103xe.o(RESET)
    .ARM.Collect$$$$00000000                 0x08000130   Section        0  entry.o(.ARM.Collect$$$$00000000)
    .ARM.Collect$$$$00000001                 0x08000130   Section        4  entry2.o(.ARM.Collect$$$$00000001)
    .ARM.Collect$$$$00000004                 0x08000134   Section        4  entry5.o(.ARM.Collect$$$$00000004)
    .ARM.Collect$$$$00000008                 0x08000138   Section        0  entry7b.o(.ARM.Collect$$$$00000008)
    .ARM.Collect$$$$0000000A                 0x08000138   Section        0  entry8b.o(.ARM.Collect$$$$0000000A)
    .ARM.Collect$$$$0000000B                 0x08000138   Section        8  entry9a.o(.ARM.Collect$$$$0000000B)
    __lit__00000000                          0x08000140   Data           4  entry2.o(.ARM.Collect$$$$00002712)
    .ARM.Collect$$$$0000000D                 0x08000140   Section        0  entry10a.o(.ARM.Collect$$$$0000000D)
    .ARM.Collect$$$$0000000F                 0x08000140   Section        0  entry11a.o(.ARM.Collect$$$$0000000F)
    .ARM.Collect$$$$00002712                 0x08000140   Section        4  entry2.o(.ARM.Collect$$$$00002712)
    .text                                    0x08000144   Section       36  startup_stm32f103xe.o(.text)
    .text                                    0x08000168   Section      148  irq_cm3.o(.text)
    .text                                    0x080001fc   Section        0  siabs.o(.text)
    .text                                    0x08000204   Section        0  memcpya.o(.text)
    .text                                    0x08000228   Section        0  memseta.o(.text)
    .text                                    0x0800024c   Section        0  strcpy.o(.text)
    .text                                    0x0800025e   Section        0  fadd.o(.text)
    .text                                    0x0800030e   Section        0  fmul.o(.text)
    .text                                    0x08000372   Section        0  fdiv.o(.text)
    .text                                    0x080003ee   Section        0  dmul.o(.text)
    .text                                    0x080004d2   Section        0  ddiv.o(.text)
    .text                                    0x080005b0   Section        0  fcmple.o(.text)
    .text                                    0x080005cc   Section        0  fcmpge.o(.text)
    .text                                    0x080005e8   Section        0  fflti.o(.text)
    .text                                    0x080005fa   Section        0  dflti.o(.text)
    .text                                    0x0800061c   Section        0  ffixi.o(.text)
    .text                                    0x0800064e   Section        0  dfixi.o(.text)
    .text                                    0x0800068c   Section        0  uidiv.o(.text)
    .text                                    0x080006b8   Section        0  uldiv.o(.text)
    .text                                    0x0800071a   Section        0  llushr.o(.text)
    .text                                    0x0800073a   Section        0  iusefp.o(.text)
    .text                                    0x0800073a   Section        0  fepilogue.o(.text)
    .text                                    0x080007a8   Section        0  depilogue.o(.text)
    .text                                    0x08000862   Section        0  dadd.o(.text)
    .text                                    0x080009b0   Section        0  dfixul.o(.text)
    .text                                    0x080009e0   Section       48  cdrcmple.o(.text)
    .text                                    0x08000a10   Section       36  init.o(.text)
    .text                                    0x08000a34   Section        0  llshl.o(.text)
    .text                                    0x08000a52   Section        0  llsshr.o(.text)
    [Anonymous Symbol]                       0x08000a78   Section        0  stm32f1xx_hal_adc.o(.text.ADC_ConversionStop_Disable)
    [Anonymous Symbol]                       0x08000af0   Section        0  stm32f1xx_hal_adc.o(.text.ADC_Enable)
    [Anonymous Symbol]                       0x08000ba4   Section        0  main.o(.text.AppObjCreate)
    AppTaskControl                           0x08000ba9   Thumb Code    42  main.o(.text.AppTaskControl)
    [Anonymous Symbol]                       0x08000ba8   Section        0  main.o(.text.AppTaskControl)
    AppTaskCreate                            0x08000bd5   Thumb Code   110  main.o(.text.AppTaskCreate)
    [Anonymous Symbol]                       0x08000bd4   Section        0  main.o(.text.AppTaskCreate)
    AppTaskMsgBack                           0x08000c45   Thumb Code    18  main.o(.text.AppTaskMsgBack)
    [Anonymous Symbol]                       0x08000c44   Section        0  main.o(.text.AppTaskMsgBack)
    AppTaskStart                             0x08000c59   Thumb Code   106  main.o(.text.AppTaskStart)
    [Anonymous Symbol]                       0x08000c58   Section        0  main.o(.text.AppTaskStart)
    AppTimerHanle                            0x08000cc5   Thumb Code    16  main.o(.text.AppTimerHanle)
    [Anonymous Symbol]                       0x08000cc4   Section        0  main.o(.text.AppTimerHanle)
    AutoControlCmdParse                      0x08000cd5   Thumb Code   402  bsp_uart.o(.text.AutoControlCmdParse)
    [Anonymous Symbol]                       0x08000cd4   Section        0  bsp_uart.o(.text.AutoControlCmdParse)
    [Anonymous Symbol]                       0x08000e68   Section        0  stm32f1xx_it.o(.text.BusFault_Handler)
    [Anonymous Symbol]                       0x08000e6c   Section        0  bsp_uart.o(.text.ComToUart)
    [Anonymous Symbol]                       0x08000f04   Section        0  stm32f1xx_it.o(.text.DebugMon_Handler)
    [Anonymous Symbol]                       0x08000f08   Section        0  bsp.o(.text.Error_Handler)
    EventCheckFilter                         0x08000f31   Thumb Code    64  eventrecorder.o(.text.EventCheckFilter)
    [Anonymous Symbol]                       0x08000f30   Section        0  eventrecorder.o(.text.EventCheckFilter)
    EventGetTS                               0x08000f71   Thumb Code    66  eventrecorder.o(.text.EventGetTS)
    [Anonymous Symbol]                       0x08000f70   Section        0  eventrecorder.o(.text.EventGetTS)
    [Anonymous Symbol]                       0x08000fb4   Section        0  eventrecorder.o(.text.EventRecord2)
    [Anonymous Symbol]                       0x08001010   Section        0  eventrecorder.o(.text.EventRecord4)
    EventRecordItem                          0x080010b1   Thumb Code   256  eventrecorder.o(.text.EventRecordItem)
    [Anonymous Symbol]                       0x080010b0   Section        0  eventrecorder.o(.text.EventRecordItem)
    [Anonymous Symbol]                       0x080011b0   Section        0  eventrecorder.o(.text.EventRecorderTimerGetCount)
    [Anonymous Symbol]                       0x080011bc   Section        0  rtx_evr.o(.text.EvrRtxDelay)
    [Anonymous Symbol]                       0x080011d8   Section        0  rtx_evr.o(.text.EvrRtxDelayCompleted)
    [Anonymous Symbol]                       0x080011f4   Section        0  rtx_evr.o(.text.EvrRtxDelayError)
    [Anonymous Symbol]                       0x0800120c   Section        0  rtx_evr.o(.text.EvrRtxDelayStarted)
    [Anonymous Symbol]                       0x08001228   Section        0  rtx_evr.o(.text.EvrRtxDelayUntil)
    [Anonymous Symbol]                       0x08001244   Section        0  rtx_evr.o(.text.EvrRtxDelayUntilStarted)
    [Anonymous Symbol]                       0x08001260   Section        0  rtx_evr.o(.text.EvrRtxEventFlagsWaitTimeout)
    [Anonymous Symbol]                       0x0800127c   Section        0  rtx_evr.o(.text.EvrRtxKernelError)
    [Anonymous Symbol]                       0x08001294   Section        0  rtx_evr.o(.text.EvrRtxKernelGetState)
    [Anonymous Symbol]                       0x080012b0   Section        0  rtx_evr.o(.text.EvrRtxKernelGetTickCount)
    [Anonymous Symbol]                       0x080012cc   Section        0  rtx_evr.o(.text.EvrRtxKernelInitialize)
    [Anonymous Symbol]                       0x080012e8   Section        0  rtx_evr.o(.text.EvrRtxKernelInitialized)
    [Anonymous Symbol]                       0x08001304   Section        0  rtx_evr.o(.text.EvrRtxKernelStart)
    [Anonymous Symbol]                       0x08001320   Section        0  rtx_evr.o(.text.EvrRtxKernelStarted)
    [Anonymous Symbol]                       0x0800133c   Section        0  rtx_evr.o(.text.EvrRtxMemoryAlloc)
    [Anonymous Symbol]                       0x08001368   Section        0  rtx_evr.o(.text.EvrRtxMemoryBlockAlloc)
    [Anonymous Symbol]                       0x08001384   Section        0  rtx_evr.o(.text.EvrRtxMemoryBlockFree)
    [Anonymous Symbol]                       0x080013b0   Section        0  rtx_evr.o(.text.EvrRtxMemoryBlockInit)
    [Anonymous Symbol]                       0x080013dc   Section        0  rtx_evr.o(.text.EvrRtxMemoryFree)
    [Anonymous Symbol]                       0x08001408   Section        0  rtx_evr.o(.text.EvrRtxMemoryInit)
    [Anonymous Symbol]                       0x08001430   Section        0  rtx_evr.o(.text.EvrRtxMemoryPoolAllocTimeout)
    [Anonymous Symbol]                       0x0800144c   Section        0  rtx_evr.o(.text.EvrRtxMessageQueueCreated)
    [Anonymous Symbol]                       0x08001468   Section        0  rtx_evr.o(.text.EvrRtxMessageQueueError)
    [Anonymous Symbol]                       0x08001480   Section        0  rtx_evr.o(.text.EvrRtxMessageQueueGet)
    [Anonymous Symbol]                       0x080014ac   Section        0  rtx_evr.o(.text.EvrRtxMessageQueueGetPending)
    [Anonymous Symbol]                       0x080014d8   Section        0  rtx_evr.o(.text.EvrRtxMessageQueueGetTimeout)
    [Anonymous Symbol]                       0x080014f4   Section        0  rtx_evr.o(.text.EvrRtxMessageQueueInsertPending)
    [Anonymous Symbol]                       0x08001510   Section        0  rtx_evr.o(.text.EvrRtxMessageQueueInserted)
    [Anonymous Symbol]                       0x0800152c   Section        0  rtx_evr.o(.text.EvrRtxMessageQueueNew)
    [Anonymous Symbol]                       0x08001558   Section        0  rtx_evr.o(.text.EvrRtxMessageQueueNotInserted)
    [Anonymous Symbol]                       0x08001574   Section        0  rtx_evr.o(.text.EvrRtxMessageQueueNotRetrieved)
    [Anonymous Symbol]                       0x08001590   Section        0  rtx_evr.o(.text.EvrRtxMessageQueuePut)
    [Anonymous Symbol]                       0x080015c4   Section        0  rtx_evr.o(.text.EvrRtxMessageQueuePutPending)
    [Anonymous Symbol]                       0x080015f0   Section        0  rtx_evr.o(.text.EvrRtxMessageQueuePutTimeout)
    [Anonymous Symbol]                       0x0800160c   Section        0  rtx_evr.o(.text.EvrRtxMessageQueueRetrieved)
    [Anonymous Symbol]                       0x08001628   Section        0  rtx_evr.o(.text.EvrRtxMutexAcquireTimeout)
    [Anonymous Symbol]                       0x08001644   Section        0  rtx_evr.o(.text.EvrRtxMutexAcquired)
    [Anonymous Symbol]                       0x08001660   Section        0  rtx_evr.o(.text.EvrRtxMutexReleased)
    [Anonymous Symbol]                       0x0800167c   Section        0  rtx_evr.o(.text.EvrRtxSemaphoreAcquireTimeout)
    [Anonymous Symbol]                       0x08001698   Section        0  rtx_evr.o(.text.EvrRtxThreadBlocked)
    [Anonymous Symbol]                       0x080016b4   Section        0  rtx_evr.o(.text.EvrRtxThreadCreated)
    [Anonymous Symbol]                       0x080016f0   Section        0  rtx_evr.o(.text.EvrRtxThreadDestroyed)
    [Anonymous Symbol]                       0x0800170c   Section        0  rtx_evr.o(.text.EvrRtxThreadError)
    [Anonymous Symbol]                       0x08001724   Section        0  rtx_evr.o(.text.EvrRtxThreadExit)
    [Anonymous Symbol]                       0x08001740   Section        0  rtx_evr.o(.text.EvrRtxThreadFlagsWaitCompleted)
    [Anonymous Symbol]                       0x0800176c   Section        0  rtx_evr.o(.text.EvrRtxThreadFlagsWaitTimeout)
    [Anonymous Symbol]                       0x08001788   Section        0  rtx_evr.o(.text.EvrRtxThreadJoined)
    [Anonymous Symbol]                       0x080017a4   Section        0  rtx_evr.o(.text.EvrRtxThreadNew)
    [Anonymous Symbol]                       0x080017d0   Section        0  rtx_evr.o(.text.EvrRtxThreadPreempted)
    [Anonymous Symbol]                       0x080017ec   Section        0  rtx_evr.o(.text.EvrRtxThreadSwitched)
    [Anonymous Symbol]                       0x08001808   Section        0  rtx_evr.o(.text.EvrRtxThreadUnblocked)
    [Anonymous Symbol]                       0x08001824   Section        0  rtx_evr.o(.text.EvrRtxTimerCallback)
    [Anonymous Symbol]                       0x08001840   Section        0  rtx_evr.o(.text.EvrRtxTimerCreated)
    [Anonymous Symbol]                       0x0800185c   Section        0  rtx_evr.o(.text.EvrRtxTimerError)
    [Anonymous Symbol]                       0x08001874   Section        0  rtx_evr.o(.text.EvrRtxTimerNew)
    [Anonymous Symbol]                       0x080018a8   Section        0  rtx_evr.o(.text.EvrRtxTimerStart)
    [Anonymous Symbol]                       0x080018c4   Section        0  rtx_evr.o(.text.EvrRtxTimerStarted)
    GetContext                               0x080018e1   Thumb Code    18  eventrecorder.o(.text.GetContext)
    [Anonymous Symbol]                       0x080018e0   Section        0  eventrecorder.o(.text.GetContext)
    GetRecordIndex                           0x080018f5   Thumb Code    18  eventrecorder.o(.text.GetRecordIndex)
    [Anonymous Symbol]                       0x080018f4   Section        0  eventrecorder.o(.text.GetRecordIndex)
    [Anonymous Symbol]                       0x08001908   Section        0  bsp_encoder.o(.text.GetSpeedInfo)
    [Anonymous Symbol]                       0x08001990   Section        0  stm32f1xx_hal_adc_ex.o(.text.HAL_ADCEx_Calibration_Start)
    [Anonymous Symbol]                       0x08001afc   Section        0  stm32f1xx_hal_adc.o(.text.HAL_ADC_Init)
    [Anonymous Symbol]                       0x08001d58   Section        0  bsp_adc.o(.text.HAL_ADC_MspInit)
    [Anonymous Symbol]                       0x08001db8   Section        0  stm32f1xx_hal_can.o(.text.HAL_CAN_ActivateNotification)
    [Anonymous Symbol]                       0x08001e0c   Section        0  stm32f1xx_hal_can.o(.text.HAL_CAN_ConfigFilter)
    [Anonymous Symbol]                       0x08001f98   Section        0  stm32f1xx_hal_can.o(.text.HAL_CAN_ErrorCallback)
    [Anonymous Symbol]                       0x08001fa0   Section        0  stm32f1xx_hal_can.o(.text.HAL_CAN_IRQHandler)
    [Anonymous Symbol]                       0x080023a4   Section        0  stm32f1xx_hal_can.o(.text.HAL_CAN_Init)
    [Anonymous Symbol]                       0x08002588   Section        0  stm32f1xx_hal_can.o(.text.HAL_CAN_MspInit)
    [Anonymous Symbol]                       0x08002590   Section        0  stm32f1xx_hal_can.o(.text.HAL_CAN_RxFifo0FullCallback)
    [Anonymous Symbol]                       0x08002598   Section        0  bsp_can.o(.text.HAL_CAN_RxFifo0MsgPendingCallback)
    [Anonymous Symbol]                       0x080025b4   Section        0  stm32f1xx_hal_can.o(.text.HAL_CAN_RxFifo1FullCallback)
    [Anonymous Symbol]                       0x080025bc   Section        0  stm32f1xx_hal_can.o(.text.HAL_CAN_RxFifo1MsgPendingCallback)
    [Anonymous Symbol]                       0x080025c4   Section        0  stm32f1xx_hal_can.o(.text.HAL_CAN_SleepCallback)
    [Anonymous Symbol]                       0x080025cc   Section        0  stm32f1xx_hal_can.o(.text.HAL_CAN_Start)
    [Anonymous Symbol]                       0x08002658   Section        0  stm32f1xx_hal_can.o(.text.HAL_CAN_TxMailbox0AbortCallback)
    [Anonymous Symbol]                       0x08002660   Section        0  stm32f1xx_hal_can.o(.text.HAL_CAN_TxMailbox0CompleteCallback)
    [Anonymous Symbol]                       0x08002668   Section        0  stm32f1xx_hal_can.o(.text.HAL_CAN_TxMailbox1AbortCallback)
    [Anonymous Symbol]                       0x08002670   Section        0  stm32f1xx_hal_can.o(.text.HAL_CAN_TxMailbox1CompleteCallback)
    [Anonymous Symbol]                       0x08002678   Section        0  stm32f1xx_hal_can.o(.text.HAL_CAN_TxMailbox2AbortCallback)
    [Anonymous Symbol]                       0x08002680   Section        0  stm32f1xx_hal_can.o(.text.HAL_CAN_TxMailbox2CompleteCallback)
    [Anonymous Symbol]                       0x08002688   Section        0  stm32f1xx_hal_can.o(.text.HAL_CAN_WakeUpFromRxMsgCallback)
    [Anonymous Symbol]                       0x08002690   Section        0  stm32f1xx_hal_gpio.o(.text.HAL_GPIO_Init)
    [Anonymous Symbol]                       0x080029f8   Section        0  stm32f1xx_hal_gpio.o(.text.HAL_GPIO_ReadPin)
    [Anonymous Symbol]                       0x08002a28   Section        0  stm32f1xx_hal_gpio.o(.text.HAL_GPIO_WritePin)
    [Anonymous Symbol]                       0x08002a5c   Section        0  stm32f1xx_hal_timebase_tim.o(.text.HAL_GetTick)
    [Anonymous Symbol]                       0x08002ac4   Section        0  stm32f1xx_hal.o(.text.HAL_Init)
    [Anonymous Symbol]                       0x08002af4   Section        0  stm32f1xx_hal_timebase_tim.o(.text.HAL_InitTick)
    [Anonymous Symbol]                       0x08002b00   Section        0  stm32f1xx_hal_msp.o(.text.HAL_MspInit)
    [Anonymous Symbol]                       0x08002b24   Section        0  stm32f1xx_hal_cortex.o(.text.HAL_NVIC_EnableIRQ)
    [Anonymous Symbol]                       0x08002b3c   Section        0  stm32f1xx_hal_cortex.o(.text.HAL_NVIC_SetPriority)
    [Anonymous Symbol]                       0x08002b7c   Section        0  stm32f1xx_hal_cortex.o(.text.HAL_NVIC_SetPriorityGrouping)
    [Anonymous Symbol]                       0x08002b8c   Section        0  stm32f1xx_hal_rcc_ex.o(.text.HAL_RCCEx_GetPeriphCLKFreq)
    [Anonymous Symbol]                       0x08002d68   Section        0  stm32f1xx_hal_rcc_ex.o(.text.HAL_RCCEx_PeriphCLKConfig)
    [Anonymous Symbol]                       0x08002f34   Section        0  stm32f1xx_hal_rcc.o(.text.HAL_RCC_ClockConfig)
    [Anonymous Symbol]                       0x0800318c   Section        0  stm32f1xx_hal_rcc.o(.text.HAL_RCC_GetHCLKFreq)
    [Anonymous Symbol]                       0x08003198   Section        0  stm32f1xx_hal_rcc.o(.text.HAL_RCC_GetPCLK1Freq)
    [Anonymous Symbol]                       0x080031bc   Section        0  stm32f1xx_hal_rcc.o(.text.HAL_RCC_GetPCLK2Freq)
    [Anonymous Symbol]                       0x080031e0   Section        0  stm32f1xx_hal_rcc.o(.text.HAL_RCC_GetSysClockFreq)
    [Anonymous Symbol]                       0x080032c8   Section        0  stm32f1xx_hal_rcc.o(.text.HAL_RCC_OscConfig)
    [Anonymous Symbol]                       0x08003954   Section        0  stm32f1xx_hal_tim_ex.o(.text.HAL_TIMEx_BreakCallback)
    [Anonymous Symbol]                       0x0800395c   Section        0  stm32f1xx_hal_tim_ex.o(.text.HAL_TIMEx_CommutCallback)
    [Anonymous Symbol]                       0x08003964   Section        0  stm32f1xx_hal_tim_ex.o(.text.HAL_TIMEx_MasterConfigSynchronization)
    [Anonymous Symbol]                       0x080039fc   Section        0  stm32f1xx_hal_tim.o(.text.HAL_TIM_Base_Init)
    [Anonymous Symbol]                       0x08003a60   Section        0  bsp_timer.o(.text.HAL_TIM_Base_MspInit)
    [Anonymous Symbol]                       0x08003ad0   Section        0  stm32f1xx_hal_tim.o(.text.HAL_TIM_Base_Start_IT)
    [Anonymous Symbol]                       0x08003b08   Section        0  stm32f1xx_hal_tim.o(.text.HAL_TIM_ConfigClockSource)
    [Anonymous Symbol]                       0x08003ca0   Section        0  bsp_encoder.o(.text.HAL_TIM_IC_CaptureCallback)
    [Anonymous Symbol]                       0x08003e7c   Section        0  stm32f1xx_hal_tim.o(.text.HAL_TIM_IC_ConfigChannel)
    [Anonymous Symbol]                       0x08003fc4   Section        0  stm32f1xx_hal_tim.o(.text.HAL_TIM_IC_Init)
    [Anonymous Symbol]                       0x08004028   Section        0  stm32f1xx_hal_tim.o(.text.HAL_TIM_IC_MspInit)
    [Anonymous Symbol]                       0x08004030   Section        0  stm32f1xx_hal_tim.o(.text.HAL_TIM_IC_Start_IT)
    [Anonymous Symbol]                       0x080040c4   Section        0  stm32f1xx_hal_tim.o(.text.HAL_TIM_IRQHandler)
    [Anonymous Symbol]                       0x08004348   Section        0  bsp_timer.o(.text.HAL_TIM_MspInit)
    [Anonymous Symbol]                       0x080044f8   Section        0  stm32f1xx_hal_tim.o(.text.HAL_TIM_OC_DelayElapsedCallback)
    [Anonymous Symbol]                       0x08004500   Section        0  stm32f1xx_hal_tim.o(.text.HAL_TIM_PWM_ConfigChannel)
    [Anonymous Symbol]                       0x08004644   Section        0  stm32f1xx_hal_tim.o(.text.HAL_TIM_PWM_PulseFinishedCallback)
    [Anonymous Symbol]                       0x0800464c   Section        0  stm32f1xx_hal_tim.o(.text.HAL_TIM_PWM_Start)
    [Anonymous Symbol]                       0x080046d0   Section        0  bsp_encoder.o(.text.HAL_TIM_PeriodElapsedCallback)
    [Anonymous Symbol]                       0x0800474c   Section        0  stm32f1xx_hal_tim.o(.text.HAL_TIM_TriggerCallback)
    [Anonymous Symbol]                       0x08004754   Section        0  stm32f1xx_hal_uart.o(.text.HAL_UART_Init)
    [Anonymous Symbol]                       0x080047f4   Section        0  stm32f1xx_hal_uart.o(.text.HAL_UART_MspInit)
    [Anonymous Symbol]                       0x080047fc   Section        0  segger_hardfaulthandler.o(.text.HardFaultHandler)
    IncrementOverflowTS                      0x08004915   Thumb Code    18  eventrecorder.o(.text.IncrementOverflowTS)
    [Anonymous Symbol]                       0x08004914   Section        0  eventrecorder.o(.text.IncrementOverflowTS)
    IncrementRecordsDumped                   0x08004929   Thumb Code    18  eventrecorder.o(.text.IncrementRecordsDumped)
    [Anonymous Symbol]                       0x08004928   Section        0  eventrecorder.o(.text.IncrementRecordsDumped)
    IncrementRecordsWritten                  0x0800493d   Thumb Code    18  eventrecorder.o(.text.IncrementRecordsWritten)
    [Anonymous Symbol]                       0x0800493c   Section        0  eventrecorder.o(.text.IncrementRecordsWritten)
    InitHardUart                             0x08004951   Thumb Code   694  bsp_uart.o(.text.InitHardUart)
    [Anonymous Symbol]                       0x08004950   Section        0  bsp_uart.o(.text.InitHardUart)
    IsIrqMasked                              0x08004c09   Thumb Code    48  rtx_delay.o(.text.IsIrqMasked)
    [Anonymous Symbol]                       0x08004c08   Section        0  rtx_delay.o(.text.IsIrqMasked)
    IsIrqMasked                              0x08004c39   Thumb Code    48  rtx_kernel.o(.text.IsIrqMasked)
    [Anonymous Symbol]                       0x08004c38   Section        0  rtx_kernel.o(.text.IsIrqMasked)
    IsIrqMasked                              0x08004c69   Thumb Code    48  rtx_msgqueue.o(.text.IsIrqMasked)
    [Anonymous Symbol]                       0x08004c68   Section        0  rtx_msgqueue.o(.text.IsIrqMasked)
    IsIrqMasked                              0x08004c99   Thumb Code    48  rtx_thread.o(.text.IsIrqMasked)
    [Anonymous Symbol]                       0x08004c98   Section        0  rtx_thread.o(.text.IsIrqMasked)
    IsIrqMasked                              0x08004cc9   Thumb Code    48  rtx_timer.o(.text.IsIrqMasked)
    [Anonymous Symbol]                       0x08004cc8   Section        0  rtx_timer.o(.text.IsIrqMasked)
    IsIrqMode                                0x08004cf9   Thumb Code    20  rtx_delay.o(.text.IsIrqMode)
    [Anonymous Symbol]                       0x08004cf8   Section        0  rtx_delay.o(.text.IsIrqMode)
    IsIrqMode                                0x08004d0d   Thumb Code    20  rtx_kernel.o(.text.IsIrqMode)
    [Anonymous Symbol]                       0x08004d0c   Section        0  rtx_kernel.o(.text.IsIrqMode)
    IsIrqMode                                0x08004d21   Thumb Code    20  rtx_msgqueue.o(.text.IsIrqMode)
    [Anonymous Symbol]                       0x08004d20   Section        0  rtx_msgqueue.o(.text.IsIrqMode)
    IsIrqMode                                0x08004d35   Thumb Code    20  rtx_thread.o(.text.IsIrqMode)
    [Anonymous Symbol]                       0x08004d34   Section        0  rtx_thread.o(.text.IsIrqMode)
    IsIrqMode                                0x08004d49   Thumb Code    20  rtx_timer.o(.text.IsIrqMode)
    [Anonymous Symbol]                       0x08004d48   Section        0  rtx_timer.o(.text.IsIrqMode)
    IsPrivileged                             0x08004d5d   Thumb Code    22  rtx_kernel.o(.text.IsPrivileged)
    [Anonymous Symbol]                       0x08004d5c   Section        0  rtx_kernel.o(.text.IsPrivileged)
    LockRecord                               0x08004d75   Thumb Code    54  eventrecorder.o(.text.LockRecord)
    [Anonymous Symbol]                       0x08004d74   Section        0  eventrecorder.o(.text.LockRecord)
    [Anonymous Symbol]                       0x08004dac   Section        0  mpuiic.o(.text.MPU_IIC_Init)
    MemBlockPtr                              0x08004e0d   Thumb Code    24  rtx_memory.o(.text.MemBlockPtr)
    [Anonymous Symbol]                       0x08004e0c   Section        0  rtx_memory.o(.text.MemBlockPtr)
    MemHeadPtr                               0x08004e25   Thumb Code    10  rtx_memory.o(.text.MemHeadPtr)
    [Anonymous Symbol]                       0x08004e24   Section        0  rtx_memory.o(.text.MemHeadPtr)
    [Anonymous Symbol]                       0x08004e30   Section        0  stm32f1xx_it.o(.text.MemManage_Handler)
    MessageQueueGet                          0x08004e35   Thumb Code    88  rtx_msgqueue.o(.text.MessageQueueGet)
    [Anonymous Symbol]                       0x08004e34   Section        0  rtx_msgqueue.o(.text.MessageQueueGet)
    MessageQueuePut                          0x08004e8d   Thumb Code   182  rtx_msgqueue.o(.text.MessageQueuePut)
    [Anonymous Symbol]                       0x08004e8c   Section        0  rtx_msgqueue.o(.text.MessageQueuePut)
    MessageQueueRemove                       0x08004f45   Thumb Code    70  rtx_msgqueue.o(.text.MessageQueueRemove)
    [Anonymous Symbol]                       0x08004f44   Section        0  rtx_msgqueue.o(.text.MessageQueueRemove)
    [Anonymous Symbol]                       0x08004f8c   Section        0  bsp_motor.o(.text.MotoASetSpeed)
    [Anonymous Symbol]                       0x08004fe0   Section        0  bsp_motor.o(.text.MotoBSetSpeed)
    [Anonymous Symbol]                       0x08005034   Section        0  bsp_motor.o(.text.MotoCSetSpeed)
    [Anonymous Symbol]                       0x08005088   Section        0  bsp_motor.o(.text.MotoDSetSpeed)
    [Anonymous Symbol]                       0x080050dc   Section        0  bsp_motor.o(.text.MotorA_Backward)
    [Anonymous Symbol]                       0x08005104   Section        0  bsp_motor.o(.text.MotorA_Forward)
    [Anonymous Symbol]                       0x08005130   Section        0  bsp_motor.o(.text.MotorB_Backward)
    [Anonymous Symbol]                       0x08005154   Section        0  bsp_motor.o(.text.MotorB_Forward)
    [Anonymous Symbol]                       0x08005178   Section        0  bsp_motor.o(.text.MotorC_Backward)
    [Anonymous Symbol]                       0x080051a0   Section        0  bsp_motor.o(.text.MotorC_Forward)
    [Anonymous Symbol]                       0x080051c8   Section        0  motor.o(.text.MotorControl)
    [Anonymous Symbol]                       0x08005634   Section        0  bsp_motor.o(.text.MotorD_Backward)
    [Anonymous Symbol]                       0x0800565c   Section        0  bsp_motor.o(.text.MotorD_Forward)
    [Anonymous Symbol]                       0x08005684   Section        0  stm32f1xx_it.o(.text.NMI_Handler)
    NVIC_EncodePriority                      0x08005689   Thumb Code   110  stm32f1xx_hal_cortex.o(.text.NVIC_EncodePriority)
    [Anonymous Symbol]                       0x08005688   Section        0  stm32f1xx_hal_cortex.o(.text.NVIC_EncodePriority)
    [Anonymous Symbol]                       0x080056f8   Section        0  bsp_oled.o(.text.OLED_Clear)
    [Anonymous Symbol]                       0x0800575c   Section        0  bsp_oled.o(.text.OLED_Refresh)
    [Anonymous Symbol]                       0x08005804   Section        0  bsp_oled.o(.text.OLED_WR_Byte)
    [Anonymous Symbol]                       0x08005860   Section        0  os_systick.o(.text.OS_Tick_AcknowledgeIRQ)
    [Anonymous Symbol]                       0x0800586c   Section        0  os_systick.o(.text.OS_Tick_Enable)
    [Anonymous Symbol]                       0x080058ac   Section        0  os_systick.o(.text.OS_Tick_GetIRQn)
    [Anonymous Symbol]                       0x080058b4   Section        0  os_systick.o(.text.OS_Tick_Setup)
    [Anonymous Symbol]                       0x08005934   Section        0  pid.o(.text.PID_Param_SetZero)
    [Anonymous Symbol]                       0x08005968   Section        0  bsp_ps2.o(.text.PS2_init)
    RCC_Delay                                0x080059fd   Thumb Code    58  stm32f1xx_hal_rcc.o(.text.RCC_Delay)
    [Anonymous Symbol]                       0x080059fc   Section        0  stm32f1xx_hal_rcc.o(.text.RCC_Delay)
    [Anonymous Symbol]                       0x08005a38   Section        0  segger_rtt.o(.text.SEGGER_RTT_ConfigDownBuffer)
    [Anonymous Symbol]                       0x08005b08   Section        0  segger_rtt.o(.text.SEGGER_RTT_ConfigUpBuffer)
    [Anonymous Symbol]                       0x08005bd8   Section        0  segger_rtt.o(.text.SEGGER_RTT_Write)
    [Anonymous Symbol]                       0x08005c24   Section        0  segger_rtt.o(.text.SEGGER_RTT_WriteNoLock)
    SVC_Setup                                0x08005cd9   Thumb Code    78  rtx_kernel.o(.text.SVC_Setup)
    [Anonymous Symbol]                       0x08005cd8   Section        0  rtx_kernel.o(.text.SVC_Setup)
    SetPendSV                                0x08005d29   Thumb Code    16  rtx_system.o(.text.SetPendSV)
    [Anonymous Symbol]                       0x08005d28   Section        0  rtx_system.o(.text.SetPendSV)
    StackOffsetR0                            0x08005d39   Thumb Code    14  rtx_thread.o(.text.StackOffsetR0)
    [Anonymous Symbol]                       0x08005d38   Section        0  rtx_thread.o(.text.StackOffsetR0)
    SystemClock_Config                       0x08005d49   Thumb Code   138  bsp.o(.text.SystemClock_Config)
    [Anonymous Symbol]                       0x08005d48   Section        0  bsp.o(.text.SystemClock_Config)
    [Anonymous Symbol]                       0x08005dd4   Section        0  system_stm32f1xx.o(.text.SystemInit)
    [Anonymous Symbol]                       0x08005e34   Section        0  bsp.o(.text.System_Init)
    [Anonymous Symbol]                       0x08005e48   Section        0  bsp_encoder.o(.text.TIM5_IRQHandler)
    [Anonymous Symbol]                       0x08005e58   Section        0  stm32f1xx_hal_tim.o(.text.TIM_Base_SetConfig)
    [Anonymous Symbol]                       0x08005f98   Section        0  stm32f1xx_hal_tim.o(.text.TIM_CCxChannelCmd)
    [Anonymous Symbol]                       0x08005fd0   Section        0  stm32f1xx_hal_tim.o(.text.TIM_ETR_SetConfig)
    TIM_ITRx_SetConfig                       0x08006005   Thumb Code    42  stm32f1xx_hal_tim.o(.text.TIM_ITRx_SetConfig)
    [Anonymous Symbol]                       0x08006004   Section        0  stm32f1xx_hal_tim.o(.text.TIM_ITRx_SetConfig)
    TIM_OC1_SetConfig                        0x08006031   Thumb Code   238  stm32f1xx_hal_tim.o(.text.TIM_OC1_SetConfig)
    [Anonymous Symbol]                       0x08006030   Section        0  stm32f1xx_hal_tim.o(.text.TIM_OC1_SetConfig)
    [Anonymous Symbol]                       0x08006120   Section        0  stm32f1xx_hal_tim.o(.text.TIM_OC2_SetConfig)
    TIM_OC3_SetConfig                        0x08006219   Thumb Code   246  stm32f1xx_hal_tim.o(.text.TIM_OC3_SetConfig)
    [Anonymous Symbol]                       0x08006218   Section        0  stm32f1xx_hal_tim.o(.text.TIM_OC3_SetConfig)
    TIM_OC4_SetConfig                        0x08006311   Thumb Code   166  stm32f1xx_hal_tim.o(.text.TIM_OC4_SetConfig)
    [Anonymous Symbol]                       0x08006310   Section        0  stm32f1xx_hal_tim.o(.text.TIM_OC4_SetConfig)
    TIM_TI1_ConfigInputStage                 0x080063b9   Thumb Code    80  stm32f1xx_hal_tim.o(.text.TIM_TI1_ConfigInputStage)
    [Anonymous Symbol]                       0x080063b8   Section        0  stm32f1xx_hal_tim.o(.text.TIM_TI1_ConfigInputStage)
    [Anonymous Symbol]                       0x08006408   Section        0  stm32f1xx_hal_tim.o(.text.TIM_TI1_SetConfig)
    TIM_TI2_ConfigInputStage                 0x080064fd   Thumb Code    82  stm32f1xx_hal_tim.o(.text.TIM_TI2_ConfigInputStage)
    [Anonymous Symbol]                       0x080064fc   Section        0  stm32f1xx_hal_tim.o(.text.TIM_TI2_ConfigInputStage)
    TIM_TI2_SetConfig                        0x08006551   Thumb Code   108  stm32f1xx_hal_tim.o(.text.TIM_TI2_SetConfig)
    [Anonymous Symbol]                       0x08006550   Section        0  stm32f1xx_hal_tim.o(.text.TIM_TI2_SetConfig)
    TIM_TI3_SetConfig                        0x080065bd   Thumb Code   106  stm32f1xx_hal_tim.o(.text.TIM_TI3_SetConfig)
    [Anonymous Symbol]                       0x080065bc   Section        0  stm32f1xx_hal_tim.o(.text.TIM_TI3_SetConfig)
    TIM_TI4_SetConfig                        0x08006629   Thumb Code   108  stm32f1xx_hal_tim.o(.text.TIM_TI4_SetConfig)
    [Anonymous Symbol]                       0x08006628   Section        0  stm32f1xx_hal_tim.o(.text.TIM_TI4_SetConfig)
    ThreadFlagsCheck                         0x08006695   Thumb Code   130  rtx_thread.o(.text.ThreadFlagsCheck)
    [Anonymous Symbol]                       0x08006694   Section        0  rtx_thread.o(.text.ThreadFlagsCheck)
    TimerInsert                              0x08006719   Thumb Code   166  rtx_timer.o(.text.TimerInsert)
    [Anonymous Symbol]                       0x08006718   Section        0  rtx_timer.o(.text.TimerInsert)
    TimerRemove                              0x080067c1   Thumb Code    76  rtx_timer.o(.text.TimerRemove)
    [Anonymous Symbol]                       0x080067c0   Section        0  rtx_timer.o(.text.TimerRemove)
    TimerUnlink                              0x0800680d   Thumb Code    42  rtx_timer.o(.text.TimerUnlink)
    [Anonymous Symbol]                       0x0800680c   Section        0  rtx_timer.o(.text.TimerUnlink)
    [Anonymous Symbol]                       0x08006838   Section        0  bsp_uart.o(.text.UART5_IRQHandler)
    UART_SetConfig                           0x08006849   Thumb Code   268  stm32f1xx_hal_uart.o(.text.UART_SetConfig)
    [Anonymous Symbol]                       0x08006848   Section        0  stm32f1xx_hal_uart.o(.text.UART_SetConfig)
    [Anonymous Symbol]                       0x08006954   Section        0  bsp_uart.o(.text.USART1_IRQHandler)
    [Anonymous Symbol]                       0x08006964   Section        0  bsp_uart.o(.text.USART3_IRQHandler)
    [Anonymous Symbol]                       0x08006974   Section        0  bsp_can.o(.text.USB_LP_CAN1_RX0_IRQHandler)
    UartGetChar                              0x08006985   Thumb Code   136  bsp_uart.o(.text.UartGetChar)
    [Anonymous Symbol]                       0x08006984   Section        0  bsp_uart.o(.text.UartGetChar)
    UartIRQ                                  0x08006a0d   Thumb Code   400  bsp_uart.o(.text.UartIRQ)
    [Anonymous Symbol]                       0x08006a0c   Section        0  bsp_uart.o(.text.UartIRQ)
    UartVarInit                              0x08006b9d   Thumb Code   218  bsp_uart.o(.text.UartVarInit)
    [Anonymous Symbol]                       0x08006b9c   Section        0  bsp_uart.o(.text.UartVarInit)
    UnlockRecord                             0x08006c79   Thumb Code    50  eventrecorder.o(.text.UnlockRecord)
    [Anonymous Symbol]                       0x08006c78   Section        0  eventrecorder.o(.text.UnlockRecord)
    UpdateTS                                 0x08006cad   Thumb Code    26  eventrecorder.o(.text.UpdateTS)
    [Anonymous Symbol]                       0x08006cac   Section        0  eventrecorder.o(.text.UpdateTS)
    [Anonymous Symbol]                       0x08006cc8   Section        0  stm32f1xx_it.o(.text.UsageFault_Handler)
    _DoInit                                  0x08006ccd   Thumb Code   150  segger_rtt.o(.text._DoInit)
    [Anonymous Symbol]                       0x08006ccc   Section        0  segger_rtt.o(.text._DoInit)
    _GetAvailWriteSpace                      0x08006d65   Thumb Code    62  segger_rtt.o(.text._GetAvailWriteSpace)
    [Anonymous Symbol]                       0x08006d64   Section        0  segger_rtt.o(.text._GetAvailWriteSpace)
    _WriteBlocking                           0x08006da5   Thumb Code   220  segger_rtt.o(.text._WriteBlocking)
    [Anonymous Symbol]                       0x08006da4   Section        0  segger_rtt.o(.text._WriteBlocking)
    _WriteNoCheck                            0x08006e81   Thumb Code   128  segger_rtt.o(.text._WriteNoCheck)
    [Anonymous Symbol]                       0x08006e80   Section        0  segger_rtt.o(.text._WriteNoCheck)
    __NVIC_EnableIRQ                         0x08006f01   Thumb Code    52  stm32f1xx_hal_cortex.o(.text.__NVIC_EnableIRQ)
    [Anonymous Symbol]                       0x08006f00   Section        0  stm32f1xx_hal_cortex.o(.text.__NVIC_EnableIRQ)
    __NVIC_GetPriorityGrouping               0x08006f35   Thumb Code    16  stm32f1xx_hal_cortex.o(.text.__NVIC_GetPriorityGrouping)
    [Anonymous Symbol]                       0x08006f34   Section        0  stm32f1xx_hal_cortex.o(.text.__NVIC_GetPriorityGrouping)
    __NVIC_GetPriorityGrouping               0x08006f45   Thumb Code    16  rtx_kernel.o(.text.__NVIC_GetPriorityGrouping)
    [Anonymous Symbol]                       0x08006f44   Section        0  rtx_kernel.o(.text.__NVIC_GetPriorityGrouping)
    __NVIC_SetPriority                       0x08006f55   Thumb Code    68  stm32f1xx_hal_cortex.o(.text.__NVIC_SetPriority)
    [Anonymous Symbol]                       0x08006f54   Section        0  stm32f1xx_hal_cortex.o(.text.__NVIC_SetPriority)
    __NVIC_SetPriorityGrouping               0x08006f99   Thumb Code    60  stm32f1xx_hal_cortex.o(.text.__NVIC_SetPriorityGrouping)
    [Anonymous Symbol]                       0x08006f98   Section        0  stm32f1xx_hal_cortex.o(.text.__NVIC_SetPriorityGrouping)
    atomic_chk32_all                         0x08006fd5   Thumb Code    56  rtx_thread.o(.text.atomic_chk32_all)
    [Anonymous Symbol]                       0x08006fd4   Section        0  rtx_thread.o(.text.atomic_chk32_all)
    atomic_chk32_any                         0x0800700d   Thumb Code    52  rtx_thread.o(.text.atomic_chk32_any)
    [Anonymous Symbol]                       0x0800700c   Section        0  rtx_thread.o(.text.atomic_chk32_any)
    atomic_dec16_nz                          0x08007041   Thumb Code    44  rtx_system.o(.text.atomic_dec16_nz)
    [Anonymous Symbol]                       0x08007040   Section        0  rtx_system.o(.text.atomic_dec16_nz)
    atomic_dec32                             0x0800706d   Thumb Code    32  rtx_mempool.o(.text.atomic_dec32)
    [Anonymous Symbol]                       0x0800706c   Section        0  rtx_mempool.o(.text.atomic_dec32)
    atomic_dec32_nz                          0x0800708d   Thumb Code    40  rtx_msgqueue.o(.text.atomic_dec32_nz)
    [Anonymous Symbol]                       0x0800708c   Section        0  rtx_msgqueue.o(.text.atomic_dec32_nz)
    atomic_inc16_lim                         0x080070b5   Thumb Code    54  rtx_system.o(.text.atomic_inc16_lim)
    [Anonymous Symbol]                       0x080070b4   Section        0  rtx_system.o(.text.atomic_inc16_lim)
    atomic_inc16_lt                          0x080070ed   Thumb Code    58  rtx_system.o(.text.atomic_inc16_lt)
    [Anonymous Symbol]                       0x080070ec   Section        0  rtx_system.o(.text.atomic_inc16_lt)
    atomic_inc32                             0x08007129   Thumb Code    32  rtx_mempool.o(.text.atomic_inc32)
    [Anonymous Symbol]                       0x08007128   Section        0  rtx_mempool.o(.text.atomic_inc32)
    atomic_inc32                             0x08007149   Thumb Code    32  rtx_msgqueue.o(.text.atomic_inc32)
    [Anonymous Symbol]                       0x08007148   Section        0  rtx_msgqueue.o(.text.atomic_inc32)
    atomic_inc32                             0x08007169   Thumb Code    32  eventrecorder.o(.text.atomic_inc32)
    [Anonymous Symbol]                       0x08007168   Section        0  eventrecorder.o(.text.atomic_inc32)
    atomic_inc8                              0x08007189   Thumb Code    36  eventrecorder.o(.text.atomic_inc8)
    [Anonymous Symbol]                       0x08007188   Section        0  eventrecorder.o(.text.atomic_inc8)
    atomic_link_get                          0x080071ad   Thumb Code    40  rtx_mempool.o(.text.atomic_link_get)
    [Anonymous Symbol]                       0x080071ac   Section        0  rtx_mempool.o(.text.atomic_link_get)
    atomic_link_put                          0x080071d5   Thumb Code    48  rtx_mempool.o(.text.atomic_link_put)
    [Anonymous Symbol]                       0x080071d4   Section        0  rtx_mempool.o(.text.atomic_link_put)
    atomic_wr8                               0x08007205   Thumb Code    44  rtx_msgqueue.o(.text.atomic_wr8)
    [Anonymous Symbol]                       0x08007204   Section        0  rtx_msgqueue.o(.text.atomic_wr8)
    atomic_xch32                             0x08007231   Thumb Code    32  eventrecorder.o(.text.atomic_xch32)
    [Anonymous Symbol]                       0x08007230   Section        0  eventrecorder.o(.text.atomic_xch32)
    [Anonymous Symbol]                       0x08007250   Section        0  autocontrol.o(.text.auto_ControlCarStop)
    [Anonymous Symbol]                       0x08007288   Section        0  steercontrol.o(.text.auto_epsSteerControl)
    [Anonymous Symbol]                       0x08007328   Section        0  main.o(.text.ble_control)
    [Anonymous Symbol]                       0x08007554   Section        0  bsp_dwt.o(.text.bsp_DelayUS)
    [Anonymous Symbol]                       0x080075a8   Section        0  bsp.o(.text.bsp_Init)
    [Anonymous Symbol]                       0x080075ec   Section        0  bsp_adc.o(.text.bsp_InitAdc)
    [Anonymous Symbol]                       0x08007640   Section        0  bsp_can.o(.text.bsp_InitCan)
    [Anonymous Symbol]                       0x080077f4   Section        0  bsp_dwt.o(.text.bsp_InitDWT)
    [Anonymous Symbol]                       0x08007824   Section        0  bsp_encoder.o(.text.bsp_InitEncoder)
    [Anonymous Symbol]                       0x080078b0   Section        0  bsp_key.o(.text.bsp_InitKey)
    bsp_InitKeyHard                          0x080078bd   Thumb Code   146  bsp_key.o(.text.bsp_InitKeyHard)
    [Anonymous Symbol]                       0x080078bc   Section        0  bsp_key.o(.text.bsp_InitKeyHard)
    bsp_InitKeyVar                           0x08007951   Thumb Code   162  bsp_key.o(.text.bsp_InitKeyVar)
    [Anonymous Symbol]                       0x08007950   Section        0  bsp_key.o(.text.bsp_InitKeyVar)
    [Anonymous Symbol]                       0x080079f4   Section        0  bsp_led.o(.text.bsp_InitLed)
    [Anonymous Symbol]                       0x08007ac4   Section        0  bsp_motor.o(.text.bsp_InitMotorEnGpio)
    [Anonymous Symbol]                       0x08007b88   Section        0  bsp_oled.o(.text.bsp_InitOled)
    [Anonymous Symbol]                       0x08007cc0   Section        0  pid.o(.text.bsp_InitPid)
    [Anonymous Symbol]                       0x08007d1c   Section        0  bsp_timer.o(.text.bsp_InitTim1)
    [Anonymous Symbol]                       0x08007dac   Section        0  bsp_timer.o(.text.bsp_InitTim3)
    [Anonymous Symbol]                       0x08007e84   Section        0  bsp_timer.o(.text.bsp_InitTim4)
    [Anonymous Symbol]                       0x08007f5c   Section        0  bsp_timer.o(.text.bsp_InitTim5)
    [Anonymous Symbol]                       0x08008168   Section        0  bsp_timer.o(.text.bsp_InitTim8)
    [Anonymous Symbol]                       0x08008260   Section        0  bsp_uart.o(.text.bsp_InitUart)
    [Anonymous Symbol]                       0x0800826c   Section        0  bsp_led.o(.text.bsp_IsLedOn)
    [Anonymous Symbol]                       0x080082bc   Section        0  bsp_led.o(.text.bsp_LedOff)
    [Anonymous Symbol]                       0x080082f8   Section        0  bsp_led.o(.text.bsp_LedOn)
    [Anonymous Symbol]                       0x08008334   Section        0  bsp_led.o(.text.bsp_LedToggle)
    [Anonymous Symbol]                       0x08008368   Section        0  bsp_key.o(.text.bsp_SetKeyParam)
    [Anonymous Symbol]                       0x080083b4   Section        0  bsp_uart.o(.text.bsp_SetUartParam)
    [Anonymous Symbol]                       0x080083fc   Section        0  bsp_uart.o(.text.comGetChar)
    [Anonymous Symbol]                       0x0800843c   Section        0  retarget_io.o(.text.fputc)
    [Anonymous Symbol]                       0x0800846c   Section        0  bsp_oled.o(.text.i2c_Delay)
    [Anonymous Symbol]                       0x08008478   Section        0  bsp_oled.o(.text.i2c_SendByte)
    [Anonymous Symbol]                       0x08008528   Section        0  bsp_oled.o(.text.i2c_Stop)
    [Anonymous Symbol]                       0x08008568   Section        0  bsp_oled.o(.text.i2c_WaitAck)
    [Anonymous Symbol]                       0x080085d8   Section        0  bsp_oled.o(.text.i2c_start)
    isrRtxMessageQueueGet                    0x0800862d   Thumb Code   178  rtx_msgqueue.o(.text.isrRtxMessageQueueGet)
    [Anonymous Symbol]                       0x0800862c   Section        0  rtx_msgqueue.o(.text.isrRtxMessageQueueGet)
    isrRtxMessageQueuePut                    0x080086e1   Thumb Code   202  rtx_msgqueue.o(.text.isrRtxMessageQueuePut)
    [Anonymous Symbol]                       0x080086e0   Section        0  rtx_msgqueue.o(.text.isrRtxMessageQueuePut)
    isr_queue_get                            0x080087ad   Thumb Code    88  rtx_system.o(.text.isr_queue_get)
    [Anonymous Symbol]                       0x080087ac   Section        0  rtx_system.o(.text.isr_queue_get)
    isr_queue_put                            0x08008805   Thumb Code    98  rtx_system.o(.text.isr_queue_put)
    [Anonymous Symbol]                       0x08008804   Section        0  rtx_system.o(.text.isr_queue_put)
    [Anonymous Symbol]                       0x08008868   Section        0  main.o(.text.main)
    [Anonymous Symbol]                       0x080088a8   Section        0  rtx_delay.o(.text.osDelay)
    [Anonymous Symbol]                       0x08008900   Section        0  rtx_delay.o(.text.osDelayUntil)
    [Anonymous Symbol]                       0x08008958   Section        0  rtx_kernel.o(.text.osKernelGetState)
    [Anonymous Symbol]                       0x080089a0   Section        0  rtx_kernel.o(.text.osKernelGetTickCount)
    [Anonymous Symbol]                       0x080089e0   Section        0  rtx_kernel.o(.text.osKernelInitialize)
    [Anonymous Symbol]                       0x08008a30   Section        0  rtx_kernel.o(.text.osKernelStart)
    [Anonymous Symbol]                       0x08008a7c   Section        0  rtx_msgqueue.o(.text.osMessageQueueGet)
    [Anonymous Symbol]                       0x08008b00   Section        0  rtx_msgqueue.o(.text.osMessageQueueNew)
    [Anonymous Symbol]                       0x08008b78   Section        0  rtx_msgqueue.o(.text.osMessageQueuePut)
    [Anonymous Symbol]                       0x08008c0c   Section        0  rtx_config.o(.text.osRtxErrorNotify)
    osRtxEventFlagsObject                    0x08008c3d   Thumb Code    10  rtx_system.o(.text.osRtxEventFlagsObject)
    [Anonymous Symbol]                       0x08008c3c   Section        0  rtx_system.o(.text.osRtxEventFlagsObject)
    osRtxEventFlagsObject                    0x08008c49   Thumb Code    10  rtx_thread.o(.text.osRtxEventFlagsObject)
    [Anonymous Symbol]                       0x08008c48   Section        0  rtx_thread.o(.text.osRtxEventFlagsObject)
    [Anonymous Symbol]                       0x08008c54   Section        0  rtx_config.o(.text.osRtxIdleThread)
    osRtxKernelGetState                      0x08008c5d   Thumb Code    12  rtx_system.o(.text.osRtxKernelGetState)
    [Anonymous Symbol]                       0x08008c5c   Section        0  rtx_system.o(.text.osRtxKernelGetState)
    osRtxKernelGetState                      0x08008c69   Thumb Code    12  rtx_thread.o(.text.osRtxKernelGetState)
    [Anonymous Symbol]                       0x08008c68   Section        0  rtx_thread.o(.text.osRtxKernelGetState)
    [Anonymous Symbol]                       0x08008c74   Section        0  rtx_kernel.o(.text.osRtxKernelPreInit)
    osRtxKernelState                         0x08008c79   Thumb Code    12  rtx_kernel.o(.text.osRtxKernelState)
    [Anonymous Symbol]                       0x08008c78   Section        0  rtx_kernel.o(.text.osRtxKernelState)
    [Anonymous Symbol]                       0x08008c84   Section        0  rtx_memory.o(.text.osRtxMemoryAlloc)
    [Anonymous Symbol]                       0x08008ddc   Section        0  rtx_memory.o(.text.osRtxMemoryFree)
    [Anonymous Symbol]                       0x08008ea4   Section        0  rtx_memory.o(.text.osRtxMemoryInit)
    [Anonymous Symbol]                       0x08008f44   Section        0  rtx_mempool.o(.text.osRtxMemoryPoolAlloc)
    [Anonymous Symbol]                       0x08008f94   Section        0  rtx_mempool.o(.text.osRtxMemoryPoolFree)
    [Anonymous Symbol]                       0x08009004   Section        0  rtx_mempool.o(.text.osRtxMemoryPoolInit)
    osRtxMemoryPoolObject                    0x080090a9   Thumb Code    10  rtx_system.o(.text.osRtxMemoryPoolObject)
    [Anonymous Symbol]                       0x080090a8   Section        0  rtx_system.o(.text.osRtxMemoryPoolObject)
    osRtxMemoryPoolObject                    0x080090b5   Thumb Code    10  rtx_thread.o(.text.osRtxMemoryPoolObject)
    [Anonymous Symbol]                       0x080090b4   Section        0  rtx_thread.o(.text.osRtxMemoryPoolObject)
    osRtxMessageObject                       0x080090c1   Thumb Code    10  rtx_system.o(.text.osRtxMessageObject)
    [Anonymous Symbol]                       0x080090c0   Section        0  rtx_system.o(.text.osRtxMessageObject)
    osRtxMessageQueueId                      0x080090cd   Thumb Code    10  rtx_msgqueue.o(.text.osRtxMessageQueueId)
    [Anonymous Symbol]                       0x080090cc   Section        0  rtx_msgqueue.o(.text.osRtxMessageQueueId)
    osRtxMessageQueueId                      0x080090d9   Thumb Code    10  rtx_timer.o(.text.osRtxMessageQueueId)
    [Anonymous Symbol]                       0x080090d8   Section        0  rtx_timer.o(.text.osRtxMessageQueueId)
    osRtxMessageQueueObject                  0x080090e5   Thumb Code    10  rtx_thread.o(.text.osRtxMessageQueueObject)
    [Anonymous Symbol]                       0x080090e4   Section        0  rtx_thread.o(.text.osRtxMessageQueueObject)
    osRtxMessageQueuePostProcess             0x080090f1   Thumb Code   340  rtx_msgqueue.o(.text.osRtxMessageQueuePostProcess)
    [Anonymous Symbol]                       0x080090f0   Section        0  rtx_msgqueue.o(.text.osRtxMessageQueuePostProcess)
    osRtxMutexObject                         0x08009245   Thumb Code    10  rtx_thread.o(.text.osRtxMutexObject)
    [Anonymous Symbol]                       0x08009244   Section        0  rtx_thread.o(.text.osRtxMutexObject)
    [Anonymous Symbol]                       0x08009250   Section        0  rtx_mutex.o(.text.osRtxMutexOwnerRelease)
    [Anonymous Symbol]                       0x080092ec   Section        0  rtx_mutex.o(.text.osRtxMutexOwnerRestore)
    osRtxObject                              0x0800938d   Thumb Code    10  rtx_msgqueue.o(.text.osRtxObject)
    [Anonymous Symbol]                       0x0800938c   Section        0  rtx_msgqueue.o(.text.osRtxObject)
    osRtxObject                              0x08009399   Thumb Code    10  rtx_mutex.o(.text.osRtxObject)
    [Anonymous Symbol]                       0x08009398   Section        0  rtx_mutex.o(.text.osRtxObject)
    osRtxObject                              0x080093a5   Thumb Code    10  rtx_system.o(.text.osRtxObject)
    [Anonymous Symbol]                       0x080093a4   Section        0  rtx_system.o(.text.osRtxObject)
    osRtxObject                              0x080093b1   Thumb Code    10  rtx_thread.o(.text.osRtxObject)
    [Anonymous Symbol]                       0x080093b0   Section        0  rtx_thread.o(.text.osRtxObject)
    [Anonymous Symbol]                       0x080093bc   Section        0  rtx_system.o(.text.osRtxPendSV_Handler)
    [Anonymous Symbol]                       0x08009480   Section        0  rtx_system.o(.text.osRtxPostProcess)
    osRtxSemaphoreObject                     0x080094c9   Thumb Code    10  rtx_system.o(.text.osRtxSemaphoreObject)
    [Anonymous Symbol]                       0x080094c8   Section        0  rtx_system.o(.text.osRtxSemaphoreObject)
    osRtxSemaphoreObject                     0x080094d5   Thumb Code    10  rtx_thread.o(.text.osRtxSemaphoreObject)
    [Anonymous Symbol]                       0x080094d4   Section        0  rtx_thread.o(.text.osRtxSemaphoreObject)
    osRtxThreadBlock                         0x080094e1   Thumb Code   142  rtx_thread.o(.text.osRtxThreadBlock)
    [Anonymous Symbol]                       0x080094e0   Section        0  rtx_thread.o(.text.osRtxThreadBlock)
    osRtxThreadDelayInsert                   0x08009571   Thumb Code   264  rtx_thread.o(.text.osRtxThreadDelayInsert)
    [Anonymous Symbol]                       0x08009570   Section        0  rtx_thread.o(.text.osRtxThreadDelayInsert)
    osRtxThreadDelayRemove                   0x08009679   Thumb Code   160  rtx_thread.o(.text.osRtxThreadDelayRemove)
    [Anonymous Symbol]                       0x08009678   Section        0  rtx_thread.o(.text.osRtxThreadDelayRemove)
    [Anonymous Symbol]                       0x08009718   Section        0  rtx_thread.o(.text.osRtxThreadDelayTick)
    [Anonymous Symbol]                       0x080098a8   Section        0  rtx_thread.o(.text.osRtxThreadDispatch)
    osRtxThreadFree                          0x08009945   Thumb Code   160  rtx_thread.o(.text.osRtxThreadFree)
    [Anonymous Symbol]                       0x08009944   Section        0  rtx_thread.o(.text.osRtxThreadFree)
    osRtxThreadGetRunning                    0x080099e5   Thumb Code    12  rtx_delay.o(.text.osRtxThreadGetRunning)
    [Anonymous Symbol]                       0x080099e4   Section        0  rtx_delay.o(.text.osRtxThreadGetRunning)
    osRtxThreadGetRunning                    0x080099f1   Thumb Code    12  rtx_msgqueue.o(.text.osRtxThreadGetRunning)
    [Anonymous Symbol]                       0x080099f0   Section        0  rtx_msgqueue.o(.text.osRtxThreadGetRunning)
    osRtxThreadGetRunning                    0x080099fd   Thumb Code    12  rtx_thread.o(.text.osRtxThreadGetRunning)
    [Anonymous Symbol]                       0x080099fc   Section        0  rtx_thread.o(.text.osRtxThreadGetRunning)
    osRtxThreadId                            0x08009a09   Thumb Code    10  rtx_thread.o(.text.osRtxThreadId)
    [Anonymous Symbol]                       0x08009a08   Section        0  rtx_thread.o(.text.osRtxThreadId)
    [Anonymous Symbol]                       0x08009a14   Section        0  rtx_thread.o(.text.osRtxThreadListGet)
    [Anonymous Symbol]                       0x08009a4c   Section        0  rtx_thread.o(.text.osRtxThreadListPut)
    [Anonymous Symbol]                       0x08009ac8   Section        0  rtx_thread.o(.text.osRtxThreadListRemove)
    osRtxThreadListRoot                      0x08009b01   Thumb Code    34  rtx_thread.o(.text.osRtxThreadListRoot)
    [Anonymous Symbol]                       0x08009b00   Section        0  rtx_thread.o(.text.osRtxThreadListRoot)
    [Anonymous Symbol]                       0x08009b24   Section        0  rtx_thread.o(.text.osRtxThreadListSort)
    osRtxThreadObject                        0x08009b85   Thumb Code    10  rtx_system.o(.text.osRtxThreadObject)
    [Anonymous Symbol]                       0x08009b84   Section        0  rtx_system.o(.text.osRtxThreadObject)
    osRtxThreadObject                        0x08009b91   Thumb Code    10  rtx_thread.o(.text.osRtxThreadObject)
    [Anonymous Symbol]                       0x08009b90   Section        0  rtx_thread.o(.text.osRtxThreadObject)
    osRtxThreadPostProcess                   0x08009b9d   Thumb Code    80  rtx_thread.o(.text.osRtxThreadPostProcess)
    [Anonymous Symbol]                       0x08009b9c   Section        0  rtx_thread.o(.text.osRtxThreadPostProcess)
    [Anonymous Symbol]                       0x08009bec   Section        0  rtx_thread.o(.text.osRtxThreadReadyPut)
    [Anonymous Symbol]                       0x08009c0c   Section        0  rtx_thread.o(.text.osRtxThreadRegPtr)
    osRtxThreadSetRunning                    0x08009c2d   Thumb Code    20  rtx_thread.o(.text.osRtxThreadSetRunning)
    [Anonymous Symbol]                       0x08009c2c   Section        0  rtx_thread.o(.text.osRtxThreadSetRunning)
    [Anonymous Symbol]                       0x08009c40   Section        0  rtx_thread.o(.text.osRtxThreadStackCheck)
    [Anonymous Symbol]                       0x08009c84   Section        0  rtx_thread.o(.text.osRtxThreadStartup)
    [Anonymous Symbol]                       0x08009d08   Section        0  rtx_thread.o(.text.osRtxThreadSwitch)
    [Anonymous Symbol]                       0x08009d30   Section        0  rtx_thread.o(.text.osRtxThreadWaitEnter)
    [Anonymous Symbol]                       0x08009dac   Section        0  rtx_thread.o(.text.osRtxThreadWaitExit)
    [Anonymous Symbol]                       0x08009df8   Section        0  rtx_system.o(.text.osRtxTick_Handler)
    osRtxTimerId                             0x08009f09   Thumb Code    10  rtx_timer.o(.text.osRtxTimerId)
    [Anonymous Symbol]                       0x08009f08   Section        0  rtx_timer.o(.text.osRtxTimerId)
    [Anonymous Symbol]                       0x08009f14   Section        0  rtx_timer.o(.text.osRtxTimerThread)
    osRtxTimerTick                           0x08009f7d   Thumb Code   168  rtx_timer.o(.text.osRtxTimerTick)
    [Anonymous Symbol]                       0x08009f7c   Section        0  rtx_timer.o(.text.osRtxTimerTick)
    [Anonymous Symbol]                       0x0800a024   Section        0  rtx_thread.o(.text.osThreadExit)
    [Anonymous Symbol]                       0x0800a048   Section        0  rtx_thread.o(.text.osThreadNew)
    [Anonymous Symbol]                       0x0800a0c0   Section        0  rtx_timer.o(.text.osTimerNew)
    [Anonymous Symbol]                       0x0800a154   Section        0  rtx_timer.o(.text.osTimerStart)
    [Anonymous Symbol]                       0x0800a1bc   Section        0  bsp_servo.o(.text.servoSetPluse)
    [Anonymous Symbol]                       0x0800a4a4   Section        0  bsp_uart.o(.text.stdout_putchar)
    svcRtxDelay                              0x0800a4c1   Thumb Code    54  rtx_delay.o(.text.svcRtxDelay)
    [Anonymous Symbol]                       0x0800a4c0   Section        0  rtx_delay.o(.text.svcRtxDelay)
    svcRtxDelayUntil                         0x0800a4f9   Thumb Code   100  rtx_delay.o(.text.svcRtxDelayUntil)
    [Anonymous Symbol]                       0x0800a4f8   Section        0  rtx_delay.o(.text.svcRtxDelayUntil)
    svcRtxKernelGetState                     0x0800a55d   Thumb Code    22  rtx_kernel.o(.text.svcRtxKernelGetState)
    [Anonymous Symbol]                       0x0800a55c   Section        0  rtx_kernel.o(.text.svcRtxKernelGetState)
    svcRtxKernelGetTickCount                 0x0800a575   Thumb Code    30  rtx_kernel.o(.text.svcRtxKernelGetTickCount)
    [Anonymous Symbol]                       0x0800a574   Section        0  rtx_kernel.o(.text.svcRtxKernelGetTickCount)
    svcRtxKernelInitialize                   0x0800a595   Thumb Code   908  rtx_kernel.o(.text.svcRtxKernelInitialize)
    [Anonymous Symbol]                       0x0800a594   Section        0  rtx_kernel.o(.text.svcRtxKernelInitialize)
    svcRtxKernelStart                        0x0800a921   Thumb Code   216  rtx_kernel.o(.text.svcRtxKernelStart)
    [Anonymous Symbol]                       0x0800a920   Section        0  rtx_kernel.o(.text.svcRtxKernelStart)
    svcRtxMessageQueueGet                    0x0800a9f9   Thumb Code   402  rtx_msgqueue.o(.text.svcRtxMessageQueueGet)
    [Anonymous Symbol]                       0x0800a9f8   Section        0  rtx_msgqueue.o(.text.svcRtxMessageQueueGet)
    svcRtxMessageQueueNew                    0x0800ab8d   Thumb Code   660  rtx_msgqueue.o(.text.svcRtxMessageQueueNew)
    [Anonymous Symbol]                       0x0800ab8c   Section        0  rtx_msgqueue.o(.text.svcRtxMessageQueueNew)
    svcRtxMessageQueuePut                    0x0800ae21   Thumb Code   398  rtx_msgqueue.o(.text.svcRtxMessageQueuePut)
    [Anonymous Symbol]                       0x0800ae20   Section        0  rtx_msgqueue.o(.text.svcRtxMessageQueuePut)
    svcRtxThreadExit                         0x0800afb1   Thumb Code   212  rtx_thread.o(.text.svcRtxThreadExit)
    [Anonymous Symbol]                       0x0800afb0   Section        0  rtx_thread.o(.text.svcRtxThreadExit)
    svcRtxThreadNew                          0x0800b085   Thumb Code  1036  rtx_thread.o(.text.svcRtxThreadNew)
    [Anonymous Symbol]                       0x0800b084   Section        0  rtx_thread.o(.text.svcRtxThreadNew)
    svcRtxTimerNew                           0x0800b491   Thumb Code   364  rtx_timer.o(.text.svcRtxTimerNew)
    [Anonymous Symbol]                       0x0800b490   Section        0  rtx_timer.o(.text.svcRtxTimerNew)
    svcRtxTimerStart                         0x0800b5fd   Thumb Code   154  rtx_timer.o(.text.svcRtxTimerStart)
    [Anonymous Symbol]                       0x0800b5fc   Section        0  rtx_timer.o(.text.svcRtxTimerStart)
    [Anonymous Symbol]                       0x0800b698   Section        0  bsp_uart.o(.text.uart3_ReciveNew)
    [Anonymous Symbol]                       0x0800b6a4   Section        0  bsp_uart.o(.text.uart_ReciveNew)
    [Anonymous Symbol]                       0x0800b6bc   Section        0  pid.o(.text.wheelSpeedPidCalc)
    xPSR_InitVal                             0x0800b821   Thumb Code    22  rtx_thread.o(.text.xPSR_InitVal)
    [Anonymous Symbol]                       0x0800b820   Section        0  rtx_thread.o(.text.xPSR_InitVal)
    OSKERNEL                                 0x0800b838   Section       18  hardfaulthandler.o(OSKERNEL)
    i.__0printf                              0x0800b84c   Section        0  printfa.o(i.__0printf)
    i.__scatterload_copy                     0x0800b86c   Section       14  handlers.o(i.__scatterload_copy)
    i.__scatterload_null                     0x0800b87a   Section        2  handlers.o(i.__scatterload_null)
    i.__scatterload_zeroinit                 0x0800b87c   Section       14  handlers.o(i.__scatterload_zeroinit)
    _fp_digits                               0x0800b88d   Thumb Code   366  printfa.o(i._fp_digits)
    i._fp_digits                             0x0800b88c   Section        0  printfa.o(i._fp_digits)
    _printf_core                             0x0800ba11   Thumb Code  1744  printfa.o(i._printf_core)
    i._printf_core                           0x0800ba10   Section        0  printfa.o(i._printf_core)
    _printf_post_padding                     0x0800c0ed   Thumb Code    36  printfa.o(i._printf_post_padding)
    i._printf_post_padding                   0x0800c0ec   Section        0  printfa.o(i._printf_post_padding)
    _printf_pre_padding                      0x0800c111   Thumb Code    46  printfa.o(i._printf_pre_padding)
    i._printf_pre_padding                    0x0800c110   Section        0  printfa.o(i._printf_pre_padding)
    __tagsym$$used.0                         0x0800c140   Number         0  rtx_lib.o(.rodata)
    __tagsym$$used.1                         0x0800c1a8   Number         0  rtx_lib.o(.rodata)
    __tagsym$$used.0                         0x0800c1f8   Number         0  eventrecorder.o(.rodata.EventRecorderInfo)
    os_idle_thread_attr                      0x0800c280   Data          36  rtx_lib.o(.rodata.os_idle_thread_attr)
    [Anonymous Symbol]                       0x0800c280   Section        0  rtx_lib.o(.rodata.os_idle_thread_attr)
    os_timer_mq_attr                         0x0800c2a4   Data          24  rtx_lib.o(.rodata.os_timer_mq_attr)
    [Anonymous Symbol]                       0x0800c2a4   Section        0  rtx_lib.o(.rodata.os_timer_mq_attr)
    os_timer_thread_attr                     0x0800c2bc   Data          36  rtx_lib.o(.rodata.os_timer_thread_attr)
    [Anonymous Symbol]                       0x0800c2bc   Section        0  rtx_lib.o(.rodata.os_timer_thread_attr)
    s_gpio_list                              0x0800c2e0   Data           8  bsp_key.o(.rodata.s_gpio_list)
    [Anonymous Symbol]                       0x0800c2e0   Section        0  bsp_key.o(.rodata.s_gpio_list)
    .L.str.4                                 0x0800c2e8   Data           8  main.o(.rodata.str1.1)
    [Anonymous Symbol]                       0x0800c2e8   Section        0  main.o(.rodata.str1.1)
    .L.str.3                                 0x0800c2f0   Data           6  main.o(.rodata.str1.1)
    .L.str                                   0x0800c2f6   Data          17  main.o(.rodata.str1.1)
    .L.str.2                                 0x0800c307   Data          19  main.o(.rodata.str1.1)
    .L.str.1                                 0x0800c31a   Data          19  main.o(.rodata.str1.1)
    .L.str                                   0x0800c32d   Data          57  motor.o(.rodata.str1.1)
    [Anonymous Symbol]                       0x0800c32d   Section        0  motor.o(.rodata.str1.1)
    .L.str                                   0x0800c366   Data          45  bsp.o(.rodata.str1.1)
    [Anonymous Symbol]                       0x0800c366   Section        0  bsp.o(.rodata.str1.1)
    .L.str.1                                 0x0800c393   Data          25  bsp.o(.rodata.str1.1)
    .L.str                                   0x0800c3ac   Data          30  bsp_uart.o(.rodata.str1.1)
    [Anonymous Symbol]                       0x0800c3ac   Section        0  bsp_uart.o(.rodata.str1.1)
    .L.str                                   0x0800c3ca   Data          31  bsp_timer.o(.rodata.str1.1)
    [Anonymous Symbol]                       0x0800c3ca   Section        0  bsp_timer.o(.rodata.str1.1)
    .L.str                                   0x0800c3e9   Data          29  bsp_can.o(.rodata.str1.1)
    [Anonymous Symbol]                       0x0800c3e9   Section        0  bsp_can.o(.rodata.str1.1)
    .L.str.1                                 0x0800c406   Data          13  bsp_can.o(.rodata.str1.1)
    .L.str.2                                 0x0800c406   Data           7  segger_rtt.o(.rodata.str1.1)
    [Anonymous Symbol]                       0x0800c406   Section        0  segger_rtt.o(.rodata.str1.1)
    .L.str.1                                 0x0800c40d   Data           4  segger_rtt.o(.rodata.str1.1)
    .L.str                                   0x0800c411   Data           9  segger_rtt.o(.rodata.str1.1)
    .L.str                                   0x0800c41a   Data          11  rtx_kernel.o(.rodata.str1.1)
    [Anonymous Symbol]                       0x0800c41a   Section        0  rtx_kernel.o(.rodata.str1.1)
    .data                                    0x20000000   Section        4  stdout.o(.data)
    ble_control._blePivotMoveSpeed           0x20000008   Data           2  main.o(.data.ble_control._blePivotMoveSpeed)
    [Anonymous Symbol]                       0x20000008   Section        0  main.o(.data.ble_control._blePivotMoveSpeed)
    AutoControlCmdParse.s_FrameDataLen       0x200000f0   Data           1  bsp_uart.o(.bss.AutoControlCmdParse.s_FrameDataLen)
    [Anonymous Symbol]                       0x200000f0   Section        0  bsp_uart.o(.bss.AutoControlCmdParse.s_FrameDataLen)
    AutoControlCmdParse.s_FrameTypeNum       0x200000f1   Data           1  bsp_uart.o(.bss.AutoControlCmdParse.s_FrameTypeNum)
    [Anonymous Symbol]                       0x200000f1   Section        0  bsp_uart.o(.bss.AutoControlCmdParse.s_FrameTypeNum)
    HAL_GetTick.ticks                        0x2000011c   Data           4  stm32f1xx_hal_timebase_tim.o(.bss.HAL_GetTick.ticks)
    [Anonymous Symbol]                       0x2000011c   Section        0  stm32f1xx_hal_timebase_tim.o(.bss.HAL_GetTick.ticks)
    HardFaultRegs                            0x20000120   Data          64  segger_hardfaulthandler.o(.bss.HardFaultRegs)
    [Anonymous Symbol]                       0x20000120   Section        0  segger_hardfaulthandler.o(.bss.HardFaultRegs)
    PendST                                   0x200005e0   Data           1  os_systick.o(.bss.PendST)
    [Anonymous Symbol]                       0x200005e0   Section        0  os_systick.o(.bss.PendST)
    _Continue                                0x200005f0   Data           4  segger_hardfaulthandler.o(.bss._Continue)
    [Anonymous Symbol]                       0x200005f0   Section        0  segger_hardfaulthandler.o(.bss._Continue)
    _acDownBuffer                            0x2000069c   Data          16  segger_rtt.o(.bss._acDownBuffer)
    [Anonymous Symbol]                       0x2000069c   Section        0  segger_rtt.o(.bss._acDownBuffer)
    _acUpBuffer                              0x200006ac   Data        1024  segger_rtt.o(.bss._acUpBuffer)
    [Anonymous Symbol]                       0x200006ac   Section        0  segger_rtt.o(.bss._acUpBuffer)
    ble_control._bleMoveDir                  0x20000aac   Data           1  main.o(.bss.ble_control._bleMoveDir)
    [Anonymous Symbol]                       0x20000aac   Section        0  main.o(.bss.ble_control._bleMoveDir)
    ble_control._bleMoveSpeed                0x20000aae   Data           2  main.o(.bss.ble_control._bleMoveSpeed)
    [Anonymous Symbol]                       0x20000aae   Section        0  main.o(.bss.ble_control._bleMoveSpeed)
    ble_control._blePivotSteerDir            0x20000ab0   Data           1  main.o(.bss.ble_control._blePivotSteerDir)
    [Anonymous Symbol]                       0x20000ab0   Section        0  main.o(.bss.ble_control._blePivotSteerDir)
    ble_control._blePivotSteerSpeed          0x20000ab2   Data           2  main.o(.bss.ble_control._blePivotSteerSpeed)
    [Anonymous Symbol]                       0x20000ab2   Section        0  main.o(.bss.ble_control._blePivotSteerSpeed)
    ble_control._byte                        0x20000ab4   Data           1  main.o(.bss.ble_control._byte)
    [Anonymous Symbol]                       0x20000ab4   Section        0  main.o(.bss.ble_control._byte)
    g_RxBuf1                                 0x20000ac6   Data        1024  bsp_uart.o(.bss.g_RxBuf1)
    [Anonymous Symbol]                       0x20000ac6   Section        0  bsp_uart.o(.bss.g_RxBuf1)
    g_RxBuf3                                 0x20000ec6   Data        1024  bsp_uart.o(.bss.g_RxBuf3)
    [Anonymous Symbol]                       0x20000ec6   Section        0  bsp_uart.o(.bss.g_RxBuf3)
    g_RxBuf5                                 0x200012c6   Data         100  bsp_uart.o(.bss.g_RxBuf5)
    [Anonymous Symbol]                       0x200012c6   Section        0  bsp_uart.o(.bss.g_RxBuf5)
    g_TxBuf1                                 0x20001330   Data        1024  bsp_uart.o(.bss.g_TxBuf1)
    [Anonymous Symbol]                       0x20001330   Section        0  bsp_uart.o(.bss.g_TxBuf1)
    g_TxBuf3                                 0x20001730   Data        1024  bsp_uart.o(.bss.g_TxBuf3)
    [Anonymous Symbol]                       0x20001730   Section        0  bsp_uart.o(.bss.g_TxBuf3)
    g_TxBuf5                                 0x20001b30   Data         100  bsp_uart.o(.bss.g_TxBuf5)
    [Anonymous Symbol]                       0x20001b30   Section        0  bsp_uart.o(.bss.g_TxBuf5)
    g_tUart1                                 0x20001ba0   Data          44  bsp_uart.o(.bss.g_tUart1)
    [Anonymous Symbol]                       0x20001ba0   Section        0  bsp_uart.o(.bss.g_tUart1)
    g_tUart3                                 0x20001bcc   Data          44  bsp_uart.o(.bss.g_tUart3)
    [Anonymous Symbol]                       0x20001bcc   Section        0  bsp_uart.o(.bss.g_tUart3)
    g_tUart5                                 0x20001bf8   Data          44  bsp_uart.o(.bss.g_tUart5)
    [Anonymous Symbol]                       0x20001bf8   Section        0  bsp_uart.o(.bss.g_tUart5)
    EventBuffer                              0x20001d80   Data        1024  eventrecorder.o(.bss.noinit)
    [Anonymous Symbol]                       0x20001d80   Section        0  eventrecorder.o(.bss.noinit)
    EventFilter                              0x20002180   Data         128  eventrecorder.o(.bss.noinit)
    EventStatus                              0x20002200   Data          36  eventrecorder.o(.bss.noinit)
    os_isr_queue                             0x20002228   Data          64  rtx_lib.o(.bss.os)
    [Anonymous Symbol]                       0x20002228   Section        0  rtx_lib.o(.bss.os)
    os_mem                                   0x20002268   Data       10240  rtx_lib.o(.bss.os)
    os_timer_mq_cb                           0x20004a68   Data          52  rtx_lib.o(.bss.os.msgqueue.cb)
    [Anonymous Symbol]                       0x20004a68   Section        0  rtx_lib.o(.bss.os.msgqueue.cb)
    os_timer_mq_data                         0x20004a9c   Data          80  rtx_lib.o(.bss.os.msgqueue.mem)
    [Anonymous Symbol]                       0x20004a9c   Section        0  rtx_lib.o(.bss.os.msgqueue.mem)
    os_idle_thread_cb                        0x20004aec   Data          68  rtx_lib.o(.bss.os.thread.cb)
    [Anonymous Symbol]                       0x20004aec   Section        0  rtx_lib.o(.bss.os.thread.cb)
    os_timer_thread_cb                       0x20004b30   Data          68  rtx_lib.o(.bss.os.thread.cb)
    os_idle_thread_stack                     0x20004b78   Data         512  rtx_lib.o(.bss.os.thread.stack)
    [Anonymous Symbol]                       0x20004b78   Section        0  rtx_lib.o(.bss.os.thread.stack)
    os_timer_thread_stack                    0x20004d78   Data         512  rtx_lib.o(.bss.os.thread.stack)
    s_EncodeValue                            0x20004f78   Data          16  bsp_encoder.o(.bss.s_EncodeValue)
    [Anonymous Symbol]                       0x20004f78   Section        0  bsp_encoder.o(.bss.s_EncodeValue)
    s_tBtn                                   0x20004f88   Data          32  bsp_key.o(.bss.s_tBtn)
    [Anonymous Symbol]                       0x20004f88   Section        0  bsp_key.o(.bss.s_tBtn)
    s_tKey                                   0x20004fa8   Data          13  bsp_key.o(.bss.s_tKey)
    [Anonymous Symbol]                       0x20004fa8   Section        0  bsp_key.o(.bss.s_tKey)
    tPidSpeedA                               0x20004fb8   Data          20  pid.o(.bss.tPidSpeedA)
    [Anonymous Symbol]                       0x20004fb8   Section        0  pid.o(.bss.tPidSpeedA)
    tPidSpeedB                               0x20004fcc   Data          20  pid.o(.bss.tPidSpeedB)
    [Anonymous Symbol]                       0x20004fcc   Section        0  pid.o(.bss.tPidSpeedB)
    tPidSpeedC                               0x20004fe0   Data          20  pid.o(.bss.tPidSpeedC)
    [Anonymous Symbol]                       0x20004fe0   Section        0  pid.o(.bss.tPidSpeedC)
    tPidSpeedD                               0x20004ff4   Data          20  pid.o(.bss.tPidSpeedD)
    [Anonymous Symbol]                       0x20004ff4   Section        0  pid.o(.bss.tPidSpeedD)
    STACK                                    0x20005008   Section     4096  startup_stm32f103xe.o(STACK)

    Global Symbols

    Symbol Name                              Value     Ov Type        Size  Object(Section)

    BuildAttributes$$THM_ISAv4$P$D$K$B$S$PE$A:L22UL41UL21$X:L11$S22US41US21$IEEE1$IW$~IW$USESV6$~STKCKD$USESV7$~SHL$OTIME$ROPI$EBA8$MICROLIB$REQ8$PRES8$EABIv2 0x00000000   Number         0  anon$$obj.o ABSOLUTE
    .bss.os.evflags.cb$$Base                  - Undefined Weak Reference
    .bss.os.evflags.cb$$Limit                 - Undefined Weak Reference
    .bss.os.mempool.cb$$Base                  - Undefined Weak Reference
    .bss.os.mempool.cb$$Limit                 - Undefined Weak Reference
    .bss.os.mutex.cb$$Base                    - Undefined Weak Reference
    .bss.os.mutex.cb$$Limit                   - Undefined Weak Reference
    .bss.os.semaphore.cb$$Base                - Undefined Weak Reference
    .bss.os.semaphore.cb$$Limit               - Undefined Weak Reference
    .bss.os.timer.cb$$Base                    - Undefined Weak Reference
    .bss.os.timer.cb$$Limit                   - Undefined Weak Reference
    __cpp_initialize__aeabi_                  - Undefined Weak Reference
    __cxa_finalize                            - Undefined Weak Reference
    __decompress                              - Undefined Weak Reference
    _clock_init                               - Undefined Weak Reference
    _microlib_exit                            - Undefined Weak Reference
    __Vectors_Size                           0x00000130   Number         0  startup_stm32f103xe.o ABSOLUTE
    __Vectors                                0x08000000   Data           4  startup_stm32f103xe.o(RESET)
    __Vectors_End                            0x08000130   Data           0  startup_stm32f103xe.o(RESET)
    __main                                   0x08000131   Thumb Code     0  entry.o(.ARM.Collect$$$$00000000)
    _main_stk                                0x08000131   Thumb Code     0  entry2.o(.ARM.Collect$$$$00000001)
    _main_scatterload                        0x08000135   Thumb Code     0  entry5.o(.ARM.Collect$$$$00000004)
    __main_after_scatterload                 0x08000139   Thumb Code     0  entry5.o(.ARM.Collect$$$$00000004)
    _main_clock                              0x08000139   Thumb Code     0  entry7b.o(.ARM.Collect$$$$00000008)
    _main_cpp_init                           0x08000139   Thumb Code     0  entry8b.o(.ARM.Collect$$$$0000000A)
    _main_init                               0x08000139   Thumb Code     0  entry9a.o(.ARM.Collect$$$$0000000B)
    __rt_final_cpp                           0x08000141   Thumb Code     0  entry10a.o(.ARM.Collect$$$$0000000D)
    __rt_final_exit                          0x08000141   Thumb Code     0  entry11a.o(.ARM.Collect$$$$0000000F)
    Reset_Handler                            0x08000145   Thumb Code     8  startup_stm32f103xe.o(.text)
    ADC1_2_IRQHandler                        0x0800015f   Thumb Code     0  startup_stm32f103xe.o(.text)
    ADC3_IRQHandler                          0x0800015f   Thumb Code     0  startup_stm32f103xe.o(.text)
    CAN1_RX1_IRQHandler                      0x0800015f   Thumb Code     0  startup_stm32f103xe.o(.text)
    CAN1_SCE_IRQHandler                      0x0800015f   Thumb Code     0  startup_stm32f103xe.o(.text)
    DMA1_Channel1_IRQHandler                 0x0800015f   Thumb Code     0  startup_stm32f103xe.o(.text)
    DMA1_Channel2_IRQHandler                 0x0800015f   Thumb Code     0  startup_stm32f103xe.o(.text)
    DMA1_Channel3_IRQHandler                 0x0800015f   Thumb Code     0  startup_stm32f103xe.o(.text)
    DMA1_Channel4_IRQHandler                 0x0800015f   Thumb Code     0  startup_stm32f103xe.o(.text)
    DMA1_Channel5_IRQHandler                 0x0800015f   Thumb Code     0  startup_stm32f103xe.o(.text)
    DMA1_Channel6_IRQHandler                 0x0800015f   Thumb Code     0  startup_stm32f103xe.o(.text)
    DMA1_Channel7_IRQHandler                 0x0800015f   Thumb Code     0  startup_stm32f103xe.o(.text)
    DMA2_Channel1_IRQHandler                 0x0800015f   Thumb Code     0  startup_stm32f103xe.o(.text)
    DMA2_Channel2_IRQHandler                 0x0800015f   Thumb Code     0  startup_stm32f103xe.o(.text)
    DMA2_Channel3_IRQHandler                 0x0800015f   Thumb Code     0  startup_stm32f103xe.o(.text)
    DMA2_Channel4_5_IRQHandler               0x0800015f   Thumb Code     0  startup_stm32f103xe.o(.text)
    EXTI0_IRQHandler                         0x0800015f   Thumb Code     0  startup_stm32f103xe.o(.text)
    EXTI15_10_IRQHandler                     0x0800015f   Thumb Code     0  startup_stm32f103xe.o(.text)
    EXTI1_IRQHandler                         0x0800015f   Thumb Code     0  startup_stm32f103xe.o(.text)
    EXTI2_IRQHandler                         0x0800015f   Thumb Code     0  startup_stm32f103xe.o(.text)
    EXTI3_IRQHandler                         0x0800015f   Thumb Code     0  startup_stm32f103xe.o(.text)
    EXTI4_IRQHandler                         0x0800015f   Thumb Code     0  startup_stm32f103xe.o(.text)
    EXTI9_5_IRQHandler                       0x0800015f   Thumb Code     0  startup_stm32f103xe.o(.text)
    FLASH_IRQHandler                         0x0800015f   Thumb Code     0  startup_stm32f103xe.o(.text)
    FSMC_IRQHandler                          0x0800015f   Thumb Code     0  startup_stm32f103xe.o(.text)
    I2C1_ER_IRQHandler                       0x0800015f   Thumb Code     0  startup_stm32f103xe.o(.text)
    I2C1_EV_IRQHandler                       0x0800015f   Thumb Code     0  startup_stm32f103xe.o(.text)
    I2C2_ER_IRQHandler                       0x0800015f   Thumb Code     0  startup_stm32f103xe.o(.text)
    I2C2_EV_IRQHandler                       0x0800015f   Thumb Code     0  startup_stm32f103xe.o(.text)
    PVD_IRQHandler                           0x0800015f   Thumb Code     0  startup_stm32f103xe.o(.text)
    RCC_IRQHandler                           0x0800015f   Thumb Code     0  startup_stm32f103xe.o(.text)
    RTC_Alarm_IRQHandler                     0x0800015f   Thumb Code     0  startup_stm32f103xe.o(.text)
    RTC_IRQHandler                           0x0800015f   Thumb Code     0  startup_stm32f103xe.o(.text)
    SDIO_IRQHandler                          0x0800015f   Thumb Code     0  startup_stm32f103xe.o(.text)
    SPI1_IRQHandler                          0x0800015f   Thumb Code     0  startup_stm32f103xe.o(.text)
    SPI2_IRQHandler                          0x0800015f   Thumb Code     0  startup_stm32f103xe.o(.text)
    SPI3_IRQHandler                          0x0800015f   Thumb Code     0  startup_stm32f103xe.o(.text)
    TAMPER_IRQHandler                        0x0800015f   Thumb Code     0  startup_stm32f103xe.o(.text)
    TIM1_BRK_IRQHandler                      0x0800015f   Thumb Code     0  startup_stm32f103xe.o(.text)
    TIM1_CC_IRQHandler                       0x0800015f   Thumb Code     0  startup_stm32f103xe.o(.text)
    TIM1_TRG_COM_IRQHandler                  0x0800015f   Thumb Code     0  startup_stm32f103xe.o(.text)
    TIM1_UP_IRQHandler                       0x0800015f   Thumb Code     0  startup_stm32f103xe.o(.text)
    TIM2_IRQHandler                          0x0800015f   Thumb Code     0  startup_stm32f103xe.o(.text)
    TIM3_IRQHandler                          0x0800015f   Thumb Code     0  startup_stm32f103xe.o(.text)
    TIM4_IRQHandler                          0x0800015f   Thumb Code     0  startup_stm32f103xe.o(.text)
    TIM6_IRQHandler                          0x0800015f   Thumb Code     0  startup_stm32f103xe.o(.text)
    TIM7_IRQHandler                          0x0800015f   Thumb Code     0  startup_stm32f103xe.o(.text)
    TIM8_BRK_IRQHandler                      0x0800015f   Thumb Code     0  startup_stm32f103xe.o(.text)
    TIM8_CC_IRQHandler                       0x0800015f   Thumb Code     0  startup_stm32f103xe.o(.text)
    TIM8_TRG_COM_IRQHandler                  0x0800015f   Thumb Code     0  startup_stm32f103xe.o(.text)
    TIM8_UP_IRQHandler                       0x0800015f   Thumb Code     0  startup_stm32f103xe.o(.text)
    UART4_IRQHandler                         0x0800015f   Thumb Code     0  startup_stm32f103xe.o(.text)
    USART2_IRQHandler                        0x0800015f   Thumb Code     0  startup_stm32f103xe.o(.text)
    USBWakeUp_IRQHandler                     0x0800015f   Thumb Code     0  startup_stm32f103xe.o(.text)
    USB_HP_CAN1_TX_IRQHandler                0x0800015f   Thumb Code     0  startup_stm32f103xe.o(.text)
    WWDG_IRQHandler                          0x0800015f   Thumb Code     0  startup_stm32f103xe.o(.text)
    SVC_Handler                              0x08000169   Thumb Code   108  irq_cm3.o(.text)
    PendSV_Handler                           0x080001d5   Thumb Code    16  irq_cm3.o(.text)
    SysTick_Handler                          0x080001e5   Thumb Code    16  irq_cm3.o(.text)
    abs                                      0x080001fd   Thumb Code     8  siabs.o(.text)
    __aeabi_memcpy                           0x08000205   Thumb Code    36  memcpya.o(.text)
    __aeabi_memcpy4                          0x08000205   Thumb Code     0  memcpya.o(.text)
    __aeabi_memcpy8                          0x08000205   Thumb Code     0  memcpya.o(.text)
    __aeabi_memset                           0x08000229   Thumb Code    14  memseta.o(.text)
    __aeabi_memset4                          0x08000229   Thumb Code     0  memseta.o(.text)
    __aeabi_memset8                          0x08000229   Thumb Code     0  memseta.o(.text)
    __aeabi_memclr                           0x08000237   Thumb Code     4  memseta.o(.text)
    __aeabi_memclr4                          0x08000237   Thumb Code     0  memseta.o(.text)
    __aeabi_memclr8                          0x08000237   Thumb Code     0  memseta.o(.text)
    _memset$wrapper                          0x0800023b   Thumb Code    18  memseta.o(.text)
    strcpy                                   0x0800024d   Thumb Code    18  strcpy.o(.text)
    __aeabi_fadd                             0x0800025f   Thumb Code   164  fadd.o(.text)
    __aeabi_fsub                             0x08000303   Thumb Code     6  fadd.o(.text)
    __aeabi_frsub                            0x08000309   Thumb Code     6  fadd.o(.text)
    __aeabi_fmul                             0x0800030f   Thumb Code   100  fmul.o(.text)
    __aeabi_fdiv                             0x08000373   Thumb Code   124  fdiv.o(.text)
    __aeabi_dmul                             0x080003ef   Thumb Code   228  dmul.o(.text)
    __aeabi_ddiv                             0x080004d3   Thumb Code   222  ddiv.o(.text)
    __aeabi_fcmple                           0x080005b1   Thumb Code    28  fcmple.o(.text)
    __aeabi_fcmpge                           0x080005cd   Thumb Code    28  fcmpge.o(.text)
    __aeabi_i2f                              0x080005e9   Thumb Code    18  fflti.o(.text)
    __aeabi_i2d                              0x080005fb   Thumb Code    34  dflti.o(.text)
    __aeabi_f2iz                             0x0800061d   Thumb Code    50  ffixi.o(.text)
    __aeabi_d2iz                             0x0800064f   Thumb Code    62  dfixi.o(.text)
    __aeabi_uidiv                            0x0800068d   Thumb Code     0  uidiv.o(.text)
    __aeabi_uidivmod                         0x0800068d   Thumb Code    44  uidiv.o(.text)
    __aeabi_uldivmod                         0x080006b9   Thumb Code    98  uldiv.o(.text)
    __aeabi_llsr                             0x0800071b   Thumb Code    32  llushr.o(.text)
    _ll_ushift_r                             0x0800071b   Thumb Code     0  llushr.o(.text)
    __I$use$fp                               0x0800073b   Thumb Code     0  iusefp.o(.text)
    _float_round                             0x0800073b   Thumb Code    18  fepilogue.o(.text)
    _float_epilogue                          0x0800074d   Thumb Code    92  fepilogue.o(.text)
    _double_round                            0x080007a9   Thumb Code    30  depilogue.o(.text)
    _double_epilogue                         0x080007c7   Thumb Code   156  depilogue.o(.text)
    __aeabi_dadd                             0x08000863   Thumb Code   322  dadd.o(.text)
    __aeabi_dsub                             0x080009a5   Thumb Code     6  dadd.o(.text)
    __aeabi_drsub                            0x080009ab   Thumb Code     6  dadd.o(.text)
    __aeabi_d2ulz                            0x080009b1   Thumb Code    48  dfixul.o(.text)
    __aeabi_cdrcmple                         0x080009e1   Thumb Code    48  cdrcmple.o(.text)
    __scatterload                            0x08000a11   Thumb Code    28  init.o(.text)
    __scatterload_rt2                        0x08000a11   Thumb Code     0  init.o(.text)
    __aeabi_llsl                             0x08000a35   Thumb Code    30  llshl.o(.text)
    _ll_shift_l                              0x08000a35   Thumb Code     0  llshl.o(.text)
    __aeabi_lasr                             0x08000a53   Thumb Code    36  llsshr.o(.text)
    _ll_sshift_r                             0x08000a53   Thumb Code     0  llsshr.o(.text)
    ADC_ConversionStop_Disable               0x08000a79   Thumb Code   120  stm32f1xx_hal_adc.o(.text.ADC_ConversionStop_Disable)
    ADC_Enable                               0x08000af1   Thumb Code   178  stm32f1xx_hal_adc.o(.text.ADC_Enable)
    AppObjCreate                             0x08000ba5   Thumb Code     2  main.o(.text.AppObjCreate)
    BusFault_Handler                         0x08000e69   Thumb Code     4  stm32f1xx_it.o(.text.BusFault_Handler)
    ComToUart                                0x08000e6d   Thumb Code   150  bsp_uart.o(.text.ComToUart)
    DebugMon_Handler                         0x08000f05   Thumb Code     2  stm32f1xx_it.o(.text.DebugMon_Handler)
    Error_Handler                            0x08000f09   Thumb Code    40  bsp.o(.text.Error_Handler)
    EventRecord2                             0x08000fb5   Thumb Code    92  eventrecorder.o(.text.EventRecord2)
    EventRecord4                             0x08001011   Thumb Code   158  eventrecorder.o(.text.EventRecord4)
    EventRecorderTimerGetCount               0x080011b1   Thumb Code    12  eventrecorder.o(.text.EventRecorderTimerGetCount)
    EvrRtxDelay                              0x080011bd   Thumb Code    26  rtx_evr.o(.text.EvrRtxDelay)
    EvrRtxDelayCompleted                     0x080011d9   Thumb Code    26  rtx_evr.o(.text.EvrRtxDelayCompleted)
    EvrRtxDelayError                         0x080011f5   Thumb Code    22  rtx_evr.o(.text.EvrRtxDelayError)
    EvrRtxDelayStarted                       0x0800120d   Thumb Code    26  rtx_evr.o(.text.EvrRtxDelayStarted)
    EvrRtxDelayUntil                         0x08001229   Thumb Code    26  rtx_evr.o(.text.EvrRtxDelayUntil)
    EvrRtxDelayUntilStarted                  0x08001245   Thumb Code    26  rtx_evr.o(.text.EvrRtxDelayUntilStarted)
    EvrRtxEventFlagsWaitTimeout              0x08001261   Thumb Code    26  rtx_evr.o(.text.EvrRtxEventFlagsWaitTimeout)
    EvrRtxKernelError                        0x0800127d   Thumb Code    22  rtx_evr.o(.text.EvrRtxKernelError)
    EvrRtxKernelGetState                     0x08001295   Thumb Code    26  rtx_evr.o(.text.EvrRtxKernelGetState)
    EvrRtxKernelGetTickCount                 0x080012b1   Thumb Code    26  rtx_evr.o(.text.EvrRtxKernelGetTickCount)
    EvrRtxKernelInitialize                   0x080012cd   Thumb Code    26  rtx_evr.o(.text.EvrRtxKernelInitialize)
    EvrRtxKernelInitialized                  0x080012e9   Thumb Code    26  rtx_evr.o(.text.EvrRtxKernelInitialized)
    EvrRtxKernelStart                        0x08001305   Thumb Code    26  rtx_evr.o(.text.EvrRtxKernelStart)
    EvrRtxKernelStarted                      0x08001321   Thumb Code    26  rtx_evr.o(.text.EvrRtxKernelStarted)
    EvrRtxMemoryAlloc                        0x0800133d   Thumb Code    42  rtx_evr.o(.text.EvrRtxMemoryAlloc)
    EvrRtxMemoryBlockAlloc                   0x08001369   Thumb Code    28  rtx_evr.o(.text.EvrRtxMemoryBlockAlloc)
    EvrRtxMemoryBlockFree                    0x08001385   Thumb Code    42  rtx_evr.o(.text.EvrRtxMemoryBlockFree)
    EvrRtxMemoryBlockInit                    0x080013b1   Thumb Code    42  rtx_evr.o(.text.EvrRtxMemoryBlockInit)
    EvrRtxMemoryFree                         0x080013dd   Thumb Code    42  rtx_evr.o(.text.EvrRtxMemoryFree)
    EvrRtxMemoryInit                         0x08001409   Thumb Code    38  rtx_evr.o(.text.EvrRtxMemoryInit)
    EvrRtxMemoryPoolAllocTimeout             0x08001431   Thumb Code    26  rtx_evr.o(.text.EvrRtxMemoryPoolAllocTimeout)
    EvrRtxMessageQueueCreated                0x0800144d   Thumb Code    28  rtx_evr.o(.text.EvrRtxMessageQueueCreated)
    EvrRtxMessageQueueError                  0x08001469   Thumb Code    24  rtx_evr.o(.text.EvrRtxMessageQueueError)
    EvrRtxMessageQueueGet                    0x08001481   Thumb Code    42  rtx_evr.o(.text.EvrRtxMessageQueueGet)
    EvrRtxMessageQueueGetPending             0x080014ad   Thumb Code    42  rtx_evr.o(.text.EvrRtxMessageQueueGetPending)
    EvrRtxMessageQueueGetTimeout             0x080014d9   Thumb Code    26  rtx_evr.o(.text.EvrRtxMessageQueueGetTimeout)
    EvrRtxMessageQueueInsertPending          0x080014f5   Thumb Code    28  rtx_evr.o(.text.EvrRtxMessageQueueInsertPending)
    EvrRtxMessageQueueInserted               0x08001511   Thumb Code    28  rtx_evr.o(.text.EvrRtxMessageQueueInserted)
    EvrRtxMessageQueueNew                    0x0800152d   Thumb Code    42  rtx_evr.o(.text.EvrRtxMessageQueueNew)
    EvrRtxMessageQueueNotInserted            0x08001559   Thumb Code    28  rtx_evr.o(.text.EvrRtxMessageQueueNotInserted)
    EvrRtxMessageQueueNotRetrieved           0x08001575   Thumb Code    28  rtx_evr.o(.text.EvrRtxMessageQueueNotRetrieved)
    EvrRtxMessageQueuePut                    0x08001591   Thumb Code    52  rtx_evr.o(.text.EvrRtxMessageQueuePut)
    EvrRtxMessageQueuePutPending             0x080015c5   Thumb Code    42  rtx_evr.o(.text.EvrRtxMessageQueuePutPending)
    EvrRtxMessageQueuePutTimeout             0x080015f1   Thumb Code    26  rtx_evr.o(.text.EvrRtxMessageQueuePutTimeout)
    EvrRtxMessageQueueRetrieved              0x0800160d   Thumb Code    28  rtx_evr.o(.text.EvrRtxMessageQueueRetrieved)
    EvrRtxMutexAcquireTimeout                0x08001629   Thumb Code    26  rtx_evr.o(.text.EvrRtxMutexAcquireTimeout)
    EvrRtxMutexAcquired                      0x08001645   Thumb Code    28  rtx_evr.o(.text.EvrRtxMutexAcquired)
    EvrRtxMutexReleased                      0x08001661   Thumb Code    28  rtx_evr.o(.text.EvrRtxMutexReleased)
    EvrRtxSemaphoreAcquireTimeout            0x0800167d   Thumb Code    26  rtx_evr.o(.text.EvrRtxSemaphoreAcquireTimeout)
    EvrRtxThreadBlocked                      0x08001699   Thumb Code    28  rtx_evr.o(.text.EvrRtxThreadBlocked)
    EvrRtxThreadCreated                      0x080016b5   Thumb Code    58  rtx_evr.o(.text.EvrRtxThreadCreated)
    EvrRtxThreadDestroyed                    0x080016f1   Thumb Code    26  rtx_evr.o(.text.EvrRtxThreadDestroyed)
    EvrRtxThreadError                        0x0800170d   Thumb Code    24  rtx_evr.o(.text.EvrRtxThreadError)
    EvrRtxThreadExit                         0x08001725   Thumb Code    26  rtx_evr.o(.text.EvrRtxThreadExit)
    EvrRtxThreadFlagsWaitCompleted           0x08001741   Thumb Code    42  rtx_evr.o(.text.EvrRtxThreadFlagsWaitCompleted)
    EvrRtxThreadFlagsWaitTimeout             0x0800176d   Thumb Code    26  rtx_evr.o(.text.EvrRtxThreadFlagsWaitTimeout)
    EvrRtxThreadJoined                       0x08001789   Thumb Code    26  rtx_evr.o(.text.EvrRtxThreadJoined)
    EvrRtxThreadNew                          0x080017a5   Thumb Code    42  rtx_evr.o(.text.EvrRtxThreadNew)
    EvrRtxThreadPreempted                    0x080017d1   Thumb Code    26  rtx_evr.o(.text.EvrRtxThreadPreempted)
    EvrRtxThreadSwitched                     0x080017ed   Thumb Code    26  rtx_evr.o(.text.EvrRtxThreadSwitched)
    EvrRtxThreadUnblocked                    0x08001809   Thumb Code    28  rtx_evr.o(.text.EvrRtxThreadUnblocked)
    EvrRtxTimerCallback                      0x08001825   Thumb Code    28  rtx_evr.o(.text.EvrRtxTimerCallback)
    EvrRtxTimerCreated                       0x08001841   Thumb Code    28  rtx_evr.o(.text.EvrRtxTimerCreated)
    EvrRtxTimerError                         0x0800185d   Thumb Code    24  rtx_evr.o(.text.EvrRtxTimerError)
    EvrRtxTimerNew                           0x08001875   Thumb Code    52  rtx_evr.o(.text.EvrRtxTimerNew)
    EvrRtxTimerStart                         0x080018a9   Thumb Code    28  rtx_evr.o(.text.EvrRtxTimerStart)
    EvrRtxTimerStarted                       0x080018c5   Thumb Code    26  rtx_evr.o(.text.EvrRtxTimerStarted)
    GetSpeedInfo                             0x08001909   Thumb Code   136  bsp_encoder.o(.text.GetSpeedInfo)
    HAL_ADCEx_Calibration_Start              0x08001991   Thumb Code   362  stm32f1xx_hal_adc_ex.o(.text.HAL_ADCEx_Calibration_Start)
    HAL_ADC_Init                             0x08001afd   Thumb Code   604  stm32f1xx_hal_adc.o(.text.HAL_ADC_Init)
    HAL_ADC_MspInit                          0x08001d59   Thumb Code    96  bsp_adc.o(.text.HAL_ADC_MspInit)
    HAL_CAN_ActivateNotification             0x08001db9   Thumb Code    82  stm32f1xx_hal_can.o(.text.HAL_CAN_ActivateNotification)
    HAL_CAN_ConfigFilter                     0x08001e0d   Thumb Code   394  stm32f1xx_hal_can.o(.text.HAL_CAN_ConfigFilter)
    HAL_CAN_ErrorCallback                    0x08001f99   Thumb Code     8  stm32f1xx_hal_can.o(.text.HAL_CAN_ErrorCallback)
    HAL_CAN_IRQHandler                       0x08001fa1   Thumb Code  1028  stm32f1xx_hal_can.o(.text.HAL_CAN_IRQHandler)
    HAL_CAN_Init                             0x080023a5   Thumb Code   484  stm32f1xx_hal_can.o(.text.HAL_CAN_Init)
    HAL_CAN_MspInit                          0x08002589   Thumb Code     8  stm32f1xx_hal_can.o(.text.HAL_CAN_MspInit)
    HAL_CAN_RxFifo0FullCallback              0x08002591   Thumb Code     8  stm32f1xx_hal_can.o(.text.HAL_CAN_RxFifo0FullCallback)
    HAL_CAN_RxFifo0MsgPendingCallback        0x08002599   Thumb Code    28  bsp_can.o(.text.HAL_CAN_RxFifo0MsgPendingCallback)
    HAL_CAN_RxFifo1FullCallback              0x080025b5   Thumb Code     8  stm32f1xx_hal_can.o(.text.HAL_CAN_RxFifo1FullCallback)
    HAL_CAN_RxFifo1MsgPendingCallback        0x080025bd   Thumb Code     8  stm32f1xx_hal_can.o(.text.HAL_CAN_RxFifo1MsgPendingCallback)
    HAL_CAN_SleepCallback                    0x080025c5   Thumb Code     8  stm32f1xx_hal_can.o(.text.HAL_CAN_SleepCallback)
    HAL_CAN_Start                            0x080025cd   Thumb Code   140  stm32f1xx_hal_can.o(.text.HAL_CAN_Start)
    HAL_CAN_TxMailbox0AbortCallback          0x08002659   Thumb Code     8  stm32f1xx_hal_can.o(.text.HAL_CAN_TxMailbox0AbortCallback)
    HAL_CAN_TxMailbox0CompleteCallback       0x08002661   Thumb Code     8  stm32f1xx_hal_can.o(.text.HAL_CAN_TxMailbox0CompleteCallback)
    HAL_CAN_TxMailbox1AbortCallback          0x08002669   Thumb Code     8  stm32f1xx_hal_can.o(.text.HAL_CAN_TxMailbox1AbortCallback)
    HAL_CAN_TxMailbox1CompleteCallback       0x08002671   Thumb Code     8  stm32f1xx_hal_can.o(.text.HAL_CAN_TxMailbox1CompleteCallback)
    HAL_CAN_TxMailbox2AbortCallback          0x08002679   Thumb Code     8  stm32f1xx_hal_can.o(.text.HAL_CAN_TxMailbox2AbortCallback)
    HAL_CAN_TxMailbox2CompleteCallback       0x08002681   Thumb Code     8  stm32f1xx_hal_can.o(.text.HAL_CAN_TxMailbox2CompleteCallback)
    HAL_CAN_WakeUpFromRxMsgCallback          0x08002689   Thumb Code     8  stm32f1xx_hal_can.o(.text.HAL_CAN_WakeUpFromRxMsgCallback)
    HAL_GPIO_Init                            0x08002691   Thumb Code   870  stm32f1xx_hal_gpio.o(.text.HAL_GPIO_Init)
    HAL_GPIO_ReadPin                         0x080029f9   Thumb Code    48  stm32f1xx_hal_gpio.o(.text.HAL_GPIO_ReadPin)
    HAL_GPIO_WritePin                        0x08002a29   Thumb Code    52  stm32f1xx_hal_gpio.o(.text.HAL_GPIO_WritePin)
    HAL_GetTick                              0x08002a5d   Thumb Code   104  stm32f1xx_hal_timebase_tim.o(.text.HAL_GetTick)
    HAL_Init                                 0x08002ac5   Thumb Code    46  stm32f1xx_hal.o(.text.HAL_Init)
    HAL_InitTick                             0x08002af5   Thumb Code    10  stm32f1xx_hal_timebase_tim.o(.text.HAL_InitTick)
    HAL_MspInit                              0x08002b01   Thumb Code    36  stm32f1xx_hal_msp.o(.text.HAL_MspInit)
    HAL_NVIC_EnableIRQ                       0x08002b25   Thumb Code    24  stm32f1xx_hal_cortex.o(.text.HAL_NVIC_EnableIRQ)
    HAL_NVIC_SetPriority                     0x08002b3d   Thumb Code    64  stm32f1xx_hal_cortex.o(.text.HAL_NVIC_SetPriority)
    HAL_NVIC_SetPriorityGrouping             0x08002b7d   Thumb Code    16  stm32f1xx_hal_cortex.o(.text.HAL_NVIC_SetPriorityGrouping)
    HAL_RCCEx_GetPeriphCLKFreq               0x08002b8d   Thumb Code   474  stm32f1xx_hal_rcc_ex.o(.text.HAL_RCCEx_GetPeriphCLKFreq)
    HAL_RCCEx_PeriphCLKConfig                0x08002d69   Thumb Code   460  stm32f1xx_hal_rcc_ex.o(.text.HAL_RCCEx_PeriphCLKConfig)
    HAL_RCC_ClockConfig                      0x08002f35   Thumb Code   600  stm32f1xx_hal_rcc.o(.text.HAL_RCC_ClockConfig)
    HAL_RCC_GetHCLKFreq                      0x0800318d   Thumb Code    12  stm32f1xx_hal_rcc.o(.text.HAL_RCC_GetHCLKFreq)
    HAL_RCC_GetPCLK1Freq                     0x08003199   Thumb Code    34  stm32f1xx_hal_rcc.o(.text.HAL_RCC_GetPCLK1Freq)
    HAL_RCC_GetPCLK2Freq                     0x080031bd   Thumb Code    34  stm32f1xx_hal_rcc.o(.text.HAL_RCC_GetPCLK2Freq)
    HAL_RCC_GetSysClockFreq                  0x080031e1   Thumb Code   232  stm32f1xx_hal_rcc.o(.text.HAL_RCC_GetSysClockFreq)
    HAL_RCC_OscConfig                        0x080032c9   Thumb Code  1674  stm32f1xx_hal_rcc.o(.text.HAL_RCC_OscConfig)
    HAL_TIMEx_BreakCallback                  0x08003955   Thumb Code     8  stm32f1xx_hal_tim_ex.o(.text.HAL_TIMEx_BreakCallback)
    HAL_TIMEx_CommutCallback                 0x0800395d   Thumb Code     8  stm32f1xx_hal_tim_ex.o(.text.HAL_TIMEx_CommutCallback)
    HAL_TIMEx_MasterConfigSynchronization    0x08003965   Thumb Code   152  stm32f1xx_hal_tim_ex.o(.text.HAL_TIMEx_MasterConfigSynchronization)
    HAL_TIM_Base_Init                        0x080039fd   Thumb Code    98  stm32f1xx_hal_tim.o(.text.HAL_TIM_Base_Init)
    HAL_TIM_Base_MspInit                     0x08003a61   Thumb Code   110  bsp_timer.o(.text.HAL_TIM_Base_MspInit)
    HAL_TIM_Base_Start_IT                    0x08003ad1   Thumb Code    56  stm32f1xx_hal_tim.o(.text.HAL_TIM_Base_Start_IT)
    HAL_TIM_ConfigClockSource                0x08003b09   Thumb Code   406  stm32f1xx_hal_tim.o(.text.HAL_TIM_ConfigClockSource)
    HAL_TIM_IC_CaptureCallback               0x08003ca1   Thumb Code   476  bsp_encoder.o(.text.HAL_TIM_IC_CaptureCallback)
    HAL_TIM_IC_ConfigChannel                 0x08003e7d   Thumb Code   328  stm32f1xx_hal_tim.o(.text.HAL_TIM_IC_ConfigChannel)
    HAL_TIM_IC_Init                          0x08003fc5   Thumb Code    98  stm32f1xx_hal_tim.o(.text.HAL_TIM_IC_Init)
    HAL_TIM_IC_MspInit                       0x08004029   Thumb Code     8  stm32f1xx_hal_tim.o(.text.HAL_TIM_IC_MspInit)
    HAL_TIM_IC_Start_IT                      0x08004031   Thumb Code   146  stm32f1xx_hal_tim.o(.text.HAL_TIM_IC_Start_IT)
    HAL_TIM_IRQHandler                       0x080040c5   Thumb Code   642  stm32f1xx_hal_tim.o(.text.HAL_TIM_IRQHandler)
    HAL_TIM_MspInit                          0x08004349   Thumb Code   430  bsp_timer.o(.text.HAL_TIM_MspInit)
    HAL_TIM_OC_DelayElapsedCallback          0x080044f9   Thumb Code     8  stm32f1xx_hal_tim.o(.text.HAL_TIM_OC_DelayElapsedCallback)
    HAL_TIM_PWM_ConfigChannel                0x08004501   Thumb Code   324  stm32f1xx_hal_tim.o(.text.HAL_TIM_PWM_ConfigChannel)
    HAL_TIM_PWM_PulseFinishedCallback        0x08004645   Thumb Code     8  stm32f1xx_hal_tim.o(.text.HAL_TIM_PWM_PulseFinishedCallback)
    HAL_TIM_PWM_Start                        0x0800464d   Thumb Code   132  stm32f1xx_hal_tim.o(.text.HAL_TIM_PWM_Start)
    HAL_TIM_PeriodElapsedCallback            0x080046d1   Thumb Code   122  bsp_encoder.o(.text.HAL_TIM_PeriodElapsedCallback)
    HAL_TIM_TriggerCallback                  0x0800474d   Thumb Code     8  stm32f1xx_hal_tim.o(.text.HAL_TIM_TriggerCallback)
    HAL_UART_Init                            0x08004755   Thumb Code   160  stm32f1xx_hal_uart.o(.text.HAL_UART_Init)
    HAL_UART_MspInit                         0x080047f5   Thumb Code     8  stm32f1xx_hal_uart.o(.text.HAL_UART_MspInit)
    HardFaultHandler                         0x080047fd   Thumb Code   278  segger_hardfaulthandler.o(.text.HardFaultHandler)
    MPU_IIC_Init                             0x08004dad   Thumb Code    94  mpuiic.o(.text.MPU_IIC_Init)
    MemManage_Handler                        0x08004e31   Thumb Code     4  stm32f1xx_it.o(.text.MemManage_Handler)
    MotoASetSpeed                            0x08004f8d   Thumb Code    82  bsp_motor.o(.text.MotoASetSpeed)
    MotoBSetSpeed                            0x08004fe1   Thumb Code    82  bsp_motor.o(.text.MotoBSetSpeed)
    MotoCSetSpeed                            0x08005035   Thumb Code    82  bsp_motor.o(.text.MotoCSetSpeed)
    MotoDSetSpeed                            0x08005089   Thumb Code    82  bsp_motor.o(.text.MotoDSetSpeed)
    MotorA_Backward                          0x080050dd   Thumb Code    38  bsp_motor.o(.text.MotorA_Backward)
    MotorA_Forward                           0x08005105   Thumb Code    42  bsp_motor.o(.text.MotorA_Forward)
    MotorB_Backward                          0x08005131   Thumb Code    36  bsp_motor.o(.text.MotorB_Backward)
    MotorB_Forward                           0x08005155   Thumb Code    36  bsp_motor.o(.text.MotorB_Forward)
    MotorC_Backward                          0x08005179   Thumb Code    40  bsp_motor.o(.text.MotorC_Backward)
    MotorC_Forward                           0x080051a1   Thumb Code    40  bsp_motor.o(.text.MotorC_Forward)
    MotorControl                             0x080051c9   Thumb Code  1130  motor.o(.text.MotorControl)
    MotorD_Backward                          0x08005635   Thumb Code    40  bsp_motor.o(.text.MotorD_Backward)
    MotorD_Forward                           0x0800565d   Thumb Code    40  bsp_motor.o(.text.MotorD_Forward)
    NMI_Handler                              0x08005685   Thumb Code     2  stm32f1xx_it.o(.text.NMI_Handler)
    OLED_Clear                               0x080056f9   Thumb Code   100  bsp_oled.o(.text.OLED_Clear)
    OLED_Refresh                             0x0800575d   Thumb Code   166  bsp_oled.o(.text.OLED_Refresh)
    OLED_WR_Byte                             0x08005805   Thumb Code    90  bsp_oled.o(.text.OLED_WR_Byte)
    OS_Tick_AcknowledgeIRQ                   0x08005861   Thumb Code    12  os_systick.o(.text.OS_Tick_AcknowledgeIRQ)
    OS_Tick_Enable                           0x0800586d   Thumb Code    62  os_systick.o(.text.OS_Tick_Enable)
    OS_Tick_GetIRQn                          0x080058ad   Thumb Code     6  os_systick.o(.text.OS_Tick_GetIRQn)
    OS_Tick_Setup                            0x080058b5   Thumb Code   128  os_systick.o(.text.OS_Tick_Setup)
    PID_Param_SetZero                        0x08005935   Thumb Code    52  pid.o(.text.PID_Param_SetZero)
    PS2_init                                 0x08005969   Thumb Code   148  bsp_ps2.o(.text.PS2_init)
    SEGGER_RTT_ConfigDownBuffer              0x08005a39   Thumb Code   208  segger_rtt.o(.text.SEGGER_RTT_ConfigDownBuffer)
    SEGGER_RTT_ConfigUpBuffer                0x08005b09   Thumb Code   208  segger_rtt.o(.text.SEGGER_RTT_ConfigUpBuffer)
    SEGGER_RTT_Write                         0x08005bd9   Thumb Code    74  segger_rtt.o(.text.SEGGER_RTT_Write)
    SEGGER_RTT_WriteNoLock                   0x08005c25   Thumb Code   178  segger_rtt.o(.text.SEGGER_RTT_WriteNoLock)
    SystemInit                               0x08005dd5   Thumb Code    96  system_stm32f1xx.o(.text.SystemInit)
    System_Init                              0x08005e35   Thumb Code    18  bsp.o(.text.System_Init)
    TIM5_IRQHandler                          0x08005e49   Thumb Code    16  bsp_encoder.o(.text.TIM5_IRQHandler)
    TIM_Base_SetConfig                       0x08005e59   Thumb Code   320  stm32f1xx_hal_tim.o(.text.TIM_Base_SetConfig)
    TIM_CCxChannelCmd                        0x08005f99   Thumb Code    56  stm32f1xx_hal_tim.o(.text.TIM_CCxChannelCmd)
    TIM_ETR_SetConfig                        0x08005fd1   Thumb Code    52  stm32f1xx_hal_tim.o(.text.TIM_ETR_SetConfig)
    TIM_OC2_SetConfig                        0x08006121   Thumb Code   248  stm32f1xx_hal_tim.o(.text.TIM_OC2_SetConfig)
    TIM_TI1_SetConfig                        0x08006409   Thumb Code   242  stm32f1xx_hal_tim.o(.text.TIM_TI1_SetConfig)
    UART5_IRQHandler                         0x08006839   Thumb Code    16  bsp_uart.o(.text.UART5_IRQHandler)
    USART1_IRQHandler                        0x08006955   Thumb Code    16  bsp_uart.o(.text.USART1_IRQHandler)
    USART3_IRQHandler                        0x08006965   Thumb Code    16  bsp_uart.o(.text.USART3_IRQHandler)
    USB_LP_CAN1_RX0_IRQHandler               0x08006975   Thumb Code    16  bsp_can.o(.text.USB_LP_CAN1_RX0_IRQHandler)
    UsageFault_Handler                       0x08006cc9   Thumb Code     4  stm32f1xx_it.o(.text.UsageFault_Handler)
    auto_ControlCarStop                      0x08007251   Thumb Code    54  autocontrol.o(.text.auto_ControlCarStop)
    auto_epsSteerControl                     0x08007289   Thumb Code   160  steercontrol.o(.text.auto_epsSteerControl)
    ble_control                              0x08007329   Thumb Code   554  main.o(.text.ble_control)
    bsp_DelayUS                              0x08007555   Thumb Code    84  bsp_dwt.o(.text.bsp_DelayUS)
    bsp_Init                                 0x080075a9   Thumb Code    68  bsp.o(.text.bsp_Init)
    bsp_InitAdc                              0x080075ed   Thumb Code    84  bsp_adc.o(.text.bsp_InitAdc)
    bsp_InitCan                              0x08007641   Thumb Code   436  bsp_can.o(.text.bsp_InitCan)
    bsp_InitDWT                              0x080077f5   Thumb Code    46  bsp_dwt.o(.text.bsp_InitDWT)
    bsp_InitEncoder                          0x08007825   Thumb Code   140  bsp_encoder.o(.text.bsp_InitEncoder)
    bsp_InitKey                              0x080078b1   Thumb Code    12  bsp_key.o(.text.bsp_InitKey)
    bsp_InitLed                              0x080079f5   Thumb Code   206  bsp_led.o(.text.bsp_InitLed)
    bsp_InitMotorEnGpio                      0x08007ac5   Thumb Code   196  bsp_motor.o(.text.bsp_InitMotorEnGpio)
    bsp_InitOled                             0x08007b89   Thumb Code   312  bsp_oled.o(.text.bsp_InitOled)
    bsp_InitPid                              0x08007cc1   Thumb Code    92  pid.o(.text.bsp_InitPid)
    bsp_InitTim1                             0x08007d1d   Thumb Code   142  bsp_timer.o(.text.bsp_InitTim1)
    bsp_InitTim3                             0x08007dad   Thumb Code   216  bsp_timer.o(.text.bsp_InitTim3)
    bsp_InitTim4                             0x08007e85   Thumb Code   216  bsp_timer.o(.text.bsp_InitTim4)
    bsp_InitTim5                             0x08007f5d   Thumb Code   522  bsp_timer.o(.text.bsp_InitTim5)
    bsp_InitTim8                             0x08008169   Thumb Code   246  bsp_timer.o(.text.bsp_InitTim8)
    bsp_InitUart                             0x08008261   Thumb Code    12  bsp_uart.o(.text.bsp_InitUart)
    bsp_IsLedOn                              0x0800826d   Thumb Code    80  bsp_led.o(.text.bsp_IsLedOn)
    bsp_LedOff                               0x080082bd   Thumb Code    58  bsp_led.o(.text.bsp_LedOff)
    bsp_LedOn                                0x080082f9   Thumb Code    58  bsp_led.o(.text.bsp_LedOn)
    bsp_LedToggle                            0x08008335   Thumb Code    50  bsp_led.o(.text.bsp_LedToggle)
    bsp_SetKeyParam                          0x08008369   Thumb Code    74  bsp_key.o(.text.bsp_SetKeyParam)
    bsp_SetUartParam                         0x080083b5   Thumb Code    72  bsp_uart.o(.text.bsp_SetUartParam)
    comGetChar                               0x080083fd   Thumb Code    62  bsp_uart.o(.text.comGetChar)
    fputc                                    0x0800843d   Thumb Code    48  retarget_io.o(.text.fputc)
    i2c_Delay                                0x0800846d   Thumb Code    10  bsp_oled.o(.text.i2c_Delay)
    i2c_SendByte                             0x08008479   Thumb Code   174  bsp_oled.o(.text.i2c_SendByte)
    i2c_Stop                                 0x08008529   Thumb Code    62  bsp_oled.o(.text.i2c_Stop)
    i2c_WaitAck                              0x08008569   Thumb Code   110  bsp_oled.o(.text.i2c_WaitAck)
    i2c_start                                0x080085d9   Thumb Code    84  bsp_oled.o(.text.i2c_start)
    main                                     0x08008869   Thumb Code    62  main.o(.text.main)
    osDelay                                  0x080088a9   Thumb Code    88  rtx_delay.o(.text.osDelay)
    osDelayUntil                             0x08008901   Thumb Code    88  rtx_delay.o(.text.osDelayUntil)
    osKernelGetState                         0x08008959   Thumb Code    72  rtx_kernel.o(.text.osKernelGetState)
    osKernelGetTickCount                     0x080089a1   Thumb Code    62  rtx_kernel.o(.text.osKernelGetTickCount)
    osKernelInitialize                       0x080089e1   Thumb Code    78  rtx_kernel.o(.text.osKernelInitialize)
    osKernelStart                            0x08008a31   Thumb Code    74  rtx_kernel.o(.text.osKernelStart)
    osMessageQueueGet                        0x08008a7d   Thumb Code   130  rtx_msgqueue.o(.text.osMessageQueueGet)
    osMessageQueueNew                        0x08008b01   Thumb Code   118  rtx_msgqueue.o(.text.osMessageQueueNew)
    osMessageQueuePut                        0x08008b79   Thumb Code   148  rtx_msgqueue.o(.text.osMessageQueuePut)
    osRtxErrorNotify                         0x08008c0d   Thumb Code    46  rtx_config.o(.text.osRtxErrorNotify)
    osRtxIdleThread                          0x08008c55   Thumb Code     8  rtx_config.o(.text.osRtxIdleThread)
    osRtxKernelPreInit                       0x08008c75   Thumb Code     2  rtx_kernel.o(.text.osRtxKernelPreInit)
    osRtxMemoryAlloc                         0x08008c85   Thumb Code   342  rtx_memory.o(.text.osRtxMemoryAlloc)
    osRtxMemoryFree                          0x08008ddd   Thumb Code   200  rtx_memory.o(.text.osRtxMemoryFree)
    osRtxMemoryInit                          0x08008ea5   Thumb Code   160  rtx_memory.o(.text.osRtxMemoryInit)
    osRtxMemoryPoolAlloc                     0x08008f45   Thumb Code    78  rtx_mempool.o(.text.osRtxMemoryPoolAlloc)
    osRtxMemoryPoolFree                      0x08008f95   Thumb Code   110  rtx_mempool.o(.text.osRtxMemoryPoolFree)
    osRtxMemoryPoolInit                      0x08009005   Thumb Code   162  rtx_mempool.o(.text.osRtxMemoryPoolInit)
    osRtxMutexOwnerRelease                   0x08009251   Thumb Code   156  rtx_mutex.o(.text.osRtxMutexOwnerRelease)
    osRtxMutexOwnerRestore                   0x080092ed   Thumb Code   160  rtx_mutex.o(.text.osRtxMutexOwnerRestore)
    osRtxPendSV_Handler                      0x080093bd   Thumb Code   196  rtx_system.o(.text.osRtxPendSV_Handler)
    osRtxPostProcess                         0x08009481   Thumb Code    70  rtx_system.o(.text.osRtxPostProcess)
    osRtxThreadDelayTick                     0x08009719   Thumb Code   400  rtx_thread.o(.text.osRtxThreadDelayTick)
    osRtxThreadDispatch                      0x080098a9   Thumb Code   154  rtx_thread.o(.text.osRtxThreadDispatch)
    osRtxThreadListGet                       0x08009a15   Thumb Code    56  rtx_thread.o(.text.osRtxThreadListGet)
    osRtxThreadListPut                       0x08009a4d   Thumb Code   124  rtx_thread.o(.text.osRtxThreadListPut)
    osRtxThreadListRemove                    0x08009ac9   Thumb Code    54  rtx_thread.o(.text.osRtxThreadListRemove)
    osRtxThreadListSort                      0x08009b25   Thumb Code    94  rtx_thread.o(.text.osRtxThreadListSort)
    osRtxThreadReadyPut                      0x08009bed   Thumb Code    32  rtx_thread.o(.text.osRtxThreadReadyPut)
    osRtxThreadRegPtr                        0x08009c0d   Thumb Code    32  rtx_thread.o(.text.osRtxThreadRegPtr)
    osRtxThreadStackCheck                    0x08009c41   Thumb Code    66  rtx_thread.o(.text.osRtxThreadStackCheck)
    osRtxThreadStartup                       0x08009c85   Thumb Code   132  rtx_thread.o(.text.osRtxThreadStartup)
    osRtxThreadSwitch                        0x08009d09   Thumb Code    38  rtx_thread.o(.text.osRtxThreadSwitch)
    osRtxThreadWaitEnter                     0x08009d31   Thumb Code   124  rtx_thread.o(.text.osRtxThreadWaitEnter)
    osRtxThreadWaitExit                      0x08009dad   Thumb Code    76  rtx_thread.o(.text.osRtxThreadWaitExit)
    osRtxTick_Handler                        0x08009df9   Thumb Code   272  rtx_system.o(.text.osRtxTick_Handler)
    osRtxTimerThread                         0x08009f15   Thumb Code   104  rtx_timer.o(.text.osRtxTimerThread)
    osThreadExit                             0x0800a025   Thumb Code    36  rtx_thread.o(.text.osThreadExit)
    osThreadNew                              0x0800a049   Thumb Code   118  rtx_thread.o(.text.osThreadNew)
    osTimerNew                               0x0800a0c1   Thumb Code   148  rtx_timer.o(.text.osTimerNew)
    osTimerStart                             0x0800a155   Thumb Code   104  rtx_timer.o(.text.osTimerStart)
    servoSetPluse                            0x0800a1bd   Thumb Code   742  bsp_servo.o(.text.servoSetPluse)
    stdout_putchar                           0x0800a4a5   Thumb Code    26  bsp_uart.o(.text.stdout_putchar)
    uart3_ReciveNew                          0x0800b699   Thumb Code    12  bsp_uart.o(.text.uart3_ReciveNew)
    uart_ReciveNew                           0x0800b6a5   Thumb Code    24  bsp_uart.o(.text.uart_ReciveNew)
    wheelSpeedPidCalc                        0x0800b6bd   Thumb Code   354  pid.o(.text.wheelSpeedPidCalc)
    HardFault_Handler                        0x0800b839   Thumb Code     0  hardfaulthandler.o(OSKERNEL)
    __0printf                                0x0800b84d   Thumb Code    22  printfa.o(i.__0printf)
    __1printf                                0x0800b84d   Thumb Code     0  printfa.o(i.__0printf)
    __2printf                                0x0800b84d   Thumb Code     0  printfa.o(i.__0printf)
    __c89printf                              0x0800b84d   Thumb Code     0  printfa.o(i.__0printf)
    printf                                   0x0800b84d   Thumb Code     0  printfa.o(i.__0printf)
    __scatterload_copy                       0x0800b86d   Thumb Code    14  handlers.o(i.__scatterload_copy)
    __scatterload_null                       0x0800b87b   Thumb Code     2  handlers.o(i.__scatterload_null)
    __scatterload_zeroinit                   0x0800b87d   Thumb Code    14  handlers.o(i.__scatterload_zeroinit)
    osRtxConfig                              0x0800c140   Data         104  rtx_lib.o(.rodata)
    os_cb_sections                           0x0800c1a8   Data          56  rtx_lib.o(.rodata)
    AHBPrescTable                            0x0800c1e0   Data          16  system_stm32f1xx.o(.rodata.AHBPrescTable)
    APBPrescTable                            0x0800c1f0   Data           8  system_stm32f1xx.o(.rodata.APBPrescTable)
    EventRecorderInfo                        0x0800c1f8   Data          24  eventrecorder.o(.rodata.EventRecorderInfo)
    ThreadControl_Attr                       0x0800c210   Data          36  main.o(.rodata.ThreadControl_Attr)
    ThreadMsgBack_Attr                       0x0800c234   Data          36  main.o(.rodata.ThreadMsgBack_Attr)
    ThreadStart_Attr                         0x0800c258   Data          36  main.o(.rodata.ThreadStart_Attr)
    osRtxUserSVC                             0x0800c27c   Data           4  rtx_lib.o(.rodata.osRtxUserSVC)
    Region$$Table$$Base                      0x0800c428   Number         0  anon$$obj.o(Region$$Table)
    Region$$Table$$Limit                     0x0800c448   Number         0  anon$$obj.o(Region$$Table)
    __stdout                                 0x20000000   Data           4  stdout.o(.data)
    SystemCoreClock                          0x20000004   Data           4  system_stm32f1xx.o(.data.SystemCoreClock)
    osRtxInfo                                0x2000000c   Data         164  rtx_kernel.o(.data.os)
    uwTickPrio                               0x200000b0   Data           4  stm32f1xx_hal.o(.data.uwTickPrio)
    ADC1_Handler                             0x200000c0   Data          48  bsp_adc.o(.bss.ADC1_Handler)
    CanHandle                                0x200000f4   Data          40  bsp_can.o(.bss.CanHandle)
    OLED_GRAM                                0x20000160   Data        1152  bsp_oled.o(.bss.OLED_GRAM)
    ThreadIdStart                            0x200005e4   Data           4  main.o(.bss.ThreadIdStart)
    ThreadIdTaskControl                      0x200005e8   Data           4  main.o(.bss.ThreadIdTaskControl)
    ThreadIdTaskMsgBack                      0x200005ec   Data           4  main.o(.bss.ThreadIdTaskMsgBack)
    _SEGGER_RTT                              0x200005f4   Data         168  segger_rtt.o(.bss._SEGGER_RTT)
    g_EncoderValue                           0x20000ab6   Data          16  bsp_encoder.o(.bss.g_EncoderValue)
    g_TimerHand_Id                           0x2000132c   Data           4  main.o(.bss.g_TimerHand_Id)
    g_WheelSpeed                             0x20001b94   Data           8  bsp_encoder.o(.bss.g_WheelSpeed)
    g_feedback_SteerAngle                    0x20001b9c   Data           2  bsp_servo.o(.bss.g_feedback_SteerAngle)
    g_feedback_SteerDirection                0x20001b9e   Data           1  bsp_servo.o(.bss.g_feedback_SteerDirection)
    g_uartFrame                              0x20001c24   Data          24  bsp_uart.o(.bss.g_uartFrame)
    g_uartState                              0x20001c3c   Data           2  bsp_uart.o(.bss.g_uartState)
    htim3Motor                               0x20001c40   Data          64  bsp_timer.o(.bss.htim3Motor)
    htim4Motor                               0x20001c80   Data          64  bsp_timer.o(.bss.htim4Motor)
    htimEncoder_Motor                        0x20001cc0   Data          64  bsp_timer.o(.bss.htimEncoder_Motor)
    htimServo                                0x20001d00   Data          64  bsp_timer.o(.bss.htimServo)
    htimServo1                               0x20001d40   Data          64  bsp_timer.o(.bss.htimServo1)
    .bss.os.msgqueue.cb$$Base                0x20004a68   Number         0  rtx_lib.o(.bss.os.msgqueue.cb)
    .bss.os.msgqueue.cb$$Limit               0x20004a9c   Number         0  rtx_lib.o(.bss.os.msgqueue.cb)
    .bss.os.thread.cb$$Base                  0x20004aec   Number         0  rtx_lib.o(.bss.os.thread.cb)
    .bss.os.thread.cb$$Limit                 0x20004b74   Number         0  rtx_lib.o(.bss.os.thread.cb)
    __initial_sp                             0x20006008   Data           0  startup_stm32f103xe.o(STACK)



==============================================================================

Memory Map of the image

  Image Entry point : 0x08000131

  Load Region LR_IROM1 (Base: 0x08000000, Size: 0x0000c540, Max: 0x00080000, ABSOLUTE)

    Execution Region ER_IROM1 (Exec base: 0x08000000, Load base: 0x08000000, Size: 0x0000c448, Max: 0x00080000, ABSOLUTE)

    Exec Addr    Load Addr    Size         Type   Attr      Idx    E Section Name        Object

    0x08000000   0x08000000   0x00000130   Data   RO          582    RESET               startup_stm32f103xe.o
    0x08000130   0x08000130   0x00000000   Code   RO         4352  * .ARM.Collect$$$$00000000  mc_w.l(entry.o)
    0x08000130   0x08000130   0x00000004   Code   RO         4425    .ARM.Collect$$$$00000001  mc_w.l(entry2.o)
    0x08000134   0x08000134   0x00000004   Code   RO         4428    .ARM.Collect$$$$00000004  mc_w.l(entry5.o)
    0x08000138   0x08000138   0x00000000   Code   RO         4430    .ARM.Collect$$$$00000008  mc_w.l(entry7b.o)
    0x08000138   0x08000138   0x00000000   Code   RO         4432    .ARM.Collect$$$$0000000A  mc_w.l(entry8b.o)
    0x08000138   0x08000138   0x00000008   Code   RO         4433    .ARM.Collect$$$$0000000B  mc_w.l(entry9a.o)
    0x08000140   0x08000140   0x00000000   Code   RO         4435    .ARM.Collect$$$$0000000D  mc_w.l(entry10a.o)
    0x08000140   0x08000140   0x00000000   Code   RO         4437    .ARM.Collect$$$$0000000F  mc_w.l(entry11a.o)
    0x08000140   0x08000140   0x00000004   Code   RO         4426    .ARM.Collect$$$$00002712  mc_w.l(entry2.o)
    0x08000144   0x08000144   0x00000024   Code   RO          583    .text               startup_stm32f103xe.o
    0x08000168   0x08000168   0x00000094   Code   RO         3169    .text               irq_cm3.o
    0x080001fc   0x080001fc   0x00000008   Code   RO         4361    .text               mc_w.l(siabs.o)
    0x08000204   0x08000204   0x00000024   Code   RO         4365    .text               mc_w.l(memcpya.o)
    0x08000228   0x08000228   0x00000024   Code   RO         4367    .text               mc_w.l(memseta.o)
    0x0800024c   0x0800024c   0x00000012   Code   RO         4371    .text               mc_w.l(strcpy.o)
    0x0800025e   0x0800025e   0x000000b0   Code   RO         4403    .text               mf_w.l(fadd.o)
    0x0800030e   0x0800030e   0x00000064   Code   RO         4405    .text               mf_w.l(fmul.o)
    0x08000372   0x08000372   0x0000007c   Code   RO         4407    .text               mf_w.l(fdiv.o)
    0x080003ee   0x080003ee   0x000000e4   Code   RO         4409    .text               mf_w.l(dmul.o)
    0x080004d2   0x080004d2   0x000000de   Code   RO         4411    .text               mf_w.l(ddiv.o)
    0x080005b0   0x080005b0   0x0000001c   Code   RO         4413    .text               mf_w.l(fcmple.o)
    0x080005cc   0x080005cc   0x0000001c   Code   RO         4415    .text               mf_w.l(fcmpge.o)
    0x080005e8   0x080005e8   0x00000012   Code   RO         4417    .text               mf_w.l(fflti.o)
    0x080005fa   0x080005fa   0x00000022   Code   RO         4419    .text               mf_w.l(dflti.o)
    0x0800061c   0x0800061c   0x00000032   Code   RO         4421    .text               mf_w.l(ffixi.o)
    0x0800064e   0x0800064e   0x0000003e   Code   RO         4423    .text               mf_w.l(dfixi.o)
    0x0800068c   0x0800068c   0x0000002c   Code   RO         4439    .text               mc_w.l(uidiv.o)
    0x080006b8   0x080006b8   0x00000062   Code   RO         4441    .text               mc_w.l(uldiv.o)
    0x0800071a   0x0800071a   0x00000020   Code   RO         4443    .text               mc_w.l(llushr.o)
    0x0800073a   0x0800073a   0x00000000   Code   RO         4445    .text               mc_w.l(iusefp.o)
    0x0800073a   0x0800073a   0x0000006e   Code   RO         4446    .text               mf_w.l(fepilogue.o)
    0x080007a8   0x080007a8   0x000000ba   Code   RO         4448    .text               mf_w.l(depilogue.o)
    0x08000862   0x08000862   0x0000014e   Code   RO         4450    .text               mf_w.l(dadd.o)
    0x080009b0   0x080009b0   0x00000030   Code   RO         4452    .text               mf_w.l(dfixul.o)
    0x080009e0   0x080009e0   0x00000030   Code   RO         4454    .text               mf_w.l(cdrcmple.o)
    0x08000a10   0x08000a10   0x00000024   Code   RO         4456    .text               mc_w.l(init.o)
    0x08000a34   0x08000a34   0x0000001e   Code   RO         4458    .text               mc_w.l(llshl.o)
    0x08000a52   0x08000a52   0x00000024   Code   RO         4460    .text               mc_w.l(llsshr.o)
    0x08000a76   0x08000a76   0x00000002   PAD
    0x08000a78   0x08000a78   0x00000078   Code   RO          654    .text.ADC_ConversionStop_Disable  stm32f1xx_hal_adc.o
    0x08000af0   0x08000af0   0x000000b2   Code   RO          662    .text.ADC_Enable    stm32f1xx_hal_adc.o
    0x08000ba2   0x08000ba2   0x00000002   PAD
    0x08000ba4   0x08000ba4   0x00000002   Code   RO            6    .text.AppObjCreate  main.o
    0x08000ba6   0x08000ba6   0x00000002   PAD
    0x08000ba8   0x08000ba8   0x0000002a   Code   RO           14    .text.AppTaskControl  main.o
    0x08000bd2   0x08000bd2   0x00000002   PAD
    0x08000bd4   0x08000bd4   0x0000006e   Code   RO           10    .text.AppTaskCreate  main.o
    0x08000c42   0x08000c42   0x00000002   PAD
    0x08000c44   0x08000c44   0x00000012   Code   RO           12    .text.AppTaskMsgBack  main.o
    0x08000c56   0x08000c56   0x00000002   PAD
    0x08000c58   0x08000c58   0x0000006a   Code   RO            4    .text.AppTaskStart  main.o
    0x08000cc2   0x08000cc2   0x00000002   PAD
    0x08000cc4   0x08000cc4   0x00000010   Code   RO           16    .text.AppTimerHanle  main.o
    0x08000cd4   0x08000cd4   0x00000192   Code   RO          238    .text.AutoControlCmdParse  bsp_uart.o
    0x08000e66   0x08000e66   0x00000002   PAD
    0x08000e68   0x08000e68   0x00000004   Code   RO          360    .text.BusFault_Handler  stm32f1xx_it.o
    0x08000e6c   0x08000e6c   0x00000096   Code   RO          202    .text.ComToUart     bsp_uart.o
    0x08000f02   0x08000f02   0x00000002   PAD
    0x08000f04   0x08000f04   0x00000002   Code   RO          364    .text.DebugMon_Handler  stm32f1xx_it.o
    0x08000f06   0x08000f06   0x00000002   PAD
    0x08000f08   0x08000f08   0x00000028   Code   RO          106    .text.Error_Handler  bsp.o
    0x08000f30   0x08000f30   0x00000040   Code   RO         4298    .text.EventCheckFilter  eventrecorder.o
    0x08000f70   0x08000f70   0x00000042   Code   RO         4284    .text.EventGetTS    eventrecorder.o
    0x08000fb2   0x08000fb2   0x00000002   PAD
    0x08000fb4   0x08000fb4   0x0000005c   Code   RO         4302    .text.EventRecord2  eventrecorder.o
    0x08001010   0x08001010   0x0000009e   Code   RO         4304    .text.EventRecord4  eventrecorder.o
    0x080010ae   0x080010ae   0x00000002   PAD
    0x080010b0   0x080010b0   0x00000100   Code   RO         4286    .text.EventRecordItem  eventrecorder.o
    0x080011b0   0x080011b0   0x0000000c   Code   RO         4276    .text.EventRecorderTimerGetCount  eventrecorder.o
    0x080011bc   0x080011bc   0x0000001a   Code   RO         3400    .text.EvrRtxDelay   rtx_evr.o
    0x080011d6   0x080011d6   0x00000002   PAD
    0x080011d8   0x080011d8   0x0000001a   Code   RO         3408    .text.EvrRtxDelayCompleted  rtx_evr.o
    0x080011f2   0x080011f2   0x00000002   PAD
    0x080011f4   0x080011f4   0x00000016   Code   RO         3398    .text.EvrRtxDelayError  rtx_evr.o
    0x0800120a   0x0800120a   0x00000002   PAD
    0x0800120c   0x0800120c   0x0000001a   Code   RO         3404    .text.EvrRtxDelayStarted  rtx_evr.o
    0x08001226   0x08001226   0x00000002   PAD
    0x08001228   0x08001228   0x0000001a   Code   RO         3402    .text.EvrRtxDelayUntil  rtx_evr.o
    0x08001242   0x08001242   0x00000002   PAD
    0x08001244   0x08001244   0x0000001a   Code   RO         3406    .text.EvrRtxDelayUntilStarted  rtx_evr.o
    0x0800125e   0x0800125e   0x00000002   PAD
    0x08001260   0x08001260   0x0000001a   Code   RO         3456    .text.EvrRtxEventFlagsWaitTimeout  rtx_evr.o
    0x0800127a   0x0800127a   0x00000002   PAD
    0x0800127c   0x0800127c   0x00000016   Code   RO         3272    .text.EvrRtxKernelError  rtx_evr.o
    0x08001292   0x08001292   0x00000002   PAD
    0x08001294   0x08001294   0x0000001a   Code   RO         3282    .text.EvrRtxKernelGetState  rtx_evr.o
    0x080012ae   0x080012ae   0x00000002   PAD
    0x080012b0   0x080012b0   0x0000001a   Code   RO         3308    .text.EvrRtxKernelGetTickCount  rtx_evr.o
    0x080012ca   0x080012ca   0x00000002   PAD
    0x080012cc   0x080012cc   0x0000001a   Code   RO         3274    .text.EvrRtxKernelInitialize  rtx_evr.o
    0x080012e6   0x080012e6   0x00000002   PAD
    0x080012e8   0x080012e8   0x0000001a   Code   RO         3276    .text.EvrRtxKernelInitialized  rtx_evr.o
    0x08001302   0x08001302   0x00000002   PAD
    0x08001304   0x08001304   0x0000001a   Code   RO         3284    .text.EvrRtxKernelStart  rtx_evr.o
    0x0800131e   0x0800131e   0x00000002   PAD
    0x08001320   0x08001320   0x0000001a   Code   RO         3286    .text.EvrRtxKernelStarted  rtx_evr.o
    0x0800133a   0x0800133a   0x00000002   PAD
    0x0800133c   0x0800133c   0x0000002a   Code   RO         3262    .text.EvrRtxMemoryAlloc  rtx_evr.o
    0x08001366   0x08001366   0x00000002   PAD
    0x08001368   0x08001368   0x0000001c   Code   RO         3268    .text.EvrRtxMemoryBlockAlloc  rtx_evr.o
    0x08001384   0x08001384   0x0000002a   Code   RO         3270    .text.EvrRtxMemoryBlockFree  rtx_evr.o
    0x080013ae   0x080013ae   0x00000002   PAD
    0x080013b0   0x080013b0   0x0000002a   Code   RO         3266    .text.EvrRtxMemoryBlockInit  rtx_evr.o
    0x080013da   0x080013da   0x00000002   PAD
    0x080013dc   0x080013dc   0x0000002a   Code   RO         3264    .text.EvrRtxMemoryFree  rtx_evr.o
    0x08001406   0x08001406   0x00000002   PAD
    0x08001408   0x08001408   0x00000026   Code   RO         3260    .text.EvrRtxMemoryInit  rtx_evr.o
    0x0800142e   0x0800142e   0x00000002   PAD
    0x08001430   0x08001430   0x0000001a   Code   RO         3534    .text.EvrRtxMemoryPoolAllocTimeout  rtx_evr.o
    0x0800144a   0x0800144a   0x00000002   PAD
    0x0800144c   0x0800144c   0x0000001c   Code   RO         3562    .text.EvrRtxMessageQueueCreated  rtx_evr.o
    0x08001468   0x08001468   0x00000018   Code   RO         3558    .text.EvrRtxMessageQueueError  rtx_evr.o
    0x08001480   0x08001480   0x0000002a   Code   RO         3578    .text.EvrRtxMessageQueueGet  rtx_evr.o
    0x080014aa   0x080014aa   0x00000002   PAD
    0x080014ac   0x080014ac   0x0000002a   Code   RO         3580    .text.EvrRtxMessageQueueGetPending  rtx_evr.o
    0x080014d6   0x080014d6   0x00000002   PAD
    0x080014d8   0x080014d8   0x0000001a   Code   RO         3582    .text.EvrRtxMessageQueueGetTimeout  rtx_evr.o
    0x080014f2   0x080014f2   0x00000002   PAD
    0x080014f4   0x080014f4   0x0000001c   Code   RO         3572    .text.EvrRtxMessageQueueInsertPending  rtx_evr.o
    0x08001510   0x08001510   0x0000001c   Code   RO         3574    .text.EvrRtxMessageQueueInserted  rtx_evr.o
    0x0800152c   0x0800152c   0x0000002a   Code   RO         3560    .text.EvrRtxMessageQueueNew  rtx_evr.o
    0x08001556   0x08001556   0x00000002   PAD
    0x08001558   0x08001558   0x0000001c   Code   RO         3576    .text.EvrRtxMessageQueueNotInserted  rtx_evr.o
    0x08001574   0x08001574   0x0000001c   Code   RO         3586    .text.EvrRtxMessageQueueNotRetrieved  rtx_evr.o
    0x08001590   0x08001590   0x00000034   Code   RO         3566    .text.EvrRtxMessageQueuePut  rtx_evr.o
    0x080015c4   0x080015c4   0x0000002a   Code   RO         3568    .text.EvrRtxMessageQueuePutPending  rtx_evr.o
    0x080015ee   0x080015ee   0x00000002   PAD
    0x080015f0   0x080015f0   0x0000001a   Code   RO         3570    .text.EvrRtxMessageQueuePutTimeout  rtx_evr.o
    0x0800160a   0x0800160a   0x00000002   PAD
    0x0800160c   0x0800160c   0x0000001c   Code   RO         3584    .text.EvrRtxMessageQueueRetrieved  rtx_evr.o
    0x08001628   0x08001628   0x0000001a   Code   RO         3478    .text.EvrRtxMutexAcquireTimeout  rtx_evr.o
    0x08001642   0x08001642   0x00000002   PAD
    0x08001644   0x08001644   0x0000001c   Code   RO         3480    .text.EvrRtxMutexAcquired  rtx_evr.o
    0x08001660   0x08001660   0x0000001c   Code   RO         3486    .text.EvrRtxMutexReleased  rtx_evr.o
    0x0800167c   0x0800167c   0x0000001a   Code   RO         3506    .text.EvrRtxSemaphoreAcquireTimeout  rtx_evr.o
    0x08001696   0x08001696   0x00000002   PAD
    0x08001698   0x08001698   0x0000001c   Code   RO         3358    .text.EvrRtxThreadBlocked  rtx_evr.o
    0x080016b4   0x080016b4   0x0000003a   Code   RO         3320    .text.EvrRtxThreadCreated  rtx_evr.o
    0x080016ee   0x080016ee   0x00000002   PAD
    0x080016f0   0x080016f0   0x0000001a   Code   RO         3370    .text.EvrRtxThreadDestroyed  rtx_evr.o
    0x0800170a   0x0800170a   0x00000002   PAD
    0x0800170c   0x0800170c   0x00000018   Code   RO         3316    .text.EvrRtxThreadError  rtx_evr.o
    0x08001724   0x08001724   0x0000001a   Code   RO         3366    .text.EvrRtxThreadExit  rtx_evr.o
    0x0800173e   0x0800173e   0x00000002   PAD
    0x08001740   0x08001740   0x0000002a   Code   RO         3394    .text.EvrRtxThreadFlagsWaitCompleted  rtx_evr.o
    0x0800176a   0x0800176a   0x00000002   PAD
    0x0800176c   0x0800176c   0x0000001a   Code   RO         3392    .text.EvrRtxThreadFlagsWaitTimeout  rtx_evr.o
    0x08001786   0x08001786   0x00000002   PAD
    0x08001788   0x08001788   0x0000001a   Code   RO         3356    .text.EvrRtxThreadJoined  rtx_evr.o
    0x080017a2   0x080017a2   0x00000002   PAD
    0x080017a4   0x080017a4   0x0000002a   Code   RO         3318    .text.EvrRtxThreadNew  rtx_evr.o
    0x080017ce   0x080017ce   0x00000002   PAD
    0x080017d0   0x080017d0   0x0000001a   Code   RO         3362    .text.EvrRtxThreadPreempted  rtx_evr.o
    0x080017ea   0x080017ea   0x00000002   PAD
    0x080017ec   0x080017ec   0x0000001a   Code   RO         3364    .text.EvrRtxThreadSwitched  rtx_evr.o
    0x08001806   0x08001806   0x00000002   PAD
    0x08001808   0x08001808   0x0000001c   Code   RO         3360    .text.EvrRtxThreadUnblocked  rtx_evr.o
    0x08001824   0x08001824   0x0000001c   Code   RO         3412    .text.EvrRtxTimerCallback  rtx_evr.o
    0x08001840   0x08001840   0x0000001c   Code   RO         3416    .text.EvrRtxTimerCreated  rtx_evr.o
    0x0800185c   0x0800185c   0x00000018   Code   RO         3410    .text.EvrRtxTimerError  rtx_evr.o
    0x08001874   0x08001874   0x00000034   Code   RO         3414    .text.EvrRtxTimerNew  rtx_evr.o
    0x080018a8   0x080018a8   0x0000001c   Code   RO         3420    .text.EvrRtxTimerStart  rtx_evr.o
    0x080018c4   0x080018c4   0x0000001a   Code   RO         3422    .text.EvrRtxTimerStarted  rtx_evr.o
    0x080018de   0x080018de   0x00000002   PAD
    0x080018e0   0x080018e0   0x00000012   Code   RO         4300    .text.GetContext    eventrecorder.o
    0x080018f2   0x080018f2   0x00000002   PAD
    0x080018f4   0x080018f4   0x00000012   Code   RO         4314    .text.GetRecordIndex  eventrecorder.o
    0x08001906   0x08001906   0x00000002   PAD
    0x08001908   0x08001908   0x00000088   Code   RO          422    .text.GetSpeedInfo  bsp_encoder.o
    0x08001990   0x08001990   0x0000016a   Code   RO          711    .text.HAL_ADCEx_Calibration_Start  stm32f1xx_hal_adc_ex.o
    0x08001afa   0x08001afa   0x00000002   PAD
    0x08001afc   0x08001afc   0x0000025c   Code   RO          650    .text.HAL_ADC_Init  stm32f1xx_hal_adc.o
    0x08001d58   0x08001d58   0x00000060   Code   RO          475    .text.HAL_ADC_MspInit  bsp_adc.o
    0x08001db8   0x08001db8   0x00000052   Code   RO          778    .text.HAL_CAN_ActivateNotification  stm32f1xx_hal_can.o
    0x08001e0a   0x08001e0a   0x00000002   PAD
    0x08001e0c   0x08001e0c   0x0000018a   Code   RO          754    .text.HAL_CAN_ConfigFilter  stm32f1xx_hal_can.o
    0x08001f96   0x08001f96   0x00000002   PAD
    0x08001f98   0x08001f98   0x00000008   Code   RO          808    .text.HAL_CAN_ErrorCallback  stm32f1xx_hal_can.o
    0x08001fa0   0x08001fa0   0x00000404   Code   RO          782    .text.HAL_CAN_IRQHandler  stm32f1xx_hal_can.o
    0x080023a4   0x080023a4   0x000001e4   Code   RO          744    .text.HAL_CAN_Init  stm32f1xx_hal_can.o
    0x08002588   0x08002588   0x00000008   Code   RO          746    .text.HAL_CAN_MspInit  stm32f1xx_hal_can.o
    0x08002590   0x08002590   0x00000008   Code   RO          796    .text.HAL_CAN_RxFifo0FullCallback  stm32f1xx_hal_can.o
    0x08002598   0x08002598   0x0000001c   Code   RO          567    .text.HAL_CAN_RxFifo0MsgPendingCallback  bsp_can.o
    0x080025b4   0x080025b4   0x00000008   Code   RO          800    .text.HAL_CAN_RxFifo1FullCallback  stm32f1xx_hal_can.o
    0x080025bc   0x080025bc   0x00000008   Code   RO          802    .text.HAL_CAN_RxFifo1MsgPendingCallback  stm32f1xx_hal_can.o
    0x080025c4   0x080025c4   0x00000008   Code   RO          804    .text.HAL_CAN_SleepCallback  stm32f1xx_hal_can.o
    0x080025cc   0x080025cc   0x0000008c   Code   RO          756    .text.HAL_CAN_Start  stm32f1xx_hal_can.o
    0x08002658   0x08002658   0x00000008   Code   RO          786    .text.HAL_CAN_TxMailbox0AbortCallback  stm32f1xx_hal_can.o
    0x08002660   0x08002660   0x00000008   Code   RO          784    .text.HAL_CAN_TxMailbox0CompleteCallback  stm32f1xx_hal_can.o
    0x08002668   0x08002668   0x00000008   Code   RO          790    .text.HAL_CAN_TxMailbox1AbortCallback  stm32f1xx_hal_can.o
    0x08002670   0x08002670   0x00000008   Code   RO          788    .text.HAL_CAN_TxMailbox1CompleteCallback  stm32f1xx_hal_can.o
    0x08002678   0x08002678   0x00000008   Code   RO          794    .text.HAL_CAN_TxMailbox2AbortCallback  stm32f1xx_hal_can.o
    0x08002680   0x08002680   0x00000008   Code   RO          792    .text.HAL_CAN_TxMailbox2CompleteCallback  stm32f1xx_hal_can.o
    0x08002688   0x08002688   0x00000008   Code   RO          806    .text.HAL_CAN_WakeUpFromRxMsgCallback  stm32f1xx_hal_can.o
    0x08002690   0x08002690   0x00000366   Code   RO         1122    .text.HAL_GPIO_Init  stm32f1xx_hal_gpio.o
    0x080029f6   0x080029f6   0x00000002   PAD
    0x080029f8   0x080029f8   0x00000030   Code   RO         1126    .text.HAL_GPIO_ReadPin  stm32f1xx_hal_gpio.o
    0x08002a28   0x08002a28   0x00000034   Code   RO         1128    .text.HAL_GPIO_WritePin  stm32f1xx_hal_gpio.o
    0x08002a5c   0x08002a5c   0x00000068   Code   RO          385    .text.HAL_GetTick   stm32f1xx_hal_timebase_tim.o
    0x08002ac4   0x08002ac4   0x0000002e   Code   RO          590    .text.HAL_Init      stm32f1xx_hal.o
    0x08002af2   0x08002af2   0x00000002   PAD
    0x08002af4   0x08002af4   0x0000000a   Code   RO          383    .text.HAL_InitTick  stm32f1xx_hal_timebase_tim.o
    0x08002afe   0x08002afe   0x00000002   PAD
    0x08002b00   0x08002b00   0x00000024   Code   RO          373    .text.HAL_MspInit   stm32f1xx_hal_msp.o
    0x08002b24   0x08002b24   0x00000018   Code   RO          836    .text.HAL_NVIC_EnableIRQ  stm32f1xx_hal_cortex.o
    0x08002b3c   0x08002b3c   0x00000040   Code   RO          828    .text.HAL_NVIC_SetPriority  stm32f1xx_hal_cortex.o
    0x08002b7c   0x08002b7c   0x00000010   Code   RO          824    .text.HAL_NVIC_SetPriorityGrouping  stm32f1xx_hal_cortex.o
    0x08002b8c   0x08002b8c   0x000001da   Code   RO         1771    .text.HAL_RCCEx_GetPeriphCLKFreq  stm32f1xx_hal_rcc_ex.o
    0x08002d66   0x08002d66   0x00000002   PAD
    0x08002d68   0x08002d68   0x000001cc   Code   RO         1767    .text.HAL_RCCEx_PeriphCLKConfig  stm32f1xx_hal_rcc_ex.o
    0x08002f34   0x08002f34   0x00000258   Code   RO         1734    .text.HAL_RCC_ClockConfig  stm32f1xx_hal_rcc.o
    0x0800318c   0x0800318c   0x0000000c   Code   RO         1744    .text.HAL_RCC_GetHCLKFreq  stm32f1xx_hal_rcc.o
    0x08003198   0x08003198   0x00000022   Code   RO         1746    .text.HAL_RCC_GetPCLK1Freq  stm32f1xx_hal_rcc.o
    0x080031ba   0x080031ba   0x00000002   PAD
    0x080031bc   0x080031bc   0x00000022   Code   RO         1748    .text.HAL_RCC_GetPCLK2Freq  stm32f1xx_hal_rcc.o
    0x080031de   0x080031de   0x00000002   PAD
    0x080031e0   0x080031e0   0x000000e8   Code   RO         1736    .text.HAL_RCC_GetSysClockFreq  stm32f1xx_hal_rcc.o
    0x080032c8   0x080032c8   0x0000068a   Code   RO         1730    .text.HAL_RCC_OscConfig  stm32f1xx_hal_rcc.o
    0x08003952   0x08003952   0x00000002   PAD
    0x08003954   0x08003954   0x00000008   Code   RO         2531    .text.HAL_TIMEx_BreakCallback  stm32f1xx_hal_tim_ex.o
    0x0800395c   0x0800395c   0x00000008   Code   RO         2527    .text.HAL_TIMEx_CommutCallback  stm32f1xx_hal_tim_ex.o
    0x08003964   0x08003964   0x00000098   Code   RO         2521    .text.HAL_TIMEx_MasterConfigSynchronization  stm32f1xx_hal_tim_ex.o
    0x080039fc   0x080039fc   0x00000062   Code   RO         2222    .text.HAL_TIM_Base_Init  stm32f1xx_hal_tim.o
    0x08003a5e   0x08003a5e   0x00000002   PAD
    0x08003a60   0x08003a60   0x0000006e   Code   RO          291    .text.HAL_TIM_Base_MspInit  bsp_timer.o
    0x08003ace   0x08003ace   0x00000002   PAD
    0x08003ad0   0x08003ad0   0x00000038   Code   RO         2236    .text.HAL_TIM_Base_Start_IT  stm32f1xx_hal_tim.o
    0x08003b08   0x08003b08   0x00000196   Code   RO         2410    .text.HAL_TIM_ConfigClockSource  stm32f1xx_hal_tim.o
    0x08003c9e   0x08003c9e   0x00000002   PAD
    0x08003ca0   0x08003ca0   0x000001dc   Code   RO          428    .text.HAL_TIM_IC_CaptureCallback  bsp_encoder.o
    0x08003e7c   0x08003e7c   0x00000148   Code   RO         2378    .text.HAL_TIM_IC_ConfigChannel  stm32f1xx_hal_tim.o
    0x08003fc4   0x08003fc4   0x00000062   Code   RO         2296    .text.HAL_TIM_IC_Init  stm32f1xx_hal_tim.o
    0x08004026   0x08004026   0x00000002   PAD
    0x08004028   0x08004028   0x00000008   Code   RO         2298    .text.HAL_TIM_IC_MspInit  stm32f1xx_hal_tim.o
    0x08004030   0x08004030   0x00000092   Code   RO         2308    .text.HAL_TIM_IC_Start_IT  stm32f1xx_hal_tim.o
    0x080040c2   0x080040c2   0x00000002   PAD
    0x080040c4   0x080040c4   0x00000282   Code   RO         2356    .text.HAL_TIM_IRQHandler  stm32f1xx_hal_tim.o
    0x08004346   0x08004346   0x00000002   PAD
    0x08004348   0x08004348   0x000001ae   Code   RO          279    .text.HAL_TIM_MspInit  bsp_timer.o
    0x080044f6   0x080044f6   0x00000002   PAD
    0x080044f8   0x080044f8   0x00000008   Code   RO         2360    .text.HAL_TIM_OC_DelayElapsedCallback  stm32f1xx_hal_tim.o
    0x08004500   0x08004500   0x00000144   Code   RO         2388    .text.HAL_TIM_PWM_ConfigChannel  stm32f1xx_hal_tim.o
    0x08004644   0x08004644   0x00000008   Code   RO         2362    .text.HAL_TIM_PWM_PulseFinishedCallback  stm32f1xx_hal_tim.o
    0x0800464c   0x0800464c   0x00000084   Code   RO         2284    .text.HAL_TIM_PWM_Start  stm32f1xx_hal_tim.o
    0x080046d0   0x080046d0   0x0000007a   Code   RO          426    .text.HAL_TIM_PeriodElapsedCallback  bsp_encoder.o
    0x0800474a   0x0800474a   0x00000002   PAD
    0x0800474c   0x0800474c   0x00000008   Code   RO         2366    .text.HAL_TIM_TriggerCallback  stm32f1xx_hal_tim.o
    0x08004754   0x08004754   0x000000a0   Code   RO         2542    .text.HAL_UART_Init  stm32f1xx_hal_uart.o
    0x080047f4   0x080047f4   0x00000008   Code   RO         2544    .text.HAL_UART_MspInit  stm32f1xx_hal_uart.o
    0x080047fc   0x080047fc   0x00000116   Code   RO         3057    .text.HardFaultHandler  segger_hardfaulthandler.o
    0x08004912   0x08004912   0x00000002   PAD
    0x08004914   0x08004914   0x00000012   Code   RO         4308    .text.IncrementOverflowTS  eventrecorder.o
    0x08004926   0x08004926   0x00000002   PAD
    0x08004928   0x08004928   0x00000012   Code   RO         4322    .text.IncrementRecordsDumped  eventrecorder.o
    0x0800493a   0x0800493a   0x00000002   PAD
    0x0800493c   0x0800493c   0x00000012   Code   RO         4320    .text.IncrementRecordsWritten  eventrecorder.o
    0x0800494e   0x0800494e   0x00000002   PAD
    0x08004950   0x08004950   0x000002b6   Code   RO          200    .text.InitHardUart  bsp_uart.o
    0x08004c06   0x08004c06   0x00000002   PAD
    0x08004c08   0x08004c08   0x00000030   Code   RO         3178    .text.IsIrqMasked   rtx_delay.o
    0x08004c38   0x08004c38   0x00000030   Code   RO         3617    .text.IsIrqMasked   rtx_kernel.o
    0x08004c68   0x08004c68   0x00000030   Code   RO         3806    .text.IsIrqMasked   rtx_msgqueue.o
    0x08004c98   0x08004c98   0x00000030   Code   RO         4078    .text.IsIrqMasked   rtx_thread.o
    0x08004cc8   0x08004cc8   0x00000030   Code   RO         4207    .text.IsIrqMasked   rtx_timer.o
    0x08004cf8   0x08004cf8   0x00000014   Code   RO         3176    .text.IsIrqMode     rtx_delay.o
    0x08004d0c   0x08004d0c   0x00000014   Code   RO         3615    .text.IsIrqMode     rtx_kernel.o
    0x08004d20   0x08004d20   0x00000014   Code   RO         3804    .text.IsIrqMode     rtx_msgqueue.o
    0x08004d34   0x08004d34   0x00000014   Code   RO         4076    .text.IsIrqMode     rtx_thread.o
    0x08004d48   0x08004d48   0x00000014   Code   RO         4205    .text.IsIrqMode     rtx_timer.o
    0x08004d5c   0x08004d5c   0x00000016   Code   RO         3621    .text.IsPrivileged  rtx_kernel.o
    0x08004d72   0x08004d72   0x00000002   PAD
    0x08004d74   0x08004d74   0x00000036   Code   RO         4316    .text.LockRecord    eventrecorder.o
    0x08004daa   0x08004daa   0x00000002   PAD
    0x08004dac   0x08004dac   0x0000005e   Code   RO          397    .text.MPU_IIC_Init  mpuiic.o
    0x08004e0a   0x08004e0a   0x00000002   PAD
    0x08004e0c   0x08004e0c   0x00000018   Code   RO         3716    .text.MemBlockPtr   rtx_memory.o
    0x08004e24   0x08004e24   0x0000000a   Code   RO         3714    .text.MemHeadPtr    rtx_memory.o
    0x08004e2e   0x08004e2e   0x00000002   PAD
    0x08004e30   0x08004e30   0x00000004   Code   RO          358    .text.MemManage_Handler  stm32f1xx_it.o
    0x08004e34   0x08004e34   0x00000058   Code   RO         3858    .text.MessageQueueGet  rtx_msgqueue.o
    0x08004e8c   0x08004e8c   0x000000b6   Code   RO         3846    .text.MessageQueuePut  rtx_msgqueue.o
    0x08004f42   0x08004f42   0x00000002   PAD
    0x08004f44   0x08004f44   0x00000046   Code   RO         3842    .text.MessageQueueRemove  rtx_msgqueue.o
    0x08004f8a   0x08004f8a   0x00000002   PAD
    0x08004f8c   0x08004f8c   0x00000052   Code   RO          458    .text.MotoASetSpeed  bsp_motor.o
    0x08004fde   0x08004fde   0x00000002   PAD
    0x08004fe0   0x08004fe0   0x00000052   Code   RO          460    .text.MotoBSetSpeed  bsp_motor.o
    0x08005032   0x08005032   0x00000002   PAD
    0x08005034   0x08005034   0x00000052   Code   RO          462    .text.MotoCSetSpeed  bsp_motor.o
    0x08005086   0x08005086   0x00000002   PAD
    0x08005088   0x08005088   0x00000052   Code   RO          464    .text.MotoDSetSpeed  bsp_motor.o
    0x080050da   0x080050da   0x00000002   PAD
    0x080050dc   0x080050dc   0x00000026   Code   RO          444    .text.MotorA_Backward  bsp_motor.o
    0x08005102   0x08005102   0x00000002   PAD
    0x08005104   0x08005104   0x0000002a   Code   RO          442    .text.MotorA_Forward  bsp_motor.o
    0x0800512e   0x0800512e   0x00000002   PAD
    0x08005130   0x08005130   0x00000024   Code   RO          448    .text.MotorB_Backward  bsp_motor.o
    0x08005154   0x08005154   0x00000024   Code   RO          446    .text.MotorB_Forward  bsp_motor.o
    0x08005178   0x08005178   0x00000028   Code   RO          452    .text.MotorC_Backward  bsp_motor.o
    0x080051a0   0x080051a0   0x00000028   Code   RO          450    .text.MotorC_Forward  bsp_motor.o
    0x080051c8   0x080051c8   0x0000046a   Code   RO           64    .text.MotorControl  motor.o
    0x08005632   0x08005632   0x00000002   PAD
    0x08005634   0x08005634   0x00000028   Code   RO          456    .text.MotorD_Backward  bsp_motor.o
    0x0800565c   0x0800565c   0x00000028   Code   RO          454    .text.MotorD_Forward  bsp_motor.o
    0x08005684   0x08005684   0x00000002   Code   RO          356    .text.NMI_Handler   stm32f1xx_it.o
    0x08005686   0x08005686   0x00000002   PAD
    0x08005688   0x08005688   0x0000006e   Code   RO          834    .text.NVIC_EncodePriority  stm32f1xx_hal_cortex.o
    0x080056f6   0x080056f6   0x00000002   PAD
    0x080056f8   0x080056f8   0x00000064   Code   RO          521    .text.OLED_Clear    bsp_oled.o
    0x0800575c   0x0800575c   0x000000a6   Code   RO          519    .text.OLED_Refresh  bsp_oled.o
    0x08005802   0x08005802   0x00000002   PAD
    0x08005804   0x08005804   0x0000005a   Code   RO          509    .text.OLED_WR_Byte  bsp_oled.o
    0x0800585e   0x0800585e   0x00000002   PAD
    0x08005860   0x08005860   0x0000000c   Code   RO         4252    .text.OS_Tick_AcknowledgeIRQ  os_systick.o
    0x0800586c   0x0800586c   0x0000003e   Code   RO         4248    .text.OS_Tick_Enable  os_systick.o
    0x080058aa   0x080058aa   0x00000002   PAD
    0x080058ac   0x080058ac   0x00000006   Code   RO         4254    .text.OS_Tick_GetIRQn  os_systick.o
    0x080058b2   0x080058b2   0x00000002   PAD
    0x080058b4   0x080058b4   0x00000080   Code   RO         4246    .text.OS_Tick_Setup  os_systick.o
    0x08005934   0x08005934   0x00000034   Code   RO           51    .text.PID_Param_SetZero  pid.o
    0x08005968   0x08005968   0x00000094   Code   RO          329    .text.PS2_init      bsp_ps2.o
    0x080059fc   0x080059fc   0x0000003a   Code   RO         1732    .text.RCC_Delay     stm32f1xx_hal_rcc.o
    0x08005a36   0x08005a36   0x00000002   PAD
    0x08005a38   0x08005a38   0x000000d0   Code   RO         3109    .text.SEGGER_RTT_ConfigDownBuffer  segger_rtt.o
    0x08005b08   0x08005b08   0x000000d0   Code   RO         3107    .text.SEGGER_RTT_ConfigUpBuffer  segger_rtt.o
    0x08005bd8   0x08005bd8   0x0000004a   Code   RO         3085    .text.SEGGER_RTT_Write  segger_rtt.o
    0x08005c22   0x08005c22   0x00000002   PAD
    0x08005c24   0x08005c24   0x000000b2   Code   RO         3077    .text.SEGGER_RTT_WriteNoLock  segger_rtt.o
    0x08005cd6   0x08005cd6   0x00000002   PAD
    0x08005cd8   0x08005cd8   0x0000004e   Code   RO         3663    .text.SVC_Setup     rtx_kernel.o
    0x08005d26   0x08005d26   0x00000002   PAD
    0x08005d28   0x08005d28   0x00000010   Code   RO         3999    .text.SetPendSV     rtx_system.o
    0x08005d38   0x08005d38   0x0000000e   Code   RO         4046    .text.StackOffsetR0  rtx_thread.o
    0x08005d46   0x08005d46   0x00000002   PAD
    0x08005d48   0x08005d48   0x0000008a   Code   RO          102    .text.SystemClock_Config  bsp.o
    0x08005dd2   0x08005dd2   0x00000002   PAD
    0x08005dd4   0x08005dd4   0x00000060   Code   RO         3040    .text.SystemInit    system_stm32f1xx.o
    0x08005e34   0x08005e34   0x00000012   Code   RO          100    .text.System_Init   bsp.o
    0x08005e46   0x08005e46   0x00000002   PAD
    0x08005e48   0x08005e48   0x00000010   Code   RO          424    .text.TIM5_IRQHandler  bsp_encoder.o
    0x08005e58   0x08005e58   0x00000140   Code   RO         2226    .text.TIM_Base_SetConfig  stm32f1xx_hal_tim.o
    0x08005f98   0x08005f98   0x00000038   Code   RO         2260    .text.TIM_CCxChannelCmd  stm32f1xx_hal_tim.o
    0x08005fd0   0x08005fd0   0x00000034   Code   RO         2408    .text.TIM_ETR_SetConfig  stm32f1xx_hal_tim.o
    0x08006004   0x08006004   0x0000002a   Code   RO         2414    .text.TIM_ITRx_SetConfig  stm32f1xx_hal_tim.o
    0x0800602e   0x0800602e   0x00000002   PAD
    0x08006030   0x08006030   0x000000ee   Code   RO         2370    .text.TIM_OC1_SetConfig  stm32f1xx_hal_tim.o
    0x0800611e   0x0800611e   0x00000002   PAD
    0x08006120   0x08006120   0x000000f8   Code   RO         2372    .text.TIM_OC2_SetConfig  stm32f1xx_hal_tim.o
    0x08006218   0x08006218   0x000000f6   Code   RO         2374    .text.TIM_OC3_SetConfig  stm32f1xx_hal_tim.o
    0x0800630e   0x0800630e   0x00000002   PAD
    0x08006310   0x08006310   0x000000a6   Code   RO         2376    .text.TIM_OC4_SetConfig  stm32f1xx_hal_tim.o
    0x080063b6   0x080063b6   0x00000002   PAD
    0x080063b8   0x080063b8   0x00000050   Code   RO         2412    .text.TIM_TI1_ConfigInputStage  stm32f1xx_hal_tim.o
    0x08006408   0x08006408   0x000000f2   Code   RO         2380    .text.TIM_TI1_SetConfig  stm32f1xx_hal_tim.o
    0x080064fa   0x080064fa   0x00000002   PAD
    0x080064fc   0x080064fc   0x00000052   Code   RO         2416    .text.TIM_TI2_ConfigInputStage  stm32f1xx_hal_tim.o
    0x0800654e   0x0800654e   0x00000002   PAD
    0x08006550   0x08006550   0x0000006c   Code   RO         2382    .text.TIM_TI2_SetConfig  stm32f1xx_hal_tim.o
    0x080065bc   0x080065bc   0x0000006a   Code   RO         2384    .text.TIM_TI3_SetConfig  stm32f1xx_hal_tim.o
    0x08006626   0x08006626   0x00000002   PAD
    0x08006628   0x08006628   0x0000006c   Code   RO         2386    .text.TIM_TI4_SetConfig  stm32f1xx_hal_tim.o
    0x08006694   0x08006694   0x00000082   Code   RO         4128    .text.ThreadFlagsCheck  rtx_thread.o
    0x08006716   0x08006716   0x00000002   PAD
    0x08006718   0x08006718   0x000000a6   Code   RO         4221    .text.TimerInsert   rtx_timer.o
    0x080067be   0x080067be   0x00000002   PAD
    0x080067c0   0x080067c0   0x0000004c   Code   RO         4231    .text.TimerRemove   rtx_timer.o
    0x0800680c   0x0800680c   0x0000002a   Code   RO         4219    .text.TimerUnlink   rtx_timer.o
    0x08006836   0x08006836   0x00000002   PAD
    0x08006838   0x08006838   0x00000010   Code   RO          250    .text.UART5_IRQHandler  bsp_uart.o
    0x08006848   0x08006848   0x0000010c   Code   RO         2546    .text.UART_SetConfig  stm32f1xx_hal_uart.o
    0x08006954   0x08006954   0x00000010   Code   RO          244    .text.USART1_IRQHandler  bsp_uart.o
    0x08006964   0x08006964   0x00000010   Code   RO          248    .text.USART3_IRQHandler  bsp_uart.o
    0x08006974   0x08006974   0x00000010   Code   RO          563    .text.USB_LP_CAN1_RX0_IRQHandler  bsp_can.o
    0x08006984   0x08006984   0x00000088   Code   RO          214    .text.UartGetChar   bsp_uart.o
    0x08006a0c   0x08006a0c   0x00000190   Code   RO          246    .text.UartIRQ       bsp_uart.o
    0x08006b9c   0x08006b9c   0x000000da   Code   RO          198    .text.UartVarInit   bsp_uart.o
    0x08006c76   0x08006c76   0x00000002   PAD
    0x08006c78   0x08006c78   0x00000032   Code   RO         4318    .text.UnlockRecord  eventrecorder.o
    0x08006caa   0x08006caa   0x00000002   PAD
    0x08006cac   0x08006cac   0x0000001a   Code   RO         4306    .text.UpdateTS      eventrecorder.o
    0x08006cc6   0x08006cc6   0x00000002   PAD
    0x08006cc8   0x08006cc8   0x00000004   Code   RO          362    .text.UsageFault_Handler  stm32f1xx_it.o
    0x08006ccc   0x08006ccc   0x00000096   Code   RO         3069    .text._DoInit       segger_rtt.o
    0x08006d62   0x08006d62   0x00000002   PAD
    0x08006d64   0x08006d64   0x0000003e   Code   RO         3079    .text._GetAvailWriteSpace  segger_rtt.o
    0x08006da2   0x08006da2   0x00000002   PAD
    0x08006da4   0x08006da4   0x000000dc   Code   RO         3083    .text._WriteBlocking  segger_rtt.o
    0x08006e80   0x08006e80   0x00000080   Code   RO         3081    .text._WriteNoCheck  segger_rtt.o
    0x08006f00   0x08006f00   0x00000034   Code   RO          838    .text.__NVIC_EnableIRQ  stm32f1xx_hal_cortex.o
    0x08006f34   0x08006f34   0x00000010   Code   RO          830    .text.__NVIC_GetPriorityGrouping  stm32f1xx_hal_cortex.o
    0x08006f44   0x08006f44   0x00000010   Code   RO         3665    .text.__NVIC_GetPriorityGrouping  rtx_kernel.o
    0x08006f54   0x08006f54   0x00000044   Code   RO          832    .text.__NVIC_SetPriority  stm32f1xx_hal_cortex.o
    0x08006f98   0x08006f98   0x0000003c   Code   RO          826    .text.__NVIC_SetPriorityGrouping  stm32f1xx_hal_cortex.o
    0x08006fd4   0x08006fd4   0x00000038   Code   RO         4130    .text.atomic_chk32_all  rtx_thread.o
    0x0800700c   0x0800700c   0x00000034   Code   RO         4132    .text.atomic_chk32_any  rtx_thread.o
    0x08007040   0x08007040   0x0000002c   Code   RO         4001    .text.atomic_dec16_nz  rtx_system.o
    0x0800706c   0x0800706c   0x00000020   Code   RO         3741    .text.atomic_dec32  rtx_mempool.o
    0x0800708c   0x0800708c   0x00000028   Code   RO         3860    .text.atomic_dec32_nz  rtx_msgqueue.o
    0x080070b4   0x080070b4   0x00000036   Code   RO         4003    .text.atomic_inc16_lim  rtx_system.o
    0x080070ea   0x080070ea   0x00000002   PAD
    0x080070ec   0x080070ec   0x0000003a   Code   RO         4007    .text.atomic_inc16_lt  rtx_system.o
    0x08007126   0x08007126   0x00000002   PAD
    0x08007128   0x08007128   0x00000020   Code   RO         3735    .text.atomic_inc32  rtx_mempool.o
    0x08007148   0x08007148   0x00000020   Code   RO         3848    .text.atomic_inc32  rtx_msgqueue.o
    0x08007168   0x08007168   0x00000020   Code   RO         4312    .text.atomic_inc32  eventrecorder.o
    0x08007188   0x08007188   0x00000024   Code   RO         4324    .text.atomic_inc8   eventrecorder.o
    0x080071ac   0x080071ac   0x00000028   Code   RO         3733    .text.atomic_link_get  rtx_mempool.o
    0x080071d4   0x080071d4   0x00000030   Code   RO         3739    .text.atomic_link_put  rtx_mempool.o
    0x08007204   0x08007204   0x0000002c   Code   RO         3862    .text.atomic_wr8    rtx_msgqueue.o
    0x08007230   0x08007230   0x00000020   Code   RO         4310    .text.atomic_xch32  eventrecorder.o
    0x08007250   0x08007250   0x00000036   Code   RO           91    .text.auto_ControlCarStop  autocontrol.o
    0x08007286   0x08007286   0x00000002   PAD
    0x08007288   0x08007288   0x000000a0   Code   RO           80    .text.auto_epsSteerControl  steercontrol.o
    0x08007328   0x08007328   0x0000022a   Code   RO            8    .text.ble_control   main.o
    0x08007552   0x08007552   0x00000002   PAD
    0x08007554   0x08007554   0x00000054   Code   RO          187    .text.bsp_DelayUS   bsp_dwt.o
    0x080075a8   0x080075a8   0x00000044   Code   RO          104    .text.bsp_Init      bsp.o
    0x080075ec   0x080075ec   0x00000054   Code   RO          473    .text.bsp_InitAdc   bsp_adc.o
    0x08007640   0x08007640   0x000001b4   Code   RO          561    .text.bsp_InitCan   bsp_can.o
    0x080077f4   0x080077f4   0x0000002e   Code   RO          183    .text.bsp_InitDWT   bsp_dwt.o
    0x08007822   0x08007822   0x00000002   PAD
    0x08007824   0x08007824   0x0000008c   Code   RO          420    .text.bsp_InitEncoder  bsp_encoder.o
    0x080078b0   0x080078b0   0x0000000c   Code   RO          143    .text.bsp_InitKey   bsp_key.o
    0x080078bc   0x080078bc   0x00000092   Code   RO          147    .text.bsp_InitKeyHard  bsp_key.o
    0x0800794e   0x0800794e   0x00000002   PAD
    0x08007950   0x08007950   0x000000a2   Code   RO          145    .text.bsp_InitKeyVar  bsp_key.o
    0x080079f2   0x080079f2   0x00000002   PAD
    0x080079f4   0x080079f4   0x000000ce   Code   RO          126    .text.bsp_InitLed   bsp_led.o
    0x08007ac2   0x08007ac2   0x00000002   PAD
    0x08007ac4   0x08007ac4   0x000000c4   Code   RO          440    .text.bsp_InitMotorEnGpio  bsp_motor.o
    0x08007b88   0x08007b88   0x00000138   Code   RO          543    .text.bsp_InitOled  bsp_oled.o
    0x08007cc0   0x08007cc0   0x0000005c   Code   RO           47    .text.bsp_InitPid   pid.o
    0x08007d1c   0x08007d1c   0x0000008e   Code   RO          283    .text.bsp_InitTim1  bsp_timer.o
    0x08007daa   0x08007daa   0x00000002   PAD
    0x08007dac   0x08007dac   0x000000d8   Code   RO          287    .text.bsp_InitTim3  bsp_timer.o
    0x08007e84   0x08007e84   0x000000d8   Code   RO          289    .text.bsp_InitTim4  bsp_timer.o
    0x08007f5c   0x08007f5c   0x0000020a   Code   RO          285    .text.bsp_InitTim5  bsp_timer.o
    0x08008166   0x08008166   0x00000002   PAD
    0x08008168   0x08008168   0x000000f6   Code   RO          281    .text.bsp_InitTim8  bsp_timer.o
    0x0800825e   0x0800825e   0x00000002   PAD
    0x08008260   0x08008260   0x0000000c   Code   RO          196    .text.bsp_InitUart  bsp_uart.o
    0x0800826c   0x0800826c   0x00000050   Code   RO          134    .text.bsp_IsLedOn   bsp_led.o
    0x080082bc   0x080082bc   0x0000003a   Code   RO          128    .text.bsp_LedOff    bsp_led.o
    0x080082f6   0x080082f6   0x00000002   PAD
    0x080082f8   0x080082f8   0x0000003a   Code   RO          130    .text.bsp_LedOn     bsp_led.o
    0x08008332   0x08008332   0x00000002   PAD
    0x08008334   0x08008334   0x00000032   Code   RO          132    .text.bsp_LedToggle  bsp_led.o
    0x08008366   0x08008366   0x00000002   PAD
    0x08008368   0x08008368   0x0000004a   Code   RO          157    .text.bsp_SetKeyParam  bsp_key.o
    0x080083b2   0x080083b2   0x00000002   PAD
    0x080083b4   0x080083b4   0x00000048   Code   RO          222    .text.bsp_SetUartParam  bsp_uart.o
    0x080083fc   0x080083fc   0x0000003e   Code   RO          212    .text.comGetChar    bsp_uart.o
    0x0800843a   0x0800843a   0x00000002   PAD
    0x0800843c   0x0800843c   0x00000030   Code   RO         4335    .text.fputc         retarget_io.o
    0x0800846c   0x0800846c   0x0000000a   Code   RO          489    .text.i2c_Delay     bsp_oled.o
    0x08008476   0x08008476   0x00000002   PAD
    0x08008478   0x08008478   0x000000ae   Code   RO          497    .text.i2c_SendByte  bsp_oled.o
    0x08008526   0x08008526   0x00000002   PAD
    0x08008528   0x08008528   0x0000003e   Code   RO          495    .text.i2c_Stop      bsp_oled.o
    0x08008566   0x08008566   0x00000002   PAD
    0x08008568   0x08008568   0x0000006e   Code   RO          501    .text.i2c_WaitAck   bsp_oled.o
    0x080085d6   0x080085d6   0x00000002   PAD
    0x080085d8   0x080085d8   0x00000054   Code   RO          493    .text.i2c_start     bsp_oled.o
    0x0800862c   0x0800862c   0x000000b2   Code   RO         3816    .text.isrRtxMessageQueueGet  rtx_msgqueue.o
    0x080086de   0x080086de   0x00000002   PAD
    0x080086e0   0x080086e0   0x000000ca   Code   RO         3812    .text.isrRtxMessageQueuePut  rtx_msgqueue.o
    0x080087aa   0x080087aa   0x00000002   PAD
    0x080087ac   0x080087ac   0x00000058   Code   RO         3983    .text.isr_queue_get  rtx_system.o
    0x08008804   0x08008804   0x00000062   Code   RO         3997    .text.isr_queue_put  rtx_system.o
    0x08008866   0x08008866   0x00000002   PAD
    0x08008868   0x08008868   0x0000003e   Code   RO            2    .text.main          main.o
    0x080088a6   0x080088a6   0x00000002   PAD
    0x080088a8   0x080088a8   0x00000058   Code   RO         3174    .text.osDelay       rtx_delay.o
    0x08008900   0x08008900   0x00000058   Code   RO         3180    .text.osDelayUntil  rtx_delay.o
    0x08008958   0x08008958   0x00000048   Code   RO         3625    .text.osKernelGetState  rtx_kernel.o
    0x080089a0   0x080089a0   0x0000003e   Code   RO         3641    .text.osKernelGetTickCount  rtx_kernel.o
    0x080089de   0x080089de   0x00000002   PAD
    0x080089e0   0x080089e0   0x0000004e   Code   RO         3613    .text.osKernelInitialize  rtx_kernel.o
    0x08008a2e   0x08008a2e   0x00000002   PAD
    0x08008a30   0x08008a30   0x0000004a   Code   RO         3629    .text.osKernelStart  rtx_kernel.o
    0x08008a7a   0x08008a7a   0x00000002   PAD
    0x08008a7c   0x08008a7c   0x00000082   Code   RO         3814    .text.osMessageQueueGet  rtx_msgqueue.o
    0x08008afe   0x08008afe   0x00000002   PAD
    0x08008b00   0x08008b00   0x00000076   Code   RO         3802    .text.osMessageQueueNew  rtx_msgqueue.o
    0x08008b76   0x08008b76   0x00000002   PAD
    0x08008b78   0x08008b78   0x00000094   Code   RO         3810    .text.osMessageQueuePut  rtx_msgqueue.o
    0x08008c0c   0x08008c0c   0x0000002e   Code   RO         3160    .text.osRtxErrorNotify  rtx_config.o
    0x08008c3a   0x08008c3a   0x00000002   PAD
    0x08008c3c   0x08008c3c   0x0000000a   Code   RO         3987    .text.osRtxEventFlagsObject  rtx_system.o
    0x08008c46   0x08008c46   0x00000002   PAD
    0x08008c48   0x08008c48   0x0000000a   Code   RO         4034    .text.osRtxEventFlagsObject  rtx_thread.o
    0x08008c52   0x08008c52   0x00000002   PAD
    0x08008c54   0x08008c54   0x00000008   Code   RO         3158    .text.osRtxIdleThread  rtx_config.o
    0x08008c5c   0x08008c5c   0x0000000c   Code   RO         3979    .text.osRtxKernelGetState  rtx_system.o
    0x08008c68   0x08008c68   0x0000000c   Code   RO         4054    .text.osRtxKernelGetState  rtx_thread.o
    0x08008c74   0x08008c74   0x00000002   Code   RO         3611    .text.osRtxKernelPreInit  rtx_kernel.o
    0x08008c76   0x08008c76   0x00000002   PAD
    0x08008c78   0x08008c78   0x0000000c   Code   RO         3659    .text.osRtxKernelState  rtx_kernel.o
    0x08008c84   0x08008c84   0x00000156   Code   RO         3718    .text.osRtxMemoryAlloc  rtx_memory.o
    0x08008dda   0x08008dda   0x00000002   PAD
    0x08008ddc   0x08008ddc   0x000000c8   Code   RO         3720    .text.osRtxMemoryFree  rtx_memory.o
    0x08008ea4   0x08008ea4   0x000000a0   Code   RO         3712    .text.osRtxMemoryInit  rtx_memory.o
    0x08008f44   0x08008f44   0x0000004e   Code   RO         3731    .text.osRtxMemoryPoolAlloc  rtx_mempool.o
    0x08008f92   0x08008f92   0x00000002   PAD
    0x08008f94   0x08008f94   0x0000006e   Code   RO         3737    .text.osRtxMemoryPoolFree  rtx_mempool.o
    0x08009002   0x08009002   0x00000002   PAD
    0x08009004   0x08009004   0x000000a2   Code   RO         3729    .text.osRtxMemoryPoolInit  rtx_mempool.o
    0x080090a6   0x080090a6   0x00000002   PAD
    0x080090a8   0x080090a8   0x0000000a   Code   RO         3991    .text.osRtxMemoryPoolObject  rtx_system.o
    0x080090b2   0x080090b2   0x00000002   PAD
    0x080090b4   0x080090b4   0x0000000a   Code   RO         4040    .text.osRtxMemoryPoolObject  rtx_thread.o
    0x080090be   0x080090be   0x00000002   PAD
    0x080090c0   0x080090c0   0x0000000a   Code   RO         3993    .text.osRtxMessageObject  rtx_system.o
    0x080090ca   0x080090ca   0x00000002   PAD
    0x080090cc   0x080090cc   0x0000000a   Code   RO         3852    .text.osRtxMessageQueueId  rtx_msgqueue.o
    0x080090d6   0x080090d6   0x00000002   PAD
    0x080090d8   0x080090d8   0x0000000a   Code   RO         4199    .text.osRtxMessageQueueId  rtx_timer.o
    0x080090e2   0x080090e2   0x00000002   PAD
    0x080090e4   0x080090e4   0x0000000a   Code   RO         4042    .text.osRtxMessageQueueObject  rtx_thread.o
    0x080090ee   0x080090ee   0x00000002   PAD
    0x080090f0   0x080090f0   0x00000154   Code   RO         3840    .text.osRtxMessageQueuePostProcess  rtx_msgqueue.o
    0x08009244   0x08009244   0x0000000a   Code   RO         4036    .text.osRtxMutexObject  rtx_thread.o
    0x0800924e   0x0800924e   0x00000002   PAD
    0x08009250   0x08009250   0x0000009c   Code   RO         3877    .text.osRtxMutexOwnerRelease  rtx_mutex.o
    0x080092ec   0x080092ec   0x000000a0   Code   RO         3881    .text.osRtxMutexOwnerRestore  rtx_mutex.o
    0x0800938c   0x0800938c   0x0000000a   Code   RO         3844    .text.osRtxObject   rtx_msgqueue.o
    0x08009396   0x08009396   0x00000002   PAD
    0x08009398   0x08009398   0x0000000a   Code   RO         3879    .text.osRtxObject   rtx_mutex.o
    0x080093a2   0x080093a2   0x00000002   PAD
    0x080093a4   0x080093a4   0x0000000a   Code   RO         4005    .text.osRtxObject   rtx_system.o
    0x080093ae   0x080093ae   0x00000002   PAD
    0x080093b0   0x080093b0   0x0000000a   Code   RO         4024    .text.osRtxObject   rtx_thread.o
    0x080093ba   0x080093ba   0x00000002   PAD
    0x080093bc   0x080093bc   0x000000c4   Code   RO         3981    .text.osRtxPendSV_Handler  rtx_system.o
    0x08009480   0x08009480   0x00000046   Code   RO         3995    .text.osRtxPostProcess  rtx_system.o
    0x080094c6   0x080094c6   0x00000002   PAD
    0x080094c8   0x080094c8   0x0000000a   Code   RO         3989    .text.osRtxSemaphoreObject  rtx_system.o
    0x080094d2   0x080094d2   0x00000002   PAD
    0x080094d4   0x080094d4   0x0000000a   Code   RO         4038    .text.osRtxSemaphoreObject  rtx_thread.o
    0x080094de   0x080094de   0x00000002   PAD
    0x080094e0   0x080094e0   0x0000008e   Code   RO         4058    .text.osRtxThreadBlock  rtx_thread.o
    0x0800956e   0x0800956e   0x00000002   PAD
    0x08009570   0x08009570   0x00000108   Code   RO         4066    .text.osRtxThreadDelayInsert  rtx_thread.o
    0x08009678   0x08009678   0x000000a0   Code   RO         4062    .text.osRtxThreadDelayRemove  rtx_thread.o
    0x08009718   0x08009718   0x00000190   Code   RO         4030    .text.osRtxThreadDelayTick  rtx_thread.o
    0x080098a8   0x080098a8   0x0000009a   Code   RO         4052    .text.osRtxThreadDispatch  rtx_thread.o
    0x08009942   0x08009942   0x00000002   PAD
    0x08009944   0x08009944   0x000000a0   Code   RO         4160    .text.osRtxThreadFree  rtx_thread.o
    0x080099e4   0x080099e4   0x0000000c   Code   RO         3184    .text.osRtxThreadGetRunning  rtx_delay.o
    0x080099f0   0x080099f0   0x0000000c   Code   RO         3856    .text.osRtxThreadGetRunning  rtx_msgqueue.o
    0x080099fc   0x080099fc   0x0000000c   Code   RO         4056    .text.osRtxThreadGetRunning  rtx_thread.o
    0x08009a08   0x08009a08   0x0000000a   Code   RO         4070    .text.osRtxThreadId  rtx_thread.o
    0x08009a12   0x08009a12   0x00000002   PAD
    0x08009a14   0x08009a14   0x00000038   Code   RO         4020    .text.osRtxThreadListGet  rtx_thread.o
    0x08009a4c   0x08009a4c   0x0000007c   Code   RO         4016    .text.osRtxThreadListPut  rtx_thread.o
    0x08009ac8   0x08009ac8   0x00000036   Code   RO         4026    .text.osRtxThreadListRemove  rtx_thread.o
    0x08009afe   0x08009afe   0x00000002   PAD
    0x08009b00   0x08009b00   0x00000022   Code   RO         4032    .text.osRtxThreadListRoot  rtx_thread.o
    0x08009b22   0x08009b22   0x00000002   PAD
    0x08009b24   0x08009b24   0x0000005e   Code   RO         4022    .text.osRtxThreadListSort  rtx_thread.o
    0x08009b82   0x08009b82   0x00000002   PAD
    0x08009b84   0x08009b84   0x0000000a   Code   RO         3985    .text.osRtxThreadObject  rtx_system.o
    0x08009b8e   0x08009b8e   0x00000002   PAD
    0x08009b90   0x08009b90   0x0000000a   Code   RO         4018    .text.osRtxThreadObject  rtx_thread.o
    0x08009b9a   0x08009b9a   0x00000002   PAD
    0x08009b9c   0x08009b9c   0x00000050   Code   RO         4126    .text.osRtxThreadPostProcess  rtx_thread.o
    0x08009bec   0x08009bec   0x00000020   Code   RO         4028    .text.osRtxThreadReadyPut  rtx_thread.o
    0x08009c0c   0x08009c0c   0x00000020   Code   RO         4044    .text.osRtxThreadRegPtr  rtx_thread.o
    0x08009c2c   0x08009c2c   0x00000014   Code   RO         4166    .text.osRtxThreadSetRunning  rtx_thread.o
    0x08009c40   0x08009c40   0x00000042   Code   RO         4050    .text.osRtxThreadStackCheck  rtx_thread.o
    0x08009c82   0x08009c82   0x00000002   PAD
    0x08009c84   0x08009c84   0x00000084   Code   RO         4068    .text.osRtxThreadStartup  rtx_thread.o
    0x08009d08   0x08009d08   0x00000026   Code   RO         4048    .text.osRtxThreadSwitch  rtx_thread.o
    0x08009d2e   0x08009d2e   0x00000002   PAD
    0x08009d30   0x08009d30   0x0000007c   Code   RO         4064    .text.osRtxThreadWaitEnter  rtx_thread.o
    0x08009dac   0x08009dac   0x0000004c   Code   RO         4060    .text.osRtxThreadWaitExit  rtx_thread.o
    0x08009df8   0x08009df8   0x00000110   Code   RO         3977    .text.osRtxTick_Handler  rtx_system.o
    0x08009f08   0x08009f08   0x0000000a   Code   RO         4227    .text.osRtxTimerId  rtx_timer.o
    0x08009f12   0x08009f12   0x00000002   PAD
    0x08009f14   0x08009f14   0x00000068   Code   RO         4197    .text.osRtxTimerThread  rtx_timer.o
    0x08009f7c   0x08009f7c   0x000000a8   Code   RO         4201    .text.osRtxTimerTick  rtx_timer.o
    0x0800a024   0x0800a024   0x00000024   Code   RO         4106    .text.osThreadExit  rtx_thread.o
    0x0800a048   0x0800a048   0x00000076   Code   RO         4074    .text.osThreadNew   rtx_thread.o
    0x0800a0be   0x0800a0be   0x00000002   PAD
    0x0800a0c0   0x0800a0c0   0x00000094   Code   RO         4203    .text.osTimerNew    rtx_timer.o
    0x0800a154   0x0800a154   0x00000068   Code   RO         4211    .text.osTimerStart  rtx_timer.o
    0x0800a1bc   0x0800a1bc   0x000002e6   Code   RO          310    .text.servoSetPluse  bsp_servo.o
    0x0800a4a2   0x0800a4a2   0x00000002   PAD
    0x0800a4a4   0x0800a4a4   0x0000001a   Code   RO          256    .text.stdout_putchar  bsp_uart.o
    0x0800a4be   0x0800a4be   0x00000002   PAD
    0x0800a4c0   0x0800a4c0   0x00000036   Code   RO         3182    .text.svcRtxDelay   rtx_delay.o
    0x0800a4f6   0x0800a4f6   0x00000002   PAD
    0x0800a4f8   0x0800a4f8   0x00000064   Code   RO         3186    .text.svcRtxDelayUntil  rtx_delay.o
    0x0800a55c   0x0800a55c   0x00000016   Code   RO         3627    .text.svcRtxKernelGetState  rtx_kernel.o
    0x0800a572   0x0800a572   0x00000002   PAD
    0x0800a574   0x0800a574   0x0000001e   Code   RO         3643    .text.svcRtxKernelGetTickCount  rtx_kernel.o
    0x0800a592   0x0800a592   0x00000002   PAD
    0x0800a594   0x0800a594   0x0000038c   Code   RO         3657    .text.svcRtxKernelInitialize  rtx_kernel.o
    0x0800a920   0x0800a920   0x000000d8   Code   RO         3661    .text.svcRtxKernelStart  rtx_kernel.o
    0x0800a9f8   0x0800a9f8   0x00000192   Code   RO         3864    .text.svcRtxMessageQueueGet  rtx_msgqueue.o
    0x0800ab8a   0x0800ab8a   0x00000002   PAD
    0x0800ab8c   0x0800ab8c   0x00000294   Code   RO         3838    .text.svcRtxMessageQueueNew  rtx_msgqueue.o
    0x0800ae20   0x0800ae20   0x0000018e   Code   RO         3854    .text.svcRtxMessageQueuePut  rtx_msgqueue.o
    0x0800afae   0x0800afae   0x00000002   PAD
    0x0800afb0   0x0800afb0   0x000000d4   Code   RO         4164    .text.svcRtxThreadExit  rtx_thread.o
