:020000040800F2
:10000000F00E0020D9000008FD3B00086731000811
:1000100000000000000000000000000000000000E0
:10002000000000000000000000000000AF3C0008DD
:100030000000000000000000AD3C0008B13C0008DA
:10004000EB00000800000000EB000008EB000008D7
:10005000EB000008EB000008EB000008EB000008D4
:1000600000000000410B0008EB000008EB00000856
:10007000EB000008EB000008353D00080000000020
:10008000453D00080000000000000000253D00087C
:1000900000000000EB000008EB000008EB00000887
:1000A000EB000008EB000008EB000008094E000818
:1000B0005D4E00080000000000000000000000008D
:1000C0000448854600F08EFC00480047D95A0008D5
:1000D000C046C046F00E0020044880470448004750
:1000E000FEE7FEE7FEE7FEE7FEE7FEE7213D00084C
:1000F000C100000830B50B46014600202022012433
:1001000009E00D46D5409D4205D31D469540491B4B
:100110002546954040191546521E002DF1DC30BD94
:1001200001464139192900D82030704703460B4356
:100130009B0703D009E008C9121F08C0042AFAD29D
:1001400003E00B780370401C491C521EF9D2704723
:10015000D2B201E00270401C491EFBD2704700225F
:10016000F6E710B513460A4604461946FFF7F0FFB6
:10017000204610BD421C0178401C0029FBD1801A8A
:10018000704710B5002200E0521C835C8C5CA342D7
:1001900001D1002BF8D1D8B2E1B2401A10BD30B570
:1001A00005460020034600E05B1C934205D2EC5C50
:1001B000C85C201A01D1002CF6D130BDF8B502463A
:1001C0004A40D40F42004B0052085B089A4202D2C8
:1001D0000246084611464A0023D0C30D4A00DDB24C
:1001E000120EAD1A202D35DA49020126490AF6050C
:1001F0008A19002C00D0524220214F1B1146B940D1
:100200002A411018C20D9A4221D0002C17D0012D7E
:1002100008DCDA05801AD20F8019D207DBB200F0B1
:100220009BFAF8BDDA05801A012340001B06C018AE
:1002300080185A428018CA0F1043490007E0490845
:10024000C2071143DA05801A80194008801800F0AF
:100250007BFAF8BD61000122511A001BF7E7012269
:10026000D2075140AAE70122D2075040A6E7024632
:1002700070B54A40D30FDB0740002DD04A002AD08A
:10028000010E140E000212020919400A520A8418C3
:10029000E50104465443000A120A2E045043A419EF
:1002A0004219200CC543AA18120C0125AD03521C9B
:1002B000521912047F39240400D0521C104301D477
:1002C0004000491EC2B20C06C0092018401C40085C
:1002D000802A02D003E0002070BD400840000029C1
:1002E00000DA0020184370BD420005D04200120E13
:1002F00052428A4201DB00207047C9050818704746
:10030000F0B507460846584087B0C00F0490480033
:100310000E46590040084908BC1A884105D23846A3
:1003200031461E4617460B46024658004008104309
:100330004DD0300D039040055900400D490D0590FA
:10034000401A0290402873DA18030121000B0905B6
:100350000843019004980092002806D01146019AA3
:1003600049420020904100910190029840210A1AD0
:100370000199009800F0B4F905460C466B4607CB8E
:1003800000F0CFF9C0197141039A0E0D0023D71761
:1003900056401A467A40164344D0049A002A2DD07B
:1003A000029A012A039A15DC1205C01A914101260E
:1003B0003605001C7141D20F059ED20700930192B1
:1003C00002962A46234600F00DFA07B0F0BD3846E3
:1003D0003146FAE71605234A0F46B218C01AB7414C
:1003E00001210905001C4F4100187F4111461818D2
:1003F0007941E20F10436D19644113E0E2076D0883
:1004000015436408C2071443039A01261205C01A53
:1004100091413605001C7141CE0740083043490820
:10042000C01851412A46234600F0CFF9CDE7FFE737
:10043000049801224000C117121A00238B4104982E
:100440003146C417381AA141EEE730B40124E4075D
:10045000634030BC54E730B40124E407614030BC51
:100460004EE700000000E0FFF0B51FB488B00B9924
:100470000998002448400999C00F4900490809918A
:10048000C0070B990090490049080B9109990898F9
:10049000A64608431CD00B990A98084318D009981F
:1004A00001244000420D4800410D09982405000335
:1004B000000B204309900B980003000B20430B9086
:1004C00050181C494018002201901446104605E0BF
:1004D000002001460DB0F0BD032801DA034600E01C
:1004E00003239C46C11A0AAE0AE05F0008ADED5B2B
:1004F0004F00F75B7D430027AA187C41491C5B1E17
:100500006145F2DD410004AB5A522104120C0A434A
:10051000240C401C0828DFDB0198029000997046EB
:1005200001910090059B049A0799069800F05AF9EA
:10053000D0E700000DFCFFFFC217C10F504010B5FF
:100540004018CA079623002100F006F910BD10B527
:1005500000229623114600F0FFF810BD0EB5C21719
:10056000C10F5040CA0740180021054B0293019269
:1005700000910A460B4600F035F903B000BD0000BB
:1005800033040000410040020122400AD205090E56
:1005900080187F2901DA00207047962903DC962213
:1005A000511AC840704796398840704770B5CD0FD2
:1005B0004A0009030123090B1B0519430B4BED07E7
:1005C0000024520D9A4201DA002070BD074B3433EB
:1005D0009A4203DC9A1A00F093F802E00449511899
:1005E00088402C43F1D0404270BD0000FF03000062
:1005F000CDFBFFFF4A0009030123090B1B0519432B
:10060000094B10B5520D9A4201DA002010BD064B7D
:1006100034339A4203DC9A1A00F072F810BD034991
:100620005118884010BD0000FF030000CDFBFFFF04
:10063000C20FD207400040080BD0C10D0723DB01D9
:10064000C91840020905400A1143C2084007114376
:10065000704700200146704710B5002904DB0124D3
:10066000E40740428C412146002B04DB1C46012359
:10067000DB075242A341994200D1904210BD0000D5
:10068000F0B51FB40646002082B005464024019113
:1006900000901BE0019922460F46304600F030F8EA
:1006A000049A059B801A994110D310461946224698
:1006B00000F016F8361A8F410197224601200021DA
:1006C000009F00F00DF838184D4100902046641E40
:1006D0000028DFDC019B00982946324607B0F0BDB8
:1006E00010B5202A04DB0146203A9140002010BDBD
:1006F000914020239C1A0346E3401943904010BDCB
:1007000010B5202A04DB0846203AD040002110BD55
:100710000B46D340D0402024A21A914008431946EA
:1007200010BD10B5202A06DBCB170846203A104131
:10073000C1170B4306E00B461341D0402024A21AF8
:1007400091400843194610BD002904DA401C4900B5
:1007500001D140084000704770B40024050C05D159
:100760001024000402D1002921D01124050E01D14A
:1007700000020834050F01D10001241D850F01D1AD
:100780008000A41C002801DB4000641C002908D064
:1007900020252E1B0D46F540A14000D00121294304
:1007A000084301061B1B000ADB1D02D5002070BC9C
:1007B0007047DB05181880180029F8DA401C49003A
:1007C000F5D170BC40084000704710B5002B08DA26
:1007D0000024401C614192185B411A4301D140083A
:1007E000400010BDF0B51FB482B005460C0003D028
:1007F000084604F059FB02E004F056FB20300246A4
:10080000009021462846FFF76BFF049B059A04469B
:100810000F4618431143084314D0184610431BD009
:10082000009840210A1A18460599FFF769FF054606
:100830000E46009A05990498FFF752FF084305D029
:10084000012004E02046394607B0F0BD0020C11762
:1008500005430E432C43374300990E986305401A15
:100860007905E40A00220C43FD0A0A3002D5002073
:100870000146E9E70105101969410C9C0D9D00191D
:100880006941FFF7A2FFDFE7F0B50C465C4085B099
:10089000E40FE40703944C000026640859009446D2
:1008A000490802460296224321D062460A431ED0DE
:1008B0006200570D4A000E032303550D0124024622
:1008C0002C492405781B1B0B360B40182343264369
:1008D000614600901C46501AB44103D30098401C56
:1008E000009002E0921800985B41002803DA002093
:1008F000014605B0F0BD00200121090507468646E6
:1009000011E064461D46141BB54106D36546521BD3
:10091000B341744607430C43A646CD074008490837
:10092000284392185B4105460D43EAD1104618430F
:1009300013D06046194650407140084306D06046C7
:10094000101AB34106D20122002306E0002201233F
:10095000DB0702E00122D2435310009874460105E0
:10096000381C6141029C039D00196941FFF72DFF6E
:10097000BFE70000FD03000070B54B005B080343B8
:100980000BD04B005C0D002633466542B341D417B3
:10099000AD1AA34102DB0020014670BD12053018DC
:1009A000514170BD4A0009030123090B1B0519437E
:1009B0000A4B10B5520D9A4202DA0020014610BDD2
:1009C000064B34339A4203DC9A1AFFF799FE10BDA6
:1009D000034BD218FFF784FE10BD0000FF03000098
:1009E000CDFBFFFF064C0125064E05E0E36807CC72
:1009F0002B430C3C98471034B442F7D3FFF764FB09
:100A00007470000894700008FEB500231A461B1A83
:100A10008A4103DB0020014603B0F0BD4A000D030C
:100A200001212D0B0905520D0D43D10702D10018EC
:100A30006D41521E5110FF31FF3101310027044634
:100A40003E463846009701910246012100200905E3
:100A5000FFF756FEC3197141F818324684468E4698
:100A60004A4161462846611A904104D36046241ADF
:100A7000954176461F46241900986D41401C009010
:100A80003428E1DDF91930467041091BA84103D231
:100A90000022D243134601E00022134601980105CB
:100AA000381C7141FFF791FEB6E70000F8B51E4D06
:100AB0002878002803D1FF20287002F0EDFF1B48A2
:100AC00002781D4E1A4837461A4900242037E72A73
:100AD00012D006DC7F2A15D0BF2A13D0DF2A14D10A
:100AE0000DE0FB2A06D0FD2A01D0FE2A0DD1AC80F4
:100AF000346005E0306000E03160396005E031606D
:100B0000386002E030603C60EC800C4840889628F9
:100B100004D803F043F834603C60F8BDE988A88845
:100B200003F016F8F8BD000000000020330000209C
:100B300000005C4300008243540000202400002099
:100B400010B5024800F0D0F810BD00009406002057
:100B500010B50446006C09498008800040186064A4
:100B6000207814210838FFF7C5FA04498031A164C0
:100B7000C106C90E01208840E06410BD0008024093
:100B80000179084B8906890E8A00D2180265054A48
:100B90004432491E42658A07920F012191408165C6
:100BA00070470000FC080240F0B5846CC56C6560BD
:100BB000046D002C02D0446D856D65600B4C65683A
:100BC000066C1C273E400127B7403D436560046822
:100BD00063608368102B036803D099600068C2606B
:100BE000F0BD9A600068C160F0BD000000000240E6
:100BF00072B6FEE7F0B5002808D0014620314A79E8
:100C0000022A05D00422C263002008710120F0BD31
:100C1000026813680E24A3431360426C1468FF2318
:100C200001339C4314600268146864086400146013
:100C30000C4A5568066C1C24264001242746B74000
:100C40003D435560826CC56C5560026D002A05D02D
:100C500015689D431560826D406D42604C710020A7
:100C60000871F0BD00000240F8B5002402462032B1
:100C70005179022903D00421C16301242DE00168C8
:100C80000B680E25AB430B6001680B685B085B00CB
:100C90000B60416C0B68FF250135AB430B601049BD
:100CA0004D68066C1C231E4001231F46B7403D4380
:100CB0004D60816CC56C4D60016D002906D00E68D9
:100CC0001D02AE430E60416D856D4D605371002174
:100CD0001171816B002900D088472046F8BD0000C3
:100CE00000000240C06B7047F0B42C490C680268E9
:100CF0001368056C1C273D400426AE40264211D0E7
:100D00005E070FD513689B0603D4146804239C4325
:100D100014604B68046C04223C40A24013434B60B7
:100D2000016B1CE00227AF40064627402036002F0B
:100D300019D09F0717D513689B0605D413680A249A
:100D4000A3431360012272714B68046C1C2214408F
:100D50000222A24013434B6000213171C16A002975
:100D60001AD0F0BC08470827AF40274214D01B0711
:100D700012D513680E24A34313604B68046C1C2225
:100D8000144001221546A5402B434B60C26372718B
:100D900000213171416BE2E7F0BC70470000024076
:100DA00070B504003FD02548256814212818FFF7A6
:100DB000A1F9800020640220264620367071286840
:100DC0001F4908402860E168A068626908432169FA
:100DD00011430843A1690843E1690843216A0843B4
:100DE00021680A68104308602046FFF7B1FE012120
:100DF000A06889030025884200D165602079616C74
:100E00008006800E0860A06CE16C41606068401E46
:100E100003280AD82046FFF7B3FE206D0560606DF9
:100E2000A16D416004E0012070BD25656565A56583
:100E3000E563012070713571002070BDF8FFFDBFC2
:100E40000F80FFFFF8B504468C462030017900255D
:100E500001290BD00126067141790027012907D00D
:100E60008021E163077101252846F8BD0220F8BD05
:100E700002214171E7632068016849084900016067
:100E800061462046FFF790FE206B0028206801682D
:100E900001D00E2205E00422914301602068016820
:100EA0000A2211430160606C0168CA03074902D538
:100EB00002680A430260206D002802D002680A43DB
:100EC00002602068016831430160CDE70001000045
:100ED000F0B5002303249AE02A4601259D402A40CC
:100EE0007ED00E79B607B60F012E01D0022E16D194
:100EF00086682746B4465E00B646B7406646BE439F
:100F0000B446CF687646B740664637438760466842
:100F1000AE430D79ED06ED0F9D40354345600D79EB
:100F2000ED43AD0708D0C5685F002646BE40B54317
:100F30008E68BE402E43C6600D79AD07AD0F022D01
:100F40000ED1DD08AD002D18AC462D6A5E07F60EF9
:100F50000F27B740BD430F69B7402F4365462F6247
:100F600005685F002646BE40B5430E79B607B60F4A
:100F7000BE402E4306604D68AD03AD0F46D09E08BF
:100F8000264DB6007519AC462D6E9E07F60E0F273E
:100F9000B740BD4305273F07B84201D100270FE006
:100FA0001F4FB84201D101270AE01E4FB84201D1BC
:100FB000022705E01C4FB84201D1032700E00527B6
:100FC000B7402F43154D664637662D684E689543EA
:100FD000F60200D51543114F3D607D68954300E052
:100FE00014E04E68B60200D515437D600B4D803588
:100FF0006E684F689643BF0300D516436E602E6837
:101000004F689643FF0300D516432E605B1C0A68A9
:101010001546DA4000D05FE7F0BD0000001802403E
:101020000004005000080050000C005042691346B4
:101030000B401B0491430B4383617047002A01D08E
:101040008161704781627047014880687047000085
:101050003800002070B5024640325378202B1CD156
:101060001378012B19D001231370242454700468C1
:1010700025689D432560046825681E03B5432560E7
:10108000046825680D432560006801681943016004
:10109000202050700020107070BD022070BD70B50F
:1010A000024640325378202B1BD11378012B18D0E5
:1010B000012414702423537003681D68A5431D6028
:1010C00005682B680F263602B343090219432960CD
:1010D00000680168214301602020507000201070DA
:1010E00070BD022070BD000070B5040006D025461A
:1010F000403568780026002802D005E0012070BD48
:101100002E70204600F09EF9242068702068016847
:101110004908490001600F21606809068843216879
:10112000086121688A680120C00382438A60E168FF
:101130000129A1682FD021229202114322689160D7
:101140000121E268C902022A2268536825D08B4334
:10115000536021684A68124B1A434A602168CA6882
:101160008243CA60616920690843A1690902084392
:101170002168C860216AE069084321680860206826
:1011800001680122114301606664202068702663B3
:10119000AE70002070BD0143D0E70B43D8E70000DC
:1011A00000800002FFB5054604464035687883B0EC
:1011B000202875D10C98002814D00D98002811D043
:1011C000287801286CD001202870FFF73DFF0746E2
:1011D000012200901923D103204602F0E9F80028EB
:1011E00074D103E00120400260646FE02220687047
:1011F0004020A870002666640C9860620D98608597
:1012000066630E980090019704A90EC9204602F06B
:1012100059F8002801D02E7058E0618D3448FF291C
:1012200005D9FF22228501231B06009006E0618D6F
:1012300021850090208D0123C2B25B0620460499CF
:1012400002F0A0F800970022042120460E9B02F035
:10125000AFF800283AD12068406A616A0870606A75
:10126000401C6062208D401E81B22185608D401E31
:101270006085608D00281FD000291DD100970022B5
:10128000802120460E9B02F093F800281ED1608D2D
:10129000FF2806D9FF22228501231B06009607E0BE
:1012A00024E0608D20850096208D0123C2B25B066C
:1012B0002046049902F066F8608D0028C2D13A46B3
:1012C00020460E9902F0ADF8002802D0012007B0A8
:1012D000F0BD20682021C16120684268054B1A409A
:1012E00042606970AE702E700020F0E70220EEE7D9
:1012F0000024008000E800FEFFB5054604464035A6
:10130000687883B0202872D10C98002814D00D98EA
:10131000002811D02878012869D001202870FFF713
:1013200093FE0746012200901923D103204602F0C4
:101330003FF8002871D103E00120400260646CE0B6
:10134000212068704020A870002666640C986062B6
:101350000D98608566630E980090019704A90EC9E8
:10136000204601F0DFFF002801D02E7055E0608D8F
:10137000FF2805D9FF22228501231B06009606E0DF
:10138000608D20850096208D0123C2B25B06204629
:10139000049901F0F7FF3A4620460E9902F06CF8E6
:1013A00000283AD1606A216800788862606A401C2F
:1013B0006062608D401E6085208D401E80B2208559
:1013C000618D00291FD000281DD1009700228021A7
:1013D00020460E9B01F0ECFF00281ED1608DFF28F7
:1013E00006D9FF22228501231B06009607E024E090
:1013F000608D20850096208D0123C2B25B062046B9
:10140000049901F0BFFF608D0028C4D13A46204600
:101410000E9902F006F8002802D0012007B0F0BDB6
:1014200020682021C16120684268054B1A40426053
:101430006970AE702E700020F0E70220EEE7000029
:1014400000E800FE10B586B0044614216846FEF799
:1014500086FE1249206888421ED1114C616B012022
:1014600001436163616B02900140059103210020FB
:10147000C9020390009106201221049001910520D9
:1014800069460007FFF724FDE16B01208005014359
:10149000E163E16B0140059106B010BD00580040CA
:1014A0000010024002488168027889188160704704
:1014B0003800002010B50848002401688215114347
:1014C0000160204600F00AF8002801D0012401E064
:1014D00000F028F8204610BD0020024070B50F4EE5
:1014E000002431780546002915D07D20C000FEF784
:1014F00001FE01460A480068FEF7FCFD00F0F6FB1D
:10150000002808D1042D06D200222946401E00F0F2
:101510002BF8756000E00124204670BD38000020E3
:101520004400002008B50948016801221143016008
:1015300000681040009005484038C26B01040A431F
:10154000C263C06B0840009008BD0000401002401C
:10155000002805DBC106C90E01208840014908604A
:101560007047000000E100E010B503F0D7FC10BDAB
:1015700010B50F4C216803225202914301432160B0
:10158000C11FFF39FA390ED10A48062100684843C5
:101590000949FEF7AFFD401C02E0002805D0401EBF
:1015A00061694905F9D4002010BD032010BD000079
:1015B000007000404400002040420F00F8B504468F
:1015C000006800264D4D800358D54C480027403810
:1015D000C06BC00009D449484038C26B01040A43BB
:1015E000C263C06B0840012700904548016882151E
:1015F00011430160FFF728FD009005E0FFF724FD8F
:101600000099401A022825D83D480068C005F5D544
:10161000E8690321090208400FD0616981420CD0BA
:10162000E86903210902EA698843012109040A43A0
:10163000EA61EA698A43EA61E861C0070FD0FFF70F
:1016400003FD009008E0FFF7FFFC0099411A2D48C8
:10165000814201D9032609E0E8698007F3D5E869EA
:1016600003210902884361690843E861002F05D01E
:1016700022484038C26B01048A43C2632078C00705
:1016800005D0686961688008800008436861207837
:10169000800606D56869032109038843A1680843C9
:1016A00068612088400411D568692169800080083C
:1016B00008436861012120698907884206D10F48E3
:1016C0004038C168012212041143C160208800051E
:1016D00012D56869032189038843E168084368617A
:1016E0000121E0688903884206D104484038C16876
:1016F000012212041143C1603046F8BD401002407F
:101700000070004088130000F8B50F46060043D073
:101710004D4D28684007400FB84213D22868C008D2
:10172000C00038432860FFF78FFC044605E0FFF750
:101730008BFC011B4548814261D828684007400F57
:10174000B842F4D13068424C81070DD5400704D52A
:10175000A068072109030843A060A0680F210902BF
:101760008843B1680843A0603078C00732D0706801
:1017700001280AD002280BD000280FD0344940316C
:1017800003280ED0C969890704E02168890301E0B4
:1017900021688901002906DB0120F8BD216849057F
:1017A000F8E7096AEFE7A168C908C9000143A16029
:1017B000FFF74AFC009006E0FFF746FC0099411A4B
:1017C000224881421BD8A068382108407168C900AE
:1017D0008842F1D128684007400FB84217D91A480B
:1017E0000168C908C90039430160FFF72DFC0546AF
:1017F00007E0FFF729FC411B1448814201D903206F
:10180000F8BD114800684007400FB842F1D1307868
:10181000400706D5A068072109038843F1680843FB
:10182000A06000F031F8A1683C2289091140094A02
:10183000515CC906C90EC8400749086007480068DE
:10184000FFF74CFEF8BD00000020024088130000A6
:10185000001002403C6F0008440000203C000020C3
:101860000648074900688968064A4904490F890003
:10187000515CC906C90EC8407047000044000020F2
:10188000001002407C6F000810B5204CA068204A70
:101890008006400F16D0A0688006410F5010012925
:1018A0000FD0A1688906490F022912D0A0688006CE
:1018B000400F042823D0A0688006400F032821D0C1
:1018C000002010BD206801218004400F8140104697
:1018D00012E0E1688B07E1689B0F4906490F491C3C
:1018E000032B00D01046FEF705FCE1684904490EC1
:1018F0004843E168490F491CFEF7FCFB10BD01207D
:10190000C00310BD7D20000210BD00000010024089
:101910000024F400F8B504007ED020783827C007F2
:10192000E94D002846D0A868E96838408907890F42
:10193000102802D008280BD001E0032908D001208C
:101940006268000482420AD129680143296015E0D7
:10195000286880032ED560680028DDD02AE00523A2
:1019600001211B0489049A422A6802D10A432A6091
:10197000EAE782432A602868884328606068002874
:101980000CD0FFF761FB064604E0FFF75DFB801B10
:10199000642873D828688003F7D50BE0FFF754FB61
:1019A000064604E0FFF750FB801B6428F1D8286846
:1019B0008003F7D42078800769D5A868E9683840A3
:1019C0008A070721920FC902102802D0002813D0DD
:1019D00001E0022A10D0E068002846D02868884339
:1019E0002169084328602868FF21013108432860E5
:1019F000FFF72AFB06462CE02A68520502D5E2686A
:101A0000002A89D06A687F231B029A4363691B02FC
:101A10001A436A60002800E08DE00ED128688843F0
:101A2000216908432860286801218004400F814013
:101A3000A648FEF75FFBA6490860A6480068FFF7C6
:101A40004DFD002877D122E0FFF7FEFA801B022827
:101A50009FD828684005F7D568687F210902884328
:101A6000616909020843686011E02968FF200130BC
:101A700081432960FFF7E8FA064605E098E0FFF7A2
:101A8000E3FA801B022884D828684005F7D4207820
:101A9000914E00072ED5A8688006400F03280AD073
:101AA000A0690028306A16D0012108433062FFF790
:101AB000CBFA07460BE0306A80071BD5A0690028E7
:101AC0009FD017E0FFF7C0FAC01B022870D8306A19
:101AD0008007F7D50EE0400840003062FFF7B4FA07
:101AE000074604E0FFF7B0FAC01B022860D8306A4E
:101AF0008007F7D4207840076CD5A86800278006B7
:101B0000400F042818D0E86BC00008D4E96B01200E
:101B100000070143E963E96B0140012700916F4829
:101B20000168C90519D40168821511430160FFF7E6
:101B30008BFA00900DE083E0F06980074AD5A06839
:101B400000287DD046E0FFF77FFA0099401A02286E
:101B50002ED862480068C005F5D5A168012910D0CB
:101B600004200529F16911D049084900F161F169A2
:101B70008143F161A068002816D0FFF765FA009054
:101B80000EE0F06901210843F061F3E70143F161E0
:101B9000F7E7FFF759FA0099411A5148814265D891
:101BA000F0698007F5D50EE0FFF74EFA009007E0E8
:101BB0005CE0FFF749FA0099411A4948814255D83B
:101BC000F0698007F5D4002F04D0E96B01200007ED
:101BD0008143E963E069002873D0A9688906490F49
:101BE00002294DD0012636060228286805D0B043C8
:101BF0002860FFF729FA04463AE0B0432860FFF76F
:101C000023FA074604E0FFF71FFAC01B02282DD86D
:101C100028688001F7D4616A206AA26A0843E16AF1
:101C2000120211430843216B0843E9682D4A114011
:101C30000843E860286830432860E868012100E034
:101C40003DE009070843E860FFF7FEF9044604E0B9
:101C5000FFF7FAF9001B022808D828688001F7D599
:101C60002FE0FFF7F1F9001B022801D90320F8BD8E
:101C700028688001F5D4E8681B490840E86020E046
:101C80000128F4D0E868226A8107890F914216D1B1
:101C90007021626A0140914211D17F21A26A09023A
:101CA0000140120291420AD11F214904E26A014017
:101CB000914204D1400F216B4007884201D001209E
:101CC000F8BD0020F8BD0000001002400024F40020
:101CD000440000203C000020401002400070004002
:101CE000881300008C80C11FFCFFFEEF094910B56E
:101CF000401E884201D9012010BD074C60610321BC
:101D0000081F03F00BF90020A061072020610020CC
:101D100010BD0000FFFFFF0000E000E070477047CB
:101D20007047000030B5034620331A7F012A49D09E
:101D300001221A770325CA682D02AA438D6800681C
:101D40002A430125AD02AA434D6800242A430125F8
:101D5000ED02AA430D682A4301252D03AA430D690C
:101D60002A4301256D03AA434D692A430125AD038A
:101D7000AA430D6B2A430F252D04AA430D8B2D0476
:101D80002A4301252D07AA43CD692A430E4DA842B7
:101D900014D10F252D05AA430D8D2D052A430125AC
:101DA0002D06AA430D6A2A4301256D06AA434D6AF2
:101DB000C96A2A4301256D07AA430A4342641C7776
:101DC000002030BD022030BD002C0140F0B503469C
:101DD00020331A7F012A24D001221A7702225A774F
:101DE00004686268A568104FBC4205D116460F22F0
:101DF000120596434A6832437026B2430E68164372
:101E000066600068B84202D0084A904204D180223D
:101E1000896895432943816001205877002018770D
:101E2000F0BD0220F0BD0000002C01400004004085
:101E300070B5040005D025462035687F002802D003
:101E400006E0012070BD00202877204600F016F83B
:101E500002206877211D206801F07CFF01224034B8
:101E60002272AA77EA7722706270A270E270227101
:101E70006271A271E2716A77002070BD10B586B000
:101E8000044614216846FEF76AF928482368284961
:101E9000022283420CD1C86B1043C863C86B104048
:101EA0000022059011461020FFF75EFB102025E070
:101EB0001F48204C4030A34224D10468DB131C434C
:101EC0000460006818400590486B0123184348637C
:101ED000486B01921840059010200090002002905D
:101EE000042004900520039269460007FEF7F0FFE6
:101EF000002201211320FFF737FB1320FFF728FBF7
:101F000006B010BD0C498B4203D10268012149047F
:101F100005E00A498B42F3D10268012189040A4392
:101F20000260006808400590EAE7000000040040F5
:101F300000100240002000400044014000480140E1
:101F4000014620314A7F012A01D001207047022238
:101F50004A770168CB6801221343CB6000680949C6
:101F6000884202D00849884207D18168074B19404E
:101F7000062905D0DB1F994202D001681143016098
:101F800000207047002C01400004004007000100C1
:101F9000F8B5054604462035287F0026012817D0CD
:101FA00001272F7702206877226890682F4B18400E
:101FB000FF231B02984390600868502838D00EDC3D
:101FC00020284FD006DC00284CD010281ED149E034
:101FD0000220F8BD302845D0402817D13AE06028CB
:101FE0002ED0702818D001221203801A0FD09042F0
:101FF0000CD1CB684A688968206801F0FCFE206833
:102000008168012292031143816000E001266F770D
:10201000002028773046F8BDCB684A688968206878
:1020200001F0E9FE21688868772210438860EEE7B6
:10203000CA684968206802F041F85021206806E02B
:10204000CA684968206802F06DF86021206801F0D4
:10205000DDFEDCE7CA684968206802F02FF84021FD
:102060002068F4E7226801461046F0E788FFCEFFBB
:1020700070B5044600680E490E4D884209D1207F94
:10208000012806D1E868401CE86000210A4800F0F9
:102090000DF90A492068884209D1207F012806D11C
:1020A0002869401C28610021054800F0FFF870BD38
:1020B000002C014000000020F00300200020004020
:1020C00088040020F8B504460020264620360090FB
:1020D000307F0D4601280ED001203077002A0CD029
:1020E000042A19D0082A2AD00C2A51D000900020A6
:1020F00030770098F8BD0220F8BDEB6806CD083DAA
:10210000206801F0EDFF206882690C218A4382611A
:1021100020688169AA680FE0EB6806CD083D206859
:1021200002F013F8206881690322920291438161D1
:1021300020688169AA68120211438161D7E72A6881
:1021400020689646297B6A68036A9C46036AFF27D3
:102150000137BB430362C36909079B089B00134314
:10216000F0229343090E194305226346520293431A
:1021700072460A273A4012021A43C161026220687D
:10218000C1690C229143C1612068C169AA682CE031
:102190002B6820689E466F682B7B026ABC46016AEA
:1021A00001273F03B9430162C16903273F02B943D5
:1021B00067463F020F430F2109038F431907090C9C
:1021C000052339435B039A4373460A273B401B03AD
:1021D0001343C16103622068C269032189028A43F3
:1021E000C2612068C169AA6812021143C1617EE719
:1021F00070B5040005D025462035687F002802D040
:1022000006E0012070BD00202877204600F016F877
:1022100002206877211D206801F09CFD01224034D6
:102220002272AA77EA7722706270A270E27022713D
:102230006271A271E2716A77002070BD10B586B03C
:10224000044614216846FDF78AFF16492068884233
:1022500025D115480268C1140A430260006808408D
:10226000059011484038416B012211434163406B96
:102270000021104005901002009002200190039070
:1022800004900291052069460007FEF721FE002216
:1022900001210E20FFF768F90E20FFF759F906B06B
:1022A00010BD0000002C01404010024070B50246F5
:1022B0000446002620324034054600290CD004296B
:1022C0000DD008290ED00C290FD010290FD0E0789E
:1022D000E37901280FD10CE0907F2379F9E7D07FD3
:1022E0006379F6E72078A379F3E76078F0E7A078E0
:1022F000EEE7012B01D0012070BD022000290DD096
:10230000042912D0082916D00C2934D0102934D031
:10231000E070E0710C2932D001262AE0907720711C
:102320002A68D3680343D3600CE0D07760712868D3
:10233000C268042304E02070A0712868C2680823E2
:102340001A43C2600122286801F048FD0E4928683E
:102350000122884202D00D49884207D181680C4B86
:102360001940062905D0DB1F994202D001681143AC
:102370000160304670BD6070CBE7A070C9E7286887
:10238000C2681023DCE70000002C0140000400407C
:1023900007000100F8B504460068C6680569002713
:1023A000A907002913DAB10711D5F91E016101202F
:1023B0002077206880698007204602D0FFF758FE0A
:1023C00004E000F0BFF8204600F078F927776807AE
:1023D00016D5700714D504202168C0430861022077
:1023E0002077206880698005800F204602D0FFF7A3
:1023F0003FFE04E000F0A6F8204600F05FF92777E2
:10240000280715D5300713D508202168C043086177
:10241000042020772068C0698007204602D0FFF79B
:1024200027FE04E000F08EF8204600F047F92777F9
:10243000E80616D5F00614D510202168C0430861BF
:10244000082020772068C0698005800F204602D0D0
:10245000FFF70EFE04E000F075F8204600F02EF9BC
:102460002777E80708D0F00706D001202168C0438D
:102470000861204600F0D0F9280601D4A80407D549
:10248000300605D52168134808612046FFF747FC50
:10249000E80507D5300605D521680F4808612046B4
:1024A000FFF73CFC680608D5700606D54020216879
:1024B000C0430861204600F0CFF9A80608D5B00651
:1024C00006D520202168C04308612046FFF728FC7C
:1024D000F8BD00007FDFFFFFFFFEFFFFF0B587B014
:1024E000044614216846FDF73AFE134F266805237B
:1024F00000221249012402251807BE4207D14E6B63
:1025000026434E63496B2140059140210AE00C4F60
:10251000BE420FD14E6B26434E63496BC907C90FAC
:1025200005918021009102920195049303926946DE
:10253000FEF7CEFC07B0F0BD0044014000100240A1
:10254000004801407047F8B5044600202646203672
:102550000090307F0D4601280CD0012008273077ED
:102560000C2A48D008DC002A10D0042A1ED0082AE1
:1025700006D130E00220F8BD102A52D0142A60D0D3
:1025800001200090002030770098F8BD206801F00D
:1025900047FC206881693943816120688169042290
:1025A00091438161206881692A6911E0206801F006
:1025B00075FC206881690122D20211438161206883
:1025C0008169521091438161206881692A691202F0
:1025D00011438161D6E7206801F09EFC2068C16943
:1025E0003943C1612068C16904229143C1612068F7
:1025F000C1692A6912E0206801F0CCFC2068C16939
:102600000122D2021143C1612068C26901218902FD
:102610008A43C2612068C1692A6912021143C161FB
:10262000B0E7206801F0EAFC2068416D394341655C
:102630002068426D04218A4342652068416D2A6901
:1026400012E0206801F008FD2068416D0122D202ED
:10265000114341652068426D012189028A43426528
:102660002068416D2A691202114341658AE770B5FD
:10267000040005D025462035687F002802D006E0FA
:10268000012070BD00202877204600F016F80220B7
:102690006877211D206801F05DFB01224034227221
:1026A000AA77EA7722706270A270E270227162717A
:1026B000A271E2716A77002070BD70477047000018
:1026C00030B505460223203000290ED0042911D050
:1026D0002C464034082912D00C2915D0102918D0C6
:1026E000E278012A1AD0012030BD827F012AFAD176
:1026F000837714E0C27F012AF5D1C3770FE02278F7
:10270000012AF0D123700AE06278012AEBD16370CC
:1027100005E0A278012AE6D1A37000E0E37001226F
:10272000286801F05BFB114A2868904205D01049E7
:10273000884202D00F49884204D1416C0123DB0357
:102740001943416428680121904202D00A4A90420C
:1027500007D18268094B1A40062A05D0DB1F9A422E
:1027600002D002680A430260002030BD002C014004
:1027700000440140004801400004004007000100FF
:1027800070B504460D460068002201F027FB1F4982
:102790001D4B20688A10984205D01D4B984202D0EC
:1027A0001C4B98420AD1036A0B4207D1036A1342B9
:1027B00004D1436C0126F603B34343642068036AE3
:1027C0000B4206D1016A114203D101684908490050
:1027D0000160214620310120002D0BD0042D0BD0AB
:1027E0004034082D0AD00C2D0AD0102D0AD0E070EC
:1027F000002070BD8877FBE7C877F9E72070F7E71E
:102800006070F5E7A070F3E7002C014011110000A3
:10281000004401400048014010B500680B4988425F
:1028200013D10B484188491C41804188C9070CD10C
:102830004180012003F074FA064BD880022003F097
:102840006FFA1881187803F0F7F910BD0004004002
:102850000000002024000020704710B501468031A0
:102860000A79012A15D001220A7124228A6002689D
:1028700013681468640864001460012252079343CB
:102880000022426600680360202088600A711046BA
:1028900010BD022010BD7047704770B50446054654
:1028A0008034207901281AD0012020712420A060D2
:1028B0002868066802685208520002602868826828
:1028C00007235B069A430A438260284601F058FCBE
:1028D000286806602020A0600020207170BD0220C2
:1028E00070BD70B50446054680342079012819D0A2
:1028F000012020712420A060286806680268520820
:102900005200026028688268D200D2080A438260BE
:10291000284601F035FC286806602020A0600020D1
:10292000207170BD022070BD7047704770B500689F
:10293000104988421DD110480378427881789C184C
:102940006418E5B2C67800240C48B54204700BD177
:10295000FF2B02D0AA2B05D006E010024018084930
:10296000488001E04270817001220649064800F06B
:1029700023FB70BD004400402E00002032000020E8
:10298000240000202100002000060020F8B5EFF30D
:102990001081012282F3108802681368FF24213419
:1029A000A343136081F31088EFF31081012282F3B7
:1029B000108802689368264C2340936081F3108846
:1029C000C16E01290BD1EFF31081012282F310882F
:1029D000026813681024A343136081F3108805680C
:1029E000A96803464A060446002140338034002A81
:1029F00029DAEFF31082012686F31088AE684027AB
:102A0000BE43AE6082F310882268002A0AD01148C3
:102A100090632068FEF728F9002812D02068816BA7
:102A200088470EE0D983816503680F221A62026825
:102A3000936908252B4393612022E260C166FFF76A
:102A400075FF0020F8BDD9830F2281652A62F3E764
:102A5000FEFFFFEF67440008F8B5054604468035E1
:102A6000A868EE6821688A6810271206002A1BDA17
:102A7000212819D1EFF31080012282F310888A688F
:102A800080239A438A6080F31088E06F002808D082
:102A9000FEF7B0F8002804D0E06FFEF723F92028F5
:102AA00024D0204601F026FD2168886840061BD509
:102AB000222E19D1EFF31080012282F310888A6848
:102AC00040239A438A6080F310882868002808D041
:102AD000FEF790F8002804D02868FEF703F92028B4
:102AE00004D0204601F0D4FC0020F8BD2F61032063
:102AF000F8BD7047F8B503680446D96918689A6844
:102B0000B44D0E462E4025468035002E75D0B24E6F
:102B1000B24F1640074037436ED0CF0706D0C705E7
:102B200004D501271F622B693B432B618B0708D516
:102B3000D30706D0276802233B622B6904273B4357
:102B40002B614B0708D5D30706D0276804233B62C7
:102B50002B6902273B432B610B0709D52023034038
:102B6000334305D02668082333622E691E432E6145
:102B70000B0509D5430107D501232668DB02336223
:102B80002B69202633432B612B69002B42D0890609
:102B90000AD520210840C9050A40104304D0616FBE
:102BA000002901D02046884728692168896849069C
:102BB00002D42821084232D0204601F069FC216865
:102BC0008868400627D5EFF31080012282F3108831
:102BD0008B68402293438B6080F31088286800281C
:102BE00019D07F4981632868FEF73EF8002811D08C
:102BF0002868816B0DE000E017E08E0615D50127EF
:102C000020263F07064017403E430ED0616FB5E0D7
:102C100020468847F8BD2046FFF76BFFF8BD2046E9
:102C2000FFF767FF00202861F8BDE66E012E7DD119
:102C3000CE067BD5C60679D510221A62236898681D
:102C4000264640064036002849DA29680868406868
:102C50000004000CE8D0B78B8742E5D9F083086800
:102C60000068800634D4EFF31080012181F31088CE
:102C700019681701B943196080F31088EFF31080C9
:102C8000012181F3108821688B685B085B008B60F1
:102C900080F31088EFF31080012181F31088216800
:102CA0008B684027BB438B6080F310882020E8604E
:102CB0000020E066EFF31080012181F31088216885
:102CC0000B6893430B6080F310882868FDF792FF30
:102CD00002202067B08BF18B401A81B235E0B08BB7
:102CE000F18B401A81B2F08B00289DD000299BD037
:102CF000EFF31080012686F310881E68FF27213726
:102D0000BE431E6080F31088EFF31080012383F32D
:102D1000108823689E68304FFF433E409E6080F3DA
:102D200010882020E8600020E06600E011E0606785
:102D3000EFF31080012383F3108823681D68954307
:102D40001D6080F31088022020672046FFF7A3FD56
:102D5000F8BDCE0208D5560206D50120000518623E
:102D60002046FFF7E2FDF8BD0E060BD501278026B1
:102D7000FF0506403A40164304D0A16F002900D059
:102D800046E7F8BD4A0614D5420612D52046EFF3B1
:102D90001081012282F310881A684024A2431A602D
:102DA00081F310882021A9600021816700F0DAF901
:102DB000F8BD0A0205D5420003D52046FFF7B4FD51
:102DC000F8BDC901FCD50028FADA2046FFF764FDFA
:102DD000F8BD00000F0800000100001020010004F1
:102DE0004943000870B5040005D025468035A86821
:102DF000002802D006E0012070BD00202871204686
:102E000000F026F82420A8602068016849084900DD
:102E10000160A06A002802D0204601F0D3F92046C4
:102E200001F00AFE0128E7D0206841680922D20299
:102E300091434160206881682A2291438160206823
:102E40000168012211430160204601F021FA70BDA2
:102E5000F0B58DB0064614216846FDF780F91821BB
:102E600005A8FDF77CF9384A31680120374D022763
:102E70000024914240D10590069405A8FEF79EFBE0
:102E8000002801D0FDF7B4FE30484030026801212F
:102E900089030A430260006808400B90686B38435E
:102EA0006863686B029438400B90C02000900394D4
:102EB0006946019704942648FEF70AF8264D2548EE
:102EC0002860AC603220EC6068606C61AC61EC61E1
:102ED00080202C6228612846FDF762FF002801D07F
:102EE000FDF786FE80208551002211461B20AE6230
:102EF000FEF73AFB1B2022E0184A914221D1EA6BEF
:102F0000012149040A43EA63EA6B0A400B92696BA8
:102F100001436963696B0490C907C90F0B910C21C8
:102F20000091052002940197039469460007FDF77C
:102F3000CFFF002211461C20FEF716FB1C20FEF7D7
:102F400007FB0DB0F0BD000000380140001002404A
:102F50000004005008000240940600200044004095
:102F600070B58C231B58202B01D0022070BD002986
:102F70000BD0002A09D0012483682403A34206D180
:102F80000369002B03D1CB0701D0012070BD0023C2
:102F9000C366046863681B020BD5EFF31083012539
:102FA00085F3108825680126B6063543256083F32E
:102FB000108801F0F5FD70BD70B58C231B58202BD7
:102FC00001D0022070BD00290BD0002A09D00124B5
:102FD00083682403A34206D10369002B03D1CB07E6
:102FE00001D0012070BD0023C366046863681B0222
:102FF0000BD5EFF31083012585F310882568012692
:10300000B6063543256083F3108801F01FFE70BDBE
:1030100010B50068184988421CD1184C2146A38875
:10302000C81DFF304A88002B07D01818A11DFDF7D6
:103030007DF8A0886188401803E0A11DFDF776F8AF
:103040006088A080FF210131A01DFDF788F80120D4
:10305000207010BD0A498842FBD10C4A09490A4C2C
:1030600010780B782354401C107000200870012247
:103070000748FFF7A1FF10BD003801409400002071
:1030800000440040210000202E00002032000020DB
:10309000000600207047FFB5064604468036B0683B
:1030A00083B00D46202802D0022007B0F0BD002DCD
:1030B0000CD00598002809D00120A16800038142A6
:1030C00006D12069002803D1E80701D00120ECE7F0
:1030D000002030612120B060FDF7B6FF0190274647
:1030E00040370598B8820598F8820120A16800034E
:1030F000814202D12069002802D00295002515E006
:103100000020029012E000228021204601F034FECF
:10311000002818D10298002819D021680078886208
:103120000298401C0290F88A401EF882F88A019B9F
:10313000002806980090E6D100224021204601F0A8
:103140001BFE00280AD02020B0600320ADE72888AD
:103150002168C005C00D8862AD1CE4E72020B06086
:103160000020A2E77047FEE701688A69D243920710
:1031700001D400228A6200688169C943C90703D06B
:103180008169012211438161704700001FB50B0A5C
:103190006A46137351730A23022203A96C460EC4B4
:1031A0000246012382210248FEF7A6F81FBD000057
:1031B0009C030020F7B50446006882B081690026B0
:1031C0002746C906403735460092002945DA1021C6
:1031D000C16132E00398401C2FD0FDF735FF009904
:1031E000411A0398814201D8002826D120684168FD
:1031F000012292031140BA788369DB431B0417D480
:1032000001239B03994213D0202A11D0416819430E
:103210004160FDF719FF00900AE0FDF715FF014638
:103220000098081A192803D920200543012604E034
:1032300020688069C0438006EFD420688069C0435D
:10324000800602D5002EC5D004E0002E02D12168F0
:103250002020C86104200543012621688869C20531
:1032600004D5012215431202CA610126410508D581
:1032700008210D43CA012168CA610126800502D4D4
:103280000AE0800506D50220054321680002C861D6
:10329000012601E0002E0FD02046FFF765FF2068D1
:1032A0004168074A11404160606C284360642020F7
:1032B00078700020B8703870304605B0F0BD00005E
:1032C00000E800FEF8B50446164615481D46DAB279
:1032D0000090079F0023204600F054F83A4620460D
:1032E000069900F0C9F8002818D12846F5B201283F
:1032F00009D02168300A88623A462046069900F0D3
:10330000BBF800280AD1206885620097002240217E
:103310002046069B00F04CF8002800D00120F8BDA4
:1033200000200080F8B50446164615481D46DAB25E
:10333000C3020090079F204600F024F83A4620463A
:10334000069900F099F8002818D12846F5B201280E
:1033500009D02168300A88623A462046069900F072
:103360008BF800280AD1206885620097002280210E
:103370002046069B00F01CF8002800D00120F8BD74
:1033800000200080890510B5890D12041143029CAC
:10339000194302682143490050684908630D034CF2
:1033A000234398430843506010BD0000FF63FF03B0
:1033B000F8B51D4617460E46044626E02946204627
:1033C000069AFFF7F7FE002801D00120F8BD681C1F
:1033D0001BD0FDF739FE0699401AA84201D8002DEE
:1033E00013D120688169304688430CD00020B84250
:1033F0000BD1616C20200143616440346070002077
:10340000A0702070E1E70120F1E720688169304673
:10341000884304D00020B842D0D00020F8BD01205D
:10342000F9E770B516460D4604461EE032462946B9
:103430002046FFF7BFFE002801D0012070BDFDF738
:1034400003FE801BA84201D8002D0ED120688069A0
:10345000C043800609D5616C20200143616440347B
:1034600060700020A0702070E7E720688069C0438A
:103470008006DBD4002070BD70B516460D460446AC
:1034800020E0324629462046FFF794FE002801D06E
:10349000012070BD681C15D0FDF7D6FD801BA84229
:1034A00001D8002D0ED120688069C043800709D55E
:1034B000616C202001436164403460700020A07082
:1034C0002070E5E720688069C0438007D9D40020D8
:1034D00070BD000010B50121C9030020FFF756FEA2
:1034E00005490020FFF752FE012109030520FFF7DF
:1034F0004DFE002010BD00001F3C000008B500215B
:103500006846018009490020FFF740FE6946022015
:1035100000F00EF868460088C008FDF718F8022190
:10352000FCF7E2FEFDF72EF880B208BD1F3C00005C
:103530001FB50C4602220A2303A9019202930091AF
:103540000246012382210448FDF72CFE684680894B
:1035500040BA20801FBD00009C03002008B5084829
:10356000816B012211438163806B10400022009027
:1035700011460920FDF7F8FF0920FDF7E9FF08BD16
:1035800000100240F0B587B014216846FCF7E7FD53
:103590001C48426B02210A434263426B0A40059277
:1035A000426B04210A434263426B0A400592416B1D
:1035B000012529434163406B03242840124EA40394
:1035C0000590002221463046FDF738FD05273F07CC
:1035D000002223213846FDF731FD00940024019597
:1035E0000294694630460394FDF772FC2320009054
:1035F00002946946019503943846FDF769FC07B0CB
:10360000F0BD0000001002400008005010B5134843
:1036100011490160124941600021816001614161ED
:1036200081610122C161C2600162FDF75DFD002878
:1036300001D0FDF7DDFA00210848FDF70BFD002859
:1036400001D0FDF7D5FA00210448FDF728FD002838
:1036500001D0FDF7CDFA10BD005800409C030020BA
:10366000BC7D70101FB500241449154800940194C6
:103670000294039412C0046044608021846001615C
:103680000838FEF7D5FB002801D0FDF7B1FA0C4849
:10369000FEF7AEFD002801D0FDF7AAFA0A2000903F
:1036A0000120019002940022694603940448FEF729
:1036B00009FD002801D0FDF79BFA1FBD0020004046
:1036C0008804002010B594B01C210DA8FCF747FD1C
:1036D00034216846FCF743FD21482049016000245D
:1036E0003F2184604160046144611E498461C1607E
:1036F000FEF79EFB002801D0FDF77AFA1848FEF786
:10370000B6FF002801D0FDF773FA602012940E94E2
:103710000D900F941094119400220DA91394104849
:10372000FEF711FF002801D0FDF762FA0120009496
:10373000400301940294059003940494069469460E
:103740000C940748FEF7EEFA002801D0FDF750FA76
:103750000348FEF7C3FE14B010BD00000044014052
:10376000D4040020E703000010B594B01C210DA87C
:10377000FCF7F5FC34216846FCF7F1FC21482049B0
:10378000016000243F2184604160046144611E495E
:103790008461C160FEF74CFB002801D0FDF728FAD8
:1037A0001848FEF764FF002801D0FDF721FA6020D9
:1037B00012940E940D900F941094119400220DA960
:1037C00013941048FEF7BFFE002801D0FDF710FA51
:1037D0000120009440030194029405900394049402
:1037E000069469460C940748FEF79CFA002801D01D
:1037F000FDF7FEF90348FEF771FE14B010BD00009E
:103800000048014020050020E703000010B588B003
:1038100000240594069418491848049400940194CF
:103820000294039412C0046044608460C460046124
:103830000838FEF7DDFC002801D0FDF7D9F9049423
:10384000059404A90D480694FEF7C0FA002801D09B
:10385000FDF7CEF90A200090012001900294002289
:10386000694603940548FEF72DFC002801D0FDF7BA
:10387000BFF908B010BD0000002C0140F00300208B
:1038800010B588B000240094019417480294039462
:1038900004940594134906940160144984604160BE
:1038A00063210461C16080218161FEF7C1FA0028B3
:1038B00001D0FDF79DF901200003009069460A48F8
:1038C000FEF766FB002801D0FDF792F9049404A9E5
:1038D00005480694FEF77AFA002801D0FDF788F92A
:1038E00008B010BD000400403C040020FF18000098
:1038F00010B5184816490160E121490241600021D4
:103900008160C16001618161C16101620C2241621B
:1039100042618162FFF766FA002801D0FDF768F97D
:1039200000210C48FEF7DDFF002801D0FDF760F90B
:1039300000210848FEF7B1FF002801D0FDF758F933
:103940000448FEF78AFF002801D0FDF751F910BDA9
:10395000003801406C05002010B50D480B4901608E
:103960004B21C901416000218160C1600161816119
:10397000C16101620C22416242618162FFF732FA49
:10398000002801D0FDF734F910BD000000440040CC
:103990000006002070B50C460E4E0546012100229F
:1039A00089033046FDF74AFB0122D1033046FDF77B
:1039B00045FB05263607002202213046FDF73EFB77
:1039C000012220213046FDF739FB034845630348B7
:1039D000446370BD000800500044014000480140AD
:1039E00070B50F4E0C460546012291033046FDF797
:1039F00025FB002231013046FDF720FB0526360766
:103A0000002202213046FDF719FB01222021304619
:103A1000FDF714FB034845630348446370BD000091
:103A200000080050004401400048014010B5144C0B
:103A30000121002289032046FDF700FB002221011D
:103A40002046FDF7FBFA0524240700220221204628
:103A5000FDF7F4FA002220212046FDF7EFFA09498C
:103A600000204863084948630849C88088800146A7
:103A70000748FEF785FE00210648FEF781FE10BDCF
:103A800000080050004801400044014000000020B0
:103A9000D40400202005002010B5144C012291030D
:103AA0002046FDF7CBFA0122D1032046FDF7C6FAE6
:103AB00005242407012202212046FDF7BFFA012236
:103AC00020212046FDF7BAFA094900204863094938
:103AD00048630949C880888001460848FEF7F0FD20
:103AE00000210748FEF7ECFD10BD00000008005063
:103AF000004401400048014000000020D4040020A0
:103B00002005002070B50C460E4E0546012100220E
:103B100089033046FDF792FA0122D1033046FDF7C2
:103B20008DFA05263607012202213046FDF786FA76
:103B3000002220213046FDF781FA034845630348FF
:103B4000446370BD0008005000440140004801403B
:103B500070B50F4E0C460546012291033046FDF725
:103B60006DFA002231013046FDF768FA0526360766
:103B7000012202213046FDF761FA00222021304661
:103B8000FDF75CFA034845630348446370BD0000D9
:103B900000080050004401400048014010B5124C9C
:103BA0000121002289032046FDF748FA0022210165
:103BB0002046FDF743FA052424070022022120466F
:103BC000FDF73CFA002220212046FDF737FA07498D
:103BD00000204863064948630649C8808880064932
:103BE0000881C88010BD0000000800500048014056
:103BF000004401400000002024000020FEE70000F7
:103C0000FEB514460D461060FCF729FBA060E6687F
:103C1000074601213046FCF767FB3946FCF723FBDA
:103C20002169FCF7CBFAE169FCF721FB01903946E9
:103C3000A069FCF71CFB009031463846FCF70FFBEF
:103C40006169FCF714FB0099FCF7B8FA0199FCF7DD
:103C5000B5FA01462846FCF7B1FA0649E760266145
:103C60006060884202DB0449884200DD6160606870
:103C7000FEBD00000000484300007A440A490020CD
:103C80000860486088607F22C860D2054A61086188
:103C90008A61C8612031086048608860C8604A61F4
:103CA00008618A61C86170475400002070477047FE
:103CB00010B5FDF7F7FB10BD30B591B03421684663
:103CC000FCF74DFA002501200D950E950F95400249
:103CD0001095FDF74DFC0224E00103900094402074
:103CE000059008200A9080030B9007940003049528
:103CF0000C90099508946846FDF70CFE002801D049
:103D000072B6FEE707200DA931C102210DA810955A
:103D1000FDF7FAFC002801D072B6FEE711B030BD05
:103D20007047000010B50248FEF734FB10BD0000DC
:103D30008804002010B50248FEF72CFB10BD0000DF
:103D4000F003002010B50248FEF724FB10BD000070
:103D50003C04002070B502681B4B1C4E984201D0F9
:103D6000B04203D17024A2434C682243184C194D31
:103D7000984208D0B04206D0174EB04203D0A042BD
:103D800001D0A84204D103263602B243CE683243A2
:103D90008026B2434E69324302608A68C2620A6872
:103DA0008262984203D0A04201D0A84201D10969A1
:103DB0000163012141610169C90703D00169490813
:103DC0004900016170BD0000002C0140000400406A
:103DD00000440140004801400020004010B5CB06DF
:103DE000DB0E0121046A99408C430462016A9A4007
:103DF0001143016210BD30B58468FF252D021B02FE
:103E00001343AC430B432343836030BD8268034BB1
:103E10001A400A4307210A43826070478FFFCFFF91
:103E2000F0B5056A026A520852000262436882696C
:103E3000164C184E224092080C689200144302223D
:103E400095438A682A43124DA84204D0B04202D05A
:103E5000114FB84206D10827BA43CF68174304224E
:103E600097433A46A84204D0B04202D00A4DA84235
:103E700006D103252D02AB434D691D438B692B43AE
:103E800043608461496841630262F0BD8FFFFEFFB9
:103E9000002C0140004401400048014070B5046A14
:103EA000026A10239A43026243688269164D2A40CF
:103EB00003252D02AA430D682D02154320229443A9
:103EC0008A6812012243114CA04207D18024A243E8
:103ED000CC68402624012243B24305E00C4CA042AA
:103EE00002D00C4CA04208D10324A402A3434C6985
:103EF000A4001C438B699B00234343608561496890
:103F00008163026270BD0000FF8FFFFE002C014044
:103F1000004401400048014070B5046A026AFF2372
:103F200001339A4302624368C269164D2A409208DF
:103F30000D68920015430122520294438A681202CE
:103F40002243114CA04208D11446CA68C614B44397
:103F5000120222430415A24305E00C4CA04202D0F9
:103F60000B4CA04208D103242403A3434C69240131
:103F70001C438B691B0123434360C5614968C163CE
:103F8000026270BD8FFFFEFF002C01400044014023
:103F90000048014030B5046A026A01231B039A43BA
:103FA00002624368C269114D2A4003252D02AA43CB
:103FB0000D682D0215430122520394438A681203AF
:103FC00022430B4CA04205D00A4CA04202D00A4C1E
:103FD000A04205D10124A403A3434C69A4012343B7
:103FE0004360C56149680164026230BDFF8FFFFE16
:103FF000002C0140004401400048014070B5036AB4
:10400000026A01263604B24302624268456D0E4CD4
:1040100025400C682C437500AB430D892D041D43CE
:104020000A4B984205D00A4B984202D0094B98425D
:1040300003D14B69B2431B021A434260446549688D
:104040008165056270BD00008FFFFEFF002C0140FE
:10405000004401400048014070B5046A026A01232F
:104060001B059A4302624268436D104D2B400D6858
:104070002D021D4301235B059C430B891E050C4B40
:104080002643984205D00B4B984202D00A4B9842E7
:1040900006D101241346A4044A69A34392021A4399
:1040A000426045654968C165066270BDFF8FFFFECD
:1040B000002C0140004401400048014030B5036A33
:1040C000046A6408640004628469F025AC43120148
:1040D00022430A24A3430B438261036230BD0000E4
:1040E00070B5056A046A64086400046284690B4E52
:1040F000B04202D00A4EB04202D1A408A40000E0AF
:1041000001221443F02294431A07120E0A23224379
:104110009D43194029438261016270BD002C01401A
:104120000004004030B5046A036A1025AB43036203
:1041300083690F252D031203AB431A43A0239C432D
:10414000090121438261016230BD70B5056A046ACC
:104150001026B4430462846903263602B443120273
:1041600022430F2424031B071B0CA2431343A0224A
:1041700009019543114029438361016270BD00002C
:10418000F8B50446416E4034002915D000688168B6
:10419000806809014D0F0A4E400F3746315C083FD9
:1041A000385CC000FBF7A6FF6085785D715DC000DC
:1041B000FBF7A0FF2085F8BD01206085FAE700002D
:1041C000346F000810B5018D090707D501684A68EA
:1041D0000123DB039A43836B1A434A60018DC907AD
:1041E00007D001684A6801235B049A43C36A1A43F3
:1041F0004A60018D890707D501684A6801231B04BD
:104200009A43036B1A434A60018D490707D5016839
:104210004A6801239B049A43436B1A434A60018D09
:10422000C90607D50268916801231B039943C36B34
:1042300019439160018D890607D501688A680123B9
:104240005B039A43036C1A438A60018D490612D5B9
:1042500003685A6801210905446C8A4322435A6065
:10426000426C8A4207D10268516803235B05994377
:10427000836C19435160018D090607D501684A68AE
:104280000123DB04C06C9A4302434A6010BD000066
:10429000FEB505460026803504462E61FCF7D4FEA7
:1042A00001902068006820270007002817DA2548B9
:1042B0000090002239042046019B00F05DFD00289B
:1042C0000DD0EFF31080012181F3108821680A6876
:1042D00080239A430A6080F31088AF6028E020684A
:1042E0000068400727D51748009001210022890562
:1042F0002046019B00F040FD00281CD0EFF3108009
:10430000012181F3108821680A68FF2321339A4331
:104310000A6080F31088EFF31080012181F3108888
:1043200021688A68520852008A6080F31088EF6022
:104330002E710320FEBDAF60EF60E66626672E712A
:104340000020FEBDFFFFFF0110B5806A002201467C
:104350004031CA83CA82FEF7CCFB10BDF8B5846A2F
:104360002046803081680546C6682068806800273E
:104370000006002806DA212904D1562007532046DA
:1043800000F0B8F820688068400606D5222E04D1D7
:104390005E200753204600F07BF82869102108436F
:1043A00028612046FEF7A5FBF8BD70B501460968F7
:1043B000806A096800228906002938DB5E210A52DA
:1043C000EFF31081012383F3108803681C68FF2535
:1043D0000135AC431C6081F31088EFF31081012399
:1043E00083F3108803689C68640864009C6081F310
:1043F0001088EFF31081012383F3108803689C6811
:104400004025AC439C6081F3108820238C210B5005
:10441000C16E01290BD1EFF31081012383F31088C2
:1044200003681C681025AC431C6081F31088026788
:10443000C16E012902D0FEF7EBFD70BD5C21095A67
:10444000FEF729FA70BD10B5806A01210167C16EBF
:10445000012902D0FEF71EFE10BD5C21095A490851
:10446000FEF719FA10BD10B5806A00215E221152C4
:1044700003680F221A620268936908242343936138
:1044800020238C221350C166FEF750FA10BD0000A5
:1044900010B5EFF31081012282F3108802681368CF
:1044A000FF242134A343136081F31088EFF31081BC
:1044B000012282F31088026893680D4C23409360B8
:1044C00081F31088C16E01290BD1EFF31081012215
:1044D00082F31088026813681024A343136081F3E9
:1044E000108820228C210A500021C166416710BD2E
:1044F000FEFFFFEF10B5EFF31081012282F3108869
:1045000002681368C024A343136081F31088EFF39B
:104510001081012282F31088026893680124E40567
:10452000A343936081F3108820218030816010BD07
:1045300070B501464031034680330C8CDD6802685B
:10454000222D04D0906908210843906170BD526A01
:10455000856D22402A80826D921C8265CA8B521E14
:10456000CA83CA8B002AF1D1EFF31082012484F3AD
:10457000108804682568FF262136B543256082F33C
:104580001088EFF31082012484F310880468A56872
:104590006D086D00A56082F310882022DA60002388
:1045A000436703670468626812020BD5EFF3108259
:1045B000012585F3108825680126B606B5432560D8
:1045C00082F31088C26E012A02D0FEF721FD70BD71
:1045D000C366EFF31082012383F310880468256813
:1045E00010239D43256082F310880268D469E44358
:1045F000E40600D41362898BFEF74DF970BD00000C
:10460000F0B50546044640358BB0288C02902068F2
:10461000C669016806918168049121468031009144
:10462000C968222905D081690822114381610BB034
:10463000F0BD2F8D79E02068406A029AA16D10408C
:104640000880A06D801CA065E88B401EE883206870
:10465000C669710731D0F10709D00699C90506D599
:104660000121016200980069084300990861B007C0
:104670000BD50498C00708D0216802200862009872
:104680000069042108430099086170070BD504985C
:10469000C00708D021680420086200980069022140
:1046A00008430099086100980069002805D0204659
:1046B000FEF71FFA009900200861E88B002834D12A
:1046C000EFF31080012181F3108821680A68FF232D
:1046D00001339A430A6080F31088EFF310800121C0
:1046E00081F3108821688A68304B1A408A6080F311
:1046F000108800982021C160002060672067216831
:10470000486800020BD5EFF31080012282F3108875
:104710000A6801239B069A430A6080F31088E06EC2
:10472000012829D02046FEF773FC002F01D0B006E7
:1047300081D4E88B002800D179E7298D8142FBD90B
:10474000EFF31080012181F3108821688B6801222A
:10475000120793438B6080F3108815486067EFF36E
:104760001080012181F310882268116820231943E9
:10477000116080F310885AE70020E066EFF31080A4
:10478000012181F310882268136810218B43136084
:1047900080F310882068C269D243D20600D4016237
:1047A000A98B2046FEF777F8BFE70000FEFFFFEF7A
:1047B0003145000870B501464031034680330C8C0A
:1047C000DD680268222D04D09069082108439061B9
:1047D00070BD526A2240846D2270826D521C8265C7
:1047E000CA8B521ECA83CA8B002AF1D1EFF3108202
:1047F000012484F3108804682568FF262136B54318
:10480000256082F31088EFF31082012484F310886E
:104810000468A5686D086D00A56082F310882022E9
:10482000DA600023436703670468626812020BD5ED
:10483000EFF31082012585F3108825680126B6065E
:10484000B543256082F31088C26E012A02D0FEF7BC
:10485000DFFB70BDC366EFF31082012383F3108882
:104860000468256810239D43256082F31088026840
:10487000D469E443E40600D41362898BFEF70BF895
:1048800070BD0000F0B50546044640358BB0288C5D
:1048900002902068C66901680691816804912146EA
:1048A00080310091C968222905D08169082211430D
:1048B00081610BB0F0BD2F8D79E02068406A0299CC
:1048C0000840A16D0870A06D401CA065E88B401EDB
:1048D000E8832068C669710731D0F10709D00699CD
:1048E000C90506D5012101620098006908430099B5
:1048F0000861B0070BD50498C00708D021680220D2
:104900000862009800690421084300990861700753
:104910000BD50498C00708D02168042008620098CD
:104920000069022108430099086100980069002885
:1049300005D02046FEF7DDF8009900200861E88BDD
:10494000002834D1EFF31080012181F31088216811
:104950000A68FF2301339A430A6080F31088EFF35B
:104960001080012181F3108821688A68304B1A4039
:104970008A6080F3108800992020C860002060675A
:1049800020672168486800020BD5EFF310800122F0
:1049900082F310880A6801239B069A430A6080F319
:1049A0001088E06E012829D02046FEF731FB002F49
:1049B00001D0B00681D4E88B002800D179E7298D99
:1049C0008142FBD9EFF31081012080F31088206829
:1049D000826801231B079A43826081F3108815487F
:1049E0006067EFF31080012181F3108821680A6865
:1049F00020231A430A6080F310885AE70020E066FB
:104A0000EFF31080012181F31088226813681021D0
:104A10008B43136080F310882068C269D243D206AA
:104A200000D40162A98B2046FDF735FFBFE70000E7
:104A3000FEFFFFEFB5470008F8B50446806821691E
:104A4000E26908436169002511432268084311683F
:104A50004B4B194001431160206841680322120347
:104A60009143E26811434160A169206A08432168CB
:104A70008A68444B1A4002438A602068C16A626AAD
:104A8000090909011143C1623F492068884211D1D7
:104A90003E4840698007800F0FD0012806D00228C9
:104AA00002D003280BD103E0022109E0042107E032
:104AB000082105E03649884201D1002100E010219B
:104AC0000120E369C003334A334E344F834227D178
:104AD000002906D0022907D0042907D008293FD190
:104AE00008E0FCF7BDFE03E0104603E0FCF7CCFE57
:104AF00000283AD0616A4900715AFBF7FBFA6168F5
:104B000040004A088018FBF7F5FA01461039B9420F
:104B100026D82249491C01400007400F084322E0E3
:104B2000002906D0022907D0042907D0082917D167
:104B300008E0FCF795FE03E0104603E0FCF7A4FE56
:104B4000002812D0616A4900715AFBF7D3FA6168F4
:104B50004A088018FBF7CEFA01461039B94201D94C
:104B6000012502E080B22168C86020460121403062
:104B70004185018500206067A0672846F8BD0000D8
:104B8000F369FFCFFFF4FF110038014040100240ED
:104B9000004400400024F400146F0008EFFF000000
:104BA00070B50446816540308283002025468035FB
:104BB00028612221E9602968002919D0204BCB62A5
:104BC0002B68204919632B681F49596329681346CC
:104BD0008863A66D2168324624312868FCF732F9D3
:104BE000002805D0102028612020E860012070BD39
:104BF000206900280CD0EFF31080012181F3108888
:104C000021680A68FF2301331A430A6080F3108881
:104C1000EFF31080012181F31088226893680B4321
:104C2000936080F31088EFF3108081F3108821687F
:104C30008A6840231A438A6080F31088002070BD80
:104C4000AB430008474400085D430008F0B58165A8
:104C5000014640318A83CA83002545670124836861
:104C60002403FF26A34204D10369002B13D13D4B3B
:104C70000AE07F27002B09D001263607B3420CD16A
:104C80000369002B05D03F230B8407E00369002B49
:104C900001D00F8402E00E8400E00D8403468033CF
:104CA0001D612225DD60EFF31083012585F3108857
:104CB0000568AE6801273E43AE6083F31088436EFB
:104CC0007D07AB4229D1098D914226D88168A14246
:104CD00002D1016900291DD02349416701690029DA
:104CE0000CD0EFF31081012282F310880268136860
:104CF000FF2401342343136081F31088EFF3108104
:104D0000012282F310880068826801231B071A437E
:104D1000826023E015494167F0E78168A14202D132
:104D2000016900290ED012494167016900290BD0A1
:104D3000EFF31081012282F3108800680268FF23DC
:104D4000213309E00B494167EFF31081012282F31F
:104D500010880068026820231A43026081F31088DB
:104D60000020F0BDFF010000854800080146000852
:104D7000B547000831450008FFB581B005460E462D
:104D8000044680350A9F32E0781C30D0FCF75CF98D
:104D90000499401AB84218D8002F16D0206801682C
:104DA000490724D5802E22D0402E20D0C169C94386
:104DB00009070CD4082606622046FFF769FB2E611E
:104DC00000202871012005B0F0BD0320FBE7C06979
:104DD000C04300050BD401202168C00208622046B0
:104DE000FFF756FB2020286100202871EDE720689E
:104DF000C1693046884305D0002103988142C3D061
:104E00000020E0E70121F8E770B5104D2868C1697E
:104E10000F4EC9430F4CC9060FD41021016228461A
:104E2000FDF71AFE2868C169406A0B4800684068AF
:104E3000301A60802846FEF7EBF80448FDF75AFE6A
:104E40003246A11D0148FEF78BF870BD6C050020AD
:104E500000010000940000209406002010B50748CF
:104E6000FDF748FE05480068C169C943C90604D476
:104E7000102101620148FDF789FD10BD00060020E8
:104E80000FB410B504A9074B02AA039800F0B8F9B3
:104E9000044602A9002000F051FD204610BC08BCC9
:104EA00004B018473D5900082021020C01D0102100
:104EB0001046020A01D010460839020901D01046F6
:104EC000091F820801D01046891E420801D0881EA1
:104ED0007047081A704730B47446641E2578641C05
:104EE000AB4200D21D46635D5B00E31830BC18473F
:104EF0004900CA020243100000D004204A0D01D02C
:104F000001221043044A490D914201D10221084374
:104F1000012800D105207047FF0700008307FF220A
:104F2000DB0E9A408907090E9940002808DB8308A8
:104F300009489B001B181868904308431860704785
:104F40000007000F0838830804489B001B18D86925
:104F500090430843D861704700E400E000ED00E0B2
:104F6000F8B504464F1EC8000838211815461E46DD
:104F7000086849683A4606239A4310D02A463346C1
:104F8000FBF772FA3A46D200083AA3181A687F1E55
:104F90005B68FBF7B5F906223B469343EED1022F3F
:104FA00023D0042F11D0062F2FD12A463346FBF7EA
:104FB0005BFAE36AA26AFBF7A3F92A463346FBF7DA
:104FC00053FA636A226AFBF79BF92A463346FBF7DA
:104FD0004BFAE369A269FBF793F92A463346FBF7DC
:104FE00043FA63692269FBF78BF92A463346FBF7DC
:104FF0003BFAE368A268FBF783F92A463346FBF7DE
:1050000033FA63682268FBF77BF9F8BD002210B51C
:10501000134610460149FBF737FC10BD0000F03F76
:1050200010B5FBF76DF910BD002210B51346104600
:105030001146FBF729FC10BD10B50721024A0020DC
:105040000907FBF799FC10BD01030000034A10B5E6
:1050500000201107FBF790FC10BD000001FDFFFFD1
:1050600002E008C8121F08C1002AFAD17047704731
:10507000002001E001C1121F002AFBD1704700008F
:10508000014908607047000050000020F0B51FB4CF
:1050900086B00998089A030D0021024314D05148A4
:1050A000514A1818504305141198012810981AD025
:1050B000281A401C00264D4F4D490096019104903E
:1050C000002812DA444211E01198012449A3012872
:1050D00001D11098C1430698119A84600360C260A0
:1050E00041600BB0F0BD4042E4E7044621050020DA
:1050F0003F4A001C51410391029012E0E00707D0A3
:1051000032463B4601990098FBF7AEF901910090B9
:1051100032463B4610461946FBF7A6F906460F46AF
:105120006410002CEAD10498039B0028029A099984
:10513000089806DAFBF798F9019B009AFBF794F9B7
:1051400005E0FBF7A1FB019B009AFBF79DFB0446E2
:105150000E460022284BFBF77FFA03D80020C043FD
:10516000014607E00022254B20463146FBF7C8F8F0
:10517000FBF718FC102409E0002C0ADB0A220023AC
:10518000FBF77EFA079B30321A55641E02460A432B
:10519000F2D11122641C079B121B1C19119B012BBD
:1051A00003D0012308430ED10AE0084304D01120A4
:1051B00010900020119077E71098151A6D1E0BE0E3
:1051C0001098824202DD00236D1C03E0824201DA66
:1051D00000236D1E002BEED0069811998260C160ED
:1051E00030C07EE701FCFFFF104D000000001440BE
:1051F0000000F03F300000000000F0430000E03FFE
:10520000FFB597B0064600251BE2252876D100247D
:105210002746F749049400E00443761C32780120C5
:10522000203A90400842F7D130782A280ED0022246
:10523000307801463039092916D804990A23594390
:10524000303940181443761C0490F1E7189802C8CE
:1052500004911890002904DA0120400304434842D5
:10526000049002200443761C30782E2814D10420A8
:1052700004437078761C2A2809D11898761C80C8B7
:10528000189009E00A214F43303FC719761C307847
:10529000014630390929F5D930786C2810D006DC60
:1052A0004C281AD068280ED06A2817D104E0742838
:1052B00013D07A2812D110E00120400504430CE0FD
:1052C0000121090501E0032109050C4371788142A0
:1052D00003D1012000052418761C761C307866283E
:1052E0000BD013DC58287DD009DC00287BD0452862
:1052F000F6D04628F4D047281AD1A9E118E063284F
:1053000035D0642870D0652812D1A1E170286CD006
:1053100008DC6728F1D069287DD06E280DD06F2871
:1053200006D1BCE073282ED0752873D0782859D0C8
:105330001A9A199990476D1C82E16002400F022869
:1053400009D003280DD00428189801680DD00D60ED
:10535000001D189074E11898EA1701680D604A6002
:10536000F6E7189801680D80F2E70D70F0E71898DD
:105370006A4601781172001D18900020507202A830
:105380000090012005E0189802C8189000200091B4
:10539000C04361070ED5002101E00199491C01912C
:1053A000B94213DA8142F8DB019A0099895C00293D
:1053B000F3D10BE0002101E00199491C01918142E8
:1053C000FADB019A0099895C0029F5D101990498CA
:1053D0001A9B471A21463846199A00F099FA401943
:1053E000019903E051E030E115E050E0451807E095
:1053F000009800990078491C00911A9A19999047D1
:105400000198401E0190401CF2D1214638461A9B5B
:10541000199A12E137E00A20002100900191600200
:10542000410F022907D0189A01CA1892C217944650
:10543000032908D00AE01898C01DC108C90005C991
:105440001891944607E000B2C2179446042902D18D
:1054500040B2C1178C4600226146944506DA0A46DE
:105460000021404291418C462D2102E0210504D5C6
:105470002B216A461173012103E0E10701D02021AD
:10548000F7E7029156E00A200AE0102008E0102019
:1054900000900021042004430191082703E0082024
:1054A0000021019100906002410F022907D0189A53
:1054B00001CA189200229446032908D008E01898DF
:1054C000C01DC108C90005C91891944603E080B207
:1054D000042900D1C0B20021029121072AD53178D8
:1054E0000D91702906D0009A1021019B4A401A4361
:1054F00005D00EE040216A461173012108E06146A3
:10550000014306D030216A4611730D99517302216F
:105510000291009A0821019B4A401A430AD1614630
:10552000014301D1610705D530216A46117301217C
:105530007F1E02913178582904D02EA10E910DA919
:105540000D910DE030A1F9E76146019B009AFBF750
:1055500097F80E9B8C469B5C0D9A521E0D92137011
:1055600061460143F0D10D9805A9081A2030019039
:10557000600703D501200004844300E0012701985F
:10558000874201DD381A00E000200199009041189F
:10559000029809180498401A0490E00306D42146A2
:1055A0001A9B199A049800F0B3F94519002706E0F0
:1055B00003A81A9AC05D199990476D1C7F1C029828
:1055C0008742F5DBE0030CD521461A9B199A049813
:1055D00000F09EF9451904E01A9A30201999904775
:1055E0006D1C0099481E00900029F5DC1FE00000AA
:1055F00009280100303132333435363738396162A9
:10560000636465660000000030313233343536376C
:105610003839414243444546000000000D980D9939
:105620000078491C0D911A9A199990476D1C01999F
:10563000481E01900029F1DC4DE100F059F94519AF
:10564000761C3078002800D0DFE528461BB0F0BD7E
:10565000600700D406271898C01DC108C900486813
:105660000A680831C30FDB071891190001D09CA10B
:1056700008E0210501D59BA104E0E10701D09AA132
:1056800000E09AA14300109130785B0865280CD0A7
:1056900006DC452809D046281DD0472841D141E0E5
:1056A000662818D067283CD13CE00021112F01DB8F
:1056B000112000E0781C0191009008A911A8FFF7C3
:1056C000E5FC139905910021119A15927F1C1298FF
:1056D0000197009150E00120C00703900120019044
:1056E00008A9009711A8FFF7D1FC139A1499059205
:1056F0000022119B009212981593059A019200299D
:1057000001D0104602E0791C40180190381A01D5EA
:10571000019804E04042401E0090781C0190C01B9C
:10572000029043E0012F00DA01270021112F01DD53
:10573000112000E038460191009008A911A8FFF758
:10574000A5FC13990591119A0021129815920091C8
:10575000019721070CD40599B94201DB019900E0BA
:105760000191012904DD159A491E515C302906D0AA
:10577000B84201DA011D05DA0121029115E0019913
:10578000491EEDE7002805DC0099411800910199B8
:10579000091A03E0019A411C914200DD0191009930
:1057A000401A401C02900120C0070390200706D435
:1057B00002990198814202DB0020C0430290002040
:1057C0006946C87707AF012103980337C9078842A4
:1057D00024D0022011902B201290039800280CDA7C
:1057E000404203902D20129007E00A210398FAF717
:1057F00081FC30317F1E039039701199481E119041
:105800000029F2DC03980028EFD1791E1298087065
:105810003078202108404530BF1E387006A8C01BD4
:10582000C01D039010980078002800D00120019935
:1058300041180298C0170918039809180498401ACB
:10584000401E0490E00306D421461A9B199A04983E
:1058500000F05EF8451910980078002803D01A9AD5
:10586000199990476D1CE00324D521461A9B199A7B
:10587000049800F04DF845191CE00098002807DB5B
:1058800000990598884203DD1598405C199901E05C
:10589000199930201A9A904700986D1C401C00906E
:1058A0000298401E0290002804D11A9A2E201999BD
:1058B00090476D1C0199481E01900029DDDC05E030
:1058C00038781A9A7F1C199990476D1C0399481EC5
:1058D00003900029F4DC21461A9B199A0498ACE63F
:1058E0002D0000002B000000200000000000000040
:1058F000F8B5044600251E461746880404D405E082
:1059000039462020B0476D1C641EF9D52846F8BDE5
:10591000FFB50446002581B01E46C80301D53027D7
:1059200000E02027880404D505E038460399B047F5
:105930006D1C641EF9D5284605B0F0BD0A68531CDD
:105940000B6010707047000070B50446104E1CE0EC
:10595000A0892568C0050CD4A068002804D0FFF7F2
:10596000F3FFA089C00504D42069002801D0716824
:105970008847A089800504D4206A002801D0716876
:1059800088477168204688472C46002CE0D170BDBE
:105990001400002070B50D46846800E02468002CD7
:1059A00005D02946206A00F049F80028F6D12046A3
:1059B00070BD000010B5054928200968884704001B
:1059C00002D02821FAF7CBFB204610BD140000209E
:1059D00010B50022114600F001F810BDF7B50E46D3
:1059E0000446FFF7E7FF05460020134F002DB8607F
:1059F00016D0204601F05CFA0146284600F000FD72
:105A000004000FD00298002810D0204601F050FA70
:105A100004460078002809D02846FFF795FFBC60AF
:105A20000020FEBD2846FFF78FFFF9E7002E00D0CB
:105A300034602846FEBD00001400002070B505004B
:105A40000C4602D0002C02D009E0002901D0012030
:105A500070BD002070BD0028FCD0641C6D1C28782F
:105A6000FAF75EFB06462078FAF75AFB864228785A
:105A7000F1D0FAF755FB05462078FAF751FB281AC2
:105A800070BD000010B5002823D0124B0022001F6B
:105A9000196803E0814203D80A4649680029F9D110
:105AA000002A0AD01368841A9C4204D1006818188E
:105AB0001060104602E0506000E01860002907D036
:105AC00002680B1A934203D10B68D218026049682E
:105AD000416010BD48000020FBF7ECFCFEF7ECF83D
:105AE000FDF750FDFDF73AFDFDF736FFFDF78EFDA2
:105AF000FDF78CFEFDF7C4FEFDF7B4FDFDF7F8FEE3
:105B0000FDF7E0FDFDF730FEFEF7B8F800F0F2F823
:105B1000FDF7E0FC2748FCF713FA274801680A68FC
:105B2000102422430A6000680462012223492248AB
:105B3000FDF742FA224908680268224302600868B9
:105B4000046222011F4C1E48A11DFDF709FA2078AE
:105B500000280CD01C48A188054600F0AFF90021B0
:105B60002170A180012149022846FAF7F8FAFBF7D3
:105B70006BFA6421FAF7BEFA00290ED10F496423AB
:105B80000122491E0C48FDF786FAFDF7B7FC0B49C8
:105B9000C91C8880084600F0D3F8FBF755FAC821E5
:105BA000FAF7A8FA0029D2D1052001210007FBF756
:105BB0003DFACCE73C040020000600202100002034
:105BC0006C050020940000209A010020F0B50B30F5
:105BD000C108C900144F0026144A0FE003688B4225
:105BE0000BD38B4205D95C1A4318456830C3083B78
:105BF00000E04368136002C004E0021D1068002842
:105C0000ECD13046002803D13868002801D00020AC
:105C1000F0BD064A06481060064A121AD208D200A1
:105C200044C001203860D7E74C0000204800002025
:105C3000F4060020F00A0020F8B52A4907462A4C4D
:105C4000C888208109896181C100081AFAF77FFCA0
:105C5000264D01462A462868FDF7D2FFFAF792FC46
:105C6000A0806089C100081AFAF771FC2E46203620
:105C7000014632463068FDF7C3FFFAF783FC81B274
:105C8000FF20E1805F3000223B00FFF724F9080885
:105C900005090D1126151808A088FDF759FFF8BD54
:105CA000A088FDF777FEF8BD0146FDF799FEF8BD27
:105CB0000146FDF727FFF8BDFDF7EEFEF8BD6A606F
:105CC0000B487260007800090F2803D02270FDF79E
:105CD000ADFEF8BDFAF7EAFEF8BD6A607260FDF746
:105CE0005DFFF8BD240000200000002054000020CB
:105CF0003400002010B508490020096848620749AF
:105D00000968486201460448FCF7D0FA00210348BC
:105D1000FCF7CCFA10BD0000F0030020880400203E
:105D200000220649012803D0022804D00020704731
:105D3000C868CA60704708690A617047000000209F
:105D400010B5A2B00446802102A8FAF708FA0F485D
:105D50004068FAF76DFC0E4A0E4BFAF785FBFAF72E
:105D600049FC81B280B201910090A38862880A49FF
:105D700002A8FFF785F802A8FAF7FCF982B20A2315
:105D800002A90648FDF787F922B010BD5400002093
:105D900060E5D022DBF9EE3F307000086C05002092
:105DA000F8B5044608781A4E5B2801D0B1602AE0A5
:105DB0000520E060481C01F07BF8074600785D286C
:105DC00006D0FFF7F7FD051EA06002D0384609E0B7
:105DD000781CF8BDFFF7EEFD0028FAD0286045607A
:105DE0000546601C01F064F80146284600F008FBF7
:105DF00001F05EF8040006D020782C28EAD0207844
:105E00005D2802D0B4600020F8BD601CF8BD000021
:105E10001400002001780A46303A092A01D81146B8
:105E20000AE00A46413A052A01D8373904E00A4611
:105E3000613A052A3FD857390A014178401C0B4680
:105E4000303B092B01D8303A0AE00B46413B052B89
:105E500001D8373A04E00B46613B052B2BD8573A63
:105E600089180A014178401C0B46303B092B01D8A8
:105E7000303A0AE00B46413B052B01D8373A04E0A3
:105E80000B46613B052B16D8573A89184078090113
:105E90000246303A092A01D8303904E00246413A34
:105EA000052A02D83739401870470246613A052A58
:105EB00001D85739F7E7002070470000F8B50028EF
:105EC00070D002296ED3FFF783FD070069D04BA184
:105ED000FFF760FD0600F9D04AA1FFF75BFD4B4DCF
:105EE000040028D04AA12069FAF74BF9002818D0FD
:105EF00048A12069FAF745F9002814D047A1206984
:105F0000FAF73FF9002810D046A12069FAF739F9CD
:105F100000280CD045A12069FAF733F9002808D0F1
:105F200009E0012006E0022004E0032002E0042052
:105F300000E0052028703FA13046FFF72BFD04004C
:105F400010D03EA12069FAF71CF9002806D03CA128
:105F50002069FAF716F9002802D003E0062000E0D5
:105F60000720287037A13046FFF714FD040041D008
:105F700035A1FFF70FFD054635A12046FFF70AFDC5
:105F800004466869344D01462E462036FF3987396C
:105F900009D00146FF39A53911D00146FF39C3396F
:105FA00019D027E029E0FF380A2164384843FAF77E
:105FB000C3FA286060690A21FF38643816E0FF38A8
:105FC0000A2173384843FAF7B7FA286060690A2152
:105FD000FF3873380AE0FF380A2187384843FAF758
:105FE000ABFA286060690A21FF3887384843FAF71E
:105FF000A3FA30603846FFF7A7FCF8BD636F6E74F4
:10600000726F6C007475726E000000002400002036
:1060100072756E006261636B000000006C656674EF
:1060200000000000726967687400000073746F708C
:1060300000000000706F7765720000006F6E000056
:106040006F66660070776D004C5F4D6F746F720005
:10605000525F4D6F746F720054000020F3B58BB027
:1060600000250C464E49012002950695039507919F
:10607000059020782E462F462D2804D1002049492E
:10608000641C079106902078302800D1641C207889
:106090003138082816D82078641C3038FAF75EFAB0
:1060A000099108900022404B28463146FAF7DCF966
:1060B000099B089AFAF724F9054620780E463038ED
:1060C0000928E8D920782E2824D1607830283ED3BA
:1060D00039283CD8641C2078641C3038FAF73EFA22
:1060E000099108900022304B28463146FAF7BCF956
:1060F000099B089AFAF704F905460E460022284B38
:1061000038460399FAF7A1F9074603912078303809
:106110000928E0D92078652801D0452817D1607872
:10612000641C2B2802D02D280DD000E0641C2078A0
:106130000146303909290AD802990A2251434018E8
:1061400030380290F2E70020C0430590EEE7059951
:1061500002984843FAF702FA3A46039BFAF7D0F856
:1061600002460B460020104900F0A4F90F460490A7
:106170002A46334607990698FAF776F93B46049A79
:10618000FAF772F90B9AD1619061FAF70FFA0B994D
:1061900048610B980321C16020460DB0F0BD00009E
:1061A0000000F03F0000F0BF00002440F8B50546B5
:1061B00008782A4E7B2801D0B16032E00620E860E2
:1061C000481C00F075FE074600787D2813D0FFF7C5
:1061D000F1FB041EA8600FD0384600F069FE0146AE
:1061E000204600F03DF800F063FE002804D021694D
:1061F000002721622BE0781CF8BDB06011E0401C44
:1062000000F056FE0146204600F0FAF800F050FE7D
:10621000051EF1D028782C2805D028787D281BD0A1
:10622000B5600020F8BDFFF7C5FB0028FAD020605C
:1062300044600446681C00F03BFE0146204600F026
:106240000FF800F035FE0028ECD0216921622761AB
:1062500001783A29D3D0D0E7681CF8BD140000209B
:10626000FEB50C460646481C22780021614B222AC6
:1062700005D09C6013E0401C5C2A00D1401C0278D1
:10628000222A03D0002A01D0491CF4D1481C1968E5
:106290008847050003D0601C2C46574F9AE0002029
:1062A000FEBD5C2903D02170401C641C92E0401CA0
:1062B00001900078722814D006DC622809D0662884
:1062C00009D06E2808D10AE074280CD0752803D1B3
:1062D0000BE0082000E00C202070641C78E00A200D
:1062E000FAE70D20F8E70920F6E70198401CFFF7D0
:1062F00091FD009001983721001D019000988902BE
:10630000401AB84264D90098002861D01B21C90204
:10631000401AB8421ED8019840785C2858D101989C
:106320008078752854D10198C01CFFF773FD01993E
:106330000122891D019137218902411A920291425D
:1063400046D2009980058905090B800D0143900113
:106350000818009000990420802902D20120641CB2
:106360002FE00122D202914202D20220A41C07E0B7
:1063700001221204914202D20320E41C0FE0241DEA
:10638000022815D003280AD0042820D180221143E6
:10639000BF221140641E217000998909009180225A
:1063A0001143BF221140641E217000998909009198
:1063B00080221143BF221140641E21700099890977
:1063C00000910E49009A095C1143641E2170241843
:1063D0000198401C0178222902D0002900D060E7F2
:1063E000002121700178222900D1401C042135614F
:1063F000F160FEBD14000020FF0300000C6F0008D8
:1064000070B50C00054622D0042223A12046F9F7DE
:10641000C6FE00281DD0052221A12046F9F7BFFEA7
:10642000002819D0042220A12046F9F7B8FE002840
:1064300016D02078222818D02D2803D001463039D4
:10644000092917D821462846FFF708FE70BD00200D
:1064500070BD0220E86006E00020E860601D70BDAD
:106460000120E8606861201D70BD21462846FFF7C5
:10647000F7FE70BD5B2804D07B2807D00C488460F1
:10648000E5E721462846FFF78BFC70BD21462846EC
:10649000FFF78CFE70BD00006E756C6C0000000094
:1064A00066616C7365000000747275650000000021
:1064B00014000020F0B51FB496B084460C46024686
:1064C000199D189803904900680063004908400826
:1064D0000193002A01D0012600E000269E19FE4B00
:1064E000F6185B109E422BD36E00039F0296002F7E
:1064F00000D00127F719F84EF84BBE199E421FD362
:10650000039E0346F64F334309D03B469C4201D1DC
:10651000002A04D0019B002A05D0012604E00020B7
:1065200039461BB0F0BD00269E19EE4B9E4207D89F
:10653000039F029E002F00D00127F6199E4207D923
:106540002B4660462146189AFEF76AFD1BB0F0BD47
:106550000023002C29DAE44EB04226DAE34EB042A2
:1065600001DB022321E0DE4EB0421EDBE04E070DD0
:10657000BE19142E09DD3427BF1B039EFE40019671
:10658000BE40039FBE420BD00FE0039F002F0CD1F3
:106590001427BF1B0646FE400196BE40864204D12A
:1065A000019BDE07F60F02239B1B0E46164318D1F4
:1065B000002D16DA002C03D0022B01D0012B06D0BF
:1065C0000220FEF75DFDFEF721FD1BB0F0BD0220AD
:1065D000FEF756FDFEF71AFD0122D20751401BB00F
:1065E000F0BD039E002E61D1BF4EB04220D1C14804
:1065F000844201D1002A08D0B948814209DB002D2C
:1066000010DB189829461BB0F0BD0020B4491BB020
:10661000F0BD002D06DA01222946D2071898514014
:106620001BB0F0BDB4497944086849681BB0F0BD9F
:10663000AB4FB84225D1002D1FDA002904D0B1425A
:1066400012D1002A09D018E0002A72D1A649E20F1F
:106650000020D20711431BB0F0BD0020E20F01461D
:10666000D20711431BB0F0BDB14206DA2346002029
:106670003946FAF709F91BB0F0BD104621461BB0A8
:10668000F0BDB14212DA0126B607B54203D1234666
:1066900010461946FEE3994EB54207D1261E05DB8A
:1066A0001046314600F00EFC1BB0F0BD67007F08BD
:1066B0001646002A40D100290AD08B4A914229D19E
:1066C000002C0EDD002D1CDB002011461BB0F0BDA0
:1066D000022B16D0002C14D0012B12D1002C14DB6D
:1066E0000FE0002C28DA002D09DB012B03D000205D
:1066F0007D491BB0F0BD002081491BB0F0BD012BCE
:1067000003D0002001461BB0F0BD00200121C907C5
:106710001BB0F0BD724A91420ED1002C01DA002B61
:1067200017D0022B06D00020C043F9F717FF1BB08B
:10673000F0BD90E20120F8E7E217521C94461A439C
:1067400007D000220892664C62465B1E1A4307D0AF
:1067500009E00120FEF794FCFEF766FC1BB0F0BDDB
:106760000022644C0892674A90427DDD664B674A7E
:1067700098421FDD914202DC002D05DB4DE05848B8
:10678000814217DB002D48DD0220FEF779FCFEF781
:1067900053FC05460E460022534B21460898F9F754
:1067A00063FE084671004908C00FC0070143284630
:1067B0001BB0F0BD914215DA002D2EDA0220FEF753
:1067C0005FFCFEF739FC05460E460022464B21468B
:1067D0000898F9F749FE72005208C80FC007024333
:1067E000114617E03E4B994223DD002D15DD0220B6
:1067F000FEF746FCFEF720FC05460E4600223A4B0B
:1068000021460898F9F730FE084671004908C00F84
:10681000C007014328461BB0F0BD0220FEF730FC44
:10682000FEF714FC49004908E20FD20711431BB0E0
:10683000F0BD002230463946F9F707FE0122054631
:106840000E46D243FAF798F8314A324BF9F703FE75
:106850002A463346F9F708FE0022284BF9F7FBFDDC
:1068600007462A46334600E064E003911046194685
:10687000F9F7FAFD3A46039BF9F7F6FD07460322BE
:1068800009915207244B28463146F9F7EDFD07914F
:106890000C90224A204B38460999F9F7E5FD074646
:1068A00001911F4A1F4B28463146F9F7DDFD3A4654
:1068B000019BF9F7CAFD07460B4602460991079965
:1068C0000C98F9F71DFD00250E462846079B0C9AEB
:1068D000F9F7BBFD3A4627E0FFFF1F00FFFF0F005F
:1068E0000000F03F0000E0FF0000F07F00004043A8
:1068F00001FCFFFF0000F0BFFE0900000000E03FC8
:106900000000F0FF0000E0410000F043FFFFEF3F18
:10691000555555555555D53F4715F73FFE822B65C3
:1069200044DF5DF80BAE543E099BF9F794FD024637
:106930000B4652E1012500202D05A94207DA352238
:1069400030463946FAF718F806463420C0430A158F
:106950001218FE48101803900803FD49000B01436C
:106960000F46FC49884201DC002003E0FA498842D6
:1069700002DA0120119005E0002011900398401CDC
:106980007F1B039011980597C200F4480F9278443A
:10699000801843680268394630460D930292F9F731
:1069A00054FD07910C9030460D9B029A0599F9F71A
:1069B000A7FC02460B460020E549F9F765FF09915F
:1069C0000490079B0C9AF9F74FFD1290002010904D
:1069D000E3480D46784400680E900121781049077D
:1069E000084311990D9B890440180121C9044718D7
:1069F0003946029A0E98F9F728FD3246059BF9F7B9
:106A00002AFD02460B4629461098F9F72DFD064649
:106A100002913B4629460E9A1098F9F725FD079BEF
:106A20000C9AF9F718FD3246029BF9F70EFD099B07
:106A3000049AF9F719FD0591129A0A902B4610460F
:106A40001946F9F711FD06460246C6480F460B46A1
:106A500006217844FEF784FA32463B4600910490C2
:106A600010461946F9F700FD009B049AF9F7FCFC63
:106A700006460F462B461946129A1098F9F740FC25
:106A8000059B0A9AF9F7F0FC32463B46F9F738FCC9
:106A9000109A079104902B4610461946F9F7E4FC2A
:106AA000B14E0022334609910290F9F729FC079B69
:106AB000049AF9F725FC0020074602463346009168
:106AC000F9F7C3FC099B029AF9F7BFFC079B049AEC
:106AD000F9F7C1FC06460D913A462946009B1098ED
:106AE000F9F7C2FC07910C902B463046129A0D998B
:106AF000F9F7BAFC05460E463A46009B05990A98F6
:106B0000F9F7B2FC33462A46F9F7FAFB02460B4680
:106B10000746099107990C98F9F7F2FB00250E46F4
:106B20002846079B0C9AF9F790FC3A46099BF9F71F
:106B300092FC07460722099152078C4B31462846A2
:106B4000F9F792FC07910090894A884B38460999D9
:106B5000F9F78AFC07460191864A874B3146284659
:106B6000F9F782FC3A46019BF9F7CAFB834B7B4459
:106B70000F9A9B181A685B68F9F7C2FB029009919B
:106B80000398F9F7EBFC05910490099B029A079989
:106B90000098F9F7B5FB7A4B7B440F9A9B181A685B
:106BA0005B6817460393F9F7ABFB059B049AF9F76B
:106BB000A7FB0E462846059B049AF9F746FC3A4681
:106BC000039BF9F742FC079B009AF9F73EFC099BEF
:106BD000029AF9F740FC02460B46199900200C90E6
:106BE0000F461898F9F740FC029104903B460C9A26
:106BF00019991898F9F729FC2A463346F9F734FC15
:106C0000029B049AF9F77CFB09910E902A463346C1
:106C100039460C98F9F728FC06460F46099B0E9A50
:106C2000F9F76EFB574A0D46914220DB5242AA18F3
:106C3000024310D132463B46F9F707FC049003911A
:106C4000514A524B09990E98F9F75AFB039B049A43
:106C5000F9F702FD1ED20220FEF712FAFEF7ECF958
:106C600049004908E20FD20711431BB0F0BD6A008A
:106C7000474B52089A420DD3464AAA18024300D005
:106C8000CBE532463B46F9F7E0FB099B0E9AF9F754
:106C9000E3FCF5D96800002340082C490393020D5A
:106CA0003D4B5218984223DD01200005521CD04074
:106CB00042195000400D401838497944096813467C
:106CC0008C463749C1408B4312030121120B090541
:106CD00051181422101AC1400391002D01DA4842C4
:106CE0000390624630463946F9F7AFFB06460F4639
:106CF00032463B4609990E98F9F702FB00252A46D1
:106D0000284B28460591F9F7AFFB07910C90264ACE
:106D1000264B28460599F9F7A7FB009102903246C9
:106D20003B4628460599F9F790FB099B0E9AF9F71F
:106D300092FB1F4A1F4BF9F797FB009B029AF9F74A
:106D4000DFFA07460B460246099135E001FCFFFFDA
:106D50000000F03F8E9803007AB60B000E0600008C
:106D6000500600007A0500000000084009C7EE3F09
:106D7000FD033ADCF5015B14E02F3EBE4E0400003B
:106D80001404000000009040FE822B654715973CDC
:106D900000CC904000346F3F0000E03F6A030000E9
:106DA000FFFF0F00432EE63F396CA80C615C20BE4C
:106DB000EF39FAFE422EE63F07990C98F9F7A0FA50
:106DC00005460E46079B0C9AF9F73FFB3A46099B8E
:106DD000F9F741FB09912A4633460E9010461946B1
:106DE000F9F742FB074602462F480B46059105215D
:106DF0007844FEF7B5F83A46059BF9F735FB2A4685
:106E00003346F9F728FB0746019128463146099B8E
:106E10000E9AF9F729FB099B0E9AF9F771FA0123EB
:106E200004910C9000229B0738460199F9F70DFB5D
:106E300005910E903A4628463146019BF9F714FB1E
:106E4000059B0E9AF9F720FD049B0C9AF9F7FDFAC1
:106E50002A463346F9F7F9FA0022144BF9F7FBFA00
:106E6000064603980D46000541190915002912DC54
:106E700030462946039AF9F77FFDFEF739F80428D2
:106E800001D1FEF7E3F830462946039AF9F774FD7D
:106E9000064601E004E029180B46324621460898D0
:106EA000F9F7E2FA1BB0F0BD0C0200000000F03F61
:106EB00000E0401C002804D00178002901D02029DE
:106EC000F7D97047F8B506460C46F9F79DFD051E43
:106ED0000F4600D00120014349000B484908411AE0
:106EE000C90F0DD0002E01D0012100E000210C437C
:106EF00061004908401AC00F02D10120FEF7C0F816
:106F000028463946F8BD00000000F07F0000C0E0D0
:106F1000F0F8FC00010002000400060008000A006E
:106F20000C0010002000400080000001010101035E
:106F3000070100000804020408010101000000002C
:106F40000000000000000000000000000000000041
:106F50000000000000000000000000000100000030
:106F60000200000003000000040000000600000012
:106F700007000000080000000900000000000000F9
:106F80000000000000000000000000000100000000
:106F900002000000030000000400000000000000E8
:106FA000000000000000F03F000000000000F83F7B
:106FB00000000000000000000000004003B8E23FB5
:106FC000000000000000000006D0CF43EBFD4C3E67
:106FD000033333333333E33FFFAB6FDBB66DDB3F5C
:106FE0004D268F515555D53F01411DA96074D13FA4
:106FF00065DBC9934A86CD3FEF4E454A287ECA3F9E
:107000003E5555555555C53F93BDBE166CC166BF1F
:107010002CDE25AF6A56113FF16BD2C541BDBBBE18
:10702000D0A4BE726937663E000000000000000078
:107030007B22737461747573223A7B226469737462
:10704000616E6365223A25642C22636172506F770A
:107050006572223A25642C224C5F73706565642248
:107060003A25642C22525F7370656564223A256468
:107070007D7D000094700008000000205400000096
:1070800060500008E8700008540000209C0E0000CA
:107090007050000800000000000000000000000028
:1070A0000000000000000000CD5B0008855A0008C9
:1070B00000000000FF0000000700000000000000CA
:1070C00000000000000000000000000001000000BF
:1070D00004000000000000000024F4000000000094
:0870E0000000000000000000A8
:04000005080000C12E
:00000001FF
