:020000040800F2
:1000000020070020A90100080D2A0008C3280008C5
:10001000092A0008711400087D2E00080000000065
:10002000000000000000000000000000A12C0008FB
:100030007514000800000000112A0008A32C000815
:10004000C3010008C3010008C3010008C301000880
:10005000C3010008C3010008C3010008C301000870
:10006000C3010008C3010008C3010008C301000860
:10007000C3010008C3010008C3010008C301000850
:10008000C3010008C3010008C3010008C301000840
:10009000C3010008C3010008C3010008C301000830
:1000A000C3010008C3010008C3010008C301000820
:1000B000C3010008C301000800000000C3010008DC
:1000C000C30100080000000000000000C301000898
:1000D00000000000C3010008C30100080000000088
:1000E000C3010008C3010008C301000800F002F8C2
:1000F00000F04BF80AA090E8000C82448344AAF177
:100100000107DA4501D100F040F8AFF2090EBAE874
:100110000F0013F0010F18BFFB1A43F0010318473B
:10012000FC3800001C390000103A24BF78C878C1A0
:10013000FAD8520724BF30C830C144BF04680C60ED
:10014000704700000023002400250026103A28BF35
:1001500078C1FBD8520728BF30C148BF0B60704739
:10016000662903F00384002070471FB59DE8030053
:1001700000F06CF900F0F6FB04000020002102F012
:10018000DFFFE0601FBD10B510BD00F004FD11469B
:10019000FFF7EBFF02F0D2FE00F022FD03B4FFF701
:1001A000F2FF03BC02F0C5FE09488047094800473A
:1001B000FEE7FEE7FEE7FEE7FEE7FEE7FEE7FEE717
:1001C000FEE7FEE704480549054A064B7047000074
:1001D000112D0008ED00000820010020200700205C
:1001E0002003002020030020704770B5064600F071
:1001F00011F9056806F10B0020F00704B4429CBF1A
:10020000002070BD2B466A68BAB11068A04210D3B6
:1002100004F1080188423CBF5068586007D3516818
:10022000101941601168091B016058601460101DAD
:1002300070BD13465268002AE7D12146284600F0D7
:10024000F1F80028DED170BD0FB41CB5074B06AA2B
:100250007B4469460090059800F067FB00206946E2
:1002600000F076FB1CBC5DF814FB0000FD060000EE
:100270002DE9F0474FF0000A89460446C0F820A057
:100280002046E1688847002876D0252806D0D4E9A2
:1002900001219047206A401C2062F1E7E168204676
:1002A00000258847C4F81CA006460027C4F818A0FB
:1002B0002A2E09D0304602F035FE38B304EB870809
:1002C000303EC8F8186019E059F8041B204604EBCA
:1002D00087029161E1688847012F064618D1E069DD
:1002E000002820DA25F020051DE0D8F8180000EBE2
:1002F000800006EB40003038C8F818002046E1685E
:100300008847064602F00EFE0028EED1012F0AD0E3
:100310002E2E08D12046E16888477F1C0646022F12
:1003200045F02005C4DBA069002803DA404245F00F
:100330000105A061E80701D025F01005B6B1A6F1CE
:100340004100192802D8203645F400654A46314656
:10035000204625604D46FFF703FF58B1012806D01F
:10036000ED1D25F0070000F1080989E704E005F11B
:10037000040985E730468AE7206ABDE8F08710B5B2
:10038000431C02E010F8011B71B18107FAD14FF054
:10039000013202C88C1A8C4314EAC211F9D0C01A77
:1003A0000A0603D0C01E10BDC01A10BD0A0401D039
:1003B000801E10BD0902FCD0401E10BD4FF000028F
:1003C00000B5134694469646203922BFA0E80C504B
:1003D000A0E80C50B1F12001BFF4F7AF090728BF26
:1003E000A0E80C5048BF0CC05DF804EB890028BFA2
:1003F00040F8042B08BF704748BF20F8022B11F0CB
:10040000804F18BF00F8012B704770477047704746
:100410007047000000487047C400002070477047D4
:100420007047704738B504460A4600206946AFF366
:100430000080002808BF38BD02460099204600F021
:1004400095FA012038BD012000F09EBBF8B5AFF34E
:100450000080054600200C46102000BF0646A81963
:10046000A0420DD9324669460020AFF30080070054
:1004700008BF00F089FB0098A04218BF0546C419C8
:10048000FFF7C8FF05600746F01D20F0070046197A
:10049000284600F00AF8B44208BFF8BDA21B314656
:1004A0003868BDE8F84000F061BA00210160C0E999
:1004B000011070471020704770B50446051FFFF704
:1004C000A9FF0068002C14BF446870BD002C18BF41
:1004D000AC423CBF20466468F8D301680A18AA42BF
:1004E00018BF456003D12A68054611440160286899
:1004F0004119A1421CBF6C6070BD616869602168D0
:100500000844286070BD70472DE9FF4F0C461E4619
:100510004FF0FF378BB0D2E90001DDF860800A9020
:100520008A46C1F30A5505B93D46002108464FF0F9
:100530000000BAF1000F00F4400005DA00EB800083
:100540004FF4400101EA50004FEA9059B9F1010F10
:1005500000DDB9460A9850EA4A000ED044F6105021
:10056000A5F2FF3545432F14B8F1000F1ED0754298
:10057000291E1EDDC9F100021CE0B8F1010F4FF089
:10058000000001D0302103E0F24305E02154401C7B
:10059000B042FBDB30460022002121540B99C1F808
:1005A0000880C1E900200FB0BDE8F08FBD1B6D1CB5
:1005B000DEE74A4600DA694206A800F077FA06ABA1
:1005C00093E8070003AB83E8070050460A9900F060
:1005D00094FB8DE80700A0F500501F3800900398A9
:1005E000002D09DD42F21F014A46084403A9039089
:1005F000684600F0F3FD08E0A0F500504A461F38B9
:1006000003A90390684600F0FDFD8DE80700000493
:10061000000C03D04FF0FF30410800E01046B8F165
:10062000000F03D00022009215461EE0751E05D46F
:1006300000F0B6F9303262556D1EF9D5B34601228D
:10064000084302D000227F1C04E02078302801D12A
:1006500000227F1E002A099786D01DE0112D07DA9F
:1006600000F09EF9303262556D1C50EA0102F5D15E
:10067000084302D00098C8B10EE00021681E05E0D2
:10068000235C625C63542254401E491C8142F7DBA8
:10069000AB46A81B401E0990002004F80B000B98E5
:1006A000099AC0F80880C0E9002B7CE711264FF0BA
:1006B000000859E72DE9F04F88460446D21D22F084
:1006C000070191B0D1E90001CDE90A0102F0FAFB7E
:1006D00002460B98C00F01D02D2007E0206881074B
:1006E00001D52B2002E0202101EAC000032A099055
:1006F00001D0072A05DB03464146204600F096F963
:100700000BE12078800601D5E06900E00620B8F111
:10071000650F814606D0B8F1660F18D0B8F1670FA3
:1007200070D131E00020B9F1110F009001DB1123ED
:1007300001E009F101030AAA01A90CA8FFF7E4FEF0
:10074000DDE90C70002609F10105834647E0012030
:100750004B4600904FF000470AAA01A90CA8FFF7EA
:10076000D3FEDDE90DB00C995D46002610B909F104
:1007700001000D18B9EB050003D4C0F1FF3609F1F3
:100780000105A5EB09002BE0B9F1010F01DA4FF0EB
:1007900001090020B9F1110F0090484601DD112335
:1007A00000E003460AAA01A90CA8FFF7ADFEDDE9A7
:1007B0000C704D4600268346207800070AD4AB45CE
:1007C00000DA5D4601A8012D04DD411911F8011C74
:1007D000302907D04F4502DA17F1040F04DA01205F
:1007E00082460FE06D1EEEE7002F02DCED1B3E445B
:1007F00003E0781CA84200DD7D1CB81B00F1010A53
:100800004FF000472078000703D4AA4501DB4FF0E2
:10081000FF3A0021B7F1004F0DF143088DF8431066
:1008200024D002202B23002F01DA7F422D230A211E
:10083000021EA0F1010000DC5FB197FBF1FC97FB09
:10084000F1F201FB1C7C17460CF1300C08F801CDCD
:10085000EEE7A8F1010003702188090501D54521C3
:1008600000E06521A0F1010800F8011C09980FA91A
:10087000A1EB0807FF1D00B10120411901EBEA704F
:10088000A1693844081A401EA0612078C00602D42D
:100890002046AFF30080099828B1D4E901219047A0
:1008A000206A401C20622078C00622D52046AFF383
:1008B00000801EE0002E04DBB34502DD01A8805D50
:1008C00000E03020D4E901219047206A401C2062DA
:1008D000761CAAF101005FEA000A0AD100F042F892
:1008E000C0680168405CD4E901219047206A401C3F
:1008F0002062281EA5F10105DCDC07E0D4E9012116
:1009000018F8010B9047206A401C2062381EA7F19E
:100910000107F3DC2046AFF30080032011B043E66B
:1009200001694A1C02610878704700B58FB0CDE9B3
:1009300001310021059105497944CDE903101146A3
:100940006846FFF795FC0FB000BD0000E5FFFFFF14
:100950000A6802F8010B0A607047000000487047FF
:10096000BC00002000487047DC00002003464068BF
:100970008C46002818BF88423CBF03464068F8D325
:1009800018681844884207D00CF1030020F00700D3
:10099000001D411A521A0146081D0A60FFF78CBD5E
:1009A00030B5B0F10A024FEA900E71F100034EEA41
:1009B000817EB0EB0E0061EB91014FEA101E4EEA12
:1009C000017E10EB0E0041EB11114FEA102E4EEAA2
:1009D000016E10EB0E0041EB11214FEA104E4EEA72
:1009E000014E10EB0E0041EB1141401841F10001A6
:1009F0004FEAD00040EA41704FEAD10110EB800588
:100A00004FEA810444EA907444EB01046D1944EB0D
:100A10000404521BA3414FF0000348BF0A3200D523
:100A200030BD401C41F1000130BD00002DE9F04116
:100A30001F46044603260168072A01F4006004DB10
:100A400008B116A505E016A503E008B115A500E05C
:100A500015A521F010002060A069C01EA0610FB193
:100A6000401EA0612046AFF300804FB1D4E90121C0
:100A700038469047206A401C2062C01C206206E075
:100A8000206AFAE7D4E9012115F8010B9047761E98
:100A9000F8D22046AFF30080BDE8F0814E414E0011
:100AA0006E616E00494E4600696E66002DE9F047A2
:100AB000814616468AB0334878440DC88DE80D004B
:100AC00030487844801C03AC0DC884E80D0041F622
:100AD0009B300844372190FBF1F290FBF1F5A5F132
:100AE000800501FB12041B3C02D56442012000E09A
:100AF0000020DFF890A080460027FA44AAF1BE0A41
:100B00000DE0E00709D03246684607EB47010AEBE3
:100B1000810100F077FB8DE8070064107F1C002C3A
:100B2000EFD1184F7F44AC3F18E0E80714D007EB33
:100B300004100DF1180A90E80E008AE80E00C06853
:100B4000F04201D198190890324606A903A800F096
:100B500059FB03AB83E807006D10641C002DE4D142
:100B600032466946B8F1000F03A802D000F036FB08
:100B700001E000F047FBC9E90001C9F808200AB00C
:100B8000BDE8F087482F000010B500F035F8BDE84B
:100B9000104000F02BB87546FFF7E0FEAE460500AA
:100BA0006946534620F00700854618B020B5FFF788
:100BB00009FBBDE820404FF000064FF000074FF062
:100BC00000084FF0000B21F00701AC46ACE8C0096B
:100BD000ACE8C009ACE8C009ACE8C0098D46704774
:100BE0000446AFF300802046FFF7D8FA002801D072
:100BF00002F09FB97047000010B5012805D0002110
:100C000003A000F061F8012010BD09A1F8E7000081
:100C100053494752544D454D3A204F7574206F66E5
:100C20002068656170206D656D6F7279000000004D
:100C30003A2048656170206D656D6F727920636F31
:100C400072727570746564004FF0013C50F8042BAB
:100C500051F8043B9A4221D1A2EB0C03934313EACF
:100C6000CC1317D150F8042B51F8043B9A4215D1FC
:100C7000A2EB0C03934313EACC130BD150F8042BD3
:100C800051F8043B9A4209D1A2EB0C03934313EAB7
:100C9000CC13DBD04FF00000704700BFD01A01BA70
:100CA000B1FA81F101F0180122FA01F0CB40C1F153
:100CB0002001DBB2C0B2C01A2CFA01F3D11A914361
:100CC00011EAC311E6D1704770B505460C460A20FB
:100CD00000E06D1C02F02FF935B128780028F8D11A
:100CE00002E0641C02F027F914B120780028F8D142
:100CF000BDE870400A2002F01EB95FEA400C08BF50
:100D000091F0000F4FEA8C234FEAC12243EA515180
:100D10004FEA1C5018BF00F5F0404FEA300018BFF2
:100D200041F000415FEA6C5C00F02980BCF1FF3FBC
:100D300008BF40F080407047130C06BF12044FF00C
:100D4000100C4FF0000C130E04BF12020CF1080C33
:100D5000130F04BF12010CF1040C930F04BF920097
:100D60000CF1020CD30F04BF52000CF1010C114620
:100D70004FF00002A0F11F00A0EB0C00704711F033
:100D8000004F08BF704731F000413FF4D5AF0B0C66
:100D900006BF09044FF0100C4FF0000C0B0E04BFFF
:100DA00009020CF1080C0B0F04BF09010CF1040C33
:100DB0008B0F04BF89000CF1020CCB0F04BF49005C
:100DC0000CF1010CCCF12003A0EB0C0022FA03F390
:100DD00002FA0CF241EA030100F10100704720F031
:100DE0007F4C80EA030023F07F47ACEB070303F559
:100DF0007C5300F0004003F1FF032DE980494FEAE6
:100E0000154B09B44FEA144325EA0B4E24EA034874
:100E10000FF2042606EB132749083E785FEA3202F8
:100E200003FB0667C7F5000707FB06F64FEA5437D2
:100E30004FEAD64606F1020607FB066CCCF1005CD1
:100E40004FEA1C472CEA074C07FB06F40CFB06F59F
:100E500004EB15464FEA961634BF00204FF00040D1
:100E60004FEAD13706FB07FC4FEA1C4C0CFB0BF793
:100E7000D21B03FB0CF761EB07010CFB0EF7B0EB89
:100E8000074072EB17420CFB08F734BFA2EB074296
:100E9000B2EB074261EB17414FEA0C444FEA91076E
:100EA00006FB07FC4FEA1C4C0CFB0BF7B0EBC740F2
:100EB00072EB573203FB0CF734BFA2EBC742B2EB25
:100EC000C74261EB57310CFB0EF7B0EBC70072EB7A
:100ED00057720CFB08F734BFA2EBC702B2EBC70294
:100EE00061EB5771039F4FEA816141EA921104EB74
:100EF000CC044FEAD1374FEA826206FB07FC42EA94
:100F000090124FEA80604FEA1C4C0CFB0BF7D21B8F
:100F100003FB0CF761EB07010CFB0EF7B0EB07408E
:100F200072EB17420CFB08F734BFA2EB0742B2EB9F
:100F3000074261EB17414FEA8C554FEA910704EBEA
:100F40009C2406FB07FC4FEA1C4C0CFB0BF7B0EB98
:100F5000C74072EB573203FB0CF734BFA2EBC7421A
:100F6000B2EBC74261EB57310CFB0EF7B0EBC70099
:100F700072EB57720CFB08F734BFA2EBC702B2EB5F
:100F8000C70261EB577115EB4C254FEA816141EACD
:100F900092114FEA82624FEAD13742EA901206FB81
:100FA00007FC44F100044FEA80604FEA1C4C0CFB44
:100FB0000BF7D21B03FB0CF761EB07010CFB0EF7E1
:100FC000B0EB074072EB17420CFB08F734BFA2EB03
:100FD0000742B2EB074261EB174115EB1C154FEAD4
:100FE000813141EA92414FEA823242EA90424FEA2D
:100FF00080304FEA0C7644F1000448EA03434EEA9D
:101000000B484FF0000EB2EB080C71EB030724BF46
:10101000624639464EEB0E0E4FF0000B001852415F
:1010200049414BEB0B0BB2EB080C71EB03077BF167
:10103000000B24BF624639464EEB0E0E4FF0000BFC
:101040000018524149414BEB0B0BB2EB080C71EB12
:1010500003077BF1000B24BF624639464EEB0E0EB0
:1010600051EA020718BF46F0010616EB0E7655F15D
:10107000000254F1000103D5BDE88901BDE80088F4
:10108000BDE88901BDE80048B619524141EB0101B4
:10109000A3F10103704780807F7E7D7C7B7A797825
:1010A000777676757473727171706F6E6E6D6C6C2D
:1010B0006B6A6A69686867666665646463636261CF
:1010C0006160605F5F5E5E5D5D5C5C5B5B5A5A5950
:1010D00059585857575656555555545453535252BC
:1010E0005251515050504F4F4F4E4E4D4D4D4C4C14
:1010F0004C4B4B4B4A4A4A4949494848484747475D
:101100004746464645454544444444434343434299
:10111000424242414141002B26D4770021D01CB5E8
:101120004FEA370703B44FF010004FF010014FF0B3
:1011300000000FBCBDE810400BF1010BBBF1010F2B
:1011400008BF5FEA170722BF12F1010211F1010186
:101150004FF0004143F1000300F0004043EA00007B
:101160007047F9D35708DAE746EA064613F1400F0D
:101170004FEA16461FDD13F1200FDFBF16430A4664
:10118000002120335B42C8D0C3F1200746EA06465F
:1011900002FA07F74FEA164646EA0706C3F12007A8
:1011A00022FA03F201FA07F721FA03F14FF00003E4
:1011B00042EA0702B1E746EA020646EA06464FEA75
:1011C000164646EA0106BCBF46EA0646360C4FF014
:1011D00000034FF000024FF000019EE72DE9C048E8
:1011E000934630B491E8380007C831EA400C48BF54
:1011F00034EA430C03D5FFF7F2FDFFF78CFFF0BC98
:10120000BDE800882DE9C048934630B491E8380025
:1012100007C810F0804F08BF13F0804F03D100F0D3
:1012200005F8FFF778FFF0BCBDE8008820F07F47A5
:1012300080EA030023F07F4C07EB0C03A3F57C53FB
:1012400000F00040A3F1FE0392F0000F00F0B38025
:1012500095F0000F00F077802DE901494FEA114029
:101260004FEA144621EA004800FB06FC24EA064740
:1012700008FB06F607FB08F800FB07F718EB064823
:101280004CEB164C4FEA124B18EB07484FEA154649
:101290004CEB174022EA0B4E0BFB06FC25EA0647F7
:1012A0000EFB06F607FB0EFE0BFB07F71EEB064ECA
:1012B0004CEB164C4FF000061EEB074E4CEB174B59
:1012C00018EB0B0840F1000018EB0E0B58EB000870
:1012D00040F100008F1A4FF000013CBFC943661B6C
:1012E00014BFB5EB040C00213CBFC943F61B4FEA09
:1012F00017444EEA8E0E27EA04454FEA1C4704FBCA
:1013000007622CEA074C05FB07F70CFB05F604FB0C
:101310000CFC16EB074642EB174216EB0C4642EB71
:101320001C421BEB060658EB0202414146EA9E06B0
:1013300001D5BDE80189B619524141EB0101A3F184
:101340000103BDE801894FEA14454FEA114724EA39
:10135000054621EA074C05FB07F406FB07F70CFBE3
:1013600006F105FB0CFC11EB074144EB17444FEA77
:10137000124711EB0C4144EB1C4422EA074C05FBDD
:1013800007F206FB07F70CFB06F605FB0CFC16EB59
:10139000074642EB174216EB0C4642EB1C456A1817
:1013A00054F1000148BF7047B619524141EB0101A9
:1013B000A3F10103704795F0000F37D04FEA1142B7
:1013C0004FEA144721EA024624EA074C02FB07F1E0
:1013D00006FB07F70CFB06F402FB0CFC14EB0744BE
:1013E00041EB17414FEA154714EB0C4441EB1C410C
:1013F00025EA074C02FB07F506FB07F70CFB06F690
:1014000002FB0CFC16EB074645EB174516EB0C46AA
:1014100045EB1C42121951F1000148BF7047B61943
:10142000524141EB0101A3F1010370474FEA14451A
:101430004FEA114724EA054621EA074C05FB07F16C
:1014400006FB07F70CFB06F24FF0000605FB0CFC51
:1014500012EB074241EB174112EB0C4251EB1C41DE
:1014600048BF7047921841EB0101A3F10103704797
:1014700000BFFEE7704772B600BFFEE770B50446D6
:1014800000F09CF906462546681C10B10448007817
:10149000054400BF00F092F9801BA842FAD370BD4A
:1014A000180000202DE9F84703460022944666E123
:1014B0004FF0010808FA02F4D1F8008008EA0400AD
:1014C000A0427DD1DFF8CCA2D1F80480A8EB0A09B4
:1014D000D0453AD014DCB8F1030F50D009DCB8F194
:1014E000000F31D0B8F1010F1CD0B8F1020F49D173
:1014F00020E0B8F1110F18D0B8F1120F42D11EE060
:10150000B9F5881F25D006DCB9F5803F20D0B9F5A4
:10151000801F37D11AE0B9F5001F18D0B9F5041FA4
:1015200030D117E0D1F80CC02DE0D1F80C8008F1D3
:10153000040C28E0D1F80C8008F1080C23E0D1F865
:101540000C8008F10C0C1EE000BF00BF00BF00BF04
:1015500000BF00BFD1F80880B8F1000F02D14FF0F2
:10156000040C0BE0D1F80880B8F1010F03D14FF063
:10157000080C1C6102E04FF0080C5C6103E04FF0C6
:10158000000C00E000BF00BFFF2801D8984601E032
:1015900003F104084646FF2802D84FEA820803E018
:1015A000A2F108084FEA88084746D6F800804FF0B5
:1015B0000F0909FA07F928EA09080CFA07F900E007
:1015C00085E048EA0908C6F80080D1F8048008F0F0
:1015D0008058B8F1805F7AD100BFDFF8BC81D8F8BD
:1015E000188048F00108DFF8B091C9F81880C846A3
:1015F000D8F8188008F00108CDF8008000BF00BFBF
:101600004FEAB9384FEA920958F829504FEA8278E0
:101610004FEA18794FF00F0808FA09F825EA08058B
:10162000DFF87881434502D14FF000080FE0DFF882
:101630007081434502D14FF0010808E0DFF8648172
:10164000434502D14FF0020801E04FF003084FEA92
:1016500082794FEA197908FA09F848EA0505DFF8AE
:1016600048814FEA920948F82950D1F8048008F4DB
:101670008038B8F5803F0AD1DFF83081D8F8008093
:1016800048EA0008DFF82491C9F8008009E0DFF893
:101690001C81D8F8008028EA0008DFF81091C9F80A
:1016A0000080D1F8048008F40038B8F5003F0FD16D
:1016B000DFF8F88008F10408D8F8008048EA00084C
:1016C000DFF8E89009F10409C9F800800EE055E060
:1016D000DFF8D88008F10408D8F8008028EA00086C
:1016E000DFF8C89009F10409C9F80080D1F8048036
:1016F00008F48018B8F5801F0ED1DFF8B08008F12B
:101700000808D8F8008048EA0008DFF8A09009F13E
:101710000809C9F800800DE0DFF8908008F108089A
:10172000D8F8008028EA0008DFF8809009F108095D
:10173000C9F80080D1F8048008F40018B8F5001F3B
:101740000ED1DFF8688008F10C08D8F8008048EA6C
:101750000008DFF8589009F10C09C9F800800DE085
:10176000DFF8488008F10C08D8F8008028EA000863
:10177000DFF8389009F10C09C9F80080521CD1F843
:10178000008028FA02F8B8F1000F7FF491AEBDE8AE
:10179000F88700000000111000100240000801400E
:1017A000000C01400010014008000140000401400D
:1017B0000AB1016101E00B04036170470148006850
:1017C00070470000100000200348006803490978B2
:1017D00008440149086070471000002018000020EC
:1017E00010B50848006840F0100006490860032062
:1017F00000F098F80F2000F007F800F02BF8002018
:1018000010BD00000020024070B504460E4800786C
:101810004FF47A71B1FBF0F00C490968B1FBF0F5B7
:10182000284600F04DFF08B1012070BD102C07D2F2
:1018300000222146501E00F037F80548046001E000
:101840000120F2E70020F0E7180000201C00002033
:101850001400002008B500BF1148806940F0010065
:101860000F4988610846806900F00100009000BFC0
:1018700000BF00BF0846C06940F08050C8610846FC
:10188000C06900F08050009000BF00BF00BF054954
:10189000486820F0E06040F00070486000BF08BD7C
:1018A00000100240000001402DE9F05F80460D4627
:1018B0001646002701F01AFB074639462A463346EA
:1018C00001F00700C0F1070ABAF1040F02D94FF086
:1018D000040A01E0C0F1070AD14600F1040ABAF196
:1018E000070F02D24FF0000A01E0A0F1030AD4462C
:1018F0004FF0010A0AFA09FAAAF1010A0AEA020AF1
:101900000AFA0CFA4FF0010B0BFA0CFBABF1010BCE
:101910000BEA030B4AEA0B042146404601F0EEFABB
:10192000BDE8F09F00BF00F00702064B19684FF6B4
:10193000FF031940044B0B4343EA0221014B19609A
:1019400000BF70470CED00E00000FA0570B50446DA
:101950000D460CB9012070BD5A48006800F0070020
:10196000A8420ED25748006820F007002843554986
:1019700008600846006800F00700A84201D0012076
:10198000E9E7207800F0020002281DD1207800F05D
:101990000400042805D14C48406840F4E0604A49FE
:1019A0004860207800F00800082805D146484068C3
:1019B00040F46050444948604348406820F0F000DB
:1019C000A168084340494860207800F0010078B3DE
:1019D0006068012806D13C48006800F4003090B9E6
:1019E0000120B8E76068022806D13748006800F097
:1019F000007040B90120AEE73348006800F00200F3
:101A000008B90120A7E73048406820F0030061686A
:101A100008432D494860FFF7D1FE064609E0FFF76D
:101A2000CDFE801B41F28831884202D9032092E723
:101A300007E02548406800F00C006168B0EB810FBA
:101A4000EDD12048006800F00700A8420ED91D48DB
:101A5000006820F0070028431A490860084600681B
:101A600000F00700A84201D0012074E7207800F0C0
:101A70000400042807D11448406820F4E060E168BD
:101A8000084311494860207800F00800082808D170
:101A90000D48406820F46050216940EAC1000A49BD
:101AA000486000F03FF808494968C1F30311074A4C
:101AB000515CC8400649086006480068FFF7A4FE6C
:101AC000002048E700200240001002407039000862
:101AD0001C0000201400002001480068704700002E
:101AE0001C00002000B5FFF7F7FF04494968C1F367
:101AF0000221034A515CC84000BD000000100240B2
:101B00008039000800B5FFF7E7FF04494968C1F3D1
:101B1000C221034A515CC84000BD000000100240D1
:101B200080390008F0B585B00FF26C0C9CE8E0102D
:101B300001A8A0E8E0101CA52D6800950021002256
:101B4000002300240020194D696801F00C05F5B14F
:101B5000042D02D0082D19D101E0154819E001AD7E
:101B6000C1F38346AC5D01F4803555B10F4D6D680E
:101B7000C5F340451DF805200D4D6543B5FBF2F357
:101B800002E00C4D04FB05F3184602E000BF0848D4
:101B900000BF00BF05B0F0BD020304050607080939
:101BA0000A0B0C0D0E0F1010010200000010024075
:101BB00000127A0000093D00F8B504460CB9012076
:101BC000F8BD207800F00100002878D0F84840687F
:101BD00000F00C0004280CD0F548406800F00C0020
:101BE000082811D1F248406800F48030B0F5803FF9
:101BF0000AD1EF48006800F4003000285FD0606828
:101C000000285CD10120DBE700BF6068B0F5803FB1
:101C100006D1E748006840F48030E549086028E0D4
:101C2000606858B9E248006820F48030E0490860F4
:101C30000846006820F4802008601AE06068B0F56B
:101C4000A02F0BD1DA48006840F48020D849086002
:101C50000846006840F4803008600AE0D448006814
:101C600020F48030D24908600846006820F48020C3
:101C7000086000BF606888B1FFF7A0FD054606E078
:101C8000FFF79CFD401B642801D9032098E7C84852
:101C9000006800F400300028F2D010E0FFF78EFD5D
:101CA000054606E0FFF78AFD401B642801D90320A2
:101CB00086E7BF48006800F400300028F2D12078A1
:101CC00000F00200022857D1B948406800F00C002B
:101CD00050B1B748406800F00C00082818D1B4484B
:101CE000406800F4803098B9B148006800F0020004
:101CF00020B12069012801D0012061E7AC480068CB
:101D000020F0F800616940EAC100A949086033E0A9
:101D10002069E8B10120A7490860FFF74FFD05469B
:101D200006E0FFF74BFD401B022801D9032047E7DF
:101D30009F48006800F002000028F2D09C4800682C
:101D400020F0F800616940EAC1009949086013E099
:101D5000002098490860FFF731FD054606E0FFF7CF
:101D60002DFD401B022801D9032029E79048006877
:101D700000F002000028F2D1207800F008000828C6
:101D80002DD1A069B8B101208B490860FFF716FD7D
:101D9000054606E0FFF712FD401B022801D903208B
:101DA0000EE78348406A00F002000028F2D00120CC
:101DB00000F030FE13E000207F490860FFF7FEFCD2
:101DC000054606E0FFF7FAFC401B022801D9032074
:101DD000F6E67748406A00F002000028F2D1207849
:101DE00000F00400042873D100277148C06900F096
:101DF000805070B900BF6E48C06940F080506C4997
:101E0000C8610846C06900F08050009000BF00BF64
:101E100001276A48006800F48070B0B9674800681C
:101E200040F4807065490860FFF7C8FC054606E08D
:101E3000FFF7C4FC401B642801D90320C0E65F48BB
:101E4000006800F480700028F2D000BFE06801282C
:101E500006D15748006A40F001005549086227E062
:101E6000E06858B95248006A20F001005049086201
:101E70000846006A20F00400086219E0E0680528BE
:101E80000BD14B48006A40F00400494908620846FB
:101E9000006A40F0010008620AE04548006A20F04C
:101EA0000100434908620846006A20F00400086205
:101EB00000BFE068A0B1FFF781FC054609E0FFF72D
:101EC0007DFC401B41F28831884202D9032077E62D
:101ED00022E03748006A00F002000028EFD012E04C
:101EE000FFF76CFC054608E0FFF768FC401B41F279
:101EF0008831884201D9032062E62D48006A00F04B
:101F000002000028F0D1012F05D12948C06920F036
:101F100080502749C86100BFE069C8B324484068C1
:101F200000F00C00082860D0E069022848D10020A9
:101F300020490866FFF742FC054606E0FFF73EFC35
:101F4000401B022801D903203AE61948006800F036
:101F500000700028F2D1206AB0F5803F07D1144804
:101F6000406820F40030A168084311494860D4E972
:101F7000080108430E49496821F4741108430C49CB
:101F8000486001200B490866FFF718FC054607E08A
:101F90003DE0FFF713FC401B022801D903200FE6A8
:101FA0000348006800F000700028F2D02FE0000025
:101FB0000010024000004242800442420070004093
:101FC000002014490866FFF7F9FB054606E0FFF715
:101FD000F5FB401B022801D90320F1E50E480068FB
:101FE00000F000700028F2D111E0E069012800D172
:101FF000E6E50948466806F48031206A814204D14A
:1020000006F47011606A814201D00120D8E50020F9
:10201000D6E50000000042420010024010B5044620
:102020000CB9012010BD606A38B96068B0F5827FD4
:1020300000D105E00021E16102E000212161616140
:102040000021A16294F8510028B9002084F85000C2
:10205000204600F043F8022084F851002068006810
:1020600020F0400021680860A08800F48270218977
:1020700001F404410843A18901F400610843217C73
:1020800001F002010843217D01F001010843218B89
:1020900001F400710843217F01F038010843202139
:1020A000095D01F080010843218D01F400510843CE
:1020B000216808600421A06901EA10402168486095
:1020C0002068C06920F400602168C8610020606554
:1020D000012084F851000020A4E7000010B586B06C
:1020E0000446002002900390049005901E49206849
:1020F000884236D100BF1D48806940F480501B499A
:1021000088610846806900F48050019000BF00BFDC
:1021100000BF0846806940F0080088610846806971
:1021200000F00800019000BF00BF282002900220AC
:1021300003900320059002A90D48FFF7B3F9102082
:10214000029000200390049002A90948FFF7AAF921
:1021500000BF0849486840F0E06040F00100486076
:1021600000BF06B010BD000000300140001002406A
:10217000000C0140000001402DE9F8430446884668
:1021800016461D464FF000096068B0F5827F0DD1FC
:10219000A06858B9042084F85100334642464146AD
:1021A0002046009500F077F9BDE8F88300BF94F869
:1021B0005000012801D10220F6E7012084F85000E8
:1021C00000BFFFF7FBFA074694F85100012802D040
:1021D0004FF002097EE0B8F1000F00D016B94FF0C1
:1021E000010977E0042084F8510000206065C4F8FC
:1021F0003880A687E6872063A086E0862064606436
:10220000A068B0F5004F0BD12068006820F04000B6
:10221000216808602068006820F480402168086018
:102220002068006800F04000402805D02068006861
:1022300040F0400021680860E068F8B91AE02068C2
:10224000806800F0010050B12068007BA16B08702D
:10225000A06B401CA063E08F401EE0870AE0FFF700
:10226000ADFAC01BA84201D3681C00B915B94FF0E4
:1022700003092FE0E08F0028E1D11EE01AE020687A
:10228000806800F0010050B12068C068A16B088030
:10229000A06B801CA063E08F401EE0870AE0FFF780
:1022A0008DFAC01BA84201D3681C00B915B94FF0C4
:1022B00003090FE0E08F0028E1D13A462946204685
:1022C00000F032FC08B120206065606D08B14FF06D
:1022D000010900BF012084F8510000BF002084F8EC
:1022E000500000BF48465FE72DE9F84F0446884696
:1022F00016461D464FF0000A00BF94F85000012812
:1023000002D10220BDE8F88F012084F8500000BF00
:10231000FFF754FA0746B14694F85100012802D05D
:102320004FF0020AADE0B8F1000F00D016B94FF03F
:10233000010AA6E0032084F8510000206065C4F87B
:102340003080A686E686A063A087E087606420646C
:10235000A068B0F5004F0BD12068006820F0400065
:10236000216808602068006840F4804021680860A7
:102370002068006800F04000402805D02068006810
:1023800040F0400021680860E068B0F5006F2FD190
:10239000606810B1B9F1010F09D1206B0088216884
:1023A000C860206B801C2063E08E401EE0861BE02E
:1023B0002068806800F0020002280AD1206B0088A3
:1023C0002168C860206B801C2063E08E401EE08680
:1023D0000AE0FFF7F3F9C01BA84201D3681C00B95B
:1023E00015B94FF0030A4CE0E08E0028E0D12EE052
:1023F000606810B1B9F1010F09D1206B0078216834
:102400000873206B401C2063E08E401EE0861BE0BA
:102410002068806800F0020002280AD1206B007852
:1024200021680873206B401C2063E08E401EE0860C
:102430000AE0FFF7C3F9C01BA84201D3681C00B92A
:1024400015B94FF0030A1CE0E08E0028E0D13A46AF
:102450002946204600F0A4FB08B120206065A06852
:1024600050B900BF002000902068C068009020682C
:102470008068009000BF00BF606D08B14FF0010A96
:1024800000BF012084F8510000BF002084F85000F4
:1024900000BF504636E72DE9FF5F04468846914667
:1024A0001D460E9E012002900020019000BF94F86E
:1024B0005000012803D1022004B0BDE8F09F0120A4
:1024C00084F8500000BFFFF779F9074694F851B03F
:1024D00060680390AA46BBF1010F0BD00398B0F5DA
:1024E000827F04D1A06810B9BBF1040F02D0022092
:1024F0000190DBE0B8F1000F03D0B9F1000F00D07C
:1025000015B901200190D1E094F85100042802D0BF
:10251000052084F8510000206065C4F83890E587F4
:10252000A587C4F83080E586A586206460642068AD
:10253000006800F04000402805D02068006840F0A6
:10254000400021680860E068B0F5006F4AD160681B
:1025500010B1BAF1010F09D1206B00882168C86061
:10256000206B801C2063E08E401EE08633E02068F4
:10257000806800F00200022810D1E08E70B102984D
:1025800001280BD1206B00882168C860206B801C5B
:102590002063E08E401EE086002002902068806864
:1025A00000F0010068B1E08F58B12068C068A16BED
:1025B0000880A06B801CA063E08F401EE087012094
:1025C0000290FFF7FBF8C01BB04204D3701C10B19F
:1025D000032001906AE0E08E0028C8D1E08F002837
:1025E000C5D14AE0606810B1BAF1010F09D1206B82
:1025F000007821680873206B401C2063E08E401E29
:10260000E08634E02068806800F00200022810D1E3
:10261000E08E70B1029801280BD1206B0078216800
:102620000873206B401C2063E08E401EE086002073
:1026300002902068806800F0010068B1E08F58B116
:102640002068C068A16B0870A06B401CA063E08F7D
:10265000401EE08701200290FFF7B0F8C01BB04297
:1026600001D3701C00B916B9032001901EE0E08E62
:102670000028C7D1E08F0028C4D13A463146204611
:1026800000F08EFA20B101200190202060650DE05D
:10269000A06850B900BF002000902068C06800907A
:1026A00020688068009000BF00BF00BF012084F850
:1026B000510000BF002084F8500000BF0198FBE6E5
:1026C00070B504462546681EB0F1807F01D3012015
:1026D0000FE0681E4FF0E02148610F214FF0FF30FE
:1026E00000F00CFC00204FF0E02188610720086119
:1026F000002070BD10B504460CB9012010BDA069C2
:1027000000B100E000BF94F83D0028B9002084F833
:102710003C00204600F028F8242084F83D00206882
:10272000C06820F400502168C860204600F0F2FA2A
:102730002068006920F490402168086120684069A1
:1027400020F02A00216848612068C06840F40050E9
:102750002168C86000202064202084F83D0084F8AF
:102760003E000020CAE7000010B586B004460020F5
:1027700002900390049005901A49206888422ED157
:1027800000BF1948806940F48040174988610846B5
:10279000806900F48040019000BF00BF00BF084680
:1027A000806940F0040088610846806900F00400F8
:1027B000019000BF00BF4815029002200390032043
:1027C000059002A90948FEF76DFE4FF48060029063
:1027D00000200390049002A90448FEF763FE06B0AF
:1027E00010BD000000380140001002400008014008
:1027F0002DE9F84F04460E46174699464FF0000A59
:1028000094F83D0020285AD106B117B90120BDE83F
:10281000F88F00BF94F83C00012801D10220F6E7B0
:10282000012084F83C0000BF00202064212084F8AF
:102830003D00FEF7C3FF8246A784E784A068B0F599
:10284000805F04D1206910B90025B04602E035460A
:102850004FF0000800BF002084F83C0000BF1BE0E0
:102860005346002280212046CDF8009000F0D0FA97
:1028700008B10320CBE745B9B8F80000C0F3080061
:102880002168486008F1020803E028782168486060
:102890006D1CE08C401EE084E08C0028E0D15346A3
:1028A000002240212046CDF8009000F0B1FA08B196
:1028B0000320ACE7202084F83D000020A7E7022099
:1028C000A5E700BFFEE7000000B585B0002001903D
:1028D00002900390049000BF2948806940F02000D6
:1028E000274988610846806900F02000009000BFF9
:1028F00000BF00BF0846806940F0040088610846B8
:10290000806900F00400009000BF00BF00BF0846CF
:10291000806940F0080088610846806900F008007E
:10292000009000BF00BF0122D1031648FEF740FF10
:10293000002240211448FEF73BFF4FF40040019075
:102940000120029003900320049001A90D48FEF796
:10295000A9FD4020019001200290039003200490E3
:1029600001A90948FEF79EFD8020019000200290F9
:102970000120039001A90448FEF794FD05B000BDB5
:102980000010024000080140000C014010B50E4844
:102990000E4908604FF48270486000210B48816046
:1029A000C160016101214161490281612021C16150
:1029B00000210162416281620A21C162FFF72EFBA0
:1029C00008B1FEF758FD10BD003001402000002086
:1029D00010B50B480B4908604FF4165048600021B1
:1029E00008488160C16001610C2141610021816161
:1029F000C161FFF77FFE08B1FEF73DFD10BD00008D
:102A0000003801407800002000BFFEE700BFFEE76D
:102A10007047000008B508490968C9084FF47A7280
:102A2000B1FBF2F14143009100BF00BF00994A1E83
:102A300000920029F9D108BD1C0000207FB50024B8
:102A40000025002001900290009012208DF80C00CB
:102A500000208DF80D0000224FF400411448FEF7CD
:102A6000A7FE6423012203A91248FFF73DFC8DF85D
:102A700000006423062201A90E48FFF77DFB8DF8B4
:102A800002000122D1030A48FEF792FE9DF80500DC
:102A900000069DF8061000EB01409DF8071000EBC2
:102AA00001209DF808104418204604B070BD0000B5
:102AB00000080140200000203EB50446002500200B
:102AC0000190009044F020048DF808408DF8090032
:102AD00000224FF400411248FEF76AFE64230122EF
:102AE00002A91048FFF700FC8DF8000064230122C2
:102AF0000DF109010B48FFF7F7FB8DF80100642386
:102B0000012201A90748FFF737FB8DF802000122D7
:102B1000D1030348FEF74CFE9DF804003EBD0000C3
:102B20000008014020000020F8B504460E46154676
:102B30006068B0F5827F0DD1A068B0F5004F03D07A
:102B4000A068B0F5806F05D12068006820F04000D3
:102B5000216808606068B0F5827F11D1A068B0F587
:102B6000806F0DD13346002201212046009500F0F0
:102B70002BF898B1606D40F0200060650320F8BD2F
:102B80003346002280212046009500F01DF828B130
:102B9000606D40F0200060650320F0E70020EEE764
:102BA000F8B504460D4616462B46002280212046E5
:102BB000009600F009F828B1606D40F020006065D3
:102BC0000320F8BD0020FCE72DE9F84F04460D4630
:102BD00090461E46DDF82890FEF7F0FDA0EB0900B8
:102BE000371AFEF7EBFD82462C480068C0F3CB3065
:102BF0007843009045E0701C002842D0FEF7DEFDCF
:102C0000A0EB0A00B84200D2A7BB2068406820F0C1
:102C1000E000216848606068B0F5827F0DD1A0684F
:102C2000B0F5004F03D0A068B0F5806F05D12068E3
:102C3000006820F0400021680860A06AB0F5005FDD
:102C40000DD100BF2068006820F4005021680860A2
:102C50002068006840F400502168086000BF01202F
:102C600084F8510000BF002084F8500000BF03200A
:102C7000BDE8F88FFFE7009800B900270098401ED4
:102C80000090206880682840A84201D1012000E01F
:102C900000204045AFD10020EAE700001C000020E2
:102CA000704710B5FEF790FD10BD00B58FB028211C
:102CB00005A8FDF783FB14216846FDF77FFB012083
:102CC0000590000406900020079001200990022042
:102CD0000C90C1030D914FF4E0110E9105A8FEF781
:102CE0006BFF08B1FEF7C7FB0F2000900220019098
:102CF000002002904FF48060039000200490022195
:102D00006846FEF723FE08B1FEF7B5FB0FB000BD25
:102D10007047000070B504462168096921F44051EC
:102D2000E2681143226811612269A1681143626956
:102D300041EA02052168C96841F20C6291432943C6
:102D40002268D1602168496921F44071A269114368
:102D5000226851612D4A2168914202D1FEF7D2FECC
:102D600001E0FEF7BFFE00EBC00101EB001162685D
:102D70009200B1FBF2F100EBC00202EB00126368BB
:102D80009B00B2FBF3F26423B2FBF3F202EBC2034B
:102D900003EB0212A1EB8201322202EB0111642249
:102DA000B1FBF2F101F0F00100EBC00202EB001206
:102DB00063689B00B2FBF3F26423B2FBF3F201EB16
:102DC000021200EBC00101EB001163689B00B1FB34
:102DD000F3F100EBC00303EB00136668B600B3FB2E
:102DE000F6F36426B3FBF6F303EBC30606EB03131B
:102DF000A1EB8301322303EB01116423B1FBF3F157
:102E000001F00F0111442268916070BD003801404B
:102E10002DE9F04104460D4617469846069E21E0EE
:102E2000701CF8B12EB1FEF7C9FCA0EB0800B0424F
:102E300018D92068C06820F4D0702168C860206864
:102E4000406920F0010021684861202084F83D009D
:102E500084F83E0000BF002084F83C0000BF03203F
:102E6000BDE8F081206800682840A84201D1012017
:102E700000E00020B842D3D00020F1E700BFFEE719
:102E800038B504460D4644F040048DF8004000205B
:102E90008DF801008DF8025000224FF400410748E0
:102EA000FEF786FC6423032269460548FFF71CFAF7
:102EB0000122D1030148FEF77BFC38BD0008014028
:102EC00020000020490050EAC12018BF04204A0D0C
:102ED00018BF40F0010040F2FF72B2EB515F08BF33
:102EE00040F00200012808BF052070470248006832
:102EF000C0F30220704700000CED00E010B5002880
:102F000004DB0A07130E054A135406E00A07140EE1
:102F1000034A00F00F031B1FD45410BD00E400E06F
:102F200018ED00E030380A2801D201207047002057
:102F3000704700BF7047014600BF7047BCB0002417
:102F400000217148CDE93A100027DFF8C08100BFA9
:102F500000BF2820FDF749F98246FEF741FCFFF744
:102F6000A4FEFFF7B1FCFFF733FDFFF70FFD0122D1
:102F7000D1036748FEF71CFC012240216548FEF79B
:102F800017FC0120FFF798FD634908700A20FEF73F
:102F900075FA0120FFF790FD5F4908700320FFF7E5
:102FA0008BFD5D49087010210320FFF769FF0320A6
:102FB000FFF782FD5849087043210620FFF760FFA4
:102FC0000620FFF779FD5449087052210520FFF7CC
:102FD00057FF0520FFF770FD4F49087093E000246C
:102FE0000BE0FFF72BFD4D490860084600684AF8E2
:102FF00024001420FEF742FA641C0A2CF1DB4FF087
:103000000009CB4600241DE04FF0000915E05AF8F6
:10301000291009F101005AF8200081420BDD5AF80D
:1030200029B009F101005AF820004AF8290009F1F5
:1030300001004AF820B009F10109C4F1090048452E
:10304000E5DC641C0A2CDFDB4FF0000B032403E0FB
:103050005AF824008344641C072CF9DB58464FEAD5
:10306000EB710BEB917189102C4A116010460068CE
:1030700000F07CFA4FF42012294BCDE9000100F05A
:103080008DFA0022274BCDE9020100F087FA0022D9
:10309000244BCDE9040100F081FA0022224BCDE956
:1030A000060100F00BF9214A03C23A464346DDE926
:1030B0003A0100F071FB3A464346CDE904011B4951
:1030C00003C900F069FBCDE90201DDE9042300F04A
:1030D000F5F80022134BCDE9060100F05FFA054632
:1030E0000E462A46334612A108A8FDF7ADF808A8F7
:1030F000FDF745F980B26423024608A907900F48FE
:10310000FFF776FB00BF6AE70088D3400088D3C092
:1031100000080140000C01400000002004000020D5
:103120000000143E00408F40000040400800002096
:1031300023252E326623210D0A000000780000208E
:1031400010B500290AD00878002807D0054878442F
:10315000FDF77AFD002801D0002010BD0248784418
:1031600010BD0000EE080000E608000010B591EA6E
:10317000030F48BF83F0004300F11683841A71EBFC
:10318000030C05D2121943EB0C03001B61EB0C017D
:10319000DFF824E14FEA1154A4EB135C1EEA430F5D
:1031A00018BF9EEA445F73D023EA0E03DCF1200EC1
:1031B00021EA045143F4801332D322FA0CFE10EBBF
:1031C0000E0023FA0CFE41EB0E01CCF1200E03FAA7
:1031D0000EFE10EB0E0051F10001B1F5801FCCF195
:1031E000200E32D201EB045112FA0EF2BDE810406B
:1031F00058BF7047401C38BF5FEA420218BF704793
:10320000002814BF20F0010041F100014FEA410302
:1032100013F5001F38BF7047A1F1C04100F0B6BAE6
:10322000012A43EB0302ACF1200CDCF11F0E32BF8C
:103230004FF0000E23FA0CF310EB030041EB0451A6
:10324000B4EB115FD0D0A1EB045101F58011490816
:103250005FEA300001EB04510ED350F1000038BF9B
:1032600012FA0EFE08D1BDE81040C9E7401C38BF75
:103270005FEA4202CAD1C3E7BDE810404FEA41030A
:1032800013F5001F38BF7047A1F1C04100F07EBAAE
:103290009EEA445F08D011EA5E0FBDE8104004BF0B
:1032A00001F0004100207047BDE8104070B500F00B
:1032B0001FFA00BF64FBBE3E0000E0FF2DE9C041E5
:1032C00030B4DFF8A0C23CEA111418BF3CEA131472
:1032D00000F0EC8081EA03051CEA111444EAD5747D
:1032E00018BF1CEA131500F0C780A4EB05044FF0CB
:1032F000004545EAC12145EAC32341EA505143EA6A
:10330000525304F17F74994204F500344FEAC0200F
:103310004FEAC22208BF904200F09C804FEA13653A
:103320000FF24016765D4FEA134506FB05F7C7F12D
:10333000807706FB07F74FEAD737A7FB036876428B
:10334000C8F58038A7FB06CE38BFA8F1010807FBF7
:1033500008E64FF0000EA6FB028CE6FB03CEDCF184
:10336000000CCEF1004E38BFAEF1010EA6FB0C589A
:103370004FF000074FF00005E6FB0E87A1FB08C6E3
:10338000A0FB07CE16EB0E0645F10005E1FB076535
:1033900015F1E04E7EBFA4F580345FEA46066D412C
:1033A00016F1800745F100054FEA17274FEA066638
:1033B00047EA0567A6F1DE46B6F1805F4FEA1525BC
:1033C0001FD9384624F0010C05EBC471BCF1FE6F27
:1033D00001EB0C1102D8F0BCBDE8008124425CBFB7
:1033E00001F5801E9EEAC47F02D4F0BCBDE80081D6
:1033F000244238D4F0BCA1F1C041BDE8004100F046
:10340000C5B94FEAD22242EA43524FEAD323A7FB7F
:1034100002864FEAD02040EA415007FB03661EEACD
:103420000E0F4FEAD12105FB026658BFA6EB0056EE
:10343000B6EB00564FEA520E4EEAC37E18EB0E0E64
:1034400056EB530EBDD518EB02085E417F1C55F1BB
:103450000005B6E74FF480154FF000074FF0000667
:103460004FF00008ADE7F0BC4FF0000001F1C041A3
:1034700001F00041BDE8008111EA0C1F0CEA1315B0
:1034800000D00CE013EA0C1F00F025804FF0000084
:10349000F0BC81EA030101F00041BDE80081F0BC0D
:1034A000BDE8004181EA030100F070B9F0BCBDE85D
:1034B000004170B500F01CF9097EFC3E00F007B831
:1034C00081EA03014FF0000001F00041704781EAFA
:1034D000030100F05BB9F0BCBDE800414FF0000013
:1034E00021497047FFFDFBF9F7F5F4F2F0EEEDEB43
:1034F000E9E8E6E4E3E1E0DEDDDBDAD8D7D5D4D3F2
:10350000D1D0CFCDCCCBCAC8C7C6C5C4C2C1C0BF3D
:10351000BEBDBCBBBAB9B8B7B6B5B4B3B2B1B0AF43
:10352000AEADACABAAA9A8A8A7A6A5A4A3A3A2A127
:10353000A09F9F9E9D9C9C9B9A99999897979695E2
:1035400095949393929191908F8F8E8E8D8C8C8B7E
:103550008B8A898988888787868585848483838206
:10356000828181800000FF070000F87F10F0004298
:1035700048BF4042B0FA80F310FA03F10AD0C3F119
:103580001D0303F580634FEA415002EB035202EB47
:10359000D12170474FF0000070470000DFF848C1AC
:1035A00070B51CEA111E1EBF1CEA13159EEA0C0F13
:1035B00095EA0C0F00F06F8081EA030423EA4C13B4
:1035C0004EEAD47E21EA4C1141F4801143F4801379
:1035D000AE44A1FB024CA0FB0365AEF17F7E361921
:1035E00055EB0C05A1FB034C4CF10003A0FB021CA6
:1035F00016EB0C06654153F10003094218BF46F073
:10360000010613F4007F0BD14FEA03314FEA053076
:10361000340341EA155140EA16506FF003020AE004
:103620004FEAC3214FEAC520F40241EA555140EA6E
:1036300056506FF0020202EB2E4201EB025585EA72
:10364000CE710AD05FEA440C18BF24F0004450F158
:10365000000041F1000120EAD47040F2FE7C624596
:1036600000D270BDA84214BF4FF080444FF04044D8
:10367000002E08BF0024BEF1806FA8BFA1F1C04199
:10368000BDE8704080F282804FF0000001F1C0413F
:1036900001F0004170479EEA0C0F0CEA131518BFA9
:1036A00095EA0C0F06D04FF0000081EA030E0EF0F1
:1036B000004170BD00F01CF88900013E00F007B821
:1036C00000F009B84FEA430C5FEA5C5C08D081EA7D
:1036D000030100F05BB84FEA410C5FEA5C5CF6D195
:1036E0004FF00000014970470000FF070000F87F1D
:1036F0000EF1020E2EF0030E5EF8046B364205D476
:10370000012A43EB030515F5001F12D8012841EBF0
:10371000010C1CF5001F0CD80ED14FEAD17C15F519
:10372000001F0CEB4C0C0CF1020C08BF4CEBD37CD3
:1037300004E04FF0080C01E04FEAD37C0CEB4C05A1
:1037400026FA05F606F00706B6F1040C06D20EEBD3
:10375000860CBDE870404CF0010C6047DFE80CF0CF
:10376000090B02024FF000414FF00000A1F50021CB
:1037700070BD19461046012851EB010418BFD4F55D
:10378000001484BF002001F0004170BD0808A0F5BE
:1037900000114FEA3101704710B591EA030F48BF9D
:1037A00083F000433FF5EAAC841A71EB030C07D2B7
:1037B00012198CF0004C43EB0C03001B61EB0C0165
:1037C000DFF8A4E14FEA1154A4EB135C1EEA430FA7
:1037D00018BF9EEA445F00F0B08023EA6E035242B5
:1037E00021EA0451C3EB6E0338BF5B1EDCF1200EEF
:1037F00025D322FA0CFE10EB0E0043FA0CFE41EB2F
:103800000E01CCF1200E03FA0EFE10EB0E0051F16A
:103810000001CCF1200E29D412FA0EF201EB045172
:10382000BDE8104058BF7047401C1CBFB2F1004FAC
:10383000704700280CBF491C20F00100704712EBB4
:10384000020E43EB030218BF4FF0010E4EEA420294
:10385000ACF1200CDCF11E0E54D943FA0CFE10EB37
:103860000E0051F1FF31CCF11E0ED5D50EF1010E37
:1038700012FA0EFE404141EB010101EB445C5FEAAC
:103880005C5C10D910EBDE7001EB045138BFBEF167
:10389000004FBDE8104018BF704700280CBF491CFE
:1038A00020F00100704730D24FEAD42C11F50011FE
:1038B00024F400641BD0B1FA81F20B3AA41AA41EBE
:1038C000D2F12003914030FA03F31943904001EB09
:1038D000CC71002C01EB0451BDE81040A8BF70472B
:1038E00001F1C0414FF0000001F000417047B0FA13
:1038F00080F310FA03F100D110BDE41A173C48051B
:10390000C90AE4E701EB045110BD491001EB045171
:10391000BDE810404FEA300002E04FF00001704770
:103920004A0008BF0042F8D0B2F5001F28BF704718
:1039300001F000414FF0000070479EEA445F07D05D
:1039400011EA5E0FBDE8104004BF0021002070475F
:10395000BDE8104070B5FFF7CBFE00BF40DFF63E7C
:1039600083F00041104670470000E0FFFCF7A2BE64
:10397000000000000000000001020304060708091F
:10398000000000000102030402400000000000A04B
:103990000000000005400000000000C8000000001A
:1039A0000C4000000000409C000000001940000096
:1039B0000020BCBE0000000034400000BFC91B8EC8
:1039C00000000004B5400000504BCFD06607E2CFA6
:1039D000010000006C4100003E8251AADFEEA734D6
:1039E00001000000D9420000DCB5A0E23A301F9788
:1039F000FFFFFFFFB4450000FD25A0C8E9A3C14FAC
:103A0000FFFFFFFFFF3F00000000008000000000FC
:103A1000FF3F00000000008000000000583A00084E
:103A2000000000202000000028010008783A00086B
:103A30002000002000070000440100081C000000D6
:103A400043000000F8FFFFFF0C0000000E00000024
:103A50000F0000002E000000000000000000000029
:103A60000000000000000000000000001000000046
:083A7000010000000024F40035
:04000005080000ED02
:00000001FF
