:020000040800F2
:1000000050150024550300085D2D0008592D0008E7
:1000100065250090750500084532000800000000C5
:100020000000000000000000000000004131000856
:1000300079050008000000005F2D0008433100082A
:100040006F0300086F0300086F0300086F030008C8
:100050006F0300086F0300086F0300086F030008B8
:100060006F0300086F0300086F0300086F030008A8
:100070006F0300086F0300086F0300086F03000898
:100080006F0300086F0300086F0300086F03000888
:100090006F0300086F0300086F0300086F03000878
:1000A0006F0300086F0300086F0300086F03000868
:1000B0006F0300086F0300086F0300086F03000858
:1000C0006F0300086F0300086F0300086F03000848
:1000D0006F030008F5310008A54200906F03000887
:1000E0006F0300086F030008000000006F030008A2
:1000F0006F0300086F0300086F0300086F03000818
:100100006F0300086F030008052600906F030008C6
:100110006F0300086F0300086F0300086F030008F7
:100120006F0300086F0300086F0300086F030008E7
:100130006F0300086F0300086F0300086F030008D7
:1001400000000000000000000000000000000000AF
:100150006F0300086F0300086F0300086F030008B7
:100160006F0300086F0300086F0300086F030008A7
:100170006F0300086F0300086F0300086F03000897
:100180006F0300086F0300086F0300086F03000887
:100190006F0300086F0300086F0300086F03000877
:1001A0006F0300086F0300086F0300086F03000867
:1001B0006F0300086F0300086F0300086F03000857
:1001C0006F0300086F0300086F0300086F03000847
:1001D0006F0300086F0300086F0300086F03000837
:1001E0006F0300086F0300086F0300086F03000827
:1001F0006F0300086F0300086F0300086F03000817
:100200006F0300086F0300086F0300086F03000806
:100210006F0300086F0300086F0300086F030008F6
:100220006F0300086F0300086F0300080000000060
:100230006F0300086F030008000000006F03000850
:100240006F0300086F0300086F0300086F030008C6
:100250006F0300086F0300086F0300086F030008B6
:100260006F0300086F0300086F0300086F030008A6
:100270006F0300086F0300086F0300080000000010
:100280006F0300086F0300086F0300080000000000
:10029000000000006F03000800F002F800F04AF8C8
:1002A0000AA090E8000C82448344AAF10107DA45D1
:1002B00001D100F03FF8AFF2090EBAE80F0013F0D9
:1002C000010F18BFFB1A43F001031847E035000087
:1002D00000360000103A24BF78C878C1FAD8520717
:1002E00024BF30C830C144BF04680C6070470000B0
:1002F0000023002400250026103A28BF78C1FBD82F
:10030000520728BF30C148BF0B6070471FB503F0CC
:10031000BFFA00F0E1F804000020002103F0A2FA87
:10032000401C60600020002103F086FAE0601FBDE1
:1003300010B510BD00F0AAF81146FFF7E7FF02F074
:10034000F7FF00F0CDF803B4FFF7F2FF03BC02F0B3
:1003500097FF00000948804709480047FEE7FEE78D
:10036000FEE7FEE7FEE7FEE7FEE7FEE7FEE7FEE765
:1003700004480549054A064B704700004D31000806
:1003800099020008500B002450150024500D002441
:10039000500D0024704753EA020C00F069802DE9EB
:1003A000F04B4FF00006002B1FBFB3FA83F503FAA2
:1003B00005F424FA05F65E4012BF1643B2FA82F540
:1003C00002FA05F4C5F120051EBF22FA05FC44EA35
:1003D0000C04203556EA044C4FEA144418BF641C40
:1003E0004FF000084FF00009904271EB030C39D335
:1003F000002919BFB1FA81F701FA07F6B0FA80F7C0
:1004000000FA07F6C7F120071EBF20FA07FC46EAEC
:100410000C062037B6FBF4FCA7EB0507103F07F0EE
:100420001F0BCBF120060CFA0BFB2CFA06F644BF8F
:10043000B3460026202FA4BF5E464FF0000B5BEAB8
:10044000060C08BF4FF0010B19EB0B09ABFB027C4C
:1004500048EB0608C01B06FB02CC0BFB03CC71EB80
:100460000C01C1E70B46024641464846BDE8F08B09
:1004700013B54FF000004FF00001AFF30080BDE86E
:100480001C4070477047704770477047754600F0D2
:1004900031F8AE4605006946534620F00700854610
:1004A00018B020B5FFF764FFBDE820404FF000060C
:1004B0004FF000074FF000084FF0000B21F007014C
:1004C000AC46ACE8C009ACE8C009ACE8C009ACE88F
:1004D000C0098D4670470000004870470C0B00248F
:1004E00010B50446AFF300802046BDE81040FFF78A
:1004F0002ABF000000487047EC0A002441F6A57CA2
:10050000C9F2000C604741F6937CC9F2000C6047C9
:1005100042F2513CC9F2000C604748F2FD0CC9F2AE
:10052000000C604748F2350CC9F2000C604744F6F5
:10053000812CC9F2000C604747F2655CC9F2000CDF
:10054000604744F2FD7CC9F2000C604747F6257C09
:10055000C9F2000C604740F2B50CC9F2000C6047CC
:1005600042F2B11CC9F2000C604741F2911CC9F281
:10057000000C604700BFFEE77047000070B50446FE
:100580000CB9012070BD94F83500022803D08020FA
:1005900060650120F6E7DC492068884249D0DA49E5
:1005A00018312068884244D0D749303120688842C9
:1005B0003FD0D5494831206888423AD0D24960318D
:1005C0002068884235D0D04978312068884230D0C0
:1005D000CD499031206888422BD0CB49A831206882
:1005E000884226D0C9492068884222D0C74918319C
:1005F000206888421DD0C54930312068884218D013
:10060000C24948312068884213D0C049603120680F
:1006100088420ED0BD4978312068884209D0BB4954
:1006200090312068884204D0B849A83120688842B7
:1006300001D1012000E00020F0B3042084F835004F
:10064000B149206888424BD0AF49183120688842B0
:1006500046D0AD4930312068884241D0AA4948315E
:10066000206888423CD0A84960312068884237D051
:10067000A54978312068884232D0A349903120685A
:1006800088422DD0A049A8312068884228D09F49AF
:100690002068884224D09D491831206888421FD0A4
:1006A0009A493031206888421AD0984948312068E8
:1006B000884215D0954900E020E0603120688842EA
:1006C0000ED0924978312068884209D08F49903104
:1006D0002068884204D08D49A8312068884206D11C
:1006E0002068006820F001002168086009E12068A6
:1006F000006820F001002168086002E120680068BD
:1007000020F00E00216808607F492068884249D0A7
:100710007D4918312068884244D07B4930312068B7
:1007200088423FD078494831206888423AD076499B
:1007300060312068884235D073497831206888421A
:1007400030D071499031206888422BD06E49A83151
:100750002068884226D06D492068884222D06B49A3
:100760001831206888421DD068493031206888429D
:1007700018D0664948312068884213D063496031F7
:10078000206888420ED0614978312068884209D0BB
:100790005E4990312068884204D05C49A8312068C5
:1007A000884206D12068006820F0010021680860B6
:1007B00005E02068006820F00100216808605249C7
:1007C0002068884270D050491831206888426BD028
:1007D0004D4930312068884266D04B494831206805
:1007E000884261D048496031206888425CD04649DF
:1007F00078312068884257D0434990312068884238
:1008000052D04149A831206888424DD03F492068E4
:10081000884249D03D4918312068884244D03B493C
:100820003031206888423FD03849483120688842BA
:100830003AD0364960312068884235D03349783122
:100840002068884230D031499031206888422BD0CE
:100850002E49A8312068884226D02D492068884238
:1008600022D02B491431206888421DD028492831D4
:100870002068884218D026493C312068884213D02D
:1008800023495031206888420ED0214964312068C4
:10089000884209D01E4978312068884204D01C491A
:1008A0008C312068884201D1012000E00020D8B1BD
:1008B000206E006820F48070216E0860A56D94F8A9
:1008C0005C0000F01F01012088406860D4E9191025
:1008D0004860E06E40B1E06E006820F48070E16E28
:1008E0000860D4E91C10486000BF002084F8340080
:1008F00000BF012084F83500206D10B12046216D25
:10090000884700203EE6000010000240100402402C
:10091000085402580348006840F00100014908608B
:100920007047000020040058F8B502460023734DBC
:10093000DEE001279F400E6806EA0704002C71D014
:100940004E68022E02D04E68122E13D1DF0802F13B
:10095000200656F827005E07F70E0F26BE40B0436C
:100960005F07FF0E0E69BE403043DF0802F120062C
:1009700046F8270010685F000326BE40B0430E799A
:1009800006F003065F00BE40304310604E68012E43
:1009900008D04E68022E05D04E68112E02D04E6847
:1009A000122E13D190685F000326BE40B0435F0053
:1009B000CE68BE4030439060506801269E40B043F0
:1009C0000E79C6F300169E4030435060D0685F0039
:1009D0000326BE40B0435F008E68BE403043D06007
:1009E0004E6806F08056B6F1805F1BD100BF444EC2
:1009F000366846F00206424F3E603E46366806F0D4
:100A00000206009600BF00BF3E4E9F0856F8270022
:100A10009E07370F0F26BE40B0433B4EB24202D175
:100A200000262EE063E0394EB24201D1012628E0D3
:100A3000374EB24201D1022623E0364EB24201D1F6
:100A400003261EE0344EB24201D1042619E0334E93
:100A5000B24201D1052614E0314EB24201D1062640
:100A60000FE0304EB24201D107260AE02E4EB242CC
:100A700001D1082605E02D4EB24201D1092600E041
:100A80000A269F073F0FBE4030431E4E9F0846F880
:100A900027002868A0434E6806F48036B6F5803FEC
:100AA00000D1204328606868A0434E6806F40036F1
:100AB000B6F5003F00D1204368604FF0B046306883
:100AC000A0434E6806F48016B6F5801F00D120437F
:100AD0004FF0B04630607068A0434E6806F40016D0
:100AE000B6F5001F00D120434FF0B04670605B1C8C
:100AF0000E68DE40002E7FF41CAFF8BD8000005869
:100B0000F444025808040058000002580004025837
:100B100000080258000C0258001002580014025835
:100B200000180258001C02580020025800240258E5
:100B3000024613690B400BB1012000E00020704712
:100B400042690A408A4202D10A04826100E081615E
:100B500070470AB1816101E00B04836170470000B6
:100B600001480068000C70470010005C01480068F4
:100B70007047000014000024034800680349097806
:100B80000844014908607047140000241C00002438
:100B900010B5052000F00AF901F0CCFA10490968F7
:100BA000C1F303210F4A515C01F01F01C8400E49F7
:100BB00008600B48006800F00F001146085C00F068
:100BC0001F0109480068C840084908600F2000F06C
:100BD0000FF808B1012010BD00F09AF80020FAE7E4
:100BE000184402589A380008000000240400002429
:100BF00070B504461148007808B9012070BD0F484F
:100C000000784FF47A71B1FBF0F00D490968B1FB3F
:100C1000F0F5284601F078FF08B10120EEE7102C2E
:100C200007D200222146501E00F083F805480460D8
:100C300001E00120E2E70020E0E700001C000024C2
:100C400000000024180000244178154A1160017842
:100C5000F9B1121D41681160017B0907C27A41EAAE
:100C60000261827A41EAC241427B41EA8241827B4F
:100C700041EA4241C27B41EA0241427A41EA022111
:100C8000027A41EA420102781143054A08321160B2
:100C900005E00021024A121D1160121D116070470B
:100CA00098ED00E000BF00BF00BFBFF35F8F00BF43
:100CB00000BF00BF0548006820F480300349086089
:100CC00000200249703108607047000024ED00E008
:100CD00040F001010D4A11600C497039096841F476
:100CE00080310A4A703A116000BF00BF00BFBFF3F5
:100CF0004F8F00BF00BF00BF00BF00BF00BFBFF3EA
:100D00006F8F00BF00BF00BF7047000094ED00E090
:100D1000704701460846002809DB00F01F03012246
:100D20009A4043099B0003F1E023C3F8002100BF70
:100D300070472DE9F05F80460D46164602F084FAB2
:100D4000074639462A46334601F00700C0F1070A34
:100D5000BAF1040F02D94FF0040A01E0C0F1070A0A
:100D6000D14600F1040ABAF1070F02D24FF0000A8F
:100D700001E0A0F1030AD4464FF0010A0AFA09FA89
:100D8000AAF1010A0AEA020A0AFA0CFA4FF0010B68
:100D90000BFA0CFBABF1010B0BEA030B4AEA0B0459
:100DA0002146404602F058FABDE8F09F00BF00F02F
:100DB0000702064B19684FF6FF031940044B0B431B
:100DC00043EA0221014B196000BF70470CED00E0BF
:100DD0000000FA050348006840F08070014908608F
:100DE000704700000C48025810B501F0A3F90749FC
:100DF0000968C1F30321064A515C01F01F01C84094
:100E0000044908600846006810BD000018440258F4
:100E10009A3800080000002410B501F04FF9054988
:100E20000968C1F30211044A515C01F01F01C84076
:100E300010BD0000204402589A38000870B50146E1
:100E4000844D2D6805F00303824D2D68C5F30530F0
:100E5000804D2D1D2D68C5F300147E4D14352D6871
:100E6000C5F3CC0515FB04F501EE105AB8EE411A96
:100E7000F0EE410A00286FD023B1012B4ED0022B97
:100E80006BD16BE0734D283D2D68C5F340153DB324
:100E9000704D283D2D68C5F3C1066F4D25FA06F249
:100EA00001EE102AF8EE411A01EE100AB8EE411ACE
:100EB00081EE812A9FED691AC0EE811A654D1035C9
:100EC0002D68C5F3080501EE105AB8EE411A31EE4F
:100ED000811AF7EE001A31EE211A22EE010A1CE007
:100EE00001EE100AB8EE411ADFED5D1A81EE812A9B
:100EF0009FED5A1AC0EE811A564D10352D68C5F374
:100F0000080501EE105AB8EE411A31EE811AF7EEDB
:100F1000001A31EE211A22EE010A5BE001EE100AFE
:100F2000B8EE411ADFED4F1A81EE812A9FED4B1A80
:100F3000C0EE811A474D10352D68C5F3080501EE46
:100F4000105AB8EE411A31EE811AF7EE001A31EE5E
:100F5000211A22EE010A3DE077E01DE001EE100AC1
:100F6000B8EE411A9FED402AC2EE011A9FED3B1ADE
:100F700080EE812A374D10352D68C5F3080501EE46
:100F8000105AB8EE411A32EE011AB7EE002A31EECD
:100F9000021A21EE810A1DE001EE100AB8EE411A94
:100FA000DFED301A81EE812A9FED2C1AC0EE811AF6
:100FB000284D10352D68C5F3080501EE105AB8EE1E
:100FC000411A31EE811AF7EE001A31EE211A22EEA3
:100FD000010A00BF00BF1F4D10352D68C5F346251F
:100FE00001EE105AB8EE411AF7EE001A31EE211A4E
:100FF000C0EE011ABCEEE11A81ED001A154D103554
:101000002D68C5F3064501EE105AB8EE411AF7EE09
:10101000001A31EE211AC0EE011ABCEEE11A81ED80
:10102000011A0C4D10352D68C5F3066501EE105AF6
:10103000B8EE411AF7EE001A31EE211AC0EE011A8D
:10104000BCEEE11A81ED021A03E000250D604D604F
:101050008D6070BD284402580090D0030000004607
:101060000024744C0024744A0024F44A70B50146EC
:10107000844D2D6805F00303824D2D68C5F305509E
:10108000804D2D1D2D68C5F300247E4D1C352D6827
:10109000C5F3CC0515FB04F501EE105AB8EE411A64
:1010A000F0EE410A00286FD023B1012B4ED0022B65
:1010B0006BD16BE0734D283D2D68C5F340153DB3F2
:1010C000704D283D2D68C5F3C1066F4D25FA06F217
:1010D00001EE102AF8EE411A01EE100AB8EE411A9C
:1010E00081EE812A9FED691AC0EE811A654D18358F
:1010F0002D68C5F3080501EE105AB8EE411A31EE1D
:10110000811AF7EE001A31EE211A22EE010A1CE0D4
:1011100001EE100AB8EE411ADFED5D1A81EE812A68
:101120009FED5A1AC0EE811A564D18352D68C5F339
:10113000080501EE105AB8EE411A31EE811AF7EEA9
:10114000001A31EE211A22EE010A5BE001EE100ACC
:10115000B8EE411ADFED4F1A81EE812A9FED4B1A4E
:10116000C0EE811A474D18352D68C5F3080501EE0C
:10117000105AB8EE411A31EE811AF7EE001A31EE2C
:10118000211A22EE010A3DE077E01DE001EE100A8F
:10119000B8EE411A9FED402AC2EE011A9FED3B1AAC
:1011A00080EE812A374D18352D68C5F3080501EE0C
:1011B000105AB8EE411A32EE011AB7EE002A31EE9B
:1011C000021A21EE810A1DE001EE100AB8EE411A62
:1011D000DFED301A81EE812A9FED2C1AC0EE811AC4
:1011E000284D18352D68C5F3080501EE105AB8EEE4
:1011F000411A31EE811AF7EE001A31EE211A22EE71
:10120000010A00BF00BF1F4D18352D68C5F34625E4
:1012100001EE105AB8EE411AF7EE001A31EE211A1B
:10122000C0EE011ABCEEE11A81ED001A154D183519
:101230002D68C5F3064501EE105AB8EE411AF7EED7
:10124000001A31EE211AC0EE011ABCEEE11A81ED4E
:10125000011A0C4D18352D68C5F3066501EE105ABC
:10126000B8EE411AF7EE001A31EE211AC0EE011A5B
:10127000BCEEE11A81ED021A03E000250D604D601D
:101280008D6070BD284402580090D00300000046D5
:101290000024744C0024744A0024F44A2DE9F041DF
:1012A00004460025A846206800F00060B0F1006FF9
:1012B00030D1606E48B1B0F5801F0DD0B0F5001F81
:1012C00010D0B0F5401F15D113E0F948006840F484
:1012D0000030F74908600FE00221201D01F040FDB9
:1012E000054609E0022104F1240001F0EBFD05466A
:1012F00002E001E0012500BF00BF55B9EC482430F1
:10130000006820F44010616E0843E9492431086008
:1013100000E0A846208800F48070B0F5807F2DD1D1
:10132000606D05281AD2DFE800F0030A10171800D4
:10133000DF48006840F40030DD49086010E000211B
:10134000201D01F00DFD05460AE0002104F12400F6
:1013500001F0B8FD054603E002E001E0012500BF11
:1013600000BF55B9D2482430006820F00700616DF5
:101370000843CF492431086000E0A846208800F4E3
:101380000070B0F5007F33D1A06D802817D003DC4A
:1013900040B140281CD10CE0C02817D0B0F5807FA8
:1013A00016D114E0C248006840F40030C04908601B
:1013B00010E00021201D01F0D3FC05460AE00021C9
:1013C00004F1240001F07EFD054603E002E001E0A7
:1013D000012500BF00BF55B9B5482430006820F48E
:1013E000E070A16D0843B2492431086000E0A846CE
:1013F000208800F48060B0F5806F38D1D4F8A40064
:10140000B0F5800F19D004DC50B1B0F5001F1DD12C
:101410000DE0B0F5C00F17D0B0F5000F16D114E0F5
:10142000A348006840F40030A149086010E00021A2
:10143000201D01F095FC05460AE0002104F124007E
:1014400001F040FD054603E002E001E0012500BF98
:1014500000BF5DB996482C30006820F46000D4F8D5
:10146000A410084392492C31086000E0A846208867
:1014700000F40060B0F5006F38D1D4F8A800B0F1E6
:10148000007F19D004DC50B1B0F1807F1DD10DE098
:10149000B0F1407F17D0B0F1806F16D114E08448CE
:1014A000006840F400308249086010E00021201DEF
:1014B00001F056FC05460AE0002104F1240001F089
:1014C00001FD054603E002E001E0012500BF00BF89
:1014D0005DB977482C30006820F0E060D4F8A8109F
:1014E000084373492C31086000E0A846206800F0EA
:1014F0000070B0F1007F27D1A06CA0B1102804D0FB
:10150000202809D030280FD10CE06948006840F449
:1015100000306749086009E00221201D01F020FC2D
:10152000054603E002E001E0012500BF00BF55B918
:101530005F482030006820F03000A16C08435C490F
:101540002031086000E0A846208800F48050B0F503
:10155000805F36D1E06DB0F5005F19D004DC50B18A
:10156000B0F5805F1DD10DE0B0F5405F17D0B0F54C
:10157000804F16D114E04E48006840F400304C49CA
:10158000086010E00021201D01F0EAFB05460AE09A
:10159000002104F1240001F095FC054603E002E07F
:1015A00001E0012500BF00BF55B941482430006863
:1015B00020F4E040E16D08433D492431086000E03B
:1015C000A846208800F40050B0F5005F34D1206EAA
:1015D000B0F5403F1DD007DC68B1B0F5803F0BD0BF
:1015E000B0F5003F18D10DE0B0F5802F12D0B0F566
:1015F000A02F11D10FE011E00121201D01F0B0FB5F
:1016000005460BE0012104F1240001F05BFC0546D6
:1016100004E003E002E001E0012500BF00BF55B98E
:1016200023482430006820F4E020216E084320493C
:101630002431086000E0A846208800F48040B0F51E
:10164000804F38D1D4F8AC00B0F1405F1DD007DC3A
:1016500068B1B0F1805F0BD0B0F1005F18D10DE040
:10166000B0F1804F12D0B0F1A04F11D10FE011E0D6
:101670000121201D01F074FB05460BE0012104F15E
:10168000240001F01FFC054604E003E002E001E055
:10169000012500BF00BF6DB905482C30006820F05F
:1016A000E040D4F8AC10084301492C31086002E056
:1016B0002C440258A846208800F40040B0F5004FA2
:1016C00026D1E06E98B1B0F1805F03D0B0F1005F39
:1016D0000ED106E0F948006840F40030F749086090
:1016E00008E00121201D01F03BFB054602E001E07E
:1016F000012500BF00BF55B9F0482430006820F034
:101700004050E16E0843ED492431086000E0A846EE
:10171000206800F08070B0F1807F27D1606CA0B1AC
:10172000012804D0022809D003280FD10CE0E34897
:10173000006840F40030E149086009E00221201D02
:1017400001F00EFB054603E002E001E0012500BFC9
:1017500000BF55B9D9482030006820F00300616C03
:101760000843D6492031086000E0A846206800F40C
:101770008000B0F5800F7DD1D148006840F48070C2
:10178000CF490860FFF7F2F9064606E0FFF7EEF9E9
:10179000801B642801D9032505E0C948006800F4CE
:1017A00080700028F2D000BF85BBC4484430006878
:1017B00000F44070B4F8B01001F44071884213D0C6
:1017C000BE484430006820F44077BC48443000688C
:1017D00040F48030B949443108600846006820F47C
:1017E0008030086008460760D4F8B000B0F5807F0C
:1017F00015D1FFF7BBF9064609E0FFF7B7F9801BE3
:1018000041F28831884202D9032507E038E0AB482D
:1018100044300068C0F340000028EED000BF55BB44
:1018200000BFB4F8B00000F44070B0F5407F0ED1B6
:10183000A2481C38006820F47C51A24AD4F8B000B9
:10184000104041EA10109D491C39086007E09B4890
:101850001C38006820F47C5098491C39086097486F
:1018600044300068B4F8B010C1F30B010843934949
:10187000443101E005E001E0086002E0A84600E034
:10188000A846207800F0010068B3A06F182819D08E
:1018900005DC48B1082808D0102816D10BE0202814
:1018A00011D0282811D10FE011E00121201D01F0F5
:1018B00057FA05460BE0012104F1240001F002FB78
:1018C000054604E003E002E001E0012500BF00BF9F
:1018D00055B97A482830006820F03800A16F0843D5
:1018E00076492831086000E0A846207800F0020020
:1018F000022828D1606F062815D2DFE800F0030423
:101900000A11121311E00121201D01F029FA0546E8
:101910000BE0012104F1240001F0D4FA054604E0B3
:1019200003E002E001E0012500BF00BF55B96348B4
:101930002830006820F00700616F08435F492831B4
:10194000086000E0A846207800F0040004282AD1AE
:10195000D4F89000062815D2DFE800F003040A113D
:10196000121311E00121201D01F0FAF905460BE0E8
:10197000012104F1240001F0A5FA054604E003E08A
:1019800002E001E0012500BF00BF5DB94B482C30EB
:10199000006820F00700D4F89010084347492C3124
:1019A000086000E0A846207800F02000202836D10A
:1019B000D4F88C00B0F1405F1DD007DC68B1B0F105
:1019C000805F0BD0B0F1005F18D10DE0B0F1804F17
:1019D00012D0B0F1A04F11D10FE011E00021201D75
:1019E00001F0BEF905460BE0022104F1240001F0EC
:1019F00069FA054604E003E002E001E0012500BFCA
:101A000000BF5DB92D482830006820F0E040D4F8D0
:101A10008C10084329492831086000E0A846207846
:101A200000F04000402836D1D4F89800B0F5406F5F
:101A30001DD007DC68B1B0F5806F0BD0B0F5006F3A
:101A400018D10DE0B0F5805F12D0B0F5A05F11D1D4
:101A50000FE011E00021201D01F082F905460BE0A6
:101A6000022104F1240001F02DFA054604E003E010
:101A700002E001E0012500BF00BF5DB90F482C3036
:101A8000006820F4E050D4F8981008430B492C313A
:101A9000086000E0A846207800F0800080283AD155
:101AA000D4F89C00B0F5C04F23D00DDC98B1B0F550
:101AB000005F11D0B0F5804F1ED113E02C440258C6
:101AC00000480258FFFCFF0FB0F5004F12D0B0F5F0
:101AD000204F11D10FE011E00021201D01F040F94D
:101AE00005460BE0022104F1240001F0EBF9054664
:101AF00004E003E002E001E0012500BF00BF4DB9B2
:101B0000AD48006820F46040D4F89C100843AA490E
:101B1000086000E0A846207800F00800082817D1E7
:101B2000D4F88000B0F5805F07D1022104F12400D1
:101B300001F0C8F908B14FF001089F48001F006884
:101B400020F44050D4F8801008439B49091F0860D6
:101B5000207800F01000102815D1D4F89400B0F5CA
:101B6000807F07D1022104F1240001F0ABF908B114
:101B70004FF001089048006820F44070D4F89410A9
:101B800008438D490860206800F40020B0F5002F5C
:101B900026D1D4F8A00030B1B0F5803F09D0B0F51F
:101BA000003F0ED10CE00021201D01F0D9F80546C0
:101BB00009E0022104F1240001F084F9054602E065
:101BC00001E0012500BF00BF4DB97B48006820F44B
:101BD0004030D4F8A01008437749086000E0A846D8
:101BE000206800F48020B0F5802F2DD1D4F8840037
:101BF000B0F5801F06D0B0F5001F0CD0B0F5401F27
:101C000011D10FE06C482C38006840F400306A496C
:101C10002C39086009E0012104F1240001F052F997
:101C2000054602E001E0012500BF00BF5DB9624842
:101C3000001F006820F44010D4F8841008435E4967
:101C4000091F086000E0A846206800F48030B0F565
:101C5000803F24D1E06C18B1B0F5803F0FD108E08F
:101C600055482C38006840F4003053492C3908603E
:101C700007E00221201D01F073F8054601E001256F
:101C800000BF00BF55B94C480C38006820F48030C4
:101C9000E16C084348490C39086000E0A846206818
:101CA00000F00050B0F1005F07D1022104F12400E0
:101CB00001F008F908B14FF00108206800F4003085
:101CC000B0F5003F27D1E06FA0B1B0F5807F06D01E
:101CD000B0F5007F0CD0B0F5407F0CD109E036485C
:101CE0002C38006840F4003033492C39086004E097
:101CF00003E002E001E0012500BF00BF55B92E4816
:101D0000001F006820F44070E16F08432A49091F52
:101D1000086000E0A846206800F48010B0F5801F3D
:101D200009D125480838006820F00040216F084399
:101D3000214908390860206800F40010B0F5001F40
:101D400009D11D480838006820F08070A16E084352
:101D5000194908390860206800F08040B0F1804FD0
:101D600011D100BF14484838006820F400401249DF
:101D70004839086008460068D4F8B81008430E498E
:101D80004839086000BF206800F00040B0F1004F03
:101D900009D109480C38006820F04050216D0843F3
:101DA00005490C390860B8F1000F02D10020BDE8E8
:101DB000F0810120FBE70000584402582DE9F04172
:101DC00004460D4614B90120BDE8F081B64800680C
:101DD00000F00F00A8420ED2B348006820F00F00B8
:101DE0002843B14908600846006800F00F00A84287
:101DF00001D00120E8E7207800F0040004280ED18B
:101E0000AA492069096801F07001884207D9A748EA
:101E1000006820F0700021690843A4490860207818
:101E200000F00800082811D1A049091D606909685F
:101E300001F07001884209D99C48001D006820F01B
:101E40007000616908439949091D0860207800F015
:101E50001000102811D19549091DA069096801F4E5
:101E6000E061884209D99148001D006820F4E060D3
:101E7000A16908438D49091D0860207800F0200001
:101E8000202811D189490831E069096801F0700101
:101E9000884209D985480830006820F07000E1695F
:101EA0000843824908310860207800F002000228C7
:101EB0000ED17E49E068096801F00F01884207D918
:101EC0007A48006820F00F00E1680843774908600D
:101ED000207800F00100002850D07448006820F4F9
:101EE0007060A1680843714908606068022807D1E2
:101EF0006E4818380068C0F34040F8B9012063E725
:101F00006068032807D1694818380068C0F340604A
:101F1000A0B9012058E76068012807D16348183844
:101F20000068C0F3002048B901204DE75F48183829
:101F30000068C0F3800008B9012045E75B48083815
:101F4000006820F0070061680843584908390860B4
:101F5000FEF70CFE064608E0FEF708FE801B41F285
:101F60008831884201D903202EE75048083800689C
:101F700000F038006168B0EBC10FEDD1207800F0BF
:101F8000020002280ED14949E068096801F00F01FA
:101F9000884207D24548006820F00F00E1680843F6
:101FA000424908604048006800F00F00A8420ED97E
:101FB0003D48006820F00F0028433B490860084670
:101FC000006800F00F00A84201D00120FCE6207854
:101FD00000F0040004280ED134492069096801F09A
:101FE0007001884207D23148006820F070002169F2
:101FF00008432E490860207800F00800082811D115
:102000002A49091D6069096801F07001884209D2F6
:102010002648001D006820F07000616908432349CC
:10202000091D0860207800F01000102811D11F4908
:10203000091DA069096801F4E061884209D21B48C2
:10204000001D006820F4E060A16908431749091DDC
:102050000860207800F02000202811D113490831B1
:10206000E069096801F07001884209D20F48083020
:10207000006820F07000E16908430C4908310860ED
:1020800000F058F809490968C1F30321084A515C76
:1020900001F01F01C8400749086007480068FEF7C3
:1020A000A7FD074638468FE6002000521844025824
:1020B0009A380008000000241800002410B5FEF72C
:1020C00093FE0749096801F00F01064A515C01F0CF
:1020D0001F01C840044908600846006810BD0000A0
:1020E000184402589A3800080400002410B5FFF77D
:1020F000E5FF05490968C1F30211044A515C01F08A
:102100001F01C84010BD00001C4402589A38000846
:1021100010B5FFF7D3FF05490968C1F30221044A4E
:10212000515C01F01F01C84010BD00001C44025862
:102130009A380008F0B5824E366806F0380636B197
:10214000082E15D0102E15D0182E7DD114E07C4EFF
:10215000103E3668C6F3401646B1794E103E3668DA
:10216000C6F3C107774E26FA07F000E07548E5E0B0
:102170007548E3E07548E1E0714E1836366806F0C0
:1021800003046F4E18363668C6F305116C4E1C36C4
:10219000366806F001056A4E24363668C6F3CC066A
:1021A00016FB05F601EE106AB8EE410A002971D05F
:1021B00024B1012C50D0022C6DD16DE0604E103E48
:1021C0003668C6F340163EB35D4E103E3668C6F321
:1021D000C1075C4E26FA07F301EE103AF8EE411AF9
:1021E00001EE101AB8EE411A81EE812A9FED581ABD
:1021F000C0EE011A524E20363668C6F3080601EECC
:10220000106AB8EE411A31EE811AF7EE001A31EE7B
:10221000211A62EE010A1EE001EE101AB8EE411A10
:10222000DFED4C1A81EE812A9FED491AC0EE011AAA
:10223000434E20363668C6F3080601EE106AB8EE43
:10224000411A31EE811A00E076E0F7EE001A31EE25
:10225000211A62EE010A5BE001EE101AB8EE411A93
:102260009FED3D2AC2EE011A9FED391A80EE012A38
:10227000334E20363668C6F3080601EE106AB8EE13
:10228000411A32EE011AB7EE002A31EE021A61EE5F
:10229000810A3DE04EE01DE001EE101AB8EE411A51
:1022A000DFED2E1A81EE812A9FED291AC0EE011A68
:1022B000234E20363668C6F3080601EE106AB8EEE3
:1022C000411A31EE811AF7EE001A31EE211A62EE50
:1022D000010A1DE001EE101AB8EE411A9FED1E2A08
:1022E000C2EE011A9FED1A1A80EE012A144E203612
:1022F0003668C6F3080601EE106AB8EE411A32EEEF
:10230000011AB7EE002A31EE021A61EE810A00BF0F
:1023100000BF0B4E20363668C6F34626721C01EE0F
:10232000102AB8EE411AC0EE811ABCEEE11A11EE85
:10233000100A00E0002001E0034800BF00BFF0BD2C
:10234000104402580090D00300093D0000127A00AA
:10235000000000460024744C0024744A0024F44A0F
:102360002DE9F047044614B90120BDE8F087207834
:1023700000F00100002872D0F948006800F0380829
:10238000F7481830D0F80090B8F1100F06D0B8F127
:10239000180F0FD109F0030002280BD1F0481038B4
:1023A0000068C0F3404000286ED0606800286BD100
:1023B0000120DAE700BF6068B0F5803F08D1E84847
:1023C0001038006840F48030E549103908602EE08C
:1023D000606868B9E2481038006820F48030E0494D
:1023E000103908600846006820F4802008601EE06C
:1023F0006068B0F5A02F0DD1D9481038006840F4BE
:102400008020D749103908600846006840F48030C1
:1024100008600CE0D2481038006820F48030D049C1
:10242000103908600846006820F48020086000BF6A
:102430006068A8B1FEF79AFB054608E0FEF796FB38
:10244000401B41F28831884201D903208DE7C448FE
:1024500010380068C0F340400028EFD014E014E0CA
:10246000FEF784FB054608E0FEF780FB401B41F2C7
:102470008831884201D9032077E7B94810380068CD
:10248000C0F340400028EFD100BF207800F00200E8
:1024900002286BD1B248006800F03808B048183004
:1024A000D0F80090B8F1000F05D0B8F1180F2BD17B
:1024B00009F0030040BBAA4810380068C0F3800050
:1024C00018B1E06808B901204FE700BFFEF748FBEC
:1024D00041F2030188420BD8A1480C38006820F46F
:1024E0007C30216940EA01309D490C3908600AE0DE
:1024F0009B480C38006820F0FE40217C40EA0160D7
:1025000097490C39086058E0E06870B39448103877
:10251000006820F01900E16808439149103908600B
:10252000FEF724FB054606E0FEF720FB401B0228D1
:1025300001D9032019E78A4810380068C0F38000E9
:102540000028F1D000BFFEF70BFB41F203018842E7
:102550000DD883480C38006820F47C30216940EAAB
:1025600001307F490C3908600CE00CE026E07C4823
:102570000C38006820F0FE40217C40EA0160784978
:102580000C39086019E076481038006820F0010026
:10259000734910390860FEF7E9FA054606E0FEF7D0
:1025A000E5FA401B022801D90320DEE66C4810380A
:1025B0000068C0F380000028F1D100BF207800F04F
:1025C000100010286ED16648006800F03808644892
:1025D0001830D0F80090B8F1080F06D0B8F1180FF5
:1025E0002FD109F0030001282BD15D481038006875
:1025F000C0F3002020B1E069802801D00120B4E6BA
:1026000000BFFEF7ADFA41F2030188420CD85448EE
:102610000C38006820F0F84094F8201040EA8160FF
:102620004F490C3908600BE04D48001F006820F04E
:102630007C5094F8201040EA01604949091F086065
:1026400058E0E06968B346481038006840F0800000
:10265000434910390860FEF789FA054606E0FEF79F
:1026600085FA401B022801D903207EE63C48103839
:102670000068C0F300200028F1D000BFFEF770FA18
:1026800041F2030188420ED835480C38006820F02A
:10269000F84094F8201040EA816031490C39086014
:1026A0000DE00DE027E02E48001F006820F07C5070
:1026B00094F8201040EA01602949091F086019E0D8
:1026C00027481038006820F080002549103908603C
:1026D000FEF74CFA054606E0FEF748FA401B0228D2
:1026E00001D9032041E61E4810380068C0F30020DD
:1026F0000028F1D100BF207800F00800082837D169
:102700006069D0B116486430006840F00100144997
:1027100064310860FEF72AFA054606E0FEF726FA5D
:10272000401B022801D903201FE60D4864300068D1
:10273000C0F340000028F1D01AE009486430006876
:1027400020F00100064964310860FEF70FFA0546E3
:1027500008E0FEF70BFA401B022803D9032004E629
:1027600010440258DC480068C0F340000028F0D153
:10277000207800F02000202836D1A069D0B1D648BA
:102780007438006840F48050D34974390860FEF70B
:10279000EDF9054606E0FEF7E9F9401B022801D9EC
:1027A0000320E2E5CC4874380068C0F340300028CC
:1027B000F1D019E0C8487438006820F48050C64948
:1027C00074390860FEF7D2F9054606E0FEF7CEF947
:1027D000401B022801D90320C7E5BF4874380068B0
:1027E000C0F340300028F1D1207800F00400042824
:1027F0007DD1BA48006840F48070B8490860FEF79F
:10280000B5F9054606E0FEF7B1F9401B642801D989
:102810000320AAE5B148006800F480700028F2D0D7
:1028200000BFA068012808D1AB48001F006840F035
:102830000100A949091F08602DE0A06868B9A648F1
:10284000001F006820F00100A349091F0860084626
:10285000006820F0040008601DE0A06805280DD184
:102860009D48001F006840F004009B49091F086054
:102870000846006840F0010008600CE09648001F20
:10288000006820F001009449091F086008460068AC
:1028900020F00400086000BFA068A0B1FEF766F950
:1028A000054608E0FEF762F9401B41F28831884294
:1028B00001D9032059E58848001F0068C0F3400093
:1028C0000028EFD013E0FEF751F9054608E0FEF7C7
:1028D0004DF9401B41F28831884201D9032044E57B
:1028E0007D48001F0068C0F340000028EFD1606AF7
:1028F00000287DD078486438006800F03800182837
:1029000077D0606A022875D173487438006820F067
:102910008070714974390860FEF728F9054606E0B1
:10292000FEF724F9401B022801D903201DE56A485F
:1029300074380068C0F340600028F1D100BFD4E9CA
:102940000A1041EA001064494C39096840F2F33238
:102950009143084360494C390860208E401EC0F303
:102960000800616B491E4FF47E4202EA4121084390
:10297000218F491ED20102EA014108433C21095D31
:10298000491E120202EA01610843534944390860B2
:1029900000BF081F006820F00100091F08604E48B2
:1029A000403800684FF6F8718843A16C40EAC100D6
:1029B00049494039086048484838006820F00C0010
:1029C000216C08434449483908600846006820F0F3
:1029D0000200616C084340494839086008460068B5
:1029E00040F4803008600846006840F4003002E09F
:1029F0006FE041E025E008600846006840F4802070
:102A000008600846006840F00100086032487438E9
:102A1000006840F08070304974390860FEF7A6F80D
:102A2000054606E0FEF7A2F8401B022801D9032064
:102A30009BE4294874380068C0F340600028F1D056
:102A400047E025487438006820F0807022497439C6
:102A50000860FEF78BF8054606E0FEF787F8401B96
:102A6000022801D9032080E41B4874380068C0F3B1
:102A700040600028F1D12CE017484C380768164810
:102A800044380668606A012821D007F00301A06A73
:102A900081421CD1C7F30511E06A884217D1C6F301
:102AA0000801206B401E814211D1606B401EC6F3AD
:102AB000462188420BD1A06B401EC6F306418842D6
:102AC00005D1E06B401EC6F30661884201D00120AB
:102AD0004BE4002049E400007444025800480258C6
:102AE000042808D14FF0E021096941F004014FF0BA
:102AF000E022116107E04FF0E021096921F00401B3
:102B00004FF0E0221161704770B504462546681EFB
:102B1000B0F1807F01D301200FE0681E4FF0E0216B
:102B200048610F214FF0FF3000F096FB00204FF07E
:102B3000E021886107200861002070BD10B586B0D3
:102B400004465F492068884251D100BF00BF5D48FC
:102B5000006840F010005B4908600846006800F01B
:102B60001000009000BF00BF00BF00BF00BF55486D
:102B70001038006840F001005249103908600846DA
:102B8000006800F00100009000BF00BF00BF00BF60
:102B900000BF0846006840F0010008600846006871
:102BA00000F00100009000BF00BF00BF4FF40070B4
:102BB000019002200290012003900220049007203F
:102BC000059001A94048FDF7AFFE4FF480600190E9
:102BD0000720059001A93C48FDF7A6FE2520FEF739
:102BE00098F8032211462520FEF7A3F866E037493E
:102BF0002068884262D100BF00BF324810380068A8
:102C000040F001002F49103908600846006800F0C4
:102C10000100009000BF00BF00BF00BF00BF08461A
:102C2000006840F0010008600846006800F00100FC
:102C3000009000BF00BF00BF00BF00BF21480838A0
:102C4000006840F400301F490839086008460068F1
:102C500000F40030009000BF00BF00BF04200190CE
:102C6000022002900020039002200490072005908B
:102C700001A91548FDF758FE082001900220029096
:102C800000200390022004900720059001A90E481F
:102C9000FDF74AFE002211462620FEF74AF82620BC
:102CA000FEF737F82068006840F0200021680860CF
:102CB0002068006840F010002168086006B010BD70
:102CC00000100140F0440258000002580044004047
:102CD0001D4A0168914236D11C49098801F400411E
:102CE00089BB1A49098801F4804171B118490978F2
:102CF0000A2903D00021154A118024E013490988CC
:102D000041F40041114A11801DE0114909780D2953
:102D100006D10E49098841F480410C4A118012E025
:102D20000B490978094A1288C2F30D02094B9954DC
:102D300006490988491C054A118011460988C72996
:102D400001DD0021118070470010014010000024B7
:102D5000120000242C00002400BFFEE770477047DB
:102D60002DE9F04104460E4600275548006800F062
:102D70000300032802D10120BDE8F0815048283823
:102D8000006820F080604E4928390860FDF7EEFEAB
:102D9000054606E0FDF7EAFE401B022801D90320A4
:102DA000EAE7474828380068C0F3C0600028F1D13E
:102DB00000BF4348006820F47C30216840EA0130BD
:102DC0003F490860A088401EC0F30800A168491E62
:102DD0004FF47E4202EA41210843A189491ED201F3
:102DE00002EA01410843217C491E120202EA016104
:102DF000084333491031086000BF3148001D0068A6
:102E000020F0C000616908432D49091D086008468B
:102E1000006820F02000A16908432949091D0860C5
:102E20000846006820F0100008602548143000684B
:102E30004FF6F8718843E16940EAC1002049143136
:102E400008601F48001D006840F010001C49091D63
:102E500008602EB90846006840F40020086012E0BF
:102E6000012E08D11648001D006840F48010144956
:102E7000091D086007E01248001D006840F40010BA
:102E80000F49091D08600E482838006840F080602E
:102E90000B4928390860FDF769FE054606E0FDF795
:102EA00065FE401B022801D9032065E70448283845
:102EB0000068C0F3C0600028F1D038465CE700002D
:102EC000284402582DE9F04104460E460027554893
:102ED000006800F00300032802D10120BDE8F08162
:102EE00050482838006820F080504E492839086042
:102EF000FDF73CFE054606E0FDF738FE401B0228C4
:102F000001D90320EAE7474828380068C0F3407039
:102F10000028F1D100BF4348006820F07C70218870
:102F200040EA01503F490860A088401EC0F30800F5
:102F3000A168491E4FF47E4202EA41210843A1895B
:102F4000491ED20102EA01410843217C491E1202B6
:102F500002EA0161084333491831086000BF314873
:102F6000001D006820F44060616908432D49091D77
:102F700008600846006820F40070A16908432949E8
:102F8000091D08600846006820F480700860254824
:102F90001C3000684FF6F8718843E16940EAC100CF
:102FA00020491C3108601F48001D006840F48070F3
:102FB0001C49091D08602EB90846006840F48000CD
:102FC000086012E0012E08D11648001D006840F488
:102FD00000001449091D086007E01248001D006840
:102FE00040F080700F49091D08600E4828380068BD
:102FF00040F080500B4928390860FDF7B7FD0546C1
:1030000006E0FDF7B3FD401B022801D9032065E768
:10301000044828380068C0F340700028F1D03846D2
:103020005CE700002844025810B50023234C2360BD
:1030300000BF00BF00BFBFF34F8F00BF00BF00BF86
:10304000231F1868C0F34E3100BFC0F3C90200BF90
:1030500043F6E07303EA41134FF0404404EA8274FC
:103060002343174C236000BF00BF131EA2F10102CF
:10307000EED10B1EA1F10101E7D100BF00BF00BFDF
:10308000BFF34F8F00BF00BF00BF0C4B703B1B68EE
:1030900043F48033094C703C236000BF00BF00BF85
:1030A000BFF34F8F00BF00BF00BF00BF00BF00BF16
:1030B000BFF36F8F00BF00BF00BF10BD84ED00E005
:1030C00060EF00E000BF00BF00BFBFF34F8F00BF45
:1030D00000BF00BF00BF00BF00BFBFF36F8F00BFC6
:1030E00000BF00BF00201449086000BF00BF00BF40
:1030F000BFF34F8F00BF00BF00BF00BF00BF00BFC6
:10310000BFF36F8F00BF00BF00BF0C48006840F4E2
:1031100000300A49086000BF00BF00BFBFF34F8FF7
:1031200000BF00BF00BF00BF00BF00BFBFF36F8F75
:1031300000BF00BF00BF704750EF00E014ED00E09B
:10314000704710B5FDF718FD10BD00002448006859
:1031500040F47000224908602248006840F00100F5
:103160002049086000201F49103108601D48006890
:103170001D4908401B49086000201A4918310860A1
:10318000091D0860091D0860164928310860091DDD
:103190000860091D0860091D0860091D0860091DF7
:1031A0000860091D0860091D08600E48006820F4C9
:1031B00080200C49086000200A49603108600B48F3
:1031C00000686FF30F00B0F1005F02D201200849E0
:1031D00008604FF0006002498039086070470000C5
:1031E00088ED00E0004402587FEDF6EA0010005C34
:1031F0000881005170B500240F4D1048FDF77EF98D
:1032000000BF03E0641CAC4200D904E00B48FDF7AA
:103210007AF92028F6D100BF002403E0641CAC42F8
:1032200000D906E0012206490448FDF771F900289B
:10323000F4D100BF70BD0000FFFF0100F4000024C6
:103240001200002400BFFEE702480068C0F302201D
:10325000704700000CED00E010B5002804DB0A0701
:10326000130E054A135406E00A07140E034A00F031
:103270000F031B1FD45410BD00E400E018ED00E064
:1032800000BF704710B504460420FFF729FC014831
:10329000046010BD0800002470B504461E2094FB95
:1032A000F0F594FBF0F100FB114604E047F23050DA
:1032B00000F00CF86D1E002DF8D12EB14FF47A718C
:1032C00006FB01F000F002F870BD000070B5034687
:1032D00000224FF0E02675690D4E366803FB06F4B8
:1032E0004FF0E026B16910E04FF0E026B069884267
:1032F0000BD0884202D20E1A324402E02E1A0E443B
:1033000032440146A24200D300E0EDE700BF70BDA9
:103310000800002400BF054AD26902F04002002ADA
:10332000F9D0C2B2014B9A62704700000010014010
:1033300010B500F0B7F8FDF72BFC0423022211466C
:10334000F02000F0A9F94FF4F070FFF79BFF4FF465
:10335000E13000F055FAFDF7E0F8FDF7E3F8FDF78E
:10336000E6F8FDF7E9F800F009F84BF67F3140F296
:10337000E730FDF7E6F8002010BD00000EB54FF471
:10338000784025A120221346CDE900210290DC22BD
:103390000A210846FDF7DAF84FF4784020A11822F8
:1033A0001346CDE900210290DC222F210A20FDF7EF
:1033B000CDF84FF478401DA110221346CDE900212D
:1033C0000290DC224C210A20FDF7C0F81F201BA12F
:1033D00010221346CDE900210290DC2261210A204F
:1033E000FDF7B4F818A0FDF7B6F818A0FDF7B3F88C
:1033F0001FA0FDF7B0F820A0FDF7ADF821A0FDF764
:10340000AAF824A0FDF7A7F810A0FDF7A4F817A0CC
:10341000FDF7A1F80EBD000053544D3332000000FB
:1034200041544B2D4D5735313000000041544F4D24
:1034300040414C49454E54454B0000004B455930E6
:103440003A2053656E6400000A0000002A2A2A2AE6
:103450002A2A2A2A2A2A2A2A2A2A2A2A2A2A2A2ACC
:103460002A2A2A2A2A2A2A2A2A2A2A2A0D0A00004D
:1034700053544D33320D0A0041544B2D4D573531C5
:10348000300D0A0041544F4D40414C49454E544582
:103490004B0D0A004B4559303A2053656E640D0AB6
:1034A0000000000010B5FFF70DFEFFF7BDFD03485B
:1034B000006840F004000149086010BD9CEF00E086
:1034C00030B587B00546002400BF6A48006840F068
:1034D0000200684908600846006800F00200019098
:1034E00000BF00BF00BF0846006840F00800086049
:1034F0000846006800F00800019000BF00BF00BF50
:103500000846006840F0100008600846006800F0B7
:103510001000019000BF00BF00BF56480C38006883
:1035200040F4804053490C3908600846006800F4B4
:103530008040019000BF00BF402002900220039015
:1035400003200590012004900A20069002A94A4811
:10355000FDF7EAF9042002900920069002A94648E6
:10356000FDF7E2F94FF4605002900920069002A99D
:103570004248FDF7D9F9042002900920069002A9DB
:103580003F48FDF7D1F93B486438006840F480407B
:103590003849643908600846006820F480400860B3
:1035A00000BF3848806800F020000028F9D1364874
:1035B00034490860354848600846006840F001001A
:1035C000086000BF2F48806800F020000028F9D173
:1035D0004FF483702B49486100BF2A48806800F08F
:1035E00002000028F9D02748C06840F002002549B1
:1035F000C86000BF2348806800F020000028F9D18F
:103600002049C861EB2444F4807444F44064A81C4D
:1036100044EA003444F4404400BF44F4801444F0CD
:10362000407444F04064084644611948006820F43E
:1036300080301749086016487030006820F001009B
:103640001349703108600020091D08604FF01040D8
:10365000091D08600F48091D086005200C497031DC
:1036600008600B48006840F480300949086007B0E2
:1036700030BD0000E044025800040258000C02581B
:1036800000100258005000521003000101021800FF
:1036900024ED00E02D0003032DE9F041CCB080467D
:1036A0000D4616461F4600245148006820F00400CD
:1036B0004F49086000BF002001904E48006820F08C
:1036C00001004C4908600846006800F001000190C4
:1036D00047480C30006840F4404045490C310860D0
:1036E0000846006800F44040019000BF00BF00BFE2
:1036F0003F480C30006800F40050B0F5005FF7D18F
:10370000212031904FF48030329000203490389056
:103710000120379002203A90022131A88162CDF831
:10372000F480C56246638763002141640821016417
:1037300000218164FEF714FE04461CB101204CB048
:10374000BDE8F0813F204490032045900020469042
:10375000082047904020499000014A90402048901E
:103760004B90042144A8FEF729FB04460CB101202C
:10377000E5E721480290082003904FF4DC710491A2
:1037800002210591069107910021089109910A9162
:10379000022013902020149000201F9020904FF4BE
:1037A0004010239002A8FDF779FD04460CB10120DA
:1037B000C5E70020FFF784FEFDF70CFB0F4800680B
:1037C00040F080000D49086000BF0C48F4300068EC
:1037D00040F002000949F43108600846006800F032
:1037E0000200019000BF00BFFDF794F80020A6E79B
:1037F0000C4802582C0400580300040300440258EB
:1038000010B5044609480A4908600846446000218A
:103810008160C160016181610C214161FCF7A0FE02
:10382000012204490248FCF773FE10BD001001405C
:10383000F40000241200002410B500290AD00878F2
:10384000002807D005487844FCF78FFE002801D0F7
:10385000002010BD0248784410BD00008600000022
:103860007E00000010B500290AD00878002807D093
:1038700005487844FCF779FE002801D0002010BDEF
:103880000248784410BD0000760000006E00000081
:103890004FF04070E1EE100A704700000000010296
:1038A000030401020304060708090000F8390008B0
:1038B000000000242C000000D4020008243A000874
:1038C0002C00002424150000F00200081C00000059
:1038D00043000000F8FFFFFF0C0000000E00000096
:1038E0000F0000002E000000100100004300000047
:1038F000F8FFFFFF00404040404040404040414111
:1039000041414140404040404040404040404040B4
:10391000404040404005020202020202020202024E
:10392000020202020220202020202020202020024B
:1039300002020202020290909090909010101010DB
:103940001010101010101010101010101010101077
:10395000020202020202888888888888080808080B
:1039600008080808080808080808080808080808D7
:1039700002020202400000000000000000000000FF
:103980000000000000000000000000000000000037
:103990000000000000000000000000000000000027
:1039A0000000000000000000000000000000000017
:1039B0000000000000000000000000000000000007
:1039C00000000000000000000000000000000000F7
:1039D00000000000000000000000000000000000E7
:1039E00000000000000000000000000000000000D7
:1039F00000000000000000000090D0030090D00301
:103A000000000000000000000000000000000000B6
:103A1000100000000100000000F80000FFFF00009F
:043A200000000000A2
:0200000490006A
:100000006E2900F0D682702900F04181662908F03F
:100010000181652908F0FE80672908F0FB806129CD
:1000200008F0FA8003681B0A28BF41F080016929A3
:1000300000F0B280642900F0AF80752900F0AC8038
:100040006F2900F0CE83782900F00D81E92900F0B6
:100050006983E42900F06683F52900F06383EF29C2
:1000600000F0CB83F82900F00C810368DB0928BF7E
:1000700041F08001632900F0D882732900F0DD820D
:10008000E32900F09F87F32900F0A4870020704740
:100090001CB50C46064B7B4469460090204600F098
:1000A000A2FA04460020694600F0B0FA20461CBDC2
:1000B000730500000FB4044910B503AA029800F0BC
:1000C000C1FA10BC5DF814FB0C0000240FB41CB581
:1000D000084B06AA7B4469460090059800F083FA15
:1000E00004460020694600F091FA20461CBC5DF8E9
:1000F00014FB00003505000070B5044685690068F2
:10010000C10601D5302600E02026C00707D070BD0B
:10011000D4E9012130469047206A401C20626D1EC0
:10012000F6D570BD70B5044685690078C00707D163
:1001300070BDD4E9012120209047206A401C206234
:100140006D1EF6D570BD70B50C460546012A05D06A
:100150002878800600D5EA69002302E0012305E043
:100160005B1C934202D2E05C0028F9D1A869E61832
:10017000C01AA861286A184428622846FFF7BCFF05
:1001800004E0D5E9012114F8010B9047B442F8D3FB
:100190002846FFF7C7FF70BD2DE9F0410646002451
:1001A00010687529314616A510D000F097F900287F
:1001B00002DA404213A507E031688A0701D512A58B
:1001C00002E0490704D511A5012401E000F08FF9F0
:1001D00000210A2206F1240709E0B0FBF2FCB0FB83
:1001E000F2F302FB1C00303078541846491C0028FA
:1001F000F3D123462A463046BDE8F04100F080B9ED
:10020000000000002D0000002B0000002000000076
:10021000F0B40D460188090502D5214C7C4402E06A
:100220001F4C7C440E34002100F1240608E002F04B
:100230000F071209E75D42EA03721B097754491C54
:1002400052EA0307F3D102780023120704D5702D78
:1002500006D009B1022311342246F0BC00F050B997
:1002600001231034F8E770B504460D4621461068A6
:1002700000F03DF9024629462046BDE870400023C3
:10028000C6E7D21D22F00703D3E90023C0E70368C5
:10029000126843F0200303600823C3610023B7E71B
:1002A0003CC700002DE9F05F894604464FF0000A84
:1002B000DFF874B1FB44C0F820A02046E16888470D
:1002C000002874D0252806D0D4E901219047206A5F
:1002D000401C2062F1E700265F462046E16888471F
:1002E0002028054607DB312D05D2781910F8200C9F
:1002F00008B10643F1E7B00701D526F00406C4F8BB
:100300001CA00027C4F818A02A2D09D0284604F004
:1003100053F838B304EB8708303DC8F8185019E09B
:1003200059F8041B204604EB87029161E168884775
:10033000012F054618D1E069002820DA26F02006B2
:100340001DE0D8F8180000EB800005EB40003038C5
:10035000C8F818002046E1688847054604F02CF8E4
:100360000028EED1012F0AD02E2D08D12046E168B9
:1003700088477F1C0546022F46F02006C4DBA06993
:10038000002803DA404246F00106A061F00701D0E0
:1003900026F010066C2D0BD0682D09D04C2D39D0CD
:1003A0006A2D35D0742D35D07A2D33D016E038E053
:1003B000E1682F4620468847B842054609D16C2F90
:1003C00026D04FF48060E168064320468847054602
:1003D00004E06C2F1AD04FF4807006430DB3A5F1E2
:1003E0004100192802D8203546F400664A462946BD
:1003F000204626604E46FFF703FE80B101280BD051
:10040000F61D26F0070000F1080956E74020E4E752
:100410008020D8E70020D6E706F104094DE72846FA
:1004200052E7206ABDE8F09FCCC6000030B5054613
:100430000B462A4613F8014B12F8010B08B1A042F3
:10044000F8D01CB1002802D06D1CF1E7284630BD61
:1004500010B5431C02E010F8011B71B18107FAD1FD
:100460004FF0013202C88C1A8C4314EAC211F9D041
:10047000C01A0A0603D0C01E10BDC01A10BD0A045F
:1004800001D0801E10BD0902FCD0401E10BD4FF0EF
:10049000000200B5134694469646203922BFA0E8D4
:1004A0000C50A0E80C50B1F12001BFF4F7AF0907E0
:1004B00028BFA0E80C5048BF0CC05DF804EB8900D1
:1004C00028BF40F8042B08BF704748BF20F8022B14
:1004D00011F0804F18BF00F8012B704709684A05DA
:1004E00001D540B27047C905FCD500B27047096814
:1004F0004A0501D5C0B27047C905FCD580B2704726
:100500002DE9F0470D4699469246044600F124082D
:100510000168880604D5E06921F01001216000E03F
:100520000120A84201DD471B00E00027A1697A19DC
:1005300002EB0900081AA0612078C00602D4204608
:10054000FFF7DAFD002608E0D4E901211AF80600D9
:100550009047206A401C761C20624E45F4DB2078D0
:10056000C0060AD52046FFF7C7FD06E0D4E9012101
:1005700030209047206A401C2062381EA7F10107F6
:10058000F4DC07E0D4E9012118F805009047206A5F
:10059000401C2062281EA5F10105F3DC2046FFF770
:1005A000C1FD2078000602D50220BDE8F0870120B9
:1005B000FBE711680268006A530501D508700AE07C
:1005C000D30501D5088006E0130603D5C217C1E99B
:1005D000000200E0086001207047000001694A1C29
:1005E00002610878704700B58FB0CDE90131002174
:1005F000059105497944CDE9031011466846FFF796
:1006000051FE0FB000BD0000E5FFFFFF0A6802F8D1
:10061000010B0A60704710B5436913B1AFF3008056
:1006200001E0FFF790FD012010BD127800F12401D8
:100630000A7000224A700122EDE711684FF0FF3284
:10064000E9E70000074B70B50D467B44FFF7CBFF91
:100650000446284600F0C2FC10B14FF0FF3070BDD8
:10066000204670BDC72C00782DE9FF5F15468A46ED
:100670000446DFF8AC80F8440027D8E900103E4675
:10068000CDE9001010E03AF816106A4602A800F012
:10069000A9FC411C07D02178890603D5E2693918E5
:1006A00091420DD80744761C2078800602D5E06977
:1006B000B84205DDAE42E6DB3AF816000028E2D18A
:1006C000A069C01BA0612046FFF716FDD8E9001005
:1006D000CDE90010002017E03AF818106A4602A889
:1006E00000F080FCB0F1FF3F81460BD000250DF1FA
:1006F000080B05E0D4E901211BF8050090476D1CAB
:100700004D45F7D308F10100B0428046E4DB206A92
:10071000384420622046FFF705FDBDE8FF9F00003A
:100720001EC300002DE9F0418046D21D22F00702D1
:100730000025D2E90002F52915A614D0011E72F198
:10074000000106DA0023D0EB030063EB020211A6DE
:1007500008E0D8F800108B0701D50FA602E0490782
:1007600001D50EA601251146002408F1240704E056
:1007700000F04EF830323A55641C50EA0102F7D1CD
:100780002B46324621464046BDE8F041FFF7B8BE51
:10079000000000002D0000002B00000020000000E1
:1007A00030B4002100F1240408E002F00705D2086B
:1007B000303542EA4372DB086554491C52EA0305AE
:1007C000F3D10468002310A2250707D5A40600D49E
:1007D00021B1C46901230DA2641EC46130BCFFF7BE
:1007E0008FBE10B5044621461068FFF780FE024612
:1007F0002046BDE810400023D2E7D21D22F00701B9
:10080000D1E90023CCE70000000000003000000028
:1008100030B5B0F10A024FEA900E71F100034EEAD2
:10082000817EB0EB0E0061EB91014FEA101E4EEAA3
:10083000017E10EB0E0041EB11114FEA102E4EEA33
:10084000016E10EB0E0041EB11214FEA104E4EEA03
:10085000014E10EB0E0041EB1141401841F1000137
:100860004FEAD00040EA41704FEAD10110EB800519
:100870004FEA810444EA907444EB01046D1944EB9F
:100880000404521BA3414FF0000348BF0A3200D5B5
:1008900030BD401C41F1000130BD70472DE9FF4FD4
:1008A0000C461E464FF0FF378BB0D2E90001DDF851
:1008B00060800A908A46C1F30A5505B93D46002179
:1008C00008464FF00000BAF1000F00F4400005DACE
:1008D00000EB80004FF4400101EA50004FEA9059CC
:1008E000B9F1010F00DDB9460A9850EA4A000ED06E
:1008F00044F61050A5F2FF3545432F14B8F1000F10
:100900001ED07542291E1EDDC9F100021CE0B8F19F
:10091000010F4FF0000001D0302103E0F24305E069
:100920002154401CB042FBDB304600220021215400
:100930000B99C1F80880C1E900200FB0BDE8F08F25
:10094000BD1B6D1CDEE74A4600DA694206A800F0CE
:10095000B1FB06AB93E8070003AB83E80700504602
:100960000A9900F049FC8DE80700A0F500501F38F7
:1009700000900398002D09DD42F21F014A46084409
:1009800003A90390684600F0A8FE08E0A0F5005017
:100990004A461F3803A90390684600F0B2FE8DE86E
:1009A00007000004000C03D04FF0FF30410800E0C6
:1009B0001046B8F1000F03D00022009215461EE049
:1009C000751E05D4FFF724FF303262556D1EF9D530
:1009D000B3460122084302D000227F1C04E02078A5
:1009E000302801D100227F1E002A099786D01DE001
:1009F000112D07DAFFF70CFF303262556D1C50EAFB
:100A00000102F5D1084302D00098C8B10EE00021E0
:100A1000681E05E0235C625C63542254401E491C3E
:100A20008142F7DBAB46A81B401E0990002004F86A
:100A30000B000B98099AC0F80880C0E9002B7CE7EE
:100A400011264FF0000859E72DE9F04F884604467B
:100A5000D21D22F0070191B0D1E90001CDE90A01D0
:100A600003F092FC02460B98C00F01D02D2007E046
:100A70002068810701D52B2002E0202101EAC00077
:100A8000032A099001D0072A05DB03464146204688
:100A900000F0D0FA0BE12078800601D5E06900E093
:100AA0000620B8F1650F814606D0B8F1660F18D060
:100AB000B8F1670F70D131E00020B9F1110F00904B
:100AC00001DB112301E009F101030AAA01A90CA825
:100AD000FFF7E4FEDDE90C70002609F1010583460D
:100AE00047E001204B4600904FF000470AAA01A9B9
:100AF0000CA8FFF7D3FEDDE90DB00C995D4600268A
:100B000010B909F101000D18B9EB050003D4C0F1CB
:100B1000FF3609F10105A5EB09002BE0B9F1010F42
:100B200001DA4FF001090020B9F1110F0090484699
:100B300001DD112300E003460AAA01A90CA8FFF772
:100B4000ADFEDDE90C704D46002683462078000797
:100B50000AD4AB4500DA5D4601A8012D04DD411938
:100B600011F8011C302907D04F4502DA17F1040FA4
:100B700004DA012082460FE06D1EEEE7002F02DC52
:100B8000ED1B3E4403E0781CA84200DD7D1CB81B31
:100B900000F1010A4FF000472078000703D4AA456E
:100BA00001DB4FF0FF3A0021B7F1004F0DF1430890
:100BB0008DF8431024D002202B23002F01DA7F422E
:100BC0002D230A21021EA0F1010000DC5FB197FB7A
:100BD000F1FC97FBF1F201FB1C7C17460CF1300C89
:100BE00008F801CDEEE7A8F101000370218809059E
:100BF00001D5452100E06521A0F1010800F8011CA4
:100C000009980FA9A1EB0807FF1D00B101204119A8
:100C100001EBEA70A1693844081A401EA0612078EF
:100C2000C00602D42046FFF767FA099828B1D4E934
:100C300001219047206A401C20622078C00622D5FE
:100C40002046FFF759FA1EE0002E04DBB34502DD13
:100C500001A8805D00E03020D4E901219047206A9E
:100C6000401C2062761CAAF101005FEA000A0AD14A
:100C700000F07DFEC0680168405CD4E90121904726
:100C8000206A401C2062281EA5F10105DCDC07E07B
:100C9000D4E9012118F8010B9047206A401C20621A
:100CA000381EA7F10107F3DC2046FFF73BFA0320CB
:100CB00011B043E62DE9F04F04460D46D21D22F057
:100CC000070089B0D0E900974846394603F05CFB3D
:100CD0000246F80F01D02D2307E02068810701D5D7
:100CE0002B2302E0202101EAC0038DF820300BB154
:100CF000012000E00020032A824601D0072A04DBFD
:100D00002946204600F096F93FE12078800601D47C
:100D10000D2500E0E569C7F30A560D2D49DA0021DB
:100D20004FEA175B08464FF00000002F00F4400028
:100D300007DA00EB80004FF4400100EBD07001EACD
:100D400060008115012901DD4FF0FF3100224FEADB
:100D5000850CBCF1180F06D31346ACF118004FF008
:100D60008052C24003E04FF4801323FA0CF30CF1DD
:100D70000C0CBCF1200F04D3ACF1200C09FA0CF0E0
:100D800001E007FA0CF000294FF0004801DD18B926
:100D90000FE00ED140450CD319EB02095F4121B998
:100DA000404502D19F4329EA0209BBEB175F00D0FF
:100DB000761C2088000502D57B48784402E07A48FA
:100DC0007844193808AA302302F80A30037C0AF163
:100DD0000101002E0AF1020A53546A4602DC4FF068
:100DE000300101E04FF031014FF001088DF80010A3
:100DF00002D0A6F2FF3603E059EA470100D06B4E5D
:100E0000002D02DC2178090704D54FF002082E21BD
:100E10008DF80110C44600210BE0C7F303433F01E6
:100E2000C35C491C6D1E02F80830052908F1010851
:100E300001DA002DF1DC00210CE000EB1973491CF4
:100E40001B786D1E082902F808304FEA091908F1CD
:100E5000010801DA002DF0DC21688B0602D516E0CE
:100E6000A8F10108E04505DD02EB080313F8013C99
:100E7000302BF5D0B8F1000F09DD02EB080313F8B1
:100E8000013C2E2B03D1090701D4A8F10108002D44
:100E900005DD3E2102F808106D1E08F10108407CB6
:100EA000002E02F8080008F1010804DA2D2076422D
:100EB00002F8080002E02B2002F808000A214FF493
:100EC0007A70864208F101080BDB96FBF0F33033B1
:100ED00002F8083096FBF0F308F1010800FB1366F6
:100EE00001E0642E0CDB642096FBF0F3303302F853
:100EF000083096FBF0F308F1010800FB136601E0EF
:100F00000A2E06DB96FBF1F0303002F8080008F1FB
:100F1000010896FBF1F001FB1060303002F8080088
:100F2000A16908F1010808EB050202EB0A00081AA2
:100F3000A0612078C00602D42046FFF7DDF8216AC0
:100F400008AE01EB0A00206204E0D4E9012116F8A2
:100F5000010B9047BAF1010AF7D22078C00602D5FA
:100F60002046FFF7C9F86E4609E016F8010B3E2847
:100F70000FD0D4E901219047206A401C2062B8F1CB
:100F80000108F2D22046FFF7CDF809B00320BDE8F2
:100F9000F08F206A2844206203E0D4E90121302048
:100FA00090476D1EEBD3F8E7F5BB000002FCFFFF96
:100FB00010B5436913B1AFF3008001E0FFF754FBB4
:100FC000012010BD128800F1240182840022C28415
:100FD0000122EDE711684FF0FF32E9E7007B00F0F6
:100FE0008000704770B516460C46054600F01AF8AA
:100FF000036893F80101012806D0FF2C0FD8185D73
:1010000068B101202C7070BDD3F80701324621462B
:1010100003F2071303442846BDE8704018474FF019
:10102000FF3070BD10B500F0A2FC001D10BD00BF68
:10103000352800782DE9F0411F4604460326016853
:10104000072A01F4006004DB08B116A505E016A527
:1010500003E008B115A500E015A521F010002060FF
:10106000A069C01EA0610FB1401EA0612046FFF71D
:1010700043F84FB1D4E9012138469047206A401C1B
:101080002062C01C206206E0206AFAE7D4E9012150
:1010900015F8010B9047761EF8D22046FFF742F86C
:1010A000BDE8F0814E414E006E616E00494E460033
:1010B000696E66002DE9F047814616468AB03348CE
:1010C00078440DC88DE80D0030487844801C03AC8E
:1010D0000DC884E80D0041F69B300844372190FB91
:1010E000F1F290FBF1F5A5F1800501FB12041B3C28
:1010F00002D56442012000E00020DFF890A0804685
:101100000027FA44AAF1BE0A0DE0E00709D03246F2
:10111000684607EB47010AEB810100F0F2FA8DE81F
:10112000070064107F1C002CEFD1184F7F44AC3FA8
:1011300018E0E80714D007EB04100DF1180A90E846
:101140000E008AE80E00C068F04201D1981908909C
:10115000324606A903A800F0D4FA03AB83E80700DF
:101160006D10641C002DE4D132466946B8F1000FC1
:1011700003A802D000F0B1FA01E000F0C2FAC9E918
:101180000001C9F808200AB0BDE8F08780B9000066
:101190004FF0013C50F8042B51F8043B9A4215D112
:1011A000A2EB0C03934313EACC130BD150F8042B9E
:1011B00051F8043B9A4209D1A2EB0C03934313EA82
:1011C000CC13E7D04FF00000704700BFD01A01BA2F
:1011D000B1FA81F101F0180122FA01F0CB40C1F11E
:1011E0002001DBB2C0B2C01A2CFA01F3D11A91432C
:1011F00011EAC311E6D170475FEA400C08BF91F0D5
:10120000000F4FEA8C234FEAC12243EA51514FEAC3
:101210001C5018BF00F5F0404FEA300018BF41F0F5
:1012200000415FEA6C5C00F02980BCF1FF3F08BF21
:1012300040F080407047130C06BF12044FF0100CB2
:101240004FF0000C130E04BF12020CF1080C130F28
:1012500004BF12010CF1040C930F04BF92000CF1B7
:10126000020CD30F04BF52000CF1010C11464FF0D9
:101270000002A0F11F00A0EB0C00704711F0004F1E
:1012800008BF704731F000413FF4D5AF0B0C06BFEB
:1012900009044FF0100C4FF0000C0B0E04BF0902B4
:1012A0000CF1080C0B0F04BF09010CF1040C8B0F9F
:1012B00004BF89000CF1020CCB0F04BF49000CF1F4
:1012C000010CCCF12003A0EB0C0022FA03F302FA8C
:1012D0000CF241EA030100F10100704720F07F4C5D
:1012E00080EA030023F07F47ACEB070303F57C5350
:1012F00000F0004003F1FF032DE980494FEA154B50
:1013000009B44FEA144325EA0B4E24EA03480FF2CE
:10131000042606EB132749083E785FEA320203FBF6
:101320000667C7F5000707FB06F64FEA54374FEA92
:10133000D64606F1020607FB066CCCF1005C4FEACC
:101340001C472CEA074C07FB06F40CFB06F504EBE4
:1013500015464FEA961634BF00204FF000404FEA82
:10136000D13706FB07FC4FEA1C4C0CFB0BF7D21BDA
:1013700003FB0CF761EB07010CFB0EF7B0EB07402A
:1013800072EB17420CFB08F734BFA2EB0742B2EB3B
:10139000074261EB17414FEA0C444FEA910706FB05
:1013A00007FC4FEA1C4C0CFB0BF7B0EBC74072EB91
:1013B000573203FB0CF734BFA2EBC742B2EBC74274
:1013C00061EB57310CFB0EF7B0EBC70072EB5772B5
:1013D0000CFB08F734BFA2EBC702B2EBC70261EB0C
:1013E0005771039F4FEA816141EA921104EBCC04EB
:1013F0004FEAD1374FEA826206FB07FC42EA9012BD
:101400004FEA80604FEA1C4C0CFB0BF7D21B03FB2E
:101410000CF761EB07010CFB0EF7B0EB074072EB2A
:1014200017420CFB08F734BFA2EB0742B2EB0742AE
:1014300061EB17414FEA8C554FEA910704EB9C246E
:1014400006FB07FC4FEA1C4C0CFB0BF7B0EBC7404C
:1014500072EB573203FB0CF734BFA2EBC742B2EB7F
:10146000C74261EB57310CFB0EF7B0EBC70072EBD4
:1014700057720CFB08F734BFA2EBC702B2EBC702EE
:1014800061EB577115EB4C254FEA816141EA9211EE
:101490004FEA82624FEAD13742EA901206FB07FC1C
:1014A00044F100044FEA80604FEA1C4C0CFB0BF740
:1014B000D21B03FB0CF761EB07010CFB0EF7B0EB43
:1014C000074072EB17420CFB08F734BFA2EB074250
:1014D000B2EB074261EB174115EB1C154FEA813166
:1014E00041EA92414FEA823242EA90424FEA80302A
:1014F0004FEA0C7644F1000448EA03434EEA0B48F5
:101500004FF0000EB2EB080C71EB030724BF6246EC
:1015100039464EEB0E0E4FF0000B00185241494178
:101520004BEB0B0BB2EB080C71EB03077BF1000BE1
:1015300024BF624639464EEB0E0E4FF0000B0018EA
:10154000524149414BEB0B0BB2EB080C71EB03071B
:101550007BF1000B24BF624639464EEB0E0E51EA7A
:10156000020718BF46F0010616EB0E7655F1000291
:1015700054F1000103D5BDE88901BDE80088BDE84C
:101580008901BDE80048B619524141EB0101A3F1C0
:101590000103704780807F7E7D7C7B7A79787776C7
:1015A00076757473727171706F6E6E6D6C6C6B6A40
:1015B0006A696868676666656464636362616160DE
:1015C000605F5F5E5E5D5D5C5C5B5B5A5A5959585B
:1015D00058575756565555555454535352525251C5
:1015E000515050504F4F4F4E4E4D4D4D4C4C4C4B1B
:1015F0004B4B4A4A4A494949484848474747474662
:10160000464645454544444444434343434242429D
:1016100042414141002B26D4770021D01CB54FEA2E
:10162000370703B44FF010004FF010014FF00000E7
:101630000FBCBDE810400BF1010BBBF1010F08BF5F
:101640005FEA170722BF12F1010211F101014FF009
:10165000004143F1000300F0004043EA00007047FE
:10166000F9D35708DAE746EA064613F1400F4FEA86
:1016700016461FDD13F1200FDFBF16430A46002177
:1016800020335B42C8D0C3F1200746EA064602FA7F
:1016900007F74FEA164646EA0706C3F1200722FA83
:1016A00003F201FA07F721FA03F14FF0000342EACF
:1016B0000702B1E746EA020646EA06464FEA164640
:1016C00046EA0106BCBF46EA0646360C4FF0000368
:1016D0004FF000024FF000019EE72DE9C04893460D
:1016E00030B491E8380007C831EA400C48BF34EA0A
:1016F000430C03D5FFF7F2FDFFF78CFFF0BCBDE80C
:1017000000882DE9C048934630B491E8380007C8F6
:1017100010F0804F08BF13F0804F03D100F005F8A0
:10172000FFF778FFF0BCBDE8008820F07F4780EA33
:10173000030023F07F4C07EB0C03A3F57C5300F070
:101740000040A3F1FE0392F0000F00F0B38095F08B
:10175000000F00F077802DE901494FEA11404FEA70
:10176000144621EA004800FB06FC24EA064708FB71
:1017700006F607FB08F800FB07F718EB06484CEBEA
:10178000164C4FEA124B18EB07484FEA15464CEB44
:10179000174022EA0B4E0BFB06FC25EA06470EFB20
:1017A00006F607FB0EFE0BFB07F71EEB064E4CEB97
:1017B000164C4FF000061EEB074E4CEB174B18EB88
:1017C0000B0840F1000018EB0E0B58EB000840F13D
:1017D00000008F1A4FF000013CBFC943661B14BFC5
:1017E000B5EB040C00213CBFC943F61B4FEA17447C
:1017F0004EEA8E0E27EA04454FEA1C4704FB0762B7
:101800002CEA074C05FB07F70CFB05F604FB0CFC68
:1018100016EB074642EB174216EB0C4642EB1C4216
:101820001BEB060658EB0202414146EA9E0601D533
:10183000BDE80189B619524141EB0101A3F1010351
:10184000BDE801894FEA14454FEA114724EA0546ED
:1018500021EA074C05FB07F406FB07F70CFB06F132
:1018600005FB0CFC11EB074144EB17444FEA124710
:1018700011EB0C4144EB1C4422EA074C05FB07F238
:1018800006FB07F70CFB06F605FB0CFC16EB074600
:1018900042EB174216EB0C4642EB1C456A1854F11A
:1018A000000148BF7047B619524141EB0101A3F155
:1018B0000103704795F0000F37D04FEA11424FEA0D
:1018C000144721EA024624EA074C02FB07F106FB13
:1018D00007F70CFB06F402FB0CFC14EB074441EB8E
:1018E00017414FEA154714EB0C4441EB1C4125EA24
:1018F000074C02FB07F506FB07F70CFB06F602FB9D
:101900000CFC16EB074645EB174516EB0C4645EB72
:101910001C42121951F1000148BF7047B6195241DB
:1019200041EB0101A3F1010370474FEA14454FEA6F
:10193000114724EA054621EA074C05FB07F106FB9F
:1019400007F70CFB06F24FF0000605FB0CFC12EB50
:10195000074241EB174112EB0C4251EB1C4148BFCF
:101960007047921841EB0101A3F10103704740F267
:10197000D94CC0F6000C604740F6291CC0F6000C9C
:10198000604740F6335CC0F6000C604740F6135CDD
:10199000C0F6000C604740F6313CC0F6000C6047D2
:1019A00043F2992CC0F6000C604740F27D5CC0F613
:1019B000000C604742F63D3CC0F6000C604740F624
:1019C0006D3CC0F6000C604740F6533CC0F6000C7E
:1019D000604742F6D14CC0F6000C604740F6196CE7
:1019E000C0F6000C604740F63D6CC0F6000C604746
:1019F00041F26D0CC0F6000C604740F2973CC0F617
:101A0000000C604742F2ED0CC0F6000C604742F259
:101A1000111CC0F6000C604740F6413CC0F6000CBB
:101A2000604743F2CD2CC0F6000C604740F6A54C51
:101A3000C0F6000C604740F6494CC0F6000C604709
:101A400040F6D14CC0F6000C6047000070B504466B
:101A5000B3F5804F13D1D1E9000540EA05108D6838
:101A600040EA05208D6928438D8940EA054054F8F5
:101A70002250064E3540284344F8220003E06FF020
:101A8000704044F82200002070BD00000000F0CF3C
:101A900030B50246086852F8200020F001000C68BA
:101AA00042F824008868082801D1402300E0002380
:101AB000486818438C682043CC6820430C69204355
:101AC0004C6920438C692043CC6920430C6A204335
:101AD0004C6A20438C6A2043CC6A20430C6B204321
:101AE0004C6B20438C6B20430C6852F824400D4D06
:101AF0002C4020430C6842F82400086BB0F5801F8E
:101B000007D1086828B1106820F480100C6B2043BE
:101B10001060086818B110684C6B204310600020FA
:101B200030BD00008004C0FF30B50346D1E9000598
:101B300040EA05108D6840EA05208D8940EA054598
:101B4000088A401E45EA0055087D801E45EA00606F
:101B50008D692843551C53F8255005F0404528430E
:101B6000551C43F82500186800F48010B0F5801F5C
:101B70000BD1586820F47004088A401E44EA0054CF
:101B8000586820F4700020435860002030BD0000E9
:101B900070B504460E4615460CB9012070BD94F888
:101BA000450028B9002084F84400204600F028F8B9
:101BB00004F108012068FFF76BFF3146A268206836
:101BC000FFF7B2FF2946E36AD4E90102FFF73EFFBF
:101BD000A168206850F8210040F00100A268216847
:101BE00041F822000548006840F0004003490860C1
:101BF000012084F845000020D0E70000004000529A
:101C000010B586B0044600BF2048006840F48050FC
:101C10001E4908600846006800F48050009000BF2C
:101C200000BF00BF19480C30006840F00800174999
:101C30000C3108600846006800F00800009000BF02
:101C400000BF00BF0846006840F01000086008466A
:101C5000006800F01000009000BF00BF4CF203705D
:101C600001900220029001200390032004900C2098
:101C7000059001A90648FFF77FFE4FF6807001909E
:101C800001A90448FFF778FE06B010BDD4440258FD
:101C9000000C02580010025870477047704710B58A
:101CA00004460CB9012010BD94F83D0028B900206D
:101CB00084F83C00204600F00DF8022084F83D0036
:101CC000211D206800F0A6FC012084F83D000020C2
:101CD000E9E7000038B504460E492068884217D16C
:101CE00000BF00BF0C48006840F008000A490860C7
:101CF0000846006800F00800009000BF00BF00BF69
:101D0000032201213220FFF73CFE3220FFF73EFE86
:101D100038BD0000000C0040E84402580146086845
:101D2000C06840F001000B68D86008688068084B04
:101D300000EA0302062A08D0B2F5803F05D0086801
:101D4000006840F001000B68186000207047000038
:101D500007000100704710B5044620680069C0F311
:101D60004000D8B12068C068C0F34000B0B16FF047
:101D7000020021680861012020772068806900F056
:101D8000030018B12046FFF7E5FF05E0204600F00C
:101D9000BEF8204600F0BCF80020207720680069DB
:101DA000C0F38000D8B12068C068C0F38000B0B133
:101DB0006FF00400216808610220207720688069A4
:101DC00000F4407018B12046FFF7C4FF05E020463C
:101DD00000F09DF8204600F09BF800202077206856
:101DE0000069C0F3C000D8B12068C068C0F3C0006B
:101DF000B0B16FF0080021680861042020772068E6
:101E0000C06900F0030018B12046FFF7A3FF05E00A
:101E1000204600F07CF8204600F07AF80020207779
:101E200020680069C0F30010D8B12068C068C0F312
:101E30000010B0B16FF01000216808610820207711
:101E40002068C06900F4407018B12046FFF782FF97
:101E500005E0204600F05BF8204600F059F800202D
:101E600020772068006900F0010058B12068C06840
:101E700000F0010030B16FF00100216808612046D8
:101E800000F048F820680069C0F3C01058B120681D
:101E9000C068C0F3C01030B16FF0800021680861E5
:101EA0002046FFF7FAFE20680069C0F3002058B111
:101EB0002068C068C0F3C01030B16FF48070216832
:101EC00008612046FFF7E8FE20680069C0F3801033
:101ED00058B12068C068C0F3801030B16FF0400086
:101EE00021680861204600F04FF820680069C0F3BF
:101EF000401058B12068C068C0F3401030B16FF096
:101F00002000216808612046FFF7C8FE10BD704719
:101F10007047000010B504461849206888422CD14B
:101F200001151748FFF737FD80B102F07DFC08E08E
:101F30004FF47A70FFF734FD12480088401C1149B5
:101F4000088010480088B0F5967FF1DB4FF40071EF
:101F50000B48FFF720FD80B102F0FCFC08E04FF4D5
:101F60007A70FFF71DFD07480088401C054908806E
:101F700004480088B0F5967FF1DB10BD000C0040EE
:101F8000000C0258280000247047704770477047C3
:101F900070470146D1F88030D1F8842043EA02002E
:101FA000704700002DE9F04704462068C5692068A5
:101FB00006682068876840F60F0005EA0008B8F157
:101FC000000F0FD105F0200060B106F0200010B91D
:101FD00007F0805030B1E06E10B12046E16E8847C6
:101FE000BDE8F087B8F1000F7ED06E48384018B9D0
:101FF0006D4830400028F7D005F0010058B106F4D4
:10200000807040B1012021680862D4F8880040F057
:102010000100C4F8880005F0020058B107F0010083
:1020200040B1022021680862D4F8880040F0040022
:10203000C4F8880005F0040058B107F0010040B171
:10204000042021680862D4F8880040F00200C4F837
:10205000880005F0080070B106F0200010B9514862
:10206000384040B1082021680862D4F8880040F068
:102070000800C4F8880005F4006060B106F08060D4
:1020800048B14FF4006021680862D4F8880040F03D
:102090002000C4F88800D4F88800002844D005F057
:1020A000200050B106F0200010B907F0805020B198
:1020B000E06E10B12046E16E8847D4F88890206821
:1020C000806800F04000402802D009F0280028B3C2
:1020D000204600F0C7FB2068806800F040004028E0
:1020E00018D12068806800E01FE020F040002168DF
:1020F0008860A06F50B12D48A16F0865A06FFFF7F1
:1021000054FC88B1A06F016D88470DE02046FFF7B1
:102110003FFF09E02046FFF73BFF05E02046FFF7C1
:1021200037FF0020C4F888005AE705F4801050B14A
:1021300007F4800038B14FF480102168086220460F
:10214000FFF725FF4CE705F0800058B106F080004E
:1021500010B907F4000028B1206F10B12046216F9C
:1021600088473DE705F0400030B106F0400018B167
:10217000204600F08BFB33E705F4000030B106F099
:10218000804018B12046FFF701FF29E705F0807075
:1021900030B106F0004018B12046FFF7F6FE1FE709
:1021A00000BF1DE701000010200100044D28009031
:1021B00010B504460CB9012010BDA06900B100E0C3
:1021C00000BFD4F8800028B9002084F87C002046A5
:1021D000FFF7F0FB2420C4F880002068006820F09E
:1021E000010021680860204600F084FC012800D12D
:1021F000E2E7A06A10B1204600F072FA2068406859
:1022000020F49040216848602068806820F02A000F
:10221000216888602068006840F00100216808603B
:10222000204600F0D9FAC7E72DE9F84F04460E46DC
:1022300017469A46D4F8840020287DD106B117B9F4
:102240000120BDE8F88F00BF94F87C00012801D17F
:102250000220F6E7012084F87C0000BF00205C34F7
:10226000E0622220A062FFF7AAFB834627806780F6
:102270005C3C00BFA068B0F5805F0AD1206920B93E
:1022800040F2FF10A4F8600020E0FF20A4F86000F6
:102290001CE0A06848B9206918B9FF20A4F86000C4
:1022A00014E07F20A4F8600010E0A068B0F1805F27
:1022B00009D1206918B97F20A4F8600006E03F200A
:1022C000A4F8600002E00020A4F8600000BFB4F8A9
:1022D0006090A068B0F5805F04D1206910B9002536
:1022E000B04602E035464FF0000820E05B46002291
:1022F00020212046CDF800A001F074FF08B1032092
:102300009FE745B92068406A00EA0900A8F8000084
:1023100008F1020806E02068406A09F0FF01084061
:1023200028706D1CB4F85E00401EA4F85E00B4F87E
:102330005E000028DAD100E008E02020C4F8840024
:1023400000BF002084F87C0000BF7AE7022078E715
:1023500010B50346D3F88400202874D101B10AB91E
:10236000012010BD00BF93F87C00012801D102209C
:10237000F7E7012083F87C0000BF9965A3F85C2093
:10238000A3F85E200020D86600BF9868B0F5805F93
:102390000AD1186920B940F2FF10A3F8600020E0CC
:1023A000FF20A3F860001CE0986848B9186918B9C4
:1023B000FF20A3F8600014E07F20A3F8600010E085
:1023C0009868B0F1805F09D1186918B97F20A3F827
:1023D000600006E03F20A3F8600002E00020A3F8C0
:1023E000600000BF0020C3F888002220C3F88400EA
:1023F0001868806840F001001C68A060586EB0F159
:10240000005F21D1B3F8680090421DDC9868B0F5F8
:10241000805F04D1186910B91848D86601E01848DF
:10242000D86600BF002083F87C0000BF18680068F1
:1024300040F480701C6820601868806840F080500C
:102440001C68A06016E017E09868B0F5805F04D1C2
:10245000186910B90B48D86601E00B48D86600BF70
:10246000002083F87C0000BF1868006840F490707A
:102470001C682060002074E7022072E72129009088
:10248000412A0090AF280090D52900902DE9F84FFF
:1024900004460E4617469946D4F8800020285DD1A0
:1024A00006B117B90120BDE8F88F00BF94F87C0091
:1024B000012801D10220F6E7012084F87C0000BF4A
:1024C0000020543460632120E062FFF778FA8246EE
:1024D00027806780543CA068B0F5805F04D12069F4
:1024E00010B90025B04602E035464FF000081DE067
:1024F0005346002280212046CDF8009001F072FE64
:1025000008B10320CFE745B9B8F80000C0F30800D0
:102510002168886208F1020803E02878216888624F
:102520006D1CB4F85600401EA4F85600B4F85600CE
:102530000028DDD15346002240212046CDF80090EE
:1025400001F050FE08B10320ADE72020C4F8800060
:1025500000BF002084F87C0000BFA4E70220A2E7AF
:102560007047000000BF002240211848FFF72CFAF6
:1025700000BF17A0FDF79EFD4FF47A70FFF710FA29
:1025800019A0FDF797FD4FF47A70FFF709FA00BF25
:1025900000BF00BF00BF00BFBFF34F8F00BF00BF31
:1025A00000BF1648006800F4E06015490843001DAC
:1025B0001249086000BF00BF00BFBFF34F8F00BFCC
:1025C00000BF00BF00BF00BFFDE7000000100258C1
:1025D0004D656D20416363657373204572726F7240
:1025E00021210D0A00000000536F667420526573AC
:1025F0006574696E672E2E2E0D0A00000CED00E04A
:102600000000FA0510B50248FFF7A5FB10BD000059
:10261000AC0A002410B50268294B98420ED0B0F1E4
:10262000804F0BD0274B984208D0274B984205D0BB
:10263000264B984202D0264B984203D122F07002DA
:102640004B681A431E4B984217D0B0F1804F14D0FC
:102650001C4B984211D01C4B98420ED01B4B9842F9
:102660000BD01B4B984208D01A4B984205D01A4BFE
:10267000984202D0194B984203D122F44072CB68A1
:102680001A4322F080034C6943EA040202608B681B
:10269000C3620B6883620A4B98420BD00C4B984282
:1026A00008D00C4B984205D00B4B984202D00B4BF4
:1026B000984201D10B6903630123436110BD0000FF
:1026C000000001400004004000080040000C0040F1
:1026D0000004014000400140004401400048014026
:1026E00090F8281001F0010139B10168496821F41E
:1026F0000031C26A11430268516090F8281001F05D
:102700000201022907D10168496821F48031026B76
:1027100011430268516090F8281001F00401042967
:1027200007D10168496821F48021426B1143026896
:10273000516090F8281001F00801082907D10168BC
:10274000496821F40041826B11430268516090F89E
:10275000281001F01001102907D10168896821F4BF
:102760008051C26B11430268916090F8281001F00B
:102770002001202907D10168896821F40051026CE9
:1027800011430268916090F8281001F0400140293F
:1027900013D10168496821F48011426C1143026829
:1027A0005160416CB1F5801F07D10168496821F47F
:1027B000C001826C11430268516090F8281001F04A
:1027C0008001802907D10168496821F40021C26C89
:1027D000114302685160704738B504460020C4F8C0
:1027E0008800FFF7ECF805462068006800F0080054
:1027F00008280CD16FF07E402B4600224FF40011C8
:102800000090204601F0EEFC08B1032038BD20689E
:10281000006800F0040004280CD16FF07E402B46C5
:1028200000224FF480010090204601F0DBFC08B14B
:102830000320EBE72020C4F88000C4F8840000BF28
:10284000002084F87C0000BF00BFDFE770B50546BC
:10285000AC6B0020A4F85E00A4F856002046FFF7F9
:1028600097FB70BD0168096821F4907102681160DE
:1028700001688968044A1140026891602021C0F80B
:1028800084100021C1667047FEFFFFEF10B50446BB
:102890002068006820F04000216808602020C4F80B
:1028A0008000002020672046FFF75AFE10BD2DE96A
:1028B000F0410446B4F86070D4F88400222826D190
:1028C0002068406A86B2A56D06EA07002880A06DE0
:1028D000801CA065B4F85E00401EA4F85E00B4F849
:1028E0005E00D0B92068006820F49070216808600C
:1028F0002068806820F00100216888602020C4F8EA
:1029000084000020E0662046FFF763F805E02068B9
:10291000806940F0080021688861BDE8F08100000E
:102920002DE9F0470446B4F86090D4F884002228DA
:1029300043D1B4F8685028E02068406A1FFA80F854
:10294000A76D08EA09003880A06D801CA065B4F866
:102950005E00401EA4F85E00B4F85E0098B92068DE
:10296000006820F48070216808602068806817493A
:102970000840216888602020C4F884000020E066B8
:102980002046FFF726F8681E85B2002DD4D1B4F892
:102990005E60C6B1B4F86800B04214DD206880689B
:1029A00020F08050216888600948E066206800684F
:1029B00040F020002168086005E02068806940F050
:1029C000080021688861BDE8F0870000FEFFFFEF86
:1029D000AF28009070B50446B4F86060D4F8840065
:1029E000222826D12068406A85B2F0B22840A16D25
:1029F0000870A06D401CA065B4F85E00401EA4F8ED
:102A00005E00B4F85E00D0B92068006820F49070D1
:102A1000216808602068806820F0010021688860D3
:102A20002020C4F884000020E0662046FEF7D1FF95
:102A300005E02068806940F008002168886170BD69
:102A40002DE9F0410446B4F86080D4F884002228CF
:102A500043D1B4F8685028E02068406A87B208F093
:102A6000FF003840A16D0870A06D401CA065B4F84F
:102A70005E00401EA4F85E00B4F85E0098B92068BD
:102A8000006820F480702168086020688068174919
:102A90000840216888602020C4F884000020E06697
:102AA0002046FEF796FF681E85B2002DD4D1B4F8FB
:102AB0005E60C6B1B4F86800B04214DD206880687A
:102AC00020F08050216888600948E066206800682E
:102AD00040F020002168086005E02068806940F02F
:102AE000080021688861BDE8F0810000FEFFFFEF6B
:102AF000D52900902DE9F04F89B004464FF0000928
:102B0000002007908346F9492068884200D100E000
:102B100000BF2169A068084361690843E16940EA90
:102B2000010A606E40EA0A0A20680068F04908401D
:102B300040EA0A00216808602068406820F440509C
:102B4000E168084321684860D4F818A0E749206884
:102B5000884202D0206A40EA0A0A20688068E54973
:102B6000084040EA0A00216888602068C06A20F0B6
:102B70000F00616A08432168C86200BFDE4920680F
:102B8000884220D1DD48006800F03800182811D0B4
:102B900005DC48B1082809D0102811D108E0202808
:102BA0000AD028280CD109E001250BE0042509E012
:102BB000082507E0102505E0202503E0402501E079
:102BC000802500BFF8E0CE492068884219D1CB4863
:102BD000006800F00700062810D2DFE800F00305C7
:102BE00007090B0D00250BE0042509E0082507E087
:102BF000102505E0202503E0402501E0802500BFE9
:102C0000DAE0C0492068884219D1BC48006800F069
:102C10000700062810D2DFE800F0030507090B0DB6
:102C200000250BE0042509E0082507E0102505E054
:102C3000202503E0402501E0802500BFBCE0B2492B
:102C40002068884219D1AD48006800F007000628C6
:102C500010D2DFE800F0030507090B0D00250BE09B
:102C6000042509E0082507E0102505E0202503E0FC
:102C7000402501E0802500BF9EE0A44920688842ED
:102C800019D19E48006800F00700062810D2DFE83E
:102C900000F0030507090B0D00250BE0042509E0F2
:102CA000082507E0102505E0202503E0402501E088
:102CB000802500BF80E096492068884220D18F4857
:102CC000006800F03800182811D005DC48B1082849
:102CD00009D0102811D108E020280AD028280CD1CA
:102CE00009E001250BE0042509E0082507E010258F
:102CF00005E0202503E0402501E0802500BF5BE0E2
:102D000084492068884219D17C48006800F0070097
:102D1000062810D2DFE800F0030507090B0D002597
:102D20000BE0042509E0082507E0102505E0202533
:102D300003E0402501E0802500BF3DE076492068A2
:102D4000884219D16D48006800F00700062810D2AB
:102D5000DFE800F0030507090B0D00250BE0042553
:102D600009E0082507E0102505E0202503E04025BF
:102D700001E0802500BF1FE05C49206888421AD12D
:102D80005E48001D006800F00700062810D2DFE84A
:102D900000F0030507090B0D02250BE0042509E0EF
:102DA000082507E0102505E0202503E0402501E087
:102DB000802500BF00E0802500BF4C492068884284
:102DC00071D1102D70D006DC022D09D0042D49D010
:102DD000082D6AD1A6E0202D68D0402DF9D1B3E1AD
:102DE000FEF7FCFD616A09B9012138E0616A012939
:102DF00001D1022133E0616A022901D104212EE0D0
:102E0000616A032901D1062129E0616A042901D1FF
:102E1000082124E0616A052901D10A211FE0616AC5
:102E2000062901D10C211AE0616A072901D110217C
:102E300015E0616A082901D1202110E0616A0929A1
:102E400001D140210BE0616A0A2901D1802106E00D
:102E5000616A0B2902D14FF4807100E00121B0FBBF
:102E6000F1FBB6E104A8FEF7BEFD0598616A09B959
:102E7000012154E0616A012901D102214FE0616A18
:102E8000022901D104214AE0616A032901D1062106
:102E900045E0616A042901D1082140E0616A052901
:102EA00005D10A213BE0FDE380E08FE10BE1616A9F
:102EB000062901D10C2132E0616A072901D11021D4
:102EC0002DE0616A082901D1202128E0616A0929E1
:102ED00001D1402123E0616A0A2901D180211EE04D
:102EE000616A0B291AD14FF4807118E0000C005868
:102EF000F369FFCFFFF4FF11001001405444025862
:102F00000044004000480040004C00400050004099
:102F10000014014000780040007C00400121B0FB1B
:102F2000F1FB56E101A8FEF763FD0298616A09B959
:102F3000012138E0616A012901D1022133E0616A8F
:102F4000022901D104212EE0616A032901D1062161
:102F500029E0616A042901D1082124E0616A052978
:102F600001D10A211FE0616A062901D10C211AE072
:102F7000616A072901D1102115E0616A082901D190
:102F8000202110E0616A092901D140210BE0616A2A
:102F90000A2901D1802106E0616A0B2902D14FF490
:102FA000807100E00121B0FBF1FB12E1FA480068FA
:102FB000C0F3401088B3F8480068C0F3C101F74877
:102FC000C840616A09B9012139E0616A012901D16A
:102FD000022134E0616A022901D104212FE0616AF3
:102FE000032901D106212AE0616A042901D10821BF
:102FF00025E0616A052901D10A2120E0616A0629DC
:1030000001D10C211BE0616A072901D1102116E0D2
:10301000616A082902D1202111E013E0616A0929BF
:1030200001D140210BE0616A0A2901D1802106E02B
:10303000616A0B2902D14FF4807100E00121B0FBDD
:10304000F1FB3FE0606A08B9012038E0606A0128BE
:1030500001D1022033E0606A022801D104202EE071
:10306000606A032801D1062029E0606A042801D1A2
:10307000082024E0606A052801D10A201FE0606A68
:10308000062801D10C201AE0606A072801D110201F
:1030900015E0606A082801D1202010E0606A092844
:1030A00001D140200BE0606A0A2801D1802006E0AF
:1030B000606A0B2802D14FF4807000E00120B7490C
:1030C000B1FBF0FB85E0606A08B9012038E0606A76
:1030D000012801D1022033E0606A022801D10420D6
:1030E0002EE0606A032801D1062029E0606A0428E6
:1030F00001D1082024E0606A052801D10A201FE0E0
:10310000606A062801D10C201AE0606A072801D104
:10311000102015E0606A082801D1202010E0606AC4
:10312000092801D140200BE0606A0A2801D18020E3
:1031300006E0606A0B2802D14FF4807000E00120A5
:103140009749B1FBF0FB44E0606A08B9012038E020
:10315000606A012801D1022033E0606A022801D1AF
:1031600004202EE0606A032801D1062029E0606A6D
:10317000042801D1082024E0606A052801D10A2032
:103180001FE0606A062801D10C201AE0606A072857
:1031900001D1102015E0606A082801D1202010E03C
:1031A000606A092801D140200BE0606A0A2801D139
:1031B000802006E0606A0B2802D14FF4807000E0A6
:1031C00001204FF40041B1FBF0FB02E00120079029
:1031D00000BF00BFBBF1000F00F0F287606800EB9A
:1031E0004000584503D860680003584503D20120C9
:1031F000079000F0E5BF102D75D006DC022D09D038
:10320000042D67D0082D6FD1CCE0202D6DD0402D3E
:10321000F9D14DE2FEF7E2FB8046606A08B901226F
:1032200038E0606A012801D1022233E0606A022896
:1032300001D104222EE0606A032801D1062229E090
:10324000606A042801D1082224E0606A052801D1BF
:103250000A221FE0606A062801D10C221AE0606A87
:10326000072801D1102215E0606A082801D1202228
:1032700010E0606A092801D140220BE0606A0A2848
:1032800001D1802206E0606A0B2802D14FF48072DF
:1032900000E001229446002340461946FEF7ADFBAC
:1032A0004FF4807300228C46A0FB031E0CFB03E34B
:1032B00000FB0233606840088C461CEB000643EBC1
:1032C0000201D4F804C0624600233046FEF795FBA5
:1032D00081464EE204A8FEF786FBDDF814E0606A42
:1032E00020B901223BE0BFE040E282E1606A0128B0
:1032F00001D1022233E0606A022801D104222EE0CB
:10330000606A032801D1062229E0606A042801D1FD
:10331000082224E0606A052801D10A221FE0606AC1
:10332000062801D10C221AE0606A072801D1102278
:1033300015E0606A082801D1202210E0606A09289F
:1033400001D140220BE0606A0A2801D1802206E008
:10335000606A0B2802D14FF4807200E0012294468B
:10336000002370461946FEF748FB4FF4807C00228C
:10337000A0FB0C3E01FB0CE100FB02116068400861
:103380001E185141D4F804C0624600233046FEF7AF
:1033900034FB8146EDE10000004402580090D00368
:1033A00000093D0001A8FEF723FBDDF808C0606AB4
:1033B00008B9012238E0606A012801D1022233E015
:1033C000606A022801D104222EE0606A032801D13C
:1033D000062229E0606A042801D1082224E0606AFC
:1033E000052801D10A221FE0606A062801D10C22BB
:1033F0001AE0606A072801D1102215E0606A0828E7
:1034000001D1202210E0606A092801D140220BE09E
:10341000606A0A2801D1802206E0606A0B2802D186
:103420004FF4807200E00122964600236046194660
:10343000FEF7E3FA4FF4807300228C46A0FB031ED4
:103440000CFB03E300FB0233606840088C461CEB76
:10345000000643EB0201D4F804C062460023304664
:10346000FEF7CBFA814684E1F8480068C0F34010CB
:1034700090B3F6480068C0F3C101F54820FA01FE98
:10348000606A08B9012239E0606A012801D102228C
:1034900034E0606A022801D104222FE0606A032828
:1034A00001D106222AE0606A042801D1082225E021
:1034B000606A052801D10A2220E0606A062801D14D
:1034C0000C221BE0606A072801D1102216E0606A16
:1034D000082802D1202211E030E0606A092801D1D9
:1034E00040220BE0606A0A2801D1802206E0606A6F
:1034F0000B2802D14FF4807200E001229446002391
:1035000070461946FEF779FA4FF4807300228C4614
:10351000A0FB031E0CFB03E300FB023360684008C2
:103520008C461CEB000643EB0201D4F804C0624653
:1035300000233046FEF761FA814659E0606A08B917
:10354000012238E0606A012801D1022233E0606A7A
:10355000022801D104222EE0606A032801D106224C
:1035600029E0606A042801D1082224E0606A052865
:1035700001D10A221FE0606A062801D10C221AE05C
:10358000606A072801D1102215E0606A082801D17D
:10359000202210E0606A092801D140220BE0606A15
:1035A0000A2801D1802206E0606A0B2802D14FF47C
:1035B000807200E0012294460023A5481946FEF7D8
:1035C0001CFA4FF4807300228C46A0FB031E0CFBF8
:1035D00003E300FB0233606840080E1843EB02016E
:1035E000D4F804C0624600233046FEF706FA81464E
:1035F000BFE0606A08B9012238E0606A012801D1A1
:10360000022233E0606A022801D104222EE0606ABF
:10361000032801D1062229E0606A042801D108228A
:1036200024E0606A052801D10A221FE0606A0628AA
:1036300001D10C221AE0606A072801D1102215E09E
:10364000606A082801D1202210E0606A092801D1AF
:1036500040220BE0606A0A2801D1802206E0606AFD
:103660000B2802D14FF4807200E00122944600231F
:1036700078481946FEF7C1F94FF4807300228C4652
:10368000A0FB031E0CFB03E300FB02336068400851
:103690008C461CEB000643EB0201D4F804C06246E2
:1036A000002300E073E03046FEF7A7F9814660E0B2
:1036B000606A08B9012238E0606A012801D102225B
:1036C00033E0606A022801D104222EE0606A0328F8
:1036D00001D1062229E0606A042801D1082224E0F1
:1036E000606A052801D10A221FE0606A062801D11C
:1036F0000C221AE0606A072801D1102215E0606AE6
:10370000082801D1202210E0606A092801D1402256
:103710000BE0606A0A2801D1802206E0606A0B286B
:1037200002D14FF4807200E00122944600234FF44E
:1037300000401946FEF761F94FF4807300228C4671
:10374000A0FB031E0CFB03E300FB02336068400890
:103750008C461CEB000643EB0201D4F804C0624621
:1037600000233046FEF749F9814602E00120079028
:1037700000BF00BFB9F5407F06D3B9F5801F03D263
:103780002068C0F80C9034E50120079031E5E0692D
:10379000B0F5004F71D1082D70D005DC5DB1012D61
:1037A0005AD0042D6BD1A7E0102D69D0202D68D000
:1037B000402DF7D11EE2FEF725F98046606A08B970
:1037C000012038E0606A012801D1022033E0606AFC
:1037D000022801D104202EE0606A032801D10620CE
:1037E00029E0606A042801D1082024E0606A0528E5
:1037F00001D10A201FE0606A062801D10C201AE0DE
:10380000606A072801D1102015E0606A082801D1FC
:10381000202010E0606A092801D140200BE0606A96
:103820000A2801D1802006E0606A0B2802D14FF4FB
:10383000807000E00120B8FBF0F04000616800EB10
:103840005100B0FBF1F01FFA80F920E20044025869
:103850000090D00300093D00FEF7D9F88046606A69
:1038600008B901203DE0606A012801D1022038E05A
:10387000606A022806D1042033E020E288E003E2F7
:10388000D2E06EE1606A032801D1062029E0606A77
:10389000042801D1082024E0606A052801D10A200B
:1038A0001FE0606A062801D10C201AE0606A072830
:1038B00001D1102015E0606A082801D1202010E015
:1038C000606A092801D140200BE0606A0A2801D112
:1038D000802006E0606A0B2802D14FF4807000E07F
:1038E0000120B8FBF0F04000616800EB5100B0FB34
:1038F000F1F01FFA80F9CAE104A8FEF774F8059800
:10390000616A09B9012138E0616A012901D1022106
:1039100033E0616A022901D104212EE0616A0329A2
:1039200001D1062129E0616A042901D1082124E09E
:10393000616A052901D10A211FE0616A062901D1C6
:103940000C211AE0616A072901D1102115E0616A92
:10395000082901D1202110E0616A092901D1402103
:103960000BE0616A0A2901D1802106E0616A0B2916
:1039700002D14FF4807100E00121B0FBF1F0400072
:10398000616800EB5100B0FBF1F01FFA80F97EE1B5
:1039900001A8FEF72DF80298616A09B9012138E003
:1039A000616A012901D1022133E0616A022901D152
:1039B00004212EE0616A032901D1062129E0616A10
:1039C000042901D1082124E0616A052901D10A21D5
:1039D0001FE0616A062901D10C211AE0616A0729FA
:1039E00001D1102115E0616A082901D1202110E0E0
:1039F000616A092901D140210BE0616A0A2901D1DC
:103A0000802106E0616A0B2902D14FF4807100E049
:103A10000121B0FBF1F04000616800EB5100B0FB08
:103A2000F1F01FFA80F932E1F9480068C0F3401064
:103A300088B3F7480068C0F3C101F648C840616A1E
:103A400009B9012139E0616A012901D1022134E07B
:103A5000616A022901D104212FE0616A032901D1A1
:103A600006212AE0616A042901D1082125E0616A62
:103A7000052901D10A2120E0616A062901D10C2122
:103A80001BE0616A072901D1102116E0616A08294B
:103A900002D1202111E01BE0616A092901D14021F6
:103AA0000BE0616A0A2901D1802106E0616A0B29D5
:103AB00002D14FF4807100E00121B0FBF1F0400031
:103AC000616800EB5100B0FBF1F01FFA80F947E0AC
:103AD000606A08B9012038E0606A012801D102203B
:103AE00033E0606A022801D104202EE0606A0328D6
:103AF00001D1062029E0606A042801D1082024E0D1
:103B0000606A052801D10A201FE0606A062801D1F9
:103B10000C201AE0606A072801D1102015E0606AC5
:103B2000082801D1202010E0606A092801D1402036
:103B30000BE0606A0A2801D1802006E0606A0B2849
:103B400002D14FF4807000E00120B249B1FBF0F0E7
:103B50004000616800EB5100B0FBF1F01FFA80F902
:103B600095E0606A08B9012038E0606A012801D157
:103B7000022033E0606A022801D104202EE0606A4E
:103B8000032801D1062029E0606A042801D1082019
:103B900024E0606A052801D10A201FE0606A062837
:103BA00001D10C201AE0606A072801D1102015E02D
:103BB000606A082801D1202010E0606A092801D13C
:103BC00040200BE0606A0A2801D1802006E0606A8C
:103BD0000B2802D14FF4807000E001208E49B1FB28
:103BE000F0F04000616800EB5100B0FBF1F01FFA0B
:103BF00080F94CE0606A08B9012038E0606A012869
:103C000001D1022033E0606A022801D104202EE0B5
:103C1000606A032801D1062029E0606A042801D1E6
:103C2000082024E0606A052801D10A201FE0606AAC
:103C3000062801D10C201AE0606A072801D1102063
:103C400015E0606A082801D1202010E0606A092888
:103C500001D140200BE0606A0A2801D1802006E0F3
:103C6000606A0B2802D14FF4807000E001204FF40D
:103C70000041B1FBF0F04000616800EB5100B0FB87
:103C8000F1F01FFA80F902E00120079000BF00BFA9
:103C9000B9F1100F10D3B9F5803F0DD24FF6F07087
:103CA00009EA00000890C9F3420108980843089007
:103CB00008982168C86083E20120079080E2082DFF
:103CC00072D005DC5DB1012D53D0042D6DD1A5E07E
:103CD000102D6BD0202D6AD0402D66D117E2FDF754
:103CE00091FE8046606A08B9012038E0606A0128C8
:103CF00001D1022033E0606A022801D104202EE0C5
:103D0000606A032801D1062029E0606A042801D1F5
:103D1000082024E0606A052801D10A201FE0606ABB
:103D2000062801D10C201AE0606A072801D1102072
:103D300015E0606A082801D1202010E0606A092897
:103D400001D140200BE0606A0A2801D1802006E002
:103D5000606A0B2802D14FF4807000E00120B8FBAC
:103D6000F0F0616800EB5100B0FBF1F01FFA80F950
:103D700019E2FDF74CFE8046606A08B901203CE07C
:103D8000606A012801D1022037E0606A022801D16F
:103D9000042032E0606A032801D106202DE0606A29
:103DA000042805D1082028E083E0F9E1CCE066E1B1
:103DB000606A052801D10A201FE0606A062801D147
:103DC0000C201AE0606A072801D1102015E0606A13
:103DD000082801D1202010E0606A092801D1402084
:103DE0000BE0606A0A2801D1802006E0606A0B2897
:103DF00002D14FF4807000E00120B8FBF0F0616860
:103E000000EB5100B0FBF1F01FFA80F9CBE10000AC
:103E1000004402580090D00300093D0004A8FDF7BB
:103E2000E2FD0598616A09B9012138E0616A01295A
:103E300001D1022133E0616A022901D104212EE07F
:103E4000616A032901D1062129E0616A042901D1AF
:103E5000082124E0616A052901D10A211FE0616A75
:103E6000062901D10C211AE0616A072901D110212C
:103E700015E0616A082901D1202110E0616A092951
:103E800001D140210BE0616A0A2901D1802106E0BD
:103E9000616A0B2902D14FF4807100E00121B0FB6F
:103EA000F1F0616800EB5100B0FBF1F01FFA80F90E
:103EB00079E101A8FDF79CFD0298616A09B9012129
:103EC00038E0616A012901D1022133E0616A0229E7
:103ED00001D104212EE0616A032901D1062129E0E4
:103EE000616A042901D1082124E0616A052901D110
:103EF0000A211FE0616A062901D10C211AE0616ADA
:103F0000072901D1102115E0616A082901D120217A
:103F100010E0616A092901D140210BE0616A0A2998
:103F200001D1802106E0616A0B2902D14FF4807132
:103F300000E00121B0FBF1F0616800EB5100B0FB43
:103F4000F1F01FFA80F92EE1A3480068C0F3401099
:103F500088B3A1480068C0F3C101A048C840616AA5
:103F600009B9012139E0616A012901D1022134E056
:103F7000616A022901D104212FE0616A032901D17C
:103F800006212AE0616A042901D1082125E0616A3D
:103F9000052901D10A2120E0616A062901D10C21FD
:103FA0001BE0616A072901D1102116E0616A082926
:103FB00002D1202111E01AE0616A092901D14021D2
:103FC0000BE0616A0A2901D1802106E0616A0B29B0
:103FD00002D14FF4807100E00121B0FBF1F0616883
:103FE00000EB5100B0FBF1F01FFA80F946E0606A87
:103FF00008B9012038E0606A012801D1022033E0CD
:10400000606A022801D104202EE0606A032801D1F1
:10401000062029E0606A042801D1082024E0606AB3
:10402000052801D10A201FE0606A062801D10C2072
:104030001AE0606A072801D1102015E0606A08289C
:1040400001D1202010E0606A092801D140200BE056
:10405000606A0A2801D1802006E0606A0B2802D13C
:104060004FF4807000E001205C49B1FBF0F0616822
:1040700000EB5100B0FBF1F01FFA80F993E0606AA9
:1040800008B9012038E0606A012801D1022033E03C
:10409000606A022801D104202EE0606A032801D161
:1040A000062029E0606A042801D1082024E0606A23
:1040B000052801D10A201FE0606A062801D10C20E2
:1040C0001AE0606A072801D1102015E0606A08280C
:1040D00001D1202010E0606A092801D140200BE0C6
:1040E000606A0A2801D1802006E0606A0B2802D1AC
:1040F0004FF4807000E001203949B1FBF0F06168B5
:1041000000EB5100B0FBF1F01FFA80F94BE0606A60
:1041100008B9012038E0606A012801D1022033E0AB
:10412000606A022801D104202EE0606A032801D1D0
:10413000062029E0606A042801D1082024E0606A92
:10414000052801D10A201FE0606A062801D10C2051
:104150001AE0606A072801D1102015E0606A08287B
:1041600001D1202010E0606A092801D140200BE035
:10417000606A0A2801D1802006E0606A0B2802D11B
:104180004FF4807000E001204FF40041B1FBF0F0EB
:10419000616800EB5100B0FBF1F01FFA80F902E01A
:1041A0000120079000BF00BFB9F1100F06D3B9F589
:1041B000803F03D22068C0F80C9001E001200790F6
:1041C0000120A4F86A00A4F868000020E0662067D7
:1041D000079809B0BDE8F08F004402580090D00362
:1041E00000093D002DE9F04104460D46174698466A
:1041F000069E4AE0701C002847D0FDF7E0FBA0EBCC
:104200000800B04200D8C6B92068006820F4D07019
:10421000216808602068806820F0010021688860BB
:104220002020C4F88000C4F8840000BF002084F877
:104230007C0000BF0320BDE8F0812068006800F02A
:10424000040010B32068C069C0F3C020E8B14FF487
:104250000060216808622068006820F4D07021683E
:1042600008602068806820F00100216888602020B4
:10427000C4F88000C4F88400C4F8880000BF00209F
:1042800084F87C0000BF0320D5E72068C06928407F
:10429000A84201D1012000E00020B842AAD00020AD
:1042A000C9E7000008B536480068C069C0F3C0001F
:1042B00048B1082032490968086231480068C0697D
:1042C0002F480068406A2E480068C069C0F340105B
:1042D00020B34FF0FF33012269462948FDF7A4FFC0
:1042E0002848B0F80008C0F30E0040F2FF71884281
:1042F00015DA9DF800002349B1F80018C1F30E014A
:10430000204A50541046B0F80008401C1146B1F83D
:10431000001860F30E011046A0F800181BE01948C1
:10432000B0F800086FF30E001649A1F800089DF8D8
:104330000000B1F80018C1F30E01124A50541046A3
:10434000B0F80008401C1146B1F8001860F30E01E7
:104350001046A0F800180A480068C069C0F30010B1
:1043600068B10848B0F8000820F4004000F50040AB
:104370000449A1F80008102001490968086208BD35
:10438000DC0100246802002403B401984100009875
:1043900050EAC12018BF04204A0D18BF40F00100A8
:1043A00040F2FF72B2EB515F08BF40F002000128FB
:1043B00008BF052002B0704730380A2801D201201A
:1043C000704700207047000070B50446224605A1E2
:1043D00005A000F0EFF805460DB1012070BD0020EA
:1043E000FCE700004F4B00004154000010B54FF4B3
:1043F000FA7205A106A000F0DDF804460CB1012018
:1044000010BD0020FCE70000524541445900000067
:1044100041542B4350494E3F0000000010B54FF46B
:10442000FA7205A107A000F0C5F804460CB10120FE
:1044300010BD0020FCE700002B435245473A2030D6
:104440002C31000041542B435245473F00000000EF
:104450007CB5054600200090019015B1012D0AD1D0
:1044600004E00CA16846FBF731FE06E00BA16846AC
:10447000FBF72CFE01E003207CBD00BF4FF4FA7275
:1044800008A1684600F096F804460CB10120F3E755
:104490000020F1E74154453100000000415445300F
:1044A000000000004F4B000070B506460D46304638
:1044B00000F046F907E04FF47A70FFF785FF0446F5
:1044C0000CB9002070BD281EA5F10105F3D1012013
:1044D000F8E700002DE9FF4780460E460025B8F1B9
:1044E000000F03D0B8F1010F0AD104E025A16846FE
:1044F000FBF7ECFD08E027A16846FBF7E7FD03E0CA
:10450000032004B0BDE8F08700BF4FF4FA60FDF768
:1045100047FA4FF4FA7223A1684600F04BF80746B9
:104520000FB10120EDE7B8F1000F29D146B341F2F8
:1045300088321DA1002000F03DF807460FB1012090
:10454000DFE700F033F98146B9F1000F01D1012016
:10455000D7E715A14846FBF769FF04460CB90120CF
:10456000CFE70C3403E0605D7055681CC5B2605D38
:104570000D2803D0681C205C0A28F4D10020705557
:104580000020BEE741542B5A495043414C4C3D3129
:104590000000000041542B5A495043414C4C3D30DF
:1045A000000000004F4B00002B5A495043414C4C37
:1045B000000000002DE9F04105460E461446002794
:1045C00000F00AF91DB129460EA000F0D1F806B19D
:1045D00014B90020BDE8F08110E000F0E7F80746CC
:1045E00047B131463846FBF721FF08B10020F1E71B
:1045F00000F0F2F8641E0120FDF7D2F9002CECD196
:104600000220E7E725730D0A00000000F0B58FB027
:1046100007460D46164614210AA8FBF738FF282145
:104620006846FBF734FF05B116B903200FB0F0BDA3
:1046300017B1012F0AD104E026A10AA8FBF746FD15
:1046400006E029A10AA8FBF741FD01E00320EDE700
:1046500000BF2A4629A16846FBF738FD4FF4FA72DD
:1046600029A12AA0FFF7A6FF04464FF4FA7226A15B
:1046700028A0FFF79FFF2044C4B24FF4FA7222A192
:1046800027A0FFF797FF2044C4B24FF4FA721EA18F
:104690000AA8FFF78FFF2044C4B20CB10120C5E780
:1046A0004FF4FA7221A16846FFF784FF04461A22EC
:1046B00031461FA000F05CF842F210721EA10020EB
:1046C000FFF778FF2044C4B20CB10120AEE7002010
:1046D000ACE7000041542B43534D503D33332C3154
:1046E00036372C302C30000041542B43534D503D75
:1046F00031372C3136372C302C38000041542B43C5
:104700004D47533D257300004F4B00004154453148
:104710000000000041542B434D47463D310000004E
:1047200041542B435343533D47534D003E0000003B
:1047300025732563000000002B434D47533A0000CA
:1047400010B504460848094908600846446000213D
:104750008160C16001610C21416100218161C16101
:10476000FDF726FD10BD000000440040DC010024E0
:104770000FB438B505A800900A48009A0499FBF7D1
:1047800087FC002000900748FBF762FE84B24FF0E0
:10479000FF33224603490448FDF778FE38BC5DF834
:1047A00014FB00006A0A0024DC0100240948B0F868
:1047B00000080121B1EBD03F09D100200549B1F833
:1047C0000018C1F30E01034A5054104670470020F0
:1047D000FCE70000680200240748B0F800086FF307
:1047E0000E000549A1F800080846B0F8000820F4BA
:1047F0000040A1F8000870476802002470B5054623
:104800000C4607480749086008464460002181605B
:10481000C560FDF744FA0348FDF780FA70BD00005B
:10482000000C0040AC0A002410B50A214FF4E1301E
:10483000FFF73AFE04466CB122A0FBF73BFC08E010
:1048400000BF10212648FDF7E7F800BFC820FDF79C
:10485000A7F8F5E700210120FFF73CFE0120FFF754
:10486000F7FD0446FFF7C2FD2044C4B2FFF7D6FDB2
:104870002044C4B26CB11BA0FBF71CFC08E000BFD5
:1048800010211748FDF7C8F800BFC820FDF788F8C9
:10489000F5E71B4A1BA10120FFF7B8FE04461C4A9E
:1048A0001CA10120FFF7B2FE04461CB91CA0FBF7B7
:1048B00001FC02E021A0FBF7FDFB0A20FDF770F8E8
:1048C00010BD000041544B2D4D5735313020696EDD
:1048D0006974206661696C6564210D0A000000003E
:1048E0000004025841544B2D4D5735313020636F31
:1048F0006E666967206661696C6564210D0A000057
:1049000000CB009031333330383438343334310015
:10491000B8CC00903135353733313739303638003F
:104920004D6573736167652073656E64207375638D
:10493000636564646564210D0A0000004D6573734E
:104940006167652073656E64206661696C656421CA
:104950000D0A000010B50A214FF4E130FFF7A4FD65
:1049600004466CB122A0FBF7A5FB08E000BF1021B4
:104970002648FDF751F800BFC820FDF711F8F5E70C
:1049800000210120FFF7A6FD0120FFF761FD04468D
:10499000FFF72CFD2044C4B2FFF740FD2044C4B211
:1049A0006CB11BA0FBF786FB08E000BF1021174885
:1049B000FDF732F800BFC820FCF7F2FFF5E71B4A0D
:1049C0001BA10120FFF722FE04461C4A1CA1012066
:1049D000FFF71CFE04461CB91CA0FBF76BFB02E0B2
:1049E00021A0FBF767FB0A20FCF7DAFF10BD0000EF
:1049F00041544B2D4D5735313020696E6974206616
:104A000061696C6564210D0A000000000004025811
:104A100041544B2D4D5735313020636F6E666967B9
:104A2000206661696C6564210D0A00005CCA009013
:104A3000313333303834383433343100D8CB00900C
:104A40003135353733313739303638004D6573738A
:104A50006167652073656E64207375636365646464
:104A60006564210D0A0000004D6573736167652060
:104A700073656E64206661696C6564210D0A0000CF
:104A800000B587B000BF00BF3548006840F00100A6
:104A9000334908600846006800F00100019000BF3B
:104AA00000BF00BF00BF00BF0846006840F0010023
:104AB00008600846006800F00100019000BF00BFD8
:104AC00000BF00BF00BF0846006840F0010008605A
:104AD0000846006800F00100019000BF00BF00BF61
:104AE00002200290002003900120049003200590F2
:104AF00002A91C48FCF740FF4FF40040029001203F
:104B0000049002A91748FCF737FF01200290022009
:104B1000049002A91348FCF72FFF00BF104800685B
:104B200040F008000E4908600846006800F00800E0
:104B3000019000BF00BF4FF48060029000200390FE
:104B400002200490059002A90748FCF715FF4FF4D6
:104B50000070029002A90448FCF70EFF07B000BDE8
:104B6000E044025800000258000C025870B5044698
:104B7000002609480588408845430021084603F07F
:104B8000A1F803F045FA00BF02E004480480761C57
:104B9000AE42FAD370BD0000CC01002400001060CA
:104BA00010B5044658488471002C58D1F02056495D
:104BB00008804FF4A07048800846808845F2105164
:104BC000884210D14FF430504F4908814FF428509B
:104BD00048814FF42C5088814FF4F07008804FF4D6
:104BE000487048801AE04848808841F6631188423E
:104BF0000DD12C20444908812B2048812A2088810E
:104C00004FF4F07008804FF44870488006E02C2084
:104C10003D4908812A2048812B2088813A48808894
:104C200045F21031884205D03748808847F29671A6
:104C3000884206D14FF4A070334908804FF4F070D9
:104C400048803148808849F60601884258D14FF49F
:104C5000F0702D4908804FF44870488050E04FF4C0
:104C6000A07029490880F02048800846808845F2D5
:104C70001051884210D14FF43050234908814FF42D
:104C8000285048814FF42C5088814FF44870088098
:104C90004FF4F070488020E01B48808841F6631193
:104CA000884205D01848808849F6060188420DD10F
:104CB0002C20154908812A2048812B2088814FF417
:104CC000487008804FF4F070488006E02C200E49B0
:104CD00008812A2048812B2088810B48808845F252
:104CE0001031884205D00848808847F29671884282
:104CF00006D14FF4F070044908804FF4A07048804A
:104D0000002002F0C1FE10BDCC01002470B50546A4
:104D10000E4614463146284602F0D4FF03F078F9D7
:104D200001490C8070BD00000000106010B5CF205C
:104D300003F062F9002003F053F9C12003F050F9A9
:104D4000302003F04DF9ED2003F056F9642003F014
:104D500047F9032003F044F9122003F041F98120C0
:104D600003F03EF9E82003F047F9852003F038F915
:104D7000102003F035F97A2003F032F9CB2003F04C
:104D80003BF9392003F02CF92C2003F029F90020FD
:104D900003F026F9342003F023F9022003F020F970
:104DA000F72003F029F9202003F01AF9EA2003F094
:104DB00023F9002003F014F9002003F011F9C020BA
:104DC00003F01AF91B2003F00BF9C12003F014F9CA
:104DD000012003F005F9C52003F00EF9302003F09F
:104DE000FFF8302003F0FCF8C72003F005F9B720E6
:104DF00003F0F6F8362003F0FFF8482003F0F0F84F
:104E00003A2003F0F9F8552003F0EAF8B12003F056
:104E1000F3F8002003F0E4F81A2003F0E1F8B620DC
:104E200003F0EAF80A2003F0DBF8A22003F0D8F838
:104E3000F22003F0E1F8002003F0D2F8262003F07E
:104E4000DBF8012003F0CCF8E02003F0D5F80F20C8
:104E500003F0C6F82A2003F0C3F8282003F0C0F8B6
:104E6000082003F0BDF80E2003F0BAF8082003F084
:104E7000B7F8542003F0B4F8A92003F0B1F84320A8
:104E800003F0AEF80A2003F0ABF80F2003F0A8F807
:104E9000002003F0A5F8002003F0A2F8002003F0A2
:104EA0009FF8002003F09CF8E12003F0A5F8002013
:104EB00003F096F8152003F093F8172003F090F80C
:104EC000072003F08DF8112003F08AF8062003F084
:104ED00087F82B2003F084F8562003F081F83C205B
:104EE00003F07EF8052003F07BF8102003F078F83B
:104EF0000F2003F075F83F2003F072F83F2003F015
:104F00006FF80F2003F06CF82B2003F075F80020E9
:104F100003F066F8002003F063F8012003F060F866
:104F20003F2003F05DF82A2003F066F8002003F02C
:104F300057F8002003F054F8002003F051F8EF2058
:104F400003F04EF8112003F057F87820FCF728FD05
:104F5000292003F051F810BD10B5FF2003F04CF8E4
:104F6000FF2003F03DF8982003F03AF8062003F004
:104F700037F8BC2003F040F8012003F031F80F208F
:104F800003F02EF8612003F02BF8FF2003F028F83F
:104F9000012003F025F8012003F022F80B2003F094
:104FA0001FF8102003F01CF8372003F019F86320D5
:104FB00003F016F8FF2003F013F8FF2003F010F8B9
:104FC000012003F00DF8012003F00AF8002003F09F
:104FD00007F8002003F004F8FF2003F001F8522046
:104FE00002F0FEFF012002F0FBFF002002F0F8FFBC
:104FF000402002F0F5FFBD2002F0FEFF012002F08C
:10500000EFFF232002F0ECFF452002F0E9FF6720CC
:1050100002F0E6FF012002F0E3FF232002F0E0FFB0
:10502000452002F0DDFF672002F0DAFFBE2002F02B
:10503000E3FF002002F0D4FF012002F0D1FFAB20FB
:1050400002F0CEFF602002F0CBFF222002F0C8FF6A
:10505000222002F0C5FF222002F0C2FF222002F02F
:10506000BFFF222002F0BCFFC72002F0C5FF3620A0
:1050700002F0B6FFED2002F0BFFF7F2002F0B0FF8C
:105080000F2002F0ADFFC02002F0B6FF0F2002F0AB
:10509000A7FF0B2002F0A4FF0A2002F0A1FFFC20D2
:1050A00002F0AAFF082002F09BFFDF2002F0A4FF1D
:1050B000002002F095FF002002F092FF002002F095
:1050C0008FFF002002F08CFF002002F089FF2020DB
:1050D00002F086FFF32002F08FFF742002F080FFC1
:1050E000B42002F089FF002002F07AFF002002F0D5
:1050F00077FF002002F074FFF72002F07DFF82208E
:1051000002F06EFFB12002F077FF002002F068FF8E
:10511000132002F065FF132002F062FFF22002F07C
:105120006BFF802002F05CFF042002F059FF40205A
:1051300002F056FF282002F053FFC12002F05CFF6E
:10514000172002F04DFF882002F04AFF882002F06D
:1051500047FF202002F044FFE02002F04DFF002036
:1051600002F03EFF0A2002F03BFF122002F038FF5F
:10517000102002F035FF0E2002F032FF202002F056
:105180002FFFCC2002F02CFF072002F029FF062081
:1051900002F026FF0B2002F023FF0E2002F020FF7A
:1051A0000F2002F01DFF0D2002F01AFF152002F063
:1051B00017FF102002F014FF002002F011FFE12081
:1051C00002F01AFF002002F00BFF0B2002F008FF94
:1051D000132002F005FF0D2002F002FF0E2002F066
:1051E000FFFE1B2002F0FCFE712002F0F9FE0620FB
:1051F00002F0F6FE062002F0F3FE0A2002F0F0FEB6
:105200000F2002F0EDFE0E2002F0EAFE0F2002F069
:10521000E7FE152002F0E4FE0C2002F0E1FE002083
:1052200002F0DEFE2A2002F0E7FE002002F0D8FEA7
:10523000002002F0D5FE012002F0D2FEDF2002F0B5
:10524000CFFE2B2002F0D8FE002002F0C9FE002085
:1052500002F0C6FE032002F0C3FE1F2002F0C0FED3
:105260003A2002F0C9FE552002F0BAFE362002F0C4
:10527000C3FE002002F0B4FE112002F0BDFE782033
:10528000FCF78EFB292002F0B7FE1420FCF788FB08
:105290002C2002F0B1FE10BD10B5ED2002F0ACFEE6
:1052A000012002F09DFEFE2002F09AFEEE2002F0A8
:1052B000A3FEDE2002F094FE212002F091FEF120F8
:1052C00002F09AFE012002F08BFEDF2002F094FE35
:1052D000102002F085FEC42002F08EFE8F2002F026
:1052E0007FFEC62002F088FE002002F079FEE22058
:1052F00002F076FEE22002F073FEE22002F070FE81
:10530000BF2002F079FEAA2002F06AFEB02002F06F
:1053100073FE0D2002F064FE002002F061FE0D20FD
:1053200002F05EFE002002F05BFE112002F058FE4B
:10533000002002F055FE192002F052FE002002F07B
:105340004FFE212002F04CFE002002F049FE2D20ED
:1053500002F046FE002002F043FE3D2002F040FE37
:10536000002002F03DFE5D2002F03AFE002002F037
:1053700037FE5D2002F034FE002002F031FEB12045
:1053800002F03AFE802002F02BFE002002F028FE00
:105390008B2002F025FE002002F022FE962002F073
:1053A0001FFE002002F01CFEB22002F025FE0020AD
:1053B00002F016FE002002F013FE022002F010FEA2
:1053C000002002F00DFE032002F00AFE002002F091
:1053D00007FEB32002F010FE002002F001FE0020C4
:1053E00002F0FEFD002002F0FBFD002002F0F8FDBF
:1053F000002002F0F5FD002002F0F2FD002002F096
:10540000EFFD002002F0ECFD002002F0E9FD00209D
:1054100002F0E6FD002002F0E3FD002002F0E0FDD6
:10542000002002F0DDFD002002F0DAFD002002F095
:10543000D7FD002002F0D4FD002002F0D1FD0020B5
:1054400002F0CEFD002002F0CBFD002002F0C8FDEE
:10545000002002F0C5FD002002F0C2FD002002F095
:10546000BFFD002002F0BCFDB42002F0C5FD8B2082
:1054700002F0B6FD002002F0B3FD962002F0B0FD70
:10548000002002F0ADFDA12002F0AAFD002002F0F4
:10549000A7FDB52002F0B0FD022002F0A1FD002022
:1054A00002F09EFD032002F09BFD002002F098FD1B
:1054B000042002F095FD002002F092FDB62002F0DB
:1054C0009BFD002002F08CFD002002F089FDB7203A
:1054D00002F092FD002002F083FD002002F080FD2A
:1054E0003F2002F07DFD002002F07AFD5E2002F0F8
:1054F00077FD002002F074FD642002F071FD0020B1
:1055000002F06EFD8C2002F06BFD002002F068FDC1
:10551000AC2002F065FD002002F062FDDC2002F00C
:105520005FFD002002F05CFD702002F059FD0020BC
:1055300002F056FD902002F053FD002002F050FDD5
:10554000EB2002F04DFD002002F04AFDDC2002F0CD
:1055500047FD002002F044FDB82002F04DFD002080
:1055600002F03EFD002002F03BFD002002F038FD7D
:10557000002002F035FD002002F032FD002002F094
:105580002FFD002002F02CFD002002F029FDBA20A2
:1055900002F032FD242002F023FD002002F020FD65
:1055A000002002F01DFD002002F01AFDC12002F0D3
:1055B00023FD202002F014FD002002F011FD5420F4
:1055C00002F00EFD002002F00BFDFF2002F008FDAE
:1055D000002002F005FDC22002F00EFD0A2002F0BC
:1055E000FFFC002002F0FCFC042002F0F9FC00208B
:1055F00002F0F6FCC32002F0FFFC3C2002F0F0FCBD
:10560000002002F0EDFC3A2002F0EAFC002002F05B
:10561000E7FC392002F0E4FC002002F0E1FC372036
:1056200002F0DEFC002002F0DBFC3C2002F0D8FCA3
:10563000002002F0D5FC362002F0D2FC002002F05F
:10564000CFFC322002F0CCFC002002F0C9FC2F205D
:1056500002F0C6FC002002F0C3FC2C2002F0C0FCCB
:10566000002002F0BDFC292002F0BAFC002002F06C
:10567000B7FC262002F0B4FC002002F0B1FC24208C
:1056800002F0AEFC002002F0ABFC242002F0A8FCEB
:10569000002002F0A5FC232002F0A2FC002002F072
:1056A0009FFC3C2002F09CFC002002F099FC36207C
:1056B00002F096FC002002F093FC322002F090FCF5
:1056C000002002F08DFC2F2002F08AFC002002F066
:1056D00087FC2C2002F084FC002002F081FC2920B1
:1056E00002F07EFC002002F07BFC262002F078FC19
:1056F000002002F075FC242002F072FC002002F071
:105700006FFC242002F06CFC002002F069FC2320D6
:1057100002F066FC002002F063FCC42002F06CFC86
:10572000622002F05DFC002002F05AFC052002F02D
:1057300057FC002002F054FC842002F051FC0020B1
:1057400002F04EFCF02002F04BFC002002F048FC7E
:10575000182002F045FC002002F042FCA42002F0D8
:105760003FFC002002F03CFC182002F039FC002035
:1057700002F036FC502002F033FC002002F030FC36
:105780000C2002F02DFC002002F02AFC172002F071
:1057900027FC002002F024FC952002F021FC0020D0
:1057A00002F01EFCF32002F01BFC002002F018FCAB
:1057B000E62002F015FC002002F012FCC52002F0E9
:1057C0001BFC322002F00CFC002002F009FC4420FB
:1057D00002F006FC002002F003FC652002F000FC51
:1057E000002002F0FDFB762002F0FAFB002002F020
:1057F000F7FB882002F0F4FB002002F0F1FBC6204A
:1058000002F0FAFB202002F0EBFB002002F0E8FBA4
:10581000172002F0E5FB002002F0E2FB012002F07D
:10582000DFFB002002F0DCFBC72002F0E5FB0020DC
:1058300002F0D6FB002002F0D3FB002002F0D0FBE8
:10584000002002F0CDFBC82002F0D6FB002002F0C1
:10585000C7FB002002F0C4FB002002F0C1FB0020C7
:1058600002F0BEFBC92002F0C7FB002002F0B8FB2B
:10587000002002F0B5FB002002F0B2FB002002F095
:10588000AFFB002002F0ACFB002002F0A9FB0020DF
:1058900002F0A6FB002002F0A3FB002002F0A0FB18
:1058A000002002F09DFB002002F09AFB002002F095
:1058B00097FB002002F094FB002002F091FB0020F7
:1058C00002F08EFB002002F08BFBE02002F094FB44
:1058D000162002F085FB002002F082FB1C2002F063
:1058E0007FFB002002F07CFB212002F079FB0020EE
:1058F00002F076FB362002F073FB002002F070FB12
:10590000462002F06DFB002002F06AFB522002F0FC
:1059100067FB002002F064FB642002F061FB0020C2
:1059200002F05EFB7A2002F05BFB002002F058FBE5
:105930008B2002F055FB002002F052FB992002F070
:105940004FFB002002F04CFBA82002F049FB002096
:1059500002F046FBB92002F043FB002002F040FBBE
:10596000C42002F03DFB002002F03AFBCA2002F006
:1059700037FB002002F034FBD22002F031FB002084
:1059800002F02EFBD92002F02BFB002002F028FBB6
:10599000E02002F025FB002002F022FBF32002F0C1
:1059A0001FFB002002F01CFBE12002F025FB16206B
:1059B00002F016FB002002F013FB1C2002F010FB8B
:1059C000002002F00DFB222002F00AFB002002F072
:1059D00007FB362002F004FB002002F001FB45200B
:1059E00002F0FEFA002002F0FBFA522002F0F8FA70
:1059F000002002F0F5FA642002F0F2FA002002F032
:105A0000EFFA7A2002F0ECFA002002F0E9FA8B209B
:105A100002F0E6FA002002F0E3FA992002F0E0FA40
:105A2000002002F0DDFAA82002F0DAFA002002F0ED
:105A3000D7FAB92002F0D4FA002002F0D1FAC4203B
:105A400002F0CEFA002002F0CBFACA2002F0C8FA27
:105A5000002002F0C5FAD22002F0C2FA002002F0C3
:105A6000BFFAD82002F0BCFA002002F0B9FAE02018
:105A700002F0B6FA002002F0B3FAF32002F0B0FA16
:105A8000002002F0ADFAE22002F0B6FA052002F0A2
:105A9000A7FA002002F0A4FA0B2002F0A1FA0020DD
:105AA00002F09EFA1B2002F09BFA002002F098FA06
:105AB000342002F095FA002002F092FA442002F01D
:105AC0008FFA002002F08CFA4F2002F089FA0020B1
:105AD00002F086FA612002F083FA002002F080FAD8
:105AE000792002F07DFA002002F07AFA882002F094
:105AF00077FA002002F074FA972002F071FA002081
:105B000002F06EFAA62002F06BFA002002F068FAAA
:105B1000B72002F065FA002002F062FAC22002F01B
:105B20005FFA002002F05CFAC72002F059FA002068
:105B300002F056FAD12002F053FA002002F050FA97
:105B4000D62002F04DFA002002F04AFADD2002F0E1
:105B500047FA002002F044FAF32002F041FA002054
:105B600002F03EFAE32002F047FA052002F038FA8C
:105B7000002002F035FA0A2002F032FA002002F08A
:105B80002FFA1C2002F02CFA002002F029FA332010
:105B900002F026FA002002F023FA442002F020FA54
:105BA000002002F01DFA502002F01AFA002002F044
:105BB00017FA622002F014FA002002F011FA78209D
:105BC00002F00EFA002002F00BFA882002F008FA28
:105BD000002002F005FA972002F002FA002002F0FD
:105BE000FFF9A62002F0FCF9002002F0F9F9B72035
:105BF00002F0F6F9002002F0F3F9C22002F0F0F909
:105C0000002002F0EDF9C72002F0EAF9002002F0CE
:105C1000E7F9D12002F0E4F9002002F0E1F9D52003
:105C200002F0DEF9002002F0DBF9DD2002F0D8F905
:105C3000002002F0D5F9F32002F0D2F9002002F0A2
:105C4000CFF9E42002F0D8F9012002F0C9F90020D0
:105C500002F0C6F9012002F0C3F9002002F0C0F9F9
:105C6000022002F0BDF9002002F0BAF92A2002F069
:105C7000B7F9002002F0B4F93C2002F0B1F900209D
:105C800002F0AEF94B2002F0ABF9002002F0A8F9C7
:105C90005D2002F0A5F9002002F0A2F9742002F0C4
:105CA0009FF9002002F09CF9842002F099F900206D
:105CB00002F096F9932002F093F9002002F090F997
:105CC000A22002F08DF9002002F08AF9B32002F040
:105CD00087F9002002F084F9BE2002F081F900204B
:105CE00002F07EF9C42002F07BF9002002F078F97E
:105CF000CD2002F075F9002002F072F9D32002F0F5
:105D00006FF9002002F06CF9DD2002F069F9002043
:105D100002F066F9F32002F063F9002002F060F966
:105D2000E52002F069F9002002F05AF9002002F0A3
:105D300057F9002002F054F9002002F051F9022036
:105D400002F04EF9002002F04BF9292002F048F948
:105D5000002002F045F93C2002F042F9002002F058
:105D60003FF94B2002F03CF9002002F039F95D20A8
:105D700002F036F9002002F033F9742002F030F915
:105D8000002002F02DF9842002F02AF9002002F010
:105D900027F9932002F024F9002002F021F9A22033
:105DA00002F01EF9002002F01BF9B32002F018F9EE
:105DB000002002F015F9BE2002F012F9002002F0D6
:105DC0000FF9C42002F00CF9002002F009F9CD20EF
:105DD00002F006F9002002F003F9D32002F000F9E6
:105DE000002002F0FDF8DC2002F0FAF8002002F0BA
:105DF000F7F8F32002F0F4F8002002F0F1F8E620C2
:105E000002F0FAF8112002F0EBF8002002F0E8F8B6
:105E1000342002F0E5F8002002F0E2F8562002F00B
:105E2000DFF8002002F0DCF8762002F0D9F800203C
:105E300002F0D6F8772002F0D3F8002002F0D0F874
:105E4000662002F0CDF8002002F0CAF8882002F0A7
:105E5000C7F8002002F0C4F8992002F0C1F8002031
:105E600002F0BEF8BB2002F0BBF8002002F0B8F848
:105E7000992002F0B5F8002002F0B2F8662002F096
:105E8000AFF8002002F0ACF8552002F0A9F800208D
:105E900002F0A6F8552002F0A3F8002002F0A0F8C6
:105EA000452002F09DF8002002F09AF8432002F00D
:105EB00097F8002002F094F8442002F091F80020B6
:105EC00002F08EF8E72002F097F8322002F088F80E
:105ED000002002F085F8552002F082F8002002F040
:105EE0007FF8762002F07CF8002002F079F8662036
:105EF00002F076F8002002F073F8672002F070F8E4
:105F0000002002F06DF8672002F06AF8002002F02D
:105F100067F8872002F064F8002002F061F8992009
:105F200002F05EF8002002F05BF8BB2002F058F8A7
:105F3000002002F055F8992002F052F8002002F0FB
:105F40004FF8772002F04CF8002002F049F8442086
:105F500002F046F8002002F043F8562002F040F824
:105F6000002002F03DF8232002F03AF8002002F071
:105F700037F8332002F034F8002002F031F84520E1
:105F800002F02EF8002002F02BF8E82002F034F89E
:105F9000002002F025F8002002F022F8992002F0FB
:105FA0001FF8002002F01CF8872002F019F80020EA
:105FB00002F016F8882002F013F8002002F010F822
:105FC000772002F00DF8002002F00AF8662002F0B7
:105FD00007F8002002F004F8882002F001F8002001
:105FE00001F0FEFFAA2001F0FBFF002001F0F8FF06
:105FF000BB2001F0F5FF002001F0F2FF992001F035
:10600000EFFF002001F0ECFF662001F0E9FF002027
:1060100001F0E6FF552001F0E3FF002001F0E0FF72
:10602000552001F0DDFF002001F0DAFF442001F0EF
:10603000D7FF002001F0D4FF442001F0D1FF002061
:1060400001F0CEFF552001F0CBFF002001F0C8FF8A
:10605000E92001F0D1FFAA2001F0C2FF002001F0E9
:10606000BFFF002001F0BCFF002001F0B9FF0020BD
:1060700001F0C2FFAA2001F0B3FFCF2001F0BCFF66
:10608000002001F0ADFF002001F0AAFF002001F088
:10609000A7FF002001F0A4FF002001F0A1FF0020D5
:1060A00001F09EFF002001F09BFF002001F098FF0F
:1060B000002001F095FF002001F092FF002001F088
:1060C0008FFF002001F08CFF002001F089FF0020ED
:1060D00001F086FF002001F083FF002001F080FF27
:1060E000002001F07DFFF02001F086FF002001F08C
:1060F00077FF502001F074FF002001F071FF0020B5
:1061000001F06EFF002001F06BFFF32001F074FF3F
:10611000002001F065FFF92001F06EFF062001F07C
:106120005FFF102001F05CFF292001F059FF0020E3
:1061300001F056FF3A2001F05FFF552001F050FFBB
:10614000112001F059FF6420FBF72AFC292001F0FF
:1061500053FF352001F050FF002001F041FF512096
:1061600001F04AFFFF2001F03BFF532001F044FF04
:106170002C2001F035FF552001F03EFF822001F078
:106180002FFF2C2001F038FF10BD10B555214FF422
:10619000704001F047FFAA214FF2010001F042FFD9
:1061A00052214FF2020001F03DFF08214FF203009F
:1061B00001F038FF01214FF2040001F033FF0D21FF
:1061C0004FF4304001F02EFF0D214BF2010001F0A1
:1061D00029FF0D214BF2020001F024FF34214FF47E
:1061E000364001F01FFF34214BF2016001F01AFF2D
:1061F00034214BF2026001F015FF0D214FF43140C4
:1062000001F010FF0D214BF2011001F00BFF0D21E9
:106210004BF2021001F006FF34214FF4374001F039
:1062200001FF34214BF2017001F0FCFE34214BF2EE
:10623000027001F0F7FE00214FF4324001F0F2FE4F
:1062400000214BF2012001F0EDFE00214BF2022073
:1062500001F0E8FE24214FF4384001F0E3FE242150
:106260004BF6010001F0DEFE24214BF6020001F0A6
:10627000D9FE01214FF43F4001F0D4FE0F214FF42D
:10628000334001F0CFFE0F214BF2013001F0CAFE86
:106290000F214BF2023001F0C5FE34214FF439409A
:1062A00001F0C0FE34214BF6011001F0BBFE342199
:1062B0004BF6021001F0B6FE08214FF4354001F014
:1062C000B1FE08214BF2015001F0ACFE08214BF267
:1062D000025001F0A7FE03214FF4424001F0A2FE5C
:1062E00024214FF43A4001F09DFE24214BF6012079
:1062F00001F098FE24214BF6022001F093FE0021CC
:106300004FF43C4001F08EFE78214BF6014001F045
:1063100089FE00214BF6024001F084FE00214FF47B
:106320003D4001F07FFE78214BF6015001F07AFEEE
:1063300000214BF6025001F075FE00214FF43E4063
:1063400001F070FE64214BF6016001F06BFE00214C
:106350004FF4514001F066FE33214DF2011001F07F
:1063600061FE00214DF2021001F05CFE34214DF27D
:10637000031001F057FE00214DF2041001F052FE0F
:106380003A214DF2051001F04DFE00214DF20610AC
:1063900001F048FE4A214DF2071001F043FE0021B2
:1063A0004DF2081001F03EFE5C214DF2091001F0A3
:1063B00039FE00214DF20A1001F034FE81214DF228
:1063C0000B1001F02FFE00214DF20C1001F02AFEFF
:1063D000A6214DF20D1001F025FE00214DF20E1008
:1063E00001F020FEE5214DF20F1001F01BFE01210E
:1063F0004DF2101001F016FE13214DF2111001F0B4
:1064000011FE01214DF2121001F00CFE54214DF24B
:10641000131001F007FE01214DF2141001F002FEED
:1064200082214DF2151001F0FDFD01214DF21610F3
:1064300001F0F8FDCA214DF2171001F0F3FD022121
:106440004DF2181001F0EEFD00214DF2191001F08F
:10645000E9FD02214DF21A1001F0E4FD01214DF297
:106460001B1001F0DFFD02214DF21C1001F0DAFDDE
:1064700034214DF21D1001F0D5FD02214DF21E1008
:1064800001F0D0FD67214DF21F1001F0CBFD02217C
:106490004DF2201001F0C6FD84214DF2211001F0D3
:1064A000C1FD02214DF2221001F0BCFDA4214DF2EC
:1064B000231001F0B7FD02214DF2241001F0B2FDCE
:1064C000B7214DF2251001F0ADFD02214DF226104D
:1064D00001F0A8FDCF214DF2271001F0A3FD02210C
:1064E0004DF2281001F09EFDDE214DF2291001F041
:1064F00099FD02214DF22A1001F094FDF2214DF296
:106500002B1001F08FFD02214DF22C1001F08AFDBD
:10651000FE214DF22D1001F085FD03214DF22E10CC
:1065200001F080FD10214DF22F1001F07BFD0321C1
:106530004DF2301001F076FD33214DF2311001F0B3
:1065400071FD03214DF2321001F06CFD6D214DF211
:10655000331001F067FD00214FF4524001F062FD5D
:1065600033214DF2012001F05DFD00214DF20220AA
:1065700001F058FD34214DF2032001F053FD0021BC
:106580004DF2042001F04EFD3A214DF2052001F0BC
:1065900049FD00214DF2062001F044FD4A214DF253
:1065A000072001F03FFD00214DF2082001F03AFDE7
:1065B0005C214DF2092001F035FD00214DF20A2049
:1065C00001F030FD81214DF20B2001F02BFD002167
:1065D0004DF20C2001F026FDA6214DF20D2001F018
:1065E00021FD00214DF20E2001F01CFDE5214DF2B0
:1065F0000F2001F017FD01214DF2102001F012FDD6
:1066000013214DF2112001F00DFD01214DF2122058
:1066100001F008FD54214DF2132001F003FD01218A
:106620004DF2142001F0FEFC82214DF2152001F004
:10663000F9FC01214DF2162001F0F4FCCA214DF2C3
:10664000172001F0EFFC02214DF2182001F0EAFCC6
:1066500000214DF2192001F0E5FC02214DF21A2033
:1066600001F0E0FC01214DF21B2001F0DBFC0221D6
:106670004DF21C2001F0D6FC34214DF21D2001F01A
:10668000D1FC02214DF21E2001F0CCFC67214DF21D
:106690001F2001F0C7FC02214DF2202001F0C2FCB6
:1066A00084214DF2212001F0BDFC02214DF2222077
:1066B00001F0B8FCA4214DF2232001F0B3FC02212B
:1066C0004DF2242001F0AEFCB7214DF2252001F05F
:1066D000A9FC02214DF2262001F0A4FCCF214DF2AD
:1066E000272001F09FFC02214DF2282001F09AFCA6
:1066F000DE214DF2292001F095FC02214DF22A20E5
:1067000001F090FCF2214DF22B2001F08BFC0221D4
:106710004DF22C2001F086FCFE214DF22D2001F0DF
:1067200081FC03214DF22E2001F07CFC10214DF262
:106730002F2001F077FC03214DF2302001F072FC94
:1067400033214DF2312001F06DFC03214DF2322056
:1067500001F068FC6D214DF2332001F063FC002153
:106760004FF4534001F05EFC33214DF2013001F053
:1067700059FC00214DF2023001F054FC34214DF25D
:10678000033001F04FFC00214DF2043001F04AFCCF
:106790003A214DF2053001F045FC00214DF2063062
:1067A00001F040FC4A214DF2073001F03BFC002192
:1067B0004DF2083001F036FC5C214DF2093001F059
:1067C00031FC00214DF20A3001F02CFC81214DF208
:1067D0000B3001F027FC00214DF20C3001F022FCBF
:1067E000A6214DF20D3001F01DFC00214DF20E30BE
:1067F00001F018FCE5214DF20F3001F013FC0121EE
:106800004DF2103001F00EFC13214DF2113001F069
:1068100009FC01214DF2123001F004FC54214DF22B
:10682000133001F0FFFB01214DF2143001F0FAFBAF
:1068300082214DF2153001F0F5FB01214DF21630A9
:1068400001F0F0FBCA214DF2173001F0EBFB022101
:106850004DF2183001F0E6FB00214DF2193001F045
:10686000E1FB02214DF21A3001F0DCFB01214DF277
:106870001B3001F0D7FB02214DF21C3001F0D2FB9E
:1068800034214DF21D3001F0CDFB02214DF21E30BE
:1068900001F0C8FB67214DF21F3001F0C3FB02215C
:1068A0004DF2203001F0BEFB84214DF2213001F089
:1068B000B9FB02214DF2223001F0B4FBA4214DF2CC
:1068C000233001F0AFFB02214DF2243001F0AAFB8E
:1068D000B7214DF2253001F0A5FB02214DF2263003
:1068E00001F0A0FBCF214DF2273001F09BFB0221EC
:1068F0004DF2283001F096FBDE214DF2293001F0F7
:1069000091FB02214DF22A3001F08CFBF2214DF275
:106910002B3001F087FB02214DF22C3001F082FB7D
:10692000FE214DF22D3001F07DFB03214DF22E3082
:1069300001F078FB10214DF22F3001F073FB0321A1
:106940004DF2303001F06EFB33214DF2313001F069
:1069500069FB03214DF2323001F064FB6D214DF2F1
:10696000333001F05FFB00214FF4544001F05AFB3B
:1069700033214DF2014001F055FB00214DF2024060
:1069800001F050FB34214DF2034001F04BFB00219C
:106990004DF2044001F046FB3A214DF2054001F072
:1069A00041FB00214DF2064001F03CFB4A214DF233
:1069B000074001F037FB00214DF2084001F032FBA7
:1069C0005C214DF2094001F02DFB00214DF20A40FF
:1069D00001F028FB81214DF20B4001F023FB002147
:1069E0004DF20C4001F01EFBA6214DF20D4001F0CE
:1069F00019FB00214DF20E4001F014FBE5214DF290
:106A00000F4001F00FFB01214DF2104001F00AFB95
:106A100013214DF2114001F005FB01214DF212400E
:106A200001F000FB54214DF2134001F0FBFA01216B
:106A30004DF2144001F0F6FA82214DF2154001F0BA
:106A4000F1FA01214DF2164001F0ECFACA214DF2A3
:106A5000174001F0E7FA02214DF2184001F0E2FA86
:106A600000214DF2194001F0DDFA02214DF21A40E9
:106A700001F0D8FA01214DF21B4001F0D3FA0221B6
:106A80004DF21C4001F0CEFA34214DF21D4001F0D0
:106A9000C9FA02214DF21E4001F0C4FA67214DF2FD
:106AA0001F4001F0BFFA02214DF2204001F0BAFA76
:106AB00084214DF2214001F0B5FA02214DF222402D
:106AC00001F0B0FAA4214DF2234001F0ABFA02210B
:106AD0004DF2244001F0A6FAB7214DF2254001F015
:106AE000A1FA02214DF2264001F09CFACF214DF28D
:106AF000274001F097FA02214DF2284001F092FA66
:106B0000DE214DF2294001F08DFA02214DF22A409A
:106B100001F088FAF2214DF22B4001F083FA0221B4
:106B20004DF22C4001F07EFAFE214DF22D4001F095
:106B300079FA03214DF22E4001F074FA10214DF242
:106B40002F4001F06FFA03214DF2304001F06AFA54
:106B500033214DF2314001F065FA03214DF232400C
:106B600001F060FA6D214DF2334001F05BFA002133
:106B70004FF4554001F056FA33214DF2015001F027
:106B800051FA00214DF2025001F04CFA34214DF23D
:106B9000035001F047FA00214DF2045001F042FA8F
:106BA0003A214DF2055001F03DFA00214DF2065018
:106BB00001F038FA4A214DF2075001F033FA002172
:106BC0004DF2085001F02EFA5C214DF2095001F00F
:106BD00029FA00214DF20A5001F024FA81214DF2E8
:106BE0000B5001F01FFA00214DF20C5001F01AFA7F
:106BF000A6214DF20D5001F015FA00214DF20E5074
:106C000001F010FAE5214DF20F5001F00BFA0121CD
:106C10004DF2105001F006FA13214DF2115001F01F
:106C200001FA01214DF2125001F0FCF954214DF20C
:106C3000135001F0F7F901214DF2145001F0F2F96F
:106C400082214DF2155001F0EDF901214DF216505F
:106C500001F0E8F9CA214DF2175001F0E3F90221E1
:106C60004DF2185001F0DEF900214DF2195001F0FB
:106C7000D9F902214DF21A5001F0D4F901214DF257
:106C80001B5001F0CFF902214DF21C5001F0CAF95E
:106C900034214DF21D5001F0C5F902214DF21E5074
:106CA00001F0C0F967214DF21F5001F0BBF902213C
:106CB0004DF2205001F0B6F984214DF2215001F03F
:106CC000B1F902214DF2225001F0ACF9A4214DF2AC
:106CD000235001F0A7F902214DF2245001F0A2F94E
:106CE000B7214DF2255001F09DF902214DF22650B9
:106CF00001F098F9CF214DF2275001F093F90221CC
:106D00004DF2285001F08EF9DE214DF2295001F0AC
:106D100089F902214DF22A5001F084F9F2214DF255
:106D20002B5001F07FF902214DF22C5001F07AF93D
:106D3000FE214DF22D5001F075F903214DF22E5038
:106D400001F070F910214DF22F5001F06BF9032181
:106D50004DF2305001F066F933214DF2315001F01F
:106D600061F903214DF2325001F05CF96D214DF2D1
:106D7000335001F057F900214FF4564001F052F919
:106D800033214DF2016001F04DF900214DF2026016
:106D900001F048F934214DF2036001F043F900217C
:106DA0004DF2046001F03EF93A214DF2056001F028
:106DB00039F900214DF2066001F034F94A214DF213
:106DC000076001F02FF900214DF2086001F02AF967
:106DD0005C214DF2096001F025F900214DF20A60B5
:106DE00001F020F981214DF20B6001F01BF9002127
:106DF0004DF20C6001F016F9A6214DF20D6001F084
:106E000011F900214DF20E6001F00CF9E5214DF26F
:106E10000F6001F007F901214DF2106001F002F955
:106E200013214DF2116001F0FDF801214DF21260C5
:106E300001F0F8F854214DF2136001F0F3F801214C
:106E40004DF2146001F0EEF882214DF2156001F070
:106E5000E9F801214DF2166001F0E4F8CA214DF283
:106E6000176001F0DFF802214DF2186001F0DAF846
:106E700000214DF2196001F0D5F802214DF21A609F
:106E800001F0D0F801214DF21B6001F0CBF8022196
:106E90004DF21C6001F0C6F834214DF21D6001F086
:106EA000C1F802214DF21E6001F0BCF867214DF2DD
:106EB0001F6001F0B7F802214DF2206001F0B2F836
:106EC00084214DF2216001F0ADF802214DF22260E3
:106ED00001F0A8F8A4214DF2236001F0A3F80221EB
:106EE0004DF2246001F09EF8B7214DF2256001F0CB
:106EF00099F802214DF2266001F094F8CF214DF26D
:106F0000276001F08FF802214DF2286001F08AF825
:106F1000DE214DF2296001F085F802214DF22A6050
:106F200001F080F8F2214DF22B6001F07BF8022194
:106F30004DF22C6001F076F8FE214DF22D6001F04B
:106F400071F803214DF22E6001F06CF810214DF222
:106F50002F6001F067F803214DF2306001F062F814
:106F600033214DF2316001F05DF803214DF23260C2
:106F700001F058F86D214DF2336001F053F85521BE
:106F80004FF4704001F04EF8AA214FF2010001F0D9
:106F900049F852214FF2020001F044F808214FF263
:106FA000030001F03FF800214FF2040001F03AF82D
:106FB000CC214FF4314001F035F800214BF20110A3
:106FC00001F030F805214FF4364001F02BF8702124
:106FD0004FF4374001F026F870214BF2017001F0B8
:106FE00021F801214FF4384001F01CF803214BF641
:106FF000010001F017F803214BF6020001F012F82E
:1070000003214BF6030001F00DF802214FF43C4040
:1070100001F008F800214BF6014001F003F80021CF
:107020004BF6024000F0FEFFD0214FF4494000F043
:10703000F9FF02214CF6011000F0F4FF50214CF64C
:10704000021000F0EFFF50214CF6031000F0EAFFB1
:1070500050214CF6041000F0E5FF00214FF454508D
:1070600000F0E0FF55214FF4685000F0DBFF4FF4D3
:10707000885000F0C1FF7820FAF7D3FC4FF4245079
:1070800000F0BAFF10BD10B5E22000F0B5FF1D20E2
:1070900000F0A6FF022000F0A3FF042000F0A0FFF4
:1070A0006420FAF7BEFCE02000F0A6FF012000F00B
:1070B00097FF0A20FAF774FCE02000F09DFF032000
:1070C00000F08EFF0C20FAF76BFC012000F094FF1B
:1070D0000A20FAF765FCE62000F08EFF2F2000F072
:1070E0007FFFFF2000F07CFFFF2000F079FFB02041
:1070F00000F082FF202000F073FF002000F070FFFE
:10710000032000F06DFF40F21F3000F069FF012006
:1071100000F066FF40F2DF1000F062FF002000F098
:107120005FFFB42000F068FF042000F059FF40F238
:107130001F4000F055FF002000F052FF2E2000F00D
:107140004FFF002000F04CFF002000F049FF00201E
:1071500000F046FF002000F043FFB62000F04CFF97
:10716000022000F03DFF4FF4037000F039FF0020D3
:1071700000F036FF172000F033FF152000F030FF3D
:10718000002000F02DFF002000F02AFFF02000F08A
:1071900033FF032000F024FF292000F02DFFD02032
:1071A00000F02AFF002000F01BFFBE2000F024FFAB
:1071B000052000F015FFFE2000F012FF012000F076
:1071C0000FFF002000F00CFF002000F009FF00205E
:1071D00000F006FFB82000F00FFF032000F000FFD2
:1071E000012000F0FDFEBA2000F006FF012000F0B3
:1071F000F7FE10BD10B5112000F0FEFE7820FAF762
:10720000CFFB362000F0F8FE002000F0E9FE3A2027
:1072100000F0F2FE052000F0E3FEB22000F0ECFEEC
:107220000C2000F0DDFE0C2000F0DAFE002000F063
:10723000D7FE332000F0D4FE332000F0D1FEB7207B
:1072400000F0DAFE352000F0CBFEBB2000F0D4FECB
:10725000322000F0C5FEC02000F0CEFE0C2000F071
:10726000BFFEC22000F0C8FE012000F0B9FEC3201E
:1072700000F0C2FE102000F0B3FEC42000F0BCFEFF
:10728000202000F0ADFEC62000F0B6FE0F2000F07A
:10729000A7FED02000F0B0FEA42000F0A1FEA120A7
:1072A00000F09EFEE02000F0A7FED02000F098FE47
:1072B000002000F095FE022000F092FE072000F072
:1072C0008FFE0A2000F08CFE282000F089FE32207C
:1072D00000F086FE442000F083FE422000F080FE95
:1072E000062000F07DFE0E2000F07AFE122000F055
:1072F00077FE142000F074FE172000F071FEE120EC
:1073000000F07AFED02000F06BFE002000F068FE56
:10731000022000F065FE072000F062FE0A2000F067
:107320005FFE282000F05CFE312000F059FE542062
:1073300000F056FE472000F053FE0E2000F050FEF5
:107340001C2000F04DFE172000F04AFE1B2000F02C
:1073500047FE1E2000F044FE2A2000F04DFE0020D3
:1073600000F03EFE002000F03BFE002000F038FE62
:10737000EF2000F035FE2B2000F03EFE002000F054
:107380002FFE002000F02CFE012000F029FE3F20FF
:1073900000F026FE292000F02FFE10BD10B51120B0
:1073A00000F02AFE7820FAF7FBFA362000F024FEDF
:1073B000482000F015FE3A2000F01EFE552000F097
:1073C0000FFEF02000F018FEC32000F009FEF020B0
:1073D00000F012FE962000F003FEB42000F00CFE38
:1073E000012000F0FDFDB62000F006FE0A2000F0AE
:1073F000F7FDA22000F0F4FDB72000F0FDFDC6204F
:1074000000F0EEFDB92000F0F7FD022000F0E8FDED
:10741000E02000F0E5FDC02000F0EEFD802000F04F
:10742000DFFD162000F0DCFDC12000F0E5FD192095
:1074300000F0D6FDC22000F0DFFDA72000F0D0FD57
:10744000C52000F0D9FD162000F0CAFDE82000F0AC
:10745000D3FD402000F0C4FD8A2000F0C1FD0020D3
:1074600000F0BEFD002000F0BBFD292000F0B8FDBB
:10747000192000F0B5FDA52000F0B2FD332000F08A
:10748000AFFDE02000F0B8FDF02000F0A9FD0720DE
:1074900000F0A6FD0D2000F0A3FD042000F0A0FDEB
:1074A000052000F09DFD142000F09AFD362000F02C
:1074B00097FD542000F094FD4C2000F091FD382001
:1074C00000F08EFD132000F08BFD142000F088FDED
:1074D0002E2000F085FD342000F082FDE12000F038
:1074E0008BFDF02000F07CFD102000F079FD1420D1
:1074F00000F076FD0E2000F073FD0C2000F070FD12
:10750000082000F06DFD352000F06AFD442000F0F9
:1075100067FD4C2000F064FD262000F061FD102086
:1075200000F05EFD122000F05BFD2C2000F058FD05
:10753000322000F055FDF02000F05EFD3C2000F010
:107540004FFDF02000F058FD692000F049FD782043
:10755000FAF726FA212000F04FFD292000F04CFD1B
:1075600010BD000000B595B000BF00BFF94800682D
:1075700040F00800F74908600846006800F008007D
:10758000019000BF00BF00BF00BF00BF08460068F9
:1075900040F0080008600846006800F0080001900C
:1075A00000BF00BF00BF00BF00BF0846006840F03A
:1075B000080008600846006800F00800019000BF5D
:1075C00000BF00BF00BF00BF0846006840F01000C9
:1075D00008600846006800F01000019000BF00BF7E
:1075E00000BF00BF00BF0846006840F0020008600E
:1075F0000846006800F00200019000BF00BF00BF15
:1076000080201090022011900120129003201390EE
:107610000C20149010A9D048FAF7AEF92020109051
:1076200010A9CD48FAF7A8F91020109010A9CA485F
:10763000FAF7A2F90820109010A9C848FAF79CF9A7
:10764000202010900120119010A9C548FAF794F954
:10765000C448C5490860C5484860002088600021CA
:10766000C148C16001611021416100218161C16196
:1076700001624FF480514162002181624FF48041E8
:10768000C1620021016341634FF4801181630F20C7
:10769000099000200A904E200B9000200F900F20A0
:1076A0000290002003900F2004900020089002AA6E
:1076B00009A9AD48FAF76CFA3220FAF771F9D3202C
:1076C00000F09AFC00F0D4F9A949888000F0D0F9C4
:1076D000A749888000F0CCF9A549888008468088B1
:1076E0004FF6FF7101EA0020A149888000F0C0F93F
:1076F0009F49898808439E4988800846808849F2C6
:10770000413188427ED0042000F076FC00F0B0F9D0
:107710009749888000F0ACF99549888000F0A8F975
:1077200093498880084680884FF6FF7101EA00205F
:107730008F49888000F09CF98D49898808438C49DD
:1077400088800846808848F25251884203D147F227
:107750008970874988808648808847F28971884285
:10776000D0D0D42000F048FC00F082F98049888015
:1077700000F07EF97E49888000F07AF97C498880A3
:10778000084680884FF6FF7101EA0020784988801A
:1077900000F06EF976498988084375498880084663
:1077A000808845F210318842ACD0D32000F024FC10
:1077B00000F05EF96E49888000F05AF96C498880C3
:1077C00000F056F96A498880084680884FF6FF71B4
:1077D00001EA00206649888000F04AF964498988F6
:1077E0000843634988800846808847F2967188423A
:1077F00088D055214FF4704000F014FCAA214FF2BC
:10780000010000E07CE000F00DFC52214FF202008C
:1078100000F008FC08214FF2030000F003FC0121F6
:107820004FF2040000F0FEFB4FF4454000F0E4FB93
:1078300000F01EF94E498880084680884FF6FF7197
:1078400001EA00204A4988804CF2015000F0D4FB44
:1078500000F00EF94649898808434549888005208B
:10786000FAF79EF84248808845F21051884247D086
:10787000D32000F0C1FB00F0FBF83D49888000F008
:10788000F7F83B49888000F0F3F8394988800846CA
:1078900080884FF6FF7101EA00203549888000F0AA
:1078A000E7F8334989880843314988800846808849
:1078B00049F60601884223D0A12000F09DFB00F08C
:1078C000D7F82B49888000F0D3F8294988800846EA
:1078D00080884FF6FF7101EA00202549888000F07A
:1078E000C7F8234989880843214988800846808849
:1078F00045F26171884203D141F663101C498880CA
:107900001B4881881BA0F8F7D5FB1948808847F2EF
:107910008971884202D1FFF76DFC4EE014488088DF
:1079200049F24131884202D1FDF700FA45E01048A2
:10793000808845F21031884202D1FDF7ADFC3CE071
:107940000B48808847F29671884219D1FFF726FDCF
:1079500033E00000E0440258000C025800100258C6
:1079600000040258004000528001002404410052EB
:10797000CC0100244C43442049443A25780D0A00A8
:107980003548808845F21051884202D1FEF7FDFB50
:1079900013E03148808849F60601884202D1FDF79C
:1079A000DBFA0AE02C48808841F66311884204D152
:1079B000FFF769FB642000F0EBFA2748808847F264
:1079C000897188420BD02448808847F2967188429A
:1079D00005D02148808849F6060188420AD1052051
:1079E000029004901D49CB6A8A68486802A9FAF798
:1079F0002DF821E01848808849F24131884211D0A1
:107A00001548808841F6631188420BD0124880885F
:107A100045F21031884205D00F48808845F2105158
:107A2000884209D10320029004900C49CB6A8A68ED
:107A3000486802A9FAF70AF80020FDF7B1F800BF7C
:107A4000012220210648F9F7BFFF00BF4FF6FF7063
:107A5000FDF78CF815B000BDCC0100248001002496
:107A60000004025800BF011EA0F10100FBD17047C5
:107A700008B50220FFF7F6FF024800880090BDF825
:107A8000000008BD00001060F0B505460024002786
:107A90008B488079012805D18948808841F6631197
:107AA000884208D186488079F0B98548808841F6B7
:107AB0006311884218D1082D15D2DFE805F00406BD
:107AC000080A0C0E101206250DE007250BE0042510
:107AD00009E0052507E0012505E0002503E0032571
:107AE00001E0022500BF00BF082D1CD2DFE805F031
:107AF0000406090C0F12151800BF14E044F08004AE
:107B000011E044F040040EE044F0C0040BE044F007
:107B1000200408E044F0600405E044F0A00402E022
:107B200044F0E00400BF00BF36276548808845F276
:107B30001051884200D13F026148808849F24131AA
:107B400088420BD05E48808847F28971884205D010
:107B50005B48808847F29671884201D144F008045E
:107B60002146384600F05EFA5548808841F6631198
:107B700088421DD004F0200068B151480088504967
:107B80004988884214DA4E48068840884C49088063
:107B9000084646800CE04A4800884949498888429E
:107BA00006DD4748068840884549088008464680E3
:107BB0004348808845F21051884252D14049488953
:107BC00000F01AFA002000F00BFA3D494989491CDF
:107BD00088B200F011FA002000F002FA3849498911
:107BE000891C88B200F008FA35490988491EC1F39A
:107BF0000F2000F0F5F932494989C91C88B200F01C
:107C0000FBF92F490978491EC8B200F0E9F92C495F
:107C1000888900F0F1F9002000F0E2F9284989890B
:107C2000491C88B200F0E8F9002000F0D9F9244995
:107C30008989891C88B200F0DFF921494988491EE9
:107C4000C1F30F2000F0CCF91D498989C91C88B205
:107C500000F0D2F91A498978491EC8B200F0C0F97B
:107C60002DE01749488900F0C7F9002000F0B8F965
:107C7000002000F0B5F912490988491EC1F30F2010
:107C800000F0AEF90E490978491EC8B200F0A8F913
:107C90000B49888900F0B0F9002000F0A1F900201C
:107CA00000F09EF906494988491EC1F30F2000F0F3
:107CB00097F903498978491EC8B200F091F9F0BDDF
:107CC000CC01002410B502460C464548808841F698
:107CD0006311884247D142488079A8B9404800885A
:107CE000401E801A82B23E49488900F085F9002082
:107CF00000F076F9002000F073F9101200F070F92E
:107D0000D0B200F06DF916E03549488900F074F9F9
:107D1000101200F065F9D0B200F062F9304909881C
:107D2000491EC1F30F2000F05BF92D490978491E67
:107D3000C8B200F055F92A49888900F05DF920128F
:107D400000F04EF9E0B200F04BF925494988491E90
:107D5000C1F30F2000F044F921498978491EC8B2C7
:107D600000F03EF93AE01E48808845F21051884202
:107D700020D11B49488900F03FF9101200F030F97A
:107D800017494989491C88B200F036F9D0B200F091
:107D900027F91349888900F02FF9201200F020F903
:107DA0000F498989491C88B200F026F9E0B200F039
:107DB00017F913E00A49488900F01EF9101200F083
:107DC0000FF9D0B200F00CF90549888900F014F9D8
:107DD000201200F005F9E0B200F002F910BD000039
:107DE000CC0100242DE9FC4F80460E4615461C466A
:107DF000B3460020019000902046E31704EB537334
:107E0000DB1021464FEAE47C04EB5C7C4FEAEC0C8F
:107E1000A4EBCC0CBCF1000F02D04FF0010C01E040
:107E20004FF0000C6344224604EBD27C4FEA6C0C0A
:107E300003FB0CF3DBB20193A5F12000C5B20C2CBF
:107E400006D0102C0BD0182C0ED0202C18D112E0FC
:107E500005EB45002D4901EB8000009012E02C4815
:107E600000EB051000900DE005EBC500294901EB82
:107E70008000009006E0284800EBC510009001E06B
:107E8000BDE8FC8F00BF00273AE0009810F807908B
:107E90004FF0000A2EE009F0800028B1314640463C
:107EA0000C9AFCF733FF07E00B9828B91B483146C2
:107EB00002684046FCF72AFF4FEA49604FEA106922
:107EC000701C86B216484088B04200DCD8E7A6EBAA
:107ED0000B00A0420AD15E4608F101001FFA80F8AB
:107EE0000F480088404500DCCAE706E00AF10100BF
:107EF00000F0FF0ABAF1080FCDDB00BF781CC7B253
:107F000001988742C1DB00BFBAE700001C820090E5
:107F100090860090808C0090DC99009024000024D2
:107F2000CC0100242DE9FC4F04460D4690469946AD
:107F3000DDE90C7A0B9E04F0FF0B08EB04001FFA3E
:107F400080F809EB05001FFA80F917E0444502DBD1
:107F50005C46A81985B24D4500DB15E00020CDE94F
:107F6000000A3A78334629462046FFF73BFF304661
:107F700006EBD07104EB61018CB27F1C38787E284F
:107F800002DC38782028E1DA00BFBDE8FC8F000071
:107F900000B50246BE2000F02FF8052000F020F8C2
:107FA00000EE102AB8EE400B9FED0B1B20EE010BEC
:107FB000BCEEC00B10EE101A88B200F011F80120D0
:107FC00000F00EF8FF2000F00BF8002000F008F899
:107FD000002000F005F800BD66666666666604402F
:107FE00001B5BDF800000090BDF80000014908800F
:107FF00008BD00000000106001B5BDF80000009051
:10800000BDF800000149088008BD0000FEFF0F60B8
:10801000024800890249088070470000CC01002412
:10802000FEFF0F60024A1080921C11807047000012
:10803000FEFF0F6000B587B000BF00BF2C4800688E
:1080400040F002002A4908600846006800F002007B
:10805000019000BF00BF00BF00BF00BF084600681E
:1080600040F0100008600846006800F01000019021
:1080700000BF00BF00BF00BF00BF0846006840F05F
:10808000100008600846006800F01000019000BF72
:1080900000BF00BF102002900120039004900590C3
:1080A00002A91448F9F768FC4020029002A912487E
:1080B000F9F762FC2020029002A90F48F9F75CFC56
:1080C00000BF012210210B48F9F77EFC00BF00BF62
:1080D000012240210848F9F777FC00BF00BF0122C8
:1080E00020210548F9F770FC00BF07B000BD000073
:1080F000E044025800040258001002581FB5012045
:1081000000220323CDE90120009303901346024689
:108110001021400700F04FF8012000220323CDE991
:10812000012000930390134602221221480600F01A
:1081300042F8012000220323CDE90120009303909F
:10814000134603221221100700F035F80120002207
:108150000323CDE9012000930390134604220F214D
:108160004FF0605000F027F800200323CDE90030E5
:10817000029003460522192103904FF0C04000F001
:108180001AF8012000220323CDE901200093039077
:10819000134606221921500700F00DF80020032392
:1081A000CDE900300290012307221B210390C8076C
:1081B00000F001F81FBD2DE9FF5F04460D4616468D
:1081C0001F46DDE910ABDDE90E89F9F72FFC012030
:1081D0008DF80000F0B28DF801000194E8B28DF83E
:1081E000080000208DF809008DF80A008DF80B803A
:1081F0008DF80C708DF80D908DF80EA08DF80FB0E5
:108200006846F9F718FC0420F9F71AFC002004B0BE
:10821000BDE8F09FF8F718BCF8F74CBD000000006F
:108220000000000000000000000000003F400000CF
:10823000000000000000300040003000400000005E
:1082400009000BC03D000BC03D00090018C02440D0
:108250007FE0224031800000180024C01B000D8008
:108260003240018003801C4027401C8007400040B2
:10827000100060000000000000000000000000008E
:1082800000001F80204040200000402020401F8030
:1082900000000000090006001F8006000900000021
:1082A000040004003F80040004000000001000608F
:1082B00000000000000000000400040004000400AE
:1082C000040000000000004000000000000000006A
:1082D000002001C006003800400000001F80204040
:1082E000204020401F800000000010403FC00040A0
:1082F0000000000018C02140224024401840000027
:1083000010802040244024401B80000002000D000B
:1083100011003FC0014000003C8024402440244024
:10832000238000001F80244024403440038000004C
:108330003000200027C03800200000001B802440AF
:10834000244024401B8000001C0022C02240224008
:108350001F80000000000000084000000000000036
:1083600000000000046000000000000000000400A5
:108370000A0011002080404009000900090009009E
:108380000900000000004040208011000A000400A5
:108390001800200023402400180000001F80204007
:1083A000274029401F400000004007C039000F004F
:1083B00001C0004020403FC0244024401B800000FA
:1083C0001F802040204020403080000020403FC0DF
:1083D000204020401F80000020403FC024402E400D
:1083E00030C0000020403FC024402E00300000007C
:1083F0000F001080204022403380020020403FC008
:10840000040004003FC02040204020403FC02040E6
:10841000204000000060202020203FC020002000DD
:1084200020403FC024400B0030C0204020403FC0CF
:1084300020400040004000C03FC03C0003C03C0062
:108440003FC0000020403FC00C4023003FC0200040
:108450001F802040204020401F80000020403FC05F
:1084600024402400180000001F802140214020E00B
:108470001FA0000020403FC02440260019C000403B
:1084800018C02440244022403180000030002040A9
:108490003FC020403000000020003F8000400040EE
:1084A0003F80200020003E0001C00700380020006F
:1084B000380007C03C0007C038000000204039C029
:1084C000060039C0204000002000384007C0384076
:1084D00020000000304021C02640384020C000006D
:1084E000000000007FE040204020000000007000FD
:1084F0000C000380004000000000402040207FE08E
:1085000000000000000020004000200000000000EB
:1085100000100010001000100010001000000000FB
:1085200040000000000000000000028005400540FF
:1085300003C0004020003FC004400440038000000E
:108540000000038004400440064000000000038057
:10855000044024403FC00040000003800540054027
:1085600003400000000004401FC0244024402000BD
:10857000000002E0055005500650042020403FC096
:108580000440040003C000400000044027C0004035
:108590000000000000100010041027E000000000A0
:1085A00020403FC00140070004C00440204020405C
:1085B0003FC000400040000007C0040007C00400A6
:1085C00003C00000044007C00440040003C0004092
:1085D000000003800440044003800000041007F002
:1085E0000450044003800000000003800440045055
:1085F00007F00010044007C002400400040000001F
:10860000000006400540054004C0000000000400D2
:108610001F80044000400000040007800040044028
:1086200007C000400400070004C0018006000400E9
:10863000060001C0070001C006000000044006C09B
:10864000010006C0044000000410071004E001808F
:10865000060004000000044005C00640044000007D
:108660000000000004007BE040200000000000004B
:108670000000FFF000000000000040207BE004004C
:10868000000000004000800040002000200040006A
:1086900000000000000000000000000000000000DA
:1086A0000000000000001FCC000C000000000000D3
:1086B000000008003000600008003000600000008A
:1086C000022003FC1E20022003FC1E2002200000CA
:1086D00000000E1811043FFF10840C780000000009
:1086E0000F0010840F3800C007781884007800004D
:1086F00000780F8410C411240E9800E40084000850
:108700000800680070000000000000000000000089
:1087100000000000000007E01818200440020000DC
:10872000000040022004181807E0000000000000CC
:108730000240024001800FF0018002400240000030
:108740000080008000800FF8008000800080000022
:108750000001000D000E00000000000000000000FD
:108760000000008000800080008000800080008089
:108770000000000C000C00000000000000000000E1
:1087800000000006001800600180060018002000AC
:10879000000007F0080810041004080807F00000A3
:1087A0000000080408041FFC00040004000000008E
:1087B00000000E0C10141024104411840E0C000044
:1087C00000000C1810041104110412880C70000031
:1087D000000000E00320042408241FFC0024000003
:1087E00000001F98108411041104108810700000FC
:1087F000000007F0088811041104188800700000B8
:1088000000001C00100010FC13001C0010000000F1
:1088100000000E3811441084108411440E380000FA
:1088200000000700088C10441044088807F000007E
:10883000000000000000030C030C0000000000001A
:108840000000000000010106000000000000000020
:1088500000000080014002200410080810040000FD
:10886000022002200220022002200220022000001A
:1088700000001004080804100220014000800000DD
:1088800000000E001200100C106C10800F00000091
:1088900003E00C1813E4142417C4082807D00000C0
:1088A0000004003C03C41C40074000E4001C00041A
:1088B00010041FFC1104110411040E880070000044
:1088C00003E00C1810041004100410081C10000021
:1088D00010041FFC100410041004080807F0000026
:1088E00010041FFC1104110417C410040818000020
:1088F00010041FFC1104110017C010000800000034
:1089000003E00C181004100410441C780040000010
:1089100010041FFC10840080008010841FFC1004D1
:108920000000100410041FFC1004100400000000DC
:1089300000030001100110011FFE100010000000D4
:1089400010041FFC110403801464181C10040000A0
:1089500010041FFC1004000400040004000C0000BC
:1089600010041FFC1F0000FC1F001FFC100400006F
:1089700010041FFC0C04030000E010181FFC100082
:1089800007F00808100410041004080807F000009D
:1089900010041FFC10841080108010800F00000055
:1089A00007F0081810241024101C080A07F2000011
:1089B00010041FFC1104110011C011300E0C000432
:1089C00000000E1C11041084108410441C38000098
:1089D0001800100010041FFC100410001800000004
:1089E00010001FF810040004000410041FF8100009
:1089F00010001E0011E0001C007013801C0010000D
:108A00001FC0103C00E01F0000E0103C1FC0000031
:108A10001004180C163401C001C01634180C1004D0
:108A200010001C00130400FC13041C0010000000C4
:108A30000804101C1064108413041C041018000097
:108A40000000000000007FFE4002400240020000E3
:108A5000000030000C0003800060001C00030000D8
:108A600000004002400240027FFE000000000000C3
:108A700000000000200040004000400020000000F6
:108A800000010001000100010001000100010001DE
:108A90000000400040002000000000000000000036
:108AA00000000098012401440144014400FC00043A
:108AB00010001FFC00880104010400880070000001
:108AC0000000007000880104010401040088000017
:108AD0000000007000880104010411081FFC00045C
:108AE000000000F8014401440144014400C80000B2
:108AF0000000010401040FFC11041104110018000E
:108B0000000000D601290129012901C90106000040
:108B100010041FFC008401000100010400FC00049B
:108B200000000104190419FC000400040000000006
:108B30000000000300010101190119FE00000000FE
:108B400010041FFC0024004001B4010C01040000CB
:108B50000000100410041FFC0004000400000000CA
:108B6000010401FC0104010001FC0104010000FCFE
:108B7000010401FC008401000100010400FC000468
:108B8000000000F8010401040104010400F80000E1
:108B9000010101FF0085010401040088007000004C
:108BA00000000070008801040104010501FF0001BC
:108BB0000104010401FC00840104010001800000A3
:108BC000000000CC012401240124012401980000AC
:108BD00000000100010007F801040104000000008A
:108BE000010001F8000400040004010801FC000475
:108BF000010001800170000C001001600180010083
:108C000001F0010C003001C00030010C01F0010046
:108C100000000104018C00740170018C010400004B
:108C2000010101810171000E001801600180010045
:108C300000000184010C013401440184010C000096
:108C4000000000000000000001003EFC4002400265
:108C50000000000000000000FFFF00000000000016
:108C60000000400240023EFC010000000000000045
:108C700000006000800080004000400020002000D4
:108C800000000000000000000000000000000000E4
:108C900000000000000000000000000000000000D4
:108CA00000000000000000000000000000000000C4
:108CB0000000000F80380FFE380F803800000000E1
:108CC00000000000000000000000000000000100A3
:108CD000000600000C000038000031000006000013
:108CE0000C00003800003000000000000000000010
:108CF00061800067F807F980006180006180006191
:108D0000800061800067F807F98000618000000042
:108D100000000000000001C0E003E0F0063008049D
:108D200018081FFFFE040E080787F00381E000000B
:108D30000000000001F000060C00040408060C709E
:108D400001F9C0000E00003BE000EC180708080421
:108D50000C180003E00000000001E00007F003F839
:108D600018041C0804170807E1D003C0E00023B072
:108D7000003C080020080000100000000000000176
:108D800000003100003200001C0000000000000064
:108D900000000000000000000000000000000000D3
:108DA00000000000000000000000000000000000C3
:108DB0007F0001FFC00780F00C00181000042000A5
:108DC000020000000000002000021000040C001847
:108DD0000780F001FFC0007F0000000000000000DD
:108DE00000000000000000000000000042000066DB
:108DF00000006600003C0000180003FFC0001800DF
:108E0000003C000066000066000042000000000018
:108E1000080000080000080000080000080001FF2A
:108E2000C00008000008000008000008000008005A
:108E300000000000000100003100003200001C00B2
:108E40000000000000000000000000000000000022
:108E500000000000000000000800000800000800FA
:108E600000080000080000080000080000080000DA
:108E700008000008000000000000000000000000E2
:108E8000380000380000380000000000000000003A
:108E900000000000000000000000000000000000D2
:108EA000000600001C000070000180000E00003869
:108EB0000000C0000700001C00003000000000009F
:108EC000000000007F8001FFE003807006001804AE
:108ED000000804000806001803807001FFE0007F0E
:108EE00080000000000000000000010008010008F0
:108EF00001000803FFF807FFF80000080000080061
:108F0000000800000000000000000001C03802C09E
:108F100058040098040118040218040418061C18C8
:108F200003F81801E0F80000000000000000000154
:108F3000C0E003C0F004000804080804080806188C
:108F40000803F41801E7F00001E000000000000051
:108F5000000000000300000D00001100006100008F
:108F6000810803010807FFF80FFFF800010800015E
:108F7000080000000000000000E007FCD006080820
:108F8000061008061008061008061838060FF00626
:108F900007C0000000000000000000003F8001FF4B
:108FA000E0038430020818041008041008041008B4
:108FB000071810030FF00007C000000000000000B9
:108FC000000003C0000700000600000600F80607C6
:108FD000F806180006E00007000006000000000088
:108FE00000000001E1E003F7F00634100418080463
:108FF0001808040C08040C0806161803F3F001C145
:10900000E000000000000000F80003FC3003063818
:109010000402080402080402080404100308F00112
:10902000FFC0007F00000000000000000000000002
:109030000000000000000000703800703800703838
:109040000000000000000000000000000000000020
:10905000000000000000000000000000301A003096
:109060001C000000000000000000000000000000E4
:1090700000000000000000080000140000220000B2
:109080004100008080010040020020040010080020
:109090000800000000000000210000210000210065
:1090A000002100002100002100002100002100001B
:1090B0002100002100000000000000000000080066
:1090C00008040010020020010040008080004100E0
:1090D000002200001400000800000000000000034F
:1090E000C00004C000040000080038080F38080859
:1090F000380810000C300007E00003C0000000003A
:10910000000000003F8000FFE0038070020F1006A7
:10911000708804C088048308047F8802C09003011B
:109120002000FE400000080000180001F8003E0882
:1091300001C20007020007E20000FE00001FC80095
:1091400001F800003800000804000807FFF807FFD6
:10915000F8040808040808040808040808061808A1
:1091600003F41801E7F00001E00000000000000037
:109170003F8001FFE0038070020018040008040033
:10918000080400080400100600200780C00000004A
:1091900004000807FFF807FFF804000804000804AB
:1091A000000804001802001003807001FFE0007F37
:1091B0008000000004000807FFF807FFF804080813
:1091C000040808040808040808043E080400080607
:1091D000001801006000000004000807FFF807FF06
:1091E000F8040808040800040800040800043E000D
:1091F00006000006000001800000000000000000E2
:109200003F8001FFE003807006001804000804029C
:10921000080402080203F00783F0000200000200C5
:1092200004000807FFF807FFF8040808000800001A
:10923000080000080000080004080807FFF807FFFE
:10924000F804000800000000000004000804000802
:1092500004000807FFF807FFF804000804000804EA
:1092600000080000000000000000000000060000F0
:109270000700000104000104000104000307FFFED1
:1092800007FFFC04000004000004000004000807BD
:10929000FFF807FFF8040C08001800003E0004C7A0
:1092A000800503C80600F804003804001800000810
:1092B00004000807FFF807FFF80400080000080092
:1092C0000008000008000008000008000018000066
:1092D0006000000004000807FFF807800807FC0092
:1092E000007FC00003F80007C0007800078008076F
:1092F000FFF807FFF804000804000807FFF807005C
:109300000803C00000E000003800001E0000070055
:109310000001C00400F007FFF80400000000000096
:109320007F8001FFE003807006001804000804003D
:109330000806001803003001FFE0007F80000000F5
:1093400004000807FFF807FFF804040804040004F9
:109350000400040400040400060C0003F80001F0FB
:1093600000000000000000007F8001FFE00380702B
:109370000600880400880400C806003C03003E0183
:10938000FFE6007F8400000004000807FFF807FFE5
:10939000F8040808040800040C00040F00040BC0C3
:1093A0000610F003F03801E008000008000000019A
:1093B000E0F803F030063010041808041808040C14
:1093C00008040C080206180207F00781E0000000FC
:1093D00001800006000004000004000004000807EB
:1093E000FFF807FFF804000804000004000006006E
:1093F0000001800004000007FFE007FFF0040018F0
:109400000000080000080000080000080000080430
:10941000001007FFE004000004000006000007E061
:109420000007FE00041FE00001F80000380001E022
:10943000043E0007C000060000040000040000070E
:10944000E00007FFC0041FF80007C007F80007FF8F
:1094500080043FF80007C004F80007000004000083
:1094600000000004000806001807C07805F1C800D5
:109470003E00001F800463E80780F806001804001F
:109480000800000004000006000007800007E00854
:10949000047C08001FF80007F800180804E008071B
:1094A00000000600000400000000000100080600A3
:1094B000380400F80403E8040F08047C0805F008E9
:1094C00007C008070018040060000000000000004A
:1094D00000000000000000000000003FFFFE200030
:1094E00002200002200002200002200002000000F2
:1094F00000000000000008000007000000C000009D
:1095000038000006000001C000003000000E00001E
:109510000100000000000000000020000220000206
:109520002000022000022000023FFFFE0000000099
:10953000000000000000000000000000000000002B
:109540000008000010000030000020000030000083
:1095500010000008000000000000000000000100F2
:1095600000010000010000010000010000010000F6
:1095700001000001000001000001000001000001E5
:10958000000000000000000000200000200000108B
:1095900000001000000000000000000000000000BB
:1095A000000000000000000000F00019F8001B1887
:1095B000002208002608002408002410003FF800BC
:1095C0001FF800000800001800000004000007FF5A
:1095D000F80FFFF0001818001008002008002008FD
:1095E000003018001FF0000FC00000000000000055
:1095F00007C0001FF00018300020080020080020DD
:1096000008003C08001C1000006000000000000082
:109610000000000007C0001FF000381800200800FC
:10962000200800200804101007FFF80FFFF00000CA
:10963000100000000000000000000007C0001FF044
:109640000012300022180022080022080032080010
:109650001E10000E2000000000000000200000206E
:109660000800200801FFF803FFF80620080420087E
:109670000420080720000300000000000000000094
:10968000000E000E6E001FF30031B10020B100206B
:10969000B1003191001F13002E1E00200E0030007B
:1096A00000000004000807FFF80FFFF80010080092
:1096B0002000002000002008003FF8001FF80000F4
:1096C0000800000000000000000000200800200842
:1096D000002008063FF8063FF800000800000800D8
:1096E0000008000000000000000000000000000072
:1096F00003000003002001002001002003063FFEBC
:10970000063FFC0000000000000000000000000414
:10971000000807FFF80FFFF8000188000300002F82
:10972000C00038F8002038002008000008000000C1
:1097300000000000000004000804000804000807FE
:10974000FFF80FFFF8000008000008000008000004
:1097500000000000002008003FF8003FF80010085B
:10976000002000003FF8003FF80010080020000033
:109770003FF8003FF8000008000000002008003F0C
:10978000F8003FF80010080010000020000020083A
:10979000003FF8001FF80000080000000000000073
:1097A00007C0000FF000183000300800200800202B
:1097B00008003008001830000FF00007C00000005B
:1097C000000000002001003FFF003FFF00101100DB
:1097D0002009002008002008003038001FF0000F8A
:1097E000C00000000000000007C0001FF000381893
:1097F000002008002008002009001011001FFF00B1
:109800003FFF0000010000000020080020080020A9
:1098100008003FF8003FF800080800100800200882
:1098200000200000300000300000000000000000B8
:109830000000000C78001E180033080023080021E7
:10984000080021880021980030F0003860000000F6
:1098500000000000200000200000200000FFF003B6
:10986000FFF8002008002008002008000030000059
:1098700000000000000000002000003FF0007FF822
:10988000000018000008000008002010003FF80049
:109890007FF00000100000000000000020000030F9
:1098A00000003C00003F800023F0000078000070C2
:1098B000002380003C000030000020000020000059
:1098C0003C00003FE00023F80000E0002700003EDD
:1098D00000003FE00021F80001E0003E0000200011
:1098E000000000002008002008003838003E680012
:1098F00027800003C8002CF800383800201800200A
:1099000008000000000000002000003003003C01BF
:10991000003F830023EC000070002380003C000027
:1099200020000020000000000000000000000038BF
:10993000080020380020F80023E8002F88003E08A7
:10994000003808002018000070000000000000002F
:1099500000000000000000000000000008000014EB
:10996000001FF7FC3000062000020000000000008D
:1099700000000000000000000000000000000000E7
:109980000000FFFFFF0000000000000000000000DA
:10999000000000000000000000002000023000066F
:1099A0001FF7FC0014000008000000000000000089
:1099B000000000000000000000000018000060002F
:1099C00000400000400000200000100000080000DF
:1099D0000400000400000C00001000000000000063
:1099E0000000000000000000000000000000000077
:1099F0000000000000000000000000000000000067
:109A00000000000000000000000000000000000056
:109A10000000000000000000000000000000000046
:109A20000000000000000000000000000000000036
:109A30000000000000000000000000000000000026
:109A40000000000000000000000000000000000016
:109A50000000000000000000000000000000000006
:109A600000000000000000000000000000000000F6
:109A70000000000007F000C007FFE1E007F001E090
:109A8000000000C000000000000000000000000016
:109A900000000000000000000000000000000000C6
:109AA00000000000000000000000000000000000B6
:109AB00000000000000000000000000000000000A6
:109AC0000000000000000000000000000000000096
:109AD0000000000000000000000000000000000086
:109AE000000000000020000001C00000078000000E
:109AF0001F0000001E0000001C20000001C000002C
:109B0000078000001F0000001E0000001C00000075
:109B10000000000000000000000000000000000045
:109B20000000000000000000000000000000000035
:109B30000000000000000000000000000000000025
:109B40000000000000000000000000000000000015
:109B50000000000000000000000000000000000005
:109B600000180C0000180C0000180FE0001FFC008B
:109B700003F80C0000180C0000180C0000180C0072
:109B800000180C0000180FE0001FFC0003F80C0088
:109B900000180C0000180C0000000000000000007D
:109BA00000000000000000000000000000000000B5
:109BB00000000000000000000000000000000000A5
:109BC0000000000000000000000000000000000095
:109BD0000000000000000000000000000000000085
:109BE0000000000000000780007807C000FC06406D
:109BF000010E002003070020020380200FFFFFFC5E
:109C00000201C0200200E0600130704001F03F809E
:109C100000F01F0000000000000000000000000035
:109C20000000000000000000000000000000000034
:109C30000000000000000000000000000000000024
:109C40000000000000000000000000000000000014
:109C500000000000000000000000000000FE000006
:109C600001FF00000301800002008060030181C049
:109C700001FF070000FE18000000E0000003BF0025
:109C8000000CFFC00071806001C1002003018060F2
:109C90000000FFC000003F000000000000000000C6
:109CA00000000000000000000000000000000000B4
:109CB00000000000000000000000000000000000A4
:109CC0000000000000000000000000000000000094
:109CD00000000000000000000000000000001F0065
:109CE00000007FC000FCC0C001FF80600303E020D3
:109CF0000202782002061E2003FC074001F00380C8
:109D0000000103C000011C600001E02000010020F0
:109D10000001004000000180000000000000000081
:109D20000000000000000000000000000000000033
:109D30000000000000000000000000000000000023
:109D40000000000000000000000000000000000013
:109D50000000000000000000000000000000000003
:109D6000002000001C6000001C4000001F8000005C
:109D70000F000000000000000000000000000000D4
:109D800000000000000000000000000000000000D3
:109D900000000000000000000000000000000000C3
:109DA00000000000000000000000000000000000B3
:109DB00000000000000000000000000000000000A3
:109DC0000000000000000000000000000000000093
:109DD0000000000000000000000000000000000083
:109DE0000000000000000000000000000000000073
:109DF00000000000000000000007F800003FFF0026
:109E0000007807C001C000E0030000300400000833
:109E10000800000410000002000000000000000024
:109E20000000000000000000000000000000000032
:109E30000000000000000000000000000000000022
:109E40000000000000000000000000000000000012
:109E50000000000000000000000000000000000002
:109E60001000000208000004040000080300003095
:109E700001C000E0007807C0003FFF000007F800C5
:109E800000000000000000000000000000000000D2
:109E900000000000000000000000000000000000C2
:109EA00000000000000000000000000000000000B2
:109EB00000000000000000000000000000000000A2
:109EC0000000000000000000000000000000000092
:109ED0000000000000000000000000000000000082
:109EE00000000000000C1800000E3800000E3800C2
:109EF00000063000000360000061438000FFFF8027
:109F0000006143000003600000063000000E3800CE
:109F1000000E3800000C18000000000000000000D7
:109F20000000000000000000000000000000000031
:109F30000000000000000000000000000000000021
:109F40000000000000000000000000000000000011
:109F50000000000000000000000000000000000001
:109F60000000000000008000000080000000800071
:109F7000000080000000800000008000007FFF00E3
:109F800000008000000080000000800000008000D1
:109F900000008000000080000000000000000000C1
:109FA00000000000000000000000000000000000B1
:109FB00000000000000000000000000000000000A1
:109FC0000000000000000000000000000000000091
:109FD0000000000000000000000000000000000081
:109FE00000000001000000E3000000E2000000FCAF
:109FF00000000078000000000000000000000000E9
:10A000000000000000000000000000000000000050
:10A010000000000000000000000000000000000040
:10A020000000000000000000000000000000000030
:10A030000000000000000000000000000000000020
:10A040000000000000000000000000000000000010
:10A050000000000000000000000000000000000000
:10A0600000008000000080000000800000008000F0
:10A0700000008000000080000000800000008000E0
:10A0800000008000000080000000800000008000D0
:10A0900000008000000080000000000000000000C0
:10A0A00000000000000000000000000000000000B0
:10A0B00000000000000000000000000000000000A0
:10A0C0000000000000000000000000000000000090
:10A0D0000000000000000000000000000000000080
:10A0E00000000000000000C0000001E0000001E0EE
:10A0F000000000C0000000000000000000000000A0
:10A10000000000000000000000000000000000004F
:10A11000000000000000000000000000000000003F
:10A12000000000000000000000000000000000002F
:10A13000000000000000000000000000000000001F
:10A14000000000000000000000000000000000000F
:10A1500000000000000000000000000000000000FF
:10A160000000000C00000038000000E00000038048
:10A1700000000E00000038000000E0000003800036
:10A18000000E00000038000000E000000380000026
:10A190000E00000018000000000000000000000099
:10A1A00000000000000000000000000000000000AF
:10A1B000000000000000000000000000000000009F
:10A1C000000000000000000000000000000000008F
:10A1D000000000000000000000000000000000007F
:10A1E00000000000000FF800007FFF0000F0078073
:10A1F000018000C003000060020000200200002077
:10A200000200002003000060018000C000E0038025
:10A21000007FFF00000FF8000000000000000000B9
:10A22000000000000000000000000000000000002E
:10A23000000000000000000000000000000000001E
:10A24000000000000000000000000000000000000E
:10A2500000000000000000000000000000000000FE
:10A2600000000000000000000080002000800020AE
:10A27000008000200080006001FFFFE003FFFFE09E
:10A28000000000600000002000000020000000200E
:10A2900000000000000000000000000000000000BE
:10A2A00000000000000000000000000000000000AE
:10A2B000000000000000000000000000000000009E
:10A2C000000000000000000000000000000000008E
:10A2D000000000000000000000000000000000007E
:10A2E00000000000007800E00098016001000260BA
:10A2F000020004600200086002001060020020609A
:10A3000002004060030080600183006001FE00E005
:10A31000007C07800000000000000000000000003A
:10A32000000000000000000000000000000000002D
:10A33000000000000000000000000000000000001D
:10A34000000000000000000000000000000000000D
:10A3500000000000000000000000000000000000FD
:10A360000000000000F0078001F007C0010000407D
:10A370000200002002010020020100200201002052
:10A38000030380200186804001FCC0C000787F80EC
:10A3900000001E000000000000000000000000009F
:10A3A00000000000000000000000000000000000AD
:10A3B000000000000000000000000000000000009D
:10A3C000000000000000000000000000000000008D
:10A3D000000000000000000000000000000000007D
:10A3E000000008000000380000004800000188005C
:10A3F00000060800000C081000300810004008108B
:10A4000001FFFFF003FFFFF003FFFFF00000081063
:10A41000000008100000081000000000000000000C
:10A42000000000000000000000000000000000002C
:10A43000000000000000000000000000000000001C
:10A44000000000000000000000000000000000000C
:10A4500000000000000000000000000000000000FC
:10A460000000000000000780001F864003E100207C
:10A470000302002003040020030400200304002042
:10A480000304002003060040030301C00301FF8012
:10A4900003007E000000000000000000000000003B
:10A4A00000000000000000000000000000000000AC
:10A4B000000000000000000000000000000000009C
:10A4C000000000000000000000000000000000008C
:10A4D000000000000000000000000000000000007C
:10A4E000000000000007FC00003FFF000070C38078
:10A4F000008180C0010100600302002002020020F0
:10A5000002020020020200200203004001C180C0BC
:10A5100000C0FF8000007E0000000000000000007E
:10A52000000000000000000000000000000000002B
:10A53000000000000000000000000000000000001B
:10A54000000000000000000000000000000000000B
:10A5500000000000000000000000000000000000FB
:10A560000000000000F0000003C0000003800000B5
:10A5700003000000030007E003003FE00301C00008
:10A5800003060000031800000360000003800000C1
:10A5900003000000000000000000000000000000B8
:10A5A00000000000000000000000000000000000AB
:10A5B000000000000000000000000000000000009B
:10A5C000000000000000000000000000000000008B
:10A5D000000000000000000000000000000000007B
:10A5E00000001F0000783F8000FC60C0018EC0406A
:10A5F0000307802002030020020180200201802046
:10A600000201C0200301E040018670C000FC3F80D1
:10A6100000781F00000000000000000000000000A3
:10A62000000000000000000000000000000000002A
:10A63000000000000000000000000000000000001A
:10A64000000000000000000000000000000000000A
:10A6500000000000000000000000000000000000FA
:10A66000003F000000FF81C001C0C1C001006020A8
:10A670000200202002002020020020200200206092
:10A68000020040C00100C18000C18F00007FFE00B9
:10A69000001FF000000000000000000000000000AB
:10A6A00000000000000000000000000000000000AA
:10A6B000000000000000000000000000000000009A
:10A6C000000000000000000000000000000000008A
:10A6D000000000000000000000000000000000007A
:10A6E000000000000000000000000000000000006A
:10A6F00000000000000300C0000781E0000781E0C7
:10A70000000300C000000000000000000000000086
:10A710000000000000000000000000000000000039
:10A720000000000000000000000000000000000029
:10A730000000000000000000000000000000000019
:10A740000000000000000000000000000000000009
:10A7500000000000000000000000000000000000F9
:10A7600000000000000000000000000000000000E9
:10A7700000000000000600660006007800000000EF
:10A7800000000000000000000000000000000000C9
:10A7900000000000000000000000000000000000B9
:10A7A00000000000000000000000000000000000A9
:10A7B0000000000000000000000000000000000099
:10A7C0000000000000000000000000000000000089
:10A7D0000000000000000000000000000000000079
:10A7E00000000000000080000001C00000036000C5
:10A7F00000063000000C180000180C0000300600A5
:10A800000060030000C00180010000400200002041
:10A810000400001000000000000000000000000024
:10A820000000000000000000000000000000000028
:10A830000000000000000000000000000000000018
:10A840000000000000000000000000000000000008
:10A8500000000000000000000000000000000000F8
:10A860000004100000041000000410000004100098
:10A870000004100000041000000410000004100088
:10A880000004100000041000000410000004100078
:10A890000004100000041000000000000000000090
:10A8A00000000000000000000000000000000000A8
:10A8B0000000000000000000000000000000000098
:10A8C0000000000000000000000000000000000088
:10A8D0000000000000000000000000000000000078
:10A8E00000000000040000100200002001000040F1
:10A8F00000C00180006003000030060000180C005A
:10A90000000C180000063000000360000001C000C9
:10A9100000008000000000000000000000000000B7
:10A920000000000000000000000000000000000027
:10A930000000000000000000000000000000000017
:10A940000000000000000000000000000000000007
:10A9500000000000000000000000000000000000F7
:10A96000000000000078000001F80000023800003C
:10A9700002000000040000C0040079E0040081E04F
:10A98000040100C0040300000202000003060000EE
:10A9900001FC000000F800000000000000000000C2
:10A9A00000000000000000000000000000000000A7
:10A9B0000000000000000000000000000000000097
:10A9C0000000000000000000000000000000000087
:10A9D0000000000000000000000000000000000077
:10A9E000000FF800003FFE000070078000C000C0AC
:10A9F0000101F8400307FC20021E04200230082059
:10AA000002203020023FFC20013F044001800CC0A6
:10AA100000E03180001FC2000000000000000000C4
:10AA20000000000000000000000000000000000026
:10AA30000000000000000000000000000000000016
:10AA40000000000000000000000000000000000006
:10AA500000000000000000000000000000000020D6
:10AA600000000060000003E000003E200003E02042
:10AA7000003E200003E020000380200007FC2000AF
:10AA8000003FE0000003FE2000003FE0000001E086
:10AA90000000002000000020000000000000000076
:10AAA00000000000000000000000000000000000A6
:10AAB0000000000000000000000000000000000096
:10AAC0000000000000000000000000000000000086
:10AAD0000000000000000000000000000000000076
:10AAE000020000200200002003FFFFE003FFFFE060
:10AAF00002010020020100200201002002010020CA
:10AB000002010020030300200186806001FCC0C018
:10AB100000F87F8000001F0000000000000000001F
:10AB20000000000000000000000000000000000025
:10AB30000000000000000000000000000000000015
:10AB40000000000000000000000000000000000005
:10AB500000000000000000000000000000000000F5
:10AB60000007F800003FFF000070078000C000C031
:10AB7000010000400300002002000020020000202D
:10AB8000020000200200002001000040018000C0FF
:10AB900003C001800030060000000000000000003B
:10ABA00000000000000000000000000000000000A5
:10ABB0000000000000000000000000000000000095
:10ABC0000000000000000000000000000000000085
:10ABD0000000000000000000000000000000000075
:10ABE000020000200200002003FFFFE003FFFFE05F
:10ABF00002000020020000200200002002000020CD
:10AC00000300006001000040018000C000F00780E8
:10AC1000007FFE00000FF8000000000000000000B0
:10AC20000000000000000000000000000000000024
:10AC30000000000000000000000000000000000014
:10AC40000000000000000000000000000000000004
:10AC500000000000000000000000000000000000F4
:10AC6000020000200200002003FFFFE003FFFFE0DE
:10AC70000201002002010020020100200201002048
:10AC80000201002002038020020FE0200300006088
:10AC900003C000E0006003000000000000000000AE
:10ACA00000000000000000000000000000000000A4
:10ACB0000000000000000000000000000000000094
:10ACC0000000000000000000000000000000000084
:10ACD0000000000000000000000000000000000074
:10ACE000020000200200002003FFFFE003FFFFE05E
:10ACF0000201002002010020020100000201000008
:10AD0000020100000201000002038000030FE000C6
:10AD10000300000003C0000000600000000000000D
:10AD20000000000000000000000000000000000023
:10AD30000000000000000000000000000000000013
:10AD40000000000000000000000000000000000003
:10AD500000000000000000000000000000000000F3
:10AD60000007F800003FFE000070078001C001C02E
:10AD7000010000400300002002000020020000202B
:10AD800002000020010020200100204003C03F807D
:10AD900000303F8000002000000020000000000084
:10ADA00000000000000000000000000000000000A3
:10ADB0000000000000000000000000000000000093
:10ADC0000000000000000000000000000000000083
:10ADD0000000000000000000000000000200002051
:10ADE0000200002003FFFFE003FFFFE002008020DD
:10ADF0000200802000008000000080000000800031
:10AE0000020080200200802003FFFFE003FFFFE03C
:10AE100002000020020000200000000000000000EE
:10AE20000000000000000000000000000000000022
:10AE30000000000000000000000000000000000012
:10AE40000000000000000000000000000000000002
:10AE500000000000000000000000000000000000F2
:10AE6000000000000000000002000020020000209E
:10AE7000020000200200002003FFFFE003FFFFE0CC
:10AE8000020000200200002002000020020000203A
:10AE900000000000000000000000000000000000B2
:10AEA00000000000000000000000000000000000A2
:10AEB0000000000000000000000000000000000092
:10AEC0000000000000000000000000000000000082
:10AED0000000000000000000000000000000000072
:10AEE0000000000E0000000F0000000F0000000135
:10AEF000020000010200000102000003020000063F
:10AF000003FFFFFC03FFFFF8020000000200000047
:10AF1000020000000200000000000000000000002D
:10AF20000000000000000000000000000000000021
:10AF30000000000000000000000000000000000011
:10AF40000000000000000000000000000000000001
:10AF500000000000000000000000000000000000F1
:10AF6000020000200200002003FFFFE003FFFFE0DB
:10AF70000200C0200201002000078000000FE00056
:10AF80000030F80002603E2003800F20030003E041
:10AF9000020000E00200002000000020000000008D
:10AFA00000000000000000000000000000000000A1
:10AFB0000000000000000000000000000000000091
:10AFC0000000000000000000000000000000000081
:10AFD0000000000000000000000000000000000071
:10AFE000020000200200002003FFFFE003FFFFE05B
:10AFF00002000020020000200000002000000020CD
:10B000000000002000000020000000200000006080
:10B01000000000E00000030000000000000000004D
:10B020000000000000000000000000000000000020
:10B030000000000000000000000000000000000010
:10B040000000000000000000000000000000000000
:10B0500000000000000000000000000002000020CE
:10B060000200002003FFFFE003E0002003FF0020B8
:10B07000001FF0000001FF8000000FE000001E0034
:10B080000003E000003E002003E0002003FFFFE09B
:10B0900003FFFFE00200002002000020000000008B
:10B0A00000000000000000000000000000000000A0
:10B0B0000000000000000000000000000000000090
:10B0C0000000000000000000000000000000000080
:10B0D000000000000000000000000000020000204E
:10B0E0000200002003FFFFE00380002003F00020A7
:10B0F00000FC0000001F00000007C0000001F0007D
:10B1000000007C0002001F80020007E003FFFFE058
:10B11000020000000200000000000000000000002B
:10B12000000000000000000000000000000000001F
:10B13000000000000000000000000000000000000F
:10B1400000000000000000000000000000000000FF
:10B1500000000000000000000000000000000000EF
:10B16000000FF800003FFE0000F00780018000C0E3
:10B170000100004002000020020000200200002028
:10B180000200002001000040018000C000F00380A8
:10B19000003FFE00000FF80000000000000000006B
:10B1A000000000000000000000000000000000009F
:10B1B000000000000000000000000000000000008F
:10B1C000000000000000000000000000000000007F
:10B1D000000000000000000000000000000000006F
:10B1E000020000200200002003FFFFE003FFFFE059
:10B1F0000200802002008020020080000200800007
:10B200000200800002008000030180000183000032
:10B2100000FE0000007C00000000000000000000B4
:10B22000000000000000000000000000000000001E
:10B23000000000000000000000000000000000000E
:10B2400000000000000000000000000000000000FE
:10B2500000000000000000000000000000000000EE
:10B26000000FF800007FFF0000F00380018001C0A4
:10B270000100064002000420020004200200062013
:10B28000020003E0010000F80180005C00E0038C94
:10B29000003FFF0C000FFC18000000000000000041
:10B2A000000000000000000000000000000000009E
:10B2B000000000000000000000000000000000008E
:10B2C000000000000000000000000000000000007E
:10B2D000000000000000000000000000000000006E
:10B2E000020000200200002003FFFFE003FFFFE058
:10B2F0000201002002010020020180000201E000A2
:10B300000201FC0003033F80018607E001FC00E02E
:10B3100000F80020000000200000000000000000F5
:10B32000000000000000000000000000000000001D
:10B33000000000000000000000000000000000000D
:10B3400000000000000000000000000000000000FD
:10B3500000000000000000000000000000000000ED
:10B36000000000000078060000FE01E0018600C039
:10B37000030300400203002002018020020180201C
:10B380000201C0200200C0200100E060018070C006
:10B3900003E03F8000001F000000000000000000EC
:10B3A000000000000000000000000000000000009D
:10B3B000000000000000000000000000000000008D
:10B3C000000000000000000000000000000000007D
:10B3D000000000000000000000000000000000006D
:10B3E0000060000003800000030000000200000075
:10B3F000020000200200002003FFFFE003FFFFE047
:10B4000002000020020000200200000002000000F4
:10B410000380000000E000000000000000000000C9
:10B42000000000000000000000000000000000001C
:10B43000000000000000000000000000000000000C
:10B4400000000000000000000000000000000000FC
:10B4500000000000000000000000000002000000EA
:10B460000200000003FFFF0003FFFFC002000040D6
:10B47000020000600000002000000020000000200A
:10B4800000000020020000400200008003FFFF00D7
:10B4900002000000020000000000000000000000A8
:10B4A000000000000000000000000000000000009C
:10B4B000000000000000000000000000000000008C
:10B4C000000000000000000000000000000000007C
:10B4D000000000000000000000000000000000006C
:10B4E000020000000200000003C0000003FC000096
:10B4F000023FC0000003F80000007F80000007E06A
:10B5000000000780000078000203C000023C000039
:10B5100003C0000002000000020000000000000064
:10B52000000000000000000000000000000000001B
:10B53000000000000000000000000000000000000B
:10B5400000000000000000000000000000000000FB
:10B5500000000000000000000000000002000000E9
:10B5600003C0000003FF8000023FFE0002007FE0F6
:10B5700000000F000200F00003EF000003FF800056
:10B58000020FFE0000003FE000001F000207E00085
:10B5900003F80000030000000200000000000000AB
:10B5A000000000000000000000000000000000009B
:10B5B000000000000000000000000000000000008B
:10B5C000000000000000000000000000000000007B
:10B5D000000000000000000000000000000000006B
:10B5E0000200002002000020038000E003F003209E
:10B5F00002FC0C20021F30000007C0000007F00012
:10B6000002187C0002601F20038003E0020000E0BB
:10B6100002000020000000200000000000000000E8
:10B62000000000000000000000000000000000001A
:10B63000000000000000000000000000000000000A
:10B6400000000000000000000000000000000000FA
:10B6500000000000000000000000000000000000EA
:10B66000020000000300000003C0000003F8000017
:10B67000023E0020020FC0200001FFE000007FE03A
:10B6800000038020021C00200270000003800000E4
:10B6900002000000020000000000000000000000A6
:10B6A000000000000000000000000000000000009A
:10B6B000000000000000000000000000000000008A
:10B6C000000000000000000000000000000000007A
:10B6D000000000000000000000000000000000006A
:10B6E00000000020006000E0038003E003000FA0E2
:10B6F00002003E200200F8200203E020020F80201A
:10B70000023E00200278002003E00060038000E099
:10B710000200030000000000000000000000000024
:10B720000000000000000000000000000000000019
:10B730000000000000000000000000000000000009
:10B7400000000000000000000000000000000000F9
:10B7500000000000000000000000000000000000E9
:10B7600000000000000000000000000000000000D9
:10B77000000000001FFFFFFC100000041000000488
:10B780001000000410000004100000041000000469
:10B790001000000400000000000000000000000095
:10B7A0000000000000000000000000000000000099
:10B7B0000000000000000000000000000000000089
:10B7C0000000000000000000000000000000000079
:10B7D0000000000000000000000000000000000069
:10B7E00000000000000000000700000003C000008F
:10B7F00000780000001E00000003C0000000F00000
:10B8000000001E0000000780000000F00000003C67
:10B810000000000600000000000000000000000022
:10B820000000000000000000000000000000000018
:10B830000000000000000000000000000000000008
:10B8400000000000000000000000000000000000F8
:10B8500000000000000000000000000000000000E8
:10B86000000000001000000410000004100000049C
:10B870001000000410000004100000041000000478
:10B880001FFFFFFC0000000000000000000000009F
:10B8900000000000000000000000000000000000A8
:10B8A0000000000000000000000000000000000098
:10B8B0000000000000000000000000000000000088
:10B8C0000000000000000000000000000000000078
:10B8D0000000000000000000000000000000000068
:10B8E0000000000000000000000000000200000056
:10B8F0000400000008000000180000001000000014
:10B900001800000018000000040000000200000001
:10B910000000000000000000000000000000000027
:10B920000000000000000000000000000000000017
:10B930000000000000000000000000000000000007
:10B9400000000000000000000000000000000000F7
:10B9500000000000000000000000000000000001E6
:10B9600000000001000000010000000100000001D3
:10B9700000000001000000010000000100000001C3
:10B9800000000001000000010000000100000001B3
:10B9900000000001000000010000000100000000A4
:10B9A0000000000000000000000000000000000097
:10B9B0000000000000000000000000000000000087
:10B9C0000000000000000000000000000000000077
:10B9D0000000000000000000000000000000000067
:10B9E0000000000000000000100000001000000037
:10B9F0001000000018000000080000000400000013
:10BA00000000000000000000000000000000000036
:10BA10000000000000000000000000000000000026
:10BA20000000000000000000000000000000000016
:10BA30000000000000000000000000000000000006
:10BA400000000000000000000000000000000000F6
:10BA500000000000000000000000000000000000E6
:10BA60000000038000018FC000038C6000061820D6
:10BA700000041020000410200004202000042040B6
:10BA8000000620400003FFC00001FFE0000000208E
:10BA900000000020000000C00000000000000000C6
:10BAA0000000000000000000000000000000000096
:10BAB0000000000000000000000000000000000086
:10BAC0000000000000000000000000000000000076
:10BAD0000000000000000000000000000000000066
:10BAE000020000000200000003FFFFE007FFFFC0AC
:10BAF000000180C00002006000020020000400205D
:10BB0000000400200004002000060040000300C0E4
:10BB10000001FF800000FE000000000000000000A7
:10BB20000000000000000000000000000000000015
:10BB30000000000000000000000000000000000005
:10BB400000000000000000000000000000000000F5
:10BB500000000000000000000000000000000000E5
:10BB60000000000000007E000001FF80000381C093
:10BB70000002004000060020000400200004002015
:10BB800000040020000600200003C0400001C08027
:10BB900000000300000000000000000000000000A2
:10BBA0000000000000000000000000000000000095
:10BBB0000000000000000000000000000000000085
:10BBC0000000000000000000000000000000000075
:10BBD0000000000000000000000000000000000065
:10BBE0000000000000007E000001FF80000380C014
:10BBF0000006006000040020000400200004002073
:10BC0000020400400202008003FFFFE007FFFFC0C4
:10BC100000000040000000400000000000000000A4
:10BC20000000000000000000000000000000000014
:10BC30000000000000000000000000000000000004
:10BC400000000000000000000000000000000000F4
:10BC500000000000000000000000000000000000E4
:10BC60000000000000007E000001FF80000311C002
:10BC70000002104000041060000410200004102096
:10BC80000004102000061020000310400001F0C046
:10BC90000000710000000000000000000000000033
:10BCA0000000000000000000000000000000000094
:10BCB0000000000000000000000000000000000084
:10BCC0000000000000000000000000000000000074
:10BCD0000000000000000000000000000000000064
:10BCE0000000000000040000000400200004002008
:10BCF00000040020007FFFE001FFFFE001040020BE
:10BD000003040020020400200204002002040000BA
:10BD10000200000001C0000001C00000000000009F
:10BD20000000000000000000000000000000000013
:10BD30000000000000000000000000000000000003
:10BD400000000000000000000000000000000000F3
:10BD500000000000000000000000000000000000E3
:10BD6000000000000000001C0000E33E0003FFC2D2
:10BD700000020CC3000404C1000404C1000404C197
:10BD8000000404C100060CC10003F8C30005F06202
:10BD90000006007E0006003C0000000000000000DD
:10BDA0000000000000000000000000000000000093
:10BDB0000000000000000000000000000000000083
:10BDC0000000000000000000000000000000000073
:10BDD0000000000000000000000000000000000063
:10BDE000020000200200002003FFFFE007FFFFE049
:10BDF00000010020000200200006000000040000F6
:10BE00000004000000040020000600200003FFE002
:10BE10000001FFE000000020000000200000000002
:10BE20000000000000000000000000000000000012
:10BE30000000000000000000000000000000000002
:10BE400000000000000000000000000000000000F2
:10BE500000000000000000000000000000000000E2
:10BE6000000000000000000000040020000400208A
:10BE700000040020000400200387FFE0038FFFE0A0
:10BE800003800020000000200000002000000020AF
:10BE900000000000000000000000000000000000A2
:10BEA0000000000000000000000000000000000092
:10BEB0000000000000000000000000000000000082
:10BEC0000000000000000000000000000000000072
:10BED0000000000000000000000000000000000062
:10BEE0000000000000000000000000060000000745
:10BEF0000000000100000001000400010004000136
:10BF000000040003000400060387FFFC038FFFF812
:10BF1000038000000000000000000000000000009E
:10BF20000000000000000000000000000000000011
:10BF30000000000000000000000000000000000001
:10BF400000000000000000000000000000000000F1
:10BF500000000000000000000000000000000000E1
:10BF6000020000200200002003FFFFE007FFFFE0C7
:10BF70000000082000001020000030000000FC003D
:10BF800000058E00000707A0000601E0000400E0A5
:10BF9000000400200000002000000000000000005D
:10BFA0000000000000000000000000000000000091
:10BFB0000000000000000000000000000000000081
:10BFC0000000000000000000000000000000000071
:10BFD0000000000000000000000000000000000061
:10BFE000000000000000000002000020020000200D
:10BFF000020000200200002003FFFFE007FFFFE037
:10C0000000000020000000200000002000000020B0
:10C010000000000000000000000000000000000020
:10C020000000000000000000000000000000000010
:10C030000000000000000000000000000000000000
:10C0400000000000000000000000000000000000F0
:10C0500000000000000000000000000000000000E0
:10C06000000400200007FFE0000FFFE000020020B6
:10C0700000040000000400200007FFE00003FFE0D0
:10C080000002002000040000000400200007FFE080
:10C090000003FFE00000002000000000000000009E
:10C0A0000000000000000000000000000000000090
:10C0B0000000000000000000000000000000000080
:10C0C0000000000000000000000000000000000070
:10C0D0000000000000000000000000000000000060
:10C0E00000040020000400200007FFE0000FFFE034
:10C0F00000010020000200200002000000040000F7
:10C100000004000000040020000600200003FFE0FF
:10C110000001FFE0000000200000002000000000FF
:10C12000000000000000000000000000000000000F
:10C1300000000000000000000000000000000000FF
:10C1400000000000000000000000000000000000EF
:10C1500000000000000000000000000000000000DF
:10C160000000000000007E000000FF80000381C08E
:10C17000000200400006002000040020000400200F
:10C18000000400200006002000020040000381C0DF
:10C190000001FF8000007E000000000000000000A1
:10C1A000000000000000000000000000000000008F
:10C1B000000000000000000000000000000000007F
:10C1C000000000000000000000000000000000006F
:10C1D000000000000000000000000000000000005F
:10C1E00000040001000400010007FFFF000FFFFF33
:10C1F000000100C1000200410004002000040020F2
:10C20000000400200004002000060040000301C0DC
:10C210000001FF8000007E00000000000000000020
:10C22000000000000000000000000000000000000E
:10C2300000000000000000000000000000000000FE
:10C2400000000000000000000000000000000000EE
:10C2500000000000000000000000000000000000DE
:10C260000000000000007E000001FF80000380C08D
:10C2700000020060000400200004002000040020F0
:10C280000004002000020041000300C10003FFFF82
:10C290000007FFFF00000001000000010000000097
:10C2A000000000000000000000000000000000008E
:10C2B000000000000000000000000000000000007E
:10C2C000000000000000000000000000000000006E
:10C2D000000000000000000000000000000000005E
:10C2E00000040020000400200004002000040020BE
:10C2F000000FFFE0000FFFE00000C0200001002061
:10C3000000020020000600200004000000040000DD
:10C310000007000000030000000000000000000013
:10C32000000000000000000000000000000000000D
:10C3300000000000000000000000000000000000FD
:10C3400000000000000000000000000000000000ED
:10C3500000000000000000000000000000000000DD
:10C3600000000000000003E00001C0E00003E04026
:10C37000000630200004302000041820000418209B
:10C380000004182000040C2000020C60000307C009
:10C390000007838000000000000000000000000093
:10C3A000000000000000000000000000000000008D
:10C3B000000000000000000000000000000000007D
:10C3C000000000000000000000000000000000006D
:10C3D000000000000000000000000000000000005D
:10C3E0000000000000040000000400000004000041
:10C3F000000C0000001FFF8000FFFFC00004006071
:10C40000000400200004002000040020000400407C
:10C41000000001800000000000000000000000009B
:10C42000000000000000000000000000000000000C
:10C4300000000000000000000000000000000000FC
:10C4400000000000000000000000000000000000EC
:10C4500000000000000000000000000000000000DC
:10C4600000040000000400000007FF80000FFFC070
:10C4700000000060000000200000002000000020FC
:10C480000000002000040040000400800007FFE0DE
:10C49000000FFFC00000004000000040000000004E
:10C4A000000000000000000000000000000000008C
:10C4B000000000000000000000000000000000007C
:10C4C000000000000000000000000000000000006C
:10C4D000000000000000000000000000000000005C
:10C4E0000004000000040000000780000007F000C6
:10C4F0000004FE0000041FC0000003E000000380F1
:10C5000000001C000004600000078000000600001E
:10C510000004000000000000000000000000000017
:10C52000000000000000000000000000000000000B
:10C5300000000000000000000000000000000000FB
:10C5400000000000000000000000000000000000EB
:10C5500000000000000000000000000000040000D7
:10C56000000600000007C0000007FC0000043F8038
:10C57000000003E000040F800006F0000007F00058
:10C580000007FF8000040FE00000038000043C006F
:10C590000007C000000600000004000000000000CA
:10C5A000000000000000000000000000000000008B
:10C5B000000000000000000000000000000000007B
:10C5C000000000000000000000000000000000006B
:10C5D000000000000000000000000000000000005B
:10C5E000000000200004002000040060000700E0BC
:10C5F000000783200007E6000004F80000003C006C
:10C6000000045E20000587A0000601E00004006031
:10C6100000040020000000200000000000000000D6
:10C62000000000000000000000000000000000000A
:10C6300000000000000000000000000000000000FA
:10C6400000000000000000000000000000000000EA
:10C6500000000000000000000000000000000000DA
:10C660000004000000040003000700030007E001CD
:10C670000004F80100041F02000007FC000000E0B5
:10C6800000000700000438000007C000000600009A
:10C690000004000000040000000000000000000092
:10C6A000000000000000000000000000000000008A
:10C6B000000000000000000000000000000000007A
:10C6C000000000000000000000000000000000006A
:10C6D000000000000000000000000000000000005A
:10C6E0000000000000078060000600E0000403E096
:10C6F000000407A000040E2000043C200004702069
:10C700000005E0200007802000070060000400E032
:10C710000000038000000000000000000000000096
:10C720000000000000000000000000000000000009
:10C7300000000000000000000000000000000000F9
:10C7400000000000000000000000000000000000E9
:10C7500000000000000000000000000000000000D9
:10C7600000000000000000000000000000000000C9
:10C7700000000000000000000000800000008000B9
:10C780000001400007FE3FF808000004100000020E
:10C790001000000200000000000000000000000087
:10C7A0000000000000000000000000000000000089
:10C7B0000000000000000000000000000000000079
:10C7C0000000000000000000000000000000000069
:10C7D0000000000000000000000000000000000059
:10C7E0000000000000000000000000000000000049
:10C7F000000000000000000000000000FFFFFFFF3D
:10C800000000000000000000000000000000000028
:10C810000000000000000000000000000000000018
:10C820000000000000000000000000000000000008
:10C8300000000000000000000000000000000000F8
:10C8400000000000000000000000000000000000E8
:10C8500000000000000000000000000000000000D8
:10C860000000000010000002100000020800000498
:10C8700007FE3FF80001400000008000000080003B
:10C8800000000000000000000000000000000000A8
:10C890000000000000000000000000000000000098
:10C8A0000000000000000000000000000000000088
:10C8B0000000000000000000000000000000000078
:10C8C0000000000000000000000000000000000068
:10C8D0000000000000000000000000000000000058
:10C8E0001800000030000000400000004000000080
:10C8F00040000000200000003000000008000000A0
:10C90000040000000200000002000000020000001D
:10C910000C000000180000000000000000000000F3
:10C920000000000000000000000000000000000007
:10C9300000000000000000000000000000000000F7
:10C9400000000000000000000000000000000000E7
:10C950000000000000000000000000003031323311
:10C960003435363738394142434445464030580023
:10C970003031323334353637383961626364656655
:10C9800040307800040000080000000000000002B1
:10C990000001000010000000000000000000000086
:10C9A0003031323334353637383961626364656625
:10C9B00078700030313233343536373839414243BC
:10C9C000444546585000000002400000000000A00E
:10C9D0000000000005400000000000C8000000004A
:10C9E0000C4000000000409C0000000019400000C6
:10C9F0000020BCBE0000000034400000BFC91B8EF8
:10CA000000000004B5400000504BCFD06607E2CFD5
:10CA1000010000006C4100003E8251AADFEEA73405
:10CA200001000000D9420000DCB5A0E23A301F97B7
:10CA3000FFFFFFFFB4450000FD25A0C8E9A3C14FDB
:10CA4000FFFFFFFFFF3F000000000080000000002C
:10CA5000FF3F0000000000800000000035633061EF
:10CA600036353663373638343533663836373361E2
:10CA700035653038353038353630613835393764DA
:10CA800066663063376563663638633036643462B1
:10CA90003630613839613765396137363736383481
:10CAA000386636363732346335336637346533614A
:10CAB00030303261303032613030326130303261AA
:10CAC000303032613030326137363834386636369D
:10CAD00038663836363730393930353737353539C5
:10CAE0003562363937616535666630633862663778
:10CAF0003638333836376535333030320000000091
:10CB00003563306136353663373638343533663819
:10CB10003637336135653038353038353630613841
:10CB20003539376466663063376563663638633037
:10CB30003664346236306138396137653961373689
:10CB400037363834386636363732346335336637FD
:10CB500034653361303032613030326130303261CF
:10CB60003030326130303261303032613736383413
:10CB7000386636363866383666663063356239650B
:10CB80003936343534656261363537303864383596
:10CB900035316661363833383866376434656261FA
:10CBA0003635373066663063386266373937363047
:10CBB00038666239353035633866363666663063D6
:10CBC000386664623838346336383338363765351A
:10CBD0003330303200000000356330613635366363
:10CBE000373638343762613137343036353435389A
:10CBF000666630633630613835393764666630636F
:10CC00003765636636386330366434623866363684
:10CC100037323463353366373465336130303261EF
:10CC20003030326130303261303032613030326138
:10CC30003030326166663063396137653961373665
:10CC400035343538346533613030326130303261FB
:10CC500030303261373638343866363638663836F2
:10CC60003230316336373039393035373735353949
:10CC70003562363937616535323031646666306326
:10CC80003862663738303534376366623533663834
:10CC9000363733613565303835303835386664625B
:10CCA000346530303662363536383338356239657A
:10CCB0003330303200000000356330613635366382
:10CCC00037363834376261313734303635343538B9
:10CCD000666630633630613835393764666630638E
:10CCE00037656366363863303664346238663636A4
:10CCF000373234633533663734653361303032610F
:10CD00003030326130303261303032613030326157
:10CD10003030326166663063396137653961373684
:10CD2000353435383465336130303261303032611A
:10CD30003030326137363834386636363866383611
:10CD400032303163386438353866376432303164B4
:10CD5000666630633862663738303534376366620A
:10CD600035336638363733613565303835303835E8
:10CD7000386664623465303036623635363833387A
:0CCD8000356239653330303200000000AD
:040000050800029954
:00000001FF
