Component: ARM Compiler 5.06 update 6 (build 750) Tool: armlink [4d35ed]

==============================================================================

Section Cross References

    stm32f10x_it.o(i.ADC1_2_IRQHandler) refers to stm32f10x_adc.o(i.ADC_GetConversionValue) for ADC_GetConversionValue
    stm32f10x_it.o(i.ADC1_2_IRQHandler) refers to stm32f10x_it.o(.data) for ADC2ConvertedValue
    system_stm32f10x.o(i.SetSysClock) refers to system_stm32f10x.o(i.SetSysClockTo72) for SetSysClockTo72
    system_stm32f10x.o(i.SystemCoreClockUpdate) refers to system_stm32f10x.o(.data) for SystemCoreClock
    system_stm32f10x.o(i.SystemInit) refers to system_stm32f10x.o(i.SetSysClock) for SetSysClock
    stm32f10x_adc.o(i.ADC_DeInit) refers to stm32f10x_rcc.o(i.RCC_APB2PeriphResetCmd) for RCC_APB2PeriphResetCmd
    stm32f10x_bkp.o(i.BKP_DeInit) refers to stm32f10x_rcc.o(i.RCC_BackupResetCmd) for RCC_BackupResetCmd
    stm32f10x_can.o(i.CAN_DeInit) refers to stm32f10x_rcc.o(i.RCC_APB1PeriphResetCmd) for RCC_APB1PeriphResetCmd
    stm32f10x_can.o(i.CAN_GetITStatus) refers to stm32f10x_can.o(i.CheckITStatus) for CheckITStatus
    stm32f10x_cec.o(i.CEC_DeInit) refers to stm32f10x_rcc.o(i.RCC_APB1PeriphResetCmd) for RCC_APB1PeriphResetCmd
    stm32f10x_dac.o(i.DAC_DeInit) refers to stm32f10x_rcc.o(i.RCC_APB1PeriphResetCmd) for RCC_APB1PeriphResetCmd
    stm32f10x_flash.o(i.FLASH_EnableWriteProtection) refers to stm32f10x_flash.o(i.FLASH_WaitForLastOperation) for FLASH_WaitForLastOperation
    stm32f10x_flash.o(i.FLASH_EraseAllBank1Pages) refers to stm32f10x_flash.o(i.FLASH_WaitForLastBank1Operation) for FLASH_WaitForLastBank1Operation
    stm32f10x_flash.o(i.FLASH_EraseAllPages) refers to stm32f10x_flash.o(i.FLASH_WaitForLastOperation) for FLASH_WaitForLastOperation
    stm32f10x_flash.o(i.FLASH_EraseOptionBytes) refers to stm32f10x_flash.o(i.FLASH_GetReadOutProtectionStatus) for FLASH_GetReadOutProtectionStatus
    stm32f10x_flash.o(i.FLASH_EraseOptionBytes) refers to stm32f10x_flash.o(i.FLASH_WaitForLastOperation) for FLASH_WaitForLastOperation
    stm32f10x_flash.o(i.FLASH_ErasePage) refers to stm32f10x_flash.o(i.FLASH_WaitForLastOperation) for FLASH_WaitForLastOperation
    stm32f10x_flash.o(i.FLASH_ProgramHalfWord) refers to stm32f10x_flash.o(i.FLASH_WaitForLastOperation) for FLASH_WaitForLastOperation
==============================================================================

Removing Unused input sections from the image.

    Removing core_cm3.o(.emb_text), (32 bytes).
    Removing misc.o(i.NVIC_SetVectorTable), (20 bytes).
    Removing misc.o(i.NVIC_SystemLPConfig), (32 bytes).
    Removing misc.o(i.SysTick_CLKSourceConfig), (40 bytes).
    Removing stm32f10x_adc.o(i.ADC_AnalogWatchdogCmd), (20 bytes).
    Removing stm32f10x_adc.o(i.ADC_AnalogWatchdogSingleChannelConfig), (16 bytes).
    Removing stm32f10x_adc.o(i.ADC_AnalogWatchdogThresholdsConfig), (6 bytes).
    Removing stm32f10x_adc.o(i.ADC_AutoInjectedConvCmd), (22 bytes).
    Removing stm32f10x_adc.o(i.ADC_ClearFlag), (6 bytes).
    Removing stm32f10x_adc.o(i.ADC_ClearITPendingBit), (10 bytes).
    Removing stm32f10x_adc.o(i.ADC_Cmd), (22 bytes).
    Removing stm32f10x_adc.o(i.ADC_DMACmd), (22 bytes).
    Removing stm32f10x_adc.o(i.ADC_DeInit), (92 bytes).
    Removing stm32f10x_adc.o(i.ADC_DiscModeChannelCountConfig), (24 bytes).
    Removing stm32f10x_adc.o(i.ADC_DiscModeCmd), (22 bytes).
    Removing stm32f10x_adc.o(i.ADC_ExternalTrigConvCmd), (22 bytes).
    Removing stm32f10x_adc.o(i.ADC_ExternalTrigInjectedConvCmd), (22 bytes).
    Removing stm32f10x_adc.o(i.ADC_ExternalTrigInjectedConvConfig), (16 bytes).
==============================================================================

Image Symbol Table

    Local Symbols

    Symbol Name                              Value     Ov Type        Size  Object(Section)

    ../clib/microlib/division.c              0x00000000   Number         0  uidiv.o ABSOLUTE
    ../clib/microlib/division.c              0x00000000   Number         0  uldiv.o ABSOLUTE
    ../clib/microlib/init/entry.s            0x00000000   Number         0  entry9b.o ABSOLUTE
    ../clib/microlib/init/entry.s            0x00000000   Number         0  entry9a.o ABSOLUTE
    ../clib/microlib/init/entry.s            0x00000000   Number         0  entry7b.o ABSOLUTE
    ../clib/microlib/init/entry.s            0x00000000   Number         0  entry2.o ABSOLUTE
    ../clib/microlib/init/entry.s            0x00000000   Number         0  entry.o ABSOLUTE
    ../clib/microlib/init/entry.s            0x00000000   Number         0  entry10a.o ABSOLUTE
    ../clib/microlib/init/entry.s            0x00000000   Number         0  entry8b.o ABSOLUTE
    ../clib/microlib/init/entry.s            0x00000000   Number         0  entry5.o ABSOLUTE
    ../clib/microlib/init/entry.s            0x00000000   Number         0  entry8a.o ABSOLUTE
    ../clib/microlib/init/entry.s            0x00000000   Number         0  entry10b.o ABSOLUTE
    ../clib/microlib/init/entry.s            0x00000000   Number         0  entry11a.o ABSOLUTE
    ../clib/microlib/init/entry.s            0x00000000   Number         0  entry7a.o ABSOLUTE
    ../clib/microlib/init/entry.s            0x00000000   Number         0  entry11b.o ABSOLUTE
    ../clib/microlib/longlong.c              0x00000000   Number         0  llshl.o ABSOLUTE
    ../clib/microlib/longlong.c              0x00000000   Number         0  llsshr.o ABSOLUTE
    ../clib/microlib/longlong.c              0x00000000   Number         0  llushr.o ABSOLUTE
    ../clib/microlib/printf/printf.c         0x00000000   Number         0  printf6.o ABSOLUTE
    ../clib/microlib/printf/printf.c         0x00000000   Number         0  printf7.o ABSOLUTE
    ../clib/microlib/printf/printf.c         0x00000000   Number         0  printf8.o ABSOLUTE
    ../clib/microlib/printf/printf.c         0x00000000   Number         0  printfa.o ABSOLUTE
    ../clib/microlib/printf/printf.c         0x00000000   Number         0  printf3.o ABSOLUTE
    ../clib/microlib/printf/printf.c         0x00000000   Number         0  printf0.o ABSOLUTE
    ../clib/microlib/printf/printf.c         0x00000000   Number         0  printf1.o ABSOLUTE
    ../clib/microlib/printf/printf.c         0x00000000   Number         0  printf5.o ABSOLUTE
    ../clib/microlib/printf/printf.c         0x00000000   Number         0  printf2.o ABSOLUTE
    ../clib/microlib/printf/printf.c         0x00000000   Number         0  printf4.o ABSOLUTE
    ../clib/microlib/printf/printf.c         0x00000000   Number         0  printfb.o ABSOLUTE
    ../clib/microlib/printf/stubs.s          0x00000000   Number         0  stubs.o ABSOLUTE
    ../clib/microlib/stdio/fputc.c           0x00000000   Number         0  fputc.o ABSOLUTE
    ../clib/microlib/stdio/semi.s            0x00000000   Number         0  semi.o ABSOLUTE
    ../clib/microlib/stdio/streams.c         0x00000000   Number         0  stdout.o ABSOLUTE
    ../clib/microlib/stubs.s                 0x00000000   Number         0  iusefp.o ABSOLUTE
    ../clib/microlib/stubs.s                 0x00000000   Number         0  iusesemip.o ABSOLUTE
    ../fplib/microlib/d2f.c                  0x00000000   Number         0  d2f.o ABSOLUTE
    ../fplib/microlib/f2d.c                  0x00000000   Number         0  f2d.o ABSOLUTE
    ../fplib/microlib/fpadd.c                0x00000000   Number         0  dadd.o ABSOLUTE
    ../fplib/microlib/fpadd.c                0x00000000   Number         0  fadd.o ABSOLUTE
    ../fplib/microlib/fpdiv.c                0x00000000   Number         0  ddiv.o ABSOLUTE
    ../fplib/microlib/fpepilogue.c           0x00000000   Number         0  fepilogue.o ABSOLUTE
    ../fplib/microlib/fpepilogue.c           0x00000000   Number         0  depilogue.o ABSOLUTE
    ../fplib/microlib/fpfix.c                0x00000000   Number         0  ffixui.o ABSOLUTE
    ../fplib/microlib/fpfix.c                0x00000000   Number         0  dfixul.o ABSOLUTE
    ../fplib/microlib/fpflt.c                0x00000000   Number         0  fflti.o ABSOLUTE
    ../fplib/microlib/fpmul.c                0x00000000   Number         0  dmul.o ABSOLUTE
    ../fplib/microlib/fpmul.c                0x00000000   Number         0  fmul.o ABSOLUTE
    ..\CMSIS\core_cm3.c                      0x00000000   Number         0  core_cm3.o ABSOLUTE
    ..\CMSIS\stm32f10x_it.c                  0x00000000   Number         0  stm32f10x_it.o ABSOLUTE
    ..\CMSIS\system_stm32f10x.c              0x00000000   Number         0  system_stm32f10x.o ABSOLUTE
    ..\FWLIB\src\misc.c                      0x00000000   Number         0  misc.o ABSOLUTE
    ..\FWLIB\src\stm32f10x_adc.c             0x00000000   Number         0  stm32f10x_adc.o ABSOLUTE
    ..\FWLIB\src\stm32f10x_bkp.c             0x00000000   Number         0  stm32f10x_bkp.o ABSOLUTE
    ..\FWLIB\src\stm32f10x_can.c             0x00000000   Number         0  stm32f10x_can.o ABSOLUTE
    ..\FWLIB\src\stm32f10x_cec.c             0x00000000   Number         0  stm32f10x_cec.o ABSOLUTE
    ..\FWLIB\src\stm32f10x_crc.c             0x00000000   Number         0  stm32f10x_crc.o ABSOLUTE
    ..\FWLIB\src\stm32f10x_dac.c             0x00000000   Number         0  stm32f10x_dac.o ABSOLUTE
    ..\FWLIB\src\stm32f10x_dbgmcu.c          0x00000000   Number         0  stm32f10x_dbgmcu.o ABSOLUTE
    ..\FWLIB\src\stm32f10x_dma.c             0x00000000   Number         0  stm32f10x_dma.o ABSOLUTE
    ..\FWLIB\src\stm32f10x_exti.c            0x00000000   Number         0  stm32f10x_exti.o ABSOLUTE
    ..\FWLIB\src\stm32f10x_flash.c           0x00000000   Number         0  stm32f10x_flash.o ABSOLUTE
    ..\FWLIB\src\stm32f10x_fsmc.c            0x00000000   Number         0  stm32f10x_fsmc.o ABSOLUTE
    ..\FWLIB\src\stm32f10x_gpio.c            0x00000000   Number         0  stm32f10x_gpio.o ABSOLUTE
    ..\FWLIB\src\stm32f10x_i2c.c             0x00000000   Number         0  stm32f10x_i2c.o ABSOLUTE
    ..\FWLIB\src\stm32f10x_iwdg.c            0x00000000   Number         0  stm32f10x_iwdg.o ABSOLUTE
    ..\FWLIB\src\stm32f10x_pwr.c             0x00000000   Number         0  stm32f10x_pwr.o ABSOLUTE
    ..\FWLIB\src\stm32f10x_rcc.c             0x00000000   Number         0  stm32f10x_rcc.o ABSOLUTE
    ..\FWLIB\src\stm32f10x_rtc.c             0x00000000   Number         0  stm32f10x_rtc.o ABSOLUTE
    ..\FWLIB\src\stm32f10x_sdio.c            0x00000000   Number         0  stm32f10x_sdio.o ABSOLUTE
    ..\FWLIB\src\stm32f10x_spi.c             0x00000000   Number         0  stm32f10x_spi.o ABSOLUTE
    ..\FWLIB\src\stm32f10x_tim.c             0x00000000   Number         0  stm32f10x_tim.o ABSOLUTE
    ..\FWLIB\src\stm32f10x_usart.c           0x00000000   Number         0  stm32f10x_usart.o ABSOLUTE
    ..\FWLIB\src\stm32f10x_wwdg.c            0x00000000   Number         0  stm32f10x_wwdg.o ABSOLUTE
    ..\OLED\OLED.c                           0x00000000   Number         0  oled.o ABSOLUTE
    ..\System\delay.c                        0x00000000   Number         0  delay.o ABSOLUTE
    ..\System\timer.c                        0x00000000   Number         0  timer.o ABSOLUTE
    ..\\CMSIS\\core_cm3.c                    0x00000000   Number         0  core_cm3.o ABSOLUTE
    ..\algorithm\pid.c                       0x00000000   Number         0  pid.o ABSOLUTE
    ..\hardware\LED.c                        0x00000000   Number         0  led.o ABSOLUTE
    ..\hardware\MyDMA.c                      0x00000000   Number         0  mydma.o ABSOLUTE
    ..\hardware\Serial.c                     0x00000000   Number         0  serial.o ABSOLUTE
    ..\hardware\alarm.c                      0x00000000   Number         0  alarm.o ABSOLUTE
    ..\hardware\bujin_GPIO.c                 0x00000000   Number         0  bujin_gpio.o ABSOLUTE
    ..\hardware\pwm.c                        0x00000000   Number         0  pwm.o ABSOLUTE
    ..\rt-thread\bsp\board.c                 0x00000000   Number         0  board.o ABSOLUTE
    ..\rt-thread\libcpu\arm\cortex-m3\context_rvds.S 0x00000000   Number         0  context_rvds.o ABSOLUTE
    ..\rt-thread\libcpu\arm\cortex-m3\cpuport.c 0x00000000   Number         0  cpuport.o ABSOLUTE
    ..\rt-thread\src\clock.c                 0x00000000   Number         0  clock.o ABSOLUTE
    ..\rt-thread\src\components.c            0x00000000   Number         0  components.o ABSOLUTE
    ..\rt-thread\src\cpu.c                   0x00000000   Number         0  cpu.o ABSOLUTE
    ..\rt-thread\src\idle.c                  0x00000000   Number         0  idle.o ABSOLUTE
    ..\rt-thread\src\ipc.c                   0x00000000   Number         0  ipc.o ABSOLUTE
    ..\rt-thread\src\irq.c                   0x00000000   Number         0  irq.o ABSOLUTE
    ..\rt-thread\src\kservice.c              0x00000000   Number         0  kservice.o ABSOLUTE
    ..\rt-thread\src\mem.c                   0x00000000   Number         0  mem.o ABSOLUTE
    ..\rt-thread\src\memheap.c               0x00000000   Number         0  memheap.o ABSOLUTE
    ..\rt-thread\src\mempool.c               0x00000000   Number         0  mempool.o ABSOLUTE
    ..\rt-thread\src\object.c                0x00000000   Number         0  object.o ABSOLUTE
    ..\rt-thread\src\scheduler.c             0x00000000   Number         0  scheduler.o ABSOLUTE
    ..\rt-thread\src\slab.c                  0x00000000   Number         0  slab.o ABSOLUTE
    ..\rt-thread\src\thread.c                0x00000000   Number         0  thread.o ABSOLUTE
    ..\rt-thread\src\timer.c                 0x00000000   Number         0  timer_1.o ABSOLUTE
    ..\startup\startup_stm32f10x_md.s        0x00000000   Number         0  startup_stm32f10x_md.o ABSOLUTE
    ..\user\main.c                           0x00000000   Number         0  main.o ABSOLUTE
    cdrcmple.s                               0x00000000   Number         0  cdrcmple.o ABSOLUTE
    cfcmple.s                                0x00000000   Number         0  cfcmple.o ABSOLUTE
    cfrcmple.s                               0x00000000   Number         0  cfrcmple.o ABSOLUTE
    dc.s                                     0x00000000   Number         0  dc.o ABSOLUTE
    handlers.s                               0x00000000   Number         0  handlers.o ABSOLUTE
    init.s                                   0x00000000   Number         0  init.o ABSOLUTE
    RESET                                    0x08000000   Section      236  startup_stm32f10x_md.o(RESET)
    .ARM.Collect$$$$00000000                 0x080000ec   Section        0  entry.o(.ARM.Collect$$$$00000000)
    .ARM.Collect$$$$00000001                 0x080000ec   Section        4  entry2.o(.ARM.Collect$$$$00000001)
    .ARM.Collect$$$$00000004                 0x080000f0   Section        4  entry5.o(.ARM.Collect$$$$00000004)
    .ARM.Collect$$$$00000008                 0x080000f4   Section        0  entry7b.o(.ARM.Collect$$$$00000008)
    .ARM.Collect$$$$0000000A                 0x080000f4   Section        0  entry8b.o(.ARM.Collect$$$$0000000A)
    .ARM.Collect$$$$0000000B                 0x080000f4   Section        8  entry9a.o(.ARM.Collect$$$$0000000B)
    .ARM.Collect$$$$0000000D                 0x080000fc   Section        0  entry10a.o(.ARM.Collect$$$$0000000D)
    .ARM.Collect$$$$0000000F                 0x080000fc   Section        0  entry11a.o(.ARM.Collect$$$$0000000F)
    .ARM.Collect$$$$00002712                 0x080000fc   Section        4  entry2.o(.ARM.Collect$$$$00002712)
    __lit__00000000                          0x080000fc   Data           4  entry2.o(.ARM.Collect$$$$00002712)
    .text                                    0x08000100   Section       36  startup_stm32f10x_md.o(.text)
    .text                                    0x08000124   Section      244  context_rvds.o(.text)
    .text                                    0x08000218   Section        0  fadd.o(.text)
    .text                                    0x080002c8   Section        0  fmul.o(.text)
    .text                                    0x0800032c   Section        0  dmul.o(.text)
    .text                                    0x08000410   Section        0  fflti.o(.text)
    .text                                    0x08000422   Section        0  ffixui.o(.text)
    .text                                    0x0800044a   Section        0  f2d.o(.text)
    .text                                    0x08000470   Section        0  d2f.o(.text)
    .text                                    0x080004a8   Section       20  cfcmple.o(.text)
    .text                                    0x080004bc   Section       20  cfrcmple.o(.text)
    .text                                    0x080004d0   Section        0  uidiv.o(.text)
    .text                                    0x080004fc   Section        0  uldiv.o(.text)
    .text                                    0x0800055e   Section        0  fepilogue.o(.text)
    .text                                    0x0800055e   Section        0  iusefp.o(.text)
    .text                                    0x080005cc   Section        0  depilogue.o(.text)
    .text                                    0x08000686   Section        0  dadd.o(.text)
    .text                                    0x080007d4   Section        0  ddiv.o(.text)
    .text                                    0x080008b2   Section        0  dfixul.o(.text)
    .text                                    0x080008e4   Section       48  cdrcmple.o(.text)
    .text                                    0x08000914   Section       36  init.o(.text)
    .text                                    0x08000938   Section        0  llshl.o(.text)
    .text                                    0x08000956   Section        0  llushr.o(.text)
    .text                                    0x08000976   Section        0  llsshr.o(.text)
    i.$Sub$$main                             0x0800099a   Section        0  components.o(i.$Sub$$main)
    i.ADC1_2_IRQHandler                      0x080009a4   Section        0  stm32f10x_it.o(i.ADC1_2_IRQHandler)
    i.ADC_GetConversionValue                 0x080009bc   Section        0  stm32f10x_adc.o(i.ADC_GetConversionValue)
    i.BusFault_Handler                       0x080009c4   Section        0  stm32f10x_it.o(i.BusFault_Handler)
    i.DMA_Cmd                                0x080009c8   Section        0  stm32f10x_dma.o(i.DMA_Cmd)
    i.DMA_Init                               0x080009e0   Section        0  stm32f10x_dma.o(i.DMA_Init)
    i.DMA_SetCurrDataCounter                 0x08000a1c   Section        0  stm32f10x_dma.o(i.DMA_SetCurrDataCounter)
    i.DS18B20_Check                          0x08000a20   Section        0  led.o(i.DS18B20_Check)
    i.DS18B20_Get_Temp                       0x08000a88   Section        0  led.o(i.DS18B20_Get_Temp)
    i.DS18B20_Init                           0x08000b0c   Section        0  led.o(i.DS18B20_Init)
    i.DS18B20_Read_Bit                       0x08000b48   Section        0  led.o(i.DS18B20_Read_Bit)
    i.DS18B20_Read_Byte                      0x08000bb0   Section        0  led.o(i.DS18B20_Read_Byte)
    i.DS18B20_Rst                            0x08000bd4   Section        0  led.o(i.DS18B20_Rst)
    i.DS18B20_Start                          0x08000c10   Section        0  led.o(i.DS18B20_Start)
    i.DS18B20_Write_Byte                     0x08000c28   Section        0  led.o(i.DS18B20_Write_Byte)
    i.DebugMon_Handler                       0x08000c98   Section        0  stm32f10x_it.o(i.DebugMon_Handler)
    i.Delay_ms                               0x08000c9a   Section        0  delay.o(i.Delay_ms)
    i.Delay_s                                0x08000cb2   Section        0  delay.o(i.Delay_s)
    i.Delay_us                               0x08000cca   Section        0  delay.o(i.Delay_us)
    i.GPIO_Init                              0x08000cf8   Section        0  stm32f10x_gpio.o(i.GPIO_Init)
    i.GPIO_ReadInputDataBit                  0x08000e0e   Section        0  stm32f10x_gpio.o(i.GPIO_ReadInputDataBit)
    i.GPIO_ResetBits                         0x08000e20   Section        0  stm32f10x_gpio.o(i.GPIO_ResetBits)
    i.GPIO_SetBits                           0x08000e24   Section        0  stm32f10x_gpio.o(i.GPIO_SetBits)
    i.GPIO_WriteBit                          0x08000e28   Section        0  stm32f10x_gpio.o(i.GPIO_WriteBit)
    i.MemManage_Handler                      0x08000e32   Section        0  stm32f10x_it.o(i.MemManage_Handler)
    i.MyDMA_Init                             0x08000e38   Section        0  mydma.o(i.MyDMA_Init)
    i.NMI_Handler                            0x08000e90   Section        0  stm32f10x_it.o(i.NMI_Handler)
    i.NVIC_Init                              0x08000e94   Section        0  misc.o(i.NVIC_Init)
    i.NVIC_PriorityGroupConfig               0x08000f04   Section        0  misc.o(i.NVIC_PriorityGroupConfig)
    i.OLED_Clear                             0x08000f18   Section        0  oled.o(i.OLED_Clear)
    i.OLED_I2C_Init                          0x08000f44   Section        0  oled.o(i.OLED_I2C_Init)
    i.OLED_I2C_SendByte                      0x08000fcc   Section        0  oled.o(i.OLED_I2C_SendByte)
    i.OLED_I2C_Start                         0x08001020   Section        0  oled.o(i.OLED_I2C_Start)
    i.OLED_I2C_Stop                          0x08001054   Section        0  oled.o(i.OLED_I2C_Stop)
    i.OLED_Init                              0x0800107c   Section        0  oled.o(i.OLED_Init)
    i.OLED_SetCursor                         0x0800112a   Section        0  oled.o(i.OLED_SetCursor)
    i.OLED_ShowChar                          0x0800114c   Section        0  oled.o(i.OLED_ShowChar)
    i.OLED_ShowString                        0x080011c0   Section        0  oled.o(i.OLED_ShowString)
    i.OLED_WriteCommand                      0x080011e8   Section        0  oled.o(i.OLED_WriteCommand)
    i.OLED_WriteData                         0x08001208   Section        0  oled.o(i.OLED_WriteData)
    i.PID_Calc                               0x08001228   Section        0  pid.o(i.PID_Calc)
    i.RCC_AHBPeriphClockCmd                  0x080012f8   Section        0  stm32f10x_rcc.o(i.RCC_AHBPeriphClockCmd)
    i.RCC_APB1PeriphClockCmd                 0x08001318   Section        0  stm32f10x_rcc.o(i.RCC_APB1PeriphClockCmd)
    i.RCC_APB2PeriphClockCmd                 0x08001338   Section        0  stm32f10x_rcc.o(i.RCC_APB2PeriphClockCmd)
    i.RCC_GetClocksFreq                      0x08001358   Section        0  stm32f10x_rcc.o(i.RCC_GetClocksFreq)
    i.SVC_Handler                            0x0800142c   Section        0  stm32f10x_it.o(i.SVC_Handler)
    i.Serial_SendByte                        0x08001430   Section        0  serial.o(i.Serial_SendByte)
    i.Serial_SendString                      0x08001450   Section        0  serial.o(i.Serial_SendString)
    i.Serial_init                            0x0800146c   Section        0  serial.o(i.Serial_init)
    i.SetSysClock                            0x08001530   Section        0  system_stm32f10x.o(i.SetSysClock)
    SetSysClock                              0x08001531   Thumb Code     8  system_stm32f10x.o(i.SetSysClock)
    i.SetSysClockTo72                        0x08001538   Section        0  system_stm32f10x.o(i.SetSysClockTo72)
    SetSysClockTo72                          0x08001539   Thumb Code   214  system_stm32f10x.o(i.SetSysClockTo72)
    i.SysTick_Handler                        0x08001618   Section        0  board.o(i.SysTick_Handler)
    i.SystemCoreClockUpdate                  0x08001628   Section        0  system_stm32f10x.o(i.SystemCoreClockUpdate)
    i.SystemInit                             0x080016cc   Section        0  system_stm32f10x.o(i.SystemInit)
    i.TIM3_PWM_Init                          0x0800172c   Section        0  pwm.o(i.TIM3_PWM_Init)
    i.TIM4_IRQHandler                        0x080017b0   Section        0  main.o(i.TIM4_IRQHandler)
    i.TIM4_Init                              0x0800182c   Section        0  timer.o(i.TIM4_Init)
    i.TIM_ClearITPendingBit                  0x08001890   Section        0  stm32f10x_tim.o(i.TIM_ClearITPendingBit)
    i.TIM_Cmd                                0x08001896   Section        0  stm32f10x_tim.o(i.TIM_Cmd)
    i.TIM_GetITStatus                        0x080018ae   Section        0  stm32f10x_tim.o(i.TIM_GetITStatus)
    i.TIM_ITConfig                           0x080018d0   Section        0  stm32f10x_tim.o(i.TIM_ITConfig)
    i.TIM_InternalClockConfig                0x080018e2   Section        0  stm32f10x_tim.o(i.TIM_InternalClockConfig)
    i.TIM_OC2Init                            0x080018f0   Section        0  stm32f10x_tim.o(i.TIM_OC2Init)
    i.TIM_OC2PreloadConfig                   0x08001994   Section        0  stm32f10x_tim.o(i.TIM_OC2PreloadConfig)
    i.TIM_SetCompare2                        0x080019ae   Section        0  stm32f10x_tim.o(i.TIM_SetCompare2)
    i.TIM_TimeBaseInit                       0x080019b4   Section        0  stm32f10x_tim.o(i.TIM_TimeBaseInit)
    i.USART1_IRQHandler                      0x08001a58   Section        0  serial.o(i.USART1_IRQHandler)
    i.USART_Cmd                              0x08001b50   Section        0  stm32f10x_usart.o(i.USART_Cmd)
    i.USART_DMACmd                           0x08001b68   Section        0  stm32f10x_usart.o(i.USART_DMACmd)
    i.USART_GetFlagStatus                    0x08001b7a   Section        0  stm32f10x_usart.o(i.USART_GetFlagStatus)
    i.USART_ITConfig                         0x08001b94   Section        0  stm32f10x_usart.o(i.USART_ITConfig)
    i.USART_Init                             0x08001be0   Section        0  stm32f10x_usart.o(i.USART_Init)
    i.USART_SendData                         0x08001cb8   Section        0  stm32f10x_usart.o(i.USART_SendData)
    i.UsageFault_Handler                     0x08001cc0   Section        0  stm32f10x_it.o(i.UsageFault_Handler)
    i._SysTick_Config                        0x08001cc4   Section        0  board.o(i._SysTick_Config)
    _SysTick_Config                          0x08001cc5   Thumb Code    44  board.o(i._SysTick_Config)
    i.__0snprintf                            0x08001cf4   Section        0  printfa.o(i.__0snprintf)
    i.__rt_ffs                               0x08001d24   Section        0  kservice.o(i.__rt_ffs)
    i.__scatterload_copy                     0x08001d70   Section       14  handlers.o(i.__scatterload_copy)
    i.__scatterload_null                     0x08001d7e   Section        2  handlers.o(i.__scatterload_null)
    i.__scatterload_zeroinit                 0x08001d80   Section       14  handlers.o(i.__scatterload_zeroinit)
    i._fp_digits                             0x08001d90   Section        0  printfa.o(i._fp_digits)
    _fp_digits                               0x08001d91   Thumb Code   366  printfa.o(i._fp_digits)
    i._printf_core                           0x08001f14   Section        0  printfa.o(i._printf_core)
    _printf_core                             0x08001f15   Thumb Code  1744  printfa.o(i._printf_core)
    i._printf_post_padding                   0x080025f0   Section        0  printfa.o(i._printf_post_padding)
    _printf_post_padding                     0x080025f1   Thumb Code    36  printfa.o(i._printf_post_padding)
    i._printf_pre_padding                    0x08002614   Section        0  printfa.o(i._printf_pre_padding)
    _printf_pre_padding                      0x08002615   Thumb Code    46  printfa.o(i._printf_pre_padding)
    i._rt_thread_init                        0x08002644   Section        0  thread.o(i._rt_thread_init)
    _rt_thread_init                          0x08002645   Thumb Code   124  thread.o(i._rt_thread_init)
    i._rt_timer_init                         0x080026c8   Section        0  timer_1.o(i._rt_timer_init)
    _rt_timer_init                           0x080026c9   Thumb Code    66  timer_1.o(i._rt_timer_init)
    i._rt_timer_remove                       0x0800270a   Section        0  timer_1.o(i._rt_timer_remove)
    _rt_timer_remove                         0x0800270b   Thumb Code    28  timer_1.o(i._rt_timer_remove)
    i._snputc                                0x08002726   Section        0  printfa.o(i._snputc)
    _snputc                                  0x08002727   Thumb Code    22  printfa.o(i._snputc)
    i._thread_cleanup_execute                0x0800273c   Section        0  thread.o(i._thread_cleanup_execute)
    _thread_cleanup_execute                  0x0800273d   Thumb Code    28  thread.o(i._thread_cleanup_execute)
    i.alarm_gpio_init                        0x08002758   Section        0  alarm.o(i.alarm_gpio_init)
    i.alarm_thread_entry                     0x08002790   Section        0  main.o(i.alarm_thread_entry)
    alarm_thread_entry                       0x08002791   Thumb Code    46  main.o(i.alarm_thread_entry)
    i.bujin_GPIO_Init                        0x080027c8   Section        0  bujin_gpio.o(i.bujin_GPIO_Init)
    i.bujin_SetDir                           0x08002810   Section        0  bujin_gpio.o(i.bujin_SetDir)
    i.bujin_step                             0x08002834   Section        0  bujin_gpio.o(i.bujin_step)
    i.hardware_Init                          0x08002858   Section        0  main.o(i.hardware_Init)
    i.main                                   0x080028c4   Section        0  main.o(i.main)
    i.main_thread_entry                      0x080029dc   Section        0  components.o(i.main_thread_entry)
    i.pid_Init                               0x080029ea   Section        0  pid.o(i.pid_Init)
    i.plug_holes                             0x08002a00   Section        0  mem.o(i.plug_holes)
    plug_holes                               0x08002a01   Thumb Code   108  mem.o(i.plug_holes)
    i.print_number                           0x08002a78   Section        0  kservice.o(i.print_number)
    print_number                             0x08002a79   Thumb Code   400  kservice.o(i.print_number)
    i.rt_application_init                    0x08002c10   Section        0  components.o(i.rt_application_init)
    i.rt_components_board_init               0x08002c3c   Section        0  components.o(i.rt_components_board_init)
    i.rt_components_init                     0x08002c58   Section        0  components.o(i.rt_components_init)
    i.rt_enter_critical                      0x08002c74   Section        0  scheduler.o(i.rt_enter_critical)
    i.rt_exit_critical                       0x08002c94   Section        0  scheduler.o(i.rt_exit_critical)
    i.rt_free                                0x08002cd8   Section        0  mem.o(i.rt_free)
    i.rt_heap_begin_get                      0x08002db8   Section        0  board.o(i.rt_heap_begin_get)
    i.rt_heap_end_get                        0x08002dc0   Section        0  board.o(i.rt_heap_end_get)
    i.rt_hw_board_init                       0x08002dc8   Section        0  board.o(i.rt_hw_board_init)
    i.rt_hw_console_output                   0x08002dfc   Section        0  kservice.o(i.rt_hw_console_output)
    i.rt_hw_hard_fault_exception             0x08002e00   Section        0  cpuport.o(i.rt_hw_hard_fault_exception)
    i.rt_hw_stack_init                       0x08003000   Section        0  cpuport.o(i.rt_hw_stack_init)
    i.rt_interrupt_enter                     0x0800304c   Section        0  irq.o(i.rt_interrupt_enter)
    i.rt_interrupt_leave                     0x0800306c   Section        0  irq.o(i.rt_interrupt_leave)
    i.rt_ipc_list_resume                     0x0800308c   Section        0  ipc.o(i.rt_ipc_list_resume)
    rt_ipc_list_resume                       0x0800308d   Thumb Code    20  ipc.o(i.rt_ipc_list_resume)
    i.rt_ipc_list_suspend                    0x080030a0   Section        0  ipc.o(i.rt_ipc_list_suspend)
    rt_ipc_list_suspend                      0x080030a1   Thumb Code   110  ipc.o(i.rt_ipc_list_suspend)
    i.rt_ipc_object_init                     0x0800310e   Section        0  ipc.o(i.rt_ipc_object_init)
    rt_ipc_object_init                       0x0800310f   Thumb Code    16  ipc.o(i.rt_ipc_object_init)
    i.rt_kprintf                             0x08003120   Section        0  kservice.o(i.rt_kprintf)
    i.rt_list_init                           0x08003150   Section        0  ipc.o(i.rt_list_init)
    rt_list_init                             0x08003151   Thumb Code     6  ipc.o(i.rt_list_init)
    i.rt_list_init                           0x08003156   Section        0  scheduler.o(i.rt_list_init)
    rt_list_init                             0x08003157   Thumb Code     6  scheduler.o(i.rt_list_init)
    i.rt_list_init                           0x0800315c   Section        0  timer_1.o(i.rt_list_init)
    rt_list_init                             0x0800315d   Thumb Code     6  timer_1.o(i.rt_list_init)
    i.rt_list_insert_after                   0x08003162   Section        0  object.o(i.rt_list_insert_after)
    rt_list_insert_after                     0x08003163   Thumb Code    14  object.o(i.rt_list_insert_after)
    i.rt_list_insert_after                   0x08003170   Section        0  thread.o(i.rt_list_insert_after)
    rt_list_insert_after                     0x08003171   Thumb Code    14  thread.o(i.rt_list_insert_after)
    i.rt_list_insert_after                   0x0800317e   Section        0  timer_1.o(i.rt_list_insert_after)
    rt_list_insert_after                     0x0800317f   Thumb Code    14  timer_1.o(i.rt_list_insert_after)
    i.rt_list_insert_before                  0x0800318c   Section        0  ipc.o(i.rt_list_insert_before)
    rt_list_insert_before                    0x0800318d   Thumb Code    14  ipc.o(i.rt_list_insert_before)
    i.rt_list_isempty                        0x0800319a   Section        0  ipc.o(i.rt_list_isempty)
    rt_list_isempty                          0x0800319b   Thumb Code    16  ipc.o(i.rt_list_isempty)
    i.rt_list_isempty                        0x080031aa   Section        0  timer_1.o(i.rt_list_isempty)
    rt_list_isempty                          0x080031ab   Thumb Code    16  timer_1.o(i.rt_list_isempty)
    i.rt_list_remove                         0x080031ba   Section        0  object.o(i.rt_list_remove)
    rt_list_remove                           0x080031bb   Thumb Code    18  object.o(i.rt_list_remove)
    i.rt_list_remove                         0x080031cc   Section        0  thread.o(i.rt_list_remove)
    rt_list_remove                           0x080031cd   Thumb Code    18  thread.o(i.rt_list_remove)
    i.rt_list_remove                         0x080031de   Section        0  timer_1.o(i.rt_list_remove)
    rt_list_remove                           0x080031df   Thumb Code    18  timer_1.o(i.rt_list_remove)
    i.rt_malloc                              0x080031f0   Section        0  mem.o(i.rt_malloc)
    i.rt_memset                              0x0800335c   Section        0  kservice.o(i.rt_memset)
    i.rt_object_allocate                     0x080033a4   Section        0  object.o(i.rt_object_allocate)
    i.rt_object_delete                       0x080033f8   Section        0  object.o(i.rt_object_delete)
    i.rt_object_detach                       0x0800341c   Section        0  object.o(i.rt_object_detach)
    i.rt_object_get_information              0x0800343c   Section        0  object.o(i.rt_object_get_information)
    i.rt_object_init                         0x08003464   Section        0  object.o(i.rt_object_init)
    i.rt_object_is_systemobject              0x080034ba   Section        0  object.o(i.rt_object_is_systemobject)
    i.rt_schedule                            0x080034cc   Section        0  scheduler.o(i.rt_schedule)
    i.rt_schedule_insert_thread              0x08003550   Section        0  scheduler.o(i.rt_schedule_insert_thread)
    i.rt_schedule_remove_thread              0x080035a0   Section        0  scheduler.o(i.rt_schedule_remove_thread)
    i.rt_sem_init                            0x080035f4   Section        0  ipc.o(i.rt_sem_init)
    i.rt_sem_release                         0x0800361a   Section        0  ipc.o(i.rt_sem_release)
    i.rt_sem_take                            0x0800366c   Section        0  ipc.o(i.rt_sem_take)
    i.rt_show_version                        0x080036e0   Section        0  kservice.o(i.rt_show_version)
    i.rt_strncpy                             0x08003790   Section        0  kservice.o(i.rt_strncpy)
    i.rt_system_heap_init                    0x080037c4   Section        0  mem.o(i.rt_system_heap_init)
    i.rt_system_scheduler_init               0x080038bc   Section        0  scheduler.o(i.rt_system_scheduler_init)
    i.rt_system_scheduler_start              0x08003908   Section        0  scheduler.o(i.rt_system_scheduler_start)
    i.rt_system_timer_init                   0x08003938   Section        0  timer_1.o(i.rt_system_timer_init)
    i.rt_system_timer_thread_init            0x08003954   Section        0  timer_1.o(i.rt_system_timer_thread_init)
    i.rt_thread_create                       0x08003956   Section        0  thread.o(i.rt_thread_create)
    i.rt_thread_delay                        0x080039a6   Section        0  thread.o(i.rt_thread_delay)
    i.rt_thread_exit                         0x080039b4   Section        0  thread.o(i.rt_thread_exit)
    i.rt_thread_idle_entry                   0x08003a0c   Section        0  idle.o(i.rt_thread_idle_entry)
    rt_thread_idle_entry                     0x08003a0d   Thumb Code     8  idle.o(i.rt_thread_idle_entry)
    i.rt_thread_idle_excute                  0x08003a14   Section        0  idle.o(i.rt_thread_idle_excute)
    i.rt_thread_idle_init                    0x08003a74   Section        0  idle.o(i.rt_thread_idle_init)
    i.rt_thread_init                         0x08003ab0   Section        0  thread.o(i.rt_thread_init)
    i.rt_thread_resume                       0x08003ae4   Section        0  thread.o(i.rt_thread_resume)
    i.rt_thread_self                         0x08003b20   Section        0  thread.o(i.rt_thread_self)
    i.rt_thread_sleep                        0x08003b2c   Section        0  thread.o(i.rt_thread_sleep)
    i.rt_thread_startup                      0x08003b70   Section        0  thread.o(i.rt_thread_startup)
    i.rt_thread_suspend                      0x08003b9c   Section        0  thread.o(i.rt_thread_suspend)
    i.rt_thread_timeout                      0x08003be0   Section        0  thread.o(i.rt_thread_timeout)
    i.rt_thread_yield                        0x08003c00   Section        0  thread.o(i.rt_thread_yield)
    i.rt_tick_get                            0x08003c64   Section        0  clock.o(i.rt_tick_get)
    i.rt_tick_increase                       0x08003c70   Section        0  clock.o(i.rt_tick_increase)
    i.rt_timer_check                         0x08003ca0   Section        0  timer_1.o(i.rt_timer_check)
    i.rt_timer_control                       0x08003d44   Section        0  timer_1.o(i.rt_timer_control)
    i.rt_timer_detach                        0x08003da6   Section        0  timer_1.o(i.rt_timer_detach)
    i.rt_timer_init                          0x08003dce   Section        0  timer_1.o(i.rt_timer_init)
    i.rt_timer_start                         0x08003dfc   Section        0  timer_1.o(i.rt_timer_start)
    i.rt_timer_stop                          0x08003ee8   Section        0  timer_1.o(i.rt_timer_stop)
    i.rt_vsnprintf                           0x08003f18   Section        0  kservice.o(i.rt_vsnprintf)
    i.rti_board_end                          0x08004258   Section        0  components.o(i.rti_board_end)
    rti_board_end                            0x08004259   Thumb Code     4  components.o(i.rti_board_end)
    i.rti_board_start                        0x0800425c   Section        0  components.o(i.rti_board_start)
    rti_board_start                          0x0800425d   Thumb Code     4  components.o(i.rti_board_start)
    i.rti_end                                0x08004260   Section        0  components.o(i.rti_end)
    rti_end                                  0x08004261   Thumb Code     4  components.o(i.rti_end)
    i.rti_start                              0x08004264   Section        0  components.o(i.rti_start)
    rti_start                                0x08004265   Thumb Code     4  components.o(i.rti_start)
    i.rtthread_startup                       0x08004268   Section        0  components.o(i.rtthread_startup)
    i.skip_atoi                              0x08004292   Section        0  kservice.o(i.skip_atoi)
    skip_atoi                                0x08004293   Thumb Code    38  kservice.o(i.skip_atoi)
    i.temp_thread_entry                      0x080042b8   Section        0  main.o(i.temp_thread_entry)
    temp_thread_entry                        0x080042b9   Thumb Code   172  main.o(i.temp_thread_entry)
    .constdata                               0x0800438c   Section     1520  oled.o(.constdata)
    .constdata                               0x0800497c   Section      290  kservice.o(.constdata)
    small_digits                             0x08004a7c   Data          17  kservice.o(.constdata)
    large_digits                             0x08004a8d   Data          17  kservice.o(.constdata)
    .rti_fn.0                                0x08004aa0   Section        4  components.o(.rti_fn.0)
    __tagsym$$used                           0x08004aa0   Number         0  components.o(.rti_fn.0)
    .rti_fn.0.end                            0x08004aa4   Section        4  components.o(.rti_fn.0.end)
    __tagsym$$used                           0x08004aa4   Number         0  components.o(.rti_fn.0.end)
    .rti_fn.1.end                            0x08004aa8   Section        4  components.o(.rti_fn.1.end)
    __tagsym$$used                           0x08004aa8   Number         0  components.o(.rti_fn.1.end)
    .rti_fn.6.end                            0x08004aac   Section        4  components.o(.rti_fn.6.end)
    __tagsym$$used                           0x08004aac   Number         0  components.o(.rti_fn.6.end)
    .data                                    0x20000000   Section        2  stm32f10x_it.o(.data)
    .data                                    0x20000004   Section       20  system_stm32f10x.o(.data)
    .data                                    0x20000018   Section       20  stm32f10x_rcc.o(.data)
    APBAHBPrescTable                         0x20000018   Data          16  stm32f10x_rcc.o(.data)
    ADCPrescTable                            0x20000028   Data           4  stm32f10x_rcc.o(.data)
    .data                                    0x2000002c   Section       36  main.o(.data)
    temp_thread                              0x20000048   Data           4  main.o(.data)
    alarm_thread                             0x2000004c   Data           4  main.o(.data)
    .data                                    0x20000050   Section        4  serial.o(.data)
    .data                                    0x20000054   Section        4  clock.o(.data)
    rt_tick                                  0x20000054   Data           4  clock.o(.data)
    .data                                    0x20000058   Section        1  irq.o(.data)
    .data                                    0x2000005c   Section       24  mem.o(.data)
    heap_ptr                                 0x2000005c   Data           4  mem.o(.data)
    heap_end                                 0x20000060   Data           4  mem.o(.data)
    lfree                                    0x20000064   Data           4  mem.o(.data)
    mem_size_aligned                         0x20000068   Data           4  mem.o(.data)
    used_mem                                 0x2000006c   Data           4  mem.o(.data)
    max_mem                                  0x20000070   Data           4  mem.o(.data)
    .data                                    0x20000074   Section       64  object.o(.data)
    rt_object_container                      0x20000074   Data          64  object.o(.data)
    .data                                    0x200000b4   Section       24  scheduler.o(.data)
    rt_scheduler_lock_nest                   0x200000b8   Data           2  scheduler.o(.data)
    .data                                    0x200000cc   Section       12  timer_1.o(.data)
    rt_timer_list                            0x200000cc   Data           8  timer_1.o(.data)
    random_nr                                0x200000d4   Data           4  timer_1.o(.data)
    .data                                    0x200000d8   Section       16  cpuport.o(.data)
    rt_exception_hook                        0x200000e4   Data           4  cpuport.o(.data)
    .bss                                     0x200000e8   Section       96  main.o(.bss)
    .bss                                     0x20000148   Section     4096  board.o(.bss)
    rt_heap                                  0x20000148   Data        4096  board.o(.bss)
    .bss                                     0x20001148   Section       50  serial.o(.bss)
    .bss                                     0x2000117c   Section      376  idle.o(.bss)
    idle                                     0x2000117c   Data         120  idle.o(.bss)
    rt_thread_stack                          0x200011f4   Data         256  idle.o(.bss)
    .bss                                     0x200012f4   Section      128  kservice.o(.bss)
    rt_log_buf                               0x200012f4   Data         128  kservice.o(.bss)
    .bss                                     0x20001374   Section       32  mem.o(.bss)
    heap_sem                                 0x20001374   Data          32  mem.o(.bss)
    .bss                                     0x20001394   Section       64  scheduler.o(.bss)
    STACK                                    0x200013d8   Section     1024  startup_stm32f10x_md.o(STACK)

    Global Symbols

    Symbol Name                              Value     Ov Type        Size  Object(Section)

    BuildAttributes$$THM_ISAv4$P$D$K$B$S$PE$A:L22UL41UL21$X:L11$S22US41US21$IEEE1$IW$USESV6$~STKCKD$USESV7$~SHL$OTIME$ROPI$EBA8$MICROLIB$REQ8$PRES8$EABIv2 0x00000000   Number         0  anon$$obj.o ABSOLUTE
    __ARM_use_no_argv                        0x00000000   Number         0  main.o ABSOLUTE
    _printf_a                                0x00000000   Number         0  stubs.o ABSOLUTE
    _printf_c                                0x00000000   Number         0  stubs.o ABSOLUTE
    _printf_charcount                        0x00000000   Number         0  stubs.o ABSOLUTE
    _printf_d                                0x00000000   Number         0  stubs.o ABSOLUTE
    _printf_e                                0x00000000   Number         0  stubs.o ABSOLUTE
    _printf_f                                0x00000000   Number         0  stubs.o ABSOLUTE
    _printf_flags                            0x00000000   Number         0  stubs.o ABSOLUTE
    _printf_fp_dec                           0x00000000   Number         0  stubs.o ABSOLUTE
    _printf_fp_hex                           0x00000000   Number         0  stubs.o ABSOLUTE
    _printf_g                                0x00000000   Number         0  stubs.o ABSOLUTE
    _printf_i                                0x00000000   Number         0  stubs.o ABSOLUTE
    _printf_int_dec                          0x00000000   Number         0  stubs.o ABSOLUTE
    _printf_l                                0x00000000   Number         0  stubs.o ABSOLUTE
    _printf_lc                               0x00000000   Number         0  stubs.o ABSOLUTE
    _printf_ll                               0x00000000   Number         0  stubs.o ABSOLUTE
    _printf_lld                              0x00000000   Number         0  stubs.o ABSOLUTE
    _printf_lli                              0x00000000   Number         0  stubs.o ABSOLUTE
    _printf_llo                              0x00000000   Number         0  stubs.o ABSOLUTE
    _printf_llu                              0x00000000   Number         0  stubs.o ABSOLUTE
    _printf_llx                              0x00000000   Number         0  stubs.o ABSOLUTE
    _printf_longlong_dec                     0x00000000   Number         0  stubs.o ABSOLUTE
    _printf_longlong_hex                     0x00000000   Number         0  stubs.o ABSOLUTE
    _printf_longlong_oct                     0x00000000   Number         0  stubs.o ABSOLUTE
    _printf_ls                               0x00000000   Number         0  stubs.o ABSOLUTE
    _printf_mbtowc                           0x00000000   Number         0  stubs.o ABSOLUTE
    _printf_n                                0x00000000   Number         0  stubs.o ABSOLUTE
    _printf_o                                0x00000000   Number         0  stubs.o ABSOLUTE
    _printf_p                                0x00000000   Number         0  stubs.o ABSOLUTE
    _printf_percent                          0x00000000   Number         0  stubs.o ABSOLUTE
    _printf_pre_padding                      0x00000000   Number         0  stubs.o ABSOLUTE
    _printf_return_value                     0x00000000   Number         0  stubs.o ABSOLUTE
    _printf_s                                0x00000000   Number         0  stubs.o ABSOLUTE
    _printf_sizespec                         0x00000000   Number         0  stubs.o ABSOLUTE
    _printf_str                              0x00000000   Number         0  stubs.o ABSOLUTE
    _printf_truncate_signed                  0x00000000   Number         0  stubs.o ABSOLUTE
    _printf_truncate_unsigned                0x00000000   Number         0  stubs.o ABSOLUTE
    _printf_u                                0x00000000   Number         0  stubs.o ABSOLUTE
    _printf_wc                               0x00000000   Number         0  stubs.o ABSOLUTE
    _printf_wctomb                           0x00000000   Number         0  stubs.o ABSOLUTE
    _printf_widthprec                        0x00000000   Number         0  stubs.o ABSOLUTE
    _printf_x                                0x00000000   Number         0  stubs.o ABSOLUTE
    __cpp_initialize__aeabi_                  - Undefined Weak Reference
    __cxa_finalize                            - Undefined Weak Reference
    __decompress                              - Undefined Weak Reference
    _clock_init                               - Undefined Weak Reference
    _microlib_exit                            - Undefined Weak Reference
    __Vectors_Size                           0x000000ec   Number         0  startup_stm32f10x_md.o ABSOLUTE
    __Vectors                                0x08000000   Data           4  startup_stm32f10x_md.o(RESET)
    __Vectors_End                            0x080000ec   Data           0  startup_stm32f10x_md.o(RESET)
    __main                                   0x080000ed   Thumb Code     0  entry.o(.ARM.Collect$$$$00000000)
    _main_stk                                0x080000ed   Thumb Code     0  entry2.o(.ARM.Collect$$$$00000001)
    _main_scatterload                        0x080000f1   Thumb Code     0  entry5.o(.ARM.Collect$$$$00000004)
    __main_after_scatterload                 0x080000f5   Thumb Code     0  entry5.o(.ARM.Collect$$$$00000004)
    _main_clock                              0x080000f5   Thumb Code     0  entry7b.o(.ARM.Collect$$$$00000008)
    _main_cpp_init                           0x080000f5   Thumb Code     0  entry8b.o(.ARM.Collect$$$$0000000A)
    _main_init                               0x080000f5   Thumb Code     0  entry9a.o(.ARM.Collect$$$$0000000B)
    __rt_final_cpp                           0x080000fd   Thumb Code     0  entry10a.o(.ARM.Collect$$$$0000000D)
    __rt_final_exit                          0x080000fd   Thumb Code     0  entry11a.o(.ARM.Collect$$$$0000000F)
    Reset_Handler                            0x08000101   Thumb Code     8  startup_stm32f10x_md.o(.text)
    CAN1_RX1_IRQHandler                      0x0800011b   Thumb Code     0  startup_stm32f10x_md.o(.text)
    CAN1_SCE_IRQHandler                      0x0800011b   Thumb Code     0  startup_stm32f10x_md.o(.text)
    DMA1_Channel1_IRQHandler                 0x0800011b   Thumb Code     0  startup_stm32f10x_md.o(.text)
    DMA1_Channel2_IRQHandler                 0x0800011b   Thumb Code     0  startup_stm32f10x_md.o(.text)
    DMA1_Channel3_IRQHandler                 0x0800011b   Thumb Code     0  startup_stm32f10x_md.o(.text)
    DMA1_Channel4_IRQHandler                 0x0800011b   Thumb Code     0  startup_stm32f10x_md.o(.text)
    DMA1_Channel5_IRQHandler                 0x0800011b   Thumb Code     0  startup_stm32f10x_md.o(.text)
    DMA1_Channel6_IRQHandler                 0x0800011b   Thumb Code     0  startup_stm32f10x_md.o(.text)
    DMA1_Channel7_IRQHandler                 0x0800011b   Thumb Code     0  startup_stm32f10x_md.o(.text)
    EXTI0_IRQHandler                         0x0800011b   Thumb Code     0  startup_stm32f10x_md.o(.text)
    EXTI15_10_IRQHandler                     0x0800011b   Thumb Code     0  startup_stm32f10x_md.o(.text)
    EXTI1_IRQHandler                         0x0800011b   Thumb Code     0  startup_stm32f10x_md.o(.text)
    EXTI2_IRQHandler                         0x0800011b   Thumb Code     0  startup_stm32f10x_md.o(.text)
    EXTI3_IRQHandler                         0x0800011b   Thumb Code     0  startup_stm32f10x_md.o(.text)
    EXTI4_IRQHandler                         0x0800011b   Thumb Code     0  startup_stm32f10x_md.o(.text)
    EXTI9_5_IRQHandler                       0x0800011b   Thumb Code     0  startup_stm32f10x_md.o(.text)
    FLASH_IRQHandler                         0x0800011b   Thumb Code     0  startup_stm32f10x_md.o(.text)
    I2C1_ER_IRQHandler                       0x0800011b   Thumb Code     0  startup_stm32f10x_md.o(.text)
    I2C1_EV_IRQHandler                       0x0800011b   Thumb Code     0  startup_stm32f10x_md.o(.text)
    I2C2_ER_IRQHandler                       0x0800011b   Thumb Code     0  startup_stm32f10x_md.o(.text)
    I2C2_EV_IRQHandler                       0x0800011b   Thumb Code     0  startup_stm32f10x_md.o(.text)
    PVD_IRQHandler                           0x0800011b   Thumb Code     0  startup_stm32f10x_md.o(.text)
    RCC_IRQHandler                           0x0800011b   Thumb Code     0  startup_stm32f10x_md.o(.text)
    RTCAlarm_IRQHandler                      0x0800011b   Thumb Code     0  startup_stm32f10x_md.o(.text)
    RTC_IRQHandler                           0x0800011b   Thumb Code     0  startup_stm32f10x_md.o(.text)
    SPI1_IRQHandler                          0x0800011b   Thumb Code     0  startup_stm32f10x_md.o(.text)
    SPI2_IRQHandler                          0x0800011b   Thumb Code     0  startup_stm32f10x_md.o(.text)
    TAMPER_IRQHandler                        0x0800011b   Thumb Code     0  startup_stm32f10x_md.o(.text)
    TIM1_BRK_IRQHandler                      0x0800011b   Thumb Code     0  startup_stm32f10x_md.o(.text)
    TIM1_CC_IRQHandler                       0x0800011b   Thumb Code     0  startup_stm32f10x_md.o(.text)
    TIM1_TRG_COM_IRQHandler                  0x0800011b   Thumb Code     0  startup_stm32f10x_md.o(.text)
    TIM1_UP_IRQHandler                       0x0800011b   Thumb Code     0  startup_stm32f10x_md.o(.text)
    TIM2_IRQHandler                          0x0800011b   Thumb Code     0  startup_stm32f10x_md.o(.text)
    TIM3_IRQHandler                          0x0800011b   Thumb Code     0  startup_stm32f10x_md.o(.text)
    USART2_IRQHandler                        0x0800011b   Thumb Code     0  startup_stm32f10x_md.o(.text)
    USART3_IRQHandler                        0x0800011b   Thumb Code     0  startup_stm32f10x_md.o(.text)
    USBWakeUp_IRQHandler                     0x0800011b   Thumb Code     0  startup_stm32f10x_md.o(.text)
    USB_HP_CAN1_TX_IRQHandler                0x0800011b   Thumb Code     0  startup_stm32f10x_md.o(.text)
    USB_LP_CAN1_RX0_IRQHandler               0x0800011b   Thumb Code     0  startup_stm32f10x_md.o(.text)
    WWDG_IRQHandler                          0x0800011b   Thumb Code     0  startup_stm32f10x_md.o(.text)
    rt_hw_interrupt_disable                  0x08000125   Thumb Code     8  context_rvds.o(.text)
    rt_hw_interrupt_enable                   0x0800012d   Thumb Code     6  context_rvds.o(.text)
    rt_hw_context_switch                     0x08000133   Thumb Code    32  context_rvds.o(.text)
    rt_hw_context_switch_interrupt           0x08000133   Thumb Code     0  context_rvds.o(.text)
    PendSV_Handler                           0x08000153   Thumb Code    60  context_rvds.o(.text)
    rt_hw_context_switch_to                  0x0800018f   Thumb Code    56  context_rvds.o(.text)
    rt_hw_interrupt_thread_switch            0x080001c7   Thumb Code     2  context_rvds.o(.text)
    HardFault_Handler                        0x080001c9   Thumb Code    52  context_rvds.o(.text)
    __aeabi_fadd                             0x08000219   Thumb Code   164  fadd.o(.text)
    __aeabi_fsub                             0x080002bd   Thumb Code     6  fadd.o(.text)
    __aeabi_frsub                            0x080002c3   Thumb Code     6  fadd.o(.text)
    __aeabi_fmul                             0x080002c9   Thumb Code   100  fmul.o(.text)
    __aeabi_dmul                             0x0800032d   Thumb Code   228  dmul.o(.text)
    __aeabi_i2f                              0x08000411   Thumb Code    18  fflti.o(.text)
    __aeabi_f2uiz                            0x08000423   Thumb Code    40  ffixui.o(.text)
    __aeabi_f2d                              0x0800044b   Thumb Code    38  f2d.o(.text)
    __aeabi_d2f                              0x08000471   Thumb Code    56  d2f.o(.text)
    __aeabi_cfcmpeq                          0x080004a9   Thumb Code     0  cfcmple.o(.text)
    __aeabi_cfcmple                          0x080004a9   Thumb Code    20  cfcmple.o(.text)
    __aeabi_cfrcmple                         0x080004bd   Thumb Code    20  cfrcmple.o(.text)
    __aeabi_uidiv                            0x080004d1   Thumb Code     0  uidiv.o(.text)
    __aeabi_uidivmod                         0x080004d1   Thumb Code    44  uidiv.o(.text)
    __aeabi_uldivmod                         0x080004fd   Thumb Code    98  uldiv.o(.text)
    __I$use$fp                               0x0800055f   Thumb Code     0  iusefp.o(.text)
    _float_round                             0x0800055f   Thumb Code    18  fepilogue.o(.text)
    _float_epilogue                          0x08000571   Thumb Code    92  fepilogue.o(.text)
    _double_round                            0x080005cd   Thumb Code    30  depilogue.o(.text)
    _double_epilogue                         0x080005eb   Thumb Code   156  depilogue.o(.text)
    __aeabi_dadd                             0x08000687   Thumb Code   322  dadd.o(.text)
    __aeabi_dsub                             0x080007c9   Thumb Code     6  dadd.o(.text)
    __aeabi_drsub                            0x080007cf   Thumb Code     6  dadd.o(.text)
    __aeabi_ddiv                             0x080007d5   Thumb Code   222  ddiv.o(.text)
    __aeabi_d2ulz                            0x080008b3   Thumb Code    48  dfixul.o(.text)
    __aeabi_cdrcmple                         0x080008e5   Thumb Code    48  cdrcmple.o(.text)
    __scatterload                            0x08000915   Thumb Code    28  init.o(.text)
    __scatterload_rt2                        0x08000915   Thumb Code     0  init.o(.text)
    __aeabi_llsl                             0x08000939   Thumb Code    30  llshl.o(.text)
    _ll_shift_l                              0x08000939   Thumb Code     0  llshl.o(.text)
    __aeabi_llsr                             0x08000957   Thumb Code    32  llushr.o(.text)
    _ll_ushift_r                             0x08000957   Thumb Code     0  llushr.o(.text)
    __aeabi_lasr                             0x08000977   Thumb Code    36  llsshr.o(.text)
    _ll_sshift_r                             0x08000977   Thumb Code     0  llsshr.o(.text)
    main                                     0x0800099b   Thumb Code    10  components.o(i.$Sub$$main)
    ADC1_2_IRQHandler                        0x080009a5   Thumb Code    14  stm32f10x_it.o(i.ADC1_2_IRQHandler)
    ADC_GetConversionValue                   0x080009bd   Thumb Code     8  stm32f10x_adc.o(i.ADC_GetConversionValue)
    BusFault_Handler                         0x080009c5   Thumb Code     4  stm32f10x_it.o(i.BusFault_Handler)
    DMA_Cmd                                  0x080009c9   Thumb Code    24  stm32f10x_dma.o(i.DMA_Cmd)
    DMA_Init                                 0x080009e1   Thumb Code    60  stm32f10x_dma.o(i.DMA_Init)
    DMA_SetCurrDataCounter                   0x08000a1d   Thumb Code     4  stm32f10x_dma.o(i.DMA_SetCurrDataCounter)
    DS18B20_Check                            0x08000a21   Thumb Code   100  led.o(i.DS18B20_Check)
    DS18B20_Get_Temp                         0x08000a89   Thumb Code   126  led.o(i.DS18B20_Get_Temp)
    DS18B20_Init                             0x08000b0d   Thumb Code    54  led.o(i.DS18B20_Init)
    DS18B20_Read_Bit                         0x08000b49   Thumb Code   100  led.o(i.DS18B20_Read_Bit)
    DS18B20_Read_Byte                        0x08000bb1   Thumb Code    34  led.o(i.DS18B20_Read_Byte)
    DS18B20_Rst                              0x08000bd5   Thumb Code    56  led.o(i.DS18B20_Rst)
    DS18B20_Start                            0x08000c11   Thumb Code    24  led.o(i.DS18B20_Start)
    DS18B20_Write_Byte                       0x08000c29   Thumb Code   106  led.o(i.DS18B20_Write_Byte)
    DebugMon_Handler                         0x08000c99   Thumb Code     2  stm32f10x_it.o(i.DebugMon_Handler)
    Delay_ms                                 0x08000c9b   Thumb Code    24  delay.o(i.Delay_ms)
    Delay_s                                  0x08000cb3   Thumb Code    24  delay.o(i.Delay_s)
    Delay_us                                 0x08000ccb   Thumb Code    46  delay.o(i.Delay_us)
    GPIO_Init                                0x08000cf9   Thumb Code   278  stm32f10x_gpio.o(i.GPIO_Init)
    GPIO_ReadInputDataBit                    0x08000e0f   Thumb Code    18  stm32f10x_gpio.o(i.GPIO_ReadInputDataBit)
    GPIO_ResetBits                           0x08000e21   Thumb Code     4  stm32f10x_gpio.o(i.GPIO_ResetBits)
    GPIO_SetBits                             0x08000e25   Thumb Code     4  stm32f10x_gpio.o(i.GPIO_SetBits)
    GPIO_WriteBit                            0x08000e29   Thumb Code    10  stm32f10x_gpio.o(i.GPIO_WriteBit)
    MemManage_Handler                        0x08000e33   Thumb Code     4  stm32f10x_it.o(i.MemManage_Handler)
    MyDMA_Init                               0x08000e39   Thumb Code    74  mydma.o(i.MyDMA_Init)
    NMI_Handler                              0x08000e91   Thumb Code     2  stm32f10x_it.o(i.NMI_Handler)
    NVIC_Init                                0x08000e95   Thumb Code   100  misc.o(i.NVIC_Init)
    NVIC_PriorityGroupConfig                 0x08000f05   Thumb Code    10  misc.o(i.NVIC_PriorityGroupConfig)
    OLED_Clear                               0x08000f19   Thumb Code    42  oled.o(i.OLED_Clear)
    OLED_I2C_Init                            0x08000f45   Thumb Code   132  oled.o(i.OLED_I2C_Init)
    OLED_I2C_SendByte                        0x08000fcd   Thumb Code    80  oled.o(i.OLED_I2C_SendByte)
    OLED_I2C_Start                           0x08001021   Thumb Code    48  oled.o(i.OLED_I2C_Start)
    OLED_I2C_Stop                            0x08001055   Thumb Code    36  oled.o(i.OLED_I2C_Stop)
    OLED_Init                                0x0800107d   Thumb Code   174  oled.o(i.OLED_Init)
    OLED_SetCursor                           0x0800112b   Thumb Code    34  oled.o(i.OLED_SetCursor)
    OLED_ShowChar                            0x0800114d   Thumb Code   110  oled.o(i.OLED_ShowChar)
    OLED_ShowString                          0x080011c1   Thumb Code    40  oled.o(i.OLED_ShowString)
    OLED_WriteCommand                        0x080011e9   Thumb Code    32  oled.o(i.OLED_WriteCommand)
    OLED_WriteData                           0x08001209   Thumb Code    32  oled.o(i.OLED_WriteData)
    PID_Calc                                 0x08001229   Thumb Code   206  pid.o(i.PID_Calc)
    RCC_AHBPeriphClockCmd                    0x080012f9   Thumb Code    26  stm32f10x_rcc.o(i.RCC_AHBPeriphClockCmd)
    RCC_APB1PeriphClockCmd                   0x08001319   Thumb Code    26  stm32f10x_rcc.o(i.RCC_APB1PeriphClockCmd)
    RCC_APB2PeriphClockCmd                   0x08001339   Thumb Code    26  stm32f10x_rcc.o(i.RCC_APB2PeriphClockCmd)
    RCC_GetClocksFreq                        0x08001359   Thumb Code   192  stm32f10x_rcc.o(i.RCC_GetClocksFreq)
    SVC_Handler                              0x0800142d   Thumb Code     2  stm32f10x_it.o(i.SVC_Handler)
    Serial_SendByte                          0x08001431   Thumb Code    28  serial.o(i.Serial_SendByte)
    Serial_SendString                        0x08001451   Thumb Code    28  serial.o(i.Serial_SendString)
    Serial_init                              0x0800146d   Thumb Code   188  serial.o(i.Serial_init)
    SysTick_Handler                          0x08001619   Thumb Code    16  board.o(i.SysTick_Handler)
    SystemCoreClockUpdate                    0x08001629   Thumb Code   142  system_stm32f10x.o(i.SystemCoreClockUpdate)
    SystemInit                               0x080016cd   Thumb Code    78  system_stm32f10x.o(i.SystemInit)
    TIM3_PWM_Init                            0x0800172d   Thumb Code   122  pwm.o(i.TIM3_PWM_Init)
    TIM4_IRQHandler                          0x080017b1   Thumb Code   102  main.o(i.TIM4_IRQHandler)
    TIM4_Init                                0x0800182d   Thumb Code    96  timer.o(i.TIM4_Init)
    TIM_ClearITPendingBit                    0x08001891   Thumb Code     6  stm32f10x_tim.o(i.TIM_ClearITPendingBit)
    TIM_Cmd                                  0x08001897   Thumb Code    24  stm32f10x_tim.o(i.TIM_Cmd)
    TIM_GetITStatus                          0x080018af   Thumb Code    34  stm32f10x_tim.o(i.TIM_GetITStatus)
    TIM_ITConfig                             0x080018d1   Thumb Code    18  stm32f10x_tim.o(i.TIM_ITConfig)
    TIM_InternalClockConfig                  0x080018e3   Thumb Code    12  stm32f10x_tim.o(i.TIM_InternalClockConfig)
    TIM_OC2Init                              0x080018f1   Thumb Code   154  stm32f10x_tim.o(i.TIM_OC2Init)
    TIM_OC2PreloadConfig                     0x08001995   Thumb Code    26  stm32f10x_tim.o(i.TIM_OC2PreloadConfig)
    TIM_SetCompare2                          0x080019af   Thumb Code     4  stm32f10x_tim.o(i.TIM_SetCompare2)
    TIM_TimeBaseInit                         0x080019b5   Thumb Code   122  stm32f10x_tim.o(i.TIM_TimeBaseInit)
    USART1_IRQHandler                        0x08001a59   Thumb Code   198  serial.o(i.USART1_IRQHandler)
    USART_Cmd                                0x08001b51   Thumb Code    24  stm32f10x_usart.o(i.USART_Cmd)
    USART_DMACmd                             0x08001b69   Thumb Code    18  stm32f10x_usart.o(i.USART_DMACmd)
    USART_GetFlagStatus                      0x08001b7b   Thumb Code    26  stm32f10x_usart.o(i.USART_GetFlagStatus)
    USART_ITConfig                           0x08001b95   Thumb Code    74  stm32f10x_usart.o(i.USART_ITConfig)
    USART_Init                               0x08001be1   Thumb Code   210  stm32f10x_usart.o(i.USART_Init)
    USART_SendData                           0x08001cb9   Thumb Code     8  stm32f10x_usart.o(i.USART_SendData)
    UsageFault_Handler                       0x08001cc1   Thumb Code     4  stm32f10x_it.o(i.UsageFault_Handler)
    __0snprintf                              0x08001cf5   Thumb Code    44  printfa.o(i.__0snprintf)
    __1snprintf                              0x08001cf5   Thumb Code     0  printfa.o(i.__0snprintf)
    __2snprintf                              0x08001cf5   Thumb Code     0  printfa.o(i.__0snprintf)
    __c89snprintf                            0x08001cf5   Thumb Code     0  printfa.o(i.__0snprintf)
    snprintf                                 0x08001cf5   Thumb Code     0  printfa.o(i.__0snprintf)
    __rt_ffs                                 0x08001d25   Thumb Code    70  kservice.o(i.__rt_ffs)
    __scatterload_copy                       0x08001d71   Thumb Code    14  handlers.o(i.__scatterload_copy)
    __scatterload_null                       0x08001d7f   Thumb Code     2  handlers.o(i.__scatterload_null)
    __scatterload_zeroinit                   0x08001d81   Thumb Code    14  handlers.o(i.__scatterload_zeroinit)
    alarm_gpio_init                          0x08002759   Thumb Code    50  alarm.o(i.alarm_gpio_init)
    bujin_GPIO_Init                          0x080027c9   Thumb Code    66  bujin_gpio.o(i.bujin_GPIO_Init)
    bujin_SetDir                             0x08002811   Thumb Code    32  bujin_gpio.o(i.bujin_SetDir)
    bujin_step                               0x08002835   Thumb Code    30  bujin_gpio.o(i.bujin_step)
    hardware_Init                            0x08002859   Thumb Code    82  main.o(i.hardware_Init)
    $Super$$main                             0x080028c5   Thumb Code   218  main.o(i.main)
    main_thread_entry                        0x080029dd   Thumb Code    14  components.o(i.main_thread_entry)
    pid_Init                                 0x080029eb   Thumb Code    22  pid.o(i.pid_Init)
    rt_application_init                      0x08002c11   Thumb Code    32  components.o(i.rt_application_init)
    rt_components_board_init                 0x08002c3d   Thumb Code    20  components.o(i.rt_components_board_init)
    rt_components_init                       0x08002c59   Thumb Code    20  components.o(i.rt_components_init)
    rt_enter_critical                        0x08002c75   Thumb Code    28  scheduler.o(i.rt_enter_critical)
    rt_exit_critical                         0x08002c95   Thumb Code    60  scheduler.o(i.rt_exit_critical)
    rt_free                                  0x08002cd9   Thumb Code   128  mem.o(i.rt_free)
    rt_heap_begin_get                        0x08002db9   Thumb Code     4  board.o(i.rt_heap_begin_get)
    rt_heap_end_get                          0x08002dc1   Thumb Code     4  board.o(i.rt_heap_end_get)
    rt_hw_board_init                         0x08002dc9   Thumb Code    48  board.o(i.rt_hw_board_init)
    rt_hw_console_output                     0x08002dfd   Thumb Code     2  kservice.o(i.rt_hw_console_output)
    rt_hw_hard_fault_exception               0x08002e01   Thumb Code   190  cpuport.o(i.rt_hw_hard_fault_exception)
    rt_hw_stack_init                         0x08003001   Thumb Code    70  cpuport.o(i.rt_hw_stack_init)
    rt_interrupt_enter                       0x0800304d   Thumb Code    26  irq.o(i.rt_interrupt_enter)
    rt_interrupt_leave                       0x0800306d   Thumb Code    26  irq.o(i.rt_interrupt_leave)
    rt_kprintf                               0x08003121   Thumb Code    44  kservice.o(i.rt_kprintf)
    rt_malloc                                0x080031f1   Thumb Code   336  mem.o(i.rt_malloc)
    rt_memset                                0x0800335d   Thumb Code    72  kservice.o(i.rt_memset)
    rt_object_allocate                       0x080033a5   Thumb Code    84  object.o(i.rt_object_allocate)
    rt_object_delete                         0x080033f9   Thumb Code    36  object.o(i.rt_object_delete)
    rt_object_detach                         0x0800341d   Thumb Code    30  object.o(i.rt_object_detach)
    rt_object_get_information                0x0800343d   Thumb Code    36  object.o(i.rt_object_get_information)
    rt_object_init                           0x08003465   Thumb Code    86  object.o(i.rt_object_init)
    rt_object_is_systemobject                0x080034bb   Thumb Code    18  object.o(i.rt_object_is_systemobject)
    rt_schedule                              0x080034cd   Thumb Code   106  scheduler.o(i.rt_schedule)
    rt_schedule_insert_thread                0x08003551   Thumb Code    72  scheduler.o(i.rt_schedule_insert_thread)
    rt_schedule_remove_thread                0x080035a1   Thumb Code    76  scheduler.o(i.rt_schedule_remove_thread)
    rt_sem_init                              0x080035f5   Thumb Code    38  ipc.o(i.rt_sem_init)
    rt_sem_release                           0x0800361b   Thumb Code    82  ipc.o(i.rt_sem_release)
    rt_sem_take                              0x0800366d   Thumb Code   116  ipc.o(i.rt_sem_take)
    rt_show_version                          0x080036e1   Thumb Code    38  kservice.o(i.rt_show_version)
    rt_strncpy                               0x08003791   Thumb Code    52  kservice.o(i.rt_strncpy)
    rt_system_heap_init                      0x080037c5   Thumb Code   160  mem.o(i.rt_system_heap_init)
    rt_system_scheduler_init                 0x080038bd   Thumb Code    52  scheduler.o(i.rt_system_scheduler_init)
    rt_system_scheduler_start                0x08003909   Thumb Code    36  scheduler.o(i.rt_system_scheduler_start)
    rt_system_timer_init                     0x08003939   Thumb Code    24  timer_1.o(i.rt_system_timer_init)
    rt_system_timer_thread_init              0x08003955   Thumb Code     2  timer_1.o(i.rt_system_timer_thread_init)
    rt_thread_create                         0x08003957   Thumb Code    80  thread.o(i.rt_thread_create)
    rt_thread_delay                          0x080039a7   Thumb Code    12  thread.o(i.rt_thread_delay)
    rt_thread_exit                           0x080039b5   Thumb Code    78  thread.o(i.rt_thread_exit)
    rt_thread_idle_excute                    0x08003a15   Thumb Code    92  idle.o(i.rt_thread_idle_excute)
    rt_thread_idle_init                      0x08003a75   Thumb Code    38  idle.o(i.rt_thread_idle_init)
    rt_thread_init                           0x08003ab1   Thumb Code    52  thread.o(i.rt_thread_init)
    rt_thread_resume                         0x08003ae5   Thumb Code    60  thread.o(i.rt_thread_resume)
    rt_thread_self                           0x08003b21   Thumb Code     6  thread.o(i.rt_thread_self)
    rt_thread_sleep                          0x08003b2d   Thumb Code    62  thread.o(i.rt_thread_sleep)
    rt_thread_startup                        0x08003b71   Thumb Code    44  thread.o(i.rt_thread_startup)
    rt_thread_suspend                        0x08003b9d   Thumb Code    68  thread.o(i.rt_thread_suspend)
    rt_thread_timeout                        0x08003be1   Thumb Code    32  thread.o(i.rt_thread_timeout)
    rt_thread_yield                          0x08003c01   Thumb Code    92  thread.o(i.rt_thread_yield)
    rt_tick_get                              0x08003c65   Thumb Code     6  clock.o(i.rt_tick_get)
    rt_tick_increase                         0x08003c71   Thumb Code    42  clock.o(i.rt_tick_increase)
    rt_timer_check                           0x08003ca1   Thumb Code   160  timer_1.o(i.rt_timer_check)
    rt_timer_control                         0x08003d45   Thumb Code    98  timer_1.o(i.rt_timer_control)
    rt_timer_detach                          0x08003da7   Thumb Code    40  timer_1.o(i.rt_timer_detach)
    rt_timer_init                            0x08003dcf   Thumb Code    46  timer_1.o(i.rt_timer_init)
    rt_timer_start                           0x08003dfd   Thumb Code   226  timer_1.o(i.rt_timer_start)
    rt_timer_stop                            0x08003ee9   Thumb Code    48  timer_1.o(i.rt_timer_stop)
    rt_vsnprintf                             0x08003f19   Thumb Code   824  kservice.o(i.rt_vsnprintf)
    rtthread_startup                         0x08004269   Thumb Code    42  components.o(i.rtthread_startup)
    OLED_F8x16                               0x0800438c   Data        1520  oled.o(.constdata)
    __lowest_bit_bitmap                      0x0800497c   Data         256  kservice.o(.constdata)
    __rt_init_rti_start                      0x08004aa0   Data           4  components.o(.rti_fn.0)
    __rt_init_rti_board_start                0x08004aa4   Data           4  components.o(.rti_fn.0.end)
    __rt_init_rti_board_end                  0x08004aa8   Data           4  components.o(.rti_fn.1.end)
    __rt_init_rti_end                        0x08004aac   Data           4  components.o(.rti_fn.6.end)
    Region$$Table$$Base                      0x08004ab0   Number         0  anon$$obj.o(Region$$Table)
    Region$$Table$$Limit                     0x08004ad0   Number         0  anon$$obj.o(Region$$Table)
    ADC2ConvertedValue                       0x20000000   Data           2  stm32f10x_it.o(.data)
    SystemCoreClock                          0x20000004   Data           4  system_stm32f10x.o(.data)
    AHBPrescTable                            0x20000008   Data          16  system_stm32f10x.o(.data)
    temp                                     0x2000002c   Data           4  main.o(.data)
    temp_int                                 0x20000030   Data           1  main.o(.data)
    Pid_space                                0x20000034   Data           4  main.o(.data)
    flag_bujin                               0x20000038   Data           1  main.o(.data)
    bujin_dir                                0x20000039   Data           1  main.o(.data)
    bujin_count                              0x2000003c   Data           4  main.o(.data)
    bujin_pos                                0x20000040   Data           4  main.o(.data)
    alarm_signal                             0x20000044   Data           4  main.o(.data)
    bujin_pos_set                            0x20000050   Data           2  serial.o(.data)
    temp_uart_set                            0x20000052   Data           1  serial.o(.data)
    loop_cnt                                 0x20000053   Data           1  serial.o(.data)
    rt_interrupt_nest                        0x20000058   Data           1  irq.o(.data)
    rt_thread_ready_priority_group           0x200000b4   Data           4  scheduler.o(.data)
    rt_current_thread                        0x200000bc   Data           4  scheduler.o(.data)
    rt_current_priority                      0x200000c0   Data           1  scheduler.o(.data)
    rt_thread_defunct                        0x200000c4   Data           8  scheduler.o(.data)
    rt_interrupt_from_thread                 0x200000d8   Data           4  cpuport.o(.data)
    rt_interrupt_to_thread                   0x200000dc   Data           4  cpuport.o(.data)
    rt_thread_switch_interrupt_flag          0x200000e0   Data           4  cpuport.o(.data)
    OLED_Buffer                              0x200000e8   Data          20  main.o(.bss)
    Temp_Pid                                 0x200000fc   Data          56  main.o(.bss)
    Tx_Buffer                                0x20000134   Data          20  main.o(.bss)
    Serial_RxPacket                          0x20001148   Data          50  serial.o(.bss)
    rt_thread_priority_table                 0x20001394   Data          64  scheduler.o(.bss)
    __initial_sp                             0x200017d8   Data           0  startup_stm32f10x_md.o(STACK)



==============================================================================

Memory Map of the image

  Image Entry point : 0x080000ed

  Load Region LR_IROM1 (Base: 0x08000000, Size: 0x00004bb8, Max: 0x00010000, ABSOLUTE)

    Execution Region ER_IROM1 (Exec base: 0x08000000, Load base: 0x08000000, Size: 0x00004ad0, Max: 0x00010000, ABSOLUTE)

    Exec Addr    Load Addr    Size         Type   Attr      Idx    E Section Name        Object

    0x08000000   0x08000000   0x000000ec   Data   RO         3157    RESET               startup_stm32f10x_md.o
    0x080000ec   0x080000ec   0x00000000   Code   RO         4618  * .ARM.Collect$$$$00000000  mc_w.l(entry.o)
    0x080000ec   0x080000ec   0x00000004   Code   RO         4900    .ARM.Collect$$$$00000001  mc_w.l(entry2.o)
    0x080000f0   0x080000f0   0x00000004   Code   RO         4903    .ARM.Collect$$$$00000004  mc_w.l(entry5.o)
    0x080000f4   0x080000f4   0x00000000   Code   RO         4905    .ARM.Collect$$$$00000008  mc_w.l(entry7b.o)
    0x080000f4   0x080000f4   0x00000000   Code   RO         4907    .ARM.Collect$$$$0000000A  mc_w.l(entry8b.o)
    0x080000f4   0x080000f4   0x00000008   Code   RO         4908    .ARM.Collect$$$$0000000B  mc_w.l(entry9a.o)
    0x080000fc   0x080000fc   0x00000000   Code   RO         4910    .ARM.Collect$$$$0000000D  mc_w.l(entry10a.o)
    0x080000fc   0x080000fc   0x00000000   Code   RO         4912    .ARM.Collect$$$$0000000F  mc_w.l(entry11a.o)
    0x080000fc   0x080000fc   0x00000004   Code   RO         4901    .ARM.Collect$$$$00002712  mc_w.l(entry2.o)
    0x08000100   0x08000100   0x00000024   Code   RO         3158    .text               startup_stm32f10x_md.o
    0x08000124   0x08000124   0x000000f4   Code   RO         4575    .text               context_rvds.o
    0x08000218   0x08000218   0x000000b0   Code   RO         4882    .text               mf_w.l(fadd.o)
    0x080002c8   0x080002c8   0x00000064   Code   RO         4884    .text               mf_w.l(fmul.o)
    0x0800032c   0x0800032c   0x000000e4   Code   RO         4886    .text               mf_w.l(dmul.o)
    0x08000410   0x08000410   0x00000012   Code   RO         4888    .text               mf_w.l(fflti.o)
    0x08000422   0x08000422   0x00000028   Code   RO         4890    .text               mf_w.l(ffixui.o)
    0x0800044a   0x0800044a   0x00000026   Code   RO         4892    .text               mf_w.l(f2d.o)
    0x08000470   0x08000470   0x00000038   Code   RO         4894    .text               mf_w.l(d2f.o)
    0x080004a8   0x080004a8   0x00000014   Code   RO         4896    .text               mf_w.l(cfcmple.o)
    0x080004bc   0x080004bc   0x00000014   Code   RO         4898    .text               mf_w.l(cfrcmple.o)
    0x080004d0   0x080004d0   0x0000002c   Code   RO         4917    .text               mc_w.l(uidiv.o)
    0x080004fc   0x080004fc   0x00000062   Code   RO         4919    .text               mc_w.l(uldiv.o)
    0x0800055e   0x0800055e   0x00000000   Code   RO         4921    .text               mc_w.l(iusefp.o)
    0x0800055e   0x0800055e   0x0000006e   Code   RO         4922    .text               mf_w.l(fepilogue.o)
    0x080005cc   0x080005cc   0x000000ba   Code   RO         4924    .text               mf_w.l(depilogue.o)
    0x08000686   0x08000686   0x0000014e   Code   RO         4926    .text               mf_w.l(dadd.o)
    0x080007d4   0x080007d4   0x000000de   Code   RO         4928    .text               mf_w.l(ddiv.o)
    0x080008b2   0x080008b2   0x00000030   Code   RO         4930    .text               mf_w.l(dfixul.o)
    0x080008e2   0x080008e2   0x00000002   PAD
    0x080008e4   0x080008e4   0x00000030   Code   RO         4932    .text               mf_w.l(cdrcmple.o)
    0x08000914   0x08000914   0x00000024   Code   RO         4934    .text               mc_w.l(init.o)
    0x08000938   0x08000938   0x0000001e   Code   RO         4937    .text               mc_w.l(llshl.o)
    0x08000956   0x08000956   0x00000020   Code   RO         4939    .text               mc_w.l(llushr.o)
    0x08000976   0x08000976   0x00000024   Code   RO         4941    .text               mc_w.l(llsshr.o)
    0x0800099a   0x0800099a   0x0000000a   Code   RO         3656    i.$Sub$$main        components.o
    0x080009a4   0x080009a4   0x00000018   Code   RO           17    i.ADC1_2_IRQHandler  stm32f10x_it.o
    0x080009bc   0x080009bc   0x00000008   Code   RO          239    i.ADC_GetConversionValue  stm32f10x_adc.o
    0x080009c4   0x080009c4   0x00000004   Code   RO           18    i.BusFault_Handler  stm32f10x_it.o
    0x080009c8   0x080009c8   0x00000018   Code   RO          915    i.DMA_Cmd           stm32f10x_dma.o
    0x080009e0   0x080009e0   0x0000003c   Code   RO          921    i.DMA_Init          stm32f10x_dma.o
    0x08000a1c   0x08000a1c   0x00000004   Code   RO          922    i.DMA_SetCurrDataCounter  stm32f10x_dma.o
    0x08000a20   0x08000a20   0x00000068   Code   RO         3335    i.DS18B20_Check     led.o
    0x08000a88   0x08000a88   0x00000084   Code   RO         3336    i.DS18B20_Get_Temp  led.o
    0x08000b0c   0x08000b0c   0x0000003c   Code   RO         3337    i.DS18B20_Init      led.o
    0x08000b48   0x08000b48   0x00000068   Code   RO         3338    i.DS18B20_Read_Bit  led.o
    0x08000bb0   0x08000bb0   0x00000022   Code   RO         3339    i.DS18B20_Read_Byte  led.o
    0x08000bd2   0x08000bd2   0x00000002   PAD
    0x08000bd4   0x08000bd4   0x0000003c   Code   RO         3340    i.DS18B20_Rst       led.o
    0x08000c10   0x08000c10   0x00000018   Code   RO         3341    i.DS18B20_Start     led.o
    0x08000c28   0x08000c28   0x00000070   Code   RO         3342    i.DS18B20_Write_Byte  led.o
    0x08000c98   0x08000c98   0x00000002   Code   RO           19    i.DebugMon_Handler  stm32f10x_it.o
    0x08000c9a   0x08000c9a   0x00000018   Code   RO         3299    i.Delay_ms          delay.o
    0x08000cb2   0x08000cb2   0x00000018   Code   RO         3300    i.Delay_s           delay.o
    0x08000cca   0x08000cca   0x0000002e   Code   RO         3301    i.Delay_us          delay.o
    0x08000cf8   0x08000cf8   0x00000116   Code   RO         1339    i.GPIO_Init         stm32f10x_gpio.o
    0x08000e0e   0x08000e0e   0x00000012   Code   RO         1343    i.GPIO_ReadInputDataBit  stm32f10x_gpio.o
    0x08000e20   0x08000e20   0x00000004   Code   RO         1346    i.GPIO_ResetBits    stm32f10x_gpio.o
    0x08000e24   0x08000e24   0x00000004   Code   RO         1347    i.GPIO_SetBits      stm32f10x_gpio.o
    0x08000e28   0x08000e28   0x0000000a   Code   RO         1350    i.GPIO_WriteBit     stm32f10x_gpio.o
    0x08000e32   0x08000e32   0x00000004   Code   RO           20    i.MemManage_Handler  stm32f10x_it.o
    0x08000e36   0x08000e36   0x00000002   PAD
    0x08000e38   0x08000e38   0x00000058   Code   RO         3443    i.MyDMA_Init        mydma.o
    0x08000e90   0x08000e90   0x00000002   Code   RO           21    i.NMI_Handler       stm32f10x_it.o
    0x08000e92   0x08000e92   0x00000002   PAD
    0x08000e94   0x08000e94   0x00000070   Code   RO          188    i.NVIC_Init         misc.o
    0x08000f04   0x08000f04   0x00000014   Code   RO          189    i.NVIC_PriorityGroupConfig  misc.o
    0x08000f18   0x08000f18   0x0000002a   Code   RO         3492    i.OLED_Clear        oled.o
    0x08000f42   0x08000f42   0x00000002   PAD
    0x08000f44   0x08000f44   0x00000088   Code   RO         3493    i.OLED_I2C_Init     oled.o
    0x08000fcc   0x08000fcc   0x00000054   Code   RO         3494    i.OLED_I2C_SendByte  oled.o
    0x08001020   0x08001020   0x00000034   Code   RO         3495    i.OLED_I2C_Start    oled.o
    0x08001054   0x08001054   0x00000028   Code   RO         3496    i.OLED_I2C_Stop     oled.o
    0x0800107c   0x0800107c   0x000000ae   Code   RO         3497    i.OLED_Init         oled.o
    0x0800112a   0x0800112a   0x00000022   Code   RO         3499    i.OLED_SetCursor    oled.o
    0x0800114c   0x0800114c   0x00000074   Code   RO         3501    i.OLED_ShowChar     oled.o
    0x080011c0   0x080011c0   0x00000028   Code   RO         3505    i.OLED_ShowString   oled.o
    0x080011e8   0x080011e8   0x00000020   Code   RO         3506    i.OLED_WriteCommand  oled.o
    0x08001208   0x08001208   0x00000020   Code   RO         3507    i.OLED_WriteData    oled.o
    0x08001228   0x08001228   0x000000ce   Code   RO         3600    i.PID_Calc          pid.o
    0x080012f6   0x080012f6   0x00000002   PAD
    0x080012f8   0x080012f8   0x00000020   Code   RO         1754    i.RCC_AHBPeriphClockCmd  stm32f10x_rcc.o
    0x08001318   0x08001318   0x00000020   Code   RO         1755    i.RCC_APB1PeriphClockCmd  stm32f10x_rcc.o
    0x08001338   0x08001338   0x00000020   Code   RO         1757    i.RCC_APB2PeriphClockCmd  stm32f10x_rcc.o
    0x08001358   0x08001358   0x000000d4   Code   RO         1765    i.RCC_GetClocksFreq  stm32f10x_rcc.o
    0x0800142c   0x0800142c   0x00000002   Code   RO           22    i.SVC_Handler       stm32f10x_it.o
    0x0800142e   0x0800142e   0x00000002   PAD
    0x08001430   0x08001430   0x00000020   Code   RO         3401    i.Serial_SendByte   serial.o
    0x08001450   0x08001450   0x0000001c   Code   RO         3402    i.Serial_SendString  serial.o
    0x0800146c   0x0800146c   0x000000c4   Code   RO         3403    i.Serial_init       serial.o
    0x08001530   0x08001530   0x00000008   Code   RO          154    i.SetSysClock       system_stm32f10x.o
    0x08001538   0x08001538   0x000000e0   Code   RO          155    i.SetSysClockTo72   system_stm32f10x.o
    0x08001618   0x08001618   0x00000010   Code   RO         3261    i.SysTick_Handler   board.o
    0x08001628   0x08001628   0x000000a4   Code   RO          156    i.SystemCoreClockUpdate  system_stm32f10x.o
    0x080016cc   0x080016cc   0x00000060   Code   RO          157    i.SystemInit        system_stm32f10x.o
    0x0800172c   0x0800172c   0x00000084   Code   RO         3389    i.TIM3_PWM_Init     pwm.o
    0x080017b0   0x080017b0   0x0000007c   Code   RO         3162    i.TIM4_IRQHandler   main.o
    0x0800182c   0x0800182c   0x00000064   Code   RO         3323    i.TIM4_Init         timer.o
    0x08001890   0x08001890   0x00000006   Code   RO         2384    i.TIM_ClearITPendingBit  stm32f10x_tim.o
    0x08001896   0x08001896   0x00000018   Code   RO         2389    i.TIM_Cmd           stm32f10x_tim.o
    0x080018ae   0x080018ae   0x00000022   Code   RO         2410    i.TIM_GetITStatus   stm32f10x_tim.o
    0x080018d0   0x080018d0   0x00000012   Code   RO         2414    i.TIM_ITConfig      stm32f10x_tim.o
    0x080018e2   0x080018e2   0x0000000c   Code   RO         2416    i.TIM_InternalClockConfig  stm32f10x_tim.o
    0x080018ee   0x080018ee   0x00000002   PAD
    0x080018f0   0x080018f0   0x000000a4   Code   RO         2423    i.TIM_OC2Init       stm32f10x_tim.o
    0x08001994   0x08001994   0x0000001a   Code   RO         2426    i.TIM_OC2PreloadConfig  stm32f10x_tim.o
    0x080019ae   0x080019ae   0x00000004   Code   RO         2451    i.TIM_SetCompare2   stm32f10x_tim.o
    0x080019b2   0x080019b2   0x00000002   PAD
    0x080019b4   0x080019b4   0x000000a4   Code   RO         2460    i.TIM_TimeBaseInit  stm32f10x_tim.o
    0x08001a58   0x08001a58   0x000000f8   Code   RO         3404    i.USART1_IRQHandler  serial.o
    0x08001b50   0x08001b50   0x00000018   Code   RO         2925    i.USART_Cmd         stm32f10x_usart.o
    0x08001b68   0x08001b68   0x00000012   Code   RO         2926    i.USART_DMACmd      stm32f10x_usart.o
    0x08001b7a   0x08001b7a   0x0000001a   Code   RO         2928    i.USART_GetFlagStatus  stm32f10x_usart.o
    0x08001b94   0x08001b94   0x0000004a   Code   RO         2931    i.USART_ITConfig    stm32f10x_usart.o
    0x08001bde   0x08001bde   0x00000002   PAD
    0x08001be0   0x08001be0   0x000000d8   Code   RO         2932    i.USART_Init        stm32f10x_usart.o
    0x08001cb8   0x08001cb8   0x00000008   Code   RO         2942    i.USART_SendData    stm32f10x_usart.o
    0x08001cc0   0x08001cc0   0x00000004   Code   RO           23    i.UsageFault_Handler  stm32f10x_it.o
    0x08001cc4   0x08001cc4   0x00000030   Code   RO         3262    i._SysTick_Config   board.o
    0x08001cf4   0x08001cf4   0x00000030   Code   RO         4855    i.__0snprintf       mc_w.l(printfa.o)
    0x08001d24   0x08001d24   0x0000004c   Code   RO         3932    i.__rt_ffs          kservice.o
    0x08001d70   0x08001d70   0x0000000e   Code   RO         4946    i.__scatterload_copy  mc_w.l(handlers.o)
    0x08001d7e   0x08001d7e   0x00000002   Code   RO         4947    i.__scatterload_null  mc_w.l(handlers.o)
    0x08001d80   0x08001d80   0x0000000e   Code   RO         4948    i.__scatterload_zeroinit  mc_w.l(handlers.o)
    0x08001d8e   0x08001d8e   0x00000002   PAD
    0x08001d90   0x08001d90   0x00000184   Code   RO         4861    i._fp_digits        mc_w.l(printfa.o)
    0x08001f14   0x08001f14   0x000006dc   Code   RO         4862    i._printf_core      mc_w.l(printfa.o)
    0x080025f0   0x080025f0   0x00000024   Code   RO         4863    i._printf_post_padding  mc_w.l(printfa.o)
    0x08002614   0x08002614   0x0000002e   Code   RO         4864    i._printf_pre_padding  mc_w.l(printfa.o)
    0x08002642   0x08002642   0x00000002   PAD
    0x08002644   0x08002644   0x00000084   Code   RO         4331    i._rt_thread_init   thread.o
    0x080026c8   0x080026c8   0x00000042   Code   RO         4463    i._rt_timer_init    timer_1.o
    0x0800270a   0x0800270a   0x0000001c   Code   RO         4464    i._rt_timer_remove  timer_1.o
    0x08002726   0x08002726   0x00000016   Code   RO         4865    i._snputc           mc_w.l(printfa.o)
    0x0800273c   0x0800273c   0x0000001c   Code   RO         4332    i._thread_cleanup_execute  thread.o
    0x08002758   0x08002758   0x00000038   Code   RO         3480    i.alarm_gpio_init   alarm.o
    0x08002790   0x08002790   0x00000038   Code   RO         3163    i.alarm_thread_entry  main.o
    0x080027c8   0x080027c8   0x00000048   Code   RO         3456    i.bujin_GPIO_Init   bujin_gpio.o
    0x08002810   0x08002810   0x00000024   Code   RO         3457    i.bujin_SetDir      bujin_gpio.o
    0x08002834   0x08002834   0x00000024   Code   RO         3458    i.bujin_step        bujin_gpio.o
    0x08002858   0x08002858   0x0000006c   Code   RO         3164    i.hardware_Init     main.o
    0x080028c4   0x080028c4   0x00000118   Code   RO         3165    i.main              main.o
    0x080029dc   0x080029dc   0x0000000e   Code   RO         3657    i.main_thread_entry  components.o
    0x080029ea   0x080029ea   0x00000016   Code   RO         3601    i.pid_Init          pid.o
    0x08002a00   0x08002a00   0x00000078   Code   RO         4109    i.plug_holes        mem.o
    0x08002a78   0x08002a78   0x00000198   Code   RO         3934    i.print_number      kservice.o
    0x08002c10   0x08002c10   0x0000002c   Code   RO         3658    i.rt_application_init  components.o
    0x08002c3c   0x08002c3c   0x0000001c   Code   RO         3659    i.rt_components_board_init  components.o
    0x08002c58   0x08002c58   0x0000001c   Code   RO         3660    i.rt_components_init  components.o
    0x08002c74   0x08002c74   0x00000020   Code   RO         4259    i.rt_enter_critical  scheduler.o
    0x08002c94   0x08002c94   0x00000044   Code   RO         4260    i.rt_exit_critical  scheduler.o
    0x08002cd8   0x08002cd8   0x000000e0   Code   RO         4111    i.rt_free           mem.o
    0x08002db8   0x08002db8   0x00000008   Code   RO         3263    i.rt_heap_begin_get  board.o
    0x08002dc0   0x08002dc0   0x00000008   Code   RO         3264    i.rt_heap_end_get   board.o
    0x08002dc8   0x08002dc8   0x00000034   Code   RO         3265    i.rt_hw_board_init  board.o
    0x08002dfc   0x08002dfc   0x00000002   Code   RO         3937    i.rt_hw_console_output  kservice.o
    0x08002dfe   0x08002dfe   0x00000002   PAD
    0x08002e00   0x08002e00   0x00000200   Code   RO         4582    i.rt_hw_hard_fault_exception  cpuport.o
    0x08003000   0x08003000   0x0000004c   Code   RO         4583    i.rt_hw_stack_init  cpuport.o
    0x0800304c   0x0800304c   0x00000020   Code   RO         3905    i.rt_interrupt_enter  irq.o
    0x0800306c   0x0800306c   0x00000020   Code   RO         3907    i.rt_interrupt_leave  irq.o
    0x0800308c   0x0800308c   0x00000014   Code   RO         3765    i.rt_ipc_list_resume  ipc.o
    0x080030a0   0x080030a0   0x0000006e   Code   RO         3767    i.rt_ipc_list_suspend  ipc.o
    0x0800310e   0x0800310e   0x00000010   Code   RO         3768    i.rt_ipc_object_init  ipc.o
    0x0800311e   0x0800311e   0x00000002   PAD
    0x08003120   0x08003120   0x00000030   Code   RO         3938    i.rt_kprintf        kservice.o
    0x08003150   0x08003150   0x00000006   Code   RO         3769    i.rt_list_init      ipc.o
    0x08003156   0x08003156   0x00000006   Code   RO         4261    i.rt_list_init      scheduler.o
    0x0800315c   0x0800315c   0x00000006   Code   RO         4465    i.rt_list_init      timer_1.o
    0x08003162   0x08003162   0x0000000e   Code   RO         4171    i.rt_list_insert_after  object.o
    0x08003170   0x08003170   0x0000000e   Code   RO         4333    i.rt_list_insert_after  thread.o
    0x0800317e   0x0800317e   0x0000000e   Code   RO         4466    i.rt_list_insert_after  timer_1.o
    0x0800318c   0x0800318c   0x0000000e   Code   RO         3770    i.rt_list_insert_before  ipc.o
    0x0800319a   0x0800319a   0x00000010   Code   RO         3771    i.rt_list_isempty   ipc.o
    0x080031aa   0x080031aa   0x00000010   Code   RO         4467    i.rt_list_isempty   timer_1.o
    0x080031ba   0x080031ba   0x00000012   Code   RO         4172    i.rt_list_remove    object.o
    0x080031cc   0x080031cc   0x00000012   Code   RO         4334    i.rt_list_remove    thread.o
    0x080031de   0x080031de   0x00000012   Code   RO         4468    i.rt_list_remove    timer_1.o
    0x080031f0   0x080031f0   0x0000016c   Code   RO         4112    i.rt_malloc         mem.o
    0x0800335c   0x0800335c   0x00000048   Code   RO         3944    i.rt_memset         kservice.o
    0x080033a4   0x080033a4   0x00000054   Code   RO         4173    i.rt_object_allocate  object.o
    0x080033f8   0x080033f8   0x00000024   Code   RO         4174    i.rt_object_delete  object.o
    0x0800341c   0x0800341c   0x0000001e   Code   RO         4175    i.rt_object_detach  object.o
    0x0800343a   0x0800343a   0x00000002   PAD
    0x0800343c   0x0800343c   0x00000028   Code   RO         4177    i.rt_object_get_information  object.o
    0x08003464   0x08003464   0x00000056   Code   RO         4181    i.rt_object_init    object.o
    0x080034ba   0x080034ba   0x00000012   Code   RO         4182    i.rt_object_is_systemobject  object.o
    0x080034cc   0x080034cc   0x00000084   Code   RO         4262    i.rt_schedule       scheduler.o
    0x08003550   0x08003550   0x00000050   Code   RO         4263    i.rt_schedule_insert_thread  scheduler.o
    0x080035a0   0x080035a0   0x00000054   Code   RO         4264    i.rt_schedule_remove_thread  scheduler.o
    0x080035f4   0x080035f4   0x00000026   Code   RO         3784    i.rt_sem_init       ipc.o
    0x0800361a   0x0800361a   0x00000052   Code   RO         3785    i.rt_sem_release    ipc.o
    0x0800366c   0x0800366c   0x00000074   Code   RO         3786    i.rt_sem_take       ipc.o
    0x080036e0   0x080036e0   0x000000b0   Code   RO         3946    i.rt_show_version   kservice.o
    0x08003790   0x08003790   0x00000034   Code   RO         3954    i.rt_strncpy        kservice.o
    0x080037c4   0x080037c4   0x000000f8   Code   RO         4115    i.rt_system_heap_init  mem.o
    0x080038bc   0x080038bc   0x0000004c   Code   RO         4265    i.rt_system_scheduler_init  scheduler.o
    0x08003908   0x08003908   0x00000030   Code   RO         4266    i.rt_system_scheduler_start  scheduler.o
    0x08003938   0x08003938   0x0000001c   Code   RO         4469    i.rt_system_timer_init  timer_1.o
    0x08003954   0x08003954   0x00000002   Code   RO         4470    i.rt_system_timer_thread_init  timer_1.o
    0x08003956   0x08003956   0x00000050   Code   RO         4336    i.rt_thread_create  thread.o
    0x080039a6   0x080039a6   0x0000000c   Code   RO         4337    i.rt_thread_delay   thread.o
    0x080039b2   0x080039b2   0x00000002   PAD
    0x080039b4   0x080039b4   0x00000058   Code   RO         4341    i.rt_thread_exit    thread.o
    0x08003a0c   0x08003a0c   0x00000008   Code   RO         3730    i.rt_thread_idle_entry  idle.o
    0x08003a14   0x08003a14   0x00000060   Code   RO         3731    i.rt_thread_idle_excute  idle.o
    0x08003a74   0x08003a74   0x0000003c   Code   RO         3733    i.rt_thread_idle_init  idle.o
    0x08003ab0   0x08003ab0   0x00000034   Code   RO         4343    i.rt_thread_init    thread.o
    0x08003ae4   0x08003ae4   0x0000003c   Code   RO         4345    i.rt_thread_resume  thread.o
    0x08003b20   0x08003b20   0x0000000c   Code   RO         4346    i.rt_thread_self    thread.o
    0x08003b2c   0x08003b2c   0x00000044   Code   RO         4347    i.rt_thread_sleep   thread.o
    0x08003b70   0x08003b70   0x0000002c   Code   RO         4348    i.rt_thread_startup  thread.o
    0x08003b9c   0x08003b9c   0x00000044   Code   RO         4349    i.rt_thread_suspend  thread.o
    0x08003be0   0x08003be0   0x00000020   Code   RO         4350    i.rt_thread_timeout  thread.o
    0x08003c00   0x08003c00   0x00000064   Code   RO         4351    i.rt_thread_yield   thread.o
    0x08003c64   0x08003c64   0x0000000c   Code   RO         3620    i.rt_tick_get       clock.o
    0x08003c70   0x08003c70   0x00000030   Code   RO         3621    i.rt_tick_increase  clock.o
    0x08003ca0   0x08003ca0   0x000000a4   Code   RO         4471    i.rt_timer_check    timer_1.o
    0x08003d44   0x08003d44   0x00000062   Code   RO         4472    i.rt_timer_control  timer_1.o
    0x08003da6   0x08003da6   0x00000028   Code   RO         4475    i.rt_timer_detach   timer_1.o
    0x08003dce   0x08003dce   0x0000002e   Code   RO         4476    i.rt_timer_init     timer_1.o
    0x08003dfc   0x08003dfc   0x000000ec   Code   RO         4479    i.rt_timer_start    timer_1.o
    0x08003ee8   0x08003ee8   0x00000030   Code   RO         4480    i.rt_timer_stop     timer_1.o
    0x08003f18   0x08003f18   0x00000340   Code   RO         3957    i.rt_vsnprintf      kservice.o
    0x08004258   0x08004258   0x00000004   Code   RO         3661    i.rti_board_end     components.o
    0x0800425c   0x0800425c   0x00000004   Code   RO         3662    i.rti_board_start   components.o
    0x08004260   0x08004260   0x00000004   Code   RO         3663    i.rti_end           components.o
    0x08004264   0x08004264   0x00000004   Code   RO         3664    i.rti_start         components.o
    0x08004268   0x08004268   0x0000002a   Code   RO         3665    i.rtthread_startup  components.o
    0x08004292   0x08004292   0x00000026   Code   RO         3959    i.skip_atoi         kservice.o
    0x080042b8   0x080042b8   0x000000d4   Code   RO         3166    i.temp_thread_entry  main.o
    0x0800438c   0x0800438c   0x000005f0   Data   RO         3508    .constdata          oled.o
    0x0800497c   0x0800497c   0x00000122   Data   RO         3961    .constdata          kservice.o
    0x08004a9e   0x08004a9e   0x00000002   PAD
    0x08004aa0   0x08004aa0   0x00000004   Data   RO         3666    .rti_fn.0           components.o
    0x08004aa4   0x08004aa4   0x00000004   Data   RO         3667    .rti_fn.0.end       components.o
    0x08004aa8   0x08004aa8   0x00000004   Data   RO         3668    .rti_fn.1.end       components.o
    0x08004aac   0x08004aac   0x00000004   Data   RO         3669    .rti_fn.6.end       components.o
    0x08004ab0   0x08004ab0   0x00000020   Data   RO         4944    Region$$Table       anon$$obj.o


    Execution Region RW_IRAM1 (Exec base: 0x20000000, Load base: 0x08004ad0, Size: 0x000017d8, Max: 0x00005000, ABSOLUTE)

    Exec Addr    Load Addr    Size         Type   Attr      Idx    E Section Name        Object

    0x20000000   0x08004ad0   0x00000002   Data   RW           24    .data               stm32f10x_it.o
    0x20000002   0x08004ad2   0x00000002   PAD
    0x20000004   0x08004ad4   0x00000014   Data   RW          158    .data               system_stm32f10x.o
    0x20000018   0x08004ae8   0x00000014   Data   RW         1785    .data               stm32f10x_rcc.o
    0x2000002c   0x08004afc   0x00000024   Data   RW         3168    .data               main.o
    0x20000050   0x08004b20   0x00000004   Data   RW         3406    .data               serial.o
    0x20000054   0x08004b24   0x00000004   Data   RW         3623    .data               clock.o
    0x20000058   0x08004b28   0x00000001   Data   RW         3908    .data               irq.o
    0x20000059   0x08004b29   0x00000003   PAD
    0x2000005c   0x08004b2c   0x00000018   Data   RW         4117    .data               mem.o
    0x20000074   0x08004b44   0x00000040   Data   RW         4184    .data               object.o
    0x200000b4   0x08004b84   0x00000018   Data   RW         4268    .data               scheduler.o
    0x200000cc   0x08004b9c   0x0000000c   Data   RW         4481    .data               timer_1.o
    0x200000d8   0x08004ba8   0x00000010   Data   RW         4584    .data               cpuport.o
    0x200000e8        -       0x00000060   Zero   RW         3167    .bss                main.o
    0x20000148        -       0x00001000   Zero   RW         3266    .bss                board.o
    0x20001148        -       0x00000032   Zero   RW         3405    .bss                serial.o
    0x2000117a   0x08004bb8   0x00000002   PAD
    0x2000117c        -       0x00000178   Zero   RW         3734    .bss                idle.o
    0x200012f4        -       0x00000080   Zero   RW         3960    .bss                kservice.o
    0x20001374        -       0x00000020   Zero   RW         4116    .bss                mem.o
    0x20001394        -       0x00000040   Zero   RW         4267    .bss                scheduler.o
    0x200013d4   0x08004bb8   0x00000004   PAD
    0x200013d8        -       0x00000400   Zero   RW         3155    STACK               startup_stm32f10x_md.o


==============================================================================

Image component sizes


      Code (inc. data)   RO Data    RW Data    ZI Data      Debug   Object Name

        56          6          0          0          0        486   alarm.o
       132         16          0          0       4096       3369   board.o
       144         16          0          0          0       1582   bujin_gpio.o
        60         12          0          4          0       1125   clock.o
       182         28         16          0          0       5600   components.o
       244         28          0          0          0        772   context_rvds.o
         0          0          0          0          0       4572   core_cm3.o
       588        328          0         16          0       3298   cpuport.o
        94          0          0          0          0       1404   delay.o
       164         26          0          0        376       5026   idle.o
       418          0          0          0          0       8121   ipc.o
        64         12          0          1          0       1574   irq.o
      1704        164        290          0        128       8587   kservice.o
       630         30          0          0          0       4408   led.o
       780        160          0         36         96      10066   main.o
       956        224          0         24         32       3836   mem.o
       132         22          0          0          0       1555   misc.o
        88         14          0          0          0        529   mydma.o
       326          4          0         64          0       8028   object.o
       782         22       1520          0          0       6339   oled.o
       228          0          0          0          0       1654   pid.o
       132         10          0          0          0        704   pwm.o
       526         90          0         24         64       8226   scheduler.o
       504         62          0          4         50       3470   serial.o
        36          8        236          0       1024        792   startup_stm32f10x_md.o
         8          0          0          0          0       2657   stm32f10x_adc.o
        88          0          0          0          0       3322   stm32f10x_dma.o
       314          0          0          0          0       4156   stm32f10x_gpio.o
        42         10          0          2          0     270716   stm32f10x_it.o
       308         38          0         20          0       4946   stm32f10x_rcc.o
       452         52          0          0          0       5715   stm32f10x_tim.o
       366          6          0          0          0       5336   stm32f10x_usart.o
       492         50          0         20          0       2849   system_stm32f10x.o
       808         38          0          0          0      11887   thread.o
       100          4          0          0          0        528   timer.o
       810         24          0         12          0      11212   timer_1.o

    ----------------------------------------------------------------------
     12784       1504       2096        232       5872     418447   Object Totals
         0          0         32          0          0          0   (incl. Generated)
        26          0          2          5          6          0   (incl. Padding)

    ----------------------------------------------------------------------

      Code (inc. data)   RO Data    RW Data    ZI Data      Debug   Library Member Name

         0          0          0          0          0          0   entry.o
         0          0          0          0          0          0   entry10a.o
         0          0          0          0          0          0   entry11a.o
         8          4          0          0          0          0   entry2.o
         4          0          0          0          0          0   entry5.o
         0          0          0          0          0          0   entry7b.o
         0          0          0          0          0          0   entry8b.o
         8          4          0          0          0          0   entry9a.o
        30          0          0          0          0          0   handlers.o
        36          8          0          0          0         68   init.o
         0          0          0          0          0          0   iusefp.o
        30          0          0          0          0         68   llshl.o
        36          0          0          0          0         68   llsshr.o
        32          0          0          0          0         68   llushr.o
      2296         84          0          0          0        520   printfa.o
        44          0          0          0          0         80   uidiv.o
        98          0          0          0          0         92   uldiv.o
        48          0          0          0          0         68   cdrcmple.o
        20          0          0          0          0         68   cfcmple.o
        20          0          0          0          0         68   cfrcmple.o
        56          0          0          0          0         88   d2f.o
       334          0          0          0          0        148   dadd.o
       222          0          0          0          0        100   ddiv.o
       186          0          0          0          0        176   depilogue.o
        48          0          0          0          0         68   dfixul.o
       228          0          0          0          0         96   dmul.o
        38          0          0          0          0         68   f2d.o
       176          0          0          0          0        140   fadd.o
       110          0          0          0          0        168   fepilogue.o
        40          0          0          0          0         68   ffixui.o
        18          0          0          0          0         68   fflti.o
       100          0          0          0          0         76   fmul.o

    ----------------------------------------------------------------------
      4272        100          0          0          0       2432   Library Totals
         6          0          0          0          0          0   (incl. Padding)

    ----------------------------------------------------------------------

      Code (inc. data)   RO Data    RW Data    ZI Data      Debug   Library Name

      2622        100          0          0          0        964   mc_w.l
      1644          0          0          0          0       1468   mf_w.l

    ----------------------------------------------------------------------
      4272        100          0          0          0       2432   Library Totals

    ----------------------------------------------------------------------

==============================================================================


      Code (inc. data)   RO Data    RW Data    ZI Data      Debug   

     17056       1604       2096        232       5872     410995   Grand Totals
     17056       1604       2096        232       5872     410995   ELF Image Totals
     17056       1604       2096        232          0          0   ROM Totals

==============================================================================

    Total RO  Size (Code + RO Data)                19152 (  18.70kB)
    Total RW  Size (RW Data + ZI Data)              6104 (   5.96kB)
    Total ROM Size (Code + RO Data + RW Data)      19384 (  18.93kB)

==============================================================================

