:020000040800F2
:1000000008600020450100088556000839B800083E
:10001000314E0008690E0008C96C0008000000009D
:10002000000000000000000000000000690100085E
:10003000050F000800000000D5010008E5010008D8
:100040005F0100085F0100085F0100085F01000810
:100050005F0100085F0100085F0100085F01000800
:100060005F0100085F0100085F0100085F010008F0
:100070005F0100085F0100085F0100085F010008E0
:100080005F0100085F0100085F0100085F010008D0
:10009000756900085F0100085F0100085F01000842
:1000A0005F0100085F0100085F0100085F010008B0
:1000B0005F0100085F0100085F0100085F010008A0
:1000C0005F0100085F0100085F0100085F01000890
:1000D0005F010008556900085F01000865690008B4
:1000E0005F0100085F0100085F0100085F01000870
:1000F0005F0100085F0100085F0100085F01000860
:100100005F0100085F010008495E00085F01000808
:100110005F010008396800085F0100085F010008FE
:100120005F0100085F0100085F0100085F0100082F
:10013000DFF80CD000F06CFC00480047698800082C
:10014000086000200648804706480047FEE7FEE7B3
:10015000FEE7FEE7FEE7FEE7FEE7FEE7FEE7FEE777
:10016000D55D0008310100081EF0040F0CBFEFF34D
:100170000880EFF30980816911F8021CD9B901B533
:1001800090E80F10E047BDE800508CE80300194BE1
:1001900093E80600914208BF704719B12CE9F00FAF
:1001A000C1F838C01A60906BB0E8F00F80F309888E
:1001B0006FF0020E7047104A13689942FAD801B5E1
:1001C00052F821C00FC8E047BDE80050CCF800004D
:1001D0007047000001B509F0F1F8BDE80140EFF308
:1001E000098CD4E701B509F007FEBDE80140EFF343
:1001F000098CCCE7200000207CC20008002800DA2F
:100200004042704740EA01039B0703D009E008C958
:10021000121F08C0042AFAD203E011F8013B00F8CB
:10022000013B521EF9D27047D2B201E000F8012B17
:10023000491EFBD270470022F6E710B513460A4666
:1002400004461946FFF7F0FF204610BD034611F89B
:10025000012B00F8012B002AF9D118467047F0B4A1
:1002600080EA0102D40F4200B2EB410F02D20246F3
:10027000084611464A0042D0C30DDDB2C1F3C75251
:10028000AD1A202D35DAC1F3160141F4000204B194
:100290005242C5F1200602FA06F12A411044B3EB9E
:1002A000D05F23D0C4B1012DA0EBC35009DCF0BC5A
:1002B0004FF0004202EAC352DBB200F5000000F04A
:1002C00045BA400000F1807000EBC350A0F180708F
:1002D00040EAD170490009E0490841EAC071A0EB49
:1002E000C35000F50000400800EBC350F0BC00F024
:1002F00024BA6142012202EB4101001BF6E7F0BC87
:10030000704781F00041AAE780F00040A7E780EA4B
:10031000010210B502F00043400022D04A001FD075
:10032000010E01EB1261C0F35600C2F3560240F415
:10033000000042F40002A0FB022000047F391404F4
:1003400000D0401C50EA124001D44000491EC2B205
:100350000C0604EBD010401C4008802A02D003E0B9
:10036000002010BD20F00100002900DA0020184311
:1003700010BD30B480EA010202F0004530F00042C6
:1003800021F0004013D090B1C30DD40DC2F316017B
:10039000C0F31600E41A41F4000140F400027D3479
:1003A000914201D3641C00E04900002C02DA30BC09
:1003B000002070474FF400000023914201D3891AB6
:1003C000034340084FEA4101F7D151B1914202D1B4
:1003D0004FF0004105E002D24FF0010101E06FF063
:1003E000010103EBC450284430BC00F0A6B92DE94C
:1003F000FE4F81EA030404F0004421F00041009420
:100400004FF0000B23F0004350EA01045ED052EAA3
:1004100003045BD0C3F30A54C1F30A552C44A4F27D
:10042000F3340194A0FB0254C1F3130141F4801191
:10043000C3F3130343F4801301FB024400FB034E98
:10044000840A970A44EA815447EA8357A4FB076861
:1004500002958D0A05FB07854FEA932C04FB0C548B
:100460002705029D4FEA065847EA1637B5EB0805FF
:100470006EEB070C870E920E47EA811742EA831251
:10048000A7FB0201B6EB0B0164EB00042B0D43EA62
:100490000C335E1844EB1C50DA465146E7FB020170
:1004A000C5F313044FEA0B3343EA14534FEA043203
:1004B000019C43EA0603A4F10C040294009CCDE9DC
:1004C00000B400F080F903B0BDE8F08F00200146D1
:1004D000F9E72DE9F04D81EA030404F0004B21F027
:1004E000004514464FF0000A23F0004150EA05028F
:1004F00020D054EA01021DD0C5F30A570246C5F3C5
:100500001303C1F31300C1F30A5640F4801543F4FA
:100510008013A7EB0608101BD64608F2FD3873EBD4
:10052000050002D308F1010801E092185B41B8F11F
:10053000000F03DA00200146BDE8F08D00204FF4E3
:100540008011064684460EE0171B73EB050705D3A2
:10055000121B63EB050306434CEA010C49084FEA02
:10056000300092185B4150EA0107EDD152EA0300D6
:1005700012D082EA040083EA0501084305D0101B6B
:10058000AB4106D20122002306E000224FF00043D7
:1005900002E06FF0010253101AEB06004CEB085119
:1005A00010EB0A0041EB0B01BDE8F04D00F0FCB888
:1005B000002801DBC0F10040002901DBC1F100414E
:1005C000814201D80120704700207047002801DBDC
:1005D000C0F10040002901DBC1F10041814201D39B
:1005E0000120704700207047C10F80EAE070084486
:1005F000CA079623002100F0A9B80EB5C10F80EA02
:10060000E0700844CA07002140F233438DE80E0031
:100610000A460B4600F0D7F803B000BD00F00042D8
:1006200020F00040C10DC0F3160040F400007F2907
:1006300001DA00207047962903DCC1F19601C84019
:1006400001E096398840002AF4D04042704770B5E6
:10065000C1F30A5201F000450024C1F3130140F236
:10066000FF3341F480119A4201DA002070BD40F25C
:1006700033439A42A2F2334203DC524200F04DF877
:1006800000E090402C43F1D0404270BD30B50B46A5
:10069000014600202022012409E021FA02F59D42B2
:1006A00005D303FA02F5491B04FA02F52844151E86
:1006B000A2F10102F1DC30BD2DE9F05F054600201A
:1006C00092469B4688460646814640241BE02846C3
:1006D00041464746224600F020F853465A46C01A83
:1006E000914110D311461846224600F0A3F92D1A65
:1006F00067EB01084F4622460120002100F09AF9DD
:1007000017EB00094E41201EA4F10104DFDC48462E
:1007100031462A464346BDE8F09F202A04DB203AB2
:1007200021FA02F00021704721FA02F3D040C2F111
:10073000200291400843194670470029A8BF70471E
:10074000401C490008BF20F00100704710B4B0FA07
:1007500080FC00FA0CF050EA010404BF10BC7047A2
:1007600049B1CCF1200421FA04F411FA0CF118BFBC
:10077000012121430843A3EB0C01CB1D4FEA00618B
:100780004FEA102042BF002010BC704700EBC3505E
:1007900010440029A4BF10BC7047401C490008BF8A
:1007A00020F0010010BC704710B5141E73F1000456
:1007B00008DA401C41F1000192185B411A4301D153
:1007C00020F0010010BD2DE9F04D92469B4611B17D
:1007D000B1FA81F202E0B0FA80F22032904600F0E5
:1007E00029F904460F4640EA0A0041EA0B01534644
:1007F0005A46084313D0114653EA010019D0C8F1F4
:1008000040025046FFF789FF05460E4650465946BE
:10081000424600F00FF9084305D0012004E02046CD
:100820003946BDE8F08D0020054346EAE0762C43CA
:1008300037430A986305E40AA0EB08000022FD0A8A
:1008400044EA47540A3002D500200146E9E7010591
:1008500010196941DDE9084500196941BDE8F04D0D
:10086000A2E72DE9FE4F804681EA0300C00F0C4647
:10087000009021F0004123F00045B8EB0200A941AF
:1008800005D24046214690461C460B46024623F0C0
:100890000040104347D0270DC7F30A00C3F30A51A5
:1008A0000290401A019040286BDAC3F3130040F421
:1008B000801B0098924620B10023D2EB030A63EB21
:1008C0000B0B01985946C0F14002504600F0B2F8B7
:1008D00006460D4650465946019A00F0BAF810EB0C
:1008E00008006141002487EA115284EAE7731A4341
:1008F00040D0009A62B3019A012A4FEA075215DCF0
:10090000001B61EB02014FF0004202EA0752CDE901
:100910000042001C41F5801132462B46FFF753FF81
:1009200003B0BDE8F08F40462146F9E7001B61EBBC
:100930000201001C41F5801300185B412018A2F54C
:10094000001747EB030140EAD570B6196D4111E07D
:100950006D084FEA360645EAC0754FEA0752001B9C
:1009600061EB0201001C41F5801149084FEA30009B
:100970000019514132462B4603B0BDE8F04FFFF756
:1009800013BF0098012240000023D0EB020263EB6A
:10099000E073009821464FEAE074B8EB000061EB89
:1009A0000401E9E783F000435BE781F0004158E789
:1009B000C1F30A52C1F3130140F2FF3341F4801135
:1009C0009A4202DA00200146704740F233439A42CD
:1009D000A2F2334202DC5242FFF79FBE00F02AB877
:1009E00030B5041E71F1000404DB4FF000444042B6
:1009F00064EB0101141E73F1000405DB1C464FF08B
:100A00000043524263EB0403994208BF904230BD59
:100A1000064C074D06E0E06840F0010394E807004B
:100A200098471034AC42F6D3FFF786FB28C4000881
:100A300048C40008202A04DB203A00FA02F1002012
:100A400070479140C2F1200320FA03F3194390400C
:100A50007047202A06DBCB17203A41FA02F043EA1E
:100A6000E07306E041FA02F3D040C2F12002914067
:100A7000084319467047000080B584B002900020FA
:100A80000190029800688068C007002828D0FFE71E
:100A900002980068816821F00101816001F0DEFFA9
:100AA0000190FFE7029800688068C007002816D010
:100AB000FFE701F0D3FF0199401A03280ED3FFE7A7
:100AC0000298816A41F0100181620298C16A41F086
:100AD0000101C16201208DF80F0005E0E2E7FFE7A8
:100AE00000208DF80F00FFE79DF80F0004B080BDD7
:100AF00080B584B0029000200190009002980068B8
:100B00008068C007002844D1FFE702980068816828
:100B100041F00101816040F20400C2F2000000686F
:100B20004DF68361C4F21B31A0FB0101890C0091D9
:100B3000FFE70098002804D0FFE7009801380090F4
:100B4000F7E701F08BFF0190FFE7029800688068EB
:100B5000C00700281CD1FFE701F080FF0199401A6F
:100B6000032814D3FFE70298816A41F010018162E3
:100B70000298C16A41F00101C162FFE702980021B9
:100B800080F82410FFE701208DF80F0005E0DCE776
:100B9000FFE700208DF80F00FFE79DF80F0004B07D
:100BA00080BD00007047000080B586B00590002031
:100BB0008DF81300ADF80800ADF80400FFE706F06B
:100BC000B3FB012801D1FFE7FFE70A2007F06CFE25
:100BD000F5E7000080B582B040F64540C0F6000061
:100BE0004CF23422C0F600020021019109F02CFAE7
:100BF00040F2EC51C2F20001086040F6A930C0F6A4
:100C000000004CF21022C0F60002019909F01CFA13
:100C100040F2E851C2F20001086040F6C540C0F65B
:100C200000000121019A019B09F04AFA41F22C319E
:100C3000C2F2000108600868642109F08BFA02B072
:100C400080BD000080B582B00190FFE7052007F06D
:100C50002BFE0090FAE7000080B58AB0099064206E
:100C6000ADF8220006F0A0FC6846002101604CF2BD
:100C7000F020C0F6000006900846069A059111463D
:100C8000059A059B04F040FF6946059A0A604CF2FC
:100C9000E821C0F6000104901046059B04F0CCFE4C
:100CA0000390FFF797FFFFF77DFF07F079FE0790AE
:100CB000FFE7079864300790079807F021FE02903D
:100CC000F7E7000080B582B00190012007F032FB09
:100CD00002B080BD82B001468DF8070041F63C406D
:100CE000C2F200000078002800F09980FFE740F28F
:100CF000F100C2F20000007801380146032800919B
:100D000000F28B800099DFE801F002213C739DF82E
:100D1000070041F62441C2F20001487040F2F100A0
:100D2000C2F20000027801320270487815280CDB0C
:100D3000FFE740F2F100C2F200000021017041F62D
:100D40003C40C2F2000001708BE067E09DF80700B4
:100D500041F62441C2F2000188709DF8070040F27C
:100D6000F002C2F2000213781944C87040F2F10098
:100D7000C2F200000178013101701078013010706A
:100D80004CE040F2F000C2F20000007841F624414D
:100D9000C2F2000149780139884211DAFFE79DF873
:100DA000070040F2F001C2F200010A7841F6244344
:100DB000C2F200031A44D07008780130087016E0BF
:100DC0009DF8070040F2F001C2F200010A7841F6F6
:100DD0002443C2F200031A44D07040F2F100C2F280
:100DE000000002780132027000200870FFE715E071
:100DF0009DF8070041F62441C2F20001C87540F297
:100E0000F100C2F200000021017041F63C40C2F244
:100E1000000001700121417000E0FFE721E09DF832
:100E20000700CD281CD1FFE741F63C40C2F200008C
:100E30000078002814D1FFE741F62440C2F20000F8
:100E4000CD21017041F63C40C2F200000121017049
:100E500040F2F100C2F2000001780131017000E0BF
:100E6000FFE702B070470000FFE7FEE780B582B001
:100E700001468DF803009DF80300002806D1FFE726
:100E800041F6A030C2F20000019037E09DF8030067
:100E9000012803D1FFE7002001902FE09DF8030017
:100EA000022806D1FFE741F6CC30C2F200000190E3
:100EB00024E09DF80300032803D1FFE70020019000
:100EC0001CE09DF80300042806D1FFE741F6F83046
:100ED000C2F20000019011E09DF80300052803D143
:100EE000FFE70020019009E04CF2AC30C0F60000B2
:100EF000C72100F009F800200190FFE7019802B037
:100F000080BD00007047000080B582B00190009164
:100F10000199009A4CF26630C0F600000AF096FC87
:100F20000099002902D1FFE702B080BDFFE7FEE78C
:100F300082B0019042F20020C2F200000078002846
:100F400003D1FFE7002000900FE00198C0F3C62115
:100F500042F28012C2F20002515CC0F3022021FA78
:100F600000F000F001000090FFE7009802B0704729
:100F700080B584B0FFE742F20020C2F20000806931
:100F8000019000F015F90390039805F08FFE029090
:100F9000FFE7029801998842EDD1FFE70398029993
:100FA000884203D2FFE703F0B5FCFFE7039804B0E3
:100FB00080BD000080B588B005900491039205982B
:100FC000FFF7B6FF002803D1FFE7012006901CE0E1
:100FD000FFF7CEFF0290BDF814000590EFF30580F7
:100FE00007900798059941F40022002818BF114680
:100FF0000591059840F040700299049A039B00F017
:1010000057F8019001980690FFE7069808B080BD58
:1010100080B58AB0DDF830C0079006910592049340
:101020000798CDF800C0FFF783FF002803D1FFE742
:101030000120089038E0FFF79BFF0390BDF81C00EB
:101040000790EFF3058009900998079941F4002271
:10105000002818BF1146079100F042FC4FF4E02130
:1010600001EA004002900798029940EA010040F02E
:1010700080700399069A059B00F01AF80190019878
:10108000002803D1FFE7002008900DE0029801211D
:10109000C0F2002108430399049A0C9B00F008F861
:1010A000019001980890FFE708980AB080BD000001
:1010B00080B58CB00A90099108920793072005909B
:1010C000FFE7059800286BD0FFE700F013FC0490C1
:1010D000049800F03F0041F68051C2F2000101EB9C
:1010E0000010069004984FF4700101EA80300190DE
:1010F0000A980199084309994FF0805202EAD101F8
:10110000084308994FF0005202EA910108430799F9
:101110004FF0804202EA5101084340F040600390E2
:1011200006980C30039903F025FE03909DF80F00FC
:10113000400700282FD5FFE7039880F080600390D8
:10114000039880F000400390039800F00040029064
:10115000099820F000400299084306990860089811
:1011600020F000400299084306994860079820F053
:101170000040029908430699886006980C3003994C
:1011800005F07AFD002805D0FFE703F0D7FB01202A
:101190000B900AE004E0FFE705980138059090E71E
:1011A00003F0C2FB00200B90FFE70B980CB080BD52
:1011B00041F20400CEF200000068704780B582B0B2
:1011C000019001994FF20130C0F201000022FFF7B7
:1011D000F1FE02B080BD000080B582B0019001999F
:1011E0004FF20530C0F202000022FFF7E3FE02B02A
:1011F00080BD000080B582B0019001994FF473402A
:101200000022FFF7D7FE02B080BD000080B582B09B
:10121000019001994FF20330C0F202000022FFF763
:10122000C9FE02B080BD000080B582B00190019976
:101230004FF20230C0F201000022FFF7BBFE02B005
:1012400080BD000080B582B0019001994FF204305A
:10125000C0F202000022FFF7ADFE02B080BD000028
:1012600080B582B0019001994FF20D50C0F202009A
:101270000022FFF79FFE02B080BD000080B582B063
:10128000019001994FF471400022FFF793FE02B0E4
:1012900080BD000080B582B0019001994FF2061028
:1012A000C0F201000022FFF785FE02B080BD000001
:1012B00080B582B0019001994FF21310C0F2010085
:1012C0000022FFF777FE02B080BD000080B582B03B
:1012D0004FF20110C0F2010000210191019AFFF7C5
:1012E00069FE02B080BD000080B582B04FF20210EE
:1012F000C0F2020000210191019AFFF75BFE02B0EB
:1013000080BD000080B582B04FF20710C0F201002E
:1013100000210191019AFFF74DFE02B080BD00004F
:1013200080B582B04FF20810C0F202000021019196
:10133000019AFFF73FFE02B080BD000080B586B085
:1013400005900491039202930599049A039B0298D5
:10135000EC46CCF800004FF20100C0F20200FFF7AB
:1013600057FE06B080BD000080B582B001900091AC
:101370000199009A4FF20400C0F20200FFF71AFE32
:1013800002B080BD80B584B00390029101920399B0
:10139000029A019B68464FF0000CC0F800C04FF263
:1013A0000500C0F20200FFF733FE04B080BD00006C
:1013B00080B586B005900491039202930599049A32
:1013C000039B0298EC46CCF800004FF20300C0F2F9
:1013D0000200FFF71DFE06B080BD000080B584B09E
:1013E0000390029101920399029A019B68464FF083
:1013F000000CC0F800C04FF20200C0F20200FFF77C
:1014000007FE04B080BD000080B584B00390029157
:1014100001920399029A019B68464FF0000CC0F8B4
:1014200000C04FF43C30FFF7F3FD04B080BD000076
:1014300080B582B0019001994FF60810C0F2020009
:101440000022FFF7B7FD02B080BD000080B582B07A
:10145000019000910199009A4FF60320C0F202001A
:10146000FFF7A8FD02B080BD80B582B00190009169
:101470000199009A4FF47A40FFF79CFD02B080BDBD
:1014800080B586B005900491039202930599049A61
:10149000039B0298EC46CCF800004FF60C20C0F2FB
:1014A0000100FFF7B5FD06B080BD000080B584B037
:1014B0000390029101920399029A019B68464FF0B2
:1014C000000CC0F800C04FF60D20C0F20200FFF77C
:1014D0009FFD04B080BD000080B582B001900199ED
:1014E0004FF60E20C0F202000022FFF763FD02B0AB
:1014F00080BD000080B582B0019000910199009AF2
:101500004FF60920C0F20200FFF754FD02B080BD83
:1015100080B582B0019000910199009A4FF60A209F
:10152000C0F20200FFF746FD02B080BD80B584B076
:101530000390029101920399029A019B68464FF031
:10154000000CC0F800C04FF60120C0F20100FFF708
:101550005FFD04B080BD000080B582B001900091B5
:101560000199009A4FF60B20C0F20200FFF722FD0E
:1015700002B080BD80B582B0019000910199009ABF
:101580004FF61020C0F20200FFF714FD02B080BD3C
:1015900080B586B09446059004918DF80F20029393
:1015A0000599049A9DF80F300298EE46CEF8000097
:1015B0004FF60620C0F20100CDF804C0FFF728FD69
:1015C00006B080BD80B584B003900291019203996A
:1015D000029A019B68464FF0000CC0F800C04FF61D
:1015E0000720C0F20200FFF713FD04B080BD000029
:1015F00080B582B0019001994FF60820C0F2020038
:101600000022FFF7D7FC02B080BD000080B582B099
:10161000019000910199009A4FF60F20C0F202004C
:10162000FFF7C8FC02B080BD80B582B0019001997F
:101630004FF20870C0F202000022FFF7BBFC02B0BC
:1016400080BD000080B582B0019000910199009AA0
:101650004FF20970C0F20200FFF7ACFC02B080BD8F
:1016600080B582B0019000910199009A4FF20C7000
:10167000C0F20200FFF79EFC02B080BD80B582B0D0
:10168000019001994FF60800C0F202000022FFF716
:1016900091FC02B080BD000080B582B00190009145
:1016A0000199009A4FF21620C0F20300FFF782FC66
:1016B00002B080BD80B584B0039002910192019880
:1016C000002809D0FFE70399019A4FF22C20C0F2BD
:1016D0000200FFF76FFC08E00399029A4FF2032023
:1016E000C0F20200FFF766FCFFE704B080BD000017
:1016F00080B582B0019001994FF21C20C0F2020027
:101700000022FFF757FC02B080BD000080B582B018
:10171000019000910199009A4FF47240FFF74AFC42
:1017200002B080BD80B582B04FF21A20C0F2010035
:1017300000210191019AFFF73DFC02B080BD00003D
:1017400080B586B005900491039202930599049A9E
:10175000039B0298EC46CCF800004FF20940C0F21F
:101760000200FFF755FC06B080BD000080B582B0D6
:10177000019001994FF20840C0F202000022FFF7E9
:1017800019FC02B080BD000080B582B001900199C3
:101790004FF21520C0F202000022FFF70BFC02B04E
:1017A00080BD000080B584B003900291019203993E
:1017B000029A019B68464FF0000CC0F800C04FF23F
:1017C0000120C0F20100FFF723FC04B080BD00003F
:1017D00080B582B0019001994FF21820C0F2030049
:1017E0000022FFF7E7FB02B080BD000080B582B0A9
:1017F000019001994FF21920C0F202000022FFF778
:10180000D9FB02B080BD000080B582B0019000918C
:101810000199009A4FF21720C0F20300FFF7CAFBAC
:1018200002B080BD80B582B0019000910199009A0C
:101830004FF20160C0F20200FFF7BCFB02B080BDB6
:1018400080B582B0019000910199009A4FF2046036
:10185000C0F20200FFF7AEFB02B080BD80B582B0DF
:10186000019000910199009A4FF47640FFF7A2FB96
:1018700002B080BD80B586B08C4605908DF81310FF
:101880000392029305999DF81320039B0298EE465C
:10189000CEF800004FF20260C0F20100CDF804C0A3
:1018A000FFF7B6FB06B080BD80B582B00190009115
:1018B0000199009A4FF20760C0F20100FFF77AFB2E
:1018C00002B080BD80B582B0019001994FF20860EE
:1018D000C0F202000022FFF76DFB02B080BD0000E5
:1018E00080B542F20020C2F20000013005F04CFC4D
:1018F00080BD000080B542F20020C2F2000004303A
:1019000005F032FC80BD000080B586B013468C46E1
:101910000590ADF81210ADF810200020ADF80E00C3
:10192000BDF81200BDF81010884204DDFFE7BDF8D5
:101930001200029003E0BDF810000290FFE7029849
:10194000ADF80E00BDF80E0000EB80008000FEF741
:1019500054FE4EF6A702C2F6486242F2FF13C4F2EA
:101960000903FEF744FD002244F20003C4F25003D1
:101970000192FEF73CFD4AF20003C4F27403019A9F
:10198000FEF7A7FDFEF763FE0599088006B080BD4F
:1019900080B588B0069000208DF817000390FFE70F
:1019A000069890F82400012804D1FFE702208DF862
:1019B0001F009EE00698012180F82410FFE7FFE752
:1019C0000698FFF759F88DF817009DF817000028C2
:1019D00040F08480FFE70698806A40F0020020F41F
:1019E00088500699886240F20400C2F20000006844
:1019F00002210290084601F0C9F80299B1FBF0F00B
:101A000040000390FFE70398002804D0FFE7039805
:101A100001380390F7E70698FFF76AF80699096816
:101A20008A6842F008028A60019001F017F8049079
:101A3000FFE7069800688068000700281AD5FFE7CE
:101A400001F00CF80499401A0B2812D3FFE706980E
:101A5000806A40F0100020F0020006998862FFE7DB
:101A60000698002180F82410FFE701208DF81F0060
:101A70003FE0DEE706980068816841F0040181607C
:101A800000F0ECFF0490FFE70698006880684007CC
:101A900000281AD5FFE700F0E1FF0499401A0B284F
:101AA00012D3FFE70698806A40F0100020F0020091
:101AB00006998862FFE70698002180F82410FFE766
:101AC00001208DF81F0014E0DEE70698806A40F0E0
:101AD000010020F0020006998862FFE7FFE7069800
:101AE000002180F82410FFE79DF817008DF81F00F3
:101AF000FFE79DF81F0008B080BD000080B58CB0E6
:101B00000A9000208DF827000890079006900A9808
:101B1000002804D1FFE701208DF82F0018E10A9872
:101B20008068002807D0FFE70A98007D002801D0D0
:101B3000FFE7FFE7FFE70A98806A00280AD1FFE77E
:101B40000A980021C1620A9880F824100A9800F0CF
:101B500003F9FFE70A98FEF78FFF8DF827000A9830
:101B6000806AC006002800F1E580FFE79DF82700A5
:101B7000002840F0DF80FFE70A98806A40F002000A
:101B800020F488500A9988620A980168406843F6F0
:101B90000042C4F201029142059011D1FFE70A9878
:101BA000C069B0F5402F04D1FFE74FF40020049046
:101BB00003E00A98C0690490FFE70498039003E0EB
:101BC0000A98C0690390FFE70398059908430A9AA9
:101BD000127B40EA4200079A104307900A988068F7
:101BE0000122B0F5807F029208D0FFE70A98806852
:101BF0000138B0FA80F040090290FFE70298089996
:101C0000C00741F48072002818BF114608910A9855
:101C1000007D01281FD1FFE70A98007B00280ED124
:101C2000FFE70A9880694EF20001CFF6FF7101EBE1
:101C300040300899084340F4006008900AE00A9890
:101C4000816A41F0200181620A98C16A41F0010174
:101C5000C162FFE7FFE70A980068406820F4694026
:101C6000089908430A99096848600A9800688068DA
:101C70004FF2FD71CFF6E1710840079908430A99C8
:101C8000096888600A9880680121B0F5807F019119
:101C900008D0FFE70A9880680138B0FA80F0400960
:101CA0000190FFE7019800F00100002818BF4FF4F1
:101CB0008070B0F5807F09D1FFE70A9800690021A4
:101CC000CFF6F07101EB00500690FFE70A9800682C
:101CD000C06A20F47000069908430A990968C8622E
:101CE0000A980068806840F6FE61CFF61F710840D0
:101CF000079988420CD1FFE70A980021C1620A982F
:101D0000806A40F0010020F002000A99886210E029
:101D10000A98806A40F0100020F002000A99886258
:101D20000A98C16A41F00101C16201208DF82700C3
:101D3000FFE708E00A98816A41F010018162012002
:101D40008DF82700FFE79DF827008DF82F00FFE7AB
:101D50009DF82F000CB080BD80B588B00790FFE7DC
:101D600041F21800C4F20200016841F40071016000
:101D7000006800F4007002900298FFE7FFE741F26C
:101D80001800C4F20200016841F01001016000680F
:101D900000F0100001900198FFE72020039003203D
:101DA00004900020059041F20000C4F2010003A954
:101DB00000F06EFC08B080BD84B0029001910298E2
:101DC00090F820008DF803009DF80300012805D04D
:101DD000FFE79DF8030002280AD1FFE70198029966
:101DE00009684A691043486100208DF80F0008E037
:101DF0000298416A41F48021416201208DF80F0070
:101E0000FFE79DF80F0004B07047000086B0049013
:101E10000391049800680190049890F820008DF8D0
:101E200003009DF80300012806D0FFE79DF803009A
:101E3000022840F0A380FFE70198D0F8001241F09B
:101E40000101C0F800120398406900F01F00012151
:101E500001FA00F0029002980199D1F81C2222EABE
:101E60000000C1F81C020398C06900281FD1FFE7D9
:101E700002980199D1F80C2222EA0000C1F80C0264
:101E800003988188C268406941EA0241019A02EBE5
:101E9000C000C0F84012039801888268406941EA96
:101EA0000241019A02EBC000C0F84412FFE7039818
:101EB000C06901281ED1FFE702980199D1F80C22D0
:101EC0001043C1F80C02039881880268406941EA16
:101ED0000241019A02EBC000C0F8401203988189C8
:101EE0008268406941EA0241019A02EBC000C0F8F1
:101EF0004412FFE703988069002809D1FFE70298A0
:101F00000199D1F8042222EA0000C1F8040207E096
:101F100002980199D1F804221043C1F80402FFE7A6
:101F200003980069002809D1FFE702980199D1F8C8
:101F3000142222EA0000C1F8140207E00298019975
:101F4000D1F814221043C1F81402FFE70398006A85
:101F5000012808D1FFE702980199D1F81C2210430B
:101F6000C1F81C02FFE70198D0F8001221F001012E
:101F7000C0F8001200208DF8170008E00498416AAC
:101F800041F48021416201208DF81700FFE79DF8A0
:101F9000170006B07047000081B0009001B0704794
:101FA00080B58AB0099000200890099800684069BF
:101FB0000790099800684068069009980068806852
:101FC000059009980068C068049009980068006945
:101FD000039009980068806902909DF81C00C00772
:101FE000002800F09780FFE79DF81400C007002844
:101FF0002BD0FFE709980068012181609DF814004B
:102000008007002804D5FFE7099800F029FB1BE0B2
:102010009DF814004007002805D5FFE7089840F414
:10202000006008900FE09DF814000007002805D517
:10203000FFE7089840F48050089003E0099800F00A
:102040000BFBFFE7FFE7FFE7FFE79DF81500C00781
:1020500000282CD0FFE7099800684FF48071816058
:102060009DF815008007002804D5FFE7099800F0C7
:10207000FFFA1BE09DF815004007002805D5FFE793
:10208000089840F4005008900FE09DF815000007F4
:10209000002805D5FFE7089840F48040089003E049
:1020A000099800F0E1FAFFE7FFE7FFE7FFE79DF897
:1020B0001600C00700282CD0FFE7099800684FF4ED
:1020C000803181609DF816008007002804D5FFE765
:1020D000099800F0D5FA1BE09DF81600400700288B
:1020E00005D5FFE7089840F4004008900FE09DF800
:1020F00016000007002805D5FFE7089840F4803057
:10210000089003E0099800F0B7FAFFE7FFE7FFE760
:10211000FFE7FFE79DF81C000007002810D5FFE748
:102120009DF81000C006002809D5FFE7089840F484
:1021300000700890099800681021C160FFE7FFE770
:102140009DF81C00400700280FD5FFE79DF8100000
:102150000007002808D5FFE7099800680821C1603A
:10216000099800F015FAFFE7FFE79DF81C008007CB
:1021700000280CD5FFE709980068C0688007002890
:1021800004D0FFE7099800F007FAFFE7FFE79DF8A2
:102190001C004006002810D5FFE79DF80C00C00683
:1021A000002809D5FFE7089840F480600890099856
:1021B000006810210161FFE7FFE79DF81C00800621
:1021C00000280FD5FFE79DF80C000007002808D570
:1021D000FFE70998006808210161099800F0EAF911
:1021E000FFE7FFE79DF81C00C00600280CD5FFE7BD
:1021F0000998006800698007002804D0FFE7099863
:1022000000F0DCF9FFE7FFE79DF81E0080070028DB
:102210000FD5FFE79DF81800C006002808D5FFE796
:102220000998006810214160099800F0CBF9FFE798
:10223000FFE79DF81E00C00700280FD0FFE79DF8BC
:1022400018000007002808D5FFE709980068082152
:102250004160099800F018FAFFE7FFE79DF81D00BC
:102260000006002840F18F80FFE79DF81800400726
:10227000002840F18380FFE79DF81D00C00700287B
:102280000BD0FFE79DF80800C007002805D0FFE746
:10229000089840F001000890FFE79DF81D008007B6
:1022A00000280BD5FFE79DF808008007002805D51A
:1022B000FFE7089840F002000890FFE79DF81D0036
:1022C000400700280BD5FFE79DF8080040070028CD
:1022D00005D5FFE7089840F004000890FFE79DF857
:1022E0001D000007002848D5FFE79DF8080010F002
:1022F000700F42D0FFE7029800F0700001461028EE
:10230000019114D0FFE70198202815D0FFE701982C
:10231000302816D0FFE70198402817D0FFE7019832
:10232000502818D0FFE70198602819D01DE00898C0
:1023300040F00800089019E0089840F0100008905C
:1023400014E0089840F0200008900FE0089840F052
:10235000400008900AE0089840F08000089005E0EE
:10236000089840F48070089000E0FFE70998006842
:10237000816921F070018161FFE7FFE7099800683A
:1023800004214160FFE70898002809D0FFE708987A
:1023900009994A6A104348620998FFF7FDFDFFE773
:1023A0000AB080BD80B584B002900298002804D1A4
:1023B000FFE701208DF80F00E2E0029890F820007E
:1023C000002804D1FFE7029800F0DEF8FFE702984A
:1023D0000068016821F00201016000F03FFB0190FC
:1023E000FFE70298006840688007002815D5FFE7DE
:1023F00000F034FB0199401A0B280DD3FFE7029837
:10240000416A41F4003141620298052180F82010B0
:1024100001208DF80F00B3E0E3E70298006801683F
:1024200041F00101016000F019FB0190FFE7029803
:1024300000684068C007002815D1FFE700F00EFBD8
:102440000199401A0B280DD3FFE70298416A41F425
:10245000003141620298052180F8201001208DF89A
:102460000F008DE0E3E70298007E012807D1FFE727
:1024700002980068016841F08001016006E002985E
:102480000068016821F080010160FFE70298407E4A
:10249000012807D1FFE702980068016841F0400178
:1024A000016006E002980068016821F040010160C7
:1024B000FFE70298807E012807D1FFE702980068B5
:1024C000016841F02001016006E00298006801689F
:1024D00021F020010160FFE70298C07E012807D1AA
:1024E000FFE702980068016821F01001016006E032
:1024F00002980068016841F010010160FFE702984E
:10250000007F012807D1FFE702980068016841F0C9
:102510000801016006E002980068016821F00801E6
:102520000160FFE70298407F012807D1FFE702988A
:102530000068016841F00401016006E0029800684B
:10254000016821F004010160FFE702980168426818
:102550008368D0F80CC043EA0C03D0F810C043EAFB
:102560000C0340691843013A1043C86102980021E6
:1025700041620298012280F820208DF80F10FFE7B9
:102580009DF80F0004B080BD81B0009001B070478D
:1025900081B0009001B0704781B000900098006851
:1025A00046F20041C4F20001884201D1FFE7FFE793
:1025B00001B0704781B0009001B0704781B00090C9
:1025C00001B0704781B0009001B0704780B584B011
:1025D0000290029890F82000012830D1FFE702987D
:1025E000022180F8201002980068016821F00101A2
:1025F000016000F033FA0190FFE70298006840683C
:10260000C007002815D0FFE700F028FA0199401A0A
:102610000B280DD3FFE70298416A41F40031416273
:102620000298052180F8201001208DF80F000FE09E
:10263000E3E70298002141628DF80F1008E002984C
:10264000416A41F40021416201208DF80F00FFE74B
:102650009DF80F0004B080BD81B0009001B07047BC
:1026600081B0009001B0704781B0009001B0704718
:1026700081B0009001B0704781B0009001B0704708
:1026800081B0009001B0704781B0009001B07047F8
:1026900092B01190109100200F900B90FFE71098CE
:1026A00000680F99C840002800F0A381FFE70F9849
:1026B000012101FA00F00E90109800680E99084070
:1026C0000D900D980E99884240F08F81FFE7109889
:1026D00040680028079051D0FFE7079801283AD0BA
:1026E000FFE7079802283FD0FFE70798032860D04C
:1026F000FFE70798112832D0FFE70798122838D053
:10270000FFE70020C1F211000799814236D0FFE7B0
:102710000020C1F21200079981422FD0FFE700206C
:10272000C1F221000799814228D0FFE70020C1F2C1
:1027300022000799814221D0FFE70020C1F2310039
:10274000079981421AD0FFE70020C1F232000799B1
:10275000814213D030E01098C0680B902DE01098A3
:10276000C06804300B9028E01098C06808300B90C7
:1027700023E01098C0680C300B901EE01098806821
:10278000002803D1FFE704200B9011E01098806827
:10279000012806D1FFE708200B900E9811990861D7
:1027A00005E008200B900E9811994861FFE7FFE7BC
:1027B00003E000200B9000E0FFE70D98FF2803D80E
:1027C000FFE71198069003E0119804300690FFE7A8
:1027D00006980A900D98FF2804D8FFE70F9880000C
:1027E000059006E00F986FF01F0101EB8000059047
:1027F000FFE7059809900A98006809990F228A4016
:1028000090430B9A02FA01F108430A990860109864
:10281000C079C006002840F1E780FFE7FFE741F2FA
:102820001800C4F20200016841F001010160006873
:1028300000F0010008900898FFE70F9820F00300CF
:102840000821C4F2010140580C900F9800F00300D9
:1028500080000F2101FA00F00C9921EA00000C9091
:10286000119840F60001C4F20101884203D1FFE74C
:102870000020049042E0119840F60041C4F20101AA
:10288000884203D1FFE70120039034E0119841F220
:102890000001C4F20101884203D1FFE70220029047
:1028A00026E0119841F20041C4F20101884203D1AF
:1028B000FFE70320019018E0119841F60001C4F2EF
:1028C0000101884203D1FFE7042000900AE011983B
:1028D00041F60041C4F201010622884208BF0522E8
:1028E0000092FFE700980190FFE701980290FFE750
:1028F00002980390FFE703980490FFE704980F996C
:1029000001F00301890088400C9908430C900C9851
:102910000F9921F003010822C4F201028850109897
:102920008079C007002809D0FFE70D9840F20041E8
:10293000C4F201010A681043086009E00D9840F2F2
:102940000041C4F201010A6822EA00000860FFE7C2
:10295000109880798007002809D5FFE70D9840F28C
:102960000441C4F201010A681043086009E00D98AF
:1029700040F20441C4F201010A6822EA0000086042
:10298000FFE710988079C006002809D5FFE70D9869
:1029900040F20841C4F201010A681043086009E0EE
:1029A0000D9840F20841C4F201010A6822EA0000D1
:1029B0000860FFE7109880798006002809D5FFE7B6
:1029C0000D9840F20C41C4F201010A6810430860FE
:1029D00009E00D9840F20C41C4F201010A6822EAB4
:1029E00000000860FFE7FFE7FFE70F9801300F9056
:1029F00055E612B07047000082B00A460190ADF86B
:102A0000021001988068BDF80210084204D0FFE768
:102A100001208DF8010003E000208DF80100FFE7A0
:102A20009DF8010002B0704782B013468C460190B9
:102A3000ADF802108DF801209DF80100002805D0A6
:102A4000FFE7BDF802000199086105E0BDF802004A
:102A5000000401990861FFE702B0704780B582B0B9
:102A600005F07AFF022804D1FFE705F099FF0190F5
:102A700025E040F20400C2F200000068800B0090E4
:102A8000FFE70098002811D0FFE700BF00BF00BF9C
:102A900000BF00BF00BF00BF00BF00BF00BF00BF3E
:102AA00000BFFFE7009801380090EAE740F21C10F1
:102AB000C2F200000168013101600191FFE7019855
:102AC00002B080BD80B582B042F20000C4F20200C4
:102AD000016841F010010160032000F04FF8002070
:102AE000019000F007F8009000F00AF8019802B099
:102AF00080BD000081B00090002001B07047000050
:102B000081B0FFE741F21800C4F20200016841F011
:102B100001010160006800F0010000900098FFE7EB
:102B200001B0704780B582B001468DF807009DF96D
:102B30000700009104F0E4F902B080BD80B588B0D0
:102B400003468DF81F000691059200200490039320
:102B500004F0F0F904909DF91F000499069A059B72
:102B60000290084611461A4602F08EFD0299019025
:102B70000846019904F0EEF908B080BD80B582B036
:102B80000190019804F008FA02B080BD80B58CB0C5
:102B90000B9040F60E70C1F210000A9040F60A3019
:102BA000C0F60C50099040F20670C0F6081008906C
:102BB00040F20230C0F20450079040F20120ADF81C
:102BC0001A000020059004900390029001900B9849
:102BD000013801460F28009100F2C1800099DFE81A
:102BE00001F06BAEBE63BEBEBE67BEBEBEBEBEBEA5
:102BF000BE0841F20400C4F202000068029041F2F3
:102C00000000C4F202000068C00100284BD5FFE7B5
:102C10000298C0F3834007A9085C03909DF80A005E
:102C2000C00700281FD0FFE741F20400C4F20200F1
:102C3000006800F400300DF11A0141EA50400078BC
:102C400005909DF80A00C00700280BD0FFE7059803
:102C500041F20021C0F27A01B1FBF0F00399484340
:102C60000490FFE707E0039840F60011C0F23D0131
:102C700048430490FFE741F20400C4F202000068F8
:102C80004002002803D5FFE7049801900AE0049869
:102C900040004AF6AB21CAF6AA21A0FB010149086F
:102CA0000191FFE7FFE75BE000F09AFA019057E03F
:102CB00000F096FA019053E041F22000C4F20200C5
:102CC00000680290029800F44070B0F5807F0AD14D
:102CD000FFE79DF808008007002804D5FFE74FF4C0
:102CE000004001902AE0029800F44070B0F5007FA7
:102CF0000DD1FFE741F22400C4F202000068800712
:102D0000002804D5FFE749F64040019015E00298FD
:102D100000F44070B0F5407F0DD1FFE741F20000B4
:102D2000C4F2020000688003002804D5FFE74FF2D8
:102D30002440019000E0FFE7FFE7FFE710E000F02C
:102D40003DFA41F20401C4F20201096801F4404174
:102D5000022202EB5131B0FBF1F0019000E0FFE7FD
:102D600001980CB080BD000080B586B004900020B2
:102D70000390029004980078C007002800F0AE800D
:102D8000FFE700208DF8070041F21C00C4F20200AA
:102D90000068C000002813D4FFE7FFE741F21C00E1
:102DA000C4F20200016841F080510160006800F047
:102DB000805000900098FFE701208DF80700FFE7A2
:102DC00047F20000C4F200000068C005002822D4C9
:102DD000FFE747F20000C4F20000016841F480718F
:102DE0000160FFF73BFE0390FFE747F20000C4F2EB
:102DF00000000068C00500280CD4FFE7FFF72EFE96
:102E00000399401A652804D3FFE703208DF81700C3
:102E10008CE0EAE7FFE741F22000C4F2020000681C
:102E200000F440700290029800283DD0FFE702981D
:102E30000499496801F44071884235D0FFE741F2B6
:102E40002000C4F20200016821F44071029140F2B6
:102E50004041C4F2422101220A6000220A60029924
:102E600001609DF80800C00700281CD0FFE7FFF7AD
:102E7000F5FD0390FFE741F22000C4F20200006874
:102E8000800700280ED4FFE7FFF7E8FD0399401AFA
:102E900041F28931884204D3FFE703208DF81700FF
:102EA00044E0E8E7FFE7FFE741F22000C4F2020058
:102EB000016821F44071049A5268114301609DF841
:102EC0000700012809D1FFE741F21C00C4F202000B
:102ED000016821F080510160FFE7FFE70498007866
:102EE000800700280CD5FFE741F20400C4F202007D
:102EF000016821F44041049A926811430160FFE7A0
:102F000004980078C00600280CD5FFE741F20400C1
:102F1000C4F20200016821F48001049A526911434D
:102F20000160FFE700208DF81700FFE79DF817000C
:102F300006B080BD80B584B002900191029800284F
:102F400004D1FFE701208DF80F001BE1019842F248
:102F50000001C4F20201096801F00701884216D994
:102F6000FFE742F20000C4F20200016821F007010D
:102F7000019A11430160006800F00700019988423E
:102F800004D0FFE701208DF80F00FBE0FFE7029877
:102F90000078800700282AD5FFE7029800784007CC
:102FA000002809D5FFE741F20400C4F202000168DD
:102FB00041F4E0610160FFE7029800780007002813
:102FC00009D5FFE741F20400C4F20200016841F4B0
:102FD00060510160FFE741F20400C4F202000168A1
:102FE00021F0F001029A926811430160FFE7029814
:102FF0000078C007002860D0FFE7029840680128E9
:103000000ED1FFE741F20000C4F202000068800325
:10301000002804D4FFE701208DF80F00B2E021E082
:103020000298406802280ED1FFE741F20000C4F286
:10303000020000688001002804D4FFE701208DF819
:103040000F009FE00DE041F20000C4F202000068B2
:103050008007002804D4FFE701208DF80F0091E0DD
:10306000FFE7FFE741F20400C4F20200016821F02B
:103070000301029A526811430160FFF7EFFC0090D0
:10308000FFE741F20400C4F20200006800F00C0007
:1030900002994968B0EB810F0ED0FFE7FFF7DEFC25
:1030A0000099401A41F28931884204D3FFE7032096
:1030B0008DF80F0066E0E4E7FFE7019842F20001B7
:1030C000C4F20201096801F00701884216D2FFE745
:1030D00042F20000C4F20200016821F00701019AE7
:1030E00011430160006800F007000199884204D094
:1030F000FFE701208DF80F0044E0FFE70298007819
:10310000400700280CD5FFE741F20400C4F202009A
:10311000016821F4E061029AD26811430160FFE77F
:1031200002980078000700280DD5FFE741F204005F
:10313000C4F20200016821F46051029A126941EA66
:10314000C2010160FFE700F04BF841F20401C4F254
:1031500002010968C9B209094CF2E012C0F6000286
:10316000515CC84040F20401C2F20001086040F224
:10317000B000C2F200000068FFF7BCFC00218DF82F
:103180000F10FFE79DF80F0004B080BD40F204006F
:10319000C2F200000068704780B5FFF7F7FF41F208
:1031A0000401C4F202010968C1F302214CF2F012D9
:1031B000C0F60002515CC84080BD000080B5FFF73A
:1031C000E5FF41F20401C4F202010968C1F3C22122
:1031D0004CF2F012C0F60002515CC84080BD000005
:1031E0008BB040F60E70C1F210000A9040F60A3023
:1031F000C0F60C50099040F20670C0F60810089016
:1032000040F20230C0F20450079040F20120ADF8C5
:103210001A0000200590049003900290019041F262
:103220000400C4F2020000680590059800F00C004C
:103230000146002800913DD0FFE70098042804D003
:10324000FFE70098082806D035E041F20020C0F2E0
:103250007A00019035E00598C0F3834007A9085C27
:1032600002909DF81600C007002818D0FFE741F231
:103270000400C4F20200006800F400300DF11A01ED
:1032800041EA504000780490029841F20021C0F2D7
:103290007A0148430499B0FBF1F0039007E00298EB
:1032A00040F60011C0F23D0148430390FFE7039848
:1032B000019006E0FFE741F20020C0F27A000190A1
:1032C000FFE701980BB0704780B586B00490049872
:1032D000002804D1FFE701208DF8170035E304989A
:1032E0000078C007002800F0B180FFE741F2040039
:1032F000C4F20200006800F00C00042813D0FFE7BD
:1033000041F20400C4F20200006800F00C0008283A
:103310001CD1FFE741F20400C4F202000068C003C0
:10332000002813D5FFE741F20000C4F20200006854
:103330008003002809D5FFE704984068002804D1DD
:10334000FFE701208DF81700FFE27EE0FFE7049819
:103350004068B0F5803F09D1FFE741F20000C4F2B8
:103360000200016841F48031016033E00498406854
:1033700000280DD1FFE741F20000C4F2020001680D
:1033800021F480310160016821F48021016020E096
:1033900004984068B0F5A02F0DD1FFE741F200007E
:1033A000C4F20200016841F480210160016841F427
:1033B000803101600CE041F20000C4F202000168BB
:1033C00021F480310160016821F480210160FFE770
:1033D000FFE7FFE7FFE70498406800281AD0FFE7FF
:1033E000FFF73CFB0390FFE741F20000C4F202004C
:1033F0000068800300280CD4FFE7FFF72FFB039938
:10340000401A652804D3FFE703208DF817009CE2DB
:10341000EAE719E0FFF722FB0390FFE741F2000023
:10342000C4F202000068800300280CD5FFE7FFF714
:1034300015FB0399401A652804D3FFE703208DF894
:10344000170082E2EAE7FFE7FFE7FFE7049800786A
:103450008007002840F18E80FFE741F20400C4F2AB
:103460000200006810F00C0F13D0FFE741F20400D7
:10347000C4F20200006800F00C00082829D1FFE720
:1034800041F20400C4F202000068C003002820D406
:10349000FFE741F20000C4F2020000688007002844
:1034A00009D5FFE704980069012804D0FFE701204F
:1034B0008DF8170049E241F20000C4F202000168F1
:1034C00021F0F801049A526941EAC2010160FFE764
:1034D0004FE00498006900282BD0FFE70020C4F2D9
:1034E000422001210160FFF7B9FA0390FFE741F2A2
:1034F0000000C4F202000068800700280CD4FFE737
:10350000FFF7ACFA0399401A032804D3FFE703201E
:103510008DF8170019E2EAE741F20000C4F2020058
:10352000016821F0F801049A526941EAC201016080
:103530001EE00020C4F2422000210160FFF78EFA55
:103540000390FFE741F20000C4F202000068800728
:1035500000280CD5FFE7FFF781FA0399401A0328EA
:1035600004D3FFE703208DF81700EEE1EAE7FFE759
:10357000FFE7FFE7049800780007002849D5FFE738
:1035800004988069002823D0FFE740F28040C4F20D
:10359000422001210160FFF761FA0390FFE741F249
:1035A0002400C4F202000068800700280CD4FFE762
:1035B000FFF754FA0399401A032804D3FFE70320C6
:1035C0008DF81700C1E1EAE7012002F017FA1FE0C9
:1035D00040F28040C4F2422000210160FFF73EFA31
:1035E0000390FFE741F22400C4F202000068800764
:1035F00000280CD5FFE7FFF731FA0399401A03289A
:1036000004D3FFE703208DF817009EE1EAE7FFE708
:10361000FFE7049800784007002840F1DA80FFE7D0
:1036200000208DF8070041F21C00C4F2020000687F
:10363000C000002813D4FFE7FFE741F21C00C4F2EA
:103640000200016841F080510160006800F0805084
:1036500000900098FFE701208DF80700FFE747F290
:103660000000C4F200000068C005002822D4FFE773
:1036700047F20000C4F20000016841F4807101606B
:10368000FFF7ECF90390FFE747F20000C4F20000F7
:103690000068C00500280CD4FFE7FFF7DFF90399A5
:1036A000401A652804D3FFE703208DF817004CE18A
:1036B000EAE7FFE7FFE70498C068012809D1FFE7C0
:1036C00041F22000C4F20200016841F001010160F2
:1036D00032E00498C06800280DD1FFE741F22000D5
:1036E000C4F20200016821F001010160016821F0CB
:1036F000040101601FE00498C06805280DD1FFE7B0
:1037000041F22000C4F20200016841F004010160AE
:10371000016841F0010101600CE041F22000C4F2B7
:103720000200016821F001010160016821F004013B
:103730000160FFE7FFE7FFE7FFE70498C0680028A4
:103740001CD0FFE7FFF78AF90390FFE741F2200062
:10375000C4F202000068800700280ED4FFE7FFF7DC
:103760007DF90399401A41F28931884204D3FFE779
:1037700003208DF81700E8E0E8E71BE0FFF76EF99B
:103780000390FFE741F22000C4F2020000688007C6
:1037900000280ED5FFE7FFF761F90399401A41F2BF
:1037A0008931884204D3FFE703208DF81700CCE06D
:1037B000E8E7FFE79DF80700012809D1FFE741F29C
:1037C0001C00C4F20200016821F080510160FFE793
:1037D000FFE70498C069002800F0B380FFE741F2DA
:1037E0000400C4F20200006800F00C00082800F099
:1037F0008280FFE70498C06902285CD1FFE760205F
:10380000C4F2422000210160FFF728F90390FFE78E
:1038100041F20000C4F202000068800100280CD5CB
:10382000FFE7FFF71BF90399401A032804D3FFE7CA
:1038300003208DF8170088E0EAE70498006AB0F5E5
:10384000803F0CD1FFE741F20400C4F2020001689E
:1038500021F40031049A926811430160FFE741F2BC
:103860000400C4F20200016821F47411049A136A7E
:10387000526A1A43114301606020C4F242200121C0
:103880000160FFF7EBF80390FFE741F20000C4F29C
:1038900002000068800100280CD4FFE7FFF7DEF883
:1038A0000399401A032804D3FFE703208DF817007B
:1038B0004BE0EAE71EE06020C4F2422000210160F4
:1038C000FFF7CCF80390FFE741F20000C4F20200DA
:1038D0000068800100280CD5FFE7FFF7BFF80399C7
:1038E000401A032804D3FFE703208DF817002CE0CB
:1038F000EAE7FFE724E00498C069012804D1FFE764
:1039000001208DF8170020E041F20400C4F202000B
:1039100000680290029800F480300499096A884295
:1039200008D1FFE7029800F470100499496A8842B0
:1039300004D0FFE701208DF8170006E0FFE7FFE75E
:10394000FFE700208DF81700FFE79DF8170006B08D
:1039500080BD000081B0009001B0704781B0009040
:1039600001B0704785B003900291FFE7039890F88B
:103970003C00012804D1FFE702208DF8130039E054
:103980000398012180F83C10FFE7FFE7039802212C
:1039900080F83D1003980068406801900398006823
:1039A00080680090019820F07000019002980068F3
:1039B000019908430190009820F08000009002983F
:1039C000406800990843009001980399096848608D
:1039D00000980399096888600398012180F83D10D8
:1039E000FFE70398002180F83C10FFE700208DF8E6
:1039F0001300FFE79DF8130005B0704780B584B051
:103A000002900298002804D1FFE701208DF80F00F2
:103A100021E0029890F83D00002808D1FFE70298C5
:103A2000002180F83C10029800F01AF8FFE7029895
:103A3000022180F83D10029850F8041B01900846BE
:103A4000019902F009FA0298012180F83D10002046
:103A50008DF80F00FFE79DF80F0004B080BD000057
:103A600083B002900298006840F60001C4F20001A1
:103A7000884210D1FFE7FFE741F21C00C4F20200C8
:103A8000016841F004010160006800F00400019049
:103A90000198FFE719E00298006840F20041C4F283
:103AA0000001884210D1FFE7FFE741F21C00C4F299
:103AB0000200016841F002010160006800F00200AC
:103AC00000900098FFE7FFE7FFE703B070470000B2
:103AD00082B0019001980068C16841F00101C160A5
:103AE00001980068806800F00700009000980628A0
:103AF00007D0FFE701980068016841F0010101600B
:103B0000FFE7002002B0704780B58AB008900791A7
:103B1000FFE7089890F83C00012804D1FFE7022055
:103B20008DF82700B7E00898012180F83C10FFE7E6
:103B3000FFE70898022180F83D1008980068806827
:103B40000690069820F077000690069820F47F40B3
:103B50000690069808990968886007980068002808
:103B6000059000F08280FFE7059810287DD0FFE7E0
:103B70000598202879D0FFE70598302875D0FFE711
:103B80000598402861D0FFE7059850283DD0FFE711
:103B90000598602849D0FFE7059870280BD0FFE70B
:103BA0000598B0F5805F05D0FFE70598B0F5005F98
:103BB00019D061E061E00898006807994A688B684D
:103BC000C96804911946049B02F002FA089800683B
:103BD00080680690069840F077000690069808994D
:103BE0000968886049E00898006807994A688B6806
:103BF000C96803911946039B02F0EAF90898006826
:103C0000816841F48041816037E008980068079935
:103C10004A68C96802911146029A02F0CDFB0898E1
:103C20000068502102F0EEF927E008980068079933
:103C30004A68C96801911146019A02F05FFC089830
:103C40000068602102F0DEF917E008980068079923
:103C50004A68C96800911146009A02F0ADFB0898C5
:103C60000068402102F0CEF907E008980068079943
:103C7000096802F0C7F900E0FFE70898012180F821
:103C80003D10FFE70898002180F83C10FFE7002076
:103C90008DF82700FFE79DF827000AB080BD0000DF
:103CA00080B582B001900198006840F60041C4F2EE
:103CB0000001884240F0E080FFE70198007F012882
:103CC00032D1FFE740F60000C4F201001021FEF7F8
:103CD00093FE01280ED1FFE740F6B620C2F20000A5
:103CE0000121017044F67870C2F2000001880131B0
:103CF000018018E040F60000C4F201001021FEF738
:103D00007BFE00280ED1FFE740F6B620C2F200008D
:103D10000021017044F67870C2F200004188013140
:103D20004180FFE7FFE7A6E00198007F022831D13C
:103D3000FFE740F60000C4F201002021FEF75CFE20
:103D400001280ED1FFE740F6B620C2F200000121A3
:103D5000017144F67870C2F20000818801318180DF
:103D6000FFE740F60000C4F201002021FEF744FE08
:103D700000280ED1FFE740F6B620C2F20000002175
:103D8000017144F67870C2F20000C1880131C1802F
:103D9000FFE76FE00198007F042831D1FFE741F28F
:103DA0000000C4F201001021FEF726FE01280ED10A
:103DB000FFE740F6B620C2F200000121017244F68E
:103DC0007870C2F20000018901310181FFE741F200
:103DD0000000C4F201001021FEF70EFE00280ED1F3
:103DE000FFE740F6B620C2F200000021017244F65F
:103DF0007870C2F20000418901314181FFE738E06B
:103E00000198007F082833D1FFE740F60000C4F294
:103E100001004FF40041FEF7EFFD01280ED1FFE74E
:103E200040F6B620C2F200000121017344F678701A
:103E3000C2F20000818901318181FFE740F6000074
:103E4000C4F201004FF40041FEF7D6FD00280ED168
:103E5000FFE740F6B620C2F200000021017344F6ED
:103E60007870C2F20000C1890131C181FFE7FFE72C
:103E7000FFE7FFE7FFE7FFE702B080BD80B588B04E
:103E8000069005910492FFE7069890F83C000128FF
:103E900004D1FFE702208DF81F008FE00698012172
:103EA00080F83C10FFE7FFE70698022180F83D10FC
:103EB000049800281AD1FFE70698006805990A6857
:103EC0004B68C968039111461A46039B02F09CFA9D
:103ED00006980068816921F00C018161059880686D
:103EE000069909688A691043886159E00498042892
:103EF0001BD1FFE70698006805990A684B68C968F6
:103F0000029111461A46029B02F022FB06980068B5
:103F1000816921F44061816105988068069909688A
:103F20008A6942EA0020886139E0049808281AD199
:103F3000FFE70698006805990A684B68C96801910F
:103F400011461A46019B02F039FB06980068C169C8
:103F500021F00C01C1610598806806990968CA6959
:103F60001043C8611AE00698006805990A684B6812
:103F7000C968009111461A46009B02F055FB06984D
:103F80000068C16921F44061C161059880680699A3
:103F90000968CA6942EA0020C861FFE7FFE7FFE756
:103FA0000698012180F83D10FFE70698002180F86F
:103FB0003C10FFE700208DF81F00FFE79DF81F0071
:103FC00008B080BD80B584B002900298002804D16A
:103FD000FFE701208DF80F0021E0029890F83D00E6
:103FE000002808D1FFE70298002180F83C100298D1
:103FF00000F01AF8FFE70298022180F83D100298BD
:1040000050F8041B01900846019901F025FF029821
:10401000012180F83D1000208DF80F00FFE79DF88A
:104020000F0004B080BD000081B0009001B0704767
:1040300080B584B00390029102980C28009025D896
:104040000099DFE801F0072323230E232323152300
:1040500023231C0003980068C16841F00201C1607D
:1040600015E003980068C16841F00401C1600EE0EA
:1040700003980068C16841F00801C16007E0039837
:104080000068C16841F01001C16000E0FFE70398DB
:1040900000680299012201F07FFF039800688068A0
:1040A00000F0070001900198062807D0FFE7039869
:1040B0000068016841F001010160FFE7002004B0E1
:1040C00080BD000080B582B0019001980068006951
:1040D00000F002000021B1EB500F29D0FFE701985A
:1040E0000068C06800F002000021B1EB500F1ED044
:1040F000FFE7019800686FF002010161019801215A
:1041000001770198006880698007002804D0FFE7E4
:104110000198FFF7C5FD06E0019800F0EDF9019860
:1041200000F090FAFFE7019800210177FFE7FFE731
:1041300001980068006900F004000021B1EB900FC5
:1041400029D0FFE701980068C06800F00400002152
:10415000B1EB900F1ED0FFE7019800686FF00401EB
:10416000016101980221017701980068806910F4CB
:10417000407F04D0FFE70198FFF792FD06E0019829
:1041800000F0BAF9019800F05DFAFFE7019800210C
:104190000177FFE7FFE701980068006900F0080079
:1041A0000021B1EBD00F29D0FFE701980068C0686B
:1041B00000F008000021B1EBD00F1ED0FFE70198FE
:1041C00000686FF0080101610198042101770198EE
:1041D0000068C0698007002804D0FFE70198FFF756
:1041E0005FFD06E0019800F087F9019800F02AFAD7
:1041F000FFE7019800210177FFE7FFE701980068DA
:10420000006900F010000021B1EB101F29D0FFE77A
:1042100001980068C06800F010000021B1EB101F89
:104220001ED0FFE7019800686FF01001016101984E
:104230000821017701980068C06910F4407F04D01C
:10424000FFE70198FFF72CFD06E0019800F054F914
:10425000019800F0F7F9FFE7019800210177FFE7E7
:10426000FFE7019800680069C007002811D0FFE748
:1042700001980068C068C007002809D0FFE70198CE
:1042800000686FF001010161019800F021FAFFE779
:10429000FFE7019800680069C0B20021B1EBD01FB0
:1042A00013D0FFE701980068C068C0B20021B1EBED
:1042B000D01F09D0FFE7019800686FF0800101610D
:1042C0000198FFF747FBFFE7FFE7019800680069E7
:1042D00000F040000021B1EB901F14D0FFE70198DF
:1042E0000068C06800F040000021B1EB901F09D0C9
:1042F000FFE7019800686FF040010161019800F04C
:1043000025FAFFE7FFE701980068006900F0200048
:104310000021B1EB501F14D0FFE701980068C0687E
:1043200000F020000021B1EB501F09D0FFE70198F9
:1043300000686FF0200101610198FFF70FFBFFE7B4
:10434000FFE702B080BD000080B58EB00D900D98E3
:10435000006840F60001C4F20001884201D1FFE785
:10436000C7E00D98006840F20041C4F200018842A5
:1043700047D1FFE7FFE741F21800C4F202000168ED
:1043800041F008010160006800F0080008900898FA
:10439000FFE7FFE741F21800C4F20200016841F0B4
:1043A00004010160006800F0040007900798FFE72F
:1043B0004020099002200A9003210C9140F6000150
:1043C000C4F2010109AA0390084602911146019224
:1043D000FEF75EF98020099002980199FEF758F9DE
:1043E0000120099040F60040C4F2010000900199BC
:1043F000FEF74EF90398099000980199FEF748F9E5
:1044000076E00D98006843F20041C4F20101884251
:104410001ED1FFE7FFE741F21800C4F20200016875
:1044200041F004010160006800F004000690069865
:10443000FFE74FF47070099002200A9003200C905F
:1044400041F20000C4F2010009A9FEF721F94EE093
:104450000D98006842F60041C4F2010188421ED165
:10446000FFE7FFE741F21800C4F20200016841F0E3
:1044700004010160006800F0040005900598FFE762
:104480004FF48070099002200A9003200C9040F6AF
:104490000000C4F2010009A9FEF7FAF826E00D9821
:1044A000006840F60041C4F2000188421DD1FFE7D8
:1044B000FFE741F21800C4F20200016841F0040174
:1044C0000160006800F0040004900498FFE70F20EA
:1044D000099002200A9003200C9040F60000C4F2DC
:1044E000010009A9FEF7D4F8FFE7FFE7FFE7FFE7C0
:1044F000FFE70EB080BD000081B0009001B07047B2
:1045000080B586B0049003910292FFE7049890F87A
:104510003C00012804D1FFE702208DF817008DE050
:104520000498012180F83C10FFE7FFE7049802217E
:1045300080F83D1002980C28019000F270800199DB
:10454000DFE801F0076D6D6D206D6D6D3A6D6D6D7D
:10455000530004980068039901F06AFD049800680C
:10456000816941F00801816104980068816921F046
:104570000401816103980069049909688A691043FC
:1045800088614DE004980068039901F0C9FD049822
:104590000068816941F40061816104980068816963
:1045A00021F48061816103980069049909688A692E
:1045B00042EA0020886133E004980068039901F022
:1045C0002BFE04980068C16941F00801C16104989C
:1045D0000068C16921F00401C16103980069049970
:1045E0000968CA691043C8611AE004980068039911
:1045F00001F08EFE04980068C16941F40061C16158
:1046000004980068C16921F48061C1610398006960
:1046100004990968CA6942EA0020C86100E0FFE71E
:104620000498012180F83D10FFE70498002180F8EC
:104630003C10FFE700208DF81700FFE79DF81700FA
:1046400006B080BD81B0009001B0704780B586B0E3
:10465000059004910598006804990122029201F0E6
:104660009BFC05980068029942F60042C4F20102E0
:10467000904201910CD0FFE7059800684CF600418C
:10468000CBF6FE710844B0FA80F040090190FFE7D4
:104690000198C007002807D0FFE705980068416C23
:1046A00041F400414164FFE705980068806800F02C
:1046B000070003900398062807D0FFE705980068D5
:1046C000016841F001010160FFE7002006B080BDF4
:1046D00080B584B0039044F67870C2F2000001887F
:1046E000428841F69433C2F20003019018460093C9
:1046F000FDF70AF901988188C288009B981CFDF794
:1047000003F9019801894289009B181DFDF7FCF807
:1047100001988189C289009B981DFDF7F5F800205A
:104720000290FFE7029807280DDCFFE7029844F6A5
:104730007871C2F20001002221F81020FFE70298F0
:1047400001300290EEE704B080BD000081B000901F
:1047500001B0704780B582B000900098002804D165
:10476000FFE701208DF8070040E0009880690028ED
:1047700001D0FFE700E0FFE7009890F8390000283B
:1047800008D1FFE70098002180F83810009800F069
:1047900031F8FFE70098242180F83910009800686C
:1047A000C16821F40051C160009802F04DF80098F2
:1047B0000068016921F49041016100980068416935
:1047C00021F02A01416100980068C16841F400515C
:1047D000C16000980021C1630098202280F8392030
:1047E000009880F83A208DF80710FFE79DF8070041
:1047F00002B080BD81B0009001B0704781B00090E0
:104800004EF62C50CEF200000068C00F00280DD0EC
:10481000FFE74EF62C50CEF20000016841F0004157
:104820000160009881690231816170E04EF6245088
:10483000CEF20000006840F22011C2F200010862CE
:104840004EF62850CEF20000007881F824004EF693
:104850002950CEF20000007888624EF63850CEF231
:1048600000000068C8624EF62A50CEF200000088B0
:1048700008864EF62C50CEF20000006848634EF6D3
:104880003050CEF20000006888634EF63C50CEF205
:1048900000000068C86340F2F050C2F2000000213E
:1048A0000160FFE740F2F050C2F20000006800280B
:1048B00001D1FFE7F6E70098006840F22011C2F24C
:1048C000000108600098406848600098806888602F
:1048D0000098C068C8600098006908610098406945
:1048E00048610098806988610098C069C86140F299
:1048F000F050C2F2000000210160FFE740F2F050EA
:10490000C2F200000068002801D1FFE7F6E701B01D
:104910007047000080B542F20020C2F20000103063
:1049200002F022FC80BD000080B542F20020C2F2FD
:1049300000000C3002F018FC80BD000080B542F28F
:104940000020C2F20000083002F00EFC80BD000022
:1049500080B59EB0FFE741F21800C4F20200016882
:1049600041F004010160006800F0040019901998FA
:10497000FFE7FFE741F21800C4F20200016841F0CE
:1049800004010160006800F0040018901898FFE727
:10499000FFE741F21800C4F20200016841F48041CF
:1049A0000160006800F4804017901798FFE74FF40B
:1049B00000701A9002201B9001201C9003211D9171
:1049C00040F60001C4F201011AAA109008460F91A6
:1049D00011460E92FDF75CFE4FF480601A900020A5
:1049E0001B900F990D9008460E99FDF751FE25205A
:1049F0000C9010990D9AFEF7A1F80C98FEF792F81A
:104A000043F60000C4F201004FF4E1310C230B9097
:104A10000D9A03F0CFFC0B98016821F04001016072
:104A2000016821F02001016043F60C01C4F201018C
:104A30000A6842F490720A60FFE741F21800C4F27B
:104A40000200016841F008010160006800F0080000
:104A500016901698FFE7FFE741F21800C4F2020033
:104A6000016841F008010160006800F0080015903D
:104A70001598FFE7FFE741F21C00C4F2020001684D
:104A800041F480210160006800F4802014901498A3
:104A9000FFE74FF480601A9002201B9001201C90C9
:104AA00003211D9140F60041C4F201011AAA0A90A7
:104AB0000846099111460892FDF7EAFD4FF400609F
:104AC0001A9000201B900999079008460899FDF755
:104AD000DFFD272006900A99079AFEF72FF806981F
:104AE000FEF720F844F60000C4F200004FF4E13174
:104AF0000C230590079A03F05DFC0598016821F0EE
:104B000040010160016821F02001016044F60C01C0
:104B1000C4F200010A6842F020020A60FFE741F295
:104B20001800C4F20200016841F010010160006841
:104B300000F0100013901398FFE7FFE741F2180010
:104B4000C4F20200016841F020010160006800F039
:104B5000200012901298FFE7FFE741F21C00C4F218
:104B60000200016841F480110160006800F48010C7
:104B700011901198FFE74FF480501A9002201B907B
:104B800001201C9003211D9141F20001C4F201019A
:104B90001AAA0490084611460392FDF779FD0420F5
:104BA0001A9000201B9041F20041C4F201010290D2
:104BB00008460399FDF76CFD352001900499029A8F
:104BC000FDF7BCFF0198FDF7ADFF45F20000C4F210
:104BD00000004FF416510C230090029A03F0EAFBF8
:104BE0000098016821F040010160016821F0200176
:104BF000016045F20C01C4F200010A6842F0200293
:104C00000A601EB080BD000083B0EFF310800190F9
:104C1000019801210028009109D1FFE7EFF31180ED
:104C200002900298002818BF01200090FFE700982A
:104C300000F0010003B0704783B0EFF310800190E3
:104C4000019801210028009109D1FFE7EFF31180BD
:104C500002900298002818BF01200090FFE70098FA
:104C600000F0010003B0704783B0EFF310800190B3
:104C7000019801210028009109D1FFE7EFF311808D
:104C800002900298002818BF01200090FFE70098CA
:104C900000F0010003B0704783B0EFF31080019083
:104CA000019801210028009109D1FFE7EFF311805D
:104CB00002900298002818BF01200090FFE700989A
:104CC00000F0010003B0704783B0EFF31080019053
:104CD000019801210028009109D1FFE7EFF311802D
:104CE00002900298002818BF01200090FFE700986A
:104CF00000F0010003B0704781B0EFF30580009031
:104D00000098002818BF012001B0704781B0EFF370
:104D1000058000900098002818BF012001B070475E
:104D200081B0EFF3058000900098002818BF0120A3
:104D300001B0704781B0EFF3058000900098002823
:104D400018BF012001B0704781B0EFF305800090DB
:104D50000098002818BF012001B0704781B0EFF320
:104D6000148000909DF80000012121EA000001B0AC
:104D70007047000010B585B0049003910498039922
:104D800050E8002F940103D3BFF32F8F002206E0D9
:104D900002F000420A4340E8002303B1F0E7029228
:104DA00001930094029805B010BD000080B586B054
:104DB000FFE741F21800C4F20200016841F0080167
:104DC0000160006800F0080001900198FFE7C02032
:104DD00002900120039004900321059140F60041C8
:104DE000C4F2010102AA009008461146FDF750FCEA
:104DF00048F29810C4F221200099016048F29C10FA
:104E0000C4F22120016006B080BD000084B0039090
:104E1000029103980299084401900198009000982B
:104E200004B0704781B00090009801B07047000056
:104E3000FFE7FEE780B584B003900398283002F0C6
:104E400025F90190019800281AD0FFE70398C06A5D
:104E50000290FFE70298002811D0FFE70298023085
:104E6000012102F0CFF98DF803009DF8030000281E
:104E700001D1FFE703E0029880680290EAE702E0D0
:104E800000200290FFE7029804B080BD80B586B094
:104E9000059004910598006B002840D0FFE7059825
:104EA000006B039000200290FFE703980021002888
:104EB00001910AD0FFE70398C0780499C9780022CD
:104EC0008842B8BF01220192FFE70198C00700287D
:104ED00006D0FFE703980290039840680390E4E748
:104EE0000398049948600298049988600398002800
:104EF00004D0FFE704980399886003E004980599BB
:104F0000C862FFE70298002804D0FFE704980299DE
:104F1000486003E0049805990863FFE70BE00498F4
:104F2000002141600498816004980599C862049842
:104F300005990863FFE70598283002F005F906B0E7
:104F400080BD000082B00190009100984068002868
:104F500005D0FFE7009841688068886004E0009809
:104F600080680199C862FFE700988068002805D032
:104F7000FFE7009841688068416004E0009840685D
:104F800001990863FFE702B07047000080B582B066
:104F90000A4603468DF80700ADF804109DF9070096
:104FA00000280DD1FFE700F0ADF8BDF90400FBF7D4
:104FB00025F941F64041C2F20001096848630CE05E
:104FC00000F08CF8BDF90400FBF718F941F64041F8
:104FD000C2F2000109684863FFE702B080BD00002B
:104FE00080B582B00A4603468DF80700ADF804107C
:104FF0009DF9070000280DD1FFE700F0ABF8BDF9DF
:105000000400FBF7FBF841F64041C2F200010968D9
:1050100088630CE000F08CF8BDF90400FBF7EEF8B3
:1050200041F64041C2F2000109688863FFE702B01F
:1050300080BD000080B582B00A4603468DF80700A7
:10504000ADF804109DF9070000280DD1FFE700F02E
:10505000A7F8BDF90400FBF7D1F841F64041C2F2D0
:1050600000010968C8630CE000F086F8BDF904008F
:10507000FBF7C4F841F64041C2F200010968C86379
:10508000FFE702B080BD000080B582B00A4603464B
:105090008DF80700ADF804109DF9070000280DD128
:1050A000FFE700F0DBFABDF90400FBF7A7F841F6D3
:1050B0004041C2F20001096808640CE000F0BAFA4D
:1050C000BDF90400FBF79AF841F64041C2F2000135
:1050D00009680864FFE702B080BD000080B582B0B7
:1050E00041F20000C4F2010002210122019000926D
:1050F000FDF79AFC002201980099FDF795FC02B09B
:1051000080BD000080B582B041F20000C4F2010011
:10511000022100220190FDF787FC012001990090F7
:1051200008460099009AFDF77FFC02B080BD0000A0
:1051300080B582B041F20000C4F2010004210122D6
:105140000190FDF771FC082100220198FDF76CFC2D
:1051500002B080BD80B582B041F20000C4F201000F
:10516000042100220190FDF75FFC08210122019833
:10517000FDF75AFC02B080BD80B582B040F6004019
:10518000C4F201004FF4807101220190FDF74CFC44
:105190004FF4007100220198FDF746FC02B080BD7B
:1051A00080B582B040F60040C4F201004FF4807137
:1051B00000220190FDF738FC4FF4007101220198A4
:1051C000FDF732FC02B080BD2DE9F04F93B09C4654
:1051D00096460C4605468DF84B00ADF848108DF804
:1051E0004720ADF844300020ADF84200ADF8400053
:1051F000ADF83E00ADF83C00ADF83A00ADF838002F
:10520000ADF83600ADF834008DF833008DF832007B
:105210008DF831008DF83000ADF82E00BDF8480053
:10522000002808D1FFE7BDF84400002803D1FFE7BC
:1052300000F080FBFFE7BDF84400B0F5167F05DB0A
:10524000FFE74FF41670ADF84400FFE7BDF84800E3
:1052500000282CD1FFE79DF8470000280BD1FFE77D
:1052600000208DF833008DF8320001208DF83100D8
:105270008DF830000AE001208DF833008DF83200FF
:1052800000208DF831008DF83000FFE7BDF84400B4
:10529000ADF84200BDF84400ADF84000BDF8440050
:1052A000ADF83E00BDF84400ADF83C0032E1BDF879
:1052B0004800FBF7A2F941F27B42C4F2AE7247F616
:1052C000E123C3F68473FBF792F8002241F61073D2
:1052D000C4F2F2030A92FBF78AF80023C4F27903BE
:1052E0000A9AFBF7F6F8FBF7B2F9ADF82E009DF835
:1052F0004B00002840F08780FFE79DF8470000281A
:1053000040D1FFE701208DF831009DF831008DF884
:105310003000BDF82E00BDF844100844ADF83E0042
:10532000BDF83E00ADF83C00BDF84400BDF82E10BD
:10533000884213DBFFE700208DF833009DF833002F
:105340008DF83200BDF84400BDF82E10401AADF8BB
:105350004200BDF84200ADF8400012E001208DF897
:1053600033009DF833008DF83200BDF82E00BDF8F3
:105370004410401AADF84200BDF84200ADF84000BC
:10538000FFE73FE000208DF831009DF831008DF8F7
:105390003000BDF82E00BDF844100844ADF83E00C2
:1053A000BDF83E00ADF83C00BDF84400BDF82E103D
:1053B000884213DBFFE701208DF833009DF83300AE
:1053C0008DF83200BDF84400BDF82E10401AADF83B
:1053D0004200BDF84200ADF8400012E000208DF818
:1053E00033009DF833008DF83200BDF82E00BDF873
:1053F0004410401AADF84200BDF84200ADF840003C
:10540000FFE7FFE785E09DF84700002840D1FFE770
:1054100000208DF833009DF833008DF83200BDF880
:105420002E00BDF844100844ADF84200BDF842001B
:10543000ADF84000BDF84400BDF82E10884213DBE3
:10544000FFE701208DF831009DF831008DF8300024
:10545000BDF84400BDF82E10401AADF83E00BDF86E
:105460003E00ADF83C0012E000208DF831009DF8C0
:1054700031008DF83000BDF82E00BDF84410401A00
:10548000ADF83E00BDF83E00ADF83C00FFE73FE060
:1054900001208DF833009DF833008DF83200BDF8FF
:1054A0002E00BDF844100844ADF84200BDF842009B
:1054B000ADF84000BDF84400BDF82E10884213DB63
:1054C000FFE700208DF831009DF831008DF83000A5
:1054D000BDF84400BDF82E10401AADF83E00BDF8EE
:1054E0003E00ADF83C0012E001208DF831009DF83F
:1054F00031008DF83000BDF82E00BDF84410401A80
:10550000ADF83E00BDF83E00ADF83C00FFE7FFE718
:10551000FFE7FFE741F69430C2F200000188BDF8D2
:10552000422000230990184606F0C8F8ADF83A006A
:10553000BDF83A00ADF8380009988188BDF83E20E2
:10554000022006F0BBF8ADF83600BDF83600ADF825
:105550003400BDF84210BDF84020BDF83E30BDF823
:105560003C00BDF83AC0BDF838E0BDF83640BDF8A3
:105570003450099E3788B6F80280B6F80490B6F821
:1055800006A0EB46CBF820A0CBF81C90CBF81880F7
:10559000CBF81470CBF81050CBF80C40CBF808E0E7
:1055A000CBF804C0CBF800004CF22D30C0F6000060
:1055B00006F04CF9BDF84210002904D1FFE70020A5
:1055C000ADF83A00FFE7BDF84000002804D1FFE73E
:1055D0000020ADF83800FFE7BDF83E00002804D1F8
:1055E000FFE70020ADF83600FFE7BDF83C000028DB
:1055F00004D1FFE70020ADF83400FFE79DF9330048
:10560000BDF93A10FFF7C2FC9DF93200BDF9381020
:10561000FFF7E6FC9DF93100BDF93610FFF70AFDF2
:105620009DF93000BDF93410FFF72EFD13B0BDE831
:10563000F08F000080B582B041F20000C4F201009A
:105640004FF4006101220190FDF7EEF94FF4806103
:1056500000220198FDF7E8F902B080BD80B582B064
:1056600041F20000C4F201004FF4006100220190F9
:10567000FDF7DAF94FF4806101220198FDF7D4F9C2
:1056800002B080BD7047000088B007900691059277
:10569000079800F0070004900498C0F1070005285F
:1056A00003D3FFE70420019004E00498C0F1070051
:1056B0000190FFE70198039004980430062803D86E
:1056C000FFE70020009003E0049803380090FFE714
:1056D0000098029006980399012202FA01F101391B
:1056E000084002998840059B02FA01F101391940EE
:1056F000084308B07047000080B582B000208DF8E4
:105700000700FFE79DF80700072823DCFFE70020DC
:105710008DF80600FFE79DF806007F2813DCFFE701
:105720009DF8060040F26011C2F2000101EBC000DA
:105730009DF8071000224254FFE79DF80600013053
:105740008DF80600E7E7FFE79DF8070001308DF8C8
:105750000700D7E700F002F802B080BD80B584B042
:1057600000208DF80F00FFE79DF80F00072846DCAA
:10577000FFE79DF80F00B030C0B20021029100F0A9
:1057800041F80298029900F03DF81020029900F0CB
:1057900039F802F021FF782002F06EFE02F0E4FEFC
:1057A00040210190084602F067FE02F0DDFE0299FA
:1057B0008DF80E10FFE79DF80E007F2816DCFFE73E
:1057C0009DF80E0040F26011C2F2000101EBC00032
:1057D0009DF80F10405C02F04FFE02F0C5FEFFE79F
:1057E0009DF80E0001308DF80E00E4E702F09CFEFB
:1057F000FFE79DF80F0001308DF80F00B4E704B00B
:1058000080BD000080B586B00A4603468DF81700BB
:105810008DF816100492039302F0DEFE782002F059
:105820002BFE02F0A1FE9DF81610002904D0FFE720
:10583000402002F021FE03E0002002F01DFEFFE701
:1058400002F092FE9DF817100290084602F014FE36
:1058500002F08AFE019002F067FE06B080BD0000F3
:105860004EF21000CEF200000068704740F2E050A7
:10587000C2F20000007800280ED0FFE740F2E050AE
:10588000C2F20000002101704EF60450CEF200007A
:105890004FF080610160FFE74EF21000CEF2000091
:1058A000016841F001010160704700004FF0FF30D6
:1058B0007047000084B0029001910298002804D142
:1058C000FFE74FF0FF30039031E040F20400C2F2F6
:1058D000000000680299B0FBF1F0013800900098D8
:1058E000B0F1807F04D3FFE74FF0FF3003901EE05C
:1058F0004EF62350CEF20000FF2101704EF2100050
:10590000CEF200000621016000984EF21401CEF2A2
:10591000000108604EF21800CEF200000021016084
:1059200040F2E050C2F2000001700391FFE70398DB
:1059300004B0704744F6B870C2F200000021C160A4
:10594000016144F6CC70C2F20000C160016144F60E
:10595000E070C2F20000C160016144F6F470C2F26E
:105960000000C1600161704780B588B0FFE741F277
:105970001800C4F20200016841F0040101600068EF
:1059800000F0040007900798FFE7FFE741F21800D6
:10599000C4F20200016841F010010160006800F0EB
:1059A000100006900698FFE74FF400500290012087
:1059B000039002210491059040F60040C4F20100DA
:1059C00002A901900091FCF763FE4FF400400290A1
:1059D00001980099FCF75CFE4FF48050029001980A
:1059E0000099FCF755FE002003904FF48040029090
:1059F00001980099FCF74CFE08B080BD82B0019080
:105A0000019840F20401C2F200010968C90844F695
:105A1000D352C1F26202A1FB0212920950430090DC
:105A2000FFE700BFFFE70098411E00910028F8D172
:105A3000FFE702B07047000080B586B0DDF820C0F7
:105A40000590049103920293FFE740F2F450C2F2F2
:105A500000000078002803D1FFE701F037F9FFE7E5
:105A6000FFE7059840F2F451C2F20001496988420B
:105A700043D2FFE7EFF311804FF0200181F311884B
:105A800000900598002827D0FFE70498059901EBBE
:105A9000410140F2F452C2F20002603242F8310099
:105AA0000398059901EB410102EBC101486002989E
:105AB000059901EB410102EBC1018860059800EBFB
:105AC000400002EBC00000210161059800EB40009E
:105AD00002EBC000C160FFE70898059901EB4101A6
:105AE00040F2F452C2F2000202EBC1014867009892
:105AF00080F311880020019003E04FF0FF30019007
:105B0000FFE7019806B080BD80B586B0DDF820C003
:105B10000590049103920293FFE740F2F450C2F221
:105B200000000078002803D1FFE701F0CFF8FFE77D
:105B3000FFE7059840F2F451C2F20001096988427A
:105B400043D2FFE7EFF311804FF0200181F311887A
:105B500000900598002827D0FFE70498059901EBED
:105B6000410140F2F452C2F20002183242F8310010
:105B70000398059901EB410102EBC10148600298CD
:105B8000059901EB410102EBC1018860059800EB2A
:105B9000400002EBC00000210161059800EB4000CD
:105BA00002EBC000C160FFE70898059901EB4101D5
:105BB00040F2F452C2F2000202EBC101C862009846
:105BC00080F311880020019003E04FF0FF30019036
:105BD000FFE7019806B080BD80B586B005900491BE
:105BE0000392FFE740F2F450C2F200000078002870
:105BF00003D1FFE701F06AF8FFE7FFE7EFF3118059
:105C00004FF0200181F31188019005980499039ABF
:105C100000F008F80290019880F31188029806B00D
:105C200080BD000080B58AB009900891079208985D
:105C30000490099800EB400040F2F451C2F20001D8
:105C400001EBC000183003900398406900280290CF
:105C500008D0FFE70298012819D0FFE70298022830
:105C60002CD032E0039801F07DF805900598079953
:105C7000884203D2FFE70020069007E007980690CD
:105C800003980499079A01F0FBF8FFE720E00398D6
:105C900001F068F8059005980799884203D2FFE75C
:105CA0000598019002E007980190FFE7019806909F
:105CB00003980499069A01F0E3F809E0039804991F
:105CC000079A01F06FF8069002E000200690FFE7C7
:105CD00006980AB080BD000080B582B04EF6225012
:105CE000CEF20000FF210170007880F0FF00B0FAD2
:105CF00080F0C0F12000009001F024F9019001989B
:105D00000099884204D3FFE7019801300090FFE733
:105D10000098FE2101FA00F04EF61F51CEF200016C
:105D2000087002B080BD00004EF60450CEF20000B4
:105D30004FF080510160704781B001468DF803003B
:105D4000202001B07047000080B592B008A828213B
:105D50000290FAF770FA00200790069005900490E0
:105D60000390012108914FF4803209920A900C911E
:105D700002200F9010924FF4E01011900298FDF75E
:105D8000A3FA002808D0FFE74CF29330C0F60000D9
:105D90008121FBF7B9F8FFE70F2003900220049060
:105DA000002105914FF480620692079103A90190AA
:105DB00008460199FDF7BEF8002808D0FFE74CF22D
:105DC0009330C0F600008E21FBF79EF8FFE712B07B
:105DD00080BD000041F20000C4F20200016841F001
:105DE0000101016041F20401C4F202010A680023CA
:105DF000CFF6FF031A400A6002684FF6FF73CFF632
:105E0000F6631A400260026822F480220260086889
:105E100020F4FE00086041F20800C4F202004FF4D2
:105E20001F0101604EF60850CEF200004FF00061F5
:105E30000160704780B582B0FCF744FE0190FFF727
:105E400083FF02B080BD000080B541F6C040C2F2C1
:105E50000000FEF737F980BD83B0029001910298EF
:105E600000680090029842F60041C4F201018842A5
:105E700025D0FFE7029843F20041C4F201018842B5
:105E80001DD0FFE70298B0F1804F18D0FFE70298CD
:105E900040F20041C4F20001884210D0FFE70298AE
:105EA00040F60001C4F20001884208D0FFE70298E2
:105EB00040F60041C4F2000188420AD1FFE7009891
:105EC00020F070000090019840680099084300900D
:105ED000FFE7029842F60041C4F20101884225D052
:105EE000FFE7029843F20041C4F2010188421DD04D
:105EF000FFE70298B0F1804F18D0FFE7029840F218
:105F00000041C4F20001884210D0FFE7029840F639
:105F10000001C4F20001884208D0FFE7029840F671
:105F20000041C4F2000188420AD1FFE7009820F442
:105F3000407000900198C068009908430090FFE706
:105F4000009820F08000019949690843009000986A
:105F500002990860019880680299C86201980068F7
:105F600002998862029842F60041C4F20101884217
:105F700008D0FFE7029843F20041C4F201018842D1
:105F800005D1FFE70198006902990863FFE70298CD
:105F90000121416103B0704784B0039002910192E6
:105FA000029800F01F00012101FA00F00090009813
:105FB00003990A6A22EA000008620198029901F036
:105FC0001F01884003990A6A1043086204B07047B1
:105FD00085B0049003910292019304988068009028
:105FE000009820F47F40009003980299019A41EABA
:105FF00002210843009908430090009804998860A2
:1060000005B0704783B002900191029880680090BB
:10601000009820F07000009001980099084340F02B
:106020000700009000980299886003B07047000054
:1060300085B0049003910498016A21F00101016286
:106040000498006A01900498406800900498806960
:106050000290029820F070000290029820F0030055
:10606000029003980068029908430290019820F07A
:1060700002000190039880680199084301900498F8
:1060800042F60041C4F20101884208D0FFE70498BB
:1060900043F20041C4F2010188420ED1FFE70198AA
:1060A00020F0080001900398C0680199084301900E
:1060B000019820F004000190FFE7049842F60041A7
:1060C000C4F20101884208D0FFE7049843F200417E
:1060D000C4F20101884213D1FFE7009820F48070D8
:1060E0000090009820F40070009003984069009997
:1060F0000843009003988069009908430090FFE7E7
:10610000009804994860029804998861039840684F
:106110000499486301980499086205B0704700002B
:1061200085B0049003910498016A21F01001016286
:106130000498006A0190049840680090049880696F
:106140000290029820F4E0400290029820F44070FF
:10615000029003980068029941EA00200290019899
:1061600020F02000019003988068019941EA001016
:106170000190049842F60041C4F20101884208D01F
:10618000FFE7049843F20041C4F2010188420FD1B5
:10619000FFE7019820F0800001900398C068019902
:1061A00041EA00100190019820F040000190FFE7C3
:1061B000049842F60041C4F20101884208D0FFE78A
:1061C000049843F20041C4F20101884215D1FFE76F
:1061D000009820F480600090009820F40060009007
:1061E00003984069009941EA800000900398806913
:1061F000009941EA80000090FFE700980499486008
:10620000029804998861039840680499886301980A
:106210000499086205B0704785B004900391049812
:10622000016A21F4807101620498006A0190049867
:10623000406800900498C0690290029820F07000B5
:106240000290029820F003000290039800680299DF
:1062500008430290019820F4007001900398806830
:10626000019941EA00200190049842F60041C4F2ED
:106270000101884208D0FFE7049843F20041C4F2CC
:10628000010188420FD1FFE7019820F400600190DE
:106290000398C068019941EA00200190019820F418
:1062A00080600190FFE7049842F60041C4F20101CA
:1062B000884208D0FFE7049843F20041C4F201018C
:1062C000884215D1FFE7009820F480500090009894
:1062D00020F40050009003984069009941EA0010B2
:1062E000009003988069009941EA00100090FFE750
:1062F00000980499486002980499C861039840681E
:106300000499C86301980499086205B070470000B9
:1063100085B0049003910498016A21F480510162D0
:106320000498006A01900498406800900498C0693D
:106330000290029820F4E0400290029820F440700D
:10634000029003980068029941EA002002900198A7
:1063500020F40050019003988068019941EA0030D0
:106360000190049842F60041C4F20101884208D02D
:10637000FFE7049843F20041C4F2010188420BD1C7
:10638000FFE7009820F4804000900398406900994E
:1063900041EA80100090FFE7009804994860029855
:1063A0000499C861039840680499086401980499A5
:1063B000086205B07047000085B004900391029216
:1063C0000498006A00900498016A21F001010162BA
:1063D000049880690190019820F0F00001900298E3
:1063E000019941EA00100190009820F00A00009005
:1063F00003980099084300900198049988610098D7
:106400000499086205B0704787B006900591049220
:1064100003930698016A21F00101016206988069E0
:1064200002900698006A01900698012142F6004207
:10643000C4F201029042009130D0FFE7069801219A
:1064400043F20042C4F201029042009126D0FFE7DD
:1064500006980121B0F1804F00911FD0FFE7069808
:10646000012140F20042C4F200029042009115D096
:10647000FFE70698012140F60002C4F200029042B4
:1064800000910BD0FFE706984FF20041CBF6FF7169
:106490000844B0FA80F040090090FFE70098C00778
:1064A000002809D0FFE7029820F00300029004982A
:1064B00002990843029004E0029840F00100029023
:1064C000FFE7029820F0F000029003980001C0B2AC
:1064D000029908430290019820F00A000190059863
:1064E00000F00A000199084301900298069988611A
:1064F00001980699086207B07047000085B00490C3
:10650000039102920498016A21F01001016204983B
:10651000806901900498006A0090019820F470400E
:1065200001900298019941EA00300190009820F012
:10653000A00000900398009941EA00100090019893
:106540000499886100980499086205B070470000BA
:1065500086B005900491039202930598016A21F098
:10656000100101620598806901900598006A009009
:10657000019820F4407001900398019941EA0020AD
:106580000190019820F4704001900298000380B2BD
:10659000019908430190009820F0A0000090049811
:1065A00000F00A00009941EA001000900198059956
:1065B000886100980599086206B0704786B005901A
:1065C0000491039202930598016A21F4807101629B
:1065D0000598C06901900598006A0090019820F024
:1065E000030001900398019908430190019820F05D
:1065F000F000019002980001C0B201990843019097
:10660000009820F400700090049800F002000099B7
:1066100041EA0020009001980599C8610098059909
:10662000086206B07047000086B00590049103929E
:1066300002930598016A21F4805101620598C069AE
:1066400001900598006A0090019820F44070019034
:106650000398019941EA00200190019820F47040CC
:1066600001900298000380B20199084301900098BC
:1066700020F400500090049800F00200009941EAD4
:106680000030009001980599C8610098059908624A
:1066900006B0704780B584B00390029101929DF8D6
:1066A00004008007002815D4FFE79DF80400C00708
:1066B000002807D0FFE703982830029900F08AFCF1
:1066C000009006E003982830029900F09FFC0090AB
:1066D000FFE71DE00398806A00909DF80400C00762
:1066E000002806D0FFE700980299084088420BD1A5
:1066F000FFE79DF80400C007002808D1FFE70098D5
:106700000299084203D1FFE700200090FFE7FFE76E
:10671000009804B080BD000085B004900391002073
:10672000029040F20C00C2F20000406C0190FFE7C2
:10673000019800210028009109D0FFE70198006925
:1067400003990022884298BF01220092FFE7009837
:10675000C00700280BD0FFE7019800690399081AC9
:106760000390019802900198C0680190E0E70398B7
:106770000499086102980499886001980499C86096
:10678000019800280AD0FFE70498006901990A6976
:10679000101A0861049801998860FFE702980028A0
:1067A00004D0FFE704980299C86006E0049840F21C
:1067B0000C01C2F200014864FFE705B07047000019
:1067C00081B000900098C06800280BD0FFE70098C7
:1067D000C16800690A691044086100988168C0684E
:1067E0008160FFE700988068002805D0FFE70098E7
:1067F0008168C068C86007E00098C06840F20C017A
:10680000C2F200014864FFE701B0704781B0009018
:106810000098C068002805D0FFE700988168C0682C
:106820008160FFE70098C06840F20C01C2F20001ED
:10683000486401B07047000080B541F6F830C2F2FC
:10684000000000F0E3F880BD80B584B003900398A9
:106850000068006920F4405003990A68C968084339
:1068600010610398816802694069114308430290EE
:1068700003980068C06841F20C618843029908439C
:1068800003990968C86003980068406920F4407063
:1068900003990A688969084350610398006843F6C0
:1068A0000001C4F20101884229D1FFE7FCF786FC10
:1068B000019001981921484303990A6849688900A1
:1068C000B0FBF1F048F21F51C5F2EB11A0FB013C07
:1068D0004FEA5C1C4FF0640E0CFB1E004FF0320EB2
:1068E0000EEB0010A0FB01014FF0F00E0EEA511E5E
:1068F0000EEB0C1CC1F343116144916028E0FCF7DE
:106900004BFC019001981921484303990A68496892
:106910008900B0FBF1F048F21F51C5F2EB11A0FB6A
:10692000013C4FEA5C1C4FF0640E0CFB1E004FF064
:10693000320E0EEB0010A0FB01014FF0F00E0EEA3C
:10694000511E0EEB0C1CC1F3431161449160FFE733
:1069500004B080BD80B541F6A030C2F2000000F066
:1069600055F880BD80B541F6CC30C2F2000000F091
:106970004DF880BD80B540F2F400C2F20000FBF794
:106980000FFB80BD88B00290019101200490049813
:1069900080F310880298408BADF80200002005902B
:1069A000059880F31088BDF80200002804D1FFE7A5
:1069B00000208DF80F0025E002988168008B085CAC
:1069C0000199087001200690069880F310880298BB
:1069D000018B0131018388B20299C989884204DBA5
:1069E000FFE7029800210183FFE70298418B0139FC
:1069F000418300200790079880F3108801208DF8CC
:106A00000F00FFE79DF80F0008B0704780B586B013
:106A10000590059800680068049005980068C068B3
:106A2000039005980068406902909DF81000800668
:106A3000002834D5FFE70598006840688DF8070006
:106A40009DF8070005998A68C98A50540598C18A3B
:106A50000131C18288B20599C989884204DBFFE708
:106A600005980021C182FFE70598408B0599C989E7
:106A7000884205DAFFE70598418B01314183FFE742
:106A80000598406A002809D0FFE70598406A9DF8FC
:106A900007100090084600998847FFE7FFE79DF838
:106AA00010000006002837D5FFE79DF80C0000060F
:106AB000002831D5FFE70598808A00280DD1FFE72F
:106AC00005980068C16821F08001C16005980068E0
:106AD000C16841F04001C1601DE00598012180F8C6
:106AE000281005984168408A085C05990968486043
:106AF0000598418A0131418288B205998989884285
:106B000004DBFFE7059800214182FFE70598818AB1
:106B100001398182FFE7FFE79DF810004006002859
:106B20003AD5FFE79DF80C004006002834D5FFE772
:106B30000598808A002814D1FFE705980068C1688D
:106B400021F04001C1600598006A002804D0FFE7E9
:106B50000598006A8047FFE70598002180F8281013
:106B600019E005984168408A085C05990968486001
:106B70000598418A0131418288B205998989884204
:106B800004DBFFE7059800214182FFE70598818A31
:106B900001398182FFE7FFE706B080BD41F6A030F2
:106BA000C2F2000043F60001C4F20101016041F2AB
:106BB0003031C2F20001416040F6C621C2F200014C
:106BC00081604FF480618181C18100220282428212
:106BD000C282028342838282C26102624BF2A56357
:106BE000C0F60003436280F8282041F6CC30C2F2A0
:106BF000000044F60003C4F20003036041F2307366
:106C0000C2F20003436040F6C663C2F20003836031
:106C10008181C18102824282C28202834283828256
:106C2000C26102624BF29961C0F60001416280F8D4
:106C3000282041F6F830C2F2000045F20001C4F20B
:106C40000001016041F63031C2F20001416041F2C1
:106C5000C621C2F20001816064218181C18102826A
:106C60004282C282028342838282C26102624262A3
:106C700080F828207047000010B585B0049003917B
:106C80000498039950E8003F9B0103D2BFF32F8F74
:106C9000002204E040E8001404B1F3E7012200926E
:106CA00002930194009805B010BD000080B582B039
:106CB0000190019942F20020C2F20000183000F069
:106CC000B7FA02B080BD0000FFE7FEE780B582B0F2
:106CD00040F2F450C2F200000190019803210161DA
:106CE0000198416101984CF21141C0F600018161A7
:106CF000019840F2AC62C2F20002C26101984FF406
:106D000080620262019800228262019842620198C8
:106D1000C26201980166019840F29C61C2F20001D2
:106D20004166019810218166019802670198C26648
:106D300001984267019807304CF20D41C0F60001FE
:106D4000F9F784FA01994CF20642C0F6000200906D
:106D500008461146F9F77AFA019920228A7102B0A1
:106D600080BD000084B003900398006902900398EE
:106D7000C068019002980199884209D8FFE70398FA
:106D800080680199401A029908440138009005E092
:106D900002980199C94308440090FFE7009804B0A5
:106DA0007047000080B58AB00990089107920020D2
:106DB00005900998C0680390FFE70998006904905E
:106DC00004980399884206D9FFE704980399C943B8
:106DD0000844069008E0099880680399049A891A83
:106DE000C94308440690FFE7069809998968039A01
:106DF000891A884203D2FFE70698029005E00998B5
:106E000080680399401A0290FFE70298069006985E
:106E10000799884203D2FFE70698019002E007989D
:106E20000190FFE70198069009984068039908448B
:106E30000899069AF9F7E6F90699059A1144059119
:106E40000699089A114408910699079A511A0791D0
:106E50000699039A114403910399099A9268914201
:106E600003D1FFE700200390FFE703980999C8606A
:106E7000FFE707980028A0D1FFE705980AB080BD7A
:106E800080B588B00790069105920798C068039076
:106E9000079880680399401A0290029805998842E1
:106EA0000ED9FFE707984068039908440699059AA8
:106EB000F9F7A8F90399059A1144079AD1601DE0E2
:106EC0000298049007984068039908440699049A28
:106ED000F9F798F90599029A891A0491079949686E
:106EE000069A029B1A44049B0190084611461A46D2
:106EF000F9F788F90499079AD160FFE708B080BDD7
:106F000081B001468DF803009DF9030000280FD4DD
:106F1000FFE79DF9030000F01F01012202FA01F1D1
:106F200040094EF20012CEF2000242F82010FFE7B4
:106F300001B070474EF60C50CEF200000068C0F36E
:106F4000022070474EF60C50CEF200000068C0F3ED
:106F50000220704782B002468DF8070000919DF92B
:106F6000070000280AD4FFE7009800019DF90710E8
:106F70004EF20042CEF2000288540BE0009800016D
:106F80009DF8071001F00F014EF61452CEF20002E8
:106F90008854FFE702B0704783B00290029800F077
:106FA000070000904EF60C50CEF2000001680191EF
:106FB00001994FF6FF02114001910199009A41EAAF
:106FC00002210022C0F2FA5211430191019901609D
:106FD00003B0704710B585B00490039104980399ED
:106FE00050E8002F02EA01038B4203D0BFF32F8F3A
:106FF000002205E022EA010340E8003404B1EFE793
:10700000009202930194009805B010BD10B585B0B0
:10701000049003910498039950E8002F0A4203D189
:10702000BFF32F8F002205E022EA010340E800347D
:1070300004B1F1E7009202930194009805B010BDED
:1070400084B003900398D0E85F1F11B9BFF32F8F6E
:1070500004E04A1EC0E8532F03B1F4E7ADF8021074
:1070600002920193BDF8020004B0704784B003900F
:10707000039850E8001F4A1E40E8002303B1F8E7D8
:10708000009102920193009804B0704784B003907D
:10709000039850E8001F11B9BFF32F8F04E04A1E78
:1070A00040E8002303B1F4E70091029201930098B5
:1070B00004B07047B0B585B00A460490ADF80E1024
:1070C0000498BDF80E10D0E85F3F5C1CA14200D8C8
:1070D0000024C0E8554F05B1F5E7ADF80230029441
:1070E0000195BDF8020005B0B0BD0000B0B585B097
:1070F0000A460490ADF80E100498BDF80E10D0E8C2
:107100005F3F994202D8BFF32F8F04E05C1CC0E8B8
:10711000554F05B1F3E7ADF8023002940195BDF883
:10712000020005B0B0BD000084B00390039850E8A1
:10713000001F4A1C40E8002303B1F8E700910292C7
:107140000193009804B0704784B00390039850E80E
:10715000001F4A1C40E8002303B1F8E700910292A7
:107160000193009804B0704784B00390039850E8EE
:10717000001F4A1C40E8002303B1F8E70091029287
:107180000193009804B0704784B003900398D0E84E
:107190004F1F4A1CC0E8432F03B1F8E78DF80310D6
:1071A000029201939DF8030004B0704784B00390ED
:1071B000039850E8001F11B9BFF32F8F04E00A684D
:1071C00040E8002303B1F4E7009102920193009894
:1071D00004B0704710B585B00490039104980399EA
:1071E00002680A60BFF35F8F50E8002F0B6893427C
:1071F000F6D140E8001404B1F2E702920193009442
:1072000005B010BD10B584B00A4603908DF80B1080
:1072100003989DF80B10D0E84F3FC0E8441F04B11D
:10722000F9E78DF8033001949DF8030004B010BD18
:1072300084B0039002910398029950E8002F40E82F
:10724000001303B1F9E700920193009804B070476E
:1072500080B582B000200190019900F015F80198E6
:107260000199FDF793FE01980199FDF7B9FE019888
:107270000199FDF7DFFE01980199FDF705FFFEF783
:1072800059FB02B080BD000080B586B00A460346B7
:107290008DF817008DF816109DF8170000281ED1E4
:1072A000FFE740F2DC50ADF814009DF816104FF4E3
:1072B0002F72514348F21F52C5F2EB12A1FB02128A
:1072C000A0EBD200ADF81400BDF814000122039029
:1072D0001046039A0291114602F070FFFFE79DF8F5
:1072E000170001281ED1FFE740F2DC50ADF8120074
:1072F0009DF816104FF42F72514348F21F52C5F2F9
:10730000EB12A1FB021200EBD200ADF81200BDF8A7
:107310001200012201901046019A0091114602F0DC
:107320004DFFFFE706B080BD80B582B040F6B421C6
:10733000C2F20001042001F061F8002800F0018190
:10734000FFE740F6B420C2F2000000783038014672
:107350003228009100F2D8800099DFE811F0330064
:10736000D400D40049005600330063007400BA0012
:10737000C700D500D500D500D500D500D500D50073
:10738000D500D500D500D500D500D500D500D50055
:10739000D500D500D500D500D500D500D500D50045
:1073A000D500D500D500D500D500D500D500D50035
:1073B000D500D500D500D500D500D500D500D50025
:1073C00085009A0040F6AE20C2F200000021018044
:1073D00040F6AC20C2F20000017040F6B020C2F2CC
:1073E0000000017040F6B220C2F2000001808EE081
:1073F00040F6B020C2F200000021017040F6B22039
:10740000C2F20000C821018081E040F6B020C2F243
:1074100000000121017040F6B220C2F20000C82134
:10742000018074E040F20800C2F20000008840F6DB
:10743000AE21C2F20001088040F6AC20C2F200008A
:107440000021017063E040F20800C2F200000088F1
:1074500040F6AE21C2F20001088040F6AC20C2F234
:1074600000000121017052E040F20800C2F2000069
:107470000188323101800088B0F5487F08DBFFE7E2
:1074800040F20800C2F200004FF448710180FFE7AB
:107490003DE040F20800C2F200000088012808DB4D
:1074A000FFE740F20800C2F2000001883239018093
:1074B000FFE740F20800C2F200000088002807DC65
:1074C000FFE740F20800C2F2000000210180FFE760
:1074D0001DE040F6B020C2F200000021017040F62D
:1074E000B220C2F20000C821018010E040F6B020B6
:1074F000C2F200000121017040F6B220C2F2000089
:10750000C821018003E002E0FFF7A2FEFFE740F69A
:10751000B020C2F20000007840F6B221C2F20001B1
:10752000098840F6AC22C2F20002127840F6AE237F
:10753000C2F200031B88FDF747FE01208DF807000B
:1075400003E000208DF80700FFE79DF8070002B078
:1075500080BD000084B0039041F20400CEF2000030
:107560000068009000200290039840F20401C2F2EB
:10757000000109684DF68362C4F21B32A1FB0212BE
:10758000920C50430190FFE702980199884209D27A
:10759000FFE741F20400CEF2000000680099401AB3
:1075A0000290F1E704B0704780B500F023FA00F0D4
:1075B00021F900F055FE00F0F9FB00F063FC00F04B
:1075C000D3FD00F0ABFB00F07DFA00F02BF9FEF7E5
:1075D000CBF900F075FBFDF7E9FB00F007F800F0D0
:1075E00067F900F0D1FA00F02BF880BD80B58AB0C1
:1075F000022004904FF40040069004A8FBF7B4FB6F
:1076000040F2C001C2F2000142F20042C4F20102A3
:107610000A6000224A608A600A7301230B610A75BE
:107620008A614FF46022CA61039008460291FAF71A
:1076300065FA029901900846FAF7AAF90AB080BDE6
:1076400080B598B0FFE741F21C00C4F20200016867
:1076500041F000710160006800F000700990099825
:10766000FFE7FFE741F21800C4F20200016841F0B1
:1076700004010160006800F0040008900898FFE72A
:10768000FFE741F21800C4F20200016841F0010175
:107690000160006800F0010007900798FFE7FFE72E
:1076A0000420C4F2010001680691069921F4C0414A
:1076B0000691069941F0E061069106990160FFE7A5
:1076C0004FF480500A9002200B9003200D9001216E
:1076D0000C9140F60002C4F201020AAB059010467C
:1076E0000491194603920293FAF7D2FF4FF4006017
:1076F0000A9000200B9005990D91049A0C92039B1F
:10770000019018460299FAF7C3FF142000900499DB
:10771000019AFBF713FA0098FBF704FA40F2F40021
:10772000C2F2000046F20041C4F20001016001997A
:107730000176049A42768276C1760177417781603C
:10774000C1604FF4C02303614FF44013436106232B
:107750004360FAF727FE002808D0FFE74CF2E93033
:10776000C0F600004721F9F7CFFBFFE70020139098
:107770001490012115910E900F901090119012907D
:1077800016910E20179040F2F400C2F200000EA9EC
:10779000FAF73CFB002808D0FFE74CF2E930C0F6CE
:1077A00000005921F9F7B0FBFFE740F2F400C2F204
:1077B0000000FAF70BFF002808D0FFE74CF2E93091
:1077C000C0F600006021F9F79FFBFFE740F2F400EC
:1077D000C2F200000221FAF7EFFA002808D0FFE712
:1077E0004CF2E930C0F600006721F9F78DFBFFE7A6
:1077F00018B080BD4EF6FC50CEF20000016841F09A
:107800008071016041F20400CEF2000000210160AD
:1078100041F20000CEF20000016841F00101016078
:107820007047000080B58AB0FFE741F21800C4F24B
:107830000200016841F010010160006800F01000D2
:1078400005900598FFE7FFE741F21800C4F2020037
:10785000016841F004010160006800F00400049038
:107860000498FFE70020079008900321099148F24F
:107870003002069240F60002C4F2010206AB039009
:107880001046029119460193FAF702FF03980790F8
:107890000890029909911022069241F20000C4F268
:1078A00001000199FAF7F4FE00F058FB0AB080BD20
:1078B00080B500F04DF800F001F880BD80B588B0CB
:1078C000FFE741F21800C4F20200016841F008012C
:1078D0000160006800F0080002900298FFE7FFE7EF
:1078E0000420C4F2010001680191019921F0E061D6
:1078F0000191019941F00071019101990160FFE747
:10790000002005900690032107918DF80F00FFE7F6
:107910009DF80F00002818DCFFE79DF80F004CF2DF
:10792000E021C0F6000101EBC000808804909DF8C2
:107930000F0051F8300004A9FAF7AAFEFFE79DF8FE
:107940000F0001308DF80F00E2E708B080BD0000A5
:1079500080B584B044F6A870C2F2000000218172A4
:10796000C17201738DF80F10FFE79DF80F00012819
:1079700027DCFFE79DF80F0044F68871C2F2000192
:1079800001EB0010642202819DF80F0001EB001052
:10799000022202719DF80F0001EB0010002282729A
:1079A0009DF80F0001EB0010C2729DF80F0001EB73
:1079B00000100273FFE79DF80F0001308DF80F00F3
:1079C000D3E70320642106220291019200F0CCFC4F
:1079D00004200299019A00F0C7FC05200299019A3F
:1079E00000F0C2FC01980299019A00F0BDFC04B0BD
:1079F00080BD000080B58AB0FFE7FFE741F21800C4
:107A0000C4F20200016841F004010160006800F066
:107A1000040005900598FFE7FFE741F21800C4F263
:107A20000200016841F008010160006800F00800F0
:107A300004900498FFE7FFE741F21800C4F2020047
:107A4000016841F010010160006800F0100003902F
:107A50000398FFE7FFE741F21800C4F20200016853
:107A600041F020010160006800F0200002900298BF
:107A7000FFE7FFE741F21800C4F20200016841F09D
:107A800080010160006800F0800001900198FFE72C
:107A9000FFE70120079000210891032109914FF48D
:107AA0008041069141F20001C4F2010106AA009052
:107AB00008461146FAF7ECFD009800F0FFFB0AB00B
:107AC00080BD000080B58AB0FFE741F21800C4F223
:107AD0000200016841F010010160006800F0100030
:107AE00005900598FFE7FFE741F21800C4F2020095
:107AF000016841F008010160006800F0080004908E
:107B00000498FFE70120079003210991069041F2B4
:107B10000000C4F2010006A903900291FAF7B8FD33
:107B20000220069003980299FAF7B2FD042006900D
:107B300003980299FAF7ACFD082006900398029981
:107B4000FAF7A6FD4FF48070069040F60040C4F2AC
:107B5000010001900299FAF79BFD4FF40070069026
:107B600001980299FAF794FD4FF40060069003988B
:107B70000299FAF78DFD4FF4806006900398029900
:107B8000FAF786FD0AB080BD80B58AB0FFE741F202
:107B90001800C4F20200016841F0080101600068A9
:107BA00000F0080005900598FFE7112007900020DD
:107BB0000890032109911021069140F60042C4F279
:107BC000010206AB049010460391194602920193FC
:107BD000FAF75EFD20200690029900900846019970
:107BE000FAF756FD00F0A0FCAE200499FDF70AFE5E
:107BF00004980499FDF706FE03980499FDF702FE28
:107C000040200499FDF7FEFD81200499FDF7FAFD5F
:107C1000CF200499FDF7F6FDA1200499FDF7F2FDB0
:107C2000C8200499FDF7EEFDA6200499FDF7EAFDB2
:107C3000A8200499FDF7E6FD3F200499FDF7E2FD39
:107C4000D3200499FDF7DEFD04980499FDF7DAFDD1
:107C5000D5200499FDF7D6FD80200499FDF7D2FDCB
:107C6000D9200499FDF7CEFDF1200499FDF7CAFD56
:107C7000DA200499FDF7C6FD12200499FDF7C2FD34
:107C8000DB200499FDF7BEFD30200499FDF7BAFD15
:107C900000980499FDF7B6FD02200499FDF7B2FDA6
:107CA0008D200499FDF7AEFD14200499FDF7AAFD7F
:107CB000FDF722FDAF200499FDF7A4FD0AB080BDB9
:107CC00044F6B870C2F200004CF6CD41C3F6CC5178
:107CD00001604CF6CD42C3F64C62426081600023E5
:107CE000C360036144F6CC70C2F2000001604260E0
:107CF0008160C360036144F6E070C2F2000001607D
:107D000042608160C360036144F6F470C2F2000017
:107D1000016042608160C3600361704780B594B0C8
:107D2000FFE741F21800C4F20200016841F400616B
:107D30000160006800F4006006900698FFE741F6D5
:107D40004050C2F2000042F60041C4F2010101605D
:107D5000472141600021816044F61F62C2600161D9
:107D600005900491FBF74AFE4FF48051109110A941
:107D7000059A03901046FBF7C7FE6021079104990E
:107D8000089109910B9107A9059A02901046049A4F
:107D9000FCF7B6FB059901900846FCF7D5FA059863
:107DA0000499FCF753FC14B080BD000080B59CB072
:107DB00041F64040C2F2000040F20041C4F200012E
:107DC000016001214160002181604FF4FA62C260CC
:107DD00001610E900D91FBF711FE4FF48051189147
:107DE00018A90E9A0C901046FBF78EFE60210F9199
:107DF0000D991091119113910FAA0E9B0B9018469B
:107E00001146DDF834C00A926246FCF779FB0D9901
:107E1000109104220E9B099018460A990892FCF7CB
:107E20006FFB0D99109108220E9B079018460A9936
:107E30000692FCF765FB0D9910910C220E9B0590A4
:107E400018460A990492FCF75BFB0E9903900846CA
:107E5000FCF77AFA0E980D99FCF7F8FB0E99029050
:107E600008460899FCF7F2FB0E990190084606991E
:107E7000FCF7ECFB0E99009008460499FCF7E6FB32
:107E80001CB080BD80B59CB041F68040C2F20000BD
:107E900040F60001C4F200010160012141600021AF
:107EA00081604FF4FA62C26001610E900D91FBF7A0
:107EB000A5FD4FF48051189118A90E9A0C90104608
:107EC000FBF722FE60210F910D99109111911391F2
:107ED0000FAA0E9B0B9018461146DDF834C00A928B
:107EE0006246FCF70DFB0D99109104220E9B099040
:107EF00018460A990892FCF703FB0D991091082285
:107F00000E9B079018460A990692FCF7F9FA0D990C
:107F100010910C220E9B059018460A990492FCF7CA
:107F2000EFFA0E9903900846FCF70EFA0E980D9999
:107F3000FCF78CFB0E99029008460899FCF786FB2B
:107F40000E99019008460699FCF780FB0E99009067
:107F500008460499FCF77AFB1CB080BD80B594B04C
:107F6000002013901290119010900F900E900D9091
:107F70000C900B900A9041F6C040C2F20000FCF752
:107F8000E3F9FFE741F21C00C4F20200016841F08E
:107F900008010160006800F0080009900998FFE7F7
:107FA00041F6C040C2F2000040F60041C4F20001B8
:107FB000016047214160002181604CF24F32C26074
:107FC000016180218161FBF719FD002809D0FFE7DD
:107FD0004CF2CA30C0F6000040F20711F8F794FFE7
:107FE000FFE74FF48050109041F6C040C2F200000D
:107FF00010A9FBF789FD002809D0FFE74CF2CA3031
:10800000C0F6000040F20D11F8F77EFFFFE741F6E1
:10801000C040C2F20000FBF7D5FF002809D0FFE7FF
:108020004CF2CA30C0F600004FF48971F8F76CFFCB
:10803000FFE700200E900F9041F6C040C2F2000012
:108040000EA9FBF78FFC002809D0FFE74CF2CA30DD
:10805000C0F6000040F21911F8F756FFFFE70220C2
:108060000A9001200B9000210C910D9041F6C04028
:10807000C2F200000AAA08911146089AFBF7FEFE18
:10808000002809D0FFE74CF2CA30C0F6000040F2E9
:108090002311F8F739FFFFE741F6C040C2F20000B4
:1080A0000AA90422FBF7EAFE002809D0FFE74CF2F8
:1080B000CA30C0F6000040F22711F8F725FFFFE7AD
:1080C00041F6C040C2F200000AA90822FBF7D6FE22
:1080D000002809D0FFE74CF2CA30C0F6000040F299
:1080E0002B11F8F711FFFFE741F6C040C2F2000084
:1080F0000AA90C22FBF7C2FE002809D0FFE74CF2C8
:10810000CA30C0F6000040F22F11F8F7FDFEFFE77D
:1081100032200321002207900692FAF70FFD0798FC
:10812000FAF700FD41F6C040C2F200000590FBF7EF
:10813000CFFC0599049008460699FBF779FF0421C6
:10814000059A03901046FBF773FF0821059A0290E9
:108150001046FBF76DFF0C21059A01901046FBF7C6
:1081600067FF14B080BD000080B59EB0FFE741F20C
:108170001800C4F20200016841F400510160006877
:1081800000F4005010901098FFE741F60050C2F242
:10819000000043F20041C4F2010101604721416047
:1081A0000021816044F61F62C26001610F900E9150
:1081B000FBF724FC4FF480511A911AA90F9A0D90E5
:1081C0001046FBF7A1FC602111910E9912911391B9
:1081D000159111AA0F9B0C9018461146DDF838C076
:1081E0000B926246FCF78CF90E99129104220F9BB8
:1081F0000A9018460B990992FCF782F90E99129190
:1082000008220F9B089018460B990792FCF778F903
:108210000E9912910C220F9B069018460B9905920D
:10822000FCF76EF90F9904900846FCF78DF80F984B
:108230000E99FCF70BFA0F99039008460999FCF781
:1082400005FA0F99029008460799FCF7FFF90F9974
:10825000019008460599FCF7F9F91EB080BD0000B1
:1082600080B5FEF79BFCFCF773FB80BD82B0014636
:108270008DF806009DF8060001380246032800929A
:1082800014D80099DFE801F0020F101141F2080044
:10829000C4F20100006800F48040012181EA9030BE
:1082A0008DF8070006E001E000E0FFE700208DF810
:1082B0000700FFE79DF8070002B0704782B0014653
:1082C0008DF807009DF80700013802460328009248
:1082D0000FD80099DFE801F0020A0B0C41F2100000
:1082E000C4F201004FF48041016002E001E000E0CF
:1082F000FFE702B07047000082B001468DF807002A
:108300009DF8070001380246032800920FD8009913
:10831000DFE801F0020A0B0C41F21000C4F2010088
:108320004FF08041016002E001E000E0FFE702B0B1
:108330007047000080B582B001468DF807009DF8B7
:1083400007000091FFF792FF002805D0FFE79DF896
:108350000700FFF7B3FF04E09DF80700FFF7CCFF2D
:10836000FFE702B080BD000080B582B013468C46A6
:1083700086468DF80700ADF804108DF80320BDF88F
:1083800004009DF8071044F68872C2F2000202EB66
:10839000011108819DF803009DF8071002EB0111FF
:1083A000C8729DF8070002EB00100021017302B0B3
:1083B00080BD000080B594B013901291119210937B
:1083C0001398009012980190002002900390119948
:1083D000049106901099059107906846FCF7BAF948
:1083E000002809D0FFE74CF2AC30C0F6000040F2A4
:1083F000A321F8F789FDFFE714B080BD80B584B0F4
:1084000002468DF80E0002919DF80E000092F8F7DA
:108410002DFD01900198002804D1FFE700208DF880
:108420000F0006E001980299FEF7ACFA8DF80F00F4
:10843000FFE79DF80F0004B080BD000080B584B058
:1084400002900191019840F20001C2F200018842BD
:1084500005D1FFE7029802F025F8039003E04FF002
:10846000FF300390FFE7039804B080BD80B507207C
:10847000FFF770F880BD000080B584B001468DF82C
:108480000F0000208DF80E00FFE79DF80E00072872
:1084900047DCFFE79DF80F000006002809D5FFE73D
:1084A00040F60040C4F2010020210122FAF7BCFA94
:1084B00008E040F60040C4F2010020210022FAF753
:1084C000B3FAFFE7FFF7D2FF40F60040C4F2010025
:1084D0001021012202900191FAF7A6FAFFF7C6FFD8
:1084E000002202980199FAF79FFA9DF80E000728DA
:1084F00009D1FFE740F60040C4F20100202101222B
:10850000FAF792FAFFE79DF80F0040008DF80F0090
:10851000FFF7ACFFFFE79DF80E0001308DF80E006D
:10852000B3E704B080BD000080B584B040F60040E1
:10853000C4F201002021002203900291FAF774FA9C
:1085400010210120039A01901046019AFAF76CFA63
:10855000FFF78CFF03980299019AFAF765FAFFF783
:1085600085FF04B080BD000080B584B040F60040B7
:10857000C4F2010020210122029001910092FAF739
:1085800053FAFFF773FF10210298009AFAF74CFA9A
:10859000FFF76CFF02980199FAF72EFA8DF80F0099
:1085A0009DF80F00002804D0FFE701208DF80F0090
:1085B00003E000208DF80F00FFE740F60040C4F212
:1085C000010010210022FAF72FFAFFF74FFF9DF864
:1085D0000F0004B080BD000080B586B040F60040BA
:1085E000C4F2010020210122059004910392FAF7C0
:1085F0001BFA10200599029008460299039AFAF78F
:1086000013FAFFF733FF00200599019008460499FB
:10861000019AFAF709FAFFF729FF05980299019ADA
:10862000FAF702FAFFF722FF06B080BD80B58AB0E4
:108630000890079106920593089800F047FD049072
:10864000049800280DD0FFE704980078FA2808D194
:10865000FFE70798002804D0FFE70598002809D015
:10866000FFE704986FF003010191F8F7FDFE019810
:10867000099031E00498FCF7DDFB03900398002893
:108680001FD0FFE7079803990C31049A526AF7F755
:10869000B9FD0699002905D0FFE70398C07806992F
:1086A0000870FFE704980399C860039800F06EFE15
:1086B00000F0E6FE04980799F8F7A8FF0020029062
:1086C00007E004980799F8F755FF6FF00200029051
:1086D000FFE702980990FFE709980AB080BD000003
:1086E00080B58CB094460A9009918DF823200793A9
:1086F0000A98CDF80CC000F0E9FC06900698002816
:108700000DD0FFE706980078FA2808D1FFE709980E
:10871000002804D0FFE70798002809D0FFE7069853
:108720006FF003010291F8F79FFE02980B9039E079
:1087300006980C3000F006FC05900598002826D01D
:10874000FFE705980C300999069A526AF7F75AFD27
:108750000599F9220A70059900228A709DF8231064
:10876000059BD9700999059B59600699059B9960ED
:10877000059901900846009200F008FE00F080FE86
:1087800006980999F8F7B6FE0098049007E0069855
:108790000999F8F7E1FE6FF002000490FFE70498F2
:1087A0000B90FFE70B980CB080BD000080B584B043
:1087B00040F20C00C2F20000B0F85410ADF80A10FC
:1087C0005630FEF73DFC002816D0FFE7BDF80A1032
:1087D00040F20C00C2F2000000F15A020090104674
:1087E000FEF768FC03900098C16D039A51F82200CF
:1087F00000F0D8FD019002E000200190FFE7019811
:1088000004B080BD80B586B0059040F20C00C2F285
:108810000000B0F85410ADF80E10BDF80E10563030
:10882000FEF764FCBDF80E10884216DAFFE7BDF8CB
:108830000E1040F20C00C2F2000000F1580201904C
:108840001046FEF737FC049005980199CA6D049B09
:1088500042F823000120029002E000200290FFE78E
:10886000029806B080BD000080B584B0002003905F
:108870000290FDF7DFFA00F0B3F840F65941C0F678
:1088800000014CF25822C0F60002019008460299FD
:1088900001F0DAFB40F2E451C2F20001086000F09E
:1088A000C7F8FFE7FEE7000080B586B002900298A7
:1088B000F8F784FCFCF720FA002805D1FFE7FCF765
:1088C000A3F9002808D0FFE76FF005000090F8F743
:1088D00091FC0098019010E0029805900598049092
:1088E0004AF2C140C0F600000390DDF80CC00498C5
:1088F00000DF049004980190FFE7019806B080BD66
:1089000080B586B002900298F8F78EFCFCF7F4F977
:10891000002805D1FFE7FCF777F9002808D0FFE72A
:108920006FF005000090F8F765FC0098019010E0EA
:1089300002980590059804904AF2F940C0F60000AC
:108940000390DDF80CC0049800DF049004980190B7
:10895000FFE7019806B080BD80B584B0FCF7D6F97A
:1089600000280AD1FFE7FCF767F9002805D1FFE7E7
:10897000FCF7F4F9002804D0FFE701F0EFFD0190C7
:108980000BE04AF25D50C0F600000290DDF808C02E
:1089900000DF039003980190FFE7019804B080BDC9
:1089A00080B584B0FCF7B2F9002805D1FFE7FCF7E9
:1089B00043F9002804D0FFE701F0DCFD01900BE053
:1089C0004AF27550C0F600000290DDF808C000DFE2
:1089D000039003980190FFE7019804B080BD000068
:1089E00080B584B000F046F9F8F770FCFCF78EF91A
:1089F000002805D1FFE7FCF71FF9002808D0FFE7A2
:108A00006FF005000090F8F739FC009801900BE03A
:108A10004AF29550C0F600000290DDF808C000DF71
:108A2000039003980190FFE7019804B080BD000017
:108A300080B584B0F8F766FCFCF768F9002805D12A
:108A4000FFE7FCF7F9F8002808D0FFE76FF0050012
:108A50000090F8F713FC009801900BE04AF6211003
:108A6000C0F600000290DDF808C000DF0390039814
:108A70000190FFE7019804B080BD000080B58EB082
:108A8000049003910292019304980399029A019B26
:108A9000F8F7F6FCFCF744F9002805D1FFE7FCF7EE
:108AA000E3F8002808D0FFE704980399029A019B95
:108AB000FFF7BCFD00901FE004980399029A019B08
:108AC0000D900C910B920A930D9809900C980890B8
:108AD0000B9807900A9806904AF6F910C0F6000025
:108AE0000590DDF814C009980899079A069B00DFE5
:108AF000099009980090FFE700980EB080BD000033
:108B000080B58CB004900391029204980399029A64
:108B1000F8F70CFDFCF704F9002805D1FFE7FCF796
:108B2000A3F8002809D0FFE700206FF005010090AE
:108B3000F8F79AFC009801901AE004980399029AB9
:108B40000B900A9109920B9808900A98079009983F
:108B500006904AF68D30C0F600000590DDF814C08E
:108B600008980799069A00DF089008980190FFE797
:108B700001980CB080BD000080B590B0944606907E
:108B800005918DF813200393069805999DF81320FD
:108B9000039BCDF804C0F8F7FBFCFCF7C1F80028F4
:108BA00005D1FFE7FCF760F8002809D0FFE7069839
:108BB00005999DF81320039BFFF792FD029022E098
:108BC000069805999DF81320039B0F900E918DF840
:108BD00037200C930F980B900E980A909DF8370051
:108BE00009900C9808904AF62160C0F600000790A2
:108BF000DDF81CC00B980A99099A089B00DF0B90BE
:108C00000B980290FFE7029810B080BD83B00290ED
:108C10000191029801380146042800910AD8009970
:108C2000DFE801F003040506070004E003E002E0CA
:108C300001E000E0FFE7FFE7FEE7000081B0009001
:108C4000009801B07047000081B00090009801B01A
:108C50007047000081B00090FFE7FEE740F20C0093
:108C6000C2F20000007A704740F20C00C2F200002D
:108C7000007A70477047000040F20C00C2F200001A
:108C8000007A704780B58EB00C900B910A920C98C8
:108C9000002809D0FFE70B98002805D0FFE70A98C5
:108CA000800800280AD0FFE70C980B990A9A002345
:108CB0000493F8F743FB04980D908BE00B98083071
:108CC00006900698073020F0070006900C980821BF
:108CD000FCF79CF80890FFE708980168081A0590CF
:108CE0000898406820F003000599081A0590059837
:108CF0000699884201D3FFE712E0089800680890BF
:108D00000898006800280AD1FFE70C980B990A9A86
:108D100000230393F8F712FB03980D905AE0DBE76A
:108D200006980C9902900846FCF77CF84168029A74
:108D3000114441600C980190FCF774F80068A0F1B0
:108D400008010198FCF762F80790079840680C99B1
:108D500000900846FCF766F840680099814207D207
:108D6000FFE70C98FCF75EF8406807994860FFE75A
:108D70000898406800280BD1FFE706980A99084335
:108D80000899486008980821FCF740F8099018E015
:108D90000898416821F00301FCF738F8079008981B
:108DA00000680799086006980A990843079948607F
:108DB00007980899086007980821FCF727F8099098
:108DC000FFE70C980B990A9A099BF8F7B7FA0998EC
:108DD0000D90FFE70D980EB080BD000080B58CB0FF
:108DE0000A9009910A98002804D0FFE70998002802
:108DF00009D1FFE70A98099900220592F8F7EEFADF
:108E000005980B904BE0099800210491FBF7FEFFB9
:108E10000890089808380890049806900A98082145
:108E2000FBF7F4FF0790FFE707980899884213D0F3
:108E3000FFE70798069007980068079007980028B2
:108E400009D1FFE70A98099900220392F8F7C6FAB8
:108E500003980B9023E0E7E70798406820F00300B1
:108E60000A9902900846FBF7DDFF4168029A891AC9
:108E700041600698002804D1FFE70798002141606F
:108E800004E00798006806990860FFE70A980999C6
:108E900001220192F8F7A2FA01980B90FFE70B98D4
:108EA0000CB080BD80B588B006900591069800286A
:108EB00010D0FFE79DF81800400700280AD1FFE70F
:108EC0009DF814004007002804D1FFE705981728F3
:108ED00009D8FFE70698059900220292F8F794FA5C
:108EE000029807902BE00698FBF79CFF04900598EA
:108EF00004990860049810214160069808220191A5
:108F00001146FBF783FF0390069805990839FBF794
:108F10007DFF0399086003980068002101600398B1
:108F20000068019A42600398416006980599012300
:108F30001A460093F8F768FA00980790FFE7079839
:108F400008B080BD80B584B002900298002808D196
:108F5000FFE7002000900099F8F706FA00980390C8
:108F600014E002981430FEF721F9019001980028CE
:108F700005D0FFE702980430FEF7D6F8FFE7029825
:108F80000199F8F7F1F901980390FFE7039804B00D
:108F900080BD000080B586B004900391049800283D
:108FA0000CD0FFE703980499C968884206D3FFE70D
:108FB00003980499096988420AD3FFE70498039942
:108FC0006FF003020292F8F7DDF90298059015E0C0
:108FD000049814300399FEF7FDF804980430FEF766
:108FE00045F80499039A00230190084611461A4651
:108FF0000093F8F7C7F900980590FFE7059806B0C9
:1090000080BD000080B588B006900591049203935E
:10901000069800280CD0FFE70598002808D0FFE745
:109020000498002804D0FFE70398002803D1FFE745
:109030000020079034E00598069908600698002102
:10904000416004980699886003980699C86003985F
:109050000699486103980599049A01FB0200069954
:10906000086106980599049A039BF8F7A1F90398FB
:109070000290FFE705980138059000280AD0FFE725
:109080000298049908440190019802990860019897
:109090000290EFE702980021016001200790FFE7AE
:1090A000079808B080BD000081B00090009801B022
:1090B0007047000081B00090009801B07047000038
:1090C00081B00090009801B07047000081B000901E
:1090D000009801B07047000081B00090009801B086
:1090E0007047000081B00090009801B07047000008
:1090F00080B58AB009900998807800284FD0FFE7A2
:109100000998C068089008980999FBF71BFF09980F
:109110000021017008980C300999FFF73BFF08996E
:10912000896800293AD0FFE708980C30FFF70AFF5A
:1091300007900798002830D0FFE7089800F026F93C
:1091400000F068FC0690069800210291029A00F057
:109150002DFE069800F05AFD059005988068049051
:1091600007980C300499089A526AF7F74BF8079958
:10917000F9220A700799029A8A700599C968079BB3
:10918000D9700899079B019008461946FBF77EFEA7
:1091900008980499F8F7BCF9FFE7FFE750E0099851
:1091A00080680890099840680490089880680028B2
:1091B0003CD0FFE7089880684078832836D1FFE7E5
:1091C00008980499F8F7A4F9089800F0DFF800F07F
:1091D00021FC0690069800210091009A00F0E6FD1F
:1091E000069800F013FD0590059880680390039899
:1091F00009990C31089A526AF7F704F80599C96879
:10920000002906D0FFE70998C0780599C968087059
:10921000FFE708980399F8F7F9F909980021017018
:1092200008980C300999FFF7B5FE08E008980499F2
:10923000F8F76EF908980999FBF728FEFFE7FFE7B2
:109240000AB080BD81B00090009801B07047000066
:1092500080B586B0059005980490FFE70498002833
:1092600042D0FFE70498406903900498C078000753
:10927000002836D5FFE70498002101760498F8F716
:10928000EFF90498806800282AD0FFE7049800F0DE
:1092900083F800F0BFFB0290029800210191019A2F
:1092A00000F084FD02980499C86004980199016156
:1092B0000298C06A049A50610298C06A002805D0DA
:1092C000FFE704980299C96A0861FFE704980299C8
:1092D000C8620498012101760498F8F7B3F9FFE712
:1092E000FFE703980490B9E706B080BD80B586B06B
:1092F000059004910598C0788007002844D5FFE7C1
:109300000598C0680290029890F821008DF803003B
:109310000298C06A0390FFE7039880680190019863
:109320000499884204D1FFE7019880680190FFE723
:10933000019800280ED0FFE7019890F920009DF9D0
:109340000310884206DDFFE7019890F820008DF8B1
:109350000300FFE7039840690390FFE703980028A4
:10936000DAD1FFE7029890F920009DF903108842B6
:1093700009D0FFE79DF80300029981F820000298C8
:1093800000F0D0FBFFE7FFE706B080BD81B00090A2
:10939000009801B07047000081B00090009801B0C3
:1093A0007047000081B00090009801B07047000045
:1093B00081B00090009801B07047000080B588B07F
:1093C000FFE7FFF7F3F907900798002801D1FFE7BF
:1093D00051E007980078F13801460828069148D8EE
:1093E0000699DFE801F005461246461F2C46390073
:1093F00040F20C00C2F20000006E0799059008468A
:1094000000F0C0FB0599884734E040F20C00C2F23E
:109410000000406E079904900846FFF70FFC04997E
:10942000884727E040F20C00C2F20000806E0799E6
:109430000390084600F048F8039988471AE040F284
:109440000C00C2F20000C06E079902900846FFF7B8
:109450002BFE029988470DE040F20C00C2F200009A
:10946000006F079901900846FFF72AFE0199884787
:1094700000E0FFE7A5E7002000F016FA08B080BD85
:1094800080B582B001900198FFF7BCF9002813D095
:10949000FFE740F20C00C2F20000407A002803D13E
:1094A000FFE7FCF741FC06E040F20C00C2F20000CE
:1094B00001218172FFE704E001990220FFF7A6FB7A
:1094C000FFE702B080BD000081B00090009801B0BD
:1094D0007047000081B00090009801B07047000014
:1094E00080B586B00590059801214170059890F9E6
:1094F0002000029040F20C00C2F200001C3000F08C
:1095000047FB0490049880680390FFE703980021CC
:10951000002801910AD0FFE7039890F920000299F2
:1095200000228842C8BF01220192FFE70198C007CC
:10953000002806D0FFE70398049003988068039002
:10954000E4E704980599C860039805998860059830
:10955000049988600398002804D0FFE705980399D0
:10956000C860FFE70598F8F733F906B080BD000042
:1095700085B0049003910398013000282CD1FFE7B7
:109580000020029040F20C00C2F20000006B01903B
:10959000FFE70198002806D0FFE7019802900198A4
:1095A00000690190F5E703980499C861029804994D
:1095B00048610498002101610298002804D0FFE767
:1095C00004980299086106E0049840F20C01C2F286
:1095D00000010863FFE74DE00020029040F20C001C
:1095E000C2F20000C06A0190FFE701980021002844
:1095F000009109D0FFE70198C069039900228842D1
:1096000098BF01220092FFE70098C00700280BD006
:10961000FFE70198C0690399081A03900198029026
:10962000019800690190E0E703980499C8610298E5
:10963000049948610198049908610298002804D0AF
:10964000FFE704980299086106E0049840F20C01D3
:10965000C2F20001C862FFE70198002809D0FFE7C5
:1096600003980199CA69101AC86104980199486160
:10967000FFE7FFE705B0704781B000900098C06930
:109680000130002820D1FFE700980069002805D0AC
:10969000FFE70098016940694861FFE70098406969
:1096A000002808D0FFE7009801694069016100982F
:1096B0000021416107E00098006940F20C01C2F20C
:1096C00000010863FFE725E00098006900280BD03F
:1096D000FFE700980169C069CA691044C861009831
:1096E000016940694861FFE700984069002808D097
:1096F000FFE700980169406901610098002141611C
:1097000007E00098006940F20C01C2F20001C86253
:10971000FFE7FFE701B0704780B586B040F20C006C
:10972000C2F20000C06A05900598002801D1FFE749
:10973000B8E00598C1690139C1610598C069002880
:1097400040F0B080FFE7FFE7059840780146132816
:1097500003911CD0FFE7039833281CD0FFE7039840
:1097600043281CD0FFE70398532824D0FFE7039831
:10977000632832D0FFE7039873283AD0FFE70398B5
:10978000832842D0FFE7039893284AD055E00598F4
:10979000F7F722FD52E00598F7F7E8FF4EE005984D
:1097A00000F0AEF9FFF704FE04900498FFF74CFABE
:1097B000F7F756FD42E0059800F0A2F9FFF7F8FD33
:1097C00004900498FFF73EFD0599FFF78FFD04987C
:1097D000FFF738FDF7F728FF30E0059800F090F923
:1097E000FFF7E6FD04900498FFF774FEF7F746FFD5
:1097F00024E0059800F084F9FFF7DAFD049004985E
:10980000FFF758FCF7F714FE18E0059800F078F918
:10981000FFF7CEFD04900498FFF764FCF7F75CFEB9
:109820000CE0059800F06CF9FFF7C2FD0490049875
:10983000FFF758FCF7F7DCFE00E0FFE70598029021
:1098400000F0E4F901680298F7F7DEFF059800F0F0
:109850003BF9059800F0CAF9059800690590FFE703
:10986000059800210028019107D0FFE70598C069FD
:10987000B0FA80F040090190FFE70198C007002886
:109880007FF462AFFFE70598002804D0FFE7059852
:1098900000214161FFE7059840F20C01C2F200018E
:1098A000C862FFE706B080BD80B584B00390FFF7C3
:1098B000DBF98DF80B0000F0A1F801900398002867
:1098C00023D1FFE740F20C00C2F20000406A009092
:1098D0009DF80B00022817D1FFE70098002813D04D
:1098E000FFE7009890F92000019991F92010884233
:1098F0000ADDFFE7009800F0E7F80198FFF7F0FDB8
:10990000009800F001FAFFE719E09DF80B0002282B
:1099100010D1FFE7039890F92000019991F92010E8
:10992000884207DDFFE70198FFF7DAFD039800F0B2
:10993000EBF903E0039800F059F9FFE7FFE704B003
:1099400080BD000080B582B0019001980021417077
:109950000198017001988078800700281CD5FFE7E6
:1099600001988078C00600280BD5FFE740F20C0074
:10997000C2F20000D0F884000199096BFFF70AFBDE
:1099800009E040F20C00C2F20000406F0199096B3F
:10999000FFF724FAFFE7FFE701988078C007002867
:1099A0001ED0FFE740F20C00C2F20000D0F88800A1
:1099B00000280AD0FFE740F20C00C2F20000D0F805
:1099C00088000199FFF7E6FA09E040F20C00C2F2C4
:1099D0000000D0F880000199FFF700FAFFE7FFE7E9
:1099E00002B080BD40F20C00C2F200004069704736
:1099F00040F20C00C2F200004069704740F20C00D7
:109A0000C2F200004069704781B00090009801B038
:109A10007047000080B582B0019001988068009086
:109A2000009880680199886000988068002807D0B5
:109A3000FFE7019800F0ACF800998968C860FFE77B
:109A400000980021C160009802B080BD80B586B04A
:109A500005900491049890F920000190059800F079
:109A600097F80390039880680290FFE7029800211E
:109A7000002800910AD0FFE7029890F92000019990
:109A800000228842A8BF01220092FFE70098C00789
:109A9000002806D0FFE702980390029880680290A1
:109AA000E4E703980499C8600298049988600498D0
:109AB000039988600298002804D0FFE7049802996F
:109AC000C860FFE706B080BD81B000900098C06814
:109AD000002812D0FFE700988168C0688160009874
:109AE0008068002805D0FFE700988168C068C860DA
:109AF000FFE700980021C160FFE701B07047000058
:109B000082B0019001980090FFE700980078F1285A
:109B100004D1FFE70098C0680090F6E7009802B013
:109B20007047000080B584B0039003980190FFE770
:109B3000019800210028009108D0FFE701980078E3
:109B4000F138B0FA80F040090090FFE70098C007B4
:109B5000002804D0FFE70198C0680190E8E7019869
:109B6000FFF726FC02900298002808D0FFE7039830
:109B7000FFF7AAFF02980399FFF768FFFFE704B019
:109B800080BD000081B00090009801B070470000D7
:109B900081B00090009801B07047000080B584B09B
:109BA00003900398407833281ED1FFE70398416A59
:109BB00090F82320FCF76EFD02900298002812D046
:109BC000FFE703980299002200F0F0F80398416A39
:109BD00090F82320029B0190084611461A46019BEB
:109BE000F7F7AEFDFFE7FFE704B080BD80B582B0B8
:109BF0000190019801214170019940F20C00C2F2DC
:109C000000001C30FFF722FF02B080BD80B584B099
:109C100003900398816B90F822000191FCF78CF877
:109C2000019908440290029804B080BD81B0009070
:109C3000009840F20C01C2F20001486101B0704787
:109C400080B582B0FFF7DAFE01900198002816D0A7
:109C5000FFE70198016B806B88420AD9FFE7019802
:109C6000006B006842F6A561CEF25A21884205D009
:109C7000FFE701990120FEF7C9FFFFE7FFE702B008
:109C800080BD000080B582B001208DF807004CF245
:109C90004010C0F60000826D48F65541C0F6000144
:109CA000002300900846194601F0ECF9FFF7ACFEDE
:109CB00040F20C01C2F2000188620098416E002956
:109CC0001CD0FFE74CF24010C0F60000C26D49F610
:109CD0001570C0F60000002101F0D4F9FFF794FEE2
:109CE00040F20C01C2F200018864886C002804D1A3
:109CF000FFE700208DF80700FFE7FFE79DF807006A
:109D000000F0010002B080BD80B582B001900198E2
:109D100002214170019840F20C01C2F200018861F9
:109D2000FFF78EFF0198F7F761FD02B080BD0000DC
:109D300080B584B002468DF80E0002910092FEF7C5
:109D400093FF022804D0FFE700208DF80F0029E0E0
:109D500040F20C00C2F20000406A002804D1FFE784
:109D600000208DF80F001DE0FFF748FE01900198DC
:109D70000299F7F791FC9DF80E000199487001983F
:109D80000299FFF7F5FB40F20C00C2F200001C3014
:109D9000FFF740FE01900198FFF7B6FF01208DF814
:109DA0000F00FFE79DF80F0004B080BD80B586B0BE
:109DB0001346059004918DF80F200598049901939E
:109DC000F7F722FD0598FFF721FF0290049802990A
:109DD00008600598FFF750FC9DF80F00C0070028A9
:109DE00004D0FFE70598FFF75FFD03E00598FFF754
:109DF000FDFEFFE706B080BD80B582B0FBF730FD09
:109E000040F20C00C2F20000C1680131C160006D77
:109E1000002807D0FFE740F20C00C2F20000006DFE
:109E20008047FFE7FFF778FC0020FFF73DFD40F299
:109E30000C00C2F20000006C002863D0FFE740F283
:109E40000C00C2F200008169806B884209D0FFE7F4
:109E500040F20C00C2F2000081698163016CC163B1
:109E60004FE040F20C00C2F20000C06B002808D0A6
:109E7000FFE740F20C00C2F20000C16B0139C16380
:109E8000FFE740F20C00C2F20000C06B002837D19F
:109E9000FFE7FEF7E3FE022831D1FFE740F20C00B6
:109EA000C2F20000406A01900198002826D0FFE726
:109EB000019890F9200040F20C01C2F20001896B78
:109EC00091F92010884219D1FFE70198FFF7FCFDB6
:109ED00040F20C00C2F20000816B00900846FFF7D0
:109EE00085FE0098806BF7F773FC0198FFF70CFF75
:109EF000019800998863086CC863FFE7FFE7FFE7F4
:109F0000FFE7FFE702B080BD81B00090009801B08C
:109F10007047000086B005904CF24010C0F600007B
:109F2000026E406E0821FEF7EBFDFFF7D5F840F218
:109F30000C01C2F20001C86449F67D70C0F6000051
:109F40000865FFE740F20C00C2F20000C06C03A9F4
:109F500000224FF0FF33FEF791FD02900298002897
:109F60000BD1FFE703980499F7F75CFC0398049979
:109F70000190084601998847FFE7E3E780B584B080
:109F800040F20C00C2F20000406C039003980028DD
:109F900001D1FFE744E00398016901390161FFE75E
:109FA000039800210028019107D0FFE7039800697A
:109FB000B0FA80F040090190FFE70198C00700283F
:109FC0002ED0FFE70398FCF721FC40F20C00C2F210
:109FD0000000C06C0399183100220092009BFEF72C
:109FE000CBFD02900298002805D0FFE703990320DB
:109FF000FEF70CFEFFE70398C078012805D1FFE7C4
:10A0000003984169FCF788FB03E003980121417044
:10A01000FFE740F20C00C2F20000406C0390BFE783
:10A0200004B080BD82B0F7F77DFB4AF6B170C0F690
:10A0300000000190DDF804C000DF00204FF0FF3188
:10A04000F7F764FBFFE7FEE780B58CB0049003915F
:10A05000029204980399029AF7F7A4FBFAF76AFEB2
:10A06000002805D1FFE7FAF717FE002809D0FFE71F
:10A0700000206FF005010090F7F748FB0098019071
:10A080001AE004980399029A0B900A9109920B988E
:10A0900008900A980790099806904BF28500C0F640
:10A0A00000000590DDF814C008980799069A00DFB3
:10A0B000089008980190FFE701980CB080BD00005F
:10A0C00080B590B08C4606908DF8171004920393DB
:10A0D00006989DF81710049A039BCDF804C0F7F773
:10A0E000C9FBFAF731FE002805D1FFE7FAF7ECFDCE
:10A0F000002809D0FFE700206FF005010090F7F776
:10A10000ADFB0098029022E006989DF81710049A83
:10A11000039B0F908DF83B100D920C930F980B90B2
:10A120009DF83B000A900D9809900C9808904BF20E
:10A130009140C0F600000790DDF81CC00B980A990A
:10A14000099A089B00DF0B900B980290FFE702989A
:10A1500010B080BD80B58AB0049003910498039933
:10A16000F7F7A2FBFAF7F0FD002805D1FFE7FAF7B1
:10A17000ABFD002809D0FFE704986FF005010191BD
:10A18000F7F76CFB0198029015E004980399099089
:10A19000089109980790089806904BF2FD50C0F678
:10A1A00000000590DDF814C00798069900DF0790BD
:10A1B00007980290FFE702980AB080BD10B595B0ED
:10A1C0000A4603468DF85300ADF850109DF8530031
:10A1D000013801460428029100F2F1800299DFE87B
:10A1E00001F003326190BF0041F60050C2F200005E
:10A1F000016842688368D0F80CC0D0F810E0446968
:10A200000894CDF81CE0CDF818C005930492039192
:10A210008169C269036AD0F824C0D0F828E0C46A12
:10A220000E94CDF834E0CDF830C00B930A9209912A
:10A23000016B426B836BC06B1290119310920F9164
:10A2400000201390BBE041F60050C2F2000001680C
:10A2500042688368D0F80CC0D0F810E044690894D4
:10A26000CDF81CE0CDF818C00593049203918169E4
:10A27000C269036AD0F824C0D0F828E0C46A0E94FA
:10A28000CDF834E0CDF830C00B930A920991016B00
:10A29000426B836BC06B1290119310920F9104204C
:10A2A00013908CE041F60050C2F200000168426851
:10A2B0008368D0F80CC0D0F810E044690894CDF859
:10A2C0001CE0CDF818C00593049203918169C2691E
:10A2D000036AD0F824C0D0F828E0C46A0E94CDF800
:10A2E00034E0CDF830C00B930A920991016B426BB8
:10A2F000836BC06B1290119310920F9108201390F2
:10A300005DE041F60050C2F20000016842688368D7
:10A31000D0F80CC0D0F810E044690894CDF81CE0E7
:10A32000CDF818C00593049203918169C269036A4C
:10A33000D0F824C0D0F828E0C46A0E94CDF834E0F8
:10A34000CDF830C00B930A920991016B426B836B7D
:10A35000C06B1290119310920F910C2013902EE06D
:10A3600041F64050C2F20000016842688368D0F8AC
:10A370000CC0D0F810E044690894CDF81CE0CDF88A
:10A3800018C00593049203918169C269036AD0F8E9
:10A3900024C0D0F828E0C46A0E94CDF834E0CDF89B
:10A3A00030C00B930A920991016B426B836BC06BB7
:10A3B0001290119310920F910C201390FFE71398B5
:10A3C000002806D1FFE7BDF850000146039A50630C
:10A3D00021E01398042807D1FFE7BDF8500001469B
:10A3E000039A9063019114E01398082807D1FFE7BE
:10A3F000BDF850000146039AD063009106E0BDF815
:10A4000050000146039A10640091FFE70098019004
:10A41000FFE70198FFE7BDF8500040F2DC518842A9
:10A420001BDCFFE741F69E30C2F200000021017004
:10A43000BDF8500040F2DC51081A1921484380B29F
:10A4400047F29131C5F69F51A0FB0101090A41F67F
:10A450009C32C2F200021180FFE7BDF8500040F2CA
:10A46000DD5188421BDBFFE741F69E30C2F200005F
:10A4700001210170BDF850001921484349F27C21A7
:10A48000401A80B247F29131C5F69F51A0FB0101FD
:10A49000090A41F69C32C2F200021180FFE715B0B2
:10A4A00010BD000080B582B00190002001A90122FA
:10A4B000FBF792FB01990090084602B080BD0000B6
:10A4C00080B582B001900198002811D0FFE7019972
:10A4D0001320FFF72DFC002804D0FFE70198F6F7C2
:10A4E00095FE04E0FFF77EFAF6F776FEFFE7FFE75A
:10A4F000002002B080BD000080B584B0029040F220
:10A500000C00C2F20000C0680299081A029002987A
:10A51000002805D0FFE70298B0F1FF3F08DCFFE715
:10A520006FF003000190F6F765FE0198039012E0CA
:10A5300002991320FFF7FCFB002804D0FFE70298E4
:10A54000F6F780FE04E0FFF74DFAF6F745FEFFE769
:10A5500000200390FFE7039804B080BD80B582B06F
:10A56000FEF78AFB01900198F6F794FE019802B07D
:10A5700080BD000080B582B040F20C00C2F2000045
:10A58000C16801900846F6F793FE0198C06802B0D2
:10A5900080BD000080B590B040F20C00C2F2000017
:10A5A000007A012805D1FFE7F6F79EFE00200F9004
:10A5B000B3E140F20C00C2F20000007A002808D09B
:10A5C000FFE74FF0FF300E90F6F758FE0E980F9011
:10A5D000A3E140F20C00C2F2000000F108019C224D
:10A5E0000D9008461146F5F726FE4CF24010C0F6D5
:10A5F0000000C1680D9AD165018AA2F854108168E3
:10A600001164C16A006B0C9008460C99FEF74AFC75
:10A6100000280CD0FFE74CF24010C0F60000C06AE2
:10A6200040F20C01C2F20001C1F88000FFE74CF2D9
:10A630004010C0F60000416980690B9008460B99F4
:10A64000FEF730FC00280BD0FFE74CF24010C0F6BC
:10A650000000406940F20C01C2F20001486707E0C7
:10A6600040F20C00C2F20000D0F880104167FFE712
:10A670004CF24010C0F60000C169006A0A9008461A
:10A680000A99FEF70FFC00280BD0FFE74CF24010B0
:10A69000C0F60000C06940F20C01C2F200018867F8
:10A6A00007E040F20C00C2F20000D0F88010816791
:10A6B000FFE74CF24010C0F60000416A806A099042
:10A6C00008460999FEF7EEFB00280BD0FFE74CF295
:10A6D0004010C0F60000406A40F20C01C2F20001D6
:10A6E000C86707E040F20C00C2F20000D0F880100A
:10A6F000C167FFE74CF24010C0F60000406B002835
:10A7000019D0FFE74CF24010C0F60000416B0A6818
:10A710008B68D1F80CC00890084611461A4663466B
:10A72000FEF770FC08994A6B40F20C03C2F200037A
:10A73000C3F88420FFE74CF24010C0F60000806BA5
:10A74000002819D0FFE74CF24010C0F60000816BE2
:10A750000A688B68D1F80CC00790084611461A4663
:10A760006346FEF74FFC07998A6B40F20C03C2F276
:10A770000003C3F88820FFE74CF24010C0F6000049
:10A78000C06B002819D0FFE74CF24010C0F6000063
:10A79000C16B0A688B68D1F80CC006900846114658
:10A7A0001A466346FEF72EFC0699CA6B40F20C036C
:10A7B000C2F20003C3F88C20FFE74CF24010C0F651
:10A7C0000000006C002819D0FFE74CF24010C0F6E2
:10A7D0000000016C0A688B68D1F80CC0059008462F
:10A7E00011461A466346FEF70DFC05990A6C40F2C5
:10A7F0000C03C2F20003C3F89020FFE74CF24010B4
:10A80000C0F60000406C002819D0FFE74CF2401061
:10A81000C0F60000416C0A688B68D1F80CC0049047
:10A82000084611461A466346FEF7ECFB04994A6C4B
:10A8300040F20C03C2F20003C3F89420FFE74CF28D
:10A840004010C0F60000806C002819D0FFE74CF2E1
:10A850004010C0F60000816C0A688B68D1F80CC00B
:10A860000390084611461A466346FEF7CBFB039950
:10A870008A6C40F20C03C2F20003C3F89820FFE791
:10A880004CF24010C0F60000C06C002819D0FFE761
:10A890004CF24010C0F60000C16C0A688B68D1F819
:10A8A0000CC00290084611461A466346FEF7AAFB02
:10A8B0000299CA6C40F20C03C2F20003C3F89C2058
:10A8C000FFE74CF24010C0F60000006D002819D0E0
:10A8D000FFE74CF24010C0F60000016D0A688B687B
:10A8E000D1F80CC00190084611461A466346FEF79F
:10A8F00089FB01990A6D40F20C03C2F20003C3F810
:10A90000A020FFE740F20C00C2F20000012101721A
:10A91000F6F7EAFC00200F90FFE70F9810B080BD1B
:10A9200080B588B040F20C00C2F20000007A012825
:10A9300008D0FFE76FF00600F6F7A0FC4FF0FF30FD
:10A94000059056E0FFF79EF9002808D1FFE74FF089
:10A95000FF300390F6F792FC0398059049E0FBF76F
:10A96000BBF94CF24010C0F60000406840F2E5111F
:10A97000C0F60001FAF79EFF002808D0FFE74FF06D
:10A98000FF300290F6F77AFC0298059031E0FAF772
:10A990008DFF40F20C01C2F2000108610191FAF74B
:10A9A00065FF01981C30FFF735F804900498FFF715
:10A9B000ABF94CF24010C0F600000078C007002848
:10A9C00006D0FFE702200690069880F3148805E081
:10A9D00003200790079880F31488FFE740F20C00EB
:10A9E000C2F2000002210172F6F79AFC00200590E5
:10A9F000FFE7059808B080BD80B592B00F900E912A
:10AA00000D920C930F98FEF761FB0B900B980028AA
:10AA100009D0FFE70B980078FA2804D1FFE70E98D9
:10AA2000002809D1FFE70B986FF003010591F6F7B5
:10AA30001BFD05981090A5E00B98FAF7FBF90A901A
:10AA40000A98002862D0FFE70B980A99FAF77AFA79
:10AA50000E980A990C310B9A526AF5F7D3FB0D99AF
:10AA6000002905D0FFE70A98C0780D990870FFE724
:10AA70000B980E99F6F7CAFD0A98002101700B9801
:10AA80000C300A99FEF786FA0B99896800293AD0AA
:10AA9000FFE70B980C30FEF755FA0A900A98002849
:10AAA00030D0FFE70B98FEF771FCFEF7B3FF09907B
:10AAB0000998002101220491FFF778F90998FFF71E
:10AAC000A5F808900898806807900A980C300799B4
:10AAD0000B9A526AF5F796FB0A99F9220A700A99BD
:10AAE000049A8A700899C9680A9BD9700B990A9BC5
:10AAF000039008461946FAF7C9F90B980799F6F733
:10AB000007FDFFE7FFE70020069038E00C980028DB
:10AB10002CD0FFE70B980E990C9AF6F7C7FC0C990E
:10AB20008320FFF705F9002818D0FFE70B98FEF700
:10AB30002DFC0290FEF75CFF0299019008460199F6
:10AB4000FEF784FFEFF309801190119808900E989A
:10AB5000089988600D980899C86003E00B98F6F78B
:10AB6000BBFCFFE76FF00100069007E00B980E9921
:10AB7000F6F700FD6FF002000690FFE7FFE706988A
:10AB80001090FFE7109812B080BD000080B592B021
:10AB900010900F910E921098002804D0FFE70F98A4
:10ABA000002809D1FFE700206FF003010690F6F7B7
:10ABB0005BFC0698119030E10F98033020F0030001
:10ABC0000C300A901098B0FA80F00A99B1FA81F12D
:10ABD00008441F2809D8FFE700206FF00301059003
:10ABE000F6F742FC0598119017E110980A9948432E
:10ABF00009900E9800285CD0FFE70E980068079037
:10AC00000E9880680D900E9800690C900E9840691F
:10AC10000B900D98002815D0FFE79DF834008007B1
:10AC2000002805D1FFE70E98C068332809D8FFE750
:10AC300000206FF008010490F6F716FC04981190BC
:10AC4000EBE00EE00E98C068002809D0FFE7002076
:10AC50006FF008010390F6F707FC03981190DCE011
:10AC6000FFE70C98002815D0FFE79DF8300080071B
:10AC7000002805D1FFE70B980999884209D2FFE720
:10AC800000206FF009010290F6F7EEFB0298119098
:10AC9000C3E00DE00B98002809D0FFE700206FF01B
:10ACA00009010190F6F7E0FB01981190B5E0FFE78C
:10ACB00004E0002007900D900C90FFE70D9800280D
:10ACC00023D1FFE740F20C00C2F20000D0F8A00050
:10ACD00000280AD0FFE740F20C00C2F20000D0F8D2
:10ACE000A000FEF72FF90D900BE040F20C00C2F22D
:10ACF0000000D0F8800034210122FDF7C3FF0D9041
:10AD0000FFE701208DF8230003E000208DF82300E9
:10AD1000FFE70D98002845D0FFE70C98002841D1A7
:10AD2000FFE740F20C00C2F20000C06F0999002258
:10AD3000FDF7A8FF0C900C98002827D1FFE79DF89D
:10AD40002300C00700281ED0FFE740F20C00C2F22B
:10AD50000000D0F8A00000280AD0FFE740F20C0065
:10AD6000C2F20000D0F8A0000D99FEF713F909E037
:10AD700040F20C00C2F20000D0F880000D99FEF7FE
:10AD80002DF8FFE7FFE700200D9004E00C980999EB
:10AD9000F5F751FAFFE79DF8230040F002008DF827
:10ADA0002300FFE70D9800282ED0FFE70D98FA2129
:10ADB00001709DF823000D99887007980D994860DF
:10ADC0000D98002181600F980D9A50620D98816254
:10ADD0000D98C1620D9801630D980C3010990A9A74
:10ADE0000C9BFEF70FF940F20C01C2F2000149F290
:10ADF000F102C0F600020A670D994A680090084601
:10AE00001146F6F723FB05E000206FF00401F6F78A
:10AE10002BFBFFE70D981190FFE7119812B080BD52
:10AE200080B592B094460F900E918DF837200C9318
:10AE30000F98CDF814C0FEF749F90B900B98002835
:10AE400009D0FFE70B980078FA2804D1FFE70E98A5
:10AE5000002809D1FFE70B986FF003010491F6F782
:10AE600003FB049810909FE00B988068002834D072
:10AE7000FFE70B988068407883282ED1FFE70B9876
:10AE80000E99F6F745FB0B98FEF780FAFEF7C2FD28
:10AE90000990099800210122FEF788FF0998FEF722
:10AEA000B5FE089008988068079007980E990B9A4D
:10AEB000526AF5F7A7F90899C968002906D0FFE793
:10AEC0009DF837000899C9680870FFE70B98079943
:10AED000F6F79CFB0020069063E00B980C30FEF721
:10AEE00031F80A900A98002820D0FFE70A980C3021
:10AEF0000E990B9A526AF5F785F90A99F9220A70A8
:10AF00000A9900228A709DF837100A9BD9700B9914
:10AF10000A9B0390084619460292F9F7B7FF0B986F
:10AF20000E99F6F7F5FA0298069039E00C98002889
:10AF30002DD0FFE70B980E990C9AF6F743FB0C996E
:10AF40009320FEF7F5FE002819D0FFE70B98FEF7D7
:10AF50001DFA0190FEF74CFD0199009008460099FA
:10AF6000FEF774FDEFF309801190119808900E9888
:10AF7000089988609DF837000899C86003E00B982D
:10AF8000F6F736FBFFE76FF00100069007E00B983D
:10AF90000E99F6F7E1FA6FF002000690FFE7FFE77F
:10AFA000FFE706981090FFE7109812B080BD0000F0
:10AFB00080B584B0FDF758FE022808D1FFE740F2C3
:10AFC0000C00C2F20000406A002801D1FFE757E000
:10AFD000FEF714FD02900298C06AFEF739F9029854
:10AFE000806900280CD0FFE7029880690021019158
:10AFF000019AFEF7DBFE02988069F6F7C5FBFFE7D2
:10B00000EFF30980039003980299886340F20C00E3
:10B01000C2F200001C30FEF7FDFCFEF775FE0020BA
:10B02000FEF704FE0298C078C007002804D1FFE7AD
:10B030000298FEF787FC1FE00298042141700298F5
:10B040000021C16040F20C00C2F20000416B029A84
:10B050009160406B002808D0FFE7029840F20C0195
:10B06000C2F20001496BC860FFE7029840F20C0190
:10B07000C2F200014863FFE70298F6F739FBFFE7E9
:10B0800004B080BD80B594B01290119110921298C6
:10B09000002809D1FFE700206FF003010690F6F7C2
:10B0A00035FB06981390F0E1109800286CD0FFE76C
:10B0B000109800680990109840680E901098806869
:10B0C0000F90109800690D90109840690C9010989E
:10B0D00080690B900F98002815D0FFE79DF83C0081
:10B0E0008007002805D1FFE71098C068432809D8D9
:10B0F000FFE700206FF008010590F6F707FB0598C1
:10B100001390C2E10EE01098C068002809D0FFE754
:10B1100000206FF008010490F6F7F8FA04981390F5
:10B12000B3E1FFE70D98002814D0FFE79DF8340045
:10B130004007002804D1FFE70C98002809D1FFE759
:10B1400000206FF00A010390F6F7E0FA03981390DD
:10B150009BE1FFE70B98002803D1FFE718200B9035
:10B1600011E00B98012804DBFFE70B98392809DB75
:10B17000FFE700206FF00B010290F6F7C7FA029884
:10B18000139082E1FFE708E0002009900E900F90F5
:10B190000D900C9018200B90FFE70C98002813D00E
:10B1A000FFE79DF830004007002804D1FFE70C9826
:10B1B000472809D8FFE700206FF00A010190F6F751
:10B1C000A5FA0198139060E10F98002823D1FFE7BA
:10B1D00040F20C00C2F20000D0F8880000280AD02B
:10B1E000FFE740F20C00C2F20000D0F88800FDF743
:10B1F000A9FE0F900BE040F20C00C2F20000D0F864
:10B20000800044210122FDF73DFD0F90FFE7012062
:10B210008DF82B0003E000208DF82B00FFE70F983E
:10B22000002875D0FFE70D98002871D1FFE70C9832
:10B23000002830D1FFE74CF24010C0F60000406D0E
:10B240000C9040F20C00C2F20000D0F884000028FC
:10B2500015D0FFE740F20C00C2F20000D0F88400E5
:10B26000FDF770FE0D900D98002807D0FFE79DF8C0
:10B270002B0040F010008DF82B00FFE70AE040F2B1
:10B280000C00C2F20000406F0C990022FDF7FAFC9E
:10B290000D90FFE70AE040F20C00C2F20000406FA0
:10B2A0000C990022FDF7EEFC0D90FFE70D980028A9
:10B2B00027D1FFE79DF82B00C00700281ED0FFE72D
:10B2C00040F20C00C2F20000D0F8880000280AD03A
:10B2D000FFE740F20C00C2F20000D0F888000F999E
:10B2E000FDF758FE09E040F20C00C2F20000D0F871
:10B2F00080000F99FDF772FDFFE7FFE700200F9038
:10B30000FFE79DF82B0040F002008DF82B00FFE7CF
:10B310000F98002800F0A880FFE70F98F121017036
:10B320000F98012141709DF82B000F9988700E989D
:10B330000F99C87009980F9948600F980021816093
:10B340000F98C1600F9801610F9841610F9881615A
:10B350000F98C1610B980F9A82F820000B980F9AF2
:10B3600082F821000F98FD2280F822200F9880F8A3
:10B3700023100F9841620F9881620F98C1620D9857
:10B380000F9908630C980F9948630D980C9908441D
:10B3900040380F99886312980F99C8630D980890E8
:10B3A000089842F6A561CEF25A2101604CF2401095
:10B3B000C0F6000000784007002818D5FFE70C9879
:10B3C0006FF0100101EB90000790FFE7079800284D
:10B3D0000CD0FFE708980430089008984FF0CC3163
:10B3E0000160FFE7079801380790EFE7FFE70F9844
:10B3F000806B089000200790FFE707980D280AD07F
:10B40000FFE708980799002240F82120FFE70798F6
:10B4100001300790F1E708984AF22501C0F60001D3
:10B4200041631298089988634CF24010C0F60000FE
:10B43000006800F00100129901F0010100F0F0F93C
:10B440000899C86311980899086240F20C00C2F28A
:10B45000000049F69D31C0F6000101660F98426870
:10B46000C16BF6F727F905E000206FF00401F6F74D
:10B470004DF9FFE70F98002804D0FFE70F98FEF77B
:10B4800013FAFFE70F981390FFE7139814B080BDED
:10B4900080B58CB08C460A908DF8271008920793DF
:10B4A0000A9800280AD0FFE79DF8270000280ED050
:10B4B000FFE79DF82700012809D0FFE700206FF083
:10B4C00003010390F6F7CAF903980B9093E00798ED
:10B4D00000282FD0FFE7079800680490079880683D
:10B4E00006900698002815D0FFE79DF81800800701
:10B4F000002805D1FFE70798C0681F2809D8FFE793
:10B5000000206FF008010290F6F7A8F902980B905E
:10B5100071E00EE00798C068002809D0FFE700201E
:10B520006FF008010190F6F799F901980B9062E02D
:10B53000FFE703E0002004900690FFE7069800284C
:10B5400023D1FFE740F20C00C2F20000D0F88C00DB
:10B5500000280AD0FFE740F20C00C2F20000D0F849
:10B560008C00FDF7EFFC06900BE040F20C00C2F2FD
:10B570000000D0F8800020210122FDF783FB069017
:10B58000FFE701208DF8170003E000208DF8170079
:10B59000FFE70698002825D0FFE70698F221017002
:10B5A0000698012141709DF81700069988709DF852
:10B5B00027000699C87004980699486006980021EB
:10B5C00081600698C16006980161069841610A98F9
:10B5D0000699886108980699C86106984168F6F747
:10B5E0002FF905E000206FF00401F6F737F9FFE7C7
:10B5F00006980B90FFE70B980CB080BD80B586B025
:10B60000049003910498FEF77FFC029002980028B2
:10B6100009D0FFE702980078F22804D1FFE70398E9
:10B62000002809D1FFE702986FF003010191F6F7B6
:10B6300015F9019805902BE002984078022804D172
:10B64000FFE70298FBF7BCF818E040F20C00C2F2EA
:10B650000000006D002809D1FFE702986FF0020199
:10B660000091F6F7FBF80098059011E0029802218E
:10B670004170039802994861FFE7FFE70298039938
:10B68000FBF74AF80298F6F71DF900200590FFE74E
:10B69000059806B080BD000081B001468DF803001A
:10B6A00001B0704780B582B001468DF807009DF863
:10B6B00007000091F5F70EFB02B080BD80B58EB09B
:10B6C00013468C4686468DF83700ADF83410ADF839
:10B6D000322000200B900A90099008900790069065
:10B6E0009DF837000146032804911CD80499DFE82F
:10B6F00001F002080E1444F6B870C2F20000059082
:10B7000011E044F6CC70C2F2000005900BE044F664
:10B71000E070C2F20000059005E044F6F470C2F259
:10B7200000000590FFE7BDF83200BDF83410401A64
:10B73000F4F75AFF0A90059800680A99F4F7E7FDB4
:10B7400009900A990598026903901046F4F787FD5D
:10B75000039908610598426801691046F4F7D7FD1E
:10B76000089008980021C4F2FA41F4F721FF00285C
:10B770000CD1FFE7059841680022C4F2FA4202901A
:10B780001046F4F7F6FD02990861FFE708980021DA
:10B79000CCF2FA41F4F71AFF00280CD1FFE7059824
:10B7A00041680022CCF2FA4201901046F4F7E1FD24
:10B7B00001990861FFE70A980599C968F4F7A1FDA6
:10B7C0000B90059880680B99F4F7A1FD07900A98F3
:10B7D0000599C86009980899F4F741FD0799F4F7AD
:10B7E0003EFD069006980021C4F2FA41F4F7E0FE0F
:10B7F000002805D1FFE70020C4F2FA400690FFE7D9
:10B8000006980021F4F7E2FE002803D1FFE70020AC
:10B810000690FFE70698F4F701FF0EB080BD000028
:10B8200081B00A4603468DF803008DF802104FF0F0
:10B83000807001B0704700001EF0040F0CBFEFF3E2
:10B840000880EFF30980F8F7D9BF00000FB4054B6B
:10B8500010B503A9044A029800F0DAF810BC5DF8AC
:10B8600014FB00003D8400080000002002E008C82E
:10B87000121F08C1002AFAD170477047002001E06A
:10B8800001C1121F002AFBD1704700002DE9FF5FA4
:10B8900082B00021DDE90430020DDDF840B0034341
:10B8A00018D044F61050A2F2FF32424315141198FA
:10B8B00001281FD0A5EB0B00401C5FEA000A4FF0E7
:10B8C00000064E4FDFF83891B046504615D5CAF104
:10B8D000000413E0119801244AA3012801D16FEA62
:10B8E0000B010298119AC0E90031C0E9024206B08A
:10B8F000BDE8F09FCBF10000DFE704460021404A9D
:10B90000491842EB0450CDE9001012E0E00707D0DF
:10B9100032463B4640464946F4F769FD8046894633
:10B9200032463B4610461946F4F761FD06460F467F
:10B930006410002CEAD1DDE90401DDE90023BAF14D
:10B94000000F06DAF4F753FD42464B46F4F74FFD7D
:10B9500005E0F4F7BEFD42464B46F4F7BAFD044657
:10B960000E460022284BF5F73BF803D84FF0FF3086
:10B97000014607E00022254B20463146F4F771FFCF
:10B98000F5F716F8102409E0002C0ADB0A22002340
:10B99000F4F792FE039B30321A55641E50EA0102FE
:10B9A000F2D1641C039AC4F111031444119A012AC0
:10B9B00003D0012208430DD10AE0084304D000203F
:10B9C0004FF0110B119072E7A3EB0B056D1E0DE00C
:10B9D0005B4504DD4FF0000205F1010504E003DAE8
:10B9E0004FF00002A5F10105002AECD00298119950
:10B9F000C0E90231C0E9004579E7000000001440C9
:10BA00000000F03F300000000000F0430000E03F85
:10BA10002DE9FF4F95B09B468946064600250FE26B
:10BA2000252877D100242746F84A0121059400E013
:10BA3000044316F8013F203B01FA03F01042F7D10E
:10BA400030782A2811D06FF02F033078A0F130021F
:10BA5000092A16D8059A44F0020402EB820203EB8D
:10BA600042021044761C0590EFE759F8042B05922A
:10BA7000002A03DA504244F40054059044F00204D2
:10BA8000761C30782E2816D116F8010F44F00404E5
:10BA90002A280DD06FF02F023078A0F13003092B47
:10BAA00009D807EB870302EB4303C718761CF3E7BB
:10BAB00059F8047B761C30786C280FD006DC4C28B3
:10BAC00017D068280DD06A2814D104E0742810D04B
:10BAD0007A280FD10DE044F400140AE044F48014F5
:10BAE00001E044F440147278824202D104F58014DB
:10BAF000761C761C307866280BD013DC582877D05B
:10BB000009DC002875D04528F6D04628F4D047280F
:10BB10001AD19DE118E0632835D0642879D06528D2
:10BB200012D195E1702873D008DC6728F1D069281C
:10BB30006FD06E280DD06F2806D1B5E073282CD0B9
:10BB4000752875D0782874D05A46179990476D1C7F
:10BB500075E1C4F30250022809D003280DD0D9F8AA
:10BB6000001004280DD00D6009F1040967E1D9F82F
:10BB70000010EA17C1E90052F6E7D9F800100D806D
:10BB8000F2E70D70F0E719F8041B8DF800100020A3
:10BB90008DF80100EA46012003E059F804AB4FF0AC
:10BBA000FF3061074FF0000102D40DE008F1010100
:10BBB0008846B9420FDA8045F8DB1AF808100029E8
:10BBC000F4D108E008F1010188468142FADB1AF855
:10BBD00008100029F6D105985B46A0EB080721461E
:10BBE0003846179A00F094FA284400EB080507E05D
:10BBF0004DE029E10DE01AF8010B5A4617999047DC
:10BC0000B8F10108F7D25B4621463846179A13E18E
:10BC100042E00A220092C4F302524FF0000A022AC4
:10BC200008D059F804CB032A4FEAEC710AD00DE092
:10BC300029E02AE009F1070121F00702F2E802C138
:10BC4000914609E00FFA8CFC4FEAEC71042A03D10B
:10BC50004FFA8CFC4FEAEC71002907DA0A46002102
:10BC6000DCF1000C61EB02012D2202E0220504D57B
:10BC70002B228DF80420012203E0E20701D02022CC
:10BC8000F7E7904659E00A2102E010220DE010216A
:10BC90004FF0000A00910BE010224FF0000A44F030
:10BCA00004040827009203E008224FF0000A0092E3
:10BCB000C4F30252022A05D059F804CB0021032A0A
:10BCC00008D009E009F1070121F00702F2E802C1FA
:10BCD000914605E01FFA8CFC042A01D10CF0FF0C00
:10BCE0004FF00008220728D5702806D0009B83F06B
:10BCF000100353EA0A0305D00EE040228DF8042019
:10BD0000012208E05CEA010206D030228DF804200E
:10BD10008DF8050002229046009B83F0080353EA49
:10BD20000A030AD15CEA010201D1620705D530227B
:10BD30008DF804204FF001087F1E582804D034A04D
:10BD400003900EA802900DE036A0F9E75346604636
:10BD5000009AF4F7B1FC84460398825C0298401E76
:10BD6000029002705CEA0100F0D1029806A9081A5C
:10BD700000F1200A600702D524F4803400E0012796
:10BD8000574502DDA7EB0A0000E0002000EB0A01A6
:10BD9000009005984144401A0590E00306D45B46A4
:10BDA0002146179A059800F0B3F90544002706E0EC
:10BDB00001A85A46C05D179990476D1C7F1C4745E6
:10BDC000F6DBE0030CD55B462146179A059800F098
:10BDD0009FF9054404E030205A46179990476D1C9E
:10BDE0000099481E00900029F5DC08E002980299AD
:10BDF0005A460078491C0291179990476D1CBAF178
:10BE00000001AAF1010AF1DC65E100000928010046
:10BE100030313233343536373839616263646566C0
:10BE20000000000030313233343536373839414282
:10BE3000434445460000000000F058F90544761CD4
:10BE4000307800287FF4ECAD19B02846BDE8F08FBB
:10BE5000620700D4062709F1070222F0070CFCE86C
:10BE60000223E14603F000485FEA080C02D00FF21B
:10BE7000702C0DE05FEA045C02D50FF2682C07E03D
:10BE80005FEAC47C02D00FF2602C01E0AFF2700CCC
:10BE90004FF0FF3823F00043CDF850C065280CD098
:10BEA00006DC452809D046281DD047283DD13DE075
:10BEB000662818D067287ED138E00021112F01DBD9
:10BEC000112000E0781CCDE9000106A90EA8FFF7BB
:10BED000DDFCDDE90F010E9A03910021009207F1CC
:10BEE000010A04914DE04FF000400097CDE90110A8
:10BEF00006A90EA8FFF7CAFCDDE90F0203920E9B0C
:10BF000011990022DDF80CA00093049211B9791C5C
:10BF100000EB010AB7EB0A0004D4C0F1FF3007F1CF
:10BF2000010A0490AAEB0700019044E0012F00DA17
:10BF300001270021112F01DD112000E03846CDE955
:10BF4000000106A90EA8FFF7A1FCDDE90F010E9A7A
:10BF50000391002104910092BA4621070CD4039961
:10BF6000514500DA8A46BAF1010F05DD009AAAF1BF
:10BF70000101515C302908D0B84202DA10F1040FF7
:10BF800006DA0121CDE9011015E0AAF10101E9E786
:10BF9000002805DC049901440491AAEB000102E0A9
:10BFA000411C514500DD8A460499401A401C01900D
:10BFB0004FF000400290200704D40198504501DB67
:10BFC000CDF8048000208DF84F0002980DF14F0746
:10BFD000B0F1004F25D02B200E9002984FF00208B0
:10BFE00000280CDA404202902D200E9007E00A2132
:10BFF0000298F4F74BFB3031029007F8011DB8F1BD
:10C000000001A8F10108F2DC02980028EFD1791EA6
:10C010000E980870307800F0200040F0450007F8D6
:10C02000020D12A8C01B00F107081498007800B197
:10C03000012000EB0A01019801EBE07105984144F1
:10C04000401A401E0590E00306D45B462146179A2D
:10C05000059800F05DF805441498007818B15A4628
:10C06000179990476D1CE00324D55B462146179A2B
:10C07000059800F04DF805441CE00498002807DB03
:10C08000DDE90301884203DD0098405C179901E077
:10C09000179930205A469047049805F10105401C35
:10C0A00004900198401E019004D12E205A46179901
:10C0B00090476D1CBAF10001AAF1010ADDDC05E030
:10C0C00017F8010B5A46179990476D1CB8F10001FB
:10C0D000A8F10108F4DC5B462146179A0598ABE607
:10C0E0002D0000002B000000200000002DE9F04191
:10C0F000044600251E461746880404D405E0394648
:10C100002020B0476D1C641EF9D52846BDE8F0819B
:10C110002DE9F041044600251E469046C80301D58E
:10C12000302700E02027880404D505E04146384642
:10C13000B0476D1C641EF9D52846BDE8F0810000AB
:10C1400003000000E8030000050000002822002092
:10C1500010000000000000000000000000000000CF
:10C160000000000000000000000000006822002025
:10C170000028000000000000000000000000000097
:10C1800000000000000000000000000000000000AF
:10C1900000000000000C000080C20008BCC20008C3
:10C1A000A4C2000804000000EC4A0020744B0020E8
:10C1B000000000000000000000000000000000007F
:10C1C000000000000000000000000000000000006F
:10C1D0000000000000000000684A00209C4A002087
:10C1E0000000000000000000010203040607080927
:10C1F00000000000010203040100010140000000F2
:10C20000801D00208021002000220020000000006E
:10C210001AC3000800000000000000000000000039
:10C2200000000000001000001A00000000000000E4
:10C230000000000007C3000800000000000000002C
:10C2400000000000000000000004000019000000D1
:10C250000000000000000000F6C20008000000001E
:10C2600000000000000000000000000000100000BE
:10C270001B000000000000000000000000000000A3
:10C280000000000000000000EC4A00204400000014
:10C29000784B0020000200000100000000000000B8
:10C2A000000000000000000000000000684A0020BC
:10C2B000340000009C4A00205000000000000000F4
:10C2C00000000000304B002044000000784D0020AA
:10C2D0000002000028000000000000000000000034
:10C2E000000C014008000000525454444F574E00C7
:10C2F0005254545550006F73527478537461727471
:10C30000546872656164006F735274785468726522
:10C3100061644D73674261636B006F73527478544C
:10C320006872656164436F6E74726F6C002564207F
:10C330002020256420202025642020256420202022
:10C3400025642020202564202020256420202564C9
:10C350002020202564202020256420202025642002
:10C360002025640D0A0057726F6E6720706172613C
:10C370006D65746572732076616C75653A206669C7
:10C380006C65202573206F6E206C696E65202564B6
:10C390000D0A002E2E2F2E2E2F557365722F6273CD
:10C3A000702F7372632F6273702E63002E2E2F2EE8
:10C3B0002E2F557365722F6273702F7372632F6205
:10C3C00073705F756172742E63002E2E2F2E2E2FC8
:10C3D000557365722F6273702F7372632F6273705F
:10C3E0005F74696D65722E63002E2E2F2E2E2F55D1
:10C3F0007365722F6273702F7372632F6273705F35
:10C4000063616E2E630053454747455200525454B2
:10C41000005465726D696E616C0052545820563537
:10C420002E352E320000000080C4000800000020DD
:10C43000C00000006CB8000840C50008C000002023
:10C44000485F00007CB80008000000000000000009
:10C4500000000000000000000000000000000000DC
:10C4600000000000000000000000000000000000CC
:10C4700000000000000000000000000000000000BC
:10C48000000000000024F4005E0100001AC400084F
:10C49000D2B3FB020000000000000000000000001A
:10C4A000000000000000000000000000000000008C
:10C4B000000000000000000000000000000000007C
:10C4C000000000000000000000000000000000006C
:10C4D000000000000000000000000000000000005C
:10C4E000000000000000000000000000000000004C
:10C4F000000000000000000000000000000000003C
:10C50000000000000000000000000000000000002B
:10C51000000000000000000000000000000000001B
:10C52000000000000000000000000000000000000B
:10C5300010000000000000000000000000000000EB
:0400000508000131BD
:00000001FF
