:020000040800F2
:10000000D817002001010008910E0008C90100085E
:10001000330E0008C5090008C11C000800000000DC
:100020000000000000000000000000002D14000887
:10003000990C000800000000530100081916000880
:100040001B0100081B0100081B0100081B01000820
:100050001B0100081B0100081B0100081B01000810
:100060001B0100081B0100081B0100081B01000800
:100070001B0100081B0100081B0100081B010008F0
:100080001B0100081B010008A50900081B0100084E
:100090001B0100081B0100081B0100081B010008D0
:1000A0001B0100081B0100081B0100081B010008C0
:1000B0001B0100081B010008B11700081B01000804
:1000C0001B0100081B0100081B0100081B010008A0
:1000D0001B010008591A00081B0100081B01000839
:1000E0001B0100081B0100081B010008DFF80CD0F1
:1000F00000F010FC004800479B090008D8170020BA
:100100000648804706480047FEE7FEE7FEE7FEE7B1
:10011000FEE7FEE7FEE7FEE7FEE7FEE7CD16000896
:10012000ED000008EFF3108072B6704780F310887E
:100130007047324A1368012B04D04FF0010313605B
:100140002F4A10602F4A11602F484FF080510160F4
:100150007047EFF3108272B62848016891B14FF0F2
:10016000000101602648016829B1EFF3098121E906
:10017000F00F00680160234909680968B1E8F00FD1
:1001800081F3098882F310884EF0040E70471D49F0
:1001900008601B494FF00000086018494FF001004B
:1001A00008601A481A49D0F8002041EA02010160AB
:1001B00015484FF08051016016480068006880F3D0
:1001C000088861B662B670471EF0040F0CBFEFF3EB
:1001D0000880EFF3098020E9F00F40F804ED1EF0ED
:1001E000040F0CBF80F3088880F3098800B502F083
:1001F00007FE5DF804EB4EF0040E7047E0000020AF
:10020000D8000020DC00002004ED00E020ED00E03C
:100210000000FFFF08ED00E0F0B480EA0102D40F17
:100220004200B2EB410F02D20246084611464A0094
:1002300042D0C30DDDB2C1F3C752AD1A202D35DA5D
:10024000C1F3160141F4000204B15242C5F1200687
:1002500002FA06F12A411044B3EBD05F23D0C4B1B7
:10026000012DA0EBC35009DCF0BC4FF0004202EAC4
:10027000C352DBB200F5000000F07AB9400000F193
:10028000807000EBC350A0F1807040EAD17049004B
:1002900009E0490841EAC071A0EBC35000F5000035
:1002A000400800EBC350F0BC00F059B96142012294
:1002B00002EB4101001BF6E7F0BC704781F0004102
:1002C000AAE780F00040A7E780EA010210B502F03B
:1002D0000043400022D04A001FD0010E01EB126102
:1002E000C0F35600C2F3560240F4000042F400028C
:1002F000A0FB022000047F39140400D0401C50EA07
:10030000124001D44000491EC2B20C0604EBD010CA
:10031000401C4008802A02D003E0002010BD20F0DD
:100320000100002900DA0020184310BD2DE9FE4F1E
:1003300081EA030404F0004421F0004100944FF0EE
:10034000000B23F0004350EA01045ED052EA03049C
:100350005BD0C3F30A54C1F30A552C44A4F2F3341E
:100360000194A0FB0254C1F3130141F48011C3F3C3
:10037000130343F4801301FB024400FB034E840A81
:10038000970A44EA815447EA8357A4FB0768029519
:100390008D0A05FB07854FEA932C04FB0C542705B7
:1003A000029D4FEA065847EA1637B5EB08056EEB93
:1003B000070C870E920E47EA811742EA8312A7FBC9
:1003C0000201B6EB0B0164EB00042B0D43EA0C3386
:1003D0005E1844EB1C50DA465146E7FB0201C5F3B8
:1003E00013044FEA0B3343EA14534FEA0432019CDF
:1003F00043EA0603A4F10C040294009CCDE900B486
:1004000000F0F3F803B0BDE8F08F00200146F9E7F3
:10041000C10F80EAE0700844CA079623002100F06B
:10042000A7B820F00040C10DC0F3160040F4000052
:100430007F2901DA00207047962903DCC1F196017B
:10044000C840704796398840704700F0004230F04D
:1004500000400AD0C10D01F56071C0F3160042EAF8
:100460000151C20840071143704700200146704700
:1004700001F0004330B421F0004150EA010206D0FF
:100480000A0DA2F56072C1F31301002A02DC30BC30
:1004900000207047440F44EAC104C100E01830BC9A
:1004A00000EBC25000F05BB8002801DBC0F1004057
:1004B000002901DBC1F1004181427047002801DBC6
:1004C000C0F10040002901DBC1F1004188427047C2
:1004D00030B50B46014600202022012409E021FA14
:1004E00002F59D4205D303FA02F5491B04FA02F511
:1004F0002844151EA2F10102F1DC30BD2DE9F05FA8
:100500000546002092469B46884606468146402482
:100510001BE0284641464746224600F01CFA534657
:100520005A46C01A914110D311461846224600F08F
:1005300003FA2D1A67EB01084F46224601200021DD
:1005400000F0FAF917EB00094E41201EA4F1010456
:10055000DFDC484631462A464346BDE8F09F002985
:10056000A8BF7047401C490008BF20F00100704739
:1005700010B4B0FA80FC00FA0CF050EA010404BF99
:1005800010BC704749B1CCF1200421FA04F411FAEF
:100590000CF118BF012121430843A3EB0C01CB1D33
:1005A0004FEA00614FEA102042BF002010BC7047A4
:1005B00000EBC35010440029A4BF10BC7047401C7E
:1005C000490008BF20F0010010BC704710B5141E90
:1005D00073F1000408DA401C41F1000192185B41FC
:1005E0001A4301D120F0010010BD2DE9F04D9246D3
:1005F0009B4611B1B1FA81F202E0B0FA80F22032EA
:10060000904600F099F904460F4640EA0A0041EA94
:100610000B0153465A46084313D0114653EA0100D2
:1006200019D0C8F14002504600F095F905460E4633
:1006300050465946424600F07FF9084305D0012054
:1006400004E020463946BDE8F08D0020054346EA27
:10065000E0762C4337430A986305E40AA0EB0800D0
:100660000022FD0A44EA47540A3002D50020014620
:10067000E9E7010510196941DDE9084500196941FB
:10068000BDE8F04DA2E72DE9FE4F804681EA030068
:10069000C00F0C46009021F0004123F00045B8EB5C
:1006A0000200A94105D24046214690461C460B4611
:1006B000024623F00040104347D0270DC7F30A003D
:1006C000C3F30A510290401A019040286BDAC3F339
:1006D000130040F4801B0098924620B10023D2EB17
:1006E000030A63EB0B0B01985946C0F140025046D8
:1006F00000F022F906460D4650465946019A00F090
:100700003AF910EB08006141002487EA115284EAAB
:10071000E7731A4340D0009A62B3019A012A4FEA64
:10072000075215DC001B61EB02014FF0004202EAA8
:100730000752CDE90042001C41F5801132462B469C
:10074000FFF753FF03B0BDE8F08F40462146F9E7BD
:10075000001B61EB0201001C41F5801300185B4196
:100760002018A2F5001747EB030140EAD570B6192F
:100770006D4111E06D084FEA360645EAC0754FEA53
:100780000752001B61EB0201001C41F58011490872
:100790004FEA30000019514132462B4603B0BDE804
:1007A000F04FFFF713BF0098012240000023D0EB69
:1007B000020263EBE073009821464FEAE074B8EB65
:1007C000000061EB0401E9E783F000435BE781F09F
:1007D000004158E72DE9F04D81EA030404F0004B95
:1007E00021F0004514464FF0000A23F0004150EA82
:1007F000050220D054EA01021DD0C5F30A57024673
:10080000C5F31303C1F31300C1F30A5640F4801576
:1008100043F48013A7EB0608101BD64608F2FD38F8
:1008200073EB050002D308F1010801E092185B4167
:10083000B8F1000F03DA00200146BDE8F08D00207A
:100840004FF48011064684460EE0171B73EB050734
:1008500005D3121B63EB050306434CEA010C490860
:100860004FEA300092185B4150EA0107EDD152EA9D
:10087000030012D082EA040083EA0501084305D090
:10088000101BAB4106D20122002306E000224FF0EC
:10089000004302E06FF0010253101AEB06004CEB2C
:1008A000085110EB0A0041EB0B01BDE8F04DFFF7DA
:1008B0008DBEC1F30A52C1F3130140F2FF3341F47C
:1008C00080119A4202DA00200146704740F2334319
:1008D0009A42A2F2334202DC524200F03CB800F0ED
:1008E0002BB8000030B5041E71F1000404DB4FF09A
:1008F0000044404264EB0101141E73F1000405DB67
:100900001C464FF00043524263EB0403994208BF78
:10091000904230BD064C074D06E0E06840F0010310
:1009200094E8070098471034AC42F6D3FFF7E2FB97
:10093000B04A0008D04A0008202A04DB203A00FA16
:1009400002F1002070479140C2F1200320FA03F326
:10095000194390407047202A04DB203A21FA02F024
:100960000021704721FA02F3D040C2F120029140E9
:10097000084319467047202A06DBCB17203A41FA74
:1009800002F043EAE07306E041FA02F3D040C2F11C
:100990002002914008431946704710B503F064FCEB
:1009A000002010BD10B5034800F008F80249088087
:1009B00010BD000000280140000000200146C86C66
:1009C00080B2704700BFFEE721B1026842F0010229
:1009D000026004E002684FF6FE731A40026070473E
:1009E00010B50022026847F6F0739A430C6A8B68D0
:1009F00023430C6923434C6923438C692343CC690B
:100A000023434C6A23438C6A23431A430260CB6816
:100A100043600B6883604B68C36010BD41607047E2
:100A200010B500241748006820F47060154908606C
:100A30000846006840F40060086004E0601CC4B22E
:100A4000012000F042F904210E4800F0E0F908B15D
:100A5000C82CF3DBC82C01DB012010BD002404E00E
:100A6000601CC4B2012000F030F90421054800F0F8
:100A7000CEF908B9F02CF3DBF02C01DB0120ECE718
:100A80000020EAE7000801402DE9FC5F00F0C0F813
:100A900000F0A0F8FFF7C4FFCC2000F0C5F8BE209E
:100AA00000F0C2F800F084F8824600F081F80446B5
:100AB000072C07DDE043C4B26FEA0A0000F0FF0A2A
:100AC000002500E00125A1464FEA09200FFA80F930
:100AD00009EB0A000FFA80F94846FFF799FC8346B4
:100AE000FFF7B3FC0022084BCDE90001FFF71EFC25
:100AF0000746FFF7BDFC064615B13046BDE8FC9F32
:100B000086F00040FAE700000000B03F08B5012180
:100B1000042000F011FC0420ADF8000010208DF836
:100B2000030003208DF802006946064800F0E4F84F
:100B30000421044800F076F900F04CF8FFF770FF4C
:100B400008BD00000008014010B51848006820F4F6
:100B50007060164908600846006840F440700860FC
:100B60000421124800F05CF9022000F0AEF80421E4
:100B70000E4800F057F90D48006820F470600B49EA
:100B800008600846006840F4006008600C2000F02F
:100B90009CF80421054800F03AF908B1012400E06E
:100BA0000024322000F091F8204610BD00080140DA
:100BB00070B50026012508E0FFF7C6FF0446E001F6
:100BC00040EA6600C6B2681CC5B2082DF4DD3046A6
:100BD00070BD000010B50D48006820F470600B492E
:100BE00008600846006840F4407008600421074827
:100BF00000F016F940F2EE2000F067F804210348F7
:100C000000F010F90F2000F060F810BD000801405E
:100C100010B5FFF7DFFFFFF703FFCC2000F004F86B
:100C2000442000F001F810BD70B504461948006872
:100C300020F47060174908600846006840F440706E
:100C40000860012522E004F00106641076B1042159
:100C5000104800F0E5F8022000F037F804210D48B4
:100C600000F0E0F83C2000F030F80DE004210948E5
:100C700000F0D6F83C2000F028F80421054800F0E8
:100C8000D1F8022000F021F8681CC5B2082DDADD89
:100C900070BD000000080140704700B5034603E046
:100CA0004FF47A7000F011F8181EA3F10103F7D188
:100CB00000BD10B5044603E04FF47A70FFF7EDFF76
:100CC000201EA4F10104F7D110BD00EBC001C90042
:100CD0004FF0E0225161002191610521116100BFB7
:100CE0004FF0E021096901F480310029F8D0042196
:100CF0004FF0E022116170472DE9F04102460025D6
:100D00000026002000230024002791F803C00CF0E7
:100D10000F0591F803C00CF0100CBCF1000F03D0CC
:100D200091F802C04CEA050591F800C0BCF1000F33
:100D300031D0146800202BE04FF0010C0CFA00F3C6
:100D4000B1F800C00CEA03069E4220D183004FF0A8
:100D50000F0C0CFA03F7BC4305FA03FC4CEA04043D
:100D600091F803C0BCF1280F06D14FF0010C0CFA2A
:100D700000FCC2F814C00AE091F803C0BCF1480FAF
:100D800005D14FF0010C0CFA00FCC2F810C0401C59
:100D90000828D1D31460B1F800C0BCF1FF0F34DDD6
:100DA000546800202EE000F1080C4FF0010808FA0A
:100DB0000CF3B1F800C00CEA03069E4221D1830077
:100DC0004FF00F0C0CFA03F7BC4305FA03FC4CEA96
:100DD000040491F803C0BCF1280F05D100F1080C00
:100DE00008FA0CF8C2F8148091F803C0BCF1480F5F
:100DF00007D100F1080C4FF0010808FA0CF8C2F80E
:100E00001080401C0828CED35460BDE8F081024613
:100E1000002093680B400BB1012000E000207047D8
:100E200041617047016170470AB1016100E04161B1
:100E3000704700BFFEE7000000B58BB001210846F7
:100E400000F05AFA31200390002002900A900D48D9
:100E500001900020079080200590202008900A48EB
:100E600000900020069004904FF48050099069464D
:100E70000648FFF7B5FD01210448FFF7A5FD0BB0BB
:100E800000BD000048110020043801405800024015
:100E90007047000070B5002100230F22C47804B30E
:100EA000154C246804F4E064C4F5E064210AC1F13F
:100EB0000403CA40447804FA03F1847814402143BF
:100EC00009010E4C0678A155047804F01F05012491
:100ED000AC4005786D11AD0005F1E025C5F8004185
:100EE00009E0047804F01F050124AC40044D0678A5
:100EF000761145F8264070BD0CED00E000E400E0FE
:100F000080E100E002490143024A1160704700009D
:100F10000000FA050CED00E070B500240EE00021A1
:100F2000204600F002F9002504E0002000F06CF9F2
:100F3000681CC5B2822DF8DB601CC4B2082CEEDB45
:100F400070BD00001CB50121082000F0F5F9142047
:100F50008DF8070003208DF806004FF48070ADF87F
:100F6000040001A91848FFF7C7FE4FF40070ADF860
:100F7000040001A91448FFF7BFFE10208DF80300FC
:100F800003208DF802004020ADF8000069460E48AD
:100F9000FFF7B2FE8020ADF8000069460A48FFF76F
:100FA000ABFE40210848FFF73BFF80210648FFF7D2
:100FB00039FF012211020448FFF736FF01225102D6
:100FC0000148FFF731FF1CBD000C014070B505461C
:100FD000002415E08020204100EA05024FF4007152
:100FE0000E48FFF721FF012211020C48FFF71CFFFA
:100FF00000224FF480710948FFF716FF601CC4B24D
:10100000082CE7DB012211020448FFF70DFF002244
:101010004FF480710148FFF707FF70BD000C0140DD
:1010200010B5012251020A48FFF7FEFE012211020B
:101030000748FFF7F9FE00224FF400710448FFF75C
:10104000F3FE00224FF480710148FFF7EDFE10BD62
:10105000000C014010B500224FF400710648FFF764
:10106000E3FE012211020448FFF7DEFE01225102D5
:101070000148FFF7D9FE10BD000C014070B50024F7
:1010800006E0002500E06D1CB5F57A7FFBD3641CFB
:10109000B4F57A7FF5D3FFF755FFAE2000F0A4F842
:1010A000D52000F0A1F8802000F09EF8A82000F0E4
:1010B0009BF83F2000F098F8D32000F095F800202E
:1010C00000F092F8402000F08FF8A12000F08CF89A
:1010D000C82000F089F8DA2000F086F8122000F02D
:1010E00083F8812000F080F8CF2000F07DF8D9202F
:1010F00000F07AF8F12000F077F8DB2000F074F8C7
:10110000302000F071F8A42000F06EF8A62000F066
:101110006BF88D2000F068F8142000F065F8AF201F
:1011200000F062F8FFF7F8FE70BD70B505460C469A
:1011300045F0B00000F058F8102141EA141000F01A
:1011400053F804F00F0000F04FF870BD2DE9F041A6
:1011500005460E461746721ED206110E6A1E52062C
:10116000100EFFF7E2FF002409E0A7F12001134A67
:1011700002EB0111085D00F047F8601CC4B2082CB6
:10118000F3DB721ED206110E6A1E012303EB42022C
:10119000D0B2FFF7CAFF00240BE0A7F12001074AF5
:1011A00002EB011204F10801505C00F02DF8601C04
:1011B000C4B2082CF1DBBDE8F08100008C430008CC
:1011C0002DE9F04107460E461546002407E02A5D4A
:1011D0003019C1B23846FFF7B9FF601CC4B2285DB0
:1011E0000028F4D1BDE8F08110B50446FFF718FFE0
:1011F0007820FFF7EBFE0020FFF7E8FE2046FFF720
:10120000E5FEFFF727FF10BD10B50446FFF708FF06
:101210007820FFF7DBFE4020FFF7D8FE2046FFF7DF
:10122000D5FEFFF717FF10BD2DE9F04104460D462E
:1012300029462068FFF742F8A061D4E90510FFF7BE
:101240003DF8206220686060D4E90610FEF7E4FFF4
:10125000E061A0696061616AE069FFF72FF902D877
:10126000606AE0610BE0606A80F000463046E16948
:10127000FFF724F903D8606A80F00040E061A169BB
:10128000A068FFF721F8A062E169E068FFF71CF8A9
:10129000E062216A2069FFF717F82063606B80F035
:1012A0000046D4E90A01FEF7B7FF8046216BFEF73E
:1012B000B3FF07463146FFF7F7F804D8606B80F0BC
:1012C0000040BDE8F081D4E90A01FEF7A5FF07461A
:1012D000216BFEF7A1FF0646616BFFF7EFF801D81F
:1012E000606BEEE7D4E90A01FEF796FF0646216B34
:1012F000FEF792FFE5E7000029B1064A5269024372
:10130000044B5A6104E0034A52698243014B5A611B
:10131000704700000010024029B1064AD26902431A
:10132000044BDA6104E0034AD2698243014BDA617B
:10133000704700000010024029B1064A926902433A
:10134000044B9A6104E0034A92698243014B9A611B
:10135000704700000010024030B500210022002438
:1013600000232D4D6D6805F00C0121B1042905D035
:10137000082923D105E0294D056022E0274D0560AD
:101380001FE0254D6D6805F47012234D6D6805F45E
:101390008034022505EB92421CB9214D554305606E
:1013A0000BE01D4D6D6805F400351DB11C4D554316
:1013B000056002E0194D5543056002E0174D0560D8
:1013C00000BF00BF144D6D6805F0F0010909154D0F
:1013D0006B5C0568DD4045600F4D6D6805F4E061AC
:1013E000090A104D6B5C4568DD4085600A4D6D68EB
:1013F00005F46051C90A0B4D6B5C4568DD40C56062
:10140000054D6D6805F44041890B074D6B5CC5685F
:10141000B5FBF3F5056130BD0010024000127A0003
:1014200000093D001800002028000020704700003F
:1014300010B504462146054800F03EFC00BF80215F
:10144000024800F09AFB0028F9D010BD0038014096
:1014500070B504460D46002600BF04E014F8010BE9
:10146000FFF7E6FF761CAE42F8DB70BD00B587B033
:10147000FFF7E2FC01218803FFF75EFF0121042052
:10148000FFF75AFF18208DF81B004FF40070ADF8DD
:10149000180003208DF81A0006A92348FFF72CFC3A
:1014A00048208DF81B004FF48060ADF81800032031
:1014B0008DF81A0006A91C48FFF71EFC4FF41650C1
:1014C00002900020ADF814000C20ADF812000020AE
:1014D000ADF81000ADF80E00ADF80C0002A91348ED
:1014E00000F07EFB012240F22441104800F052FB44
:1014F0004FF4A060FFF706FD25208DF804000120C1
:101500008DF807008DF805008DF8060001A8FFF79B
:10151000C1FC0121054800F01BFB012240210348CA
:1015200000F022FB07B000BD000801400038014078
:1015300010B500F001F810BD0CB50020019000902E
:101540003348006840F480303149086000BF3048BB
:10155000006800F4003000900198401C0190009851
:1015600018B90198B0F5A06FF1D12948006800F4CE
:10157000003010B10120009001E0002000900098A0
:10158000012843D12348006840F010002149086039
:101590000846006820F0070008600846006840F030
:1015A000020008601A4840681949486008464068C7
:1015B00048600846406840F48060486008464068DB
:1015C00020F47C1048600846406840F4E810486009
:1015D0000846006840F08070086000BF0C48006852
:1015E00000F000700028F9D00948406820F003009E
:1015F000074948600846406840F00200486000BF64
:101600000348406800F00C000828F9D10CBD000028
:10161000001002400020024010B501F017FD02F05A
:1016200027FB01F023FD10BD10B500210020002292
:10163000214B5B6803F00C0121B1042906D0082975
:1016400028D107E01D4B1E4C236027E01B4B1C4C90
:10165000236023E0184B5B6803F47010164B5B6843
:1016600003F48032022303EB904022B9154B43432D
:10167000134C23600DE0104B5B6803F4003323B17F
:10168000104B43430E4C236003E00C4B43430C4C84
:10169000236003E0094B0A4C236000BF00BF064BE8
:1016A0005B68C3F30313084CE15C054B1B68CB403C
:1016B000034C236010BD00000010024000127A00AD
:1016C0000400002000093D000800002010B5134868
:1016D000006840F001001149086008464068104960
:1016E00008400E494860084600680E4908400B490A
:1016F00008600846006820F48020086008464068BA
:1017000020F4FE0048604FF41F008860FFF710FFD0
:101710004FF000600449086010BD00000010024056
:101720000000FFF8FFFFF6FE08ED00E030B589B0DD
:1017300005460C4601210220FFF7EEFD01210D2098
:10174000FFF7FAFD8020ADF8200018208DF8230067
:1017500003208DF8220008A91348FFF7CDFAADF851
:101760001850ADF814400020ADF81A00ADF816007E
:1017700005A90E4800F01EF96020ADF80400012014
:10178000ADF806000020ADF80C0001A9074800F0F4
:10179000AFF80821054800F0FDF80121034800F0EA
:1017A0007AF809B030BD0000000801400004004094
:1017B00010B50121184800F07AF801282AD11748FD
:1017C0000078012822D116480068E0B11548007859
:1017D00001F01EF81248006801F02CF8104800686B
:1017E000401E0F4908600F480078012805D10E48B7
:1017F0000068401C0C49086008E00B480068401E67
:101800000949086002E000200449087001210248EB
:1018100000F03EF810BD0000000800403800002035
:101820003C00002039000020400000201FB5174870
:1018300000F057F801210420FFF76EFD1E208DF8FF
:101840000C0000208DF80D008DF80E0001208DF8A1
:101850000F0003A8FFF71EFB40F2E730ADF80400CD
:101860004720ADF800000020ADF80600ADF80200FA
:101870006946064800F09EF80121044800F00BF884
:1018800001221146014800F023F81FBD0008004066
:10189000CA430282704721B1028842F001020280ED
:1018A00004E002884FF6FE731A400280704730B59C
:1018B0000246002000230024158A05EA01039589C9
:1018C00005EA010413B10CB1012000E0002030BD95
:1018D0001AB183890B43838102E083898B4383811F
:1018E000704701894FF6F87211400181704700007E
:1018F00070B5002400220023058C4FF6EF763540AA
:101900000584028C8388048B48F6FF752C404FF6C3
:10191000FF452C400D884FF6FF7606EA05252C433F
:101920004FF6DF752A400D8906EA05152A434D88D2
:1019300006EA05152A43154DA84202D0144DA842C7
:101940001DD14FF67F752A404D894FF6FF7606EA86
:1019500005152A434FF6BF752A408D8806EA0515FE
:101960002A434FF6FF352B404FF2FF752B408D89F0
:1019700006EA85052B43CD8906EA85052B4383803E
:101980000483CD880587028470BD0000002C0140CF
:10199000003401400A460021018B4FF2FF731940C9
:1019A0004FF6FF7303EA022319430183704701874F
:1019B00070470000002202881D4B98420ED01D4B3C
:1019C00098420BD0B0F1804F08D01B4B984205D005
:1019D0001A4B984202D01A4B984204D14FF68F739B
:1019E0001A404B881A43174B984207D0164B98421F
:1019F00004D04FF6FF431A40CB881A4302808B88ED
:101A000083850B8803850A4B98420BD0094B98427B
:101A100008D00E4B984205D00D4B984202D00D4B8A
:101A2000984201D10B7A038601238382704700001C
:101A3000002C014000340140000400400008004038
:101A4000000C004000100040001400400040014025
:101A5000004401400048014010B51021304800F01A
:101A60008CF801285AD12F480078401C2D49087065
:101A700000212D48FEF7A8FF294800882848001DAE
:101A8000008831212848FEF7C9FF002027498872C5
:101A900008460078242838D108464078242834D1D4
:101AA00023488978017023482049B1F80310018048
:101AB0001E484079312806D101201F4908600102E3
:101AC0001E48FFF7AFF91E4909681A4A12884FF4F9
:101AD0007A7303FB1210002801DB014600E041424B
:101AE000184A116016480068124909884FF47A7242
:101AF00002FB1100002802DD4FF0FF3000E0012062
:101B000011490870012011490870084A012108464E
:101B1000FFF756FB01210448FEF756FF10BD0000F9
:101B200000380140530000205800024048110020B6
:101B30005200002050000020440000200008014016
:101B4000400000203C000020390000203800002028
:101B500021B1828942F40052828104E082894DF6EB
:101B6000FF731A40828170471AB1838A0B438382C4
:101B700002E0838A8B438382704702460020B1F5DE
:101B8000007F00D100BF13880B400BB1012000E0A3
:101B900000207047F0B503460024002600250020F1
:101BA00040F66A17B94200D100BF1846C1F342148B
:101BB00001F01F06012707FA06F5012C01D10C30B0
:101BC00004E0022C01D1103000E014301AB1076893
:101BD0002F43076002E00768AF430760F0BD0000D5
:101BE0002DE9F04786B005460E460024A24600BF08
:101BF000A1460027B08900B100BF2F462C8A4CF6C1
:101C0000FF700440F08804432C82AC894EF6F31038
:101C10000440B08831890843718908430443AC818A
:101C2000AC8A4FF6FF400440B0890443AC8201A85F
:101C3000FFF792FB1F48874202D1DDF810A001E0B8
:101C4000DDF80CA0A88900F4004040B10AEBCA00FE
:101C500000EB0A1031684900B0FBF1F807E00AEB2D
:101C6000CA0000EB0A1031688900B0FBF1F864206B
:101C7000B8FBF0F004012009642101FB1089A88958
:101C800000F4004040B1322000EBC900B0FBF1F09D
:101C900000F00700044308E0322000EB0910642143
:101CA000B0FBF1F000F00F0004432C8106B0BDE85A
:101CB000F087000000380140C1F3080282807047BD
:101CC00000BFFEE70146481EB0F1807F01D301202E
:101CD0007047481E4FF0E0225061FF20044A107008
:101CE00000204FF0E0229061072010610020EFE714
:101CF00023ED00E00FB41CB50246002007AC00291C
:101D00000BD0491ECDE90021054B6A4621460698B5
:101D100000F000F9009A002111701CBC5DF814FB62
:101D200027270008014609B900207047C8B220B132
:101D3000C8B20E4A105C401CF7E701F47F4028B19E
:101D40000A48C1F30722805C0930EEE701F47F0006
:101D500028B10648C1F30742805C1130E5E703482B
:101D600000EB116000781930DFE700007C490008C3
:101D700002E008C8121F08C1002AFAD17047704754
:101D8000002001E001C1121F002AFBD170470000B2
:101D90002DE9FF5F82B00021DDE90430020DDDF89E
:101DA00040B0034318D044F61050A2F2FF32424331
:101DB0001514119801281FD0A5EB0B00401C5FEAF9
:101DC000000A4FF000064E4FDFF83891B0465046FB
:101DD00015D5CAF1000413E0119801244AA3012883
:101DE00001D16FEA0B010298119AC0E90031C0E9F4
:101DF000024206B0BDE8F09FCBF10000DFE70446E9
:101E00000021404A491842EB0450CDE9001012E08D
:101E1000E00707D032463B4640464946FEF786FA81
:101E20008046894632463B4610461946FEF77EFA02
:101E300006460F466410002CEAD1DDE90401DDE915
:101E40000023BAF1000F06DAFEF770FA42464B465D
:101E5000FEF76CFA05E0FEF7BDFC42464B46FEF786
:101E6000B9FC04460E460022284BFEF73BFD03D882
:101E70004FF0FF30014607E00022254B2046314657
:101E8000FEF701FCFEF715FD102409E0002C0ADB2B
:101E90000A220023FEF732FB039B30321A55641EE0
:101EA00050EA0102F2D1641C039AC4F111031444F4
:101EB000119A012A03D0012208430DD10AE00843F8
:101EC00004D000204FF0110B119072E7A3EB0B052B
:101ED0006D1E0DE05B4504DD4FF0000205F10105CC
:101EE00004E003DA4FF00002A5F10105002AECD06E
:101EF00002981199C0E90231C0E9004579E7000074
:101F0000000014400000F03F300000000000F043EB
:101F10000000E03F2DE9FF4F95B09B4689460646FD
:101F200000250FE2252877D100242746F84A012111
:101F3000059400E0044316F8013F203B01FA03F04A
:101F40001042F7D130782A2811D06FF02F03307863
:101F5000A0F13002092A16D8059A44F0020402EBD7
:101F6000820203EB42021044761C0590EFE759F819
:101F7000042B0592002A03DA504244F400540590E1
:101F800044F00204761C30782E2816D116F8010F82
:101F900044F004042A280DD06FF02F023078A0F10D
:101FA0003003092B09D807EB870302EB4303C7185B
:101FB000761CF3E759F8047B761C30786C280FD038
:101FC00006DC4C2817D068280DD06A2814D104E00C
:101FD000742810D07A280FD10DE044F400140AE0E0
:101FE00044F4801401E044F440147278824202D137
:101FF00004F58014761C761C307866280BD013DC30
:10200000582877D009DC002875D04528F6D0462816
:10201000F4D047281AD19DE118E0632835D0642810
:1020200079D0652812D195E1702873D008DC672833
:10203000F1D069286FD06E280DD06F2806D1B5E099
:1020400073282CD0752875D0782874D05A461799E3
:1020500090476D1C75E1C4F30250022809D0032893
:102060000DD0D9F8001004280DD00D6009F1040935
:1020700067E1D9F80010EA17C1E90052F6E7D9F88C
:1020800000100D80F2E70D70F0E719F8041B8DF8D1
:10209000001000208DF80100EA46012003E059F805
:1020A00004AB4FF0FF3061074FF0000102D40DE0A8
:1020B00008F101018846B9420FDA8045F8DB1AF8C9
:1020C00008100029F4D108E008F101018846814296
:1020D000FADB1AF808100029F6D105985B46A0EB48
:1020E000080721463846179A00F094FA284400EB76
:1020F000080507E04DE029E10DE01AF8010B5A460A
:1021000017999047B8F10108F7D25B462146384647
:10211000179A13E142E00A220092C4F302524FF0F0
:10212000000A022A08D059F804CB032A4FEAEC71BE
:102130000AD00DE029E02AE009F1070121F00702A9
:10214000F2E802C1914609E00FFA8CFC4FEAEC710B
:10215000042A03D14FFA8CFC4FEAEC71002907DA0C
:102160000A460021DCF1000C61EB02012D2202E0A5
:10217000220504D52B228DF80420012203E0E2077A
:1021800001D02022F7E7904659E00A2102E0102210
:102190000DE010214FF0000A00910BE010224FF0EB
:1021A000000A44F004040827009203E008224FF0DC
:1021B000000A0092C4F30252022A05D059F804CB57
:1021C0000021032A08D009E009F1070121F00702E4
:1021D000F2E802C1914605E01FFA8CFC042A01D105
:1021E0000CF0FF0C4FF00008220728D5702806D00D
:1021F000009B83F0100353EA0A0305D00EE040224F
:102200008DF80420012208E05CEA010206D03022A9
:102210008DF804208DF8050002229046009B83F083
:10222000080353EA0A030AD15CEA010201D16207FA
:1022300005D530228DF804204FF001087F1E582864
:1022400004D034A003900EA802900DE036A0F9E768
:1022500053466046009AFEF751F984460398825C23
:102260000298401E029002705CEA0100F0D10298D0
:1022700006A9081A00F1200A600702D524F4803468
:1022800000E00127574502DDA7EB0A0000E000202F
:1022900000EB0A01009005984144401A0590E003C4
:1022A00006D45B462146179A059800F0B3F9054419
:1022B000002706E001A85A46C05D179990476D1C9B
:1022C0007F1C4745F6DBE0030CD55B462146179A99
:1022D000059800F09FF9054404E030205A4617990C
:1022E00090476D1C0099481E00900029F5DC08E01D
:1022F000029802995A460078491C02911799904712
:102300006D1CBAF10001AAF1010AF1DC65E10000DF
:1023100009280100303132333435363738396162BB
:10232000636465660000000030313233343536377F
:1023300038394142434445460000000000F058F956
:102340000544761C307800287FF4ECAD19B028469F
:10235000BDE8F08F620700D4062709F1070222F0DA
:10236000070CFCE80223E14603F000485FEA080C92
:1023700002D00FF2702C0DE05FEA045C02D50FF280
:10238000682C07E05FEAC47C02D00FF2602C01E009
:10239000AFF2700C4FF0FF3823F00043CDF850C07F
:1023A00065280CD006DC452809D046281DD04728D2
:1023B0003DD13DE0662818D067287ED138E0002165
:1023C000112F01DB112000E0781CCDE9000106A9E6
:1023D0000EA8FFF7DDFCDDE90F010E9A0391002145
:1023E000009207F1010A04914DE04FF00040009780
:1023F000CDE9011006A90EA8FFF7CAFCDDE90F021E
:1024000003920E9B11990022DDF80CA00093049218
:1024100011B9791C00EB010AB7EB0A0004D4C0F132
:10242000FF3007F1010A0490AAEB0700019044E095
:10243000012F00DA01270021112F01DD112000E01A
:102440003846CDE9000106A90EA8FFF7A1FCDDE999
:102450000F010E9A0391002104910092BA462107C0
:102460000CD40399514500DA8A46BAF1010F05DD13
:10247000009AAAF10101515C302908D0B84202DA71
:1024800010F1040F06DA0121CDE9011015E0AAF1DF
:102490000101E9E7002805DC049901440491AAEB55
:1024A000000102E0411C514500DD8A460499401AB2
:1024B000401C01904FF000400290200704D4019886
:1024C000504501DBCDF8048000208DF84F000298C4
:1024D0000DF14F07B0F1004F25D02B200E90029840
:1024E0004FF0020800280CDA404202902D200E9096
:1024F00007E00A210298FDF7EBFF3031029007F860
:10250000011DB8F10001A8F10108F2DC02980028D1
:10251000EFD1791E0E980870307800F0200040F05E
:10252000450007F8020D12A8C01B00F10708149817
:10253000007800B1012000EB0A01019801EBE07185
:1025400005984144401A401E0590E00306D45B46BE
:102550002146179A059800F05DF805441498007814
:1025600018B15A46179990476D1CE00324D55B4675
:102570002146179A059800F04DF805441CE0049890
:10258000002807DBDDE90301884203DD0098405C99
:10259000179901E0179930205A469047049805F1A1
:1025A0000105401C04900198401E019004D12E208A
:1025B0005A46179990476D1CBAF10001AAF1010A19
:1025C000DDDC05E017F8010B5A46179990476D1CA2
:1025D000B8F10001A8F10108F4DC5B462146179A26
:1025E0000598ABE62D0000002B0000002000000045
:1025F0002DE9F041044600251E461746880404D400
:1026000005E039462020B0476D1C641EF9D52846E8
:10261000BDE8F0812DE9F041044600251E469046B4
:10262000C80301D5302700E02027880404D505E041
:1026300041463846B0476D1C641EF9D52846BDE8B2
:10264000F08100002DE9FC5F04468B4615461E46CE
:10265000DDE90C9ADDE90E7804F1140040600060B9
:1026600000BF1C346560A660C4F80C90C4F810A0CC
:102670002321D4E9030200F071FED4E9033C634452
:102680001A1F0F4BD4E9010100F0BAFC2060A776B5
:1026900067760020E061C4F82080C4F8248060617F
:1026A00020766065A0651C3C00902346054A2146C3
:1026B000019004F1440001F08AFB0020BDE8FC9F7A
:1026C000B5390008E13B00082DE9F04704460E4605
:1026D00017469846DDF8209084F80990607A20F03B
:1026E00001006072E66127620020A062C4F82480C5
:1026F000002506E004F1140101EBC50000F02EFDF9
:102700006D1C012DF6DBBDE8F08770B50546002491
:1027100006E005F1140101EBC40000F060FD641C4B
:10272000012CF6DB70BD4A68002A06D00A68531CEB
:102730000B6010704868401E4860704770B50446D2
:10274000FDF7F0FC0546206F10B12046216F884749
:102750002846FDF7EBFC70BD08B501210420FEF70B
:10276000EBFD4FF48070ADF8000010208DF80300F1
:1027700003208DF8020069460448FEF7BDFA4FF4C5
:1027800080710248FEF74CFB08BD000000080140C4
:1027900014E00B480068012807D101020948FEF740
:1027A00041FB00200649086004E04FF480710548B1
:1027B000FEF736FB4FF47A7001F0F5F8E9E7000018
:1027C000440000200008014008B501210420FEF764
:1027D000B3FD10208DF80300ADF8000003208DF844
:1027E000020069460948FEF787FA2020ADF800008C
:1027F00069460648FEF780FA10210448FEF712FBEE
:1028000020210248FEF70EFB08BD00000008014031
:1028100010B50446012C05D110210548FEF702FB36
:10282000002010BD10210248FEF7FAFA0020F8E758
:102830000008014010B5044604F0010020B1202139
:102840000448FEF7EFFA03E020210248FEF7E8FA19
:1028500010BD0000000801401CB5FFF77DFFFFF729
:10286000B3FFFEF703FEFEF751F9FEF707FCFEF794
:102870004DF9FEF751FBFEF7D9FF0C480C490D4B03
:102880004FF07C52CDE9001001460B4800F0ADF846
:10289000632140F2CF20FEF749FF00210748FFF7F0
:1028A00086F80748044908601CBD00000000C843C2
:1028B00000002F440000C842FC000020000400403B
:1028C0000000A0421CB5FFF7C7FF142003214FF4FE
:1028D00000730022CDE90010314932A001F03BF82D
:1028E00032490860142003214FF400730022CDE91F
:1028F00000102F492FA001F02EF8304908602B4816
:10290000006818B12948006801F032F92B480068C6
:1029100018B12A48006801F02BF93FE0FEF7B4F83F
:102920002749086008460068FDF77BFD25490870C7
:1029300023480068FDF789FD23A2CDE90001142199
:102940002348FFF7D7F90020214948720A460121A0
:102950000220FEF735FC1F480068FDF776FD1AA23D
:10296000CDE9000114211A48FFF7C4F9184A0121E2
:102970000320FEF725FC24201749087048700846FC
:102980000F490968C0F80210002013498871062118
:102990001148FEF75DFD0120FEF78BF9BEE7000050
:1029A000B942000874656D703100000048000020D5
:1029B00091270008616C61726D3100004C000020AD
:1029C0002C00002030000020252E3366000000007F
:1029D000E8000020340000203401002010B5044637
:1029E00000F03AF9FFF76EFF10BD70B5DDE9044560
:1029F0000026466145628160C2600361446370BD28
:102A000030B51A4C436824681919884215D04B8890
:102A10009BB9174B1B6899420FD0164B1B688B4212
:102A200001D1144B18604B684360104B1B68C31AEC
:102A30000E4D4C682D682C44A3600C4C83682468B0
:102A40001A19824211D053887BB90A4B1B68834202
:102A500001D1084B1A6043685360044B1B68D31ABA
:102A6000024D44682D682C44A36030BD5C000020FA
:102A700060000020640000202DE9F04F86B00D4674
:102A80009C46DDE9106401960F9B04F04008B8F104
:102A9000000F02D0DFF8708101E0DFF87081CDF81F
:102AA000008004F01008B8F1000F01D024F00104F8
:102AB00004F00108B8F1000F02D04FF0300801E037
:102AC0004FF02008C246002704F00208B8F1000FBA
:102AD00011D0002A02DA2D2752420CE004F004083B
:102AE000B8F1000F01D02B2705E004F00808B8F179
:102AF000000F00D02027002142B94FF0300B88464C
:102B0000491C0DF1080909F808B01DE01AE0E1467A
:102B1000B9F10A0F08D14FF00A0BB2FBFBFE0BFB19
:102B20001E28B2FBFBF202E002F00F08120900BF00
:102B3000DDF8009019F808B08846491C0DF1080925
:102B400009F808B0002AE2D1B14200DD0E469B1B15
:102B500004F01108B8F1000F10D117B1002B00DDFF
:102B60005B1E06E0A84203D24FF0200880F80080E8
:102B7000401CB3F10008A3F10103F3DC27B1A84224
:102B800000D207705B1E401C04F01008B8F1000F63
:102B90000AD104E0A84201D280F800A0401CB3F1A1
:102BA0000008A3F10103F5DC06E0A84203D24FF0D0
:102BB000300880F80080401CB046761E8845F4DC62
:102BC00008E0A84205D20DF1080818F8018080F845
:102BD0000080401CB1F10008A1F1010104DDDDF825
:102BE0000480B8F1000FECD106E0A84203D24FF008
:102BF000200880F80080401CB3F10008A3F1010315
:102C0000F3DC06B0BDE8F08F8D4A00087C4A00086E
:102C10001CB514200221CB010022CDE9001004498B
:102C200004A000F098FE0446204600F0A1FF1CBD61
:102C3000DD2900086D61696E0000000010B5044CCC
:102C400002E020688047241D02488442F9D310BD69
:102C5000A44A0008A84A000810B5044C02E0206805
:102C60008047241D02488442F9D310BDA84A0008B9
:102C7000AC4A000810B5FDF755FA04460448008830
:102C8000401C00B2024908802046FDF74FFA10BDF3
:102C9000B800002010B5FDF745FA04460C4800883E
:102CA000401E00B20A4908800846B0F9000000281A
:102CB0000ADC002008802046FDF738FA0548006845
:102CC00028B100F003FC02E02046FDF72FFA10BD0A
:102CD000B8000020BC00002070B5054605B970BDE5
:102CE0001D480068854203D31C480068854200D314
:102CF000F5E7A5F10C044FF0FF31194800F0B6FCE0
:102D0000608818B12088B0F5F55F08D015A000F0F4
:102D100007FA23886288214619A000F001FA0020F2
:102D200060804FF4F550208021480068844201D231
:102D30001F480460084960680968611A401A1D4903
:102D40000968081A1B4908602046FFF759FE044825
:102D500000F063FC00BFC2E75C00002060000020C0
:102D600074130020746F20667265652061206261B3
:102D700064206461746120626C6F636B3A0A0000C6
:102D80006D656D3A203078253038782C2075736564
:102D90006420666C61673A2025642C206D61676948
:102DA0006320636F64653A203078253034780A00F8
:102DB000640000206C00002000487047480100209B
:102DC000004870474811002070B5FEF72DFC0A48F6
:102DD00000684FF47A71B0FBF1F42046FEF772FF01
:102DE000FFF72CFFFFF7ECFF0446FFF7E5FF054672
:102DF000214600F0E7FC70BD040000207047000091
:102E000070B505462C1D2E48006838B128462C495F
:102E100009688847064606B970BD00BF29A0E16B66
:102E200000F07EF92BA0216A00F07AF92DA0616AEA
:102E300000F076F92FA0A16A00F072F931A0E16AE2
:102E400000F06EF933A0216800F06AF935A06168DE
:102E500000F066F937A0A16800F062F939A0E168D6
:102E600000F05EF93BA0216900F05AF93DA06169CC
:102E700000F056F93FA0A16900F052F941A0E169C4
:102E800000F04EF943A0216B00F04AF945A0616BB8
:102E900000F046F947A0A16B00F042F9287800F055
:102EA000040038B100F03CFE0646314645A000F073
:102EB00037F902E04BA000F033F900BFFEE7000055
:102EC000E40000207073723A203078253038780A98
:102ED000000000007230303A203078253038780A0F
:102EE000000000007230313A203078253038780AFE
:102EF000000000007230323A203078253038780AED
:102F0000000000007230333A203078253038780ADB
:102F1000000000007230343A203078253038780ACA
:102F2000000000007230353A203078253038780AB9
:102F3000000000007230363A203078253038780AA8
:102F4000000000007230373A203078253038780A97
:102F5000000000007230383A203078253038780A86
:102F6000000000007230393A203078253038780A75
:102F7000000000007231303A203078253038780A6D
:102F8000000000007231313A203078253038780A5C
:102F9000000000007231323A203078253038780A4B
:102FA00000000000206C723A203078253038780A12
:102FB000000000002070633A203078253038780A0D
:102FC0000000000068617264206661756C74206F97
:102FD0006E207468726561643A2025730D0A0D0ACB
:102FE0000000000068617264206661756C74206F77
:102FF0006E2068616E646C65720D0A0D0A00000037
:10300000F0B504460D461646301D20F00700403846
:103010000146002203E00C4F41F82270521C102A96
:10302000F9D30D624FF0000CC1F824C0C1F828C0DC
:10303000C1F82CC0C1F830C04B638C634FF0807C6A
:10304000C1F83CC0F0BD0000EFBEADDE10B5FDF72D
:1030500069F8044604480078401C0349087020467B
:10306000FDF764F810BD00005800002010B5FDF712
:1030700059F8044604480078401E03490870204669
:10308000FDF754F810BD00005800002070B504464C
:103090002068A0F11405284600F024FD002070BD32
:1030A0002DE9F04105460C469046204600F076FD9D
:1030B000B8F1000F03D0B8F1010F23D105E004F1FE
:1030C0001401284600F062F81DE02E680FE0A6F11A
:1030D000140794F8350097F83510884206DA04F1A1
:1030E000140107F1140000F051F802E03668AE4216
:1030F000EDD100BFAE4204D104F11401284600F026
:1031000045F800E000BF00BF0020BDE8F08110B529
:10311000044604F1140000F01BF8002010BD00006C
:103120000FB438B505A800907F210848009B049A89
:1031300000F0F2FE04467F2C00D97F240348FFF7FD
:103140005DFE0020009038BC5DF814FBF4120020F6
:103150004060006070474060006070474060006001
:1031600070470268516002680A60016048607047F9
:103170000268516002680A60016048607047026836
:10318000516002680A6001604860704742681160DF
:1031900042684A604160086070470146086888429A
:1031A00001D1012070470020FCE7014608688842F1
:1031B00001D1012070470020FCE7D0E900215160D7
:1031C000D0E900121160406000607047D0E9002132
:1031D0005160D0E900121160406000607047D0E992
:1031E00000215160D0E9001211604060006070471A
:1031F0002DE9F041054615B90020BDE8F081E81C35
:1032000020F003054E480068854201D90020F4E70C
:103210000C2D00D20C254FF0FF314A4800F026FA61
:103220004948006849490968461A7EE047480068ED
:1032300084196088002874D106F10C006168081AAE
:10324000A8426ED306F10C006168091A05F1180056
:10325000814230D306F10C0000EB05083B480068C2
:1032600000EB08074FF4F550388000207880606844
:103270007860BE60C4F804800120608030487968BE
:1032800000680C30814205D03049786809680844EC
:10329000C0F808802E48016805F10C0008442C494C
:1032A00008602C4800680968884219D228480068DC
:1032B0002849086014E0012060802449606809689A
:1032C000611A401A224909680844214908602148C6
:1032D00000680968884203D21D4800681D490860DB
:1032E0004FF4F550208018480068844212D107E05E
:1032F0001548006840681549096808441249086083
:1033000011480068408828B10F48006812490968D0
:103310008842EDD10B4800F080F904F10C006CE715
:10332000FFE70A4800683044466805480068401BCB
:10333000B0423FF67BAF034800F06FF900205CE736
:103340006800002074130020640000205C0000204E
:103350006C0000207000002060000020F0B50C46DA
:103360000546E6B2042A15D300F0030797B90146D3
:1033700046EA062343EA034304E008C108C108C142
:1033800008C1103A102AF8D201E008C1121F042A1D
:10339000FBD20D4601E005F8016B171EA2F10102F8
:1033A000F9D1F0BD2DE9F04106460F46304600F058
:1033B00045F80546E868FFF71BFF044614B90020EE
:1033C000BDE8F08100212046EA68FFF7C7FF2672BA
:1033D0000020607208223946204600F0D9F9FCF737
:1033E000A1FE804604F10C01281DFFF7BAFE4046FD
:1033F000FCF79CFE2046E3E770B5044600202072EF
:10340000FCF790FE054604F10C00FFF7D6FE2846B7
:10341000FCF78CFE2046FFF75FFC70BD70B50446DC
:1034200000202072FCF77EFE054604F10C00FFF739
:10343000C4FE2846FCF77AFE70BD0000024600215B
:103440000AE0074800EB01100078904203D10448DD
:1034500000EB01107047491C0429F2DB0020F9E75A
:10346000740000202DE9F04704460D4690460026E2
:103470002846FFF7E3FF0746FFF7FCFB7E6802E004
:10348000A6F10C003668381D8642F9D1FFF702FC20
:1034900045F08000207208224146204600F078F96D
:1034A000FCF740FE814604F10C01381DFFF759FE80
:1034B0004846FCF73BFEBDE8F0870146087A00F07D
:1034C000800008B1012070470020FCE72DE9F041A1
:1034D000FCF728FE07461848008838BB17480068E4
:1034E000FEF720FC461E164850F83600A0F11404E2
:1034F00014480068844218D013490E7011480568BA
:1035000004601248007850B904F11C0105F11C0058
:10351000FCF70FFE3846FCF709FEBDE8F08104F128
:103520001C0105F11C00FCF704FE00BF3846FCF747
:10353000FDFD00BFF1E70000B8000020B40000204E
:1035400094130020BC000020C00000205800002080
:1035500070B50446FCF7E6FD054614F8340F20F07C
:103560000F0040F0010020706278343C0A4B03EBFE
:10357000C20004F114014268116042684A6041606F
:10358000086000BF0549A06B09680843034908604B
:103590002846FCF7CBFD70BD94130020B40000203A
:1035A00070B50446FCF7BEFD054604F11400D0E9F1
:1035B00000215160D0E9001211604060006000BF3E
:1035C00094F83510094A02EBC1000168814201D12B
:1035D000012100E0002129B10548A16B0068884362
:1035E000034908602846FCF7A1FD70BD9413002034
:1035F000B40000202DE9F04104460D4616461F4652
:103600002A4602212046FFF72DFF2046FFF77FFDC7
:10361000A68367720020BDE8F08170B504460025DE
:10362000FCF780FD064604F11400FFF7B6FD28B94B
:1036300004F11400FFF72AFD01250EE0A08B4FF6E0
:10364000FF71884203DAA08B401CA08305E030465E
:10365000FCF76CFD6FF0020070BD3046FCF766FDB4
:10366000012D01D1FFF732FF0020F5E773B50546C4
:10367000FCF758FD0646A88B002806DDA88B401EE7
:10368000A8833046FCF752FD28E0019828B930465F
:10369000FCF74CFD6FF001007CBD00F041FA0446E0
:1036A000002020636A7A214605F11400FFF7F8FC38
:1036B0000198002809DD01AA002104F1440000F06E
:1036C00041FB04F1440000F099FB3046FCF72EFD6D
:1036D000FFF7FCFE206B08B1206BDDE70020DBE785
:1036E00008B509A0FFF71CFD0AA0FFF719FD12A0FD
:1036F000052301220321009012A0FFF711FD19A05C
:10370000FFF70EFD08BD00000A205C207C202F0A78
:10371000000000002D205254202D20202020205475
:103720006872656164204F7065726174696E6720AC
:1037300053797374656D0A004A756C2031392032F3
:1037400030323300202F207C205C202020202025B8
:10375000642E25642E2564206275696C64202573AF
:103760000A0000002032303036202D203230323036
:1037700020436F707972696768742062792072746F
:103780002D746872656164207465616D0A000000C3
:1037900070B50346A2B118460C4600BF14F8016B81
:1037A00000F8016B3EB902E0002500F8015B551EF0
:1037B0002A1EF9D102E0551E2A1EEFD100BF00BF1C
:1037C000184670BD2DE9F04105460E46E81C20F074
:1037D000030726F00308B8F1180F09D9A8F118005B
:1037E000B84205D3A8EB070018381E49086006E068
:1037F000324629461CA0FFF793FCBDE8F08129481A
:10380000076004684FF4F5502080164800680C30BB
:1038100060600020A06060802249606809680844F8
:10382000214908604FF4F5500968088001201E49BD
:10383000096848800B4800680C301B4909684860DB
:10384000084800680C301849096888600023012284
:1038500016A11848FFF7CEFE124800681649086006
:1038600000BFCAE7680000206D656D20696E69744D
:103870002C206572726F7220626567696E206164C8
:10388000647265737320307825782C20616E642013
:10389000656E642061646472657373203078257886
:1038A0000A0000005C000020600000206865617074
:1038B00000000000741300206400002010B50020F8
:1038C0000B490880002405E00A4901EBC400FFF71A
:1038D00042FC641C082CF7DB072007490870002015
:1038E00006490860064908600648FFF734FC10BD29
:1038F000B800002094130020C0000020BC0000206D
:10390000B4000020C400002070B508480068FEF72D
:1039100009FA451E064850F83500A0F11404054880
:10392000046004F11C00FCF732FC70BDB400002000
:1039300094130020BC00002010B5002405E00449C9
:1039400001EBC400FFF70AFC641C002CF7D010BD8B
:10395000CC00002070472DE9FF5F06460F469046D9
:103960001D46DDE90EAB31460120FFF71BFD814608
:10397000B9F1000F03D1002004B0BDE8F09F284644
:10398000FFF736FC044624B94846FFF735FD002012
:10399000F2E743463A46314648468DE8300CFEF79A
:1039A00051FE4846E8E710B50446204600F0BEF850
:1039B00010BD000070B513480468FCF7B3FB054662
:1039C0002046FEF7BBFE2046FFF7EAFD042084F800
:1039D000340004F1440000F0E6F92046FFF76DFDE5
:1039E000012803D12046FFF719FD04E004F114017A
:1039F0000548FFF7BDFBFFF769FD2846FCF796FB7E
:103A000070BD0000BC000020C400002001E000F0F8
:103A100001F8FCE770B528E0FCF784FB054600BF21
:103A200013480168814201D0012100E0002119B949
:103A30002846FCF77BFB19E00D480068A0F1140450
:103A400004F11400D0E900215160D0E900121160A6
:103A50004060006000BFA06AFFF73EF92046FFF714
:103A6000CBFC2846FCF762FB00BFD5E700BF70BD6A
:103A7000C40000201FB520200721C200074BCDE95C
:103A80000032CDE902100023054A06A1074800F0E4
:103A90000FF8064800F06CF81FBD0000F41100207C
:103AA0000D3A00087469646C650000007C11002008
:103AB0002DE9FF5F05460C4616461F46DDE910ABB3
:103AC000DDE90E89224601212846FFF7CBFC3B4663
:103AD0003246214628468DE8000FFEF7B3FD04B0BC
:103AE000BDE8F09F70B5044694F8340000F00F0074
:103AF000022802D04FF0FF3070BDFCF713FB0546E3
:103B000004F11400FFF762FB04F1440000F0ECF94B
:103B10002846FCF70BFB2046FFF71AFD0020EBE7D9
:103B20000148006870470000BC00002031B5FCF778
:103B3000F9FA05460D480468204600F02FF86A4659
:103B4000002104F1440000F0FDF804F1440000F00D
:103B500055F92846FCF7EAFAFFF7B8FC206B801C01
:103B600008B900202063002038BD0000BC00002000
:103B700010B504463434A078607061780120884024
:103B80006060022004F834092046FFF7ABFFFFF71E
:103B9000C7FF08B1FFF79AFC002010BD70B50446BE
:103BA00094F8340000F00F00012802D04FF0FF30ED
:103BB00070BDFCF7B7FA05462046FFF7F1FC94F814
:103BC000340020F00F0040F0020084F8340004F1CB
:103BD000440000F089F92846FCF7A8FA0020E7E73E
:103BE00070B5044625466FF00100286305F1140006
:103BF000FFF7ECFA2846FFF7ABFCFFF767FC70BD58
:103C000070B5FCF78FFA05461448046894F8340040
:103C100000F00F0001281CD1D4E90510814218D012
:103C200004F11400FFF7D2FA94F835200C4B03EBA3
:103C3000C20004F114014268116042684A604160A8
:103C4000086000BF2846FCF771FAFFF73FFC002030
:103C500070BD2846FCF76AFA0020F9E7BC00002096
:103C600094130020014800687047000054000020B1
:103C700010B50A480068401C08490860FFF750FF6B
:103C80000446206C401E2064206C18B9E06B206450
:103C9000FFF7B6FF00F004F810BD0000540000204C
:103CA0007CB56846FFF75AFAFFF7DCFF0546FCF7DC
:103CB00039FA06463AE022480068A0F11404A06AE6
:103CC000281A6FF0004188422ED22046FEF71DFDD3
:103CD000607A00F0020018B9607A20F0010060728A
:103CE00004F114016846FFF74AFAD4E9071088473F
:103CF000FFF7B8FF05466846FFF757FA00B115E031
:103D000004F11400FFF76BFA607A00F0020060B172
:103D1000607A00F0010040B1607A20F0010060722A
:103D2000204600F06BF800E005E000BF0448FFF714
:103D30003CFA0028BFD000BF3046FCF7F7F97CBD45
:103D4000CC0000202DE9F04104460E461546FCF754
:103D5000E9F90746052E1ED2DFE806F00603090E34
:103D60001300606A286017E02868606214E0607AD7
:103D700020F0020060720FE0607A40F00200607292
:103D80000AE0607A00F0010010B10120286001E033
:103D90000020286000E000BF00BF3846FCF7C6F9ED
:103DA0000020BDE8F08170B50446FCF7BBF905467C
:103DB0002046FEF7AAFC607A20F0010060722846D7
:103DC000FCF7B4F92046FFF729FB002070BD2DE970
:103DD000F84307460C4615461E46DDE9088922468B
:103DE0000A213846FFF73EFB43463246294638460D
:103DF000CDF80090FEF768FCBDE8F8832DE9F843A4
:103E00000546FCF78FF980462846FEF77EFC687A67
:103E100020F001006872FFF725FF696A0844A86274
:103E20002F4F009700242AE019E05DF82420116844
:103E3000142202EBC402881A826AAB6AD21A00D139
:103E400008E0826AAB6AD21A6FF000439A4200D24D
:103E50000CE000BF5DF8240000684DF824005DF818
:103E6000240007EBC40149688842DED100BF2CB1B1
:103E70005DF824000830611C4DF82100641C002C02
:103E8000D2D018480068401C1649086008460668E9
:103E900005F114010098FFF772F9022412E006F010
:103EA000030060B9C4F1010305F1140202EBC30180
:103EB000C4F101025DF82200FFF761F900E003E0C0
:103EC000B608641C012CEAD900BF687A40F00100F2
:103ED00068724046FCF72AF90020BDE8F88300002C
:103EE000CC000020D400002070B50446607A00F0B9
:103EF000010010B94FF0FF3070BDFCF713F9054613
:103F00002046FEF702FC607A20F00100607228462D
:103F1000FCF70CF90020EFE72DE9FF4F89B081464F
:103F20004C460A9809EB00064E4504D24FF0FF3686
:103F3000A6EB09000A9077E10B980078252806D0B7
:103F4000B44202D20B9800782070641C69E100250D
:103F500026E00B98401C0B900B9800782D2802D17E
:103F600045F010051CE00B9800782B2802D145F095
:103F7000040515E00B980078202802D145F00805CB
:103F80000EE00B980078232802D145F0200507E0C9
:103F90000B980078302802D145F0010500E000E0E0
:103FA000D7E700BF4FF0FF370B98007830380A286A
:103FB00004D20BA800F06DF907460EE00B980078CC
:103FC0002A280AD10B98401C0B900C9880C80C90A2
:103FD000002F02DA7F4245F010054FF0FF3A0B98B0
:103FE00000782E281CD10B98401C0B900B98007861
:103FF00030380A2804D20BA800F04BF982460AE0B8
:104000000B9800782A2806D10B98401C0B900C982E
:1040100050F804AB0C90BAF1000F01DA4FF0000A2F
:10402000002004900B980078682803D00B98007843
:104030006C2805D10B98007804900B98401C0B90CD
:104040000A2005900B9800786F2873D00CDC632849
:1040500013D004DC25286ED058286DD195E0642853
:104060006BD06928F9D197E0702873D0732825D0D8
:1040700075286ED07828F0D18AE005F0100040B99C
:1040800004E0B44201D220202070641C781E071E78
:10409000F7DC0C9810F8041B0C90C8B20790B442DF
:1040A00001D207982070641C04E0B44201D22020A1
:1040B0002070641C781E071EF7DCB2E00C980068C4
:1040C00006900C98001D0C90069808B960A0069008
:1040D0004FF0000801E008F10108B84504D0069847
:1040E00010F808000028F6D1BAF1000F02DDD04523
:1040F00000DDD04605F0100048B904E0B44201D21A
:1041000020202070641C38467F1E4045F6DC0020CD
:1041100008900BE0B44202D2069800782070641C2C
:104120000698401C06900898401C08900898404546
:10413000F0DB09E026E01FE032E02CE00AE0B442C8
:1041400001D220202070641C38467F1E4045F6DCDA
:1041500067E024E0781C10B9082745F00105CDE997
:10416000007A02950C9804C8102331460C90204622
:10417000FEF782FC044654E0B44201D225202070B0
:10418000641C4EE0082005901DE045F0400500BF8E
:104190001020059017E000BF45F0020500BF12E0B7
:1041A000B44201D225202070641C0B98007830B1F5
:1041B000B44202D20B9800782070641C02E00B9885
:1041C000401E0B902DE000BF04986C2807D10C987E
:1041D00050F804BB0C9005F00200B8B116E004984A
:1041E00068280BD10C9830F8041B1FFA81FB0C9047
:1041F00005F0020050B10FFA8BFB07E00C9850F865
:1042000004BB0C9005F0020000B100BFCDE9007ABC
:1042100002955A4631462046059BFEF72DFC044682
:1042200000BF0B98401C0B900B98007800287FF47F
:1042300083AE0A9838B1B44202D20020207002E066
:10424000002006F8010CA4EB09000DB0BDE8F08FCA
:10425000284E554C4C290000002070470020704724
:10426000002070470020704710B5FBF75BFFFEF79A
:10427000ABFDFFF735FAFFF75FFBFFF71FFBFEF71C
:10428000C7FCFFF767FBFFF7F5FBFFF73DFB0020DF
:1042900010BD0146002009E00B685A1C0A601A781C
:1042A00000EB800302EB4302A2F130000A681278AF
:1042B000303A0A2AF0D370471CB552E0FCF7E4FB11
:1042C0002849086008460068FCF7ABF826490870E2
:1042D00024480068FCF7B9F824A2CDE900011421B4
:1042E0002448FDF707FD0020224948720A460121B3
:1042F0000220FCF765FF20491A480068FCF7D4F853
:1043000003D21E48006817490860164801681B4818
:10431000FCF78AFF04460021FCF7C6F801D800200C
:1043200010E0104801681548FCF77EFF0446144968
:10433000FCF7C4F801D8124804E00A4801680F48A5
:10434000FCF772FF0F49086008460068FCF769F83F
:1043500084B221460C48FDF72AFB4FF47A70FFF730
:1043600022FBABE72C00002030000020252E336616
:1043700000000000E800002000002041FC000020B8
:1043800000C033443400002000040040000000005E
:10439000000000000000000000000000000000F825
:1043A00000000000000000333000000000100C0688
:1043B000100C0600000000000000000040C0784023
:1043C000C0784000043F04043F040400007088FCEF
:1043D00008300000001820FF211E0000F008F00047
:1043E000E018000000211C031E211E0000F00888B8
:1043F000700000001E2123241927211010160E0022
:10440000000000000000000000000000000000E0CC
:1044100018040200000000071820400000020418E1
:10442000E00000000040201807000000404080F03D
:10443000804040000202010F01020200000000F073
:10444000000000000101011F010101000000000047
:104450000000000080B070000000000000000000BC
:104460000000000000010101010101010000000045
:1044700000000000003030000000000000000000DC
:1044800080601804006018060100000000E01008B9
:104490000810E000000F102020100F00001010F88E
:1044A000000000000020203F2020000000700808CD
:1044B000088870000030282422213000003008884D
:1044C000884830000018202020110E000000C02075
:1044D00010F8000000070424243F240000F8088896
:1044E000880808000019212020110E0000E0108823
:1044F00088180000000F112020110E000038080855
:10450000C83808000000003F000000000070880864
:1045100008887000001C222121221C0000E01008E5
:104520000810E0000000312222110F00000000C03E
:10453000C0000000000000303000000000000080DB
:1045400000000000000080600000000000008040CB
:1045500020100800000102040810200040404040E4
:104560004040400004040404040404000008102037
:10457000408000000020100804020100007048087C
:104580000808F0000000003036010000C030C828E4
:10459000E810E0000718272423140B000000C0389F
:1045A000E0000000203C23020227382008F8888819
:1045B00088700000203F202020110E00C030080825
:1045C00008083800071820202010080008F80808FC
:1045D0000810E000203F202020100F0008F88888F5
:1045E000E8081000203F20202320180008F88888C1
:1045F000E8081000203F200003000000C030080839
:104600000838000007182020221E020008F80800C1
:104610000008F808203F210101213F20000808F888
:10462000080800000020203F2020000000000808AB
:10463000F8080800C08080807F00000008F888C06B
:1046400028180800203F20012638200008F808001C
:1046500000000000203F20202020300008F8F80053
:10466000F8F80800203F003F003F200008F830C065
:104670000008F808203F200007183F00E010080855
:104680000810E0000F10202020100F0008F8080884
:104690000808F000203F210101010000E010080897
:1046A0000810E0000F18242438504F0008F88888BC
:1046B00088887000203F2000030C3020007088089C
:1046C000080838000038202121221C00180808F8AA
:1046D000080818000000203F2000000008F808002B
:1046E0000008F808001F202020201F0008788800FC
:1046F00000C83808000007380E010000F80800F86C
:104700000008F800033C0700073C03000818688015
:104710008068180820302C03032C30200838C8008B
:10472000C83808000000203F2000000010080808DA
:10473000C83808002038262120201800000000FE7C
:10474000020202000000007F40404000000C30C028
:1047500000000000000000010638C0000002020254
:10476000FE000000004040407F0000000000040206
:104770000202040000000000000000000000000031
:104780000000000080808080808080800002020421
:104790000000000000000000000000000000808019
:1047A000808000000019242222223F2008F8008087
:1047B00080000000003F112020110E00000000804A
:1047C00080800000000E11202020110000000080D9
:1047D0008088F800000E112020103F20000080800B
:1047E00080800000001F222222221300008080F01F
:1047F000888888180020203F20200000000080804A
:1048000080808000006B94949493600008F800808E
:1048100080800000203F210000203F2000809898E9
:10482000000000000020203F202000000000008049
:104830009898000000C08080807F000008F8000089
:1048400080808000203F24022D302000000808F8DE
:10485000000000000020203F202000008080808099
:1048600080808000203F20003F20003F808000802B
:1048700080800000203F210000203F200000808039
:1048800080800000001F202020201F0080800080EA
:104890008000000080FFA12020110E000000008099
:1048A00080808000000E112020A0FF80808080008A
:1048B0008080800020203F212000010000008080B7
:1048C000808080000033242424241900008080E0AC
:1048D000808000000000001F202000008080000079
:1048E00000808000001F202020103F20808080005A
:1048F0000080808000010E3008060100808000806A
:10490000008080800F300C030C300F00008080008E
:10491000808080000020312E0E31200080808000B9
:104920000080808080818E70180601000080808069
:10493000808080000021302C222130000000000007
:10494000807C020200000000003F404000000000A8
:10495000FF00000000000000FF0000000002027CD9
:10496000800000000040403F000000000006010100
:10497000020204040000000000000000000001002A
:104980000200010003000100020001000400010018
:104990000200010003000100020001000500010007
:1049A00002000100030001000200010004000100F8
:1049B00002000100030001000200010006000100E6
:1049C00002000100030001000200010004000100D8
:1049D00002000100030001000200010005000100C7
:1049E00002000100030001000200010004000100B8
:1049F00002000100030001000200010007000100A5
:104A00000200010003000100020001000400010097
:104A10000200010003000100020001000500010086
:104A20000200010003000100020001000400010077
:104A30000200010003000100020001000600010065
:104A40000200010003000100020001000400010057
:104A50000200010003000100020001000500010046
:104A60000200010003000100020001000400010037
:104A70000200010003000100020001003031323366
:104A800034353637383961626364656600303132F7
:104A90003334353637383941424344454600000007
:104AA000654200085D420008594200086142000862
:104AB000D04A000800000020E8000000701D000837
:104AC000B84B0008E8000020F0160000801D000828
:104AD0000000000000A24A040000000000000000E6
:104AE0000102030406070809000000000102030494
:104AF000010203040607080902040608000000007A
:104B000000000000000000000000000000000000A5
:104B10000000000000000000000000000000000095
:104B20000000000000000000000000000000000085
:104B30000000000000000000000000000000000075
:104B40000000000001000000780000207800002034
:104B5000780000000200000088000020880000208B
:104B600020000000050000009800002098000020B0
:104B7000300000000A000000A8000020A80000206B
:104B80002C000000000000000000000000000000F9
:104B90000000000000000000000000000000000015
:104BA0000000000000000000000000000000000005
:084BB0000000000000000000FD
:04000005080000ED02
:00000001FF
